ARM GAS  C:\Users\aupen\AppData\Local\Temp\ccogqXvD.s 			page 1


   1              		.syntax unified
   2              		.cpu cortex-m3
   3              		.fpu softvfp
   4              		.eabi_attribute 20, 1
   5              		.eabi_attribute 21, 1
   6              		.eabi_attribute 23, 3
   7              		.eabi_attribute 24, 1
   8              		.eabi_attribute 25, 1
   9              		.eabi_attribute 26, 1
  10              		.eabi_attribute 30, 4
  11              		.eabi_attribute 34, 1
  12              		.eabi_attribute 18, 4
  13              		.thumb
  14              		.syntax unified
  15              		.file	"cyfitter_cfg.c"
  16              		.text
  17              	.Ltext0:
  18              		.cfi_sections	.debug_frame
  19              		.section	.text.SetAnalogRoutingPumps,"ax",%progbits
  20              		.align	1
  21              		.global	SetAnalogRoutingPumps
  22              		.thumb
  23              		.thumb_func
  24              		.type	SetAnalogRoutingPumps, %function
  25              	SetAnalogRoutingPumps:
  26              	.LFB7:
  27              		.file 1 "Generated_Source\\PSoC5\\cyfitter_cfg.c"
   1:Generated_Source\PSoC5/cyfitter_cfg.c **** 
   2:Generated_Source\PSoC5/cyfitter_cfg.c **** /*******************************************************************************
   3:Generated_Source\PSoC5/cyfitter_cfg.c **** * File Name: cyfitter_cfg.c
   4:Generated_Source\PSoC5/cyfitter_cfg.c **** * 
   5:Generated_Source\PSoC5/cyfitter_cfg.c **** * PSoC Creator  4.1 Update 1
   6:Generated_Source\PSoC5/cyfitter_cfg.c **** *
   7:Generated_Source\PSoC5/cyfitter_cfg.c **** * Description:
   8:Generated_Source\PSoC5/cyfitter_cfg.c **** * This file contains device initialization code.
   9:Generated_Source\PSoC5/cyfitter_cfg.c **** * Except for the user defined sections in CyClockStartupError(), this file should not be modified.
  10:Generated_Source\PSoC5/cyfitter_cfg.c **** * This file is automatically generated by PSoC Creator.
  11:Generated_Source\PSoC5/cyfitter_cfg.c **** *
  12:Generated_Source\PSoC5/cyfitter_cfg.c **** ********************************************************************************
  13:Generated_Source\PSoC5/cyfitter_cfg.c **** * Copyright (c) 2007-2017 Cypress Semiconductor.  All rights reserved.
  14:Generated_Source\PSoC5/cyfitter_cfg.c **** * You may use this file only in accordance with the license, terms, conditions, 
  15:Generated_Source\PSoC5/cyfitter_cfg.c **** * disclaimers, and limitations in the end user license agreement accompanying 
  16:Generated_Source\PSoC5/cyfitter_cfg.c **** * the software package with which this file was provided.
  17:Generated_Source\PSoC5/cyfitter_cfg.c **** ********************************************************************************/
  18:Generated_Source\PSoC5/cyfitter_cfg.c **** 
  19:Generated_Source\PSoC5/cyfitter_cfg.c **** #include <string.h>
  20:Generated_Source\PSoC5/cyfitter_cfg.c **** #include "cytypes.h"
  21:Generated_Source\PSoC5/cyfitter_cfg.c **** #include "cydevice_trm.h"
  22:Generated_Source\PSoC5/cyfitter_cfg.c **** #include "cyfitter.h"
  23:Generated_Source\PSoC5/cyfitter_cfg.c **** #include "CyLib.h"
  24:Generated_Source\PSoC5/cyfitter_cfg.c **** #include "cyfitter_cfg.h"
  25:Generated_Source\PSoC5/cyfitter_cfg.c **** #include "cyapicallbacks.h"
  26:Generated_Source\PSoC5/cyfitter_cfg.c **** 
  27:Generated_Source\PSoC5/cyfitter_cfg.c **** #define CY_NEED_CYCLOCKSTARTUPERROR 1
  28:Generated_Source\PSoC5/cyfitter_cfg.c **** 
  29:Generated_Source\PSoC5/cyfitter_cfg.c **** 
  30:Generated_Source\PSoC5/cyfitter_cfg.c **** #if defined(__GNUC__) || defined(__ARMCC_VERSION)
ARM GAS  C:\Users\aupen\AppData\Local\Temp\ccogqXvD.s 			page 2


  31:Generated_Source\PSoC5/cyfitter_cfg.c ****     #define CYPACKED 
  32:Generated_Source\PSoC5/cyfitter_cfg.c ****     #define CYPACKED_ATTR __attribute__ ((packed))
  33:Generated_Source\PSoC5/cyfitter_cfg.c ****     #define CYALIGNED __attribute__ ((aligned))
  34:Generated_Source\PSoC5/cyfitter_cfg.c ****     #define CY_CFG_UNUSED __attribute__ ((unused))
  35:Generated_Source\PSoC5/cyfitter_cfg.c ****     #ifndef CY_CFG_SECTION
  36:Generated_Source\PSoC5/cyfitter_cfg.c ****         #define CY_CFG_SECTION __attribute__ ((section(".psocinit")))
  37:Generated_Source\PSoC5/cyfitter_cfg.c ****     #endif
  38:Generated_Source\PSoC5/cyfitter_cfg.c ****     
  39:Generated_Source\PSoC5/cyfitter_cfg.c ****     #if defined(__ARMCC_VERSION)
  40:Generated_Source\PSoC5/cyfitter_cfg.c ****         #define CY_CFG_MEMORY_BARRIER() __memory_changed()
  41:Generated_Source\PSoC5/cyfitter_cfg.c ****     #else
  42:Generated_Source\PSoC5/cyfitter_cfg.c ****         #define CY_CFG_MEMORY_BARRIER() __sync_synchronize()
  43:Generated_Source\PSoC5/cyfitter_cfg.c ****     #endif
  44:Generated_Source\PSoC5/cyfitter_cfg.c ****     
  45:Generated_Source\PSoC5/cyfitter_cfg.c **** #elif defined(__ICCARM__)
  46:Generated_Source\PSoC5/cyfitter_cfg.c ****     #include <intrinsics.h>
  47:Generated_Source\PSoC5/cyfitter_cfg.c **** 
  48:Generated_Source\PSoC5/cyfitter_cfg.c ****     #define CYPACKED __packed
  49:Generated_Source\PSoC5/cyfitter_cfg.c ****     #define CYPACKED_ATTR 
  50:Generated_Source\PSoC5/cyfitter_cfg.c ****     #define CYALIGNED _Pragma("data_alignment=4")
  51:Generated_Source\PSoC5/cyfitter_cfg.c ****     #define CY_CFG_UNUSED _Pragma("diag_suppress=Pe177")
  52:Generated_Source\PSoC5/cyfitter_cfg.c ****     #define CY_CFG_SECTION _Pragma("location=\".psocinit\"")
  53:Generated_Source\PSoC5/cyfitter_cfg.c ****     
  54:Generated_Source\PSoC5/cyfitter_cfg.c ****     #define CY_CFG_MEMORY_BARRIER() __DMB()
  55:Generated_Source\PSoC5/cyfitter_cfg.c ****     
  56:Generated_Source\PSoC5/cyfitter_cfg.c **** #else
  57:Generated_Source\PSoC5/cyfitter_cfg.c ****     #error Unsupported toolchain
  58:Generated_Source\PSoC5/cyfitter_cfg.c **** #endif
  59:Generated_Source\PSoC5/cyfitter_cfg.c **** 
  60:Generated_Source\PSoC5/cyfitter_cfg.c **** #ifndef CYCODE
  61:Generated_Source\PSoC5/cyfitter_cfg.c ****     #define CYCODE
  62:Generated_Source\PSoC5/cyfitter_cfg.c **** #endif
  63:Generated_Source\PSoC5/cyfitter_cfg.c **** #ifndef CYDATA
  64:Generated_Source\PSoC5/cyfitter_cfg.c ****     #define CYDATA
  65:Generated_Source\PSoC5/cyfitter_cfg.c **** #endif
  66:Generated_Source\PSoC5/cyfitter_cfg.c **** #ifndef CYFAR
  67:Generated_Source\PSoC5/cyfitter_cfg.c ****     #define CYFAR
  68:Generated_Source\PSoC5/cyfitter_cfg.c **** #endif
  69:Generated_Source\PSoC5/cyfitter_cfg.c **** #ifndef CYXDATA
  70:Generated_Source\PSoC5/cyfitter_cfg.c ****     #define CYXDATA
  71:Generated_Source\PSoC5/cyfitter_cfg.c **** #endif
  72:Generated_Source\PSoC5/cyfitter_cfg.c **** 
  73:Generated_Source\PSoC5/cyfitter_cfg.c **** 
  74:Generated_Source\PSoC5/cyfitter_cfg.c **** CY_CFG_UNUSED
  75:Generated_Source\PSoC5/cyfitter_cfg.c **** static void CYMEMZERO(void *s, size_t n);
  76:Generated_Source\PSoC5/cyfitter_cfg.c **** CY_CFG_UNUSED
  77:Generated_Source\PSoC5/cyfitter_cfg.c **** static void CYMEMZERO(void *s, size_t n)
  78:Generated_Source\PSoC5/cyfitter_cfg.c **** {
  79:Generated_Source\PSoC5/cyfitter_cfg.c **** 	(void)memset(s, 0, n);
  80:Generated_Source\PSoC5/cyfitter_cfg.c **** }
  81:Generated_Source\PSoC5/cyfitter_cfg.c **** CY_CFG_UNUSED
  82:Generated_Source\PSoC5/cyfitter_cfg.c **** static void CYCONFIGCPY(void *dest, const void *src, size_t n);
  83:Generated_Source\PSoC5/cyfitter_cfg.c **** CY_CFG_UNUSED
  84:Generated_Source\PSoC5/cyfitter_cfg.c **** static void CYCONFIGCPY(void *dest, const void *src, size_t n)
  85:Generated_Source\PSoC5/cyfitter_cfg.c **** {
  86:Generated_Source\PSoC5/cyfitter_cfg.c **** 	(void)memcpy(dest, src, n);
  87:Generated_Source\PSoC5/cyfitter_cfg.c **** }
ARM GAS  C:\Users\aupen\AppData\Local\Temp\ccogqXvD.s 			page 3


  88:Generated_Source\PSoC5/cyfitter_cfg.c **** CY_CFG_UNUSED
  89:Generated_Source\PSoC5/cyfitter_cfg.c **** static void CYCONFIGCPYCODE(void *dest, const void *src, size_t n);
  90:Generated_Source\PSoC5/cyfitter_cfg.c **** CY_CFG_UNUSED
  91:Generated_Source\PSoC5/cyfitter_cfg.c **** static void CYCONFIGCPYCODE(void *dest, const void *src, size_t n)
  92:Generated_Source\PSoC5/cyfitter_cfg.c **** {
  93:Generated_Source\PSoC5/cyfitter_cfg.c **** 	(void)memcpy(dest, src, n);
  94:Generated_Source\PSoC5/cyfitter_cfg.c **** }
  95:Generated_Source\PSoC5/cyfitter_cfg.c **** 
  96:Generated_Source\PSoC5/cyfitter_cfg.c **** 
  97:Generated_Source\PSoC5/cyfitter_cfg.c **** 
  98:Generated_Source\PSoC5/cyfitter_cfg.c **** 
  99:Generated_Source\PSoC5/cyfitter_cfg.c **** /* Clock startup error codes                                                   */
 100:Generated_Source\PSoC5/cyfitter_cfg.c **** #define CYCLOCKSTART_NO_ERROR    0u
 101:Generated_Source\PSoC5/cyfitter_cfg.c **** #define CYCLOCKSTART_XTAL_ERROR  1u
 102:Generated_Source\PSoC5/cyfitter_cfg.c **** #define CYCLOCKSTART_32KHZ_ERROR 2u
 103:Generated_Source\PSoC5/cyfitter_cfg.c **** #define CYCLOCKSTART_PLL_ERROR   3u
 104:Generated_Source\PSoC5/cyfitter_cfg.c **** #define CYCLOCKSTART_FLL_ERROR   4u
 105:Generated_Source\PSoC5/cyfitter_cfg.c **** 
 106:Generated_Source\PSoC5/cyfitter_cfg.c **** 
 107:Generated_Source\PSoC5/cyfitter_cfg.c **** #ifdef CY_NEED_CYCLOCKSTARTUPERROR
 108:Generated_Source\PSoC5/cyfitter_cfg.c **** /*******************************************************************************
 109:Generated_Source\PSoC5/cyfitter_cfg.c **** * Function Name: CyClockStartupError
 110:Generated_Source\PSoC5/cyfitter_cfg.c **** ********************************************************************************
 111:Generated_Source\PSoC5/cyfitter_cfg.c **** * Summary:
 112:Generated_Source\PSoC5/cyfitter_cfg.c **** *  If an error is encountered during clock configuration (crystal startup error,
 113:Generated_Source\PSoC5/cyfitter_cfg.c **** *  PLL lock error, etc.), the system will end up here.  Unless reimplemented by
 114:Generated_Source\PSoC5/cyfitter_cfg.c **** *  the customer, this function will stop in an infinite loop.
 115:Generated_Source\PSoC5/cyfitter_cfg.c **** *
 116:Generated_Source\PSoC5/cyfitter_cfg.c **** * Parameters:
 117:Generated_Source\PSoC5/cyfitter_cfg.c **** *   void
 118:Generated_Source\PSoC5/cyfitter_cfg.c **** *
 119:Generated_Source\PSoC5/cyfitter_cfg.c **** * Return:
 120:Generated_Source\PSoC5/cyfitter_cfg.c **** *   void
 121:Generated_Source\PSoC5/cyfitter_cfg.c **** *
 122:Generated_Source\PSoC5/cyfitter_cfg.c **** *******************************************************************************/
 123:Generated_Source\PSoC5/cyfitter_cfg.c **** CY_CFG_UNUSED
 124:Generated_Source\PSoC5/cyfitter_cfg.c **** static void CyClockStartupError(uint8 errorCode);
 125:Generated_Source\PSoC5/cyfitter_cfg.c **** CY_CFG_UNUSED
 126:Generated_Source\PSoC5/cyfitter_cfg.c **** static void CyClockStartupError(uint8 errorCode)
 127:Generated_Source\PSoC5/cyfitter_cfg.c **** {
 128:Generated_Source\PSoC5/cyfitter_cfg.c ****     /* To remove the compiler warning if errorCode not used. */
 129:Generated_Source\PSoC5/cyfitter_cfg.c **** #if defined(CY_PSOC3) && (CY_PSOC3)
 130:Generated_Source\PSoC5/cyfitter_cfg.c ****     errorCode = errorCode;
 131:Generated_Source\PSoC5/cyfitter_cfg.c **** #else
 132:Generated_Source\PSoC5/cyfitter_cfg.c ****     (void)errorCode;
 133:Generated_Source\PSoC5/cyfitter_cfg.c **** #endif /* CY_PSOC3 */
 134:Generated_Source\PSoC5/cyfitter_cfg.c **** 
 135:Generated_Source\PSoC5/cyfitter_cfg.c ****     /* If we have a clock startup error (bad MHz crystal, PLL lock, etc.),  */
 136:Generated_Source\PSoC5/cyfitter_cfg.c ****     /* we will end up here to allow the customer to implement something to  */
 137:Generated_Source\PSoC5/cyfitter_cfg.c ****     /* deal with the clock condition.                                       */
 138:Generated_Source\PSoC5/cyfitter_cfg.c **** 
 139:Generated_Source\PSoC5/cyfitter_cfg.c **** #ifdef CY_CFG_CLOCK_STARTUP_ERROR_CALLBACK
 140:Generated_Source\PSoC5/cyfitter_cfg.c ****     CY_CFG_Clock_Startup_ErrorCallback();
 141:Generated_Source\PSoC5/cyfitter_cfg.c **** #else
 142:Generated_Source\PSoC5/cyfitter_cfg.c ****     /*  If not using CY_CFG_CLOCK_STARTUP_ERROR_CALLBACK, place your clock startup code here. */
 143:Generated_Source\PSoC5/cyfitter_cfg.c ****     /* `#START CyClockStartupError` */
 144:Generated_Source\PSoC5/cyfitter_cfg.c **** 
ARM GAS  C:\Users\aupen\AppData\Local\Temp\ccogqXvD.s 			page 4


 145:Generated_Source\PSoC5/cyfitter_cfg.c **** 
 146:Generated_Source\PSoC5/cyfitter_cfg.c **** 
 147:Generated_Source\PSoC5/cyfitter_cfg.c ****     /* `#END` */
 148:Generated_Source\PSoC5/cyfitter_cfg.c **** 
 149:Generated_Source\PSoC5/cyfitter_cfg.c ****     while(1) {}
 150:Generated_Source\PSoC5/cyfitter_cfg.c **** #endif /* CY_CFG_CLOCK_STARTUP_ERROR_CALLBACK */
 151:Generated_Source\PSoC5/cyfitter_cfg.c **** }
 152:Generated_Source\PSoC5/cyfitter_cfg.c **** #endif
 153:Generated_Source\PSoC5/cyfitter_cfg.c **** 
 154:Generated_Source\PSoC5/cyfitter_cfg.c **** #define CY_CFG_BASE_ADDR_COUNT 39u
 155:Generated_Source\PSoC5/cyfitter_cfg.c **** CYPACKED typedef struct
 156:Generated_Source\PSoC5/cyfitter_cfg.c **** {
 157:Generated_Source\PSoC5/cyfitter_cfg.c **** 	uint8 offset;
 158:Generated_Source\PSoC5/cyfitter_cfg.c **** 	uint8 value;
 159:Generated_Source\PSoC5/cyfitter_cfg.c **** } CYPACKED_ATTR cy_cfg_addrvalue_t;
 160:Generated_Source\PSoC5/cyfitter_cfg.c **** 
 161:Generated_Source\PSoC5/cyfitter_cfg.c **** 
 162:Generated_Source\PSoC5/cyfitter_cfg.c **** 
 163:Generated_Source\PSoC5/cyfitter_cfg.c **** /*******************************************************************************
 164:Generated_Source\PSoC5/cyfitter_cfg.c **** * Function Name: cfg_write_bytes32
 165:Generated_Source\PSoC5/cyfitter_cfg.c **** ********************************************************************************
 166:Generated_Source\PSoC5/cyfitter_cfg.c **** * Summary:
 167:Generated_Source\PSoC5/cyfitter_cfg.c **** *  This function is used for setting up the chip configuration areas that
 168:Generated_Source\PSoC5/cyfitter_cfg.c **** *  contain relatively sparse data.
 169:Generated_Source\PSoC5/cyfitter_cfg.c **** *
 170:Generated_Source\PSoC5/cyfitter_cfg.c **** * Parameters:
 171:Generated_Source\PSoC5/cyfitter_cfg.c **** *   void
 172:Generated_Source\PSoC5/cyfitter_cfg.c **** *
 173:Generated_Source\PSoC5/cyfitter_cfg.c **** * Return:
 174:Generated_Source\PSoC5/cyfitter_cfg.c **** *   void
 175:Generated_Source\PSoC5/cyfitter_cfg.c **** *
 176:Generated_Source\PSoC5/cyfitter_cfg.c **** *******************************************************************************/
 177:Generated_Source\PSoC5/cyfitter_cfg.c **** static void cfg_write_bytes32(const uint32 addr_table[], const cy_cfg_addrvalue_t data_table[]);
 178:Generated_Source\PSoC5/cyfitter_cfg.c **** static void cfg_write_bytes32(const uint32 addr_table[], const cy_cfg_addrvalue_t data_table[])
 179:Generated_Source\PSoC5/cyfitter_cfg.c **** {
 180:Generated_Source\PSoC5/cyfitter_cfg.c **** 	/* For 32-bit little-endian architectures */
 181:Generated_Source\PSoC5/cyfitter_cfg.c **** 	uint32 i, j = 0u;
 182:Generated_Source\PSoC5/cyfitter_cfg.c **** 	for (i = 0u; i < CY_CFG_BASE_ADDR_COUNT; i++)
 183:Generated_Source\PSoC5/cyfitter_cfg.c **** 	{
 184:Generated_Source\PSoC5/cyfitter_cfg.c **** 		uint32 baseAddr = addr_table[i];
 185:Generated_Source\PSoC5/cyfitter_cfg.c **** 		uint8 count = (uint8)baseAddr;
 186:Generated_Source\PSoC5/cyfitter_cfg.c **** 		baseAddr &= 0xFFFFFF00u;
 187:Generated_Source\PSoC5/cyfitter_cfg.c **** 		while (count != 0u)
 188:Generated_Source\PSoC5/cyfitter_cfg.c **** 		{
 189:Generated_Source\PSoC5/cyfitter_cfg.c **** 			CY_SET_REG8((void *)(baseAddr + data_table[j].offset), data_table[j].value);
 190:Generated_Source\PSoC5/cyfitter_cfg.c **** 			j++;
 191:Generated_Source\PSoC5/cyfitter_cfg.c **** 			count--;
 192:Generated_Source\PSoC5/cyfitter_cfg.c **** 		}
 193:Generated_Source\PSoC5/cyfitter_cfg.c **** 	}
 194:Generated_Source\PSoC5/cyfitter_cfg.c **** }
 195:Generated_Source\PSoC5/cyfitter_cfg.c **** 
 196:Generated_Source\PSoC5/cyfitter_cfg.c **** /*******************************************************************************
 197:Generated_Source\PSoC5/cyfitter_cfg.c **** * Function Name: ClockSetup
 198:Generated_Source\PSoC5/cyfitter_cfg.c **** ********************************************************************************
 199:Generated_Source\PSoC5/cyfitter_cfg.c **** *
 200:Generated_Source\PSoC5/cyfitter_cfg.c **** * Summary:
 201:Generated_Source\PSoC5/cyfitter_cfg.c **** *  Performs the initialization of all of the clocks in the device based on the
ARM GAS  C:\Users\aupen\AppData\Local\Temp\ccogqXvD.s 			page 5


 202:Generated_Source\PSoC5/cyfitter_cfg.c **** *  settings in the Clock tab of the DWR.  This includes enabling the requested
 203:Generated_Source\PSoC5/cyfitter_cfg.c **** *  clocks and setting the necessary dividers to produce the desired frequency. 
 204:Generated_Source\PSoC5/cyfitter_cfg.c **** *
 205:Generated_Source\PSoC5/cyfitter_cfg.c **** * Parameters:
 206:Generated_Source\PSoC5/cyfitter_cfg.c **** *  void
 207:Generated_Source\PSoC5/cyfitter_cfg.c **** *
 208:Generated_Source\PSoC5/cyfitter_cfg.c **** * Return:
 209:Generated_Source\PSoC5/cyfitter_cfg.c **** *  void
 210:Generated_Source\PSoC5/cyfitter_cfg.c **** *
 211:Generated_Source\PSoC5/cyfitter_cfg.c **** *******************************************************************************/
 212:Generated_Source\PSoC5/cyfitter_cfg.c **** static void ClockSetup(void);
 213:Generated_Source\PSoC5/cyfitter_cfg.c **** static void ClockSetup(void)
 214:Generated_Source\PSoC5/cyfitter_cfg.c **** {
 215:Generated_Source\PSoC5/cyfitter_cfg.c **** 	/* CYDEV_CLKDIST_ACFG0_CFG0 Address: CYREG_CLKDIST_ACFG0_CFG0 Size (bytes): 4 */
 216:Generated_Source\PSoC5/cyfitter_cfg.c **** 	static const uint8 CYCODE BS_CYDEV_CLKDIST_ACFG0_CFG0_VAL[] = {
 217:Generated_Source\PSoC5/cyfitter_cfg.c **** 		0x04u, 0x00u, 0x14u, 0x01u};
 218:Generated_Source\PSoC5/cyfitter_cfg.c **** 
 219:Generated_Source\PSoC5/cyfitter_cfg.c **** 	uint32 timeout;
 220:Generated_Source\PSoC5/cyfitter_cfg.c **** 	uint8 pllLock;
 221:Generated_Source\PSoC5/cyfitter_cfg.c **** 
 222:Generated_Source\PSoC5/cyfitter_cfg.c **** 
 223:Generated_Source\PSoC5/cyfitter_cfg.c **** 	/* Configure Digital Clocks based on settings from Clock DWR */
 224:Generated_Source\PSoC5/cyfitter_cfg.c **** 	CY_SET_XTND_REG16((void CYFAR *)(CYREG_CLKDIST_DCFG0_CFG0), 0x002Fu);
 225:Generated_Source\PSoC5/cyfitter_cfg.c **** 	CY_SET_XTND_REG8((void CYFAR *)(CYREG_CLKDIST_DCFG0_CFG0 + 0x2u), 0x18u);
 226:Generated_Source\PSoC5/cyfitter_cfg.c **** 	CY_SET_XTND_REG16((void CYFAR *)(CYREG_CLKDIST_DCFG1_CFG0), 0x005Fu);
 227:Generated_Source\PSoC5/cyfitter_cfg.c **** 	CY_SET_XTND_REG8((void CYFAR *)(CYREG_CLKDIST_DCFG1_CFG0 + 0x2u), 0x18u);
 228:Generated_Source\PSoC5/cyfitter_cfg.c **** 	CY_SET_XTND_REG16((void CYFAR *)(CYREG_CLKDIST_DCFG2_CFG0), 0x005Fu);
 229:Generated_Source\PSoC5/cyfitter_cfg.c **** 	CY_SET_XTND_REG8((void CYFAR *)(CYREG_CLKDIST_DCFG2_CFG0 + 0x2u), 0x18u);
 230:Generated_Source\PSoC5/cyfitter_cfg.c **** 	CY_SET_XTND_REG16((void CYFAR *)(CYREG_CLKDIST_DCFG3_CFG0), 0x5DBFu);
 231:Generated_Source\PSoC5/cyfitter_cfg.c **** 	CY_SET_XTND_REG8((void CYFAR *)(CYREG_CLKDIST_DCFG3_CFG0 + 0x2u), 0x19u);
 232:Generated_Source\PSoC5/cyfitter_cfg.c **** 
 233:Generated_Source\PSoC5/cyfitter_cfg.c **** 	/* Configure Analog Clocks based on settings from Clock DWR */
 234:Generated_Source\PSoC5/cyfitter_cfg.c **** 	CYCONFIGCPYCODE((void CYFAR *)(CYREG_CLKDIST_ACFG0_CFG0), (const void CYCODE *)(BS_CYDEV_CLKDIST_A
 235:Generated_Source\PSoC5/cyfitter_cfg.c **** 
 236:Generated_Source\PSoC5/cyfitter_cfg.c **** 	/* Configure ILO based on settings from Clock DWR */
 237:Generated_Source\PSoC5/cyfitter_cfg.c **** 	CY_SET_XTND_REG8((void CYFAR *)(CYREG_SLOWCLK_ILO_CR0), 0x06u);
 238:Generated_Source\PSoC5/cyfitter_cfg.c **** 
 239:Generated_Source\PSoC5/cyfitter_cfg.c **** 	/* Configure IMO based on settings from Clock DWR */
 240:Generated_Source\PSoC5/cyfitter_cfg.c **** 	CY_SET_XTND_REG8((void CYFAR *)(CYREG_FASTCLK_IMO_CR), 0x52u);
 241:Generated_Source\PSoC5/cyfitter_cfg.c **** 	CY_SET_XTND_REG8((void CYFAR *)(CYREG_IMO_TR1), (CY_GET_XTND_REG8((void CYFAR *)CYREG_FLSHID_CUST_
 242:Generated_Source\PSoC5/cyfitter_cfg.c **** 
 243:Generated_Source\PSoC5/cyfitter_cfg.c **** 	/* Configure PLL based on settings from Clock DWR */
 244:Generated_Source\PSoC5/cyfitter_cfg.c **** 	CY_SET_XTND_REG16((void CYFAR *)(CYREG_FASTCLK_PLL_P), 0x0710u);
 245:Generated_Source\PSoC5/cyfitter_cfg.c **** 	CY_SET_XTND_REG16((void CYFAR *)(CYREG_FASTCLK_PLL_CFG0), 0x1251u);
 246:Generated_Source\PSoC5/cyfitter_cfg.c **** 	/* Wait up to 250us for the PLL to lock */
 247:Generated_Source\PSoC5/cyfitter_cfg.c **** 	pllLock = 0u;
 248:Generated_Source\PSoC5/cyfitter_cfg.c **** 	for (timeout = 250u / 10u; (timeout > 0u) && (pllLock != 0x03u); timeout--)
 249:Generated_Source\PSoC5/cyfitter_cfg.c **** 	{ 
 250:Generated_Source\PSoC5/cyfitter_cfg.c **** 		pllLock = 0x03u & ((uint8)((uint8)pllLock << 1) | ((CY_GET_XTND_REG8((void CYFAR *)CYREG_FASTCLK_
 251:Generated_Source\PSoC5/cyfitter_cfg.c **** 		CyDelayCycles(10u * 48u); /* Delay 10us based on 48MHz clock */
 252:Generated_Source\PSoC5/cyfitter_cfg.c **** 	}
 253:Generated_Source\PSoC5/cyfitter_cfg.c **** 	/* If we ran out of time the PLL didn't lock so go to the error function */
 254:Generated_Source\PSoC5/cyfitter_cfg.c **** 	if (timeout == 0u)
 255:Generated_Source\PSoC5/cyfitter_cfg.c **** 	{
 256:Generated_Source\PSoC5/cyfitter_cfg.c **** 		CyClockStartupError(CYCLOCKSTART_PLL_ERROR);
 257:Generated_Source\PSoC5/cyfitter_cfg.c **** 	}
 258:Generated_Source\PSoC5/cyfitter_cfg.c **** 
ARM GAS  C:\Users\aupen\AppData\Local\Temp\ccogqXvD.s 			page 6


 259:Generated_Source\PSoC5/cyfitter_cfg.c **** 	/* Configure Bus/Master Clock based on settings from Clock DWR */
 260:Generated_Source\PSoC5/cyfitter_cfg.c **** 	CY_SET_XTND_REG16((void CYFAR *)(CYREG_CLKDIST_MSTR0), 0x0100u);
 261:Generated_Source\PSoC5/cyfitter_cfg.c **** 	CY_SET_XTND_REG8((void CYFAR *)(CYREG_CLKDIST_MSTR0), 0x07u);
 262:Generated_Source\PSoC5/cyfitter_cfg.c **** 	CY_SET_XTND_REG8((void CYFAR *)(CYREG_CLKDIST_BCFG0), 0x00u);
 263:Generated_Source\PSoC5/cyfitter_cfg.c **** 	CY_SET_XTND_REG8((void CYFAR *)(CYREG_CLKDIST_BCFG2), 0x48u);
 264:Generated_Source\PSoC5/cyfitter_cfg.c **** 	CY_SET_XTND_REG8((void CYFAR *)(CYREG_CLKDIST_MSTR0), 0x00u);
 265:Generated_Source\PSoC5/cyfitter_cfg.c **** 
 266:Generated_Source\PSoC5/cyfitter_cfg.c **** 	/* Configure USB Clock based on settings from Clock DWR */
 267:Generated_Source\PSoC5/cyfitter_cfg.c **** 	CY_SET_XTND_REG8((void CYFAR *)(CYREG_CLKDIST_UCFG), 0x00u);
 268:Generated_Source\PSoC5/cyfitter_cfg.c **** 	CY_SET_XTND_REG8((void CYFAR *)(CYREG_CLKDIST_LD), 0x02u);
 269:Generated_Source\PSoC5/cyfitter_cfg.c **** 
 270:Generated_Source\PSoC5/cyfitter_cfg.c **** 	CY_SET_XTND_REG8((void CYFAR *)(CYREG_PM_ACT_CFG2), ((CY_GET_XTND_REG8((void CYFAR *)CYREG_PM_ACT_
 271:Generated_Source\PSoC5/cyfitter_cfg.c **** }
 272:Generated_Source\PSoC5/cyfitter_cfg.c **** 
 273:Generated_Source\PSoC5/cyfitter_cfg.c **** 
 274:Generated_Source\PSoC5/cyfitter_cfg.c **** /* Analog API Functions */
 275:Generated_Source\PSoC5/cyfitter_cfg.c **** 
 276:Generated_Source\PSoC5/cyfitter_cfg.c **** 
 277:Generated_Source\PSoC5/cyfitter_cfg.c **** /*******************************************************************************
 278:Generated_Source\PSoC5/cyfitter_cfg.c **** * Function Name: AnalogSetDefault
 279:Generated_Source\PSoC5/cyfitter_cfg.c **** ********************************************************************************
 280:Generated_Source\PSoC5/cyfitter_cfg.c **** *
 281:Generated_Source\PSoC5/cyfitter_cfg.c **** * Summary:
 282:Generated_Source\PSoC5/cyfitter_cfg.c **** *  Sets up the analog portions of the chip to default values based on chip
 283:Generated_Source\PSoC5/cyfitter_cfg.c **** *  configuration options from the project.
 284:Generated_Source\PSoC5/cyfitter_cfg.c **** *
 285:Generated_Source\PSoC5/cyfitter_cfg.c **** * Parameters:
 286:Generated_Source\PSoC5/cyfitter_cfg.c **** *  void
 287:Generated_Source\PSoC5/cyfitter_cfg.c **** *
 288:Generated_Source\PSoC5/cyfitter_cfg.c **** * Return:
 289:Generated_Source\PSoC5/cyfitter_cfg.c **** *  void
 290:Generated_Source\PSoC5/cyfitter_cfg.c **** *
 291:Generated_Source\PSoC5/cyfitter_cfg.c **** *******************************************************************************/
 292:Generated_Source\PSoC5/cyfitter_cfg.c **** static void AnalogSetDefault(void);
 293:Generated_Source\PSoC5/cyfitter_cfg.c **** static void AnalogSetDefault(void)
 294:Generated_Source\PSoC5/cyfitter_cfg.c **** {
 295:Generated_Source\PSoC5/cyfitter_cfg.c **** 	uint8 bg_xover_inl_trim = CY_GET_XTND_REG8((void CYFAR *)(CYREG_FLSHID_MFG_CFG_BG_XOVER_INL_TRIM +
 296:Generated_Source\PSoC5/cyfitter_cfg.c **** 	uint8 cr4 = CY_GET_XTND_REG8((void CYFAR *)(CYREG_RESET_CR4));
 297:Generated_Source\PSoC5/cyfitter_cfg.c **** 	uint8 cr5 = CY_GET_XTND_REG8((void CYFAR *)(CYREG_RESET_CR5));
 298:Generated_Source\PSoC5/cyfitter_cfg.c **** 	CY_SET_XTND_REG8((void CYFAR *)(CYREG_BG_DFT0), (bg_xover_inl_trim & 0x07u));
 299:Generated_Source\PSoC5/cyfitter_cfg.c **** 	CY_SET_XTND_REG8((void CYFAR *)(CYREG_BG_DFT1), ((bg_xover_inl_trim >> 4) & 0x0Fu));
 300:Generated_Source\PSoC5/cyfitter_cfg.c **** 	/* Disable PRES while setting up SAR voltage reference */
 301:Generated_Source\PSoC5/cyfitter_cfg.c **** 	CY_SET_XTND_REG8((void CYFAR *)(CYREG_RESET_CR4), (cr4 | 0x03u));
 302:Generated_Source\PSoC5/cyfitter_cfg.c **** 	CY_SET_XTND_REG8((void CYFAR *)(CYREG_RESET_CR5), (cr5 | 0x03u));
 303:Generated_Source\PSoC5/cyfitter_cfg.c **** 	CY_SET_XTND_REG8((void CYFAR *)CYREG_PRT0_AG, 0x03u);
 304:Generated_Source\PSoC5/cyfitter_cfg.c **** 	CY_SET_XTND_REG8((void CYFAR *)CYREG_PRT2_AG, 0x20u);
 305:Generated_Source\PSoC5/cyfitter_cfg.c **** 	CY_SET_XTND_REG8((void CYFAR *)CYREG_PRT3_AG, 0x07u);
 306:Generated_Source\PSoC5/cyfitter_cfg.c **** 	CY_SET_XTND_REG8((void CYFAR *)CYREG_PRT15_AG, 0x09u);
 307:Generated_Source\PSoC5/cyfitter_cfg.c **** 	CY_SET_XTND_REG8((void CYFAR *)CYREG_SAR0_CSR1, 0x40u);
 308:Generated_Source\PSoC5/cyfitter_cfg.c **** 	CY_SET_XTND_REG8((void CYFAR *)CYREG_SAR0_CSR3, 0x40u);
 309:Generated_Source\PSoC5/cyfitter_cfg.c **** 	CY_SET_XTND_REG8((void CYFAR *)CYREG_DAC3_SW0, 0x30u);
 310:Generated_Source\PSoC5/cyfitter_cfg.c **** 	CY_SET_XTND_REG8((void CYFAR *)CYREG_SAR0_SW0, 0xF2u);
 311:Generated_Source\PSoC5/cyfitter_cfg.c **** 	CY_SET_XTND_REG8((void CYFAR *)CYREG_SAR0_SW3, 0x20u);
 312:Generated_Source\PSoC5/cyfitter_cfg.c **** 	CY_SET_XTND_REG8((void CYFAR *)CYREG_BUS_SW0, 0xE0u);
 313:Generated_Source\PSoC5/cyfitter_cfg.c **** 	CyDelayUs(10u); /* Allow vref to settle before re-enabling PRES */
 314:Generated_Source\PSoC5/cyfitter_cfg.c **** 	CY_SET_XTND_REG8((void CYFAR *)(CYREG_RESET_CR5), (cr5));
 315:Generated_Source\PSoC5/cyfitter_cfg.c **** 	CY_SET_XTND_REG8((void CYFAR *)(CYREG_RESET_CR4), (cr4));
ARM GAS  C:\Users\aupen\AppData\Local\Temp\ccogqXvD.s 			page 7


 316:Generated_Source\PSoC5/cyfitter_cfg.c **** 	CY_SET_XTND_REG8((void CYFAR *)CYREG_PUMP_CR0, 0x44u);
 317:Generated_Source\PSoC5/cyfitter_cfg.c **** }
 318:Generated_Source\PSoC5/cyfitter_cfg.c **** 
 319:Generated_Source\PSoC5/cyfitter_cfg.c **** 
 320:Generated_Source\PSoC5/cyfitter_cfg.c **** /*******************************************************************************
 321:Generated_Source\PSoC5/cyfitter_cfg.c **** * Function Name: SetAnalogRoutingPumps
 322:Generated_Source\PSoC5/cyfitter_cfg.c **** ********************************************************************************
 323:Generated_Source\PSoC5/cyfitter_cfg.c **** *
 324:Generated_Source\PSoC5/cyfitter_cfg.c **** * Summary:
 325:Generated_Source\PSoC5/cyfitter_cfg.c **** * Enables or disables the analog pumps feeding analog routing switches.
 326:Generated_Source\PSoC5/cyfitter_cfg.c **** * Intended to be called at startup, based on the Vdda system configuration;
 327:Generated_Source\PSoC5/cyfitter_cfg.c **** * may be called during operation when the user informs us that the Vdda voltage
 328:Generated_Source\PSoC5/cyfitter_cfg.c **** * crossed the pump threshold.
 329:Generated_Source\PSoC5/cyfitter_cfg.c **** *
 330:Generated_Source\PSoC5/cyfitter_cfg.c **** * Parameters:
 331:Generated_Source\PSoC5/cyfitter_cfg.c **** *  enabled - 1 to enable the pumps, 0 to disable the pumps
 332:Generated_Source\PSoC5/cyfitter_cfg.c **** *
 333:Generated_Source\PSoC5/cyfitter_cfg.c **** * Return:
 334:Generated_Source\PSoC5/cyfitter_cfg.c **** *  void
 335:Generated_Source\PSoC5/cyfitter_cfg.c **** *
 336:Generated_Source\PSoC5/cyfitter_cfg.c **** *******************************************************************************/
 337:Generated_Source\PSoC5/cyfitter_cfg.c **** void SetAnalogRoutingPumps(uint8 enabled)
 338:Generated_Source\PSoC5/cyfitter_cfg.c **** {
  28              		.loc 1 338 0
  29              		.cfi_startproc
  30              		@ args = 0, pretend = 0, frame = 0
  31              		@ frame_needed = 0, uses_anonymous_args = 0
  32              		@ link register save eliminated.
  33              	.LVL0:
 339:Generated_Source\PSoC5/cyfitter_cfg.c **** 	uint8 regValue = CY_GET_XTND_REG8((void CYFAR *)CYREG_PUMP_CR0);
  34              		.loc 1 339 0
  35 0000 054A     		ldr	r2, .L5
  36 0002 1378     		ldrb	r3, [r2]	@ zero_extendqisi2
  37 0004 DBB2     		uxtb	r3, r3
  38              	.LVL1:
 340:Generated_Source\PSoC5/cyfitter_cfg.c **** 	if (enabled != 0u)
  39              		.loc 1 340 0
  40 0006 10B1     		cbz	r0, .L2
 341:Generated_Source\PSoC5/cyfitter_cfg.c **** 	{
 342:Generated_Source\PSoC5/cyfitter_cfg.c **** 		regValue |= 0x22u;
  41              		.loc 1 342 0
  42 0008 43F02203 		orr	r3, r3, #34
  43              	.LVL2:
  44 000c 01E0     		b	.L3
  45              	.L2:
 343:Generated_Source\PSoC5/cyfitter_cfg.c **** 	}
 344:Generated_Source\PSoC5/cyfitter_cfg.c **** 	else
 345:Generated_Source\PSoC5/cyfitter_cfg.c **** 	{
 346:Generated_Source\PSoC5/cyfitter_cfg.c **** 		regValue &= (uint8)~0x22u;
  46              		.loc 1 346 0
  47 000e 03F0DD03 		and	r3, r3, #221
  48              	.LVL3:
  49              	.L3:
 347:Generated_Source\PSoC5/cyfitter_cfg.c **** 	}
 348:Generated_Source\PSoC5/cyfitter_cfg.c **** 	CY_SET_XTND_REG8((void CYFAR *)CYREG_PUMP_CR0, regValue);
  50              		.loc 1 348 0
  51 0012 1370     		strb	r3, [r2]
ARM GAS  C:\Users\aupen\AppData\Local\Temp\ccogqXvD.s 			page 8


  52 0014 7047     		bx	lr
  53              	.L6:
  54 0016 00BF     		.align	2
  55              	.L5:
  56 0018 76580040 		.word	1073764470
  57              		.cfi_endproc
  58              	.LFE7:
  59              		.size	SetAnalogRoutingPumps, .-SetAnalogRoutingPumps
  60              		.section	.text.cyfitter_cfg,"ax",%progbits
  61              		.align	1
  62              		.global	cyfitter_cfg
  63              		.thumb
  64              		.thumb_func
  65              		.type	cyfitter_cfg, %function
  66              	cyfitter_cfg:
  67              	.LFB8:
 349:Generated_Source\PSoC5/cyfitter_cfg.c **** }
 350:Generated_Source\PSoC5/cyfitter_cfg.c **** 
 351:Generated_Source\PSoC5/cyfitter_cfg.c **** 
 352:Generated_Source\PSoC5/cyfitter_cfg.c **** #define CY_AMUX_UNUSED CYREG_BOOST_SR
 353:Generated_Source\PSoC5/cyfitter_cfg.c **** 
 354:Generated_Source\PSoC5/cyfitter_cfg.c **** 
 355:Generated_Source\PSoC5/cyfitter_cfg.c **** /*******************************************************************************
 356:Generated_Source\PSoC5/cyfitter_cfg.c **** * Function Name: cyfitter_cfg
 357:Generated_Source\PSoC5/cyfitter_cfg.c **** ********************************************************************************
 358:Generated_Source\PSoC5/cyfitter_cfg.c **** * Summary:
 359:Generated_Source\PSoC5/cyfitter_cfg.c **** *  This function is called by the start-up code for the selected device. It
 360:Generated_Source\PSoC5/cyfitter_cfg.c **** *  performs all of the necessary device configuration based on the design
 361:Generated_Source\PSoC5/cyfitter_cfg.c **** *  settings.  This includes settings from the Design Wide Resources (DWR) such
 362:Generated_Source\PSoC5/cyfitter_cfg.c **** *  as Clocks and Pins as well as any component configuration that is necessary.
 363:Generated_Source\PSoC5/cyfitter_cfg.c **** *
 364:Generated_Source\PSoC5/cyfitter_cfg.c **** * Parameters:
 365:Generated_Source\PSoC5/cyfitter_cfg.c **** *   void
 366:Generated_Source\PSoC5/cyfitter_cfg.c **** *
 367:Generated_Source\PSoC5/cyfitter_cfg.c **** * Return:
 368:Generated_Source\PSoC5/cyfitter_cfg.c **** *   void
 369:Generated_Source\PSoC5/cyfitter_cfg.c **** *
 370:Generated_Source\PSoC5/cyfitter_cfg.c **** *******************************************************************************/
 371:Generated_Source\PSoC5/cyfitter_cfg.c **** 
 372:Generated_Source\PSoC5/cyfitter_cfg.c **** void cyfitter_cfg(void)
 373:Generated_Source\PSoC5/cyfitter_cfg.c **** {
  68              		.loc 1 373 0
  69              		.cfi_startproc
  70              		@ args = 0, pretend = 0, frame = 0
  71              		@ frame_needed = 0, uses_anonymous_args = 0
  72 0000 2DE9F843 		push	{r3, r4, r5, r6, r7, r8, r9, lr}
  73              		.cfi_def_cfa_offset 32
  74              		.cfi_offset 3, -32
  75              		.cfi_offset 4, -28
  76              		.cfi_offset 5, -24
  77              		.cfi_offset 6, -20
  78              		.cfi_offset 7, -16
  79              		.cfi_offset 8, -12
  80              		.cfi_offset 9, -8
  81              		.cfi_offset 14, -4
 374:Generated_Source\PSoC5/cyfitter_cfg.c **** 	/* IOPINS0_0 Address: CYREG_PRT0_DM0 Size (bytes): 8 */
 375:Generated_Source\PSoC5/cyfitter_cfg.c **** 	static const uint8 CYCODE BS_IOPINS0_0_VAL[] = {
ARM GAS  C:\Users\aupen\AppData\Local\Temp\ccogqXvD.s 			page 9


 376:Generated_Source\PSoC5/cyfitter_cfg.c **** 		0x00u, 0xFCu, 0xFCu, 0x00u, 0xFCu, 0x7Bu, 0x03u, 0x00u};
 377:Generated_Source\PSoC5/cyfitter_cfg.c **** 
 378:Generated_Source\PSoC5/cyfitter_cfg.c **** 	/* IOPINS0_7 Address: CYREG_PRT12_DR Size (bytes): 10 */
 379:Generated_Source\PSoC5/cyfitter_cfg.c **** 	static const uint8 CYCODE BS_IOPINS0_7_VAL[] = {
 380:Generated_Source\PSoC5/cyfitter_cfg.c **** 		0x02u, 0x00u, 0x20u, 0xD2u, 0xD0u, 0x00u, 0xC0u, 0xC0u, 0x00u, 0x00u};
 381:Generated_Source\PSoC5/cyfitter_cfg.c **** 
 382:Generated_Source\PSoC5/cyfitter_cfg.c **** 	/* IOPINS0_8 Address: CYREG_PRT15_DR Size (bytes): 10 */
 383:Generated_Source\PSoC5/cyfitter_cfg.c **** 	static const uint8 CYCODE BS_IOPINS0_8_VAL[] = {
 384:Generated_Source\PSoC5/cyfitter_cfg.c **** 		0x77u, 0x00u, 0x00u, 0x37u, 0x00u, 0x00u, 0x30u, 0x09u, 0xC9u, 0x00u};
 385:Generated_Source\PSoC5/cyfitter_cfg.c **** 
 386:Generated_Source\PSoC5/cyfitter_cfg.c **** 	/* IOPINS0_1 Address: CYREG_PRT1_DR Size (bytes): 10 */
 387:Generated_Source\PSoC5/cyfitter_cfg.c **** 	static const uint8 CYCODE BS_IOPINS0_1_VAL[] = {
 388:Generated_Source\PSoC5/cyfitter_cfg.c **** 		0x08u, 0x00u, 0x80u, 0x7Fu, 0x77u, 0x00u, 0x74u, 0x30u, 0x00u, 0x00u};
 389:Generated_Source\PSoC5/cyfitter_cfg.c **** 
 390:Generated_Source\PSoC5/cyfitter_cfg.c **** 	/* IOPINS0_2 Address: CYREG_PRT2_DR Size (bytes): 10 */
 391:Generated_Source\PSoC5/cyfitter_cfg.c **** 	static const uint8 CYCODE BS_IOPINS0_2_VAL[] = {
 392:Generated_Source\PSoC5/cyfitter_cfg.c **** 		0x57u, 0x00u, 0x00u, 0x57u, 0x00u, 0x00u, 0x40u, 0x60u, 0x20u, 0x00u};
 393:Generated_Source\PSoC5/cyfitter_cfg.c **** 
 394:Generated_Source\PSoC5/cyfitter_cfg.c **** 	/* IOPINS0_3 Address: CYREG_PRT3_DR Size (bytes): 10 */
 395:Generated_Source\PSoC5/cyfitter_cfg.c **** 	static const uint8 CYCODE BS_IOPINS0_3_VAL[] = {
 396:Generated_Source\PSoC5/cyfitter_cfg.c **** 		0xF8u, 0x00u, 0x00u, 0xF8u, 0x00u, 0x00u, 0x00u, 0x07u, 0x07u, 0x00u};
 397:Generated_Source\PSoC5/cyfitter_cfg.c **** 
 398:Generated_Source\PSoC5/cyfitter_cfg.c **** 	/* PHUB_CFGMEM1 Address: CYREG_PHUB_CFGMEM1_CFG0 Size (bytes): 4 */
 399:Generated_Source\PSoC5/cyfitter_cfg.c **** 	static const uint8 CYCODE BS_PHUB_CFGMEM1_VAL[] = {
 400:Generated_Source\PSoC5/cyfitter_cfg.c **** 		0x00u, 0x01u, 0x00u, 0x00u};
 401:Generated_Source\PSoC5/cyfitter_cfg.c **** 
 402:Generated_Source\PSoC5/cyfitter_cfg.c **** #ifdef CYGlobalIntDisable
 403:Generated_Source\PSoC5/cyfitter_cfg.c **** 	/* Disable interrupts by default. Let user enable if/when they want. */
 404:Generated_Source\PSoC5/cyfitter_cfg.c **** 	CYGlobalIntDisable
  82              		.loc 1 404 0
  83              		.syntax unified
  84              	@ 404 "Generated_Source\PSoC5\cyfitter_cfg.c" 1
  85 0004 72B6     		CPSID   i
  86              	@ 0 "" 2
  87              	.LVL4:
  88              		.thumb
  89              		.syntax unified
  90              	.LBB62:
  91              	.LBB63:
 405:Generated_Source\PSoC5/cyfitter_cfg.c **** #endif
 406:Generated_Source\PSoC5/cyfitter_cfg.c **** 
 407:Generated_Source\PSoC5/cyfitter_cfg.c **** 	{
 408:Generated_Source\PSoC5/cyfitter_cfg.c **** 		static const uint32 CYCODE cy_cfg_addr_table[] = {
 409:Generated_Source\PSoC5/cyfitter_cfg.c **** 			0x40004501u, /* Base address: 0x40004500 Count: 1 */
 410:Generated_Source\PSoC5/cyfitter_cfg.c **** 			0x40004F04u, /* Base address: 0x40004F00 Count: 4 */
 411:Generated_Source\PSoC5/cyfitter_cfg.c **** 			0x40005207u, /* Base address: 0x40005200 Count: 7 */
 412:Generated_Source\PSoC5/cyfitter_cfg.c **** 			0x40005B01u, /* Base address: 0x40005B00 Count: 1 */
 413:Generated_Source\PSoC5/cyfitter_cfg.c **** 			0x40006401u, /* Base address: 0x40006400 Count: 1 */
 414:Generated_Source\PSoC5/cyfitter_cfg.c **** 			0x40010011u, /* Base address: 0x40010000 Count: 17 */
 415:Generated_Source\PSoC5/cyfitter_cfg.c **** 			0x40010128u, /* Base address: 0x40010100 Count: 40 */
 416:Generated_Source\PSoC5/cyfitter_cfg.c **** 			0x4001021Fu, /* Base address: 0x40010200 Count: 31 */
 417:Generated_Source\PSoC5/cyfitter_cfg.c **** 			0x40010347u, /* Base address: 0x40010300 Count: 71 */
 418:Generated_Source\PSoC5/cyfitter_cfg.c **** 			0x4001041Eu, /* Base address: 0x40010400 Count: 30 */
 419:Generated_Source\PSoC5/cyfitter_cfg.c **** 			0x40010543u, /* Base address: 0x40010500 Count: 67 */
 420:Generated_Source\PSoC5/cyfitter_cfg.c **** 			0x40010632u, /* Base address: 0x40010600 Count: 50 */
 421:Generated_Source\PSoC5/cyfitter_cfg.c **** 			0x4001073Eu, /* Base address: 0x40010700 Count: 62 */
 422:Generated_Source\PSoC5/cyfitter_cfg.c **** 			0x40010804u, /* Base address: 0x40010800 Count: 4 */
ARM GAS  C:\Users\aupen\AppData\Local\Temp\ccogqXvD.s 			page 10


 423:Generated_Source\PSoC5/cyfitter_cfg.c **** 			0x40010909u, /* Base address: 0x40010900 Count: 9 */
 424:Generated_Source\PSoC5/cyfitter_cfg.c **** 			0x40010B08u, /* Base address: 0x40010B00 Count: 8 */
 425:Generated_Source\PSoC5/cyfitter_cfg.c **** 			0x40010D05u, /* Base address: 0x40010D00 Count: 5 */
 426:Generated_Source\PSoC5/cyfitter_cfg.c **** 			0x40010F03u, /* Base address: 0x40010F00 Count: 3 */
 427:Generated_Source\PSoC5/cyfitter_cfg.c **** 			0x4001142Cu, /* Base address: 0x40011400 Count: 44 */
 428:Generated_Source\PSoC5/cyfitter_cfg.c **** 			0x40011548u, /* Base address: 0x40011500 Count: 72 */
 429:Generated_Source\PSoC5/cyfitter_cfg.c **** 			0x4001161Fu, /* Base address: 0x40011600 Count: 31 */
 430:Generated_Source\PSoC5/cyfitter_cfg.c **** 			0x4001173Fu, /* Base address: 0x40011700 Count: 63 */
 431:Generated_Source\PSoC5/cyfitter_cfg.c **** 			0x40011842u, /* Base address: 0x40011800 Count: 66 */
 432:Generated_Source\PSoC5/cyfitter_cfg.c **** 			0x40011941u, /* Base address: 0x40011900 Count: 65 */
 433:Generated_Source\PSoC5/cyfitter_cfg.c **** 			0x40011B0Au, /* Base address: 0x40011B00 Count: 10 */
 434:Generated_Source\PSoC5/cyfitter_cfg.c **** 			0x4001400Du, /* Base address: 0x40014000 Count: 13 */
 435:Generated_Source\PSoC5/cyfitter_cfg.c **** 			0x40014119u, /* Base address: 0x40014100 Count: 25 */
 436:Generated_Source\PSoC5/cyfitter_cfg.c **** 			0x4001420Cu, /* Base address: 0x40014200 Count: 12 */
 437:Generated_Source\PSoC5/cyfitter_cfg.c **** 			0x40014311u, /* Base address: 0x40014300 Count: 17 */
 438:Generated_Source\PSoC5/cyfitter_cfg.c **** 			0x40014401u, /* Base address: 0x40014400 Count: 1 */
 439:Generated_Source\PSoC5/cyfitter_cfg.c **** 			0x4001450Au, /* Base address: 0x40014500 Count: 10 */
 440:Generated_Source\PSoC5/cyfitter_cfg.c **** 			0x4001460Du, /* Base address: 0x40014600 Count: 13 */
 441:Generated_Source\PSoC5/cyfitter_cfg.c **** 			0x4001470Du, /* Base address: 0x40014700 Count: 13 */
 442:Generated_Source\PSoC5/cyfitter_cfg.c **** 			0x40014814u, /* Base address: 0x40014800 Count: 20 */
 443:Generated_Source\PSoC5/cyfitter_cfg.c **** 			0x4001491Eu, /* Base address: 0x40014900 Count: 30 */
 444:Generated_Source\PSoC5/cyfitter_cfg.c **** 			0x40014C1Bu, /* Base address: 0x40014C00 Count: 27 */
 445:Generated_Source\PSoC5/cyfitter_cfg.c **** 			0x40014D10u, /* Base address: 0x40014D00 Count: 16 */
 446:Generated_Source\PSoC5/cyfitter_cfg.c **** 			0x4001500Bu, /* Base address: 0x40015000 Count: 11 */
 447:Generated_Source\PSoC5/cyfitter_cfg.c **** 			0x40015103u, /* Base address: 0x40015100 Count: 3 */
 448:Generated_Source\PSoC5/cyfitter_cfg.c **** 		};
 449:Generated_Source\PSoC5/cyfitter_cfg.c **** 
 450:Generated_Source\PSoC5/cyfitter_cfg.c **** 		static const cy_cfg_addrvalue_t CYCODE cy_cfg_data_table[] = {
 451:Generated_Source\PSoC5/cyfitter_cfg.c **** 			{0x7Eu, 0x02u},
 452:Generated_Source\PSoC5/cyfitter_cfg.c **** 			{0x01u, 0x10u},
 453:Generated_Source\PSoC5/cyfitter_cfg.c **** 			{0x0Au, 0x1Bu},
 454:Generated_Source\PSoC5/cyfitter_cfg.c **** 			{0x0Du, 0x30u},
 455:Generated_Source\PSoC5/cyfitter_cfg.c **** 			{0x16u, 0x1Bu},
 456:Generated_Source\PSoC5/cyfitter_cfg.c **** 			{0x08u, 0x50u},
 457:Generated_Source\PSoC5/cyfitter_cfg.c **** 			{0x09u, 0x14u},
 458:Generated_Source\PSoC5/cyfitter_cfg.c **** 			{0x18u, 0x04u},
 459:Generated_Source\PSoC5/cyfitter_cfg.c **** 			{0x19u, 0x01u},
 460:Generated_Source\PSoC5/cyfitter_cfg.c **** 			{0x78u, 0x28u},
 461:Generated_Source\PSoC5/cyfitter_cfg.c **** 			{0x79u, 0x30u},
 462:Generated_Source\PSoC5/cyfitter_cfg.c **** 			{0x7Cu, 0x40u},
 463:Generated_Source\PSoC5/cyfitter_cfg.c **** 			{0x27u, 0x84u},
 464:Generated_Source\PSoC5/cyfitter_cfg.c **** 			{0x84u, 0x07u},
 465:Generated_Source\PSoC5/cyfitter_cfg.c **** 			{0x02u, 0x02u},
 466:Generated_Source\PSoC5/cyfitter_cfg.c **** 			{0x0Bu, 0x01u},
 467:Generated_Source\PSoC5/cyfitter_cfg.c **** 			{0x1Eu, 0x01u},
 468:Generated_Source\PSoC5/cyfitter_cfg.c **** 			{0x2Au, 0x04u},
 469:Generated_Source\PSoC5/cyfitter_cfg.c **** 			{0x30u, 0x04u},
 470:Generated_Source\PSoC5/cyfitter_cfg.c **** 			{0x32u, 0x01u},
 471:Generated_Source\PSoC5/cyfitter_cfg.c **** 			{0x34u, 0x02u},
 472:Generated_Source\PSoC5/cyfitter_cfg.c **** 			{0x35u, 0x01u},
 473:Generated_Source\PSoC5/cyfitter_cfg.c **** 			{0x52u, 0x80u},
 474:Generated_Source\PSoC5/cyfitter_cfg.c **** 			{0x58u, 0x04u},
 475:Generated_Source\PSoC5/cyfitter_cfg.c **** 			{0x59u, 0x04u},
 476:Generated_Source\PSoC5/cyfitter_cfg.c **** 			{0x5Bu, 0x04u},
 477:Generated_Source\PSoC5/cyfitter_cfg.c **** 			{0x5Du, 0x20u},
 478:Generated_Source\PSoC5/cyfitter_cfg.c **** 			{0x5Fu, 0x01u},
 479:Generated_Source\PSoC5/cyfitter_cfg.c **** 			{0xD8u, 0x04u},
ARM GAS  C:\Users\aupen\AppData\Local\Temp\ccogqXvD.s 			page 11


 480:Generated_Source\PSoC5/cyfitter_cfg.c **** 			{0xD9u, 0x04u},
 481:Generated_Source\PSoC5/cyfitter_cfg.c **** 			{0xDFu, 0x01u},
 482:Generated_Source\PSoC5/cyfitter_cfg.c **** 			{0x00u, 0x40u},
 483:Generated_Source\PSoC5/cyfitter_cfg.c **** 			{0x01u, 0x29u},
 484:Generated_Source\PSoC5/cyfitter_cfg.c **** 			{0x02u, 0x01u},
 485:Generated_Source\PSoC5/cyfitter_cfg.c **** 			{0x04u, 0x44u},
 486:Generated_Source\PSoC5/cyfitter_cfg.c **** 			{0x05u, 0x20u},
 487:Generated_Source\PSoC5/cyfitter_cfg.c **** 			{0x0Au, 0x20u},
 488:Generated_Source\PSoC5/cyfitter_cfg.c **** 			{0x0Bu, 0x41u},
 489:Generated_Source\PSoC5/cyfitter_cfg.c **** 			{0x0Fu, 0x48u},
 490:Generated_Source\PSoC5/cyfitter_cfg.c **** 			{0x10u, 0x08u},
 491:Generated_Source\PSoC5/cyfitter_cfg.c **** 			{0x13u, 0x82u},
 492:Generated_Source\PSoC5/cyfitter_cfg.c **** 			{0x16u, 0x40u},
 493:Generated_Source\PSoC5/cyfitter_cfg.c **** 			{0x17u, 0x42u},
 494:Generated_Source\PSoC5/cyfitter_cfg.c **** 			{0x19u, 0x28u},
 495:Generated_Source\PSoC5/cyfitter_cfg.c **** 			{0x1Au, 0x50u},
 496:Generated_Source\PSoC5/cyfitter_cfg.c **** 			{0x1Bu, 0x14u},
 497:Generated_Source\PSoC5/cyfitter_cfg.c **** 			{0x20u, 0x04u},
 498:Generated_Source\PSoC5/cyfitter_cfg.c **** 			{0x22u, 0x10u},
 499:Generated_Source\PSoC5/cyfitter_cfg.c **** 			{0x28u, 0x01u},
 500:Generated_Source\PSoC5/cyfitter_cfg.c **** 			{0x2Bu, 0x14u},
 501:Generated_Source\PSoC5/cyfitter_cfg.c **** 			{0x2Du, 0x02u},
 502:Generated_Source\PSoC5/cyfitter_cfg.c **** 			{0x2Eu, 0x10u},
 503:Generated_Source\PSoC5/cyfitter_cfg.c **** 			{0x31u, 0x40u},
 504:Generated_Source\PSoC5/cyfitter_cfg.c **** 			{0x32u, 0x10u},
 505:Generated_Source\PSoC5/cyfitter_cfg.c **** 			{0x37u, 0x42u},
 506:Generated_Source\PSoC5/cyfitter_cfg.c **** 			{0x38u, 0x20u},
 507:Generated_Source\PSoC5/cyfitter_cfg.c **** 			{0x3Au, 0x41u},
 508:Generated_Source\PSoC5/cyfitter_cfg.c **** 			{0x3Cu, 0x04u},
 509:Generated_Source\PSoC5/cyfitter_cfg.c **** 			{0x3Fu, 0x60u},
 510:Generated_Source\PSoC5/cyfitter_cfg.c **** 			{0x59u, 0x40u},
 511:Generated_Source\PSoC5/cyfitter_cfg.c **** 			{0x5Au, 0x40u},
 512:Generated_Source\PSoC5/cyfitter_cfg.c **** 			{0x5Bu, 0xC0u},
 513:Generated_Source\PSoC5/cyfitter_cfg.c **** 			{0x70u, 0x02u},
 514:Generated_Source\PSoC5/cyfitter_cfg.c **** 			{0x8Cu, 0x02u},
 515:Generated_Source\PSoC5/cyfitter_cfg.c **** 			{0xC0u, 0xEFu},
 516:Generated_Source\PSoC5/cyfitter_cfg.c **** 			{0xC2u, 0x5Du},
 517:Generated_Source\PSoC5/cyfitter_cfg.c **** 			{0xC4u, 0x9Bu},
 518:Generated_Source\PSoC5/cyfitter_cfg.c **** 			{0xCAu, 0xAEu},
 519:Generated_Source\PSoC5/cyfitter_cfg.c **** 			{0xCCu, 0x9Cu},
 520:Generated_Source\PSoC5/cyfitter_cfg.c **** 			{0xCEu, 0x7Du},
 521:Generated_Source\PSoC5/cyfitter_cfg.c **** 			{0xE2u, 0x04u},
 522:Generated_Source\PSoC5/cyfitter_cfg.c **** 			{0x00u, 0x03u},
 523:Generated_Source\PSoC5/cyfitter_cfg.c **** 			{0x04u, 0x03u},
 524:Generated_Source\PSoC5/cyfitter_cfg.c **** 			{0x08u, 0x03u},
 525:Generated_Source\PSoC5/cyfitter_cfg.c **** 			{0x0Cu, 0x03u},
 526:Generated_Source\PSoC5/cyfitter_cfg.c **** 			{0x10u, 0x02u},
 527:Generated_Source\PSoC5/cyfitter_cfg.c **** 			{0x12u, 0x01u},
 528:Generated_Source\PSoC5/cyfitter_cfg.c **** 			{0x14u, 0x03u},
 529:Generated_Source\PSoC5/cyfitter_cfg.c **** 			{0x22u, 0x03u},
 530:Generated_Source\PSoC5/cyfitter_cfg.c **** 			{0x30u, 0x02u},
 531:Generated_Source\PSoC5/cyfitter_cfg.c **** 			{0x36u, 0x01u},
 532:Generated_Source\PSoC5/cyfitter_cfg.c **** 			{0x58u, 0x04u},
 533:Generated_Source\PSoC5/cyfitter_cfg.c **** 			{0x59u, 0x04u},
 534:Generated_Source\PSoC5/cyfitter_cfg.c **** 			{0x5Bu, 0x04u},
 535:Generated_Source\PSoC5/cyfitter_cfg.c **** 			{0x5Fu, 0x01u},
 536:Generated_Source\PSoC5/cyfitter_cfg.c **** 			{0x85u, 0x01u},
ARM GAS  C:\Users\aupen\AppData\Local\Temp\ccogqXvD.s 			page 12


 537:Generated_Source\PSoC5/cyfitter_cfg.c **** 			{0x86u, 0x01u},
 538:Generated_Source\PSoC5/cyfitter_cfg.c **** 			{0x8Fu, 0x01u},
 539:Generated_Source\PSoC5/cyfitter_cfg.c **** 			{0x93u, 0x02u},
 540:Generated_Source\PSoC5/cyfitter_cfg.c **** 			{0x99u, 0x01u},
 541:Generated_Source\PSoC5/cyfitter_cfg.c **** 			{0x9Fu, 0x01u},
 542:Generated_Source\PSoC5/cyfitter_cfg.c **** 			{0xA3u, 0x01u},
 543:Generated_Source\PSoC5/cyfitter_cfg.c **** 			{0xA9u, 0x01u},
 544:Generated_Source\PSoC5/cyfitter_cfg.c **** 			{0xADu, 0x01u},
 545:Generated_Source\PSoC5/cyfitter_cfg.c **** 			{0xB0u, 0x01u},
 546:Generated_Source\PSoC5/cyfitter_cfg.c **** 			{0xB1u, 0x02u},
 547:Generated_Source\PSoC5/cyfitter_cfg.c **** 			{0xB5u, 0x01u},
 548:Generated_Source\PSoC5/cyfitter_cfg.c **** 			{0xD4u, 0x01u},
 549:Generated_Source\PSoC5/cyfitter_cfg.c **** 			{0xD8u, 0x04u},
 550:Generated_Source\PSoC5/cyfitter_cfg.c **** 			{0xD9u, 0x04u},
 551:Generated_Source\PSoC5/cyfitter_cfg.c **** 			{0xDBu, 0x0Cu},
 552:Generated_Source\PSoC5/cyfitter_cfg.c **** 			{0xDFu, 0x01u},
 553:Generated_Source\PSoC5/cyfitter_cfg.c **** 			{0x00u, 0x80u},
 554:Generated_Source\PSoC5/cyfitter_cfg.c **** 			{0x01u, 0x06u},
 555:Generated_Source\PSoC5/cyfitter_cfg.c **** 			{0x04u, 0x44u},
 556:Generated_Source\PSoC5/cyfitter_cfg.c **** 			{0x05u, 0x20u},
 557:Generated_Source\PSoC5/cyfitter_cfg.c **** 			{0x07u, 0x40u},
 558:Generated_Source\PSoC5/cyfitter_cfg.c **** 			{0x0Au, 0x60u},
 559:Generated_Source\PSoC5/cyfitter_cfg.c **** 			{0x0Cu, 0x01u},
 560:Generated_Source\PSoC5/cyfitter_cfg.c **** 			{0x0Eu, 0x10u},
 561:Generated_Source\PSoC5/cyfitter_cfg.c **** 			{0x0Fu, 0x40u},
 562:Generated_Source\PSoC5/cyfitter_cfg.c **** 			{0x10u, 0x14u},
 563:Generated_Source\PSoC5/cyfitter_cfg.c **** 			{0x13u, 0x02u},
 564:Generated_Source\PSoC5/cyfitter_cfg.c **** 			{0x16u, 0x40u},
 565:Generated_Source\PSoC5/cyfitter_cfg.c **** 			{0x17u, 0x02u},
 566:Generated_Source\PSoC5/cyfitter_cfg.c **** 			{0x18u, 0x40u},
 567:Generated_Source\PSoC5/cyfitter_cfg.c **** 			{0x19u, 0x02u},
 568:Generated_Source\PSoC5/cyfitter_cfg.c **** 			{0x1Du, 0x01u},
 569:Generated_Source\PSoC5/cyfitter_cfg.c **** 			{0x1Eu, 0x02u},
 570:Generated_Source\PSoC5/cyfitter_cfg.c **** 			{0x20u, 0x80u},
 571:Generated_Source\PSoC5/cyfitter_cfg.c **** 			{0x21u, 0x10u},
 572:Generated_Source\PSoC5/cyfitter_cfg.c **** 			{0x23u, 0x40u},
 573:Generated_Source\PSoC5/cyfitter_cfg.c **** 			{0x28u, 0x05u},
 574:Generated_Source\PSoC5/cyfitter_cfg.c **** 			{0x29u, 0x02u},
 575:Generated_Source\PSoC5/cyfitter_cfg.c **** 			{0x2Cu, 0x04u},
 576:Generated_Source\PSoC5/cyfitter_cfg.c **** 			{0x2Du, 0x02u},
 577:Generated_Source\PSoC5/cyfitter_cfg.c **** 			{0x2Eu, 0x50u},
 578:Generated_Source\PSoC5/cyfitter_cfg.c **** 			{0x30u, 0x02u},
 579:Generated_Source\PSoC5/cyfitter_cfg.c **** 			{0x31u, 0x50u},
 580:Generated_Source\PSoC5/cyfitter_cfg.c **** 			{0x34u, 0x10u},
 581:Generated_Source\PSoC5/cyfitter_cfg.c **** 			{0x35u, 0x30u},
 582:Generated_Source\PSoC5/cyfitter_cfg.c **** 			{0x37u, 0x02u},
 583:Generated_Source\PSoC5/cyfitter_cfg.c **** 			{0x38u, 0x04u},
 584:Generated_Source\PSoC5/cyfitter_cfg.c **** 			{0x3Au, 0x40u},
 585:Generated_Source\PSoC5/cyfitter_cfg.c **** 			{0x3Cu, 0x04u},
 586:Generated_Source\PSoC5/cyfitter_cfg.c **** 			{0x3Fu, 0x40u},
 587:Generated_Source\PSoC5/cyfitter_cfg.c **** 			{0x58u, 0x40u},
 588:Generated_Source\PSoC5/cyfitter_cfg.c **** 			{0x5Bu, 0x80u},
 589:Generated_Source\PSoC5/cyfitter_cfg.c **** 			{0x6Au, 0x80u},
 590:Generated_Source\PSoC5/cyfitter_cfg.c **** 			{0x6Du, 0x20u},
 591:Generated_Source\PSoC5/cyfitter_cfg.c **** 			{0x6Fu, 0x92u},
 592:Generated_Source\PSoC5/cyfitter_cfg.c **** 			{0x79u, 0x40u},
 593:Generated_Source\PSoC5/cyfitter_cfg.c **** 			{0x81u, 0x10u},
ARM GAS  C:\Users\aupen\AppData\Local\Temp\ccogqXvD.s 			page 13


 594:Generated_Source\PSoC5/cyfitter_cfg.c **** 			{0x82u, 0x40u},
 595:Generated_Source\PSoC5/cyfitter_cfg.c **** 			{0x87u, 0x80u},
 596:Generated_Source\PSoC5/cyfitter_cfg.c **** 			{0x8Du, 0x01u},
 597:Generated_Source\PSoC5/cyfitter_cfg.c **** 			{0x8Eu, 0x01u},
 598:Generated_Source\PSoC5/cyfitter_cfg.c **** 			{0x90u, 0x04u},
 599:Generated_Source\PSoC5/cyfitter_cfg.c **** 			{0x92u, 0x70u},
 600:Generated_Source\PSoC5/cyfitter_cfg.c **** 			{0x94u, 0x60u},
 601:Generated_Source\PSoC5/cyfitter_cfg.c **** 			{0x95u, 0x01u},
 602:Generated_Source\PSoC5/cyfitter_cfg.c **** 			{0x97u, 0x41u},
 603:Generated_Source\PSoC5/cyfitter_cfg.c **** 			{0x99u, 0x60u},
 604:Generated_Source\PSoC5/cyfitter_cfg.c **** 			{0x9Bu, 0x40u},
 605:Generated_Source\PSoC5/cyfitter_cfg.c **** 			{0x9Cu, 0x41u},
 606:Generated_Source\PSoC5/cyfitter_cfg.c **** 			{0x9Du, 0x02u},
 607:Generated_Source\PSoC5/cyfitter_cfg.c **** 			{0x9Fu, 0x02u},
 608:Generated_Source\PSoC5/cyfitter_cfg.c **** 			{0xA4u, 0x08u},
 609:Generated_Source\PSoC5/cyfitter_cfg.c **** 			{0xB0u, 0x40u},
 610:Generated_Source\PSoC5/cyfitter_cfg.c **** 			{0xC0u, 0xFDu},
 611:Generated_Source\PSoC5/cyfitter_cfg.c **** 			{0xC2u, 0x3Cu},
 612:Generated_Source\PSoC5/cyfitter_cfg.c **** 			{0xC4u, 0x1Eu},
 613:Generated_Source\PSoC5/cyfitter_cfg.c **** 			{0xCAu, 0xBDu},
 614:Generated_Source\PSoC5/cyfitter_cfg.c **** 			{0xCCu, 0xADu},
 615:Generated_Source\PSoC5/cyfitter_cfg.c **** 			{0xCEu, 0x5Au},
 616:Generated_Source\PSoC5/cyfitter_cfg.c **** 			{0xD6u, 0x08u},
 617:Generated_Source\PSoC5/cyfitter_cfg.c **** 			{0xDEu, 0x08u},
 618:Generated_Source\PSoC5/cyfitter_cfg.c **** 			{0xE2u, 0x10u},
 619:Generated_Source\PSoC5/cyfitter_cfg.c **** 			{0xE4u, 0x01u},
 620:Generated_Source\PSoC5/cyfitter_cfg.c **** 			{0xE6u, 0x40u},
 621:Generated_Source\PSoC5/cyfitter_cfg.c **** 			{0xE8u, 0x02u},
 622:Generated_Source\PSoC5/cyfitter_cfg.c **** 			{0xEAu, 0x80u},
 623:Generated_Source\PSoC5/cyfitter_cfg.c **** 			{0xEEu, 0x08u},
 624:Generated_Source\PSoC5/cyfitter_cfg.c **** 			{0x02u, 0x08u},
 625:Generated_Source\PSoC5/cyfitter_cfg.c **** 			{0x06u, 0x01u},
 626:Generated_Source\PSoC5/cyfitter_cfg.c **** 			{0x0Au, 0x04u},
 627:Generated_Source\PSoC5/cyfitter_cfg.c **** 			{0x0Cu, 0x40u},
 628:Generated_Source\PSoC5/cyfitter_cfg.c **** 			{0x0Eu, 0x80u},
 629:Generated_Source\PSoC5/cyfitter_cfg.c **** 			{0x10u, 0x10u},
 630:Generated_Source\PSoC5/cyfitter_cfg.c **** 			{0x12u, 0x20u},
 631:Generated_Source\PSoC5/cyfitter_cfg.c **** 			{0x16u, 0x02u},
 632:Generated_Source\PSoC5/cyfitter_cfg.c **** 			{0x18u, 0x01u},
 633:Generated_Source\PSoC5/cyfitter_cfg.c **** 			{0x1Cu, 0x02u},
 634:Generated_Source\PSoC5/cyfitter_cfg.c **** 			{0x20u, 0x04u},
 635:Generated_Source\PSoC5/cyfitter_cfg.c **** 			{0x24u, 0x08u},
 636:Generated_Source\PSoC5/cyfitter_cfg.c **** 			{0x28u, 0x20u},
 637:Generated_Source\PSoC5/cyfitter_cfg.c **** 			{0x2Au, 0x10u},
 638:Generated_Source\PSoC5/cyfitter_cfg.c **** 			{0x2Cu, 0x80u},
 639:Generated_Source\PSoC5/cyfitter_cfg.c **** 			{0x2Eu, 0x40u},
 640:Generated_Source\PSoC5/cyfitter_cfg.c **** 			{0x30u, 0xFFu},
 641:Generated_Source\PSoC5/cyfitter_cfg.c **** 			{0x3Eu, 0x01u},
 642:Generated_Source\PSoC5/cyfitter_cfg.c **** 			{0x56u, 0x02u},
 643:Generated_Source\PSoC5/cyfitter_cfg.c **** 			{0x57u, 0x3Au},
 644:Generated_Source\PSoC5/cyfitter_cfg.c **** 			{0x58u, 0x04u},
 645:Generated_Source\PSoC5/cyfitter_cfg.c **** 			{0x59u, 0x04u},
 646:Generated_Source\PSoC5/cyfitter_cfg.c **** 			{0x5Bu, 0x0Cu},
 647:Generated_Source\PSoC5/cyfitter_cfg.c **** 			{0x5Fu, 0x01u},
 648:Generated_Source\PSoC5/cyfitter_cfg.c **** 			{0xD6u, 0x08u},
 649:Generated_Source\PSoC5/cyfitter_cfg.c **** 			{0xD8u, 0x04u},
 650:Generated_Source\PSoC5/cyfitter_cfg.c **** 			{0xD9u, 0x04u},
ARM GAS  C:\Users\aupen\AppData\Local\Temp\ccogqXvD.s 			page 14


 651:Generated_Source\PSoC5/cyfitter_cfg.c **** 			{0xDBu, 0x04u},
 652:Generated_Source\PSoC5/cyfitter_cfg.c **** 			{0xDDu, 0x90u},
 653:Generated_Source\PSoC5/cyfitter_cfg.c **** 			{0xDFu, 0x01u},
 654:Generated_Source\PSoC5/cyfitter_cfg.c **** 			{0x00u, 0x84u},
 655:Generated_Source\PSoC5/cyfitter_cfg.c **** 			{0x01u, 0x2Au},
 656:Generated_Source\PSoC5/cyfitter_cfg.c **** 			{0x02u, 0x88u},
 657:Generated_Source\PSoC5/cyfitter_cfg.c **** 			{0x03u, 0x01u},
 658:Generated_Source\PSoC5/cyfitter_cfg.c **** 			{0x04u, 0x04u},
 659:Generated_Source\PSoC5/cyfitter_cfg.c **** 			{0x05u, 0x22u},
 660:Generated_Source\PSoC5/cyfitter_cfg.c **** 			{0x07u, 0x01u},
 661:Generated_Source\PSoC5/cyfitter_cfg.c **** 			{0x08u, 0x09u},
 662:Generated_Source\PSoC5/cyfitter_cfg.c **** 			{0x09u, 0x20u},
 663:Generated_Source\PSoC5/cyfitter_cfg.c **** 			{0x0Au, 0x50u},
 664:Generated_Source\PSoC5/cyfitter_cfg.c **** 			{0x0Bu, 0x01u},
 665:Generated_Source\PSoC5/cyfitter_cfg.c **** 			{0x0Eu, 0x50u},
 666:Generated_Source\PSoC5/cyfitter_cfg.c **** 			{0x10u, 0x0Au},
 667:Generated_Source\PSoC5/cyfitter_cfg.c **** 			{0x11u, 0x05u},
 668:Generated_Source\PSoC5/cyfitter_cfg.c **** 			{0x16u, 0x40u},
 669:Generated_Source\PSoC5/cyfitter_cfg.c **** 			{0x17u, 0x02u},
 670:Generated_Source\PSoC5/cyfitter_cfg.c **** 			{0x18u, 0x40u},
 671:Generated_Source\PSoC5/cyfitter_cfg.c **** 			{0x28u, 0x08u},
 672:Generated_Source\PSoC5/cyfitter_cfg.c **** 			{0x29u, 0x02u},
 673:Generated_Source\PSoC5/cyfitter_cfg.c **** 			{0x2Au, 0x40u},
 674:Generated_Source\PSoC5/cyfitter_cfg.c **** 			{0x2Du, 0x02u},
 675:Generated_Source\PSoC5/cyfitter_cfg.c **** 			{0x2Eu, 0x40u},
 676:Generated_Source\PSoC5/cyfitter_cfg.c **** 			{0x30u, 0x01u},
 677:Generated_Source\PSoC5/cyfitter_cfg.c **** 			{0x32u, 0x08u},
 678:Generated_Source\PSoC5/cyfitter_cfg.c **** 			{0x35u, 0x20u},
 679:Generated_Source\PSoC5/cyfitter_cfg.c **** 			{0x37u, 0x02u},
 680:Generated_Source\PSoC5/cyfitter_cfg.c **** 			{0x38u, 0x04u},
 681:Generated_Source\PSoC5/cyfitter_cfg.c **** 			{0x3Au, 0x80u},
 682:Generated_Source\PSoC5/cyfitter_cfg.c **** 			{0x3Cu, 0x84u},
 683:Generated_Source\PSoC5/cyfitter_cfg.c **** 			{0x3Eu, 0x10u},
 684:Generated_Source\PSoC5/cyfitter_cfg.c **** 			{0x5Bu, 0x08u},
 685:Generated_Source\PSoC5/cyfitter_cfg.c **** 			{0x5Cu, 0x80u},
 686:Generated_Source\PSoC5/cyfitter_cfg.c **** 			{0x61u, 0x04u},
 687:Generated_Source\PSoC5/cyfitter_cfg.c **** 			{0x64u, 0x02u},
 688:Generated_Source\PSoC5/cyfitter_cfg.c **** 			{0x68u, 0x0Au},
 689:Generated_Source\PSoC5/cyfitter_cfg.c **** 			{0x69u, 0x05u},
 690:Generated_Source\PSoC5/cyfitter_cfg.c **** 			{0x6Au, 0x02u},
 691:Generated_Source\PSoC5/cyfitter_cfg.c **** 			{0x70u, 0x10u},
 692:Generated_Source\PSoC5/cyfitter_cfg.c **** 			{0x71u, 0x60u},
 693:Generated_Source\PSoC5/cyfitter_cfg.c **** 			{0x73u, 0x01u},
 694:Generated_Source\PSoC5/cyfitter_cfg.c **** 			{0x79u, 0x40u},
 695:Generated_Source\PSoC5/cyfitter_cfg.c **** 			{0x86u, 0x02u},
 696:Generated_Source\PSoC5/cyfitter_cfg.c **** 			{0x88u, 0x40u},
 697:Generated_Source\PSoC5/cyfitter_cfg.c **** 			{0x8Au, 0x80u},
 698:Generated_Source\PSoC5/cyfitter_cfg.c **** 			{0x90u, 0x04u},
 699:Generated_Source\PSoC5/cyfitter_cfg.c **** 			{0x92u, 0x50u},
 700:Generated_Source\PSoC5/cyfitter_cfg.c **** 			{0x94u, 0x20u},
 701:Generated_Source\PSoC5/cyfitter_cfg.c **** 			{0x95u, 0x45u},
 702:Generated_Source\PSoC5/cyfitter_cfg.c **** 			{0x97u, 0x01u},
 703:Generated_Source\PSoC5/cyfitter_cfg.c **** 			{0x99u, 0x22u},
 704:Generated_Source\PSoC5/cyfitter_cfg.c **** 			{0x9Fu, 0x82u},
 705:Generated_Source\PSoC5/cyfitter_cfg.c **** 			{0xA0u, 0x40u},
 706:Generated_Source\PSoC5/cyfitter_cfg.c **** 			{0xA4u, 0x0Au},
 707:Generated_Source\PSoC5/cyfitter_cfg.c **** 			{0xABu, 0x10u},
ARM GAS  C:\Users\aupen\AppData\Local\Temp\ccogqXvD.s 			page 15


 708:Generated_Source\PSoC5/cyfitter_cfg.c **** 			{0xAFu, 0x02u},
 709:Generated_Source\PSoC5/cyfitter_cfg.c **** 			{0xB1u, 0x10u},
 710:Generated_Source\PSoC5/cyfitter_cfg.c **** 			{0xC0u, 0xFFu},
 711:Generated_Source\PSoC5/cyfitter_cfg.c **** 			{0xC2u, 0x3Fu},
 712:Generated_Source\PSoC5/cyfitter_cfg.c **** 			{0xC4u, 0x1Fu},
 713:Generated_Source\PSoC5/cyfitter_cfg.c **** 			{0xCAu, 0x9Du},
 714:Generated_Source\PSoC5/cyfitter_cfg.c **** 			{0xCCu, 0xA3u},
 715:Generated_Source\PSoC5/cyfitter_cfg.c **** 			{0xCEu, 0x7Au},
 716:Generated_Source\PSoC5/cyfitter_cfg.c **** 			{0xD6u, 0x12u},
 717:Generated_Source\PSoC5/cyfitter_cfg.c **** 			{0xD8u, 0x12u},
 718:Generated_Source\PSoC5/cyfitter_cfg.c **** 			{0xDEu, 0x08u},
 719:Generated_Source\PSoC5/cyfitter_cfg.c **** 			{0xE2u, 0x02u},
 720:Generated_Source\PSoC5/cyfitter_cfg.c **** 			{0xE6u, 0x07u},
 721:Generated_Source\PSoC5/cyfitter_cfg.c **** 			{0x02u, 0x01u},
 722:Generated_Source\PSoC5/cyfitter_cfg.c **** 			{0x04u, 0x01u},
 723:Generated_Source\PSoC5/cyfitter_cfg.c **** 			{0x08u, 0x01u},
 724:Generated_Source\PSoC5/cyfitter_cfg.c **** 			{0x0Eu, 0x01u},
 725:Generated_Source\PSoC5/cyfitter_cfg.c **** 			{0x12u, 0x01u},
 726:Generated_Source\PSoC5/cyfitter_cfg.c **** 			{0x22u, 0x01u},
 727:Generated_Source\PSoC5/cyfitter_cfg.c **** 			{0x28u, 0x01u},
 728:Generated_Source\PSoC5/cyfitter_cfg.c **** 			{0x36u, 0x01u},
 729:Generated_Source\PSoC5/cyfitter_cfg.c **** 			{0x56u, 0x08u},
 730:Generated_Source\PSoC5/cyfitter_cfg.c **** 			{0x58u, 0x04u},
 731:Generated_Source\PSoC5/cyfitter_cfg.c **** 			{0x59u, 0x04u},
 732:Generated_Source\PSoC5/cyfitter_cfg.c **** 			{0x5Bu, 0x04u},
 733:Generated_Source\PSoC5/cyfitter_cfg.c **** 			{0x5Du, 0x90u},
 734:Generated_Source\PSoC5/cyfitter_cfg.c **** 			{0x5Fu, 0x01u},
 735:Generated_Source\PSoC5/cyfitter_cfg.c **** 			{0x82u, 0x02u},
 736:Generated_Source\PSoC5/cyfitter_cfg.c **** 			{0x84u, 0x18u},
 737:Generated_Source\PSoC5/cyfitter_cfg.c **** 			{0x87u, 0x20u},
 738:Generated_Source\PSoC5/cyfitter_cfg.c **** 			{0x8Au, 0x08u},
 739:Generated_Source\PSoC5/cyfitter_cfg.c **** 			{0x8Bu, 0x04u},
 740:Generated_Source\PSoC5/cyfitter_cfg.c **** 			{0x8Eu, 0x01u},
 741:Generated_Source\PSoC5/cyfitter_cfg.c **** 			{0x8Fu, 0x40u},
 742:Generated_Source\PSoC5/cyfitter_cfg.c **** 			{0x90u, 0x10u},
 743:Generated_Source\PSoC5/cyfitter_cfg.c **** 			{0x93u, 0x10u},
 744:Generated_Source\PSoC5/cyfitter_cfg.c **** 			{0x94u, 0x01u},
 745:Generated_Source\PSoC5/cyfitter_cfg.c **** 			{0x95u, 0x10u},
 746:Generated_Source\PSoC5/cyfitter_cfg.c **** 			{0x99u, 0x01u},
 747:Generated_Source\PSoC5/cyfitter_cfg.c **** 			{0x9Du, 0x20u},
 748:Generated_Source\PSoC5/cyfitter_cfg.c **** 			{0xA3u, 0x03u},
 749:Generated_Source\PSoC5/cyfitter_cfg.c **** 			{0xA4u, 0x04u},
 750:Generated_Source\PSoC5/cyfitter_cfg.c **** 			{0xA5u, 0x04u},
 751:Generated_Source\PSoC5/cyfitter_cfg.c **** 			{0xA9u, 0x08u},
 752:Generated_Source\PSoC5/cyfitter_cfg.c **** 			{0xACu, 0x04u},
 753:Generated_Source\PSoC5/cyfitter_cfg.c **** 			{0xAFu, 0x08u},
 754:Generated_Source\PSoC5/cyfitter_cfg.c **** 			{0xB0u, 0x03u},
 755:Generated_Source\PSoC5/cyfitter_cfg.c **** 			{0xB2u, 0x04u},
 756:Generated_Source\PSoC5/cyfitter_cfg.c **** 			{0xB3u, 0x01u},
 757:Generated_Source\PSoC5/cyfitter_cfg.c **** 			{0xB4u, 0x18u},
 758:Generated_Source\PSoC5/cyfitter_cfg.c **** 			{0xB5u, 0x02u},
 759:Generated_Source\PSoC5/cyfitter_cfg.c **** 			{0xB7u, 0x7Cu},
 760:Generated_Source\PSoC5/cyfitter_cfg.c **** 			{0xB8u, 0x08u},
 761:Generated_Source\PSoC5/cyfitter_cfg.c **** 			{0xB9u, 0x80u},
 762:Generated_Source\PSoC5/cyfitter_cfg.c **** 			{0xBEu, 0x04u},
 763:Generated_Source\PSoC5/cyfitter_cfg.c **** 			{0xBFu, 0x40u},
 764:Generated_Source\PSoC5/cyfitter_cfg.c **** 			{0xD2u, 0x03u},
ARM GAS  C:\Users\aupen\AppData\Local\Temp\ccogqXvD.s 			page 16


 765:Generated_Source\PSoC5/cyfitter_cfg.c **** 			{0xD3u, 0x02u},
 766:Generated_Source\PSoC5/cyfitter_cfg.c **** 			{0xD8u, 0x04u},
 767:Generated_Source\PSoC5/cyfitter_cfg.c **** 			{0xD9u, 0x0Cu},
 768:Generated_Source\PSoC5/cyfitter_cfg.c **** 			{0xDBu, 0x04u},
 769:Generated_Source\PSoC5/cyfitter_cfg.c **** 			{0xDCu, 0x09u},
 770:Generated_Source\PSoC5/cyfitter_cfg.c **** 			{0xDFu, 0x01u},
 771:Generated_Source\PSoC5/cyfitter_cfg.c **** 			{0x00u, 0x01u},
 772:Generated_Source\PSoC5/cyfitter_cfg.c **** 			{0x01u, 0x20u},
 773:Generated_Source\PSoC5/cyfitter_cfg.c **** 			{0x03u, 0x12u},
 774:Generated_Source\PSoC5/cyfitter_cfg.c **** 			{0x05u, 0x08u},
 775:Generated_Source\PSoC5/cyfitter_cfg.c **** 			{0x07u, 0x46u},
 776:Generated_Source\PSoC5/cyfitter_cfg.c **** 			{0x08u, 0x02u},
 777:Generated_Source\PSoC5/cyfitter_cfg.c **** 			{0x09u, 0x08u},
 778:Generated_Source\PSoC5/cyfitter_cfg.c **** 			{0x0Eu, 0x40u},
 779:Generated_Source\PSoC5/cyfitter_cfg.c **** 			{0x12u, 0x02u},
 780:Generated_Source\PSoC5/cyfitter_cfg.c **** 			{0x13u, 0x08u},
 781:Generated_Source\PSoC5/cyfitter_cfg.c **** 			{0x14u, 0x08u},
 782:Generated_Source\PSoC5/cyfitter_cfg.c **** 			{0x16u, 0x80u},
 783:Generated_Source\PSoC5/cyfitter_cfg.c **** 			{0x19u, 0x25u},
 784:Generated_Source\PSoC5/cyfitter_cfg.c **** 			{0x1Au, 0x04u},
 785:Generated_Source\PSoC5/cyfitter_cfg.c **** 			{0x1Bu, 0x02u},
 786:Generated_Source\PSoC5/cyfitter_cfg.c **** 			{0x1Fu, 0x80u},
 787:Generated_Source\PSoC5/cyfitter_cfg.c **** 			{0x20u, 0x02u},
 788:Generated_Source\PSoC5/cyfitter_cfg.c **** 			{0x21u, 0x28u},
 789:Generated_Source\PSoC5/cyfitter_cfg.c **** 			{0x23u, 0x02u},
 790:Generated_Source\PSoC5/cyfitter_cfg.c **** 			{0x28u, 0x08u},
 791:Generated_Source\PSoC5/cyfitter_cfg.c **** 			{0x29u, 0x49u},
 792:Generated_Source\PSoC5/cyfitter_cfg.c **** 			{0x2Au, 0x20u},
 793:Generated_Source\PSoC5/cyfitter_cfg.c **** 			{0x2Du, 0x08u},
 794:Generated_Source\PSoC5/cyfitter_cfg.c **** 			{0x2Eu, 0x40u},
 795:Generated_Source\PSoC5/cyfitter_cfg.c **** 			{0x31u, 0x20u},
 796:Generated_Source\PSoC5/cyfitter_cfg.c **** 			{0x32u, 0x89u},
 797:Generated_Source\PSoC5/cyfitter_cfg.c **** 			{0x33u, 0x44u},
 798:Generated_Source\PSoC5/cyfitter_cfg.c **** 			{0x36u, 0x88u},
 799:Generated_Source\PSoC5/cyfitter_cfg.c **** 			{0x37u, 0x02u},
 800:Generated_Source\PSoC5/cyfitter_cfg.c **** 			{0x38u, 0x60u},
 801:Generated_Source\PSoC5/cyfitter_cfg.c **** 			{0x39u, 0x04u},
 802:Generated_Source\PSoC5/cyfitter_cfg.c **** 			{0x3Eu, 0xA0u},
 803:Generated_Source\PSoC5/cyfitter_cfg.c **** 			{0x5Fu, 0x40u},
 804:Generated_Source\PSoC5/cyfitter_cfg.c **** 			{0x66u, 0x40u},
 805:Generated_Source\PSoC5/cyfitter_cfg.c **** 			{0x69u, 0x40u},
 806:Generated_Source\PSoC5/cyfitter_cfg.c **** 			{0x6Bu, 0x08u},
 807:Generated_Source\PSoC5/cyfitter_cfg.c **** 			{0x79u, 0x40u},
 808:Generated_Source\PSoC5/cyfitter_cfg.c **** 			{0x87u, 0x80u},
 809:Generated_Source\PSoC5/cyfitter_cfg.c **** 			{0x8Au, 0x08u},
 810:Generated_Source\PSoC5/cyfitter_cfg.c **** 			{0x8Bu, 0x40u},
 811:Generated_Source\PSoC5/cyfitter_cfg.c **** 			{0x8Eu, 0x80u},
 812:Generated_Source\PSoC5/cyfitter_cfg.c **** 			{0x90u, 0x60u},
 813:Generated_Source\PSoC5/cyfitter_cfg.c **** 			{0x91u, 0x04u},
 814:Generated_Source\PSoC5/cyfitter_cfg.c **** 			{0x92u, 0x42u},
 815:Generated_Source\PSoC5/cyfitter_cfg.c **** 			{0x95u, 0x40u},
 816:Generated_Source\PSoC5/cyfitter_cfg.c **** 			{0x98u, 0x0Au},
 817:Generated_Source\PSoC5/cyfitter_cfg.c **** 			{0x99u, 0x48u},
 818:Generated_Source\PSoC5/cyfitter_cfg.c **** 			{0x9Au, 0x80u},
 819:Generated_Source\PSoC5/cyfitter_cfg.c **** 			{0x9Du, 0x04u},
 820:Generated_Source\PSoC5/cyfitter_cfg.c **** 			{0x9Fu, 0x8Au},
 821:Generated_Source\PSoC5/cyfitter_cfg.c **** 			{0xA2u, 0x8Au},
ARM GAS  C:\Users\aupen\AppData\Local\Temp\ccogqXvD.s 			page 17


 822:Generated_Source\PSoC5/cyfitter_cfg.c **** 			{0xA8u, 0x80u},
 823:Generated_Source\PSoC5/cyfitter_cfg.c **** 			{0xC0u, 0xFFu},
 824:Generated_Source\PSoC5/cyfitter_cfg.c **** 			{0xC2u, 0x1Cu},
 825:Generated_Source\PSoC5/cyfitter_cfg.c **** 			{0xC4u, 0x55u},
 826:Generated_Source\PSoC5/cyfitter_cfg.c **** 			{0xCAu, 0x5Fu},
 827:Generated_Source\PSoC5/cyfitter_cfg.c **** 			{0xCCu, 0xDFu},
 828:Generated_Source\PSoC5/cyfitter_cfg.c **** 			{0xCEu, 0x3Eu},
 829:Generated_Source\PSoC5/cyfitter_cfg.c **** 			{0xD6u, 0x10u},
 830:Generated_Source\PSoC5/cyfitter_cfg.c **** 			{0xD8u, 0x10u},
 831:Generated_Source\PSoC5/cyfitter_cfg.c **** 			{0xDEu, 0x08u},
 832:Generated_Source\PSoC5/cyfitter_cfg.c **** 			{0xE0u, 0x20u},
 833:Generated_Source\PSoC5/cyfitter_cfg.c **** 			{0xB8u, 0x80u},
 834:Generated_Source\PSoC5/cyfitter_cfg.c **** 			{0xBEu, 0x40u},
 835:Generated_Source\PSoC5/cyfitter_cfg.c **** 			{0xD8u, 0x04u},
 836:Generated_Source\PSoC5/cyfitter_cfg.c **** 			{0xDFu, 0x01u},
 837:Generated_Source\PSoC5/cyfitter_cfg.c **** 			{0x19u, 0x80u},
 838:Generated_Source\PSoC5/cyfitter_cfg.c **** 			{0x8Au, 0x20u},
 839:Generated_Source\PSoC5/cyfitter_cfg.c **** 			{0x8Fu, 0x04u},
 840:Generated_Source\PSoC5/cyfitter_cfg.c **** 			{0x96u, 0x20u},
 841:Generated_Source\PSoC5/cyfitter_cfg.c **** 			{0x9Au, 0x10u},
 842:Generated_Source\PSoC5/cyfitter_cfg.c **** 			{0x9Bu, 0x80u},
 843:Generated_Source\PSoC5/cyfitter_cfg.c **** 			{0xA2u, 0x08u},
 844:Generated_Source\PSoC5/cyfitter_cfg.c **** 			{0xE0u, 0x40u},
 845:Generated_Source\PSoC5/cyfitter_cfg.c **** 			{0xE4u, 0x80u},
 846:Generated_Source\PSoC5/cyfitter_cfg.c **** 			{0x82u, 0x10u},
 847:Generated_Source\PSoC5/cyfitter_cfg.c **** 			{0x8Au, 0x10u},
 848:Generated_Source\PSoC5/cyfitter_cfg.c **** 			{0x9Bu, 0x80u},
 849:Generated_Source\PSoC5/cyfitter_cfg.c **** 			{0xA2u, 0x08u},
 850:Generated_Source\PSoC5/cyfitter_cfg.c **** 			{0xE2u, 0x02u},
 851:Generated_Source\PSoC5/cyfitter_cfg.c **** 			{0xE4u, 0x20u},
 852:Generated_Source\PSoC5/cyfitter_cfg.c **** 			{0xE6u, 0x03u},
 853:Generated_Source\PSoC5/cyfitter_cfg.c **** 			{0xECu, 0x20u},
 854:Generated_Source\PSoC5/cyfitter_cfg.c **** 			{0x9Bu, 0x80u},
 855:Generated_Source\PSoC5/cyfitter_cfg.c **** 			{0xA2u, 0x08u},
 856:Generated_Source\PSoC5/cyfitter_cfg.c **** 			{0xAFu, 0x80u},
 857:Generated_Source\PSoC5/cyfitter_cfg.c **** 			{0xE4u, 0x01u},
 858:Generated_Source\PSoC5/cyfitter_cfg.c **** 			{0xEEu, 0x08u},
 859:Generated_Source\PSoC5/cyfitter_cfg.c **** 			{0x8Eu, 0x08u},
 860:Generated_Source\PSoC5/cyfitter_cfg.c **** 			{0xE2u, 0x04u},
 861:Generated_Source\PSoC5/cyfitter_cfg.c **** 			{0xE4u, 0x40u},
 862:Generated_Source\PSoC5/cyfitter_cfg.c **** 			{0x02u, 0x10u},
 863:Generated_Source\PSoC5/cyfitter_cfg.c **** 			{0x0Au, 0x01u},
 864:Generated_Source\PSoC5/cyfitter_cfg.c **** 			{0x0Cu, 0x30u},
 865:Generated_Source\PSoC5/cyfitter_cfg.c **** 			{0x10u, 0x08u},
 866:Generated_Source\PSoC5/cyfitter_cfg.c **** 			{0x14u, 0x03u},
 867:Generated_Source\PSoC5/cyfitter_cfg.c **** 			{0x1Au, 0x04u},
 868:Generated_Source\PSoC5/cyfitter_cfg.c **** 			{0x1Cu, 0x20u},
 869:Generated_Source\PSoC5/cyfitter_cfg.c **** 			{0x20u, 0x0Cu},
 870:Generated_Source\PSoC5/cyfitter_cfg.c **** 			{0x24u, 0x02u},
 871:Generated_Source\PSoC5/cyfitter_cfg.c **** 			{0x30u, 0x30u},
 872:Generated_Source\PSoC5/cyfitter_cfg.c **** 			{0x32u, 0x03u},
 873:Generated_Source\PSoC5/cyfitter_cfg.c **** 			{0x34u, 0x0Cu},
 874:Generated_Source\PSoC5/cyfitter_cfg.c **** 			{0x56u, 0x08u},
 875:Generated_Source\PSoC5/cyfitter_cfg.c **** 			{0x58u, 0x04u},
 876:Generated_Source\PSoC5/cyfitter_cfg.c **** 			{0x59u, 0x04u},
 877:Generated_Source\PSoC5/cyfitter_cfg.c **** 			{0x5Bu, 0x04u},
 878:Generated_Source\PSoC5/cyfitter_cfg.c **** 			{0x5Cu, 0x09u},
ARM GAS  C:\Users\aupen\AppData\Local\Temp\ccogqXvD.s 			page 18


 879:Generated_Source\PSoC5/cyfitter_cfg.c **** 			{0x5Du, 0x90u},
 880:Generated_Source\PSoC5/cyfitter_cfg.c **** 			{0x5Fu, 0x01u},
 881:Generated_Source\PSoC5/cyfitter_cfg.c **** 			{0x82u, 0x01u},
 882:Generated_Source\PSoC5/cyfitter_cfg.c **** 			{0x84u, 0x01u},
 883:Generated_Source\PSoC5/cyfitter_cfg.c **** 			{0x89u, 0x03u},
 884:Generated_Source\PSoC5/cyfitter_cfg.c **** 			{0x8Eu, 0x01u},
 885:Generated_Source\PSoC5/cyfitter_cfg.c **** 			{0x8Fu, 0x03u},
 886:Generated_Source\PSoC5/cyfitter_cfg.c **** 			{0x90u, 0x01u},
 887:Generated_Source\PSoC5/cyfitter_cfg.c **** 			{0x93u, 0x03u},
 888:Generated_Source\PSoC5/cyfitter_cfg.c **** 			{0x95u, 0x03u},
 889:Generated_Source\PSoC5/cyfitter_cfg.c **** 			{0x9Du, 0x02u},
 890:Generated_Source\PSoC5/cyfitter_cfg.c **** 			{0x9Fu, 0x01u},
 891:Generated_Source\PSoC5/cyfitter_cfg.c **** 			{0xA0u, 0x01u},
 892:Generated_Source\PSoC5/cyfitter_cfg.c **** 			{0xA4u, 0x01u},
 893:Generated_Source\PSoC5/cyfitter_cfg.c **** 			{0xA5u, 0x03u},
 894:Generated_Source\PSoC5/cyfitter_cfg.c **** 			{0xA8u, 0x01u},
 895:Generated_Source\PSoC5/cyfitter_cfg.c **** 			{0xADu, 0x01u},
 896:Generated_Source\PSoC5/cyfitter_cfg.c **** 			{0xAFu, 0x02u},
 897:Generated_Source\PSoC5/cyfitter_cfg.c **** 			{0xB1u, 0x01u},
 898:Generated_Source\PSoC5/cyfitter_cfg.c **** 			{0xB4u, 0x01u},
 899:Generated_Source\PSoC5/cyfitter_cfg.c **** 			{0xB7u, 0x02u},
 900:Generated_Source\PSoC5/cyfitter_cfg.c **** 			{0xD6u, 0x08u},
 901:Generated_Source\PSoC5/cyfitter_cfg.c **** 			{0xD8u, 0x04u},
 902:Generated_Source\PSoC5/cyfitter_cfg.c **** 			{0xD9u, 0x04u},
 903:Generated_Source\PSoC5/cyfitter_cfg.c **** 			{0xDBu, 0x04u},
 904:Generated_Source\PSoC5/cyfitter_cfg.c **** 			{0xDDu, 0x90u},
 905:Generated_Source\PSoC5/cyfitter_cfg.c **** 			{0xDFu, 0x01u},
 906:Generated_Source\PSoC5/cyfitter_cfg.c **** 			{0x00u, 0x80u},
 907:Generated_Source\PSoC5/cyfitter_cfg.c **** 			{0x01u, 0x02u},
 908:Generated_Source\PSoC5/cyfitter_cfg.c **** 			{0x03u, 0x08u},
 909:Generated_Source\PSoC5/cyfitter_cfg.c **** 			{0x05u, 0x08u},
 910:Generated_Source\PSoC5/cyfitter_cfg.c **** 			{0x07u, 0x42u},
 911:Generated_Source\PSoC5/cyfitter_cfg.c **** 			{0x08u, 0x01u},
 912:Generated_Source\PSoC5/cyfitter_cfg.c **** 			{0x09u, 0x88u},
 913:Generated_Source\PSoC5/cyfitter_cfg.c **** 			{0x0Au, 0x04u},
 914:Generated_Source\PSoC5/cyfitter_cfg.c **** 			{0x0Eu, 0x40u},
 915:Generated_Source\PSoC5/cyfitter_cfg.c **** 			{0x10u, 0x80u},
 916:Generated_Source\PSoC5/cyfitter_cfg.c **** 			{0x12u, 0x10u},
 917:Generated_Source\PSoC5/cyfitter_cfg.c **** 			{0x15u, 0x10u},
 918:Generated_Source\PSoC5/cyfitter_cfg.c **** 			{0x16u, 0x80u},
 919:Generated_Source\PSoC5/cyfitter_cfg.c **** 			{0x17u, 0x04u},
 920:Generated_Source\PSoC5/cyfitter_cfg.c **** 			{0x19u, 0x06u},
 921:Generated_Source\PSoC5/cyfitter_cfg.c **** 			{0x1Au, 0x0Cu},
 922:Generated_Source\PSoC5/cyfitter_cfg.c **** 			{0x1Bu, 0x08u},
 923:Generated_Source\PSoC5/cyfitter_cfg.c **** 			{0x1Fu, 0x20u},
 924:Generated_Source\PSoC5/cyfitter_cfg.c **** 			{0x25u, 0x02u},
 925:Generated_Source\PSoC5/cyfitter_cfg.c **** 			{0x26u, 0x80u},
 926:Generated_Source\PSoC5/cyfitter_cfg.c **** 			{0x29u, 0x08u},
 927:Generated_Source\PSoC5/cyfitter_cfg.c **** 			{0x2Au, 0x80u},
 928:Generated_Source\PSoC5/cyfitter_cfg.c **** 			{0x2Du, 0x08u},
 929:Generated_Source\PSoC5/cyfitter_cfg.c **** 			{0x2Eu, 0x40u},
 930:Generated_Source\PSoC5/cyfitter_cfg.c **** 			{0x31u, 0x01u},
 931:Generated_Source\PSoC5/cyfitter_cfg.c **** 			{0x33u, 0x44u},
 932:Generated_Source\PSoC5/cyfitter_cfg.c **** 			{0x35u, 0x01u},
 933:Generated_Source\PSoC5/cyfitter_cfg.c **** 			{0x37u, 0x46u},
 934:Generated_Source\PSoC5/cyfitter_cfg.c **** 			{0x38u, 0x04u},
 935:Generated_Source\PSoC5/cyfitter_cfg.c **** 			{0x3Au, 0x20u},
ARM GAS  C:\Users\aupen\AppData\Local\Temp\ccogqXvD.s 			page 19


 936:Generated_Source\PSoC5/cyfitter_cfg.c **** 			{0x3Du, 0x10u},
 937:Generated_Source\PSoC5/cyfitter_cfg.c **** 			{0x3Eu, 0xA0u},
 938:Generated_Source\PSoC5/cyfitter_cfg.c **** 			{0x59u, 0x80u},
 939:Generated_Source\PSoC5/cyfitter_cfg.c **** 			{0x5Cu, 0x80u},
 940:Generated_Source\PSoC5/cyfitter_cfg.c **** 			{0x61u, 0x80u},
 941:Generated_Source\PSoC5/cyfitter_cfg.c **** 			{0x64u, 0x01u},
 942:Generated_Source\PSoC5/cyfitter_cfg.c **** 			{0x68u, 0x45u},
 943:Generated_Source\PSoC5/cyfitter_cfg.c **** 			{0x6Bu, 0x10u},
 944:Generated_Source\PSoC5/cyfitter_cfg.c **** 			{0x70u, 0x80u},
 945:Generated_Source\PSoC5/cyfitter_cfg.c **** 			{0x71u, 0x28u},
 946:Generated_Source\PSoC5/cyfitter_cfg.c **** 			{0x80u, 0x80u},
 947:Generated_Source\PSoC5/cyfitter_cfg.c **** 			{0x81u, 0x80u},
 948:Generated_Source\PSoC5/cyfitter_cfg.c **** 			{0x85u, 0x02u},
 949:Generated_Source\PSoC5/cyfitter_cfg.c **** 			{0x8Bu, 0x20u},
 950:Generated_Source\PSoC5/cyfitter_cfg.c **** 			{0x8Eu, 0x80u},
 951:Generated_Source\PSoC5/cyfitter_cfg.c **** 			{0x90u, 0x04u},
 952:Generated_Source\PSoC5/cyfitter_cfg.c **** 			{0x92u, 0x40u},
 953:Generated_Source\PSoC5/cyfitter_cfg.c **** 			{0x96u, 0x08u},
 954:Generated_Source\PSoC5/cyfitter_cfg.c **** 			{0x99u, 0x08u},
 955:Generated_Source\PSoC5/cyfitter_cfg.c **** 			{0x9Au, 0xB0u},
 956:Generated_Source\PSoC5/cyfitter_cfg.c **** 			{0x9Bu, 0x46u},
 957:Generated_Source\PSoC5/cyfitter_cfg.c **** 			{0x9Du, 0x06u},
 958:Generated_Source\PSoC5/cyfitter_cfg.c **** 			{0x9Fu, 0x10u},
 959:Generated_Source\PSoC5/cyfitter_cfg.c **** 			{0xA4u, 0x05u},
 960:Generated_Source\PSoC5/cyfitter_cfg.c **** 			{0xA5u, 0x20u},
 961:Generated_Source\PSoC5/cyfitter_cfg.c **** 			{0xA8u, 0x04u},
 962:Generated_Source\PSoC5/cyfitter_cfg.c **** 			{0xAFu, 0x20u},
 963:Generated_Source\PSoC5/cyfitter_cfg.c **** 			{0xB0u, 0x10u},
 964:Generated_Source\PSoC5/cyfitter_cfg.c **** 			{0xB2u, 0x05u},
 965:Generated_Source\PSoC5/cyfitter_cfg.c **** 			{0xB3u, 0x01u},
 966:Generated_Source\PSoC5/cyfitter_cfg.c **** 			{0xB4u, 0x04u},
 967:Generated_Source\PSoC5/cyfitter_cfg.c **** 			{0xB6u, 0x40u},
 968:Generated_Source\PSoC5/cyfitter_cfg.c **** 			{0xC0u, 0xBBu},
 969:Generated_Source\PSoC5/cyfitter_cfg.c **** 			{0xC2u, 0x1Fu},
 970:Generated_Source\PSoC5/cyfitter_cfg.c **** 			{0xC4u, 0x7Cu},
 971:Generated_Source\PSoC5/cyfitter_cfg.c **** 			{0xCAu, 0x5Au},
 972:Generated_Source\PSoC5/cyfitter_cfg.c **** 			{0xCCu, 0xDBu},
 973:Generated_Source\PSoC5/cyfitter_cfg.c **** 			{0xCEu, 0x36u},
 974:Generated_Source\PSoC5/cyfitter_cfg.c **** 			{0xD6u, 0x18u},
 975:Generated_Source\PSoC5/cyfitter_cfg.c **** 			{0xD8u, 0x18u},
 976:Generated_Source\PSoC5/cyfitter_cfg.c **** 			{0xE2u, 0xC0u},
 977:Generated_Source\PSoC5/cyfitter_cfg.c **** 			{0xE8u, 0x11u},
 978:Generated_Source\PSoC5/cyfitter_cfg.c **** 			{0x09u, 0x01u},
 979:Generated_Source\PSoC5/cyfitter_cfg.c **** 			{0x0Du, 0x01u},
 980:Generated_Source\PSoC5/cyfitter_cfg.c **** 			{0x13u, 0x01u},
 981:Generated_Source\PSoC5/cyfitter_cfg.c **** 			{0x15u, 0x01u},
 982:Generated_Source\PSoC5/cyfitter_cfg.c **** 			{0x1Du, 0x01u},
 983:Generated_Source\PSoC5/cyfitter_cfg.c **** 			{0x25u, 0x01u},
 984:Generated_Source\PSoC5/cyfitter_cfg.c **** 			{0x2Fu, 0x01u},
 985:Generated_Source\PSoC5/cyfitter_cfg.c **** 			{0x35u, 0x01u},
 986:Generated_Source\PSoC5/cyfitter_cfg.c **** 			{0x56u, 0x08u},
 987:Generated_Source\PSoC5/cyfitter_cfg.c **** 			{0x58u, 0x04u},
 988:Generated_Source\PSoC5/cyfitter_cfg.c **** 			{0x59u, 0x04u},
 989:Generated_Source\PSoC5/cyfitter_cfg.c **** 			{0x5Bu, 0x04u},
 990:Generated_Source\PSoC5/cyfitter_cfg.c **** 			{0x5Du, 0x90u},
 991:Generated_Source\PSoC5/cyfitter_cfg.c **** 			{0x5Fu, 0x01u},
 992:Generated_Source\PSoC5/cyfitter_cfg.c **** 			{0x80u, 0x0Cu},
ARM GAS  C:\Users\aupen\AppData\Local\Temp\ccogqXvD.s 			page 20


 993:Generated_Source\PSoC5/cyfitter_cfg.c **** 			{0x84u, 0x03u},
 994:Generated_Source\PSoC5/cyfitter_cfg.c **** 			{0x8Eu, 0x04u},
 995:Generated_Source\PSoC5/cyfitter_cfg.c **** 			{0x96u, 0x10u},
 996:Generated_Source\PSoC5/cyfitter_cfg.c **** 			{0x98u, 0x30u},
 997:Generated_Source\PSoC5/cyfitter_cfg.c **** 			{0x9Eu, 0x01u},
 998:Generated_Source\PSoC5/cyfitter_cfg.c **** 			{0xA0u, 0x02u},
 999:Generated_Source\PSoC5/cyfitter_cfg.c **** 			{0xA8u, 0x20u},
1000:Generated_Source\PSoC5/cyfitter_cfg.c **** 			{0xACu, 0x08u},
1001:Generated_Source\PSoC5/cyfitter_cfg.c **** 			{0xB0u, 0x0Cu},
1002:Generated_Source\PSoC5/cyfitter_cfg.c **** 			{0xB2u, 0x30u},
1003:Generated_Source\PSoC5/cyfitter_cfg.c **** 			{0xB6u, 0x03u},
1004:Generated_Source\PSoC5/cyfitter_cfg.c **** 			{0xD8u, 0x04u},
1005:Generated_Source\PSoC5/cyfitter_cfg.c **** 			{0xD9u, 0x04u},
1006:Generated_Source\PSoC5/cyfitter_cfg.c **** 			{0xDBu, 0x04u},
1007:Generated_Source\PSoC5/cyfitter_cfg.c **** 			{0xDCu, 0x09u},
1008:Generated_Source\PSoC5/cyfitter_cfg.c **** 			{0xDFu, 0x01u},
1009:Generated_Source\PSoC5/cyfitter_cfg.c **** 			{0x00u, 0x4Au},
1010:Generated_Source\PSoC5/cyfitter_cfg.c **** 			{0x05u, 0x08u},
1011:Generated_Source\PSoC5/cyfitter_cfg.c **** 			{0x07u, 0x42u},
1012:Generated_Source\PSoC5/cyfitter_cfg.c **** 			{0x09u, 0x20u},
1013:Generated_Source\PSoC5/cyfitter_cfg.c **** 			{0x0Au, 0x12u},
1014:Generated_Source\PSoC5/cyfitter_cfg.c **** 			{0x0Eu, 0x40u},
1015:Generated_Source\PSoC5/cyfitter_cfg.c **** 			{0x10u, 0x01u},
1016:Generated_Source\PSoC5/cyfitter_cfg.c **** 			{0x12u, 0x44u},
1017:Generated_Source\PSoC5/cyfitter_cfg.c **** 			{0x14u, 0x08u},
1018:Generated_Source\PSoC5/cyfitter_cfg.c **** 			{0x16u, 0x80u},
1019:Generated_Source\PSoC5/cyfitter_cfg.c **** 			{0x17u, 0x04u},
1020:Generated_Source\PSoC5/cyfitter_cfg.c **** 			{0x18u, 0x40u},
1021:Generated_Source\PSoC5/cyfitter_cfg.c **** 			{0x1Au, 0x92u},
1022:Generated_Source\PSoC5/cyfitter_cfg.c **** 			{0x1Bu, 0x04u},
1023:Generated_Source\PSoC5/cyfitter_cfg.c **** 			{0x24u, 0x08u},
1024:Generated_Source\PSoC5/cyfitter_cfg.c **** 			{0x28u, 0x08u},
1025:Generated_Source\PSoC5/cyfitter_cfg.c **** 			{0x29u, 0x08u},
1026:Generated_Source\PSoC5/cyfitter_cfg.c **** 			{0x2Au, 0x80u},
1027:Generated_Source\PSoC5/cyfitter_cfg.c **** 			{0x2Du, 0x08u},
1028:Generated_Source\PSoC5/cyfitter_cfg.c **** 			{0x2Eu, 0x40u},
1029:Generated_Source\PSoC5/cyfitter_cfg.c **** 			{0x31u, 0x01u},
1030:Generated_Source\PSoC5/cyfitter_cfg.c **** 			{0x33u, 0x44u},
1031:Generated_Source\PSoC5/cyfitter_cfg.c **** 			{0x35u, 0x01u},
1032:Generated_Source\PSoC5/cyfitter_cfg.c **** 			{0x37u, 0x46u},
1033:Generated_Source\PSoC5/cyfitter_cfg.c **** 			{0x38u, 0x04u},
1034:Generated_Source\PSoC5/cyfitter_cfg.c **** 			{0x3Eu, 0xA0u},
1035:Generated_Source\PSoC5/cyfitter_cfg.c **** 			{0x58u, 0x10u},
1036:Generated_Source\PSoC5/cyfitter_cfg.c **** 			{0x59u, 0x02u},
1037:Generated_Source\PSoC5/cyfitter_cfg.c **** 			{0x5Au, 0x84u},
1038:Generated_Source\PSoC5/cyfitter_cfg.c **** 			{0x5Cu, 0x80u},
1039:Generated_Source\PSoC5/cyfitter_cfg.c **** 			{0x5Fu, 0x28u},
1040:Generated_Source\PSoC5/cyfitter_cfg.c **** 			{0x61u, 0x04u},
1041:Generated_Source\PSoC5/cyfitter_cfg.c **** 			{0x63u, 0x0Au},
1042:Generated_Source\PSoC5/cyfitter_cfg.c **** 			{0x64u, 0x01u},
1043:Generated_Source\PSoC5/cyfitter_cfg.c **** 			{0x66u, 0x14u},
1044:Generated_Source\PSoC5/cyfitter_cfg.c **** 			{0x80u, 0x01u},
1045:Generated_Source\PSoC5/cyfitter_cfg.c **** 			{0x8Bu, 0x08u},
1046:Generated_Source\PSoC5/cyfitter_cfg.c **** 			{0x8Cu, 0x80u},
1047:Generated_Source\PSoC5/cyfitter_cfg.c **** 			{0x8Eu, 0x20u},
1048:Generated_Source\PSoC5/cyfitter_cfg.c **** 			{0x92u, 0x44u},
1049:Generated_Source\PSoC5/cyfitter_cfg.c **** 			{0x94u, 0x01u},
ARM GAS  C:\Users\aupen\AppData\Local\Temp\ccogqXvD.s 			page 21


1050:Generated_Source\PSoC5/cyfitter_cfg.c **** 			{0x98u, 0x08u},
1051:Generated_Source\PSoC5/cyfitter_cfg.c **** 			{0x99u, 0x08u},
1052:Generated_Source\PSoC5/cyfitter_cfg.c **** 			{0x9Au, 0xE0u},
1053:Generated_Source\PSoC5/cyfitter_cfg.c **** 			{0x9Bu, 0x46u},
1054:Generated_Source\PSoC5/cyfitter_cfg.c **** 			{0x9Fu, 0x10u},
1055:Generated_Source\PSoC5/cyfitter_cfg.c **** 			{0xA9u, 0x08u},
1056:Generated_Source\PSoC5/cyfitter_cfg.c **** 			{0xABu, 0x80u},
1057:Generated_Source\PSoC5/cyfitter_cfg.c **** 			{0xB0u, 0x01u},
1058:Generated_Source\PSoC5/cyfitter_cfg.c **** 			{0xB5u, 0x08u},
1059:Generated_Source\PSoC5/cyfitter_cfg.c **** 			{0xC0u, 0xBDu},
1060:Generated_Source\PSoC5/cyfitter_cfg.c **** 			{0xC2u, 0x17u},
1061:Generated_Source\PSoC5/cyfitter_cfg.c **** 			{0xC4u, 0x7Bu},
1062:Generated_Source\PSoC5/cyfitter_cfg.c **** 			{0xCAu, 0x5Eu},
1063:Generated_Source\PSoC5/cyfitter_cfg.c **** 			{0xCCu, 0xDBu},
1064:Generated_Source\PSoC5/cyfitter_cfg.c **** 			{0xCEu, 0x32u},
1065:Generated_Source\PSoC5/cyfitter_cfg.c **** 			{0xD6u, 0x7Fu},
1066:Generated_Source\PSoC5/cyfitter_cfg.c **** 			{0xD8u, 0x7Eu},
1067:Generated_Source\PSoC5/cyfitter_cfg.c **** 			{0xE0u, 0x10u},
1068:Generated_Source\PSoC5/cyfitter_cfg.c **** 			{0xE2u, 0x09u},
1069:Generated_Source\PSoC5/cyfitter_cfg.c **** 			{0xE4u, 0x80u},
1070:Generated_Source\PSoC5/cyfitter_cfg.c **** 			{0xE8u, 0x10u},
1071:Generated_Source\PSoC5/cyfitter_cfg.c **** 			{0xEAu, 0x04u},
1072:Generated_Source\PSoC5/cyfitter_cfg.c **** 			{0x40u, 0x06u},
1073:Generated_Source\PSoC5/cyfitter_cfg.c **** 			{0x46u, 0x20u},
1074:Generated_Source\PSoC5/cyfitter_cfg.c **** 			{0x48u, 0x08u},
1075:Generated_Source\PSoC5/cyfitter_cfg.c **** 			{0x49u, 0xFFu},
1076:Generated_Source\PSoC5/cyfitter_cfg.c **** 			{0x4Au, 0xFFu},
1077:Generated_Source\PSoC5/cyfitter_cfg.c **** 			{0x4Bu, 0xFFu},
1078:Generated_Source\PSoC5/cyfitter_cfg.c **** 			{0x4Du, 0xA0u},
1079:Generated_Source\PSoC5/cyfitter_cfg.c **** 			{0x50u, 0x08u},
1080:Generated_Source\PSoC5/cyfitter_cfg.c **** 			{0x56u, 0x08u},
1081:Generated_Source\PSoC5/cyfitter_cfg.c **** 			{0x58u, 0x04u},
1082:Generated_Source\PSoC5/cyfitter_cfg.c **** 			{0x59u, 0x04u},
1083:Generated_Source\PSoC5/cyfitter_cfg.c **** 			{0x5Au, 0x04u},
1084:Generated_Source\PSoC5/cyfitter_cfg.c **** 			{0x5Bu, 0x04u},
1085:Generated_Source\PSoC5/cyfitter_cfg.c **** 			{0x5Du, 0x92u},
1086:Generated_Source\PSoC5/cyfitter_cfg.c **** 			{0x5Fu, 0x01u},
1087:Generated_Source\PSoC5/cyfitter_cfg.c **** 			{0x60u, 0x80u},
1088:Generated_Source\PSoC5/cyfitter_cfg.c **** 			{0x62u, 0x40u},
1089:Generated_Source\PSoC5/cyfitter_cfg.c **** 			{0x63u, 0x40u},
1090:Generated_Source\PSoC5/cyfitter_cfg.c **** 			{0x64u, 0x40u},
1091:Generated_Source\PSoC5/cyfitter_cfg.c **** 			{0x66u, 0x40u},
1092:Generated_Source\PSoC5/cyfitter_cfg.c **** 			{0x68u, 0x40u},
1093:Generated_Source\PSoC5/cyfitter_cfg.c **** 			{0x6Au, 0x40u},
1094:Generated_Source\PSoC5/cyfitter_cfg.c **** 			{0x6Cu, 0x40u},
1095:Generated_Source\PSoC5/cyfitter_cfg.c **** 			{0x6Eu, 0x40u},
1096:Generated_Source\PSoC5/cyfitter_cfg.c **** 			{0x82u, 0x05u},
1097:Generated_Source\PSoC5/cyfitter_cfg.c **** 			{0x84u, 0x02u},
1098:Generated_Source\PSoC5/cyfitter_cfg.c **** 			{0x93u, 0x01u},
1099:Generated_Source\PSoC5/cyfitter_cfg.c **** 			{0x95u, 0x01u},
1100:Generated_Source\PSoC5/cyfitter_cfg.c **** 			{0x96u, 0x01u},
1101:Generated_Source\PSoC5/cyfitter_cfg.c **** 			{0x98u, 0x05u},
1102:Generated_Source\PSoC5/cyfitter_cfg.c **** 			{0x9Au, 0x02u},
1103:Generated_Source\PSoC5/cyfitter_cfg.c **** 			{0xA6u, 0x04u},
1104:Generated_Source\PSoC5/cyfitter_cfg.c **** 			{0xAAu, 0x08u},
1105:Generated_Source\PSoC5/cyfitter_cfg.c **** 			{0xB0u, 0x01u},
1106:Generated_Source\PSoC5/cyfitter_cfg.c **** 			{0xB1u, 0x01u},
ARM GAS  C:\Users\aupen\AppData\Local\Temp\ccogqXvD.s 			page 22


1107:Generated_Source\PSoC5/cyfitter_cfg.c **** 			{0xB2u, 0x04u},
1108:Generated_Source\PSoC5/cyfitter_cfg.c **** 			{0xB4u, 0x02u},
1109:Generated_Source\PSoC5/cyfitter_cfg.c **** 			{0xB6u, 0x08u},
1110:Generated_Source\PSoC5/cyfitter_cfg.c **** 			{0xC0u, 0x10u},
1111:Generated_Source\PSoC5/cyfitter_cfg.c **** 			{0xC1u, 0x06u},
1112:Generated_Source\PSoC5/cyfitter_cfg.c **** 			{0xC5u, 0x01u},
1113:Generated_Source\PSoC5/cyfitter_cfg.c **** 			{0xC6u, 0x50u},
1114:Generated_Source\PSoC5/cyfitter_cfg.c **** 			{0xC7u, 0x02u},
1115:Generated_Source\PSoC5/cyfitter_cfg.c **** 			{0xC8u, 0x19u},
1116:Generated_Source\PSoC5/cyfitter_cfg.c **** 			{0xC9u, 0xFFu},
1117:Generated_Source\PSoC5/cyfitter_cfg.c **** 			{0xCAu, 0xFFu},
1118:Generated_Source\PSoC5/cyfitter_cfg.c **** 			{0xCBu, 0xFFu},
1119:Generated_Source\PSoC5/cyfitter_cfg.c **** 			{0xCDu, 0xA0u},
1120:Generated_Source\PSoC5/cyfitter_cfg.c **** 			{0xCFu, 0x04u},
1121:Generated_Source\PSoC5/cyfitter_cfg.c **** 			{0xD0u, 0x18u},
1122:Generated_Source\PSoC5/cyfitter_cfg.c **** 			{0xD8u, 0x04u},
1123:Generated_Source\PSoC5/cyfitter_cfg.c **** 			{0xD9u, 0x04u},
1124:Generated_Source\PSoC5/cyfitter_cfg.c **** 			{0xDAu, 0x04u},
1125:Generated_Source\PSoC5/cyfitter_cfg.c **** 			{0xDBu, 0x04u},
1126:Generated_Source\PSoC5/cyfitter_cfg.c **** 			{0xDCu, 0x22u},
1127:Generated_Source\PSoC5/cyfitter_cfg.c **** 			{0xDDu, 0x02u},
1128:Generated_Source\PSoC5/cyfitter_cfg.c **** 			{0xDFu, 0x01u},
1129:Generated_Source\PSoC5/cyfitter_cfg.c **** 			{0xE0u, 0x40u},
1130:Generated_Source\PSoC5/cyfitter_cfg.c **** 			{0xE2u, 0xC0u},
1131:Generated_Source\PSoC5/cyfitter_cfg.c **** 			{0xE4u, 0x40u},
1132:Generated_Source\PSoC5/cyfitter_cfg.c **** 			{0xE5u, 0x40u},
1133:Generated_Source\PSoC5/cyfitter_cfg.c **** 			{0xE6u, 0xC0u},
1134:Generated_Source\PSoC5/cyfitter_cfg.c **** 			{0xE8u, 0xC0u},
1135:Generated_Source\PSoC5/cyfitter_cfg.c **** 			{0xEAu, 0xC0u},
1136:Generated_Source\PSoC5/cyfitter_cfg.c **** 			{0xECu, 0xC0u},
1137:Generated_Source\PSoC5/cyfitter_cfg.c **** 			{0xEEu, 0xC0u},
1138:Generated_Source\PSoC5/cyfitter_cfg.c **** 			{0x00u, 0x01u},
1139:Generated_Source\PSoC5/cyfitter_cfg.c **** 			{0x03u, 0x20u},
1140:Generated_Source\PSoC5/cyfitter_cfg.c **** 			{0x04u, 0x40u},
1141:Generated_Source\PSoC5/cyfitter_cfg.c **** 			{0x05u, 0x28u},
1142:Generated_Source\PSoC5/cyfitter_cfg.c **** 			{0x07u, 0x10u},
1143:Generated_Source\PSoC5/cyfitter_cfg.c **** 			{0x0Au, 0x04u},
1144:Generated_Source\PSoC5/cyfitter_cfg.c **** 			{0x0Bu, 0x20u},
1145:Generated_Source\PSoC5/cyfitter_cfg.c **** 			{0x0Fu, 0x88u},
1146:Generated_Source\PSoC5/cyfitter_cfg.c **** 			{0x10u, 0x20u},
1147:Generated_Source\PSoC5/cyfitter_cfg.c **** 			{0x12u, 0x08u},
1148:Generated_Source\PSoC5/cyfitter_cfg.c **** 			{0x14u, 0x40u},
1149:Generated_Source\PSoC5/cyfitter_cfg.c **** 			{0x15u, 0x04u},
1150:Generated_Source\PSoC5/cyfitter_cfg.c **** 			{0x16u, 0x10u},
1151:Generated_Source\PSoC5/cyfitter_cfg.c **** 			{0x18u, 0x01u},
1152:Generated_Source\PSoC5/cyfitter_cfg.c **** 			{0x19u, 0x02u},
1153:Generated_Source\PSoC5/cyfitter_cfg.c **** 			{0x1Au, 0x24u},
1154:Generated_Source\PSoC5/cyfitter_cfg.c **** 			{0x1Bu, 0x10u},
1155:Generated_Source\PSoC5/cyfitter_cfg.c **** 			{0x21u, 0x02u},
1156:Generated_Source\PSoC5/cyfitter_cfg.c **** 			{0x2Cu, 0x40u},
1157:Generated_Source\PSoC5/cyfitter_cfg.c **** 			{0x2Du, 0x24u},
1158:Generated_Source\PSoC5/cyfitter_cfg.c **** 			{0x2Eu, 0x20u},
1159:Generated_Source\PSoC5/cyfitter_cfg.c **** 			{0x30u, 0x08u},
1160:Generated_Source\PSoC5/cyfitter_cfg.c **** 			{0x31u, 0x02u},
1161:Generated_Source\PSoC5/cyfitter_cfg.c **** 			{0x35u, 0x88u},
1162:Generated_Source\PSoC5/cyfitter_cfg.c **** 			{0x3Cu, 0x40u},
1163:Generated_Source\PSoC5/cyfitter_cfg.c **** 			{0x3Fu, 0x08u},
ARM GAS  C:\Users\aupen\AppData\Local\Temp\ccogqXvD.s 			page 23


1164:Generated_Source\PSoC5/cyfitter_cfg.c **** 			{0x40u, 0x01u},
1165:Generated_Source\PSoC5/cyfitter_cfg.c **** 			{0x48u, 0x28u},
1166:Generated_Source\PSoC5/cyfitter_cfg.c **** 			{0x4Fu, 0x20u},
1167:Generated_Source\PSoC5/cyfitter_cfg.c **** 			{0x50u, 0x08u},
1168:Generated_Source\PSoC5/cyfitter_cfg.c **** 			{0x53u, 0x10u},
1169:Generated_Source\PSoC5/cyfitter_cfg.c **** 			{0x57u, 0x20u},
1170:Generated_Source\PSoC5/cyfitter_cfg.c **** 			{0x58u, 0x80u},
1171:Generated_Source\PSoC5/cyfitter_cfg.c **** 			{0x5Fu, 0x80u},
1172:Generated_Source\PSoC5/cyfitter_cfg.c **** 			{0x67u, 0x01u},
1173:Generated_Source\PSoC5/cyfitter_cfg.c **** 			{0x69u, 0x28u},
1174:Generated_Source\PSoC5/cyfitter_cfg.c **** 			{0x6Au, 0x01u},
1175:Generated_Source\PSoC5/cyfitter_cfg.c **** 			{0x6Bu, 0x01u},
1176:Generated_Source\PSoC5/cyfitter_cfg.c **** 			{0x83u, 0x01u},
1177:Generated_Source\PSoC5/cyfitter_cfg.c **** 			{0x87u, 0x01u},
1178:Generated_Source\PSoC5/cyfitter_cfg.c **** 			{0x8Fu, 0x10u},
1179:Generated_Source\PSoC5/cyfitter_cfg.c **** 			{0x90u, 0x40u},
1180:Generated_Source\PSoC5/cyfitter_cfg.c **** 			{0x96u, 0x20u},
1181:Generated_Source\PSoC5/cyfitter_cfg.c **** 			{0x98u, 0x40u},
1182:Generated_Source\PSoC5/cyfitter_cfg.c **** 			{0x9Au, 0x30u},
1183:Generated_Source\PSoC5/cyfitter_cfg.c **** 			{0x9Bu, 0x80u},
1184:Generated_Source\PSoC5/cyfitter_cfg.c **** 			{0xA2u, 0x08u},
1185:Generated_Source\PSoC5/cyfitter_cfg.c **** 			{0xA3u, 0x04u},
1186:Generated_Source\PSoC5/cyfitter_cfg.c **** 			{0xA9u, 0x80u},
1187:Generated_Source\PSoC5/cyfitter_cfg.c **** 			{0xB0u, 0x40u},
1188:Generated_Source\PSoC5/cyfitter_cfg.c **** 			{0xB4u, 0x40u},
1189:Generated_Source\PSoC5/cyfitter_cfg.c **** 			{0xC0u, 0xECu},
1190:Generated_Source\PSoC5/cyfitter_cfg.c **** 			{0xC2u, 0x56u},
1191:Generated_Source\PSoC5/cyfitter_cfg.c **** 			{0xC4u, 0x36u},
1192:Generated_Source\PSoC5/cyfitter_cfg.c **** 			{0xCAu, 0xE0u},
1193:Generated_Source\PSoC5/cyfitter_cfg.c **** 			{0xCCu, 0x53u},
1194:Generated_Source\PSoC5/cyfitter_cfg.c **** 			{0xCEu, 0x50u},
1195:Generated_Source\PSoC5/cyfitter_cfg.c **** 			{0xD0u, 0x08u},
1196:Generated_Source\PSoC5/cyfitter_cfg.c **** 			{0xD2u, 0x24u},
1197:Generated_Source\PSoC5/cyfitter_cfg.c **** 			{0xD6u, 0x18u},
1198:Generated_Source\PSoC5/cyfitter_cfg.c **** 			{0xD8u, 0x10u},
1199:Generated_Source\PSoC5/cyfitter_cfg.c **** 			{0xE0u, 0x02u},
1200:Generated_Source\PSoC5/cyfitter_cfg.c **** 			{0xE2u, 0x08u},
1201:Generated_Source\PSoC5/cyfitter_cfg.c **** 			{0xE4u, 0x40u},
1202:Generated_Source\PSoC5/cyfitter_cfg.c **** 			{0xE8u, 0xD0u},
1203:Generated_Source\PSoC5/cyfitter_cfg.c **** 			{0x89u, 0x04u},
1204:Generated_Source\PSoC5/cyfitter_cfg.c **** 			{0x91u, 0x08u},
1205:Generated_Source\PSoC5/cyfitter_cfg.c **** 			{0xADu, 0x02u},
1206:Generated_Source\PSoC5/cyfitter_cfg.c **** 			{0xB0u, 0x80u},
1207:Generated_Source\PSoC5/cyfitter_cfg.c **** 			{0xB1u, 0x10u},
1208:Generated_Source\PSoC5/cyfitter_cfg.c **** 			{0xB2u, 0x01u},
1209:Generated_Source\PSoC5/cyfitter_cfg.c **** 			{0xB5u, 0x80u},
1210:Generated_Source\PSoC5/cyfitter_cfg.c **** 			{0xB7u, 0x40u},
1211:Generated_Source\PSoC5/cyfitter_cfg.c **** 			{0xE8u, 0x11u},
1212:Generated_Source\PSoC5/cyfitter_cfg.c **** 			{0xECu, 0x48u},
1213:Generated_Source\PSoC5/cyfitter_cfg.c **** 			{0x13u, 0x04u},
1214:Generated_Source\PSoC5/cyfitter_cfg.c **** 			{0x16u, 0x80u},
1215:Generated_Source\PSoC5/cyfitter_cfg.c **** 			{0x30u, 0x02u},
1216:Generated_Source\PSoC5/cyfitter_cfg.c **** 			{0x33u, 0x80u},
1217:Generated_Source\PSoC5/cyfitter_cfg.c **** 			{0x34u, 0x08u},
1218:Generated_Source\PSoC5/cyfitter_cfg.c **** 			{0x36u, 0x40u},
1219:Generated_Source\PSoC5/cyfitter_cfg.c **** 			{0x38u, 0x08u},
1220:Generated_Source\PSoC5/cyfitter_cfg.c **** 			{0x3Eu, 0x80u},
ARM GAS  C:\Users\aupen\AppData\Local\Temp\ccogqXvD.s 			page 24


1221:Generated_Source\PSoC5/cyfitter_cfg.c **** 			{0x80u, 0x02u},
1222:Generated_Source\PSoC5/cyfitter_cfg.c **** 			{0xC4u, 0x30u},
1223:Generated_Source\PSoC5/cyfitter_cfg.c **** 			{0xCCu, 0xF0u},
1224:Generated_Source\PSoC5/cyfitter_cfg.c **** 			{0xCEu, 0x60u},
1225:Generated_Source\PSoC5/cyfitter_cfg.c **** 			{0xE2u, 0x20u},
1226:Generated_Source\PSoC5/cyfitter_cfg.c **** 			{0x50u, 0x10u},
1227:Generated_Source\PSoC5/cyfitter_cfg.c **** 			{0x57u, 0x10u},
1228:Generated_Source\PSoC5/cyfitter_cfg.c **** 			{0x58u, 0x28u},
1229:Generated_Source\PSoC5/cyfitter_cfg.c **** 			{0x5Eu, 0x01u},
1230:Generated_Source\PSoC5/cyfitter_cfg.c **** 			{0x5Fu, 0x80u},
1231:Generated_Source\PSoC5/cyfitter_cfg.c **** 			{0x62u, 0x01u},
1232:Generated_Source\PSoC5/cyfitter_cfg.c **** 			{0x64u, 0x20u},
1233:Generated_Source\PSoC5/cyfitter_cfg.c **** 			{0x77u, 0x04u},
1234:Generated_Source\PSoC5/cyfitter_cfg.c **** 			{0x83u, 0x80u},
1235:Generated_Source\PSoC5/cyfitter_cfg.c **** 			{0x84u, 0x08u},
1236:Generated_Source\PSoC5/cyfitter_cfg.c **** 			{0x8Cu, 0x10u},
1237:Generated_Source\PSoC5/cyfitter_cfg.c **** 			{0x8Fu, 0x10u},
1238:Generated_Source\PSoC5/cyfitter_cfg.c **** 			{0x94u, 0x08u},
1239:Generated_Source\PSoC5/cyfitter_cfg.c **** 			{0xA6u, 0x40u},
1240:Generated_Source\PSoC5/cyfitter_cfg.c **** 			{0xACu, 0x08u},
1241:Generated_Source\PSoC5/cyfitter_cfg.c **** 			{0xAFu, 0x04u},
1242:Generated_Source\PSoC5/cyfitter_cfg.c **** 			{0xB3u, 0x80u},
1243:Generated_Source\PSoC5/cyfitter_cfg.c **** 			{0xD4u, 0xE0u},
1244:Generated_Source\PSoC5/cyfitter_cfg.c **** 			{0xD6u, 0xE0u},
1245:Generated_Source\PSoC5/cyfitter_cfg.c **** 			{0xD8u, 0xC0u},
1246:Generated_Source\PSoC5/cyfitter_cfg.c **** 			{0xDCu, 0x40u},
1247:Generated_Source\PSoC5/cyfitter_cfg.c **** 			{0xE2u, 0x80u},
1248:Generated_Source\PSoC5/cyfitter_cfg.c **** 			{0xE6u, 0x10u},
1249:Generated_Source\PSoC5/cyfitter_cfg.c **** 			{0xE8u, 0x40u},
1250:Generated_Source\PSoC5/cyfitter_cfg.c **** 			{0xEEu, 0x10u},
1251:Generated_Source\PSoC5/cyfitter_cfg.c **** 			{0x3Cu, 0x20u},
1252:Generated_Source\PSoC5/cyfitter_cfg.c **** 			{0x80u, 0x24u},
1253:Generated_Source\PSoC5/cyfitter_cfg.c **** 			{0x86u, 0x40u},
1254:Generated_Source\PSoC5/cyfitter_cfg.c **** 			{0x94u, 0x08u},
1255:Generated_Source\PSoC5/cyfitter_cfg.c **** 			{0x9Cu, 0x20u},
1256:Generated_Source\PSoC5/cyfitter_cfg.c **** 			{0x9Fu, 0x04u},
1257:Generated_Source\PSoC5/cyfitter_cfg.c **** 			{0xA6u, 0x40u},
1258:Generated_Source\PSoC5/cyfitter_cfg.c **** 			{0xAAu, 0x01u},
1259:Generated_Source\PSoC5/cyfitter_cfg.c **** 			{0xAEu, 0x01u},
1260:Generated_Source\PSoC5/cyfitter_cfg.c **** 			{0xCEu, 0x20u},
1261:Generated_Source\PSoC5/cyfitter_cfg.c **** 			{0xE6u, 0xE0u},
1262:Generated_Source\PSoC5/cyfitter_cfg.c **** 			{0xEAu, 0x30u},
1263:Generated_Source\PSoC5/cyfitter_cfg.c **** 			{0x18u, 0x10u},
1264:Generated_Source\PSoC5/cyfitter_cfg.c **** 			{0x42u, 0x80u},
1265:Generated_Source\PSoC5/cyfitter_cfg.c **** 			{0x43u, 0x04u},
1266:Generated_Source\PSoC5/cyfitter_cfg.c **** 			{0x56u, 0x80u},
1267:Generated_Source\PSoC5/cyfitter_cfg.c **** 			{0x62u, 0x01u},
1268:Generated_Source\PSoC5/cyfitter_cfg.c **** 			{0x66u, 0x01u},
1269:Generated_Source\PSoC5/cyfitter_cfg.c **** 			{0x86u, 0x80u},
1270:Generated_Source\PSoC5/cyfitter_cfg.c **** 			{0x89u, 0x20u},
1271:Generated_Source\PSoC5/cyfitter_cfg.c **** 			{0x9Fu, 0x04u},
1272:Generated_Source\PSoC5/cyfitter_cfg.c **** 			{0xA4u, 0x10u},
1273:Generated_Source\PSoC5/cyfitter_cfg.c **** 			{0xA5u, 0x80u},
1274:Generated_Source\PSoC5/cyfitter_cfg.c **** 			{0xA9u, 0x80u},
1275:Generated_Source\PSoC5/cyfitter_cfg.c **** 			{0xC6u, 0x10u},
1276:Generated_Source\PSoC5/cyfitter_cfg.c **** 			{0xD4u, 0x40u},
1277:Generated_Source\PSoC5/cyfitter_cfg.c **** 			{0xD8u, 0xC0u},
ARM GAS  C:\Users\aupen\AppData\Local\Temp\ccogqXvD.s 			page 25


1278:Generated_Source\PSoC5/cyfitter_cfg.c **** 			{0xE6u, 0x10u},
1279:Generated_Source\PSoC5/cyfitter_cfg.c **** 			{0xECu, 0x80u},
1280:Generated_Source\PSoC5/cyfitter_cfg.c **** 			{0x82u, 0x40u},
1281:Generated_Source\PSoC5/cyfitter_cfg.c **** 			{0x60u, 0x80u},
1282:Generated_Source\PSoC5/cyfitter_cfg.c **** 			{0x66u, 0x80u},
1283:Generated_Source\PSoC5/cyfitter_cfg.c **** 			{0x75u, 0x20u},
1284:Generated_Source\PSoC5/cyfitter_cfg.c **** 			{0x81u, 0x20u},
1285:Generated_Source\PSoC5/cyfitter_cfg.c **** 			{0x96u, 0x40u},
1286:Generated_Source\PSoC5/cyfitter_cfg.c **** 			{0x9Cu, 0x20u},
1287:Generated_Source\PSoC5/cyfitter_cfg.c **** 			{0xACu, 0x20u},
1288:Generated_Source\PSoC5/cyfitter_cfg.c **** 			{0xD6u, 0x01u},
1289:Generated_Source\PSoC5/cyfitter_cfg.c **** 			{0xD8u, 0x02u},
1290:Generated_Source\PSoC5/cyfitter_cfg.c **** 			{0xDCu, 0x02u},
1291:Generated_Source\PSoC5/cyfitter_cfg.c **** 			{0x02u, 0x20u},
1292:Generated_Source\PSoC5/cyfitter_cfg.c **** 			{0x05u, 0x02u},
1293:Generated_Source\PSoC5/cyfitter_cfg.c **** 			{0x1Bu, 0x08u},
1294:Generated_Source\PSoC5/cyfitter_cfg.c **** 			{0x27u, 0x80u},
1295:Generated_Source\PSoC5/cyfitter_cfg.c **** 			{0x83u, 0x08u},
1296:Generated_Source\PSoC5/cyfitter_cfg.c **** 			{0x87u, 0xC0u},
1297:Generated_Source\PSoC5/cyfitter_cfg.c **** 			{0x96u, 0x40u},
1298:Generated_Source\PSoC5/cyfitter_cfg.c **** 			{0x9Cu, 0xA0u},
1299:Generated_Source\PSoC5/cyfitter_cfg.c **** 			{0xB2u, 0x80u},
1300:Generated_Source\PSoC5/cyfitter_cfg.c **** 			{0xC0u, 0x0Cu},
1301:Generated_Source\PSoC5/cyfitter_cfg.c **** 			{0xC6u, 0x08u},
1302:Generated_Source\PSoC5/cyfitter_cfg.c **** 			{0xC8u, 0x01u},
1303:Generated_Source\PSoC5/cyfitter_cfg.c **** 			{0xECu, 0x04u},
1304:Generated_Source\PSoC5/cyfitter_cfg.c **** 			{0x08u, 0x20u},
1305:Generated_Source\PSoC5/cyfitter_cfg.c **** 			{0x0Bu, 0x40u},
1306:Generated_Source\PSoC5/cyfitter_cfg.c **** 			{0x0Eu, 0x40u},
1307:Generated_Source\PSoC5/cyfitter_cfg.c **** 			{0x44u, 0x02u},
1308:Generated_Source\PSoC5/cyfitter_cfg.c **** 			{0x96u, 0x40u},
1309:Generated_Source\PSoC5/cyfitter_cfg.c **** 			{0x97u, 0x40u},
1310:Generated_Source\PSoC5/cyfitter_cfg.c **** 			{0x98u, 0x08u},
1311:Generated_Source\PSoC5/cyfitter_cfg.c **** 			{0x9Cu, 0xA0u},
1312:Generated_Source\PSoC5/cyfitter_cfg.c **** 			{0xA2u, 0x20u},
1313:Generated_Source\PSoC5/cyfitter_cfg.c **** 			{0xB0u, 0x08u},
1314:Generated_Source\PSoC5/cyfitter_cfg.c **** 			{0xB1u, 0x02u},
1315:Generated_Source\PSoC5/cyfitter_cfg.c **** 			{0xC2u, 0x0Eu},
1316:Generated_Source\PSoC5/cyfitter_cfg.c **** 			{0xD0u, 0x04u},
1317:Generated_Source\PSoC5/cyfitter_cfg.c **** 			{0x02u, 0x02u},
1318:Generated_Source\PSoC5/cyfitter_cfg.c **** 			{0x07u, 0x40u},
1319:Generated_Source\PSoC5/cyfitter_cfg.c **** 			{0x24u, 0x08u},
1320:Generated_Source\PSoC5/cyfitter_cfg.c **** 			{0x52u, 0x80u},
1321:Generated_Source\PSoC5/cyfitter_cfg.c **** 			{0x57u, 0x08u},
1322:Generated_Source\PSoC5/cyfitter_cfg.c **** 			{0x84u, 0x10u},
1323:Generated_Source\PSoC5/cyfitter_cfg.c **** 			{0x88u, 0x80u},
1324:Generated_Source\PSoC5/cyfitter_cfg.c **** 			{0x8Fu, 0x40u},
1325:Generated_Source\PSoC5/cyfitter_cfg.c **** 			{0x9Du, 0x20u},
1326:Generated_Source\PSoC5/cyfitter_cfg.c **** 			{0x9Fu, 0x04u},
1327:Generated_Source\PSoC5/cyfitter_cfg.c **** 			{0xA2u, 0x80u},
1328:Generated_Source\PSoC5/cyfitter_cfg.c **** 			{0xA4u, 0x10u},
1329:Generated_Source\PSoC5/cyfitter_cfg.c **** 			{0xA5u, 0x80u},
1330:Generated_Source\PSoC5/cyfitter_cfg.c **** 			{0xAAu, 0x01u},
1331:Generated_Source\PSoC5/cyfitter_cfg.c **** 			{0xB4u, 0x10u},
1332:Generated_Source\PSoC5/cyfitter_cfg.c **** 			{0xC0u, 0x60u},
1333:Generated_Source\PSoC5/cyfitter_cfg.c **** 			{0xC8u, 0x20u},
1334:Generated_Source\PSoC5/cyfitter_cfg.c **** 			{0xD4u, 0x60u},
ARM GAS  C:\Users\aupen\AppData\Local\Temp\ccogqXvD.s 			page 26


1335:Generated_Source\PSoC5/cyfitter_cfg.c **** 			{0xE2u, 0x10u},
1336:Generated_Source\PSoC5/cyfitter_cfg.c **** 			{0xEAu, 0x20u},
1337:Generated_Source\PSoC5/cyfitter_cfg.c **** 			{0x05u, 0x20u},
1338:Generated_Source\PSoC5/cyfitter_cfg.c **** 			{0x08u, 0x02u},
1339:Generated_Source\PSoC5/cyfitter_cfg.c **** 			{0x09u, 0x80u},
1340:Generated_Source\PSoC5/cyfitter_cfg.c **** 			{0x0Cu, 0x80u},
1341:Generated_Source\PSoC5/cyfitter_cfg.c **** 			{0x0Eu, 0x40u},
1342:Generated_Source\PSoC5/cyfitter_cfg.c **** 			{0x17u, 0x04u},
1343:Generated_Source\PSoC5/cyfitter_cfg.c **** 			{0x50u, 0x01u},
1344:Generated_Source\PSoC5/cyfitter_cfg.c **** 			{0x53u, 0x04u},
1345:Generated_Source\PSoC5/cyfitter_cfg.c **** 			{0x56u, 0x10u},
1346:Generated_Source\PSoC5/cyfitter_cfg.c **** 			{0x80u, 0x02u},
1347:Generated_Source\PSoC5/cyfitter_cfg.c **** 			{0x82u, 0x40u},
1348:Generated_Source\PSoC5/cyfitter_cfg.c **** 			{0x86u, 0x10u},
1349:Generated_Source\PSoC5/cyfitter_cfg.c **** 			{0x8Bu, 0x04u},
1350:Generated_Source\PSoC5/cyfitter_cfg.c **** 			{0x8Cu, 0x01u},
1351:Generated_Source\PSoC5/cyfitter_cfg.c **** 			{0x9Du, 0x20u},
1352:Generated_Source\PSoC5/cyfitter_cfg.c **** 			{0x9Fu, 0x04u},
1353:Generated_Source\PSoC5/cyfitter_cfg.c **** 			{0xA4u, 0x80u},
1354:Generated_Source\PSoC5/cyfitter_cfg.c **** 			{0xA5u, 0x80u},
1355:Generated_Source\PSoC5/cyfitter_cfg.c **** 			{0xABu, 0x0Cu},
1356:Generated_Source\PSoC5/cyfitter_cfg.c **** 			{0xAEu, 0x02u},
1357:Generated_Source\PSoC5/cyfitter_cfg.c **** 			{0xB4u, 0x04u},
1358:Generated_Source\PSoC5/cyfitter_cfg.c **** 			{0xC0u, 0x80u},
1359:Generated_Source\PSoC5/cyfitter_cfg.c **** 			{0xC2u, 0xF0u},
1360:Generated_Source\PSoC5/cyfitter_cfg.c **** 			{0xC4u, 0x20u},
1361:Generated_Source\PSoC5/cyfitter_cfg.c **** 			{0xD4u, 0xE0u},
1362:Generated_Source\PSoC5/cyfitter_cfg.c **** 			{0xE0u, 0x20u},
1363:Generated_Source\PSoC5/cyfitter_cfg.c **** 			{0xE2u, 0x40u},
1364:Generated_Source\PSoC5/cyfitter_cfg.c **** 			{0xE4u, 0x80u},
1365:Generated_Source\PSoC5/cyfitter_cfg.c **** 			{0xE8u, 0xC0u},
1366:Generated_Source\PSoC5/cyfitter_cfg.c **** 			{0xEEu, 0x80u},
1367:Generated_Source\PSoC5/cyfitter_cfg.c **** 			{0x0Cu, 0x10u},
1368:Generated_Source\PSoC5/cyfitter_cfg.c **** 			{0x10u, 0x04u},
1369:Generated_Source\PSoC5/cyfitter_cfg.c **** 			{0x12u, 0x40u},
1370:Generated_Source\PSoC5/cyfitter_cfg.c **** 			{0x16u, 0x20u},
1371:Generated_Source\PSoC5/cyfitter_cfg.c **** 			{0x58u, 0x01u},
1372:Generated_Source\PSoC5/cyfitter_cfg.c **** 			{0x59u, 0x40u},
1373:Generated_Source\PSoC5/cyfitter_cfg.c **** 			{0x65u, 0x40u},
1374:Generated_Source\PSoC5/cyfitter_cfg.c **** 			{0x66u, 0x10u},
1375:Generated_Source\PSoC5/cyfitter_cfg.c **** 			{0x6Bu, 0x20u},
1376:Generated_Source\PSoC5/cyfitter_cfg.c **** 			{0x72u, 0x20u},
1377:Generated_Source\PSoC5/cyfitter_cfg.c **** 			{0x76u, 0x40u},
1378:Generated_Source\PSoC5/cyfitter_cfg.c **** 			{0x78u, 0x08u},
1379:Generated_Source\PSoC5/cyfitter_cfg.c **** 			{0x7Eu, 0x20u},
1380:Generated_Source\PSoC5/cyfitter_cfg.c **** 			{0x84u, 0x05u},
1381:Generated_Source\PSoC5/cyfitter_cfg.c **** 			{0x98u, 0x08u},
1382:Generated_Source\PSoC5/cyfitter_cfg.c **** 			{0x9Cu, 0x02u},
1383:Generated_Source\PSoC5/cyfitter_cfg.c **** 			{0xA2u, 0x20u},
1384:Generated_Source\PSoC5/cyfitter_cfg.c **** 			{0xB4u, 0x80u},
1385:Generated_Source\PSoC5/cyfitter_cfg.c **** 			{0xC2u, 0x01u},
1386:Generated_Source\PSoC5/cyfitter_cfg.c **** 			{0xC4u, 0x0Eu},
1387:Generated_Source\PSoC5/cyfitter_cfg.c **** 			{0xD4u, 0x01u},
1388:Generated_Source\PSoC5/cyfitter_cfg.c **** 			{0xD6u, 0x03u},
1389:Generated_Source\PSoC5/cyfitter_cfg.c **** 			{0xD8u, 0x01u},
1390:Generated_Source\PSoC5/cyfitter_cfg.c **** 			{0xDAu, 0x02u},
1391:Generated_Source\PSoC5/cyfitter_cfg.c **** 			{0xDCu, 0x01u},
ARM GAS  C:\Users\aupen\AppData\Local\Temp\ccogqXvD.s 			page 27


1392:Generated_Source\PSoC5/cyfitter_cfg.c **** 			{0xDEu, 0x07u},
1393:Generated_Source\PSoC5/cyfitter_cfg.c **** 			{0xE8u, 0x08u},
1394:Generated_Source\PSoC5/cyfitter_cfg.c **** 			{0x76u, 0x40u},
1395:Generated_Source\PSoC5/cyfitter_cfg.c **** 			{0x7Bu, 0x02u},
1396:Generated_Source\PSoC5/cyfitter_cfg.c **** 			{0x8Au, 0x40u},
1397:Generated_Source\PSoC5/cyfitter_cfg.c **** 			{0xA3u, 0x02u},
1398:Generated_Source\PSoC5/cyfitter_cfg.c **** 			{0xABu, 0x20u},
1399:Generated_Source\PSoC5/cyfitter_cfg.c **** 			{0xADu, 0x40u},
1400:Generated_Source\PSoC5/cyfitter_cfg.c **** 			{0xB0u, 0x10u},
1401:Generated_Source\PSoC5/cyfitter_cfg.c **** 			{0xB2u, 0x10u},
1402:Generated_Source\PSoC5/cyfitter_cfg.c **** 			{0xB3u, 0x02u},
1403:Generated_Source\PSoC5/cyfitter_cfg.c **** 			{0xB4u, 0x02u},
1404:Generated_Source\PSoC5/cyfitter_cfg.c **** 			{0xDCu, 0x01u},
1405:Generated_Source\PSoC5/cyfitter_cfg.c **** 			{0xDEu, 0x04u},
1406:Generated_Source\PSoC5/cyfitter_cfg.c **** 			{0xE4u, 0x01u},
1407:Generated_Source\PSoC5/cyfitter_cfg.c **** 			{0xE8u, 0x08u},
1408:Generated_Source\PSoC5/cyfitter_cfg.c **** 			{0xEAu, 0x04u},
1409:Generated_Source\PSoC5/cyfitter_cfg.c **** 			{0xECu, 0x05u},
1410:Generated_Source\PSoC5/cyfitter_cfg.c **** 			{0x00u, 0x05u},
1411:Generated_Source\PSoC5/cyfitter_cfg.c **** 			{0x01u, 0x01u},
1412:Generated_Source\PSoC5/cyfitter_cfg.c **** 			{0x08u, 0x05u},
1413:Generated_Source\PSoC5/cyfitter_cfg.c **** 			{0x0Au, 0x01u},
1414:Generated_Source\PSoC5/cyfitter_cfg.c **** 			{0x0Bu, 0x01u},
1415:Generated_Source\PSoC5/cyfitter_cfg.c **** 			{0x10u, 0x05u},
1416:Generated_Source\PSoC5/cyfitter_cfg.c **** 			{0x11u, 0x01u},
1417:Generated_Source\PSoC5/cyfitter_cfg.c **** 			{0x1Au, 0x01u},
1418:Generated_Source\PSoC5/cyfitter_cfg.c **** 			{0x1Bu, 0x01u},
1419:Generated_Source\PSoC5/cyfitter_cfg.c **** 			{0x1Cu, 0x05u},
1420:Generated_Source\PSoC5/cyfitter_cfg.c **** 			{0x1Du, 0x01u},
1421:Generated_Source\PSoC5/cyfitter_cfg.c **** 			{0x00u, 0xABu},
1422:Generated_Source\PSoC5/cyfitter_cfg.c **** 			{0x03u, 0xC0u},
1423:Generated_Source\PSoC5/cyfitter_cfg.c **** 			{0x10u, 0x0Au},
1424:Generated_Source\PSoC5/cyfitter_cfg.c **** 		};
1425:Generated_Source\PSoC5/cyfitter_cfg.c **** 
1426:Generated_Source\PSoC5/cyfitter_cfg.c **** 
1427:Generated_Source\PSoC5/cyfitter_cfg.c **** 
1428:Generated_Source\PSoC5/cyfitter_cfg.c **** 		CYPACKED typedef struct {
1429:Generated_Source\PSoC5/cyfitter_cfg.c **** 			void CYFAR *address;
1430:Generated_Source\PSoC5/cyfitter_cfg.c **** 			uint16 size;
1431:Generated_Source\PSoC5/cyfitter_cfg.c **** 		} CYPACKED_ATTR cfg_memset_t;
1432:Generated_Source\PSoC5/cyfitter_cfg.c **** 
1433:Generated_Source\PSoC5/cyfitter_cfg.c **** 
1434:Generated_Source\PSoC5/cyfitter_cfg.c **** 		CYPACKED typedef struct {
1435:Generated_Source\PSoC5/cyfitter_cfg.c **** 			void CYFAR *dest;
1436:Generated_Source\PSoC5/cyfitter_cfg.c **** 			const void CYCODE *src;
1437:Generated_Source\PSoC5/cyfitter_cfg.c **** 			uint16 size;
1438:Generated_Source\PSoC5/cyfitter_cfg.c **** 		} CYPACKED_ATTR cfg_memcpy_t;
1439:Generated_Source\PSoC5/cyfitter_cfg.c **** 
1440:Generated_Source\PSoC5/cyfitter_cfg.c **** 		static const cfg_memset_t CYCODE cfg_memset_list[] = {
1441:Generated_Source\PSoC5/cyfitter_cfg.c **** 			/* address, size */
1442:Generated_Source\PSoC5/cyfitter_cfg.c **** 			{(void CYFAR *)(CYREG_I2C_XCFG), 25u},
1443:Generated_Source\PSoC5/cyfitter_cfg.c **** 			{(void CYFAR *)(CYREG_TMR0_CFG0), 24u},
1444:Generated_Source\PSoC5/cyfitter_cfg.c **** 			{(void CYFAR *)(CYREG_PRT4_DR), 48u},
1445:Generated_Source\PSoC5/cyfitter_cfg.c **** 			{(void CYFAR *)(CYDEV_UCFG_B0_P0_U0_BASE), 4096u},
1446:Generated_Source\PSoC5/cyfitter_cfg.c **** 			{(void CYFAR *)(CYDEV_UCFG_B1_P2_U0_BASE), 2048u},
1447:Generated_Source\PSoC5/cyfitter_cfg.c **** 			{(void CYFAR *)(CYDEV_UCFG_DSI0_BASE), 2560u},
1448:Generated_Source\PSoC5/cyfitter_cfg.c **** 			{(void CYFAR *)(CYDEV_UCFG_DSI12_BASE), 512u},
ARM GAS  C:\Users\aupen\AppData\Local\Temp\ccogqXvD.s 			page 28


1449:Generated_Source\PSoC5/cyfitter_cfg.c **** 			{(void CYFAR *)(CYREG_BCTL0_MDCLK_EN), 32u},
1450:Generated_Source\PSoC5/cyfitter_cfg.c **** 		};
1451:Generated_Source\PSoC5/cyfitter_cfg.c **** 
1452:Generated_Source\PSoC5/cyfitter_cfg.c **** 		/* IOPORT_0 Address: CYDEV_PRTDSI_PRT0_BASE Size (bytes): 7 */
1453:Generated_Source\PSoC5/cyfitter_cfg.c **** 		static const uint8 CYCODE BS_IOPORT_0_VAL[] = {
1454:Generated_Source\PSoC5/cyfitter_cfg.c **** 			0x9Au, 0xACu, 0x78u, 0x78u, 0x00u, 0x00u, 0x00u};
1455:Generated_Source\PSoC5/cyfitter_cfg.c **** 
1456:Generated_Source\PSoC5/cyfitter_cfg.c **** 		/* IOPORT_2 Address: CYDEV_PRTDSI_PRT2_BASE Size (bytes): 7 */
1457:Generated_Source\PSoC5/cyfitter_cfg.c **** 		static const uint8 CYCODE BS_IOPORT_2_VAL[] = {
1458:Generated_Source\PSoC5/cyfitter_cfg.c **** 			0x20u, 0x40u, 0x40u, 0x40u, 0x00u, 0x00u, 0x00u};
1459:Generated_Source\PSoC5/cyfitter_cfg.c **** 
1460:Generated_Source\PSoC5/cyfitter_cfg.c **** 		/* IOPORT_7 Address: CYDEV_PRTDSI_PRT12_BASE Size (bytes): 6 */
1461:Generated_Source\PSoC5/cyfitter_cfg.c **** 		static const uint8 CYCODE BS_IOPORT_7_VAL[] = {
1462:Generated_Source\PSoC5/cyfitter_cfg.c **** 			0x40u, 0xC0u, 0xC0u, 0xC0u, 0x00u, 0x00u};
1463:Generated_Source\PSoC5/cyfitter_cfg.c **** 
1464:Generated_Source\PSoC5/cyfitter_cfg.c **** 		static const cfg_memcpy_t CYCODE cfg_memcpy_list [] = {
1465:Generated_Source\PSoC5/cyfitter_cfg.c **** 			/* dest, src, size */
1466:Generated_Source\PSoC5/cyfitter_cfg.c **** 			{(void CYFAR *)(CYDEV_PRTDSI_PRT0_BASE), BS_IOPORT_0_VAL, 7u},
1467:Generated_Source\PSoC5/cyfitter_cfg.c **** 			{(void CYFAR *)(CYDEV_PRTDSI_PRT2_BASE), BS_IOPORT_2_VAL, 7u},
1468:Generated_Source\PSoC5/cyfitter_cfg.c **** 			{(void CYFAR *)(CYDEV_PRTDSI_PRT12_BASE), BS_IOPORT_7_VAL, 6u},
1469:Generated_Source\PSoC5/cyfitter_cfg.c **** 		};
1470:Generated_Source\PSoC5/cyfitter_cfg.c **** 
1471:Generated_Source\PSoC5/cyfitter_cfg.c **** 		uint8 CYDATA i;
1472:Generated_Source\PSoC5/cyfitter_cfg.c **** 
1473:Generated_Source\PSoC5/cyfitter_cfg.c **** 		/* Zero out critical memory blocks before beginning configuration */
1474:Generated_Source\PSoC5/cyfitter_cfg.c **** 		for (i = 0u; i < (sizeof(cfg_memset_list)/sizeof(cfg_memset_list[0])); i++)
1475:Generated_Source\PSoC5/cyfitter_cfg.c **** 		{
1476:Generated_Source\PSoC5/cyfitter_cfg.c **** 			const cfg_memset_t CYCODE * CYDATA ms = &cfg_memset_list[i];
1477:Generated_Source\PSoC5/cyfitter_cfg.c **** 			CYMEMZERO(ms->address, (size_t)(uint32)(ms->size));
  92              		.loc 1 1477 0
  93 0006 944E     		ldr	r6, .L24
  94              	.LBE63:
  95              	.LBE62:
 404:Generated_Source\PSoC5/cyfitter_cfg.c **** #endif
  96              		.loc 1 404 0
  97 0008 0024     		movs	r4, #0
  98              	.LBB79:
  99              	.LBB66:
 100              		.loc 1 1477 0
 101 000a 0627     		movs	r7, #6
 102              	.LVL5:
 103              	.L8:
 104              		.loc 1 1477 0 is_stmt 0 discriminator 3
 105 000c 07FB0463 		mla	r3, r7, r4, r6
 106              	.LBB64:
 107              	.LBB65:
  79:Generated_Source\PSoC5/cyfitter_cfg.c **** }
 108              		.loc 1 79 0 is_stmt 1 discriminator 3
 109 0010 0021     		movs	r1, #0
 110 0012 9A88     		ldrh	r2, [r3, #4]	@ unaligned
 111 0014 1868     		ldr	r0, [r3]	@ unaligned
 112 0016 0134     		adds	r4, r4, #1
 113              	.LVL6:
 114 0018 FFF7FEFF 		bl	memset
 115              	.LVL7:
 116              	.LBE65:
 117              	.LBE64:
ARM GAS  C:\Users\aupen\AppData\Local\Temp\ccogqXvD.s 			page 29


 118              	.LBE66:
1474:Generated_Source\PSoC5/cyfitter_cfg.c **** 		{
 119              		.loc 1 1474 0 discriminator 3
 120 001c 082C     		cmp	r4, #8
 121 001e 8E4D     		ldr	r5, .L24
 122 0020 F4D1     		bne	.L8
 123 0022 0024     		movs	r4, #0
 124              	.LVL8:
 125              	.LBB67:
1478:Generated_Source\PSoC5/cyfitter_cfg.c **** 		}
1479:Generated_Source\PSoC5/cyfitter_cfg.c **** 
1480:Generated_Source\PSoC5/cyfitter_cfg.c **** 		/* Copy device configuration data into registers */
1481:Generated_Source\PSoC5/cyfitter_cfg.c **** 		for (i = 0u; i < (sizeof(cfg_memcpy_list)/sizeof(cfg_memcpy_list[0])); i++)
1482:Generated_Source\PSoC5/cyfitter_cfg.c **** 		{
1483:Generated_Source\PSoC5/cyfitter_cfg.c **** 			const cfg_memcpy_t CYCODE * CYDATA mc = &cfg_memcpy_list[i];
1484:Generated_Source\PSoC5/cyfitter_cfg.c **** 			void * CYDATA destPtr = mc->dest;
 126              		.loc 1 1484 0 discriminator 3
 127 0024 0A26     		movs	r6, #10
 128              	.L9:
 129              	.LVL9:
 130 0026 06FB0452 		mla	r2, r6, r4, r5
 131 002a 1346     		mov	r3, r2
 132 002c 53F8300F 		ldr	r0, [r3, #48]!	@ unaligned
 133              	.LBB68:
 134              	.LBB69:
  93:Generated_Source\PSoC5/cyfitter_cfg.c **** }
 135              		.loc 1 93 0 discriminator 3
 136 0030 128F     		ldrh	r2, [r2, #56]	@ unaligned
 137 0032 5968     		ldr	r1, [r3, #4]	@ unaligned
 138 0034 0134     		adds	r4, r4, #1
 139              	.LVL10:
 140 0036 FFF7FEFF 		bl	memcpy
 141              	.LVL11:
 142              	.LBE69:
 143              	.LBE68:
 144              	.LBE67:
1481:Generated_Source\PSoC5/cyfitter_cfg.c **** 		{
 145              		.loc 1 1481 0 discriminator 3
 146 003a 032C     		cmp	r4, #3
 147 003c F3D1     		bne	.L9
 148 003e 0022     		movs	r2, #0
 149 0040 1146     		mov	r1, r2
 150              	.LBB70:
 151              	.LBB71:
 152              	.LBB72:
 184:Generated_Source\PSoC5/cyfitter_cfg.c **** 		uint8 count = (uint8)baseAddr;
 153              		.loc 1 184 0
 154 0042 864C     		ldr	r4, .L24+4
 155              	.LVL12:
 156 0044 04F19C05 		add	r5, r4, #156
 157              	.L12:
 158              	.LVL13:
 159 0048 54F82100 		ldr	r0, [r4, r1, lsl #2]
 160              	.LVL14:
 161 004c 05EB4203 		add	r3, r5, r2, lsl #1
 186:Generated_Source\PSoC5/cyfitter_cfg.c **** 		while (count != 0u)
 162              		.loc 1 186 0
ARM GAS  C:\Users\aupen\AppData\Local\Temp\ccogqXvD.s 			page 30


 163 0050 20F0FF06 		bic	r6, r0, #255
 164              	.LVL15:
 165 0054 C0B2     		uxtb	r0, r0
 166 0056 0244     		add	r2, r2, r0
 167              	.LVL16:
 168 0058 05EB4200 		add	r0, r5, r2, lsl #1
 169              	.LVL17:
 170 005c 0133     		adds	r3, r3, #1
 171 005e 0330     		adds	r0, r0, #3
 172              	.LVL18:
 173              	.L10:
 174 0060 0233     		adds	r3, r3, #2
 187:Generated_Source\PSoC5/cyfitter_cfg.c **** 		{
 175              		.loc 1 187 0
 176 0062 8342     		cmp	r3, r0
 177 0064 06D0     		beq	.L23
 189:Generated_Source\PSoC5/cyfitter_cfg.c **** 			j++;
 178              		.loc 1 189 0
 179 0066 13F8037C 		ldrb	r7, [r3, #-3]	@ zero_extendqisi2
 180 006a 13F802EC 		ldrb	lr, [r3, #-2]	@ zero_extendqisi2
 181 006e 07F806E0 		strb	lr, [r7, r6]
 182 0072 F5E7     		b	.L10
 183              	.L23:
 184              	.LBE72:
 182:Generated_Source\PSoC5/cyfitter_cfg.c **** 	{
 185              		.loc 1 182 0
 186 0074 0131     		adds	r1, r1, #1
 187              	.LVL19:
 188 0076 2729     		cmp	r1, #39
 189 0078 E6D1     		bne	.L12
 190              	.LVL20:
 191              	.LBE71:
 192              	.LBE70:
 193              	.LBB73:
 194              	.LBB74:
  79:Generated_Source\PSoC5/cyfitter_cfg.c **** }
 195              		.loc 1 79 0
 196 007a 794B     		ldr	r3, .L24+8
 197 007c 0027     		movs	r7, #0
 198 007e 1F60     		str	r7, [r3]
 199              	.LVL21:
 200              	.LBE74:
 201              	.LBE73:
 202              	.LBB75:
 203              	.LBB76:
  93:Generated_Source\PSoC5/cyfitter_cfg.c **** }
 204              		.loc 1 93 0
 205 0080 784B     		ldr	r3, .L24+12
 206 0082 794A     		ldr	r2, .L24+16
 207 0084 1E46     		mov	r6, r3
 208 0086 56F83E0B 		ldr	r0, [r6], #62	@ unaligned
 209              	.LBE76:
 210              	.LBE75:
1485:Generated_Source\PSoC5/cyfitter_cfg.c **** 			const void CYCODE * CYDATA srcPtr = mc->src;
1486:Generated_Source\PSoC5/cyfitter_cfg.c **** 			uint16 CYDATA numBytes = mc->size;
1487:Generated_Source\PSoC5/cyfitter_cfg.c **** 			CYCONFIGCPYCODE(destPtr, srcPtr, numBytes);
1488:Generated_Source\PSoC5/cyfitter_cfg.c **** 		}
ARM GAS  C:\Users\aupen\AppData\Local\Temp\ccogqXvD.s 			page 31


1489:Generated_Source\PSoC5/cyfitter_cfg.c **** 
1490:Generated_Source\PSoC5/cyfitter_cfg.c **** 		cfg_write_bytes32(cy_cfg_addr_table, cy_cfg_data_table);
1491:Generated_Source\PSoC5/cyfitter_cfg.c **** 
1492:Generated_Source\PSoC5/cyfitter_cfg.c **** 		/* Perform normal device configuration. Order is not critical for these items. */
1493:Generated_Source\PSoC5/cyfitter_cfg.c **** 		CYMEMZERO((void CYFAR *)(CYREG_PHUB_CFGMEM0_CFG0), 4u);
1494:Generated_Source\PSoC5/cyfitter_cfg.c **** 		CYCONFIGCPYCODE((void CYFAR *)(CYREG_PHUB_CFGMEM1_CFG0), (const void CYCODE *)(BS_PHUB_CFGMEM1_VA
1495:Generated_Source\PSoC5/cyfitter_cfg.c **** 
1496:Generated_Source\PSoC5/cyfitter_cfg.c **** 		/* Enable digital routing */
1497:Generated_Source\PSoC5/cyfitter_cfg.c **** 		CY_SET_XTND_REG8((void CYFAR *)CYREG_BCTL0_BANK_CTL, CY_GET_XTND_REG8((void CYFAR *)CYREG_BCTL0_B
 211              		.loc 1 1497 0
 212 008a 7849     		ldr	r1, .L24+20
 213              	.LBB78:
 214              	.LBB77:
  93:Generated_Source\PSoC5/cyfitter_cfg.c **** }
 215              		.loc 1 93 0
 216 008c 1060     		str	r0, [r2]	@ unaligned
 217              	.LVL22:
 218              	.LBE77:
 219              	.LBE78:
 220              		.loc 1 1497 0
 221 008e 0A78     		ldrb	r2, [r1]	@ zero_extendqisi2
1498:Generated_Source\PSoC5/cyfitter_cfg.c **** 		CY_SET_XTND_REG8((void CYFAR *)CYREG_BCTL1_BANK_CTL, CY_GET_XTND_REG8((void CYFAR *)CYREG_BCTL1_B
1499:Generated_Source\PSoC5/cyfitter_cfg.c **** 
1500:Generated_Source\PSoC5/cyfitter_cfg.c **** 		/* Enable UDB array */
1501:Generated_Source\PSoC5/cyfitter_cfg.c **** 		CY_SET_XTND_REG8((void CYFAR *)CYREG_PM_ACT_CFG0, CY_GET_XTND_REG8((void CYFAR *)CYREG_PM_ACT_CFG
 222              		.loc 1 1501 0
 223 0090 774C     		ldr	r4, .L24+24
1497:Generated_Source\PSoC5/cyfitter_cfg.c **** 		CY_SET_XTND_REG8((void CYFAR *)CYREG_BCTL1_BANK_CTL, CY_GET_XTND_REG8((void CYFAR *)CYREG_BCTL1_B
 224              		.loc 1 1497 0
 225 0092 42F00202 		orr	r2, r2, #2
 226 0096 0A70     		strb	r2, [r1]
1498:Generated_Source\PSoC5/cyfitter_cfg.c **** 		CY_SET_XTND_REG8((void CYFAR *)CYREG_BCTL1_BANK_CTL, CY_GET_XTND_REG8((void CYFAR *)CYREG_BCTL1_B
 227              		.loc 1 1498 0
 228 0098 0A7C     		ldrb	r2, [r1, #16]	@ zero_extendqisi2
 229              	.LBE79:
 230              	.LBB80:
 231              	.LBB81:
  93:Generated_Source\PSoC5/cyfitter_cfg.c **** }
 232              		.loc 1 93 0
 233 009a 1D46     		mov	r5, r3
 234              	.LBE81:
 235              	.LBE80:
 236              	.LBB84:
1498:Generated_Source\PSoC5/cyfitter_cfg.c **** 		CY_SET_XTND_REG8((void CYFAR *)CYREG_BCTL1_BANK_CTL, CY_GET_XTND_REG8((void CYFAR *)CYREG_BCTL1_B
 237              		.loc 1 1498 0
 238 009c 42F00202 		orr	r2, r2, #2
 239 00a0 0A74     		strb	r2, [r1, #16]
 240              		.loc 1 1501 0
 241 00a2 2278     		ldrb	r2, [r4]	@ zero_extendqisi2
1502:Generated_Source\PSoC5/cyfitter_cfg.c **** 		CY_SET_XTND_REG8((void CYFAR *)CYREG_PM_AVAIL_CR2, CY_GET_XTND_REG8((void CYFAR *)CYREG_PM_AVAIL_
 242              		.loc 1 1502 0
 243 00a4 A1F58631 		sub	r1, r1, #68608
1501:Generated_Source\PSoC5/cyfitter_cfg.c **** 		CY_SET_XTND_REG8((void CYFAR *)CYREG_PM_AVAIL_CR2, CY_GET_XTND_REG8((void CYFAR *)CYREG_PM_AVAIL_
 244              		.loc 1 1501 0
 245 00a8 42F04002 		orr	r2, r2, #64
 246 00ac 2270     		strb	r2, [r4]
 247              		.loc 1 1502 0
ARM GAS  C:\Users\aupen\AppData\Local\Temp\ccogqXvD.s 			page 32


 248 00ae 4139     		subs	r1, r1, #65
 249 00b0 0A78     		ldrb	r2, [r1]	@ zero_extendqisi2
 250              	.LBE84:
 251              	.LBB85:
 252              	.LBB86:
  93:Generated_Source\PSoC5/cyfitter_cfg.c **** }
 253              		.loc 1 93 0
 254 00b2 7048     		ldr	r0, .L24+28
 255              	.LBE86:
 256              	.LBE85:
 257              	.LBB88:
 258              		.loc 1 1502 0
 259 00b4 42F01002 		orr	r2, r2, #16
 260 00b8 0A70     		strb	r2, [r1]
 261              	.LVL23:
 262              	.LBE88:
 263              	.LBB89:
 264              	.LBB87:
  93:Generated_Source\PSoC5/cyfitter_cfg.c **** }
 265              		.loc 1 93 0
 266 00ba 1946     		mov	r1, r3
 267 00bc 51F8042F 		ldr	r2, [r1, #4]!	@ unaligned
 268 00c0 0260     		str	r2, [r0]	@ unaligned
 269 00c2 4A68     		ldr	r2, [r1, #4]	@ unaligned
 270 00c4 4260     		str	r2, [r0, #4]	@ unaligned
 271              	.LVL24:
 272              	.LBE87:
 273              	.LBE89:
 274              	.LBB90:
 275              	.LBB82:
 276 00c6 55F80C0F 		ldr	r0, [r5, #12]!	@ unaligned
 277 00ca 6B4A     		ldr	r2, .L24+32
 278 00cc 6968     		ldr	r1, [r5, #4]	@ unaligned
 279 00ce 03C2     		stmia	r2!, {r0, r1}
 280 00d0 2989     		ldrh	r1, [r5, #8]	@ unaligned
 281              	.LBE82:
 282              	.LBE90:
 283              	.LBB91:
 284              	.LBB92:
 285 00d2 1D46     		mov	r5, r3
 286 00d4 55F8160F 		ldr	r0, [r5, #22]!	@ unaligned
 287              	.LBE92:
 288              	.LBE91:
 289              	.LBB95:
 290              	.LBB83:
 291 00d8 1180     		strh	r1, [r2]	@ unaligned
 292              	.LVL25:
 293              	.LBE83:
 294              	.LBE95:
 295              	.LBB96:
 296              	.LBB93:
 297 00da 6968     		ldr	r1, [r5, #4]	@ unaligned
 298 00dc 2832     		adds	r2, r2, #40
 299 00de 03C2     		stmia	r2!, {r0, r1}
 300 00e0 2989     		ldrh	r1, [r5, #8]	@ unaligned
 301              	.LBE93:
 302              	.LBE96:
ARM GAS  C:\Users\aupen\AppData\Local\Temp\ccogqXvD.s 			page 33


 303              	.LBB97:
 304              	.LBB98:
 305 00e2 1D46     		mov	r5, r3
 306 00e4 55F8200F 		ldr	r0, [r5, #32]!	@ unaligned
 307              	.LBE98:
 308              	.LBE97:
 309              	.LBB101:
 310              	.LBB94:
 311 00e8 1180     		strh	r1, [r2]	@ unaligned
 312              	.LVL26:
 313              	.LBE94:
 314              	.LBE101:
 315              	.LBB102:
 316              	.LBB99:
 317 00ea 6968     		ldr	r1, [r5, #4]	@ unaligned
 318 00ec E83A     		subs	r2, r2, #232
 319 00ee 03C2     		stmia	r2!, {r0, r1}
 320 00f0 2989     		ldrh	r1, [r5, #8]	@ unaligned
 321              	.LBE99:
 322              	.LBE102:
 323              	.LBB103:
 324              	.LBB104:
 325 00f2 1D46     		mov	r5, r3
 326              	.LBE104:
 327              	.LBE103:
 328              	.LBB108:
 329              	.LBB100:
 330 00f4 1180     		strh	r1, [r2]	@ unaligned
 331              	.LVL27:
 332              	.LBE100:
 333              	.LBE108:
 334              	.LBB109:
 335              	.LBB105:
 336 00f6 55F82A0F 		ldr	r0, [r5, #42]!	@ unaligned
 337 00fa 0832     		adds	r2, r2, #8
 338 00fc 6968     		ldr	r1, [r5, #4]	@ unaligned
 339 00fe 03C2     		stmia	r2!, {r0, r1}
 340              	.LBE105:
 341              	.LBE109:
 342              	.LBB110:
 343              	.LBB111:
 344 0100 53F8340F 		ldr	r0, [r3, #52]!	@ unaligned
 345              	.LBE111:
 346              	.LBE110:
 347              	.LBB114:
 348              	.LBB106:
 349 0104 2989     		ldrh	r1, [r5, #8]	@ unaligned
 350              	.LBE106:
 351              	.LBE114:
 352              	.LBB115:
 353              	.LBB112:
 354 0106 0832     		adds	r2, r2, #8
 355              	.LBE112:
 356              	.LBE115:
 357              	.LBB116:
 358              	.LBB107:
 359 0108 22F8081C 		strh	r1, [r2, #-8]	@ unaligned
ARM GAS  C:\Users\aupen\AppData\Local\Temp\ccogqXvD.s 			page 34


 360              	.LVL28:
 361              	.LBE107:
 362              	.LBE116:
 363              	.LBB117:
 364              	.LBB113:
 365 010c 5968     		ldr	r1, [r3, #4]	@ unaligned
 366 010e 1B89     		ldrh	r3, [r3, #8]	@ unaligned
 367 0110 03C2     		stmia	r2!, {r0, r1}
 368 0112 1380     		strh	r3, [r2]	@ unaligned
 369              	.LVL29:
 370              	.LBE113:
 371              	.LBE117:
1503:Generated_Source\PSoC5/cyfitter_cfg.c **** 	}
1504:Generated_Source\PSoC5/cyfitter_cfg.c **** 
1505:Generated_Source\PSoC5/cyfitter_cfg.c **** 
1506:Generated_Source\PSoC5/cyfitter_cfg.c **** 	/* Perform second pass device configuration. These items must be configured in specific order afte
1507:Generated_Source\PSoC5/cyfitter_cfg.c **** 	CYCONFIGCPYCODE((void CYFAR *)(CYREG_PRT0_DM0), (const void CYCODE *)(BS_IOPINS0_0_VAL), 8u);
1508:Generated_Source\PSoC5/cyfitter_cfg.c **** 	CYCONFIGCPYCODE((void CYFAR *)(CYREG_PRT12_DR), (const void CYCODE *)(BS_IOPINS0_7_VAL), 10u);
1509:Generated_Source\PSoC5/cyfitter_cfg.c **** 	CYCONFIGCPYCODE((void CYFAR *)(CYREG_PRT15_DR), (const void CYCODE *)(BS_IOPINS0_8_VAL), 10u);
1510:Generated_Source\PSoC5/cyfitter_cfg.c **** 	CYCONFIGCPYCODE((void CYFAR *)(CYREG_PRT1_DR), (const void CYCODE *)(BS_IOPINS0_1_VAL), 10u);
1511:Generated_Source\PSoC5/cyfitter_cfg.c **** 	CYCONFIGCPYCODE((void CYFAR *)(CYREG_PRT2_DR), (const void CYCODE *)(BS_IOPINS0_2_VAL), 10u);
1512:Generated_Source\PSoC5/cyfitter_cfg.c **** 	CYCONFIGCPYCODE((void CYFAR *)(CYREG_PRT3_DR), (const void CYCODE *)(BS_IOPINS0_3_VAL), 10u);
1513:Generated_Source\PSoC5/cyfitter_cfg.c **** 	/* Switch Boost to the precision bandgap reference from its internal reference */
1514:Generated_Source\PSoC5/cyfitter_cfg.c **** 	CY_SET_REG8((void CYXDATA *)CYREG_BOOST_CR2, (CY_GET_REG8((void CYXDATA *)CYREG_BOOST_CR2) | 0x08u
 372              		.loc 1 1514 0
 373 0114 A2F61662 		subw	r2, r2, #3606
 374 0118 1378     		ldrb	r3, [r2]	@ zero_extendqisi2
 375              	.LBB118:
 376              	.LBB119:
 226:Generated_Source\PSoC5/cyfitter_cfg.c **** 	CY_SET_XTND_REG8((void CYFAR *)(CYREG_CLKDIST_DCFG1_CFG0 + 0x2u), 0x18u);
 377              		.loc 1 226 0
 378 011a 5849     		ldr	r1, .L24+36
 379              	.LBE119:
 380              	.LBE118:
 381              		.loc 1 1514 0
 382 011c 43F00803 		orr	r3, r3, #8
 383 0120 1370     		strb	r3, [r2]
1515:Generated_Source\PSoC5/cyfitter_cfg.c **** 
1516:Generated_Source\PSoC5/cyfitter_cfg.c **** 	/* Set Flash Cycles based on max possible frequency in case a glitch occurs during ClockSetup(). *
1517:Generated_Source\PSoC5/cyfitter_cfg.c **** 	CY_SET_XTND_REG8((void CYFAR *)(CYREG_CACHE_CC_CTL), (((CYDEV_INSTRUCT_CACHE_ENABLED) != 0) ? 0x01
 384              		.loc 1 1517 0
 385 0122 574B     		ldr	r3, .L24+40
 386 0124 0122     		movs	r2, #1
 387 0126 1A70     		strb	r2, [r3]
 388              	.LBB127:
 389              	.LBB124:
 224:Generated_Source\PSoC5/cyfitter_cfg.c **** 	CY_SET_XTND_REG8((void CYFAR *)(CYREG_CLKDIST_DCFG0_CFG0 + 0x2u), 0x18u);
 390              		.loc 1 224 0
 391 0128 2F22     		movs	r2, #47
 392 012a A3F5F063 		sub	r3, r3, #1920
 393 012e 1A80     		strh	r2, [r3]	@ movhi
 225:Generated_Source\PSoC5/cyfitter_cfg.c **** 	CY_SET_XTND_REG16((void CYFAR *)(CYREG_CLKDIST_DCFG1_CFG0), 0x005Fu);
 394              		.loc 1 225 0
 395 0130 544A     		ldr	r2, .L24+44
 396 0132 1823     		movs	r3, #24
 397 0134 1370     		strb	r3, [r2]
 226:Generated_Source\PSoC5/cyfitter_cfg.c **** 	CY_SET_XTND_REG8((void CYFAR *)(CYREG_CLKDIST_DCFG1_CFG0 + 0x2u), 0x18u);
ARM GAS  C:\Users\aupen\AppData\Local\Temp\ccogqXvD.s 			page 35


 398              		.loc 1 226 0
 399 0136 5F22     		movs	r2, #95
 400 0138 0A80     		strh	r2, [r1]	@ movhi
 227:Generated_Source\PSoC5/cyfitter_cfg.c **** 	CY_SET_XTND_REG16((void CYFAR *)(CYREG_CLKDIST_DCFG2_CFG0), 0x005Fu);
 401              		.loc 1 227 0
 402 013a 8B70     		strb	r3, [r1, #2]
 228:Generated_Source\PSoC5/cyfitter_cfg.c **** 	CY_SET_XTND_REG8((void CYFAR *)(CYREG_CLKDIST_DCFG2_CFG0 + 0x2u), 0x18u);
 403              		.loc 1 228 0
 404 013c 8A80     		strh	r2, [r1, #4]	@ movhi
 229:Generated_Source\PSoC5/cyfitter_cfg.c **** 	CY_SET_XTND_REG16((void CYFAR *)(CYREG_CLKDIST_DCFG3_CFG0), 0x5DBFu);
 405              		.loc 1 229 0
 406 013e 524A     		ldr	r2, .L24+48
 407              	.LBB120:
 408              	.LBB121:
  93:Generated_Source\PSoC5/cyfitter_cfg.c **** }
 409              		.loc 1 93 0
 410 0140 3068     		ldr	r0, [r6]	@ unaligned
 411              	.LBE121:
 412              	.LBE120:
 229:Generated_Source\PSoC5/cyfitter_cfg.c **** 	CY_SET_XTND_REG16((void CYFAR *)(CYREG_CLKDIST_DCFG3_CFG0), 0x5DBFu);
 413              		.loc 1 229 0
 414 0142 1370     		strb	r3, [r2]
 230:Generated_Source\PSoC5/cyfitter_cfg.c **** 	CY_SET_XTND_REG8((void CYFAR *)(CYREG_CLKDIST_DCFG3_CFG0 + 0x2u), 0x19u);
 415              		.loc 1 230 0
 416 0144 45F6BF52 		movw	r2, #23999
 417 0148 504B     		ldr	r3, .L24+52
 231:Generated_Source\PSoC5/cyfitter_cfg.c **** 
 418              		.loc 1 231 0
 419 014a 1925     		movs	r5, #25
 230:Generated_Source\PSoC5/cyfitter_cfg.c **** 	CY_SET_XTND_REG8((void CYFAR *)(CYREG_CLKDIST_DCFG3_CFG0 + 0x2u), 0x19u);
 420              		.loc 1 230 0
 421 014c 1A80     		strh	r2, [r3]	@ movhi
 237:Generated_Source\PSoC5/cyfitter_cfg.c **** 
 422              		.loc 1 237 0
 423 014e 0622     		movs	r2, #6
 231:Generated_Source\PSoC5/cyfitter_cfg.c **** 
 424              		.loc 1 231 0
 425 0150 9D70     		strb	r5, [r3, #2]
 426              	.LVL30:
 427              	.LBB123:
 428              	.LBB122:
  93:Generated_Source\PSoC5/cyfitter_cfg.c **** }
 429              		.loc 1 93 0
 430 0152 5867     		str	r0, [r3, #116]	@ unaligned
 431              	.LVL31:
 432              	.LBE122:
 433              	.LBE123:
 237:Generated_Source\PSoC5/cyfitter_cfg.c **** 
 434              		.loc 1 237 0
 435 0154 83F87422 		strb	r2, [r3, #628]
 240:Generated_Source\PSoC5/cyfitter_cfg.c **** 	CY_SET_XTND_REG8((void CYFAR *)(CYREG_IMO_TR1), (CY_GET_XTND_REG8((void CYFAR *)CYREG_FLSHID_CUST_
 436              		.loc 1 240 0
 437 0158 5222     		movs	r2, #82
 438 015a 03F5BA73 		add	r3, r3, #372
 439 015e 1A70     		strb	r2, [r3]
 241:Generated_Source\PSoC5/cyfitter_cfg.c **** 
 440              		.loc 1 241 0
ARM GAS  C:\Users\aupen\AppData\Local\Temp\ccogqXvD.s 			page 36


 441 0160 4B4B     		ldr	r3, .L24+56
 442 0162 4C4A     		ldr	r2, .L24+60
 443 0164 1B78     		ldrb	r3, [r3]	@ zero_extendqisi2
 250:Generated_Source\PSoC5/cyfitter_cfg.c **** 		CyDelayCycles(10u * 48u); /* Delay 10us based on 48MHz clock */
 444              		.loc 1 250 0
 445 0166 4C4E     		ldr	r6, .L24+64
 241:Generated_Source\PSoC5/cyfitter_cfg.c **** 
 446              		.loc 1 241 0
 447 0168 DBB2     		uxtb	r3, r3
 448 016a 1370     		strb	r3, [r2]
 244:Generated_Source\PSoC5/cyfitter_cfg.c **** 	CY_SET_XTND_REG16((void CYFAR *)(CYREG_FASTCLK_PLL_CFG0), 0x1251u);
 449              		.loc 1 244 0
 450 016c 4B4B     		ldr	r3, .L24+68
 451 016e 4FF4E262 		mov	r2, #1808
 452 0172 1A80     		strh	r2, [r3]	@ movhi
 245:Generated_Source\PSoC5/cyfitter_cfg.c **** 	/* Wait up to 250us for the PLL to lock */
 453              		.loc 1 245 0
 454 0174 41F25122 		movw	r2, #4689
 455 0178 23F8022C 		strh	r2, [r3, #-2]	@ movhi
 456              	.LVL32:
 457              	.L14:
 250:Generated_Source\PSoC5/cyfitter_cfg.c **** 		CyDelayCycles(10u * 48u); /* Delay 10us based on 48MHz clock */
 458              		.loc 1 250 0
 459 017c 3278     		ldrb	r2, [r6]	@ zero_extendqisi2
 251:Generated_Source\PSoC5/cyfitter_cfg.c **** 	}
 460              		.loc 1 251 0
 461 017e 4FF4F070 		mov	r0, #480
 250:Generated_Source\PSoC5/cyfitter_cfg.c **** 		CyDelayCycles(10u * 48u); /* Delay 10us based on 48MHz clock */
 462              		.loc 1 250 0
 463 0182 02F00102 		and	r2, r2, #1
 464 0186 42EA4703 		orr	r3, r2, r7, lsl #1
 465 018a 03F00307 		and	r7, r3, #3
 466              	.LVL33:
 251:Generated_Source\PSoC5/cyfitter_cfg.c **** 	}
 467              		.loc 1 251 0
 468 018e FFF7FEFF 		bl	CyDelayCycles
 469              	.LVL34:
 248:Generated_Source\PSoC5/cyfitter_cfg.c **** 	{ 
 470              		.loc 1 248 0
 471 0192 013D     		subs	r5, r5, #1
 472              	.LVL35:
 473 0194 5FD0     		beq	.L13
 474              	.LVL36:
 475 0196 032F     		cmp	r7, #3
 476 0198 F0D1     		bne	.L14
 260:Generated_Source\PSoC5/cyfitter_cfg.c **** 	CY_SET_XTND_REG8((void CYFAR *)(CYREG_CLKDIST_MSTR0), 0x07u);
 477              		.loc 1 260 0
 478 019a 414A     		ldr	r2, .L24+72
 262:Generated_Source\PSoC5/cyfitter_cfg.c **** 	CY_SET_XTND_REG8((void CYFAR *)(CYREG_CLKDIST_BCFG2), 0x48u);
 479              		.loc 1 262 0
 480 019c 4148     		ldr	r0, .L24+76
 260:Generated_Source\PSoC5/cyfitter_cfg.c **** 	CY_SET_XTND_REG8((void CYFAR *)(CYREG_CLKDIST_MSTR0), 0x07u);
 481              		.loc 1 260 0
 482 019e 4FF48073 		mov	r3, #256
 483 01a2 1380     		strh	r3, [r2]	@ movhi
 261:Generated_Source\PSoC5/cyfitter_cfg.c **** 	CY_SET_XTND_REG8((void CYFAR *)(CYREG_CLKDIST_BCFG0), 0x00u);
 484              		.loc 1 261 0
ARM GAS  C:\Users\aupen\AppData\Local\Temp\ccogqXvD.s 			page 37


 485 01a4 0721     		movs	r1, #7
 262:Generated_Source\PSoC5/cyfitter_cfg.c **** 	CY_SET_XTND_REG8((void CYFAR *)(CYREG_CLKDIST_BCFG2), 0x48u);
 486              		.loc 1 262 0
 487 01a6 0023     		movs	r3, #0
 263:Generated_Source\PSoC5/cyfitter_cfg.c **** 	CY_SET_XTND_REG8((void CYFAR *)(CYREG_CLKDIST_MSTR0), 0x00u);
 488              		.loc 1 263 0
 489 01a8 4825     		movs	r5, #72
 490              	.LVL37:
 261:Generated_Source\PSoC5/cyfitter_cfg.c **** 	CY_SET_XTND_REG8((void CYFAR *)(CYREG_CLKDIST_BCFG0), 0x00u);
 491              		.loc 1 261 0
 492 01aa 1170     		strb	r1, [r2]
 262:Generated_Source\PSoC5/cyfitter_cfg.c **** 	CY_SET_XTND_REG8((void CYFAR *)(CYREG_CLKDIST_BCFG2), 0x48u);
 493              		.loc 1 262 0
 494 01ac 0370     		strb	r3, [r0]
 263:Generated_Source\PSoC5/cyfitter_cfg.c **** 	CY_SET_XTND_REG8((void CYFAR *)(CYREG_CLKDIST_MSTR0), 0x00u);
 495              		.loc 1 263 0
 496 01ae 8570     		strb	r5, [r0, #2]
 264:Generated_Source\PSoC5/cyfitter_cfg.c **** 
 497              		.loc 1 264 0
 498 01b0 1370     		strb	r3, [r2]
 267:Generated_Source\PSoC5/cyfitter_cfg.c **** 	CY_SET_XTND_REG8((void CYFAR *)(CYREG_CLKDIST_LD), 0x02u);
 499              		.loc 1 267 0
 500 01b2 5371     		strb	r3, [r2, #5]
 268:Generated_Source\PSoC5/cyfitter_cfg.c **** 
 501              		.loc 1 268 0
 502 01b4 3C4B     		ldr	r3, .L24+80
 503 01b6 0222     		movs	r2, #2
 504 01b8 1A70     		strb	r2, [r3]
 270:Generated_Source\PSoC5/cyfitter_cfg.c **** }
 505              		.loc 1 270 0
 506 01ba 3C4A     		ldr	r2, .L24+84
 507              	.LBE124:
 508              	.LBE127:
 509              	.LBB128:
 510              	.LBB129:
 296:Generated_Source\PSoC5/cyfitter_cfg.c **** 	uint8 cr5 = CY_GET_XTND_REG8((void CYFAR *)(CYREG_RESET_CR5));
 511              		.loc 1 296 0
 512 01bc DFF81081 		ldr	r8, .L24+120
 513              	.LBE129:
 514              	.LBE128:
 515              	.LBB133:
 516              	.LBB125:
 270:Generated_Source\PSoC5/cyfitter_cfg.c **** }
 517              		.loc 1 270 0
 518 01c0 1378     		ldrb	r3, [r2]	@ zero_extendqisi2
 519              	.LBE125:
 520              	.LBE133:
 521              	.LBB134:
 522              	.LBB130:
 297:Generated_Source\PSoC5/cyfitter_cfg.c **** 	CY_SET_XTND_REG8((void CYFAR *)(CYREG_BG_DFT0), (bg_xover_inl_trim & 0x07u));
 523              		.loc 1 297 0
 524 01c2 DFF81091 		ldr	r9, .L24+124
 525              	.LBE130:
 526              	.LBE134:
 527              	.LBB135:
 528              	.LBB126:
 270:Generated_Source\PSoC5/cyfitter_cfg.c **** }
ARM GAS  C:\Users\aupen\AppData\Local\Temp\ccogqXvD.s 			page 38


 529              		.loc 1 270 0
 530 01c6 43F00F03 		orr	r3, r3, #15
 531 01ca 1370     		strb	r3, [r2]
 532              	.LVL38:
 533              	.LBE126:
 534              	.LBE135:
1518:Generated_Source\PSoC5/cyfitter_cfg.c **** 	/* Setup clocks based on selections from Clock DWR */
1519:Generated_Source\PSoC5/cyfitter_cfg.c **** 	ClockSetup();
1520:Generated_Source\PSoC5/cyfitter_cfg.c **** 	/* Set Flash Cycles based on newly configured 48.00MHz Bus Clock. */
1521:Generated_Source\PSoC5/cyfitter_cfg.c **** 	CY_SET_XTND_REG8((void CYFAR *)(CYREG_CACHE_CC_CTL), (((CYDEV_INSTRUCT_CACHE_ENABLED) != 0) ? 0xC1
 535              		.loc 1 1521 0
 536 01cc 2C4B     		ldr	r3, .L24+40
 537 01ce C122     		movs	r2, #193
 538 01d0 1A70     		strb	r2, [r3]
 539              	.LBB136:
 540              	.LBB131:
 295:Generated_Source\PSoC5/cyfitter_cfg.c **** 	uint8 cr4 = CY_GET_XTND_REG8((void CYFAR *)(CYREG_RESET_CR4));
 541              		.loc 1 295 0
 542 01d2 374B     		ldr	r3, .L24+88
 298:Generated_Source\PSoC5/cyfitter_cfg.c **** 	CY_SET_XTND_REG8((void CYFAR *)(CYREG_BG_DFT1), ((bg_xover_inl_trim >> 4) & 0x0Fu));
 543              		.loc 1 298 0
 544 01d4 374A     		ldr	r2, .L24+92
 295:Generated_Source\PSoC5/cyfitter_cfg.c **** 	uint8 cr4 = CY_GET_XTND_REG8((void CYFAR *)(CYREG_RESET_CR4));
 545              		.loc 1 295 0
 546 01d6 1B78     		ldrb	r3, [r3]	@ zero_extendqisi2
 296:Generated_Source\PSoC5/cyfitter_cfg.c **** 	uint8 cr5 = CY_GET_XTND_REG8((void CYFAR *)(CYREG_RESET_CR5));
 547              		.loc 1 296 0
 548 01d8 98F80050 		ldrb	r5, [r8]	@ zero_extendqisi2
 295:Generated_Source\PSoC5/cyfitter_cfg.c **** 	uint8 cr4 = CY_GET_XTND_REG8((void CYFAR *)(CYREG_RESET_CR4));
 549              		.loc 1 295 0
 550 01dc DBB2     		uxtb	r3, r3
 551              	.LVL39:
 297:Generated_Source\PSoC5/cyfitter_cfg.c **** 	CY_SET_XTND_REG8((void CYFAR *)(CYREG_BG_DFT0), (bg_xover_inl_trim & 0x07u));
 552              		.loc 1 297 0
 553 01de 99F80060 		ldrb	r6, [r9]	@ zero_extendqisi2
 298:Generated_Source\PSoC5/cyfitter_cfg.c **** 	CY_SET_XTND_REG8((void CYFAR *)(CYREG_BG_DFT1), ((bg_xover_inl_trim >> 4) & 0x0Fu));
 554              		.loc 1 298 0
 555 01e2 03EA0100 		and	r0, r3, r1
 296:Generated_Source\PSoC5/cyfitter_cfg.c **** 	uint8 cr5 = CY_GET_XTND_REG8((void CYFAR *)(CYREG_RESET_CR5));
 556              		.loc 1 296 0
 557 01e6 EDB2     		uxtb	r5, r5
 558              	.LVL40:
 299:Generated_Source\PSoC5/cyfitter_cfg.c **** 	/* Disable PRES while setting up SAR voltage reference */
 559              		.loc 1 299 0
 560 01e8 1B09     		lsrs	r3, r3, #4
 561              	.LVL41:
 298:Generated_Source\PSoC5/cyfitter_cfg.c **** 	CY_SET_XTND_REG8((void CYFAR *)(CYREG_BG_DFT1), ((bg_xover_inl_trim >> 4) & 0x0Fu));
 562              		.loc 1 298 0
 563 01ea 1070     		strb	r0, [r2]
 297:Generated_Source\PSoC5/cyfitter_cfg.c **** 	CY_SET_XTND_REG8((void CYFAR *)(CYREG_BG_DFT0), (bg_xover_inl_trim & 0x07u));
 564              		.loc 1 297 0
 565 01ec F6B2     		uxtb	r6, r6
 566              	.LVL42:
 299:Generated_Source\PSoC5/cyfitter_cfg.c **** 	/* Disable PRES while setting up SAR voltage reference */
 567              		.loc 1 299 0
 568 01ee 5370     		strb	r3, [r2, #1]
 301:Generated_Source\PSoC5/cyfitter_cfg.c **** 	CY_SET_XTND_REG8((void CYFAR *)(CYREG_RESET_CR5), (cr5 | 0x03u));
ARM GAS  C:\Users\aupen\AppData\Local\Temp\ccogqXvD.s 			page 39


 569              		.loc 1 301 0
 570 01f0 45F00303 		orr	r3, r5, #3
 571 01f4 88F80030 		strb	r3, [r8]
 302:Generated_Source\PSoC5/cyfitter_cfg.c **** 	CY_SET_XTND_REG8((void CYFAR *)CYREG_PRT0_AG, 0x03u);
 572              		.loc 1 302 0
 573 01f8 46F00303 		orr	r3, r6, #3
 574 01fc 89F80030 		strb	r3, [r9]
 303:Generated_Source\PSoC5/cyfitter_cfg.c **** 	CY_SET_XTND_REG8((void CYFAR *)CYREG_PRT2_AG, 0x20u);
 575              		.loc 1 303 0
 576 0200 2D4B     		ldr	r3, .L24+96
 304:Generated_Source\PSoC5/cyfitter_cfg.c **** 	CY_SET_XTND_REG8((void CYFAR *)CYREG_PRT3_AG, 0x07u);
 577              		.loc 1 304 0
 578 0202 6FF4E860 		mvn	r0, #1856
 303:Generated_Source\PSoC5/cyfitter_cfg.c **** 	CY_SET_XTND_REG8((void CYFAR *)CYREG_PRT2_AG, 0x20u);
 579              		.loc 1 303 0
 580 0206 1F70     		strb	r7, [r3]
 304:Generated_Source\PSoC5/cyfitter_cfg.c **** 	CY_SET_XTND_REG8((void CYFAR *)CYREG_PRT3_AG, 0x07u);
 581              		.loc 1 304 0
 582 0208 0244     		add	r2, r2, r0
 583 020a 2023     		movs	r3, #32
 584 020c 1370     		strb	r3, [r2]
 305:Generated_Source\PSoC5/cyfitter_cfg.c **** 	CY_SET_XTND_REG8((void CYFAR *)CYREG_PRT15_AG, 0x09u);
 585              		.loc 1 305 0
 586 020e 1174     		strb	r1, [r2, #16]
 306:Generated_Source\PSoC5/cyfitter_cfg.c **** 	CY_SET_XTND_REG8((void CYFAR *)CYREG_SAR0_CSR1, 0x40u);
 587              		.loc 1 306 0
 588 0210 0921     		movs	r1, #9
 589 0212 82F8D010 		strb	r1, [r2, #208]
 307:Generated_Source\PSoC5/cyfitter_cfg.c **** 	CY_SET_XTND_REG8((void CYFAR *)CYREG_SAR0_CSR3, 0x40u);
 590              		.loc 1 307 0
 591 0216 2949     		ldr	r1, .L24+100
 592 0218 4022     		movs	r2, #64
 593 021a 0A70     		strb	r2, [r1]
 308:Generated_Source\PSoC5/cyfitter_cfg.c **** 	CY_SET_XTND_REG8((void CYFAR *)CYREG_DAC3_SW0, 0x30u);
 594              		.loc 1 308 0
 595 021c 8A70     		strb	r2, [r1, #2]
 309:Generated_Source\PSoC5/cyfitter_cfg.c **** 	CY_SET_XTND_REG8((void CYFAR *)CYREG_SAR0_SW0, 0xF2u);
 596              		.loc 1 309 0
 597 021e 284A     		ldr	r2, .L24+104
 598 0220 3021     		movs	r1, #48
 599 0222 1170     		strb	r1, [r2]
 310:Generated_Source\PSoC5/cyfitter_cfg.c **** 	CY_SET_XTND_REG8((void CYFAR *)CYREG_SAR0_SW3, 0x20u);
 600              		.loc 1 310 0
 601 0224 F221     		movs	r1, #242
 602 0226 82F88810 		strb	r1, [r2, #136]
 311:Generated_Source\PSoC5/cyfitter_cfg.c **** 	CY_SET_XTND_REG8((void CYFAR *)CYREG_BUS_SW0, 0xE0u);
 603              		.loc 1 311 0
 604 022a 82F88B30 		strb	r3, [r2, #139]
 312:Generated_Source\PSoC5/cyfitter_cfg.c **** 	CyDelayUs(10u); /* Allow vref to settle before re-enabling PRES */
 605              		.loc 1 312 0
 606 022e 254B     		ldr	r3, .L24+108
 607 0230 E022     		movs	r2, #224
 608 0232 1A70     		strb	r2, [r3]
 313:Generated_Source\PSoC5/cyfitter_cfg.c **** 	CY_SET_XTND_REG8((void CYFAR *)(CYREG_RESET_CR5), (cr5));
 609              		.loc 1 313 0
 610 0234 0A20     		movs	r0, #10
 611 0236 FFF7FEFF 		bl	CyDelayUs
ARM GAS  C:\Users\aupen\AppData\Local\Temp\ccogqXvD.s 			page 40


 612              	.LVL43:
 316:Generated_Source\PSoC5/cyfitter_cfg.c **** }
 613              		.loc 1 316 0
 614 023a 234B     		ldr	r3, .L24+112
 314:Generated_Source\PSoC5/cyfitter_cfg.c **** 	CY_SET_XTND_REG8((void CYFAR *)(CYREG_RESET_CR4), (cr4));
 615              		.loc 1 314 0
 616 023c 89F80060 		strb	r6, [r9]
 316:Generated_Source\PSoC5/cyfitter_cfg.c **** }
 617              		.loc 1 316 0
 618 0240 4422     		movs	r2, #68
 315:Generated_Source\PSoC5/cyfitter_cfg.c **** 	CY_SET_XTND_REG8((void CYFAR *)CYREG_PUMP_CR0, 0x44u);
 619              		.loc 1 315 0
 620 0242 88F80050 		strb	r5, [r8]
 621              	.LBE131:
 622              	.LBE136:
 623              	.LBB137:
 624              	.LBB138:
  86:Generated_Source\PSoC5/cyfitter_cfg.c **** }
 625              		.loc 1 86 0
 626 0246 214D     		ldr	r5, .L24+116
 627              	.LVL44:
 628              	.LBE138:
 629              	.LBE137:
 630              	.LBB140:
 631              	.LBB132:
 316:Generated_Source\PSoC5/cyfitter_cfg.c **** }
 632              		.loc 1 316 0
 633 0248 1A70     		strb	r2, [r3]
 634              	.LVL45:
 635              	.LBE132:
 636              	.LBE140:
 637              	.LBB141:
 638              	.LBB139:
  86:Generated_Source\PSoC5/cyfitter_cfg.c **** }
 639              		.loc 1 86 0
 640 024a 94E80F00 		ldmia	r4, {r0, r1, r2, r3}
 641 024e 07C5     		stmia	r5!, {r0, r1, r2}
 642 0250 2B80     		strh	r3, [r5]	@ movhi
 643              	.LVL46:
 644 0252 BDE8F883 		pop	{r3, r4, r5, r6, r7, r8, r9, pc}
 645              	.LVL47:
 646              	.L13:
 647 0256 FEE7     		b	.L13
 648              	.L25:
 649              		.align	2
 650              	.L24:
 651 0258 00000000 		.word	.LANCHOR0
 652 025c 50000000 		.word	.LANCHOR0+80
 653 0260 00760040 		.word	1073772032
 654 0264 86080000 		.word	.LANCHOR0+2182
 655 0268 08760040 		.word	1073772040
 656 026c 03500140 		.word	1073827843
 657 0270 A0430040 		.word	1073759136
 658 0274 02510040 		.word	1073762562
 659 0278 C0510040 		.word	1073762752
 660 027c 84400040 		.word	1073758340
 661 0280 00480040 		.word	1073760256
ARM GAS  C:\Users\aupen\AppData\Local\Temp\ccogqXvD.s 			page 41


 662 0284 82400040 		.word	1073758338
 663 0288 8A400040 		.word	1073758346
 664 028c 8C400040 		.word	1073758348
 665 0290 0F010049 		.word	1224737039
 666 0294 A1460040 		.word	1073759905
 667 0298 25420040 		.word	1073758757
 668 029c 22420040 		.word	1073758754
 669 02a0 04400040 		.word	1073758212
 670 02a4 06400040 		.word	1073758214
 671 02a8 01400040 		.word	1073758209
 672 02ac A2430040 		.word	1073759138
 673 02b0 CF010049 		.word	1224737231
 674 02b4 6E580040 		.word	1073764462
 675 02b8 0D510040 		.word	1073762573
 676 02bc 01590040 		.word	1073764609
 677 02c0 985A0040 		.word	1073765016
 678 02c4 585B0040 		.word	1073765208
 679 02c8 76580040 		.word	1073764470
 680 02cc B0430040 		.word	1073759152
 681 02d0 F8460040 		.word	1073759992
 682 02d4 F9460040 		.word	1073759993
 683              	.LBE139:
 684              	.LBE141:
 685              		.cfi_endproc
 686              	.LFE8:
 687              		.size	cyfitter_cfg, .-cyfitter_cfg
 688              		.section	.rodata
 689              		.align	2
 690              		.set	.LANCHOR0,. + 0
 691              		.type	cfg_memset_list.5048, %object
 692              		.size	cfg_memset_list.5048, 48
 693              	cfg_memset_list.5048:
 694 0000 C8490040 		.4byte	1073760712
 695 0004 1900     		.2byte	25
 696 0006 004F0040 		.4byte	1073762048
 697 000a 1800     		.2byte	24
 698 000c 40510040 		.4byte	1073762624
 699 0010 3000     		.2byte	48
 700 0012 00000140 		.4byte	1073807360
 701 0016 0010     		.2byte	4096
 702 0018 00140140 		.4byte	1073812480
 703 001c 0008     		.2byte	2048
 704 001e 00400140 		.4byte	1073823744
 705 0022 000A     		.2byte	2560
 706 0024 004C0140 		.4byte	1073826816
 707 0028 0002     		.2byte	512
 708 002a 00500140 		.4byte	1073827840
 709 002e 2000     		.2byte	32
 710              		.type	cfg_memcpy_list.5052, %object
 711              		.size	cfg_memcpy_list.5052, 30
 712              	cfg_memcpy_list.5052:
 713 0030 00520040 		.4byte	1073762816
 714 0034 C8080000 		.4byte	BS_IOPORT_0_VAL.5049
 715 0038 0700     		.2byte	7
 716 003a 10520040 		.4byte	1073762832
 717 003e CF080000 		.4byte	BS_IOPORT_2_VAL.5050
 718 0042 0700     		.2byte	7
ARM GAS  C:\Users\aupen\AppData\Local\Temp\ccogqXvD.s 			page 42


 719 0044 60520040 		.4byte	1073762912
 720 0048 D6080000 		.4byte	BS_IOPORT_7_VAL.5051
 721 004c 0600     		.2byte	6
 722 004e 0000     		.space	2
 723              		.type	cy_cfg_addr_table.5037, %object
 724              		.size	cy_cfg_addr_table.5037, 156
 725              	cy_cfg_addr_table.5037:
 726 0050 01450040 		.word	1073759489
 727 0054 044F0040 		.word	1073762052
 728 0058 07520040 		.word	1073762823
 729 005c 015B0040 		.word	1073765121
 730 0060 01640040 		.word	1073767425
 731 0064 11000140 		.word	1073807377
 732 0068 28010140 		.word	1073807656
 733 006c 1F020140 		.word	1073807903
 734 0070 47030140 		.word	1073808199
 735 0074 1E040140 		.word	1073808414
 736 0078 43050140 		.word	1073808707
 737 007c 32060140 		.word	1073808946
 738 0080 3E070140 		.word	1073809214
 739 0084 04080140 		.word	1073809412
 740 0088 09090140 		.word	1073809673
 741 008c 080B0140 		.word	1073810184
 742 0090 050D0140 		.word	1073810693
 743 0094 030F0140 		.word	1073811203
 744 0098 2C140140 		.word	1073812524
 745 009c 48150140 		.word	1073812808
 746 00a0 1F160140 		.word	1073813023
 747 00a4 3F170140 		.word	1073813311
 748 00a8 42180140 		.word	1073813570
 749 00ac 41190140 		.word	1073813825
 750 00b0 0A1B0140 		.word	1073814282
 751 00b4 0D400140 		.word	1073823757
 752 00b8 19410140 		.word	1073824025
 753 00bc 0C420140 		.word	1073824268
 754 00c0 11430140 		.word	1073824529
 755 00c4 01440140 		.word	1073824769
 756 00c8 0A450140 		.word	1073825034
 757 00cc 0D460140 		.word	1073825293
 758 00d0 0D470140 		.word	1073825549
 759 00d4 14480140 		.word	1073825812
 760 00d8 1E490140 		.word	1073826078
 761 00dc 1B4C0140 		.word	1073826843
 762 00e0 104D0140 		.word	1073827088
 763 00e4 0B500140 		.word	1073827851
 764 00e8 03510140 		.word	1073828099
 765              		.type	cy_cfg_data_table.5038, %object
 766              		.size	cy_cfg_data_table.5038, 1946
 767              	cy_cfg_data_table.5038:
 768 00ec 7E       		.byte	126
 769 00ed 02       		.byte	2
 770 00ee 01       		.byte	1
 771 00ef 10       		.byte	16
 772 00f0 0A       		.byte	10
 773 00f1 1B       		.byte	27
 774 00f2 0D       		.byte	13
 775 00f3 30       		.byte	48
ARM GAS  C:\Users\aupen\AppData\Local\Temp\ccogqXvD.s 			page 43


 776 00f4 16       		.byte	22
 777 00f5 1B       		.byte	27
 778 00f6 08       		.byte	8
 779 00f7 50       		.byte	80
 780 00f8 09       		.byte	9
 781 00f9 14       		.byte	20
 782 00fa 18       		.byte	24
 783 00fb 04       		.byte	4
 784 00fc 19       		.byte	25
 785 00fd 01       		.byte	1
 786 00fe 78       		.byte	120
 787 00ff 28       		.byte	40
 788 0100 79       		.byte	121
 789 0101 30       		.byte	48
 790 0102 7C       		.byte	124
 791 0103 40       		.byte	64
 792 0104 27       		.byte	39
 793 0105 84       		.byte	-124
 794 0106 84       		.byte	-124
 795 0107 07       		.byte	7
 796 0108 02       		.byte	2
 797 0109 02       		.byte	2
 798 010a 0B       		.byte	11
 799 010b 01       		.byte	1
 800 010c 1E       		.byte	30
 801 010d 01       		.byte	1
 802 010e 2A       		.byte	42
 803 010f 04       		.byte	4
 804 0110 30       		.byte	48
 805 0111 04       		.byte	4
 806 0112 32       		.byte	50
 807 0113 01       		.byte	1
 808 0114 34       		.byte	52
 809 0115 02       		.byte	2
 810 0116 35       		.byte	53
 811 0117 01       		.byte	1
 812 0118 52       		.byte	82
 813 0119 80       		.byte	-128
 814 011a 58       		.byte	88
 815 011b 04       		.byte	4
 816 011c 59       		.byte	89
 817 011d 04       		.byte	4
 818 011e 5B       		.byte	91
 819 011f 04       		.byte	4
 820 0120 5D       		.byte	93
 821 0121 20       		.byte	32
 822 0122 5F       		.byte	95
 823 0123 01       		.byte	1
 824 0124 D8       		.byte	-40
 825 0125 04       		.byte	4
 826 0126 D9       		.byte	-39
 827 0127 04       		.byte	4
 828 0128 DF       		.byte	-33
 829 0129 01       		.byte	1
 830 012a 00       		.byte	0
 831 012b 40       		.byte	64
 832 012c 01       		.byte	1
ARM GAS  C:\Users\aupen\AppData\Local\Temp\ccogqXvD.s 			page 44


 833 012d 29       		.byte	41
 834 012e 02       		.byte	2
 835 012f 01       		.byte	1
 836 0130 04       		.byte	4
 837 0131 44       		.byte	68
 838 0132 05       		.byte	5
 839 0133 20       		.byte	32
 840 0134 0A       		.byte	10
 841 0135 20       		.byte	32
 842 0136 0B       		.byte	11
 843 0137 41       		.byte	65
 844 0138 0F       		.byte	15
 845 0139 48       		.byte	72
 846 013a 10       		.byte	16
 847 013b 08       		.byte	8
 848 013c 13       		.byte	19
 849 013d 82       		.byte	-126
 850 013e 16       		.byte	22
 851 013f 40       		.byte	64
 852 0140 17       		.byte	23
 853 0141 42       		.byte	66
 854 0142 19       		.byte	25
 855 0143 28       		.byte	40
 856 0144 1A       		.byte	26
 857 0145 50       		.byte	80
 858 0146 1B       		.byte	27
 859 0147 14       		.byte	20
 860 0148 20       		.byte	32
 861 0149 04       		.byte	4
 862 014a 22       		.byte	34
 863 014b 10       		.byte	16
 864 014c 28       		.byte	40
 865 014d 01       		.byte	1
 866 014e 2B       		.byte	43
 867 014f 14       		.byte	20
 868 0150 2D       		.byte	45
 869 0151 02       		.byte	2
 870 0152 2E       		.byte	46
 871 0153 10       		.byte	16
 872 0154 31       		.byte	49
 873 0155 40       		.byte	64
 874 0156 32       		.byte	50
 875 0157 10       		.byte	16
 876 0158 37       		.byte	55
 877 0159 42       		.byte	66
 878 015a 38       		.byte	56
 879 015b 20       		.byte	32
 880 015c 3A       		.byte	58
 881 015d 41       		.byte	65
 882 015e 3C       		.byte	60
 883 015f 04       		.byte	4
 884 0160 3F       		.byte	63
 885 0161 60       		.byte	96
 886 0162 59       		.byte	89
 887 0163 40       		.byte	64
 888 0164 5A       		.byte	90
 889 0165 40       		.byte	64
ARM GAS  C:\Users\aupen\AppData\Local\Temp\ccogqXvD.s 			page 45


 890 0166 5B       		.byte	91
 891 0167 C0       		.byte	-64
 892 0168 70       		.byte	112
 893 0169 02       		.byte	2
 894 016a 8C       		.byte	-116
 895 016b 02       		.byte	2
 896 016c C0       		.byte	-64
 897 016d EF       		.byte	-17
 898 016e C2       		.byte	-62
 899 016f 5D       		.byte	93
 900 0170 C4       		.byte	-60
 901 0171 9B       		.byte	-101
 902 0172 CA       		.byte	-54
 903 0173 AE       		.byte	-82
 904 0174 CC       		.byte	-52
 905 0175 9C       		.byte	-100
 906 0176 CE       		.byte	-50
 907 0177 7D       		.byte	125
 908 0178 E2       		.byte	-30
 909 0179 04       		.byte	4
 910 017a 00       		.byte	0
 911 017b 03       		.byte	3
 912 017c 04       		.byte	4
 913 017d 03       		.byte	3
 914 017e 08       		.byte	8
 915 017f 03       		.byte	3
 916 0180 0C       		.byte	12
 917 0181 03       		.byte	3
 918 0182 10       		.byte	16
 919 0183 02       		.byte	2
 920 0184 12       		.byte	18
 921 0185 01       		.byte	1
 922 0186 14       		.byte	20
 923 0187 03       		.byte	3
 924 0188 22       		.byte	34
 925 0189 03       		.byte	3
 926 018a 30       		.byte	48
 927 018b 02       		.byte	2
 928 018c 36       		.byte	54
 929 018d 01       		.byte	1
 930 018e 58       		.byte	88
 931 018f 04       		.byte	4
 932 0190 59       		.byte	89
 933 0191 04       		.byte	4
 934 0192 5B       		.byte	91
 935 0193 04       		.byte	4
 936 0194 5F       		.byte	95
 937 0195 01       		.byte	1
 938 0196 85       		.byte	-123
 939 0197 01       		.byte	1
 940 0198 86       		.byte	-122
 941 0199 01       		.byte	1
 942 019a 8F       		.byte	-113
 943 019b 01       		.byte	1
 944 019c 93       		.byte	-109
 945 019d 02       		.byte	2
 946 019e 99       		.byte	-103
ARM GAS  C:\Users\aupen\AppData\Local\Temp\ccogqXvD.s 			page 46


 947 019f 01       		.byte	1
 948 01a0 9F       		.byte	-97
 949 01a1 01       		.byte	1
 950 01a2 A3       		.byte	-93
 951 01a3 01       		.byte	1
 952 01a4 A9       		.byte	-87
 953 01a5 01       		.byte	1
 954 01a6 AD       		.byte	-83
 955 01a7 01       		.byte	1
 956 01a8 B0       		.byte	-80
 957 01a9 01       		.byte	1
 958 01aa B1       		.byte	-79
 959 01ab 02       		.byte	2
 960 01ac B5       		.byte	-75
 961 01ad 01       		.byte	1
 962 01ae D4       		.byte	-44
 963 01af 01       		.byte	1
 964 01b0 D8       		.byte	-40
 965 01b1 04       		.byte	4
 966 01b2 D9       		.byte	-39
 967 01b3 04       		.byte	4
 968 01b4 DB       		.byte	-37
 969 01b5 0C       		.byte	12
 970 01b6 DF       		.byte	-33
 971 01b7 01       		.byte	1
 972 01b8 00       		.byte	0
 973 01b9 80       		.byte	-128
 974 01ba 01       		.byte	1
 975 01bb 06       		.byte	6
 976 01bc 04       		.byte	4
 977 01bd 44       		.byte	68
 978 01be 05       		.byte	5
 979 01bf 20       		.byte	32
 980 01c0 07       		.byte	7
 981 01c1 40       		.byte	64
 982 01c2 0A       		.byte	10
 983 01c3 60       		.byte	96
 984 01c4 0C       		.byte	12
 985 01c5 01       		.byte	1
 986 01c6 0E       		.byte	14
 987 01c7 10       		.byte	16
 988 01c8 0F       		.byte	15
 989 01c9 40       		.byte	64
 990 01ca 10       		.byte	16
 991 01cb 14       		.byte	20
 992 01cc 13       		.byte	19
 993 01cd 02       		.byte	2
 994 01ce 16       		.byte	22
 995 01cf 40       		.byte	64
 996 01d0 17       		.byte	23
 997 01d1 02       		.byte	2
 998 01d2 18       		.byte	24
 999 01d3 40       		.byte	64
 1000 01d4 19       		.byte	25
 1001 01d5 02       		.byte	2
 1002 01d6 1D       		.byte	29
 1003 01d7 01       		.byte	1
ARM GAS  C:\Users\aupen\AppData\Local\Temp\ccogqXvD.s 			page 47


 1004 01d8 1E       		.byte	30
 1005 01d9 02       		.byte	2
 1006 01da 20       		.byte	32
 1007 01db 80       		.byte	-128
 1008 01dc 21       		.byte	33
 1009 01dd 10       		.byte	16
 1010 01de 23       		.byte	35
 1011 01df 40       		.byte	64
 1012 01e0 28       		.byte	40
 1013 01e1 05       		.byte	5
 1014 01e2 29       		.byte	41
 1015 01e3 02       		.byte	2
 1016 01e4 2C       		.byte	44
 1017 01e5 04       		.byte	4
 1018 01e6 2D       		.byte	45
 1019 01e7 02       		.byte	2
 1020 01e8 2E       		.byte	46
 1021 01e9 50       		.byte	80
 1022 01ea 30       		.byte	48
 1023 01eb 02       		.byte	2
 1024 01ec 31       		.byte	49
 1025 01ed 50       		.byte	80
 1026 01ee 34       		.byte	52
 1027 01ef 10       		.byte	16
 1028 01f0 35       		.byte	53
 1029 01f1 30       		.byte	48
 1030 01f2 37       		.byte	55
 1031 01f3 02       		.byte	2
 1032 01f4 38       		.byte	56
 1033 01f5 04       		.byte	4
 1034 01f6 3A       		.byte	58
 1035 01f7 40       		.byte	64
 1036 01f8 3C       		.byte	60
 1037 01f9 04       		.byte	4
 1038 01fa 3F       		.byte	63
 1039 01fb 40       		.byte	64
 1040 01fc 58       		.byte	88
 1041 01fd 40       		.byte	64
 1042 01fe 5B       		.byte	91
 1043 01ff 80       		.byte	-128
 1044 0200 6A       		.byte	106
 1045 0201 80       		.byte	-128
 1046 0202 6D       		.byte	109
 1047 0203 20       		.byte	32
 1048 0204 6F       		.byte	111
 1049 0205 92       		.byte	-110
 1050 0206 79       		.byte	121
 1051 0207 40       		.byte	64
 1052 0208 81       		.byte	-127
 1053 0209 10       		.byte	16
 1054 020a 82       		.byte	-126
 1055 020b 40       		.byte	64
 1056 020c 87       		.byte	-121
 1057 020d 80       		.byte	-128
 1058 020e 8D       		.byte	-115
 1059 020f 01       		.byte	1
 1060 0210 8E       		.byte	-114
ARM GAS  C:\Users\aupen\AppData\Local\Temp\ccogqXvD.s 			page 48


 1061 0211 01       		.byte	1
 1062 0212 90       		.byte	-112
 1063 0213 04       		.byte	4
 1064 0214 92       		.byte	-110
 1065 0215 70       		.byte	112
 1066 0216 94       		.byte	-108
 1067 0217 60       		.byte	96
 1068 0218 95       		.byte	-107
 1069 0219 01       		.byte	1
 1070 021a 97       		.byte	-105
 1071 021b 41       		.byte	65
 1072 021c 99       		.byte	-103
 1073 021d 60       		.byte	96
 1074 021e 9B       		.byte	-101
 1075 021f 40       		.byte	64
 1076 0220 9C       		.byte	-100
 1077 0221 41       		.byte	65
 1078 0222 9D       		.byte	-99
 1079 0223 02       		.byte	2
 1080 0224 9F       		.byte	-97
 1081 0225 02       		.byte	2
 1082 0226 A4       		.byte	-92
 1083 0227 08       		.byte	8
 1084 0228 B0       		.byte	-80
 1085 0229 40       		.byte	64
 1086 022a C0       		.byte	-64
 1087 022b FD       		.byte	-3
 1088 022c C2       		.byte	-62
 1089 022d 3C       		.byte	60
 1090 022e C4       		.byte	-60
 1091 022f 1E       		.byte	30
 1092 0230 CA       		.byte	-54
 1093 0231 BD       		.byte	-67
 1094 0232 CC       		.byte	-52
 1095 0233 AD       		.byte	-83
 1096 0234 CE       		.byte	-50
 1097 0235 5A       		.byte	90
 1098 0236 D6       		.byte	-42
 1099 0237 08       		.byte	8
 1100 0238 DE       		.byte	-34
 1101 0239 08       		.byte	8
 1102 023a E2       		.byte	-30
 1103 023b 10       		.byte	16
 1104 023c E4       		.byte	-28
 1105 023d 01       		.byte	1
 1106 023e E6       		.byte	-26
 1107 023f 40       		.byte	64
 1108 0240 E8       		.byte	-24
 1109 0241 02       		.byte	2
 1110 0242 EA       		.byte	-22
 1111 0243 80       		.byte	-128
 1112 0244 EE       		.byte	-18
 1113 0245 08       		.byte	8
 1114 0246 02       		.byte	2
 1115 0247 08       		.byte	8
 1116 0248 06       		.byte	6
 1117 0249 01       		.byte	1
ARM GAS  C:\Users\aupen\AppData\Local\Temp\ccogqXvD.s 			page 49


 1118 024a 0A       		.byte	10
 1119 024b 04       		.byte	4
 1120 024c 0C       		.byte	12
 1121 024d 40       		.byte	64
 1122 024e 0E       		.byte	14
 1123 024f 80       		.byte	-128
 1124 0250 10       		.byte	16
 1125 0251 10       		.byte	16
 1126 0252 12       		.byte	18
 1127 0253 20       		.byte	32
 1128 0254 16       		.byte	22
 1129 0255 02       		.byte	2
 1130 0256 18       		.byte	24
 1131 0257 01       		.byte	1
 1132 0258 1C       		.byte	28
 1133 0259 02       		.byte	2
 1134 025a 20       		.byte	32
 1135 025b 04       		.byte	4
 1136 025c 24       		.byte	36
 1137 025d 08       		.byte	8
 1138 025e 28       		.byte	40
 1139 025f 20       		.byte	32
 1140 0260 2A       		.byte	42
 1141 0261 10       		.byte	16
 1142 0262 2C       		.byte	44
 1143 0263 80       		.byte	-128
 1144 0264 2E       		.byte	46
 1145 0265 40       		.byte	64
 1146 0266 30       		.byte	48
 1147 0267 FF       		.byte	-1
 1148 0268 3E       		.byte	62
 1149 0269 01       		.byte	1
 1150 026a 56       		.byte	86
 1151 026b 02       		.byte	2
 1152 026c 57       		.byte	87
 1153 026d 3A       		.byte	58
 1154 026e 58       		.byte	88
 1155 026f 04       		.byte	4
 1156 0270 59       		.byte	89
 1157 0271 04       		.byte	4
 1158 0272 5B       		.byte	91
 1159 0273 0C       		.byte	12
 1160 0274 5F       		.byte	95
 1161 0275 01       		.byte	1
 1162 0276 D6       		.byte	-42
 1163 0277 08       		.byte	8
 1164 0278 D8       		.byte	-40
 1165 0279 04       		.byte	4
 1166 027a D9       		.byte	-39
 1167 027b 04       		.byte	4
 1168 027c DB       		.byte	-37
 1169 027d 04       		.byte	4
 1170 027e DD       		.byte	-35
 1171 027f 90       		.byte	-112
 1172 0280 DF       		.byte	-33
 1173 0281 01       		.byte	1
 1174 0282 00       		.byte	0
ARM GAS  C:\Users\aupen\AppData\Local\Temp\ccogqXvD.s 			page 50


 1175 0283 84       		.byte	-124
 1176 0284 01       		.byte	1
 1177 0285 2A       		.byte	42
 1178 0286 02       		.byte	2
 1179 0287 88       		.byte	-120
 1180 0288 03       		.byte	3
 1181 0289 01       		.byte	1
 1182 028a 04       		.byte	4
 1183 028b 04       		.byte	4
 1184 028c 05       		.byte	5
 1185 028d 22       		.byte	34
 1186 028e 07       		.byte	7
 1187 028f 01       		.byte	1
 1188 0290 08       		.byte	8
 1189 0291 09       		.byte	9
 1190 0292 09       		.byte	9
 1191 0293 20       		.byte	32
 1192 0294 0A       		.byte	10
 1193 0295 50       		.byte	80
 1194 0296 0B       		.byte	11
 1195 0297 01       		.byte	1
 1196 0298 0E       		.byte	14
 1197 0299 50       		.byte	80
 1198 029a 10       		.byte	16
 1199 029b 0A       		.byte	10
 1200 029c 11       		.byte	17
 1201 029d 05       		.byte	5
 1202 029e 16       		.byte	22
 1203 029f 40       		.byte	64
 1204 02a0 17       		.byte	23
 1205 02a1 02       		.byte	2
 1206 02a2 18       		.byte	24
 1207 02a3 40       		.byte	64
 1208 02a4 28       		.byte	40
 1209 02a5 08       		.byte	8
 1210 02a6 29       		.byte	41
 1211 02a7 02       		.byte	2
 1212 02a8 2A       		.byte	42
 1213 02a9 40       		.byte	64
 1214 02aa 2D       		.byte	45
 1215 02ab 02       		.byte	2
 1216 02ac 2E       		.byte	46
 1217 02ad 40       		.byte	64
 1218 02ae 30       		.byte	48
 1219 02af 01       		.byte	1
 1220 02b0 32       		.byte	50
 1221 02b1 08       		.byte	8
 1222 02b2 35       		.byte	53
 1223 02b3 20       		.byte	32
 1224 02b4 37       		.byte	55
 1225 02b5 02       		.byte	2
 1226 02b6 38       		.byte	56
 1227 02b7 04       		.byte	4
 1228 02b8 3A       		.byte	58
 1229 02b9 80       		.byte	-128
 1230 02ba 3C       		.byte	60
 1231 02bb 84       		.byte	-124
ARM GAS  C:\Users\aupen\AppData\Local\Temp\ccogqXvD.s 			page 51


 1232 02bc 3E       		.byte	62
 1233 02bd 10       		.byte	16
 1234 02be 5B       		.byte	91
 1235 02bf 08       		.byte	8
 1236 02c0 5C       		.byte	92
 1237 02c1 80       		.byte	-128
 1238 02c2 61       		.byte	97
 1239 02c3 04       		.byte	4
 1240 02c4 64       		.byte	100
 1241 02c5 02       		.byte	2
 1242 02c6 68       		.byte	104
 1243 02c7 0A       		.byte	10
 1244 02c8 69       		.byte	105
 1245 02c9 05       		.byte	5
 1246 02ca 6A       		.byte	106
 1247 02cb 02       		.byte	2
 1248 02cc 70       		.byte	112
 1249 02cd 10       		.byte	16
 1250 02ce 71       		.byte	113
 1251 02cf 60       		.byte	96
 1252 02d0 73       		.byte	115
 1253 02d1 01       		.byte	1
 1254 02d2 79       		.byte	121
 1255 02d3 40       		.byte	64
 1256 02d4 86       		.byte	-122
 1257 02d5 02       		.byte	2
 1258 02d6 88       		.byte	-120
 1259 02d7 40       		.byte	64
 1260 02d8 8A       		.byte	-118
 1261 02d9 80       		.byte	-128
 1262 02da 90       		.byte	-112
 1263 02db 04       		.byte	4
 1264 02dc 92       		.byte	-110
 1265 02dd 50       		.byte	80
 1266 02de 94       		.byte	-108
 1267 02df 20       		.byte	32
 1268 02e0 95       		.byte	-107
 1269 02e1 45       		.byte	69
 1270 02e2 97       		.byte	-105
 1271 02e3 01       		.byte	1
 1272 02e4 99       		.byte	-103
 1273 02e5 22       		.byte	34
 1274 02e6 9F       		.byte	-97
 1275 02e7 82       		.byte	-126
 1276 02e8 A0       		.byte	-96
 1277 02e9 40       		.byte	64
 1278 02ea A4       		.byte	-92
 1279 02eb 0A       		.byte	10
 1280 02ec AB       		.byte	-85
 1281 02ed 10       		.byte	16
 1282 02ee AF       		.byte	-81
 1283 02ef 02       		.byte	2
 1284 02f0 B1       		.byte	-79
 1285 02f1 10       		.byte	16
 1286 02f2 C0       		.byte	-64
 1287 02f3 FF       		.byte	-1
 1288 02f4 C2       		.byte	-62
ARM GAS  C:\Users\aupen\AppData\Local\Temp\ccogqXvD.s 			page 52


 1289 02f5 3F       		.byte	63
 1290 02f6 C4       		.byte	-60
 1291 02f7 1F       		.byte	31
 1292 02f8 CA       		.byte	-54
 1293 02f9 9D       		.byte	-99
 1294 02fa CC       		.byte	-52
 1295 02fb A3       		.byte	-93
 1296 02fc CE       		.byte	-50
 1297 02fd 7A       		.byte	122
 1298 02fe D6       		.byte	-42
 1299 02ff 12       		.byte	18
 1300 0300 D8       		.byte	-40
 1301 0301 12       		.byte	18
 1302 0302 DE       		.byte	-34
 1303 0303 08       		.byte	8
 1304 0304 E2       		.byte	-30
 1305 0305 02       		.byte	2
 1306 0306 E6       		.byte	-26
 1307 0307 07       		.byte	7
 1308 0308 02       		.byte	2
 1309 0309 01       		.byte	1
 1310 030a 04       		.byte	4
 1311 030b 01       		.byte	1
 1312 030c 08       		.byte	8
 1313 030d 01       		.byte	1
 1314 030e 0E       		.byte	14
 1315 030f 01       		.byte	1
 1316 0310 12       		.byte	18
 1317 0311 01       		.byte	1
 1318 0312 22       		.byte	34
 1319 0313 01       		.byte	1
 1320 0314 28       		.byte	40
 1321 0315 01       		.byte	1
 1322 0316 36       		.byte	54
 1323 0317 01       		.byte	1
 1324 0318 56       		.byte	86
 1325 0319 08       		.byte	8
 1326 031a 58       		.byte	88
 1327 031b 04       		.byte	4
 1328 031c 59       		.byte	89
 1329 031d 04       		.byte	4
 1330 031e 5B       		.byte	91
 1331 031f 04       		.byte	4
 1332 0320 5D       		.byte	93
 1333 0321 90       		.byte	-112
 1334 0322 5F       		.byte	95
 1335 0323 01       		.byte	1
 1336 0324 82       		.byte	-126
 1337 0325 02       		.byte	2
 1338 0326 84       		.byte	-124
 1339 0327 18       		.byte	24
 1340 0328 87       		.byte	-121
 1341 0329 20       		.byte	32
 1342 032a 8A       		.byte	-118
 1343 032b 08       		.byte	8
 1344 032c 8B       		.byte	-117
 1345 032d 04       		.byte	4
ARM GAS  C:\Users\aupen\AppData\Local\Temp\ccogqXvD.s 			page 53


 1346 032e 8E       		.byte	-114
 1347 032f 01       		.byte	1
 1348 0330 8F       		.byte	-113
 1349 0331 40       		.byte	64
 1350 0332 90       		.byte	-112
 1351 0333 10       		.byte	16
 1352 0334 93       		.byte	-109
 1353 0335 10       		.byte	16
 1354 0336 94       		.byte	-108
 1355 0337 01       		.byte	1
 1356 0338 95       		.byte	-107
 1357 0339 10       		.byte	16
 1358 033a 99       		.byte	-103
 1359 033b 01       		.byte	1
 1360 033c 9D       		.byte	-99
 1361 033d 20       		.byte	32
 1362 033e A3       		.byte	-93
 1363 033f 03       		.byte	3
 1364 0340 A4       		.byte	-92
 1365 0341 04       		.byte	4
 1366 0342 A5       		.byte	-91
 1367 0343 04       		.byte	4
 1368 0344 A9       		.byte	-87
 1369 0345 08       		.byte	8
 1370 0346 AC       		.byte	-84
 1371 0347 04       		.byte	4
 1372 0348 AF       		.byte	-81
 1373 0349 08       		.byte	8
 1374 034a B0       		.byte	-80
 1375 034b 03       		.byte	3
 1376 034c B2       		.byte	-78
 1377 034d 04       		.byte	4
 1378 034e B3       		.byte	-77
 1379 034f 01       		.byte	1
 1380 0350 B4       		.byte	-76
 1381 0351 18       		.byte	24
 1382 0352 B5       		.byte	-75
 1383 0353 02       		.byte	2
 1384 0354 B7       		.byte	-73
 1385 0355 7C       		.byte	124
 1386 0356 B8       		.byte	-72
 1387 0357 08       		.byte	8
 1388 0358 B9       		.byte	-71
 1389 0359 80       		.byte	-128
 1390 035a BE       		.byte	-66
 1391 035b 04       		.byte	4
 1392 035c BF       		.byte	-65
 1393 035d 40       		.byte	64
 1394 035e D2       		.byte	-46
 1395 035f 03       		.byte	3
 1396 0360 D3       		.byte	-45
 1397 0361 02       		.byte	2
 1398 0362 D8       		.byte	-40
 1399 0363 04       		.byte	4
 1400 0364 D9       		.byte	-39
 1401 0365 0C       		.byte	12
 1402 0366 DB       		.byte	-37
ARM GAS  C:\Users\aupen\AppData\Local\Temp\ccogqXvD.s 			page 54


 1403 0367 04       		.byte	4
 1404 0368 DC       		.byte	-36
 1405 0369 09       		.byte	9
 1406 036a DF       		.byte	-33
 1407 036b 01       		.byte	1
 1408 036c 00       		.byte	0
 1409 036d 01       		.byte	1
 1410 036e 01       		.byte	1
 1411 036f 20       		.byte	32
 1412 0370 03       		.byte	3
 1413 0371 12       		.byte	18
 1414 0372 05       		.byte	5
 1415 0373 08       		.byte	8
 1416 0374 07       		.byte	7
 1417 0375 46       		.byte	70
 1418 0376 08       		.byte	8
 1419 0377 02       		.byte	2
 1420 0378 09       		.byte	9
 1421 0379 08       		.byte	8
 1422 037a 0E       		.byte	14
 1423 037b 40       		.byte	64
 1424 037c 12       		.byte	18
 1425 037d 02       		.byte	2
 1426 037e 13       		.byte	19
 1427 037f 08       		.byte	8
 1428 0380 14       		.byte	20
 1429 0381 08       		.byte	8
 1430 0382 16       		.byte	22
 1431 0383 80       		.byte	-128
 1432 0384 19       		.byte	25
 1433 0385 25       		.byte	37
 1434 0386 1A       		.byte	26
 1435 0387 04       		.byte	4
 1436 0388 1B       		.byte	27
 1437 0389 02       		.byte	2
 1438 038a 1F       		.byte	31
 1439 038b 80       		.byte	-128
 1440 038c 20       		.byte	32
 1441 038d 02       		.byte	2
 1442 038e 21       		.byte	33
 1443 038f 28       		.byte	40
 1444 0390 23       		.byte	35
 1445 0391 02       		.byte	2
 1446 0392 28       		.byte	40
 1447 0393 08       		.byte	8
 1448 0394 29       		.byte	41
 1449 0395 49       		.byte	73
 1450 0396 2A       		.byte	42
 1451 0397 20       		.byte	32
 1452 0398 2D       		.byte	45
 1453 0399 08       		.byte	8
 1454 039a 2E       		.byte	46
 1455 039b 40       		.byte	64
 1456 039c 31       		.byte	49
 1457 039d 20       		.byte	32
 1458 039e 32       		.byte	50
 1459 039f 89       		.byte	-119
ARM GAS  C:\Users\aupen\AppData\Local\Temp\ccogqXvD.s 			page 55


 1460 03a0 33       		.byte	51
 1461 03a1 44       		.byte	68
 1462 03a2 36       		.byte	54
 1463 03a3 88       		.byte	-120
 1464 03a4 37       		.byte	55
 1465 03a5 02       		.byte	2
 1466 03a6 38       		.byte	56
 1467 03a7 60       		.byte	96
 1468 03a8 39       		.byte	57
 1469 03a9 04       		.byte	4
 1470 03aa 3E       		.byte	62
 1471 03ab A0       		.byte	-96
 1472 03ac 5F       		.byte	95
 1473 03ad 40       		.byte	64
 1474 03ae 66       		.byte	102
 1475 03af 40       		.byte	64
 1476 03b0 69       		.byte	105
 1477 03b1 40       		.byte	64
 1478 03b2 6B       		.byte	107
 1479 03b3 08       		.byte	8
 1480 03b4 79       		.byte	121
 1481 03b5 40       		.byte	64
 1482 03b6 87       		.byte	-121
 1483 03b7 80       		.byte	-128
 1484 03b8 8A       		.byte	-118
 1485 03b9 08       		.byte	8
 1486 03ba 8B       		.byte	-117
 1487 03bb 40       		.byte	64
 1488 03bc 8E       		.byte	-114
 1489 03bd 80       		.byte	-128
 1490 03be 90       		.byte	-112
 1491 03bf 60       		.byte	96
 1492 03c0 91       		.byte	-111
 1493 03c1 04       		.byte	4
 1494 03c2 92       		.byte	-110
 1495 03c3 42       		.byte	66
 1496 03c4 95       		.byte	-107
 1497 03c5 40       		.byte	64
 1498 03c6 98       		.byte	-104
 1499 03c7 0A       		.byte	10
 1500 03c8 99       		.byte	-103
 1501 03c9 48       		.byte	72
 1502 03ca 9A       		.byte	-102
 1503 03cb 80       		.byte	-128
 1504 03cc 9D       		.byte	-99
 1505 03cd 04       		.byte	4
 1506 03ce 9F       		.byte	-97
 1507 03cf 8A       		.byte	-118
 1508 03d0 A2       		.byte	-94
 1509 03d1 8A       		.byte	-118
 1510 03d2 A8       		.byte	-88
 1511 03d3 80       		.byte	-128
 1512 03d4 C0       		.byte	-64
 1513 03d5 FF       		.byte	-1
 1514 03d6 C2       		.byte	-62
 1515 03d7 1C       		.byte	28
 1516 03d8 C4       		.byte	-60
ARM GAS  C:\Users\aupen\AppData\Local\Temp\ccogqXvD.s 			page 56


 1517 03d9 55       		.byte	85
 1518 03da CA       		.byte	-54
 1519 03db 5F       		.byte	95
 1520 03dc CC       		.byte	-52
 1521 03dd DF       		.byte	-33
 1522 03de CE       		.byte	-50
 1523 03df 3E       		.byte	62
 1524 03e0 D6       		.byte	-42
 1525 03e1 10       		.byte	16
 1526 03e2 D8       		.byte	-40
 1527 03e3 10       		.byte	16
 1528 03e4 DE       		.byte	-34
 1529 03e5 08       		.byte	8
 1530 03e6 E0       		.byte	-32
 1531 03e7 20       		.byte	32
 1532 03e8 B8       		.byte	-72
 1533 03e9 80       		.byte	-128
 1534 03ea BE       		.byte	-66
 1535 03eb 40       		.byte	64
 1536 03ec D8       		.byte	-40
 1537 03ed 04       		.byte	4
 1538 03ee DF       		.byte	-33
 1539 03ef 01       		.byte	1
 1540 03f0 19       		.byte	25
 1541 03f1 80       		.byte	-128
 1542 03f2 8A       		.byte	-118
 1543 03f3 20       		.byte	32
 1544 03f4 8F       		.byte	-113
 1545 03f5 04       		.byte	4
 1546 03f6 96       		.byte	-106
 1547 03f7 20       		.byte	32
 1548 03f8 9A       		.byte	-102
 1549 03f9 10       		.byte	16
 1550 03fa 9B       		.byte	-101
 1551 03fb 80       		.byte	-128
 1552 03fc A2       		.byte	-94
 1553 03fd 08       		.byte	8
 1554 03fe E0       		.byte	-32
 1555 03ff 40       		.byte	64
 1556 0400 E4       		.byte	-28
 1557 0401 80       		.byte	-128
 1558 0402 82       		.byte	-126
 1559 0403 10       		.byte	16
 1560 0404 8A       		.byte	-118
 1561 0405 10       		.byte	16
 1562 0406 9B       		.byte	-101
 1563 0407 80       		.byte	-128
 1564 0408 A2       		.byte	-94
 1565 0409 08       		.byte	8
 1566 040a E2       		.byte	-30
 1567 040b 02       		.byte	2
 1568 040c E4       		.byte	-28
 1569 040d 20       		.byte	32
 1570 040e E6       		.byte	-26
 1571 040f 03       		.byte	3
 1572 0410 EC       		.byte	-20
 1573 0411 20       		.byte	32
ARM GAS  C:\Users\aupen\AppData\Local\Temp\ccogqXvD.s 			page 57


 1574 0412 9B       		.byte	-101
 1575 0413 80       		.byte	-128
 1576 0414 A2       		.byte	-94
 1577 0415 08       		.byte	8
 1578 0416 AF       		.byte	-81
 1579 0417 80       		.byte	-128
 1580 0418 E4       		.byte	-28
 1581 0419 01       		.byte	1
 1582 041a EE       		.byte	-18
 1583 041b 08       		.byte	8
 1584 041c 8E       		.byte	-114
 1585 041d 08       		.byte	8
 1586 041e E2       		.byte	-30
 1587 041f 04       		.byte	4
 1588 0420 E4       		.byte	-28
 1589 0421 40       		.byte	64
 1590 0422 02       		.byte	2
 1591 0423 10       		.byte	16
 1592 0424 0A       		.byte	10
 1593 0425 01       		.byte	1
 1594 0426 0C       		.byte	12
 1595 0427 30       		.byte	48
 1596 0428 10       		.byte	16
 1597 0429 08       		.byte	8
 1598 042a 14       		.byte	20
 1599 042b 03       		.byte	3
 1600 042c 1A       		.byte	26
 1601 042d 04       		.byte	4
 1602 042e 1C       		.byte	28
 1603 042f 20       		.byte	32
 1604 0430 20       		.byte	32
 1605 0431 0C       		.byte	12
 1606 0432 24       		.byte	36
 1607 0433 02       		.byte	2
 1608 0434 30       		.byte	48
 1609 0435 30       		.byte	48
 1610 0436 32       		.byte	50
 1611 0437 03       		.byte	3
 1612 0438 34       		.byte	52
 1613 0439 0C       		.byte	12
 1614 043a 56       		.byte	86
 1615 043b 08       		.byte	8
 1616 043c 58       		.byte	88
 1617 043d 04       		.byte	4
 1618 043e 59       		.byte	89
 1619 043f 04       		.byte	4
 1620 0440 5B       		.byte	91
 1621 0441 04       		.byte	4
 1622 0442 5C       		.byte	92
 1623 0443 09       		.byte	9
 1624 0444 5D       		.byte	93
 1625 0445 90       		.byte	-112
 1626 0446 5F       		.byte	95
 1627 0447 01       		.byte	1
 1628 0448 82       		.byte	-126
 1629 0449 01       		.byte	1
 1630 044a 84       		.byte	-124
ARM GAS  C:\Users\aupen\AppData\Local\Temp\ccogqXvD.s 			page 58


 1631 044b 01       		.byte	1
 1632 044c 89       		.byte	-119
 1633 044d 03       		.byte	3
 1634 044e 8E       		.byte	-114
 1635 044f 01       		.byte	1
 1636 0450 8F       		.byte	-113
 1637 0451 03       		.byte	3
 1638 0452 90       		.byte	-112
 1639 0453 01       		.byte	1
 1640 0454 93       		.byte	-109
 1641 0455 03       		.byte	3
 1642 0456 95       		.byte	-107
 1643 0457 03       		.byte	3
 1644 0458 9D       		.byte	-99
 1645 0459 02       		.byte	2
 1646 045a 9F       		.byte	-97
 1647 045b 01       		.byte	1
 1648 045c A0       		.byte	-96
 1649 045d 01       		.byte	1
 1650 045e A4       		.byte	-92
 1651 045f 01       		.byte	1
 1652 0460 A5       		.byte	-91
 1653 0461 03       		.byte	3
 1654 0462 A8       		.byte	-88
 1655 0463 01       		.byte	1
 1656 0464 AD       		.byte	-83
 1657 0465 01       		.byte	1
 1658 0466 AF       		.byte	-81
 1659 0467 02       		.byte	2
 1660 0468 B1       		.byte	-79
 1661 0469 01       		.byte	1
 1662 046a B4       		.byte	-76
 1663 046b 01       		.byte	1
 1664 046c B7       		.byte	-73
 1665 046d 02       		.byte	2
 1666 046e D6       		.byte	-42
 1667 046f 08       		.byte	8
 1668 0470 D8       		.byte	-40
 1669 0471 04       		.byte	4
 1670 0472 D9       		.byte	-39
 1671 0473 04       		.byte	4
 1672 0474 DB       		.byte	-37
 1673 0475 04       		.byte	4
 1674 0476 DD       		.byte	-35
 1675 0477 90       		.byte	-112
 1676 0478 DF       		.byte	-33
 1677 0479 01       		.byte	1
 1678 047a 00       		.byte	0
 1679 047b 80       		.byte	-128
 1680 047c 01       		.byte	1
 1681 047d 02       		.byte	2
 1682 047e 03       		.byte	3
 1683 047f 08       		.byte	8
 1684 0480 05       		.byte	5
 1685 0481 08       		.byte	8
 1686 0482 07       		.byte	7
 1687 0483 42       		.byte	66
ARM GAS  C:\Users\aupen\AppData\Local\Temp\ccogqXvD.s 			page 59


 1688 0484 08       		.byte	8
 1689 0485 01       		.byte	1
 1690 0486 09       		.byte	9
 1691 0487 88       		.byte	-120
 1692 0488 0A       		.byte	10
 1693 0489 04       		.byte	4
 1694 048a 0E       		.byte	14
 1695 048b 40       		.byte	64
 1696 048c 10       		.byte	16
 1697 048d 80       		.byte	-128
 1698 048e 12       		.byte	18
 1699 048f 10       		.byte	16
 1700 0490 15       		.byte	21
 1701 0491 10       		.byte	16
 1702 0492 16       		.byte	22
 1703 0493 80       		.byte	-128
 1704 0494 17       		.byte	23
 1705 0495 04       		.byte	4
 1706 0496 19       		.byte	25
 1707 0497 06       		.byte	6
 1708 0498 1A       		.byte	26
 1709 0499 0C       		.byte	12
 1710 049a 1B       		.byte	27
 1711 049b 08       		.byte	8
 1712 049c 1F       		.byte	31
 1713 049d 20       		.byte	32
 1714 049e 25       		.byte	37
 1715 049f 02       		.byte	2
 1716 04a0 26       		.byte	38
 1717 04a1 80       		.byte	-128
 1718 04a2 29       		.byte	41
 1719 04a3 08       		.byte	8
 1720 04a4 2A       		.byte	42
 1721 04a5 80       		.byte	-128
 1722 04a6 2D       		.byte	45
 1723 04a7 08       		.byte	8
 1724 04a8 2E       		.byte	46
 1725 04a9 40       		.byte	64
 1726 04aa 31       		.byte	49
 1727 04ab 01       		.byte	1
 1728 04ac 33       		.byte	51
 1729 04ad 44       		.byte	68
 1730 04ae 35       		.byte	53
 1731 04af 01       		.byte	1
 1732 04b0 37       		.byte	55
 1733 04b1 46       		.byte	70
 1734 04b2 38       		.byte	56
 1735 04b3 04       		.byte	4
 1736 04b4 3A       		.byte	58
 1737 04b5 20       		.byte	32
 1738 04b6 3D       		.byte	61
 1739 04b7 10       		.byte	16
 1740 04b8 3E       		.byte	62
 1741 04b9 A0       		.byte	-96
 1742 04ba 59       		.byte	89
 1743 04bb 80       		.byte	-128
 1744 04bc 5C       		.byte	92
ARM GAS  C:\Users\aupen\AppData\Local\Temp\ccogqXvD.s 			page 60


 1745 04bd 80       		.byte	-128
 1746 04be 61       		.byte	97
 1747 04bf 80       		.byte	-128
 1748 04c0 64       		.byte	100
 1749 04c1 01       		.byte	1
 1750 04c2 68       		.byte	104
 1751 04c3 45       		.byte	69
 1752 04c4 6B       		.byte	107
 1753 04c5 10       		.byte	16
 1754 04c6 70       		.byte	112
 1755 04c7 80       		.byte	-128
 1756 04c8 71       		.byte	113
 1757 04c9 28       		.byte	40
 1758 04ca 80       		.byte	-128
 1759 04cb 80       		.byte	-128
 1760 04cc 81       		.byte	-127
 1761 04cd 80       		.byte	-128
 1762 04ce 85       		.byte	-123
 1763 04cf 02       		.byte	2
 1764 04d0 8B       		.byte	-117
 1765 04d1 20       		.byte	32
 1766 04d2 8E       		.byte	-114
 1767 04d3 80       		.byte	-128
 1768 04d4 90       		.byte	-112
 1769 04d5 04       		.byte	4
 1770 04d6 92       		.byte	-110
 1771 04d7 40       		.byte	64
 1772 04d8 96       		.byte	-106
 1773 04d9 08       		.byte	8
 1774 04da 99       		.byte	-103
 1775 04db 08       		.byte	8
 1776 04dc 9A       		.byte	-102
 1777 04dd B0       		.byte	-80
 1778 04de 9B       		.byte	-101
 1779 04df 46       		.byte	70
 1780 04e0 9D       		.byte	-99
 1781 04e1 06       		.byte	6
 1782 04e2 9F       		.byte	-97
 1783 04e3 10       		.byte	16
 1784 04e4 A4       		.byte	-92
 1785 04e5 05       		.byte	5
 1786 04e6 A5       		.byte	-91
 1787 04e7 20       		.byte	32
 1788 04e8 A8       		.byte	-88
 1789 04e9 04       		.byte	4
 1790 04ea AF       		.byte	-81
 1791 04eb 20       		.byte	32
 1792 04ec B0       		.byte	-80
 1793 04ed 10       		.byte	16
 1794 04ee B2       		.byte	-78
 1795 04ef 05       		.byte	5
 1796 04f0 B3       		.byte	-77
 1797 04f1 01       		.byte	1
 1798 04f2 B4       		.byte	-76
 1799 04f3 04       		.byte	4
 1800 04f4 B6       		.byte	-74
 1801 04f5 40       		.byte	64
ARM GAS  C:\Users\aupen\AppData\Local\Temp\ccogqXvD.s 			page 61


 1802 04f6 C0       		.byte	-64
 1803 04f7 BB       		.byte	-69
 1804 04f8 C2       		.byte	-62
 1805 04f9 1F       		.byte	31
 1806 04fa C4       		.byte	-60
 1807 04fb 7C       		.byte	124
 1808 04fc CA       		.byte	-54
 1809 04fd 5A       		.byte	90
 1810 04fe CC       		.byte	-52
 1811 04ff DB       		.byte	-37
 1812 0500 CE       		.byte	-50
 1813 0501 36       		.byte	54
 1814 0502 D6       		.byte	-42
 1815 0503 18       		.byte	24
 1816 0504 D8       		.byte	-40
 1817 0505 18       		.byte	24
 1818 0506 E2       		.byte	-30
 1819 0507 C0       		.byte	-64
 1820 0508 E8       		.byte	-24
 1821 0509 11       		.byte	17
 1822 050a 09       		.byte	9
 1823 050b 01       		.byte	1
 1824 050c 0D       		.byte	13
 1825 050d 01       		.byte	1
 1826 050e 13       		.byte	19
 1827 050f 01       		.byte	1
 1828 0510 15       		.byte	21
 1829 0511 01       		.byte	1
 1830 0512 1D       		.byte	29
 1831 0513 01       		.byte	1
 1832 0514 25       		.byte	37
 1833 0515 01       		.byte	1
 1834 0516 2F       		.byte	47
 1835 0517 01       		.byte	1
 1836 0518 35       		.byte	53
 1837 0519 01       		.byte	1
 1838 051a 56       		.byte	86
 1839 051b 08       		.byte	8
 1840 051c 58       		.byte	88
 1841 051d 04       		.byte	4
 1842 051e 59       		.byte	89
 1843 051f 04       		.byte	4
 1844 0520 5B       		.byte	91
 1845 0521 04       		.byte	4
 1846 0522 5D       		.byte	93
 1847 0523 90       		.byte	-112
 1848 0524 5F       		.byte	95
 1849 0525 01       		.byte	1
 1850 0526 80       		.byte	-128
 1851 0527 0C       		.byte	12
 1852 0528 84       		.byte	-124
 1853 0529 03       		.byte	3
 1854 052a 8E       		.byte	-114
 1855 052b 04       		.byte	4
 1856 052c 96       		.byte	-106
 1857 052d 10       		.byte	16
 1858 052e 98       		.byte	-104
ARM GAS  C:\Users\aupen\AppData\Local\Temp\ccogqXvD.s 			page 62


 1859 052f 30       		.byte	48
 1860 0530 9E       		.byte	-98
 1861 0531 01       		.byte	1
 1862 0532 A0       		.byte	-96
 1863 0533 02       		.byte	2
 1864 0534 A8       		.byte	-88
 1865 0535 20       		.byte	32
 1866 0536 AC       		.byte	-84
 1867 0537 08       		.byte	8
 1868 0538 B0       		.byte	-80
 1869 0539 0C       		.byte	12
 1870 053a B2       		.byte	-78
 1871 053b 30       		.byte	48
 1872 053c B6       		.byte	-74
 1873 053d 03       		.byte	3
 1874 053e D8       		.byte	-40
 1875 053f 04       		.byte	4
 1876 0540 D9       		.byte	-39
 1877 0541 04       		.byte	4
 1878 0542 DB       		.byte	-37
 1879 0543 04       		.byte	4
 1880 0544 DC       		.byte	-36
 1881 0545 09       		.byte	9
 1882 0546 DF       		.byte	-33
 1883 0547 01       		.byte	1
 1884 0548 00       		.byte	0
 1885 0549 4A       		.byte	74
 1886 054a 05       		.byte	5
 1887 054b 08       		.byte	8
 1888 054c 07       		.byte	7
 1889 054d 42       		.byte	66
 1890 054e 09       		.byte	9
 1891 054f 20       		.byte	32
 1892 0550 0A       		.byte	10
 1893 0551 12       		.byte	18
 1894 0552 0E       		.byte	14
 1895 0553 40       		.byte	64
 1896 0554 10       		.byte	16
 1897 0555 01       		.byte	1
 1898 0556 12       		.byte	18
 1899 0557 44       		.byte	68
 1900 0558 14       		.byte	20
 1901 0559 08       		.byte	8
 1902 055a 16       		.byte	22
 1903 055b 80       		.byte	-128
 1904 055c 17       		.byte	23
 1905 055d 04       		.byte	4
 1906 055e 18       		.byte	24
 1907 055f 40       		.byte	64
 1908 0560 1A       		.byte	26
 1909 0561 92       		.byte	-110
 1910 0562 1B       		.byte	27
 1911 0563 04       		.byte	4
 1912 0564 24       		.byte	36
 1913 0565 08       		.byte	8
 1914 0566 28       		.byte	40
 1915 0567 08       		.byte	8
ARM GAS  C:\Users\aupen\AppData\Local\Temp\ccogqXvD.s 			page 63


 1916 0568 29       		.byte	41
 1917 0569 08       		.byte	8
 1918 056a 2A       		.byte	42
 1919 056b 80       		.byte	-128
 1920 056c 2D       		.byte	45
 1921 056d 08       		.byte	8
 1922 056e 2E       		.byte	46
 1923 056f 40       		.byte	64
 1924 0570 31       		.byte	49
 1925 0571 01       		.byte	1
 1926 0572 33       		.byte	51
 1927 0573 44       		.byte	68
 1928 0574 35       		.byte	53
 1929 0575 01       		.byte	1
 1930 0576 37       		.byte	55
 1931 0577 46       		.byte	70
 1932 0578 38       		.byte	56
 1933 0579 04       		.byte	4
 1934 057a 3E       		.byte	62
 1935 057b A0       		.byte	-96
 1936 057c 58       		.byte	88
 1937 057d 10       		.byte	16
 1938 057e 59       		.byte	89
 1939 057f 02       		.byte	2
 1940 0580 5A       		.byte	90
 1941 0581 84       		.byte	-124
 1942 0582 5C       		.byte	92
 1943 0583 80       		.byte	-128
 1944 0584 5F       		.byte	95
 1945 0585 28       		.byte	40
 1946 0586 61       		.byte	97
 1947 0587 04       		.byte	4
 1948 0588 63       		.byte	99
 1949 0589 0A       		.byte	10
 1950 058a 64       		.byte	100
 1951 058b 01       		.byte	1
 1952 058c 66       		.byte	102
 1953 058d 14       		.byte	20
 1954 058e 80       		.byte	-128
 1955 058f 01       		.byte	1
 1956 0590 8B       		.byte	-117
 1957 0591 08       		.byte	8
 1958 0592 8C       		.byte	-116
 1959 0593 80       		.byte	-128
 1960 0594 8E       		.byte	-114
 1961 0595 20       		.byte	32
 1962 0596 92       		.byte	-110
 1963 0597 44       		.byte	68
 1964 0598 94       		.byte	-108
 1965 0599 01       		.byte	1
 1966 059a 98       		.byte	-104
 1967 059b 08       		.byte	8
 1968 059c 99       		.byte	-103
 1969 059d 08       		.byte	8
 1970 059e 9A       		.byte	-102
 1971 059f E0       		.byte	-32
 1972 05a0 9B       		.byte	-101
ARM GAS  C:\Users\aupen\AppData\Local\Temp\ccogqXvD.s 			page 64


 1973 05a1 46       		.byte	70
 1974 05a2 9F       		.byte	-97
 1975 05a3 10       		.byte	16
 1976 05a4 A9       		.byte	-87
 1977 05a5 08       		.byte	8
 1978 05a6 AB       		.byte	-85
 1979 05a7 80       		.byte	-128
 1980 05a8 B0       		.byte	-80
 1981 05a9 01       		.byte	1
 1982 05aa B5       		.byte	-75
 1983 05ab 08       		.byte	8
 1984 05ac C0       		.byte	-64
 1985 05ad BD       		.byte	-67
 1986 05ae C2       		.byte	-62
 1987 05af 17       		.byte	23
 1988 05b0 C4       		.byte	-60
 1989 05b1 7B       		.byte	123
 1990 05b2 CA       		.byte	-54
 1991 05b3 5E       		.byte	94
 1992 05b4 CC       		.byte	-52
 1993 05b5 DB       		.byte	-37
 1994 05b6 CE       		.byte	-50
 1995 05b7 32       		.byte	50
 1996 05b8 D6       		.byte	-42
 1997 05b9 7F       		.byte	127
 1998 05ba D8       		.byte	-40
 1999 05bb 7E       		.byte	126
 2000 05bc E0       		.byte	-32
 2001 05bd 10       		.byte	16
 2002 05be E2       		.byte	-30
 2003 05bf 09       		.byte	9
 2004 05c0 E4       		.byte	-28
 2005 05c1 80       		.byte	-128
 2006 05c2 E8       		.byte	-24
 2007 05c3 10       		.byte	16
 2008 05c4 EA       		.byte	-22
 2009 05c5 04       		.byte	4
 2010 05c6 40       		.byte	64
 2011 05c7 06       		.byte	6
 2012 05c8 46       		.byte	70
 2013 05c9 20       		.byte	32
 2014 05ca 48       		.byte	72
 2015 05cb 08       		.byte	8
 2016 05cc 49       		.byte	73
 2017 05cd FF       		.byte	-1
 2018 05ce 4A       		.byte	74
 2019 05cf FF       		.byte	-1
 2020 05d0 4B       		.byte	75
 2021 05d1 FF       		.byte	-1
 2022 05d2 4D       		.byte	77
 2023 05d3 A0       		.byte	-96
 2024 05d4 50       		.byte	80
 2025 05d5 08       		.byte	8
 2026 05d6 56       		.byte	86
 2027 05d7 08       		.byte	8
 2028 05d8 58       		.byte	88
 2029 05d9 04       		.byte	4
ARM GAS  C:\Users\aupen\AppData\Local\Temp\ccogqXvD.s 			page 65


 2030 05da 59       		.byte	89
 2031 05db 04       		.byte	4
 2032 05dc 5A       		.byte	90
 2033 05dd 04       		.byte	4
 2034 05de 5B       		.byte	91
 2035 05df 04       		.byte	4
 2036 05e0 5D       		.byte	93
 2037 05e1 92       		.byte	-110
 2038 05e2 5F       		.byte	95
 2039 05e3 01       		.byte	1
 2040 05e4 60       		.byte	96
 2041 05e5 80       		.byte	-128
 2042 05e6 62       		.byte	98
 2043 05e7 40       		.byte	64
 2044 05e8 63       		.byte	99
 2045 05e9 40       		.byte	64
 2046 05ea 64       		.byte	100
 2047 05eb 40       		.byte	64
 2048 05ec 66       		.byte	102
 2049 05ed 40       		.byte	64
 2050 05ee 68       		.byte	104
 2051 05ef 40       		.byte	64
 2052 05f0 6A       		.byte	106
 2053 05f1 40       		.byte	64
 2054 05f2 6C       		.byte	108
 2055 05f3 40       		.byte	64
 2056 05f4 6E       		.byte	110
 2057 05f5 40       		.byte	64
 2058 05f6 82       		.byte	-126
 2059 05f7 05       		.byte	5
 2060 05f8 84       		.byte	-124
 2061 05f9 02       		.byte	2
 2062 05fa 93       		.byte	-109
 2063 05fb 01       		.byte	1
 2064 05fc 95       		.byte	-107
 2065 05fd 01       		.byte	1
 2066 05fe 96       		.byte	-106
 2067 05ff 01       		.byte	1
 2068 0600 98       		.byte	-104
 2069 0601 05       		.byte	5
 2070 0602 9A       		.byte	-102
 2071 0603 02       		.byte	2
 2072 0604 A6       		.byte	-90
 2073 0605 04       		.byte	4
 2074 0606 AA       		.byte	-86
 2075 0607 08       		.byte	8
 2076 0608 B0       		.byte	-80
 2077 0609 01       		.byte	1
 2078 060a B1       		.byte	-79
 2079 060b 01       		.byte	1
 2080 060c B2       		.byte	-78
 2081 060d 04       		.byte	4
 2082 060e B4       		.byte	-76
 2083 060f 02       		.byte	2
 2084 0610 B6       		.byte	-74
 2085 0611 08       		.byte	8
 2086 0612 C0       		.byte	-64
ARM GAS  C:\Users\aupen\AppData\Local\Temp\ccogqXvD.s 			page 66


 2087 0613 10       		.byte	16
 2088 0614 C1       		.byte	-63
 2089 0615 06       		.byte	6
 2090 0616 C5       		.byte	-59
 2091 0617 01       		.byte	1
 2092 0618 C6       		.byte	-58
 2093 0619 50       		.byte	80
 2094 061a C7       		.byte	-57
 2095 061b 02       		.byte	2
 2096 061c C8       		.byte	-56
 2097 061d 19       		.byte	25
 2098 061e C9       		.byte	-55
 2099 061f FF       		.byte	-1
 2100 0620 CA       		.byte	-54
 2101 0621 FF       		.byte	-1
 2102 0622 CB       		.byte	-53
 2103 0623 FF       		.byte	-1
 2104 0624 CD       		.byte	-51
 2105 0625 A0       		.byte	-96
 2106 0626 CF       		.byte	-49
 2107 0627 04       		.byte	4
 2108 0628 D0       		.byte	-48
 2109 0629 18       		.byte	24
 2110 062a D8       		.byte	-40
 2111 062b 04       		.byte	4
 2112 062c D9       		.byte	-39
 2113 062d 04       		.byte	4
 2114 062e DA       		.byte	-38
 2115 062f 04       		.byte	4
 2116 0630 DB       		.byte	-37
 2117 0631 04       		.byte	4
 2118 0632 DC       		.byte	-36
 2119 0633 22       		.byte	34
 2120 0634 DD       		.byte	-35
 2121 0635 02       		.byte	2
 2122 0636 DF       		.byte	-33
 2123 0637 01       		.byte	1
 2124 0638 E0       		.byte	-32
 2125 0639 40       		.byte	64
 2126 063a E2       		.byte	-30
 2127 063b C0       		.byte	-64
 2128 063c E4       		.byte	-28
 2129 063d 40       		.byte	64
 2130 063e E5       		.byte	-27
 2131 063f 40       		.byte	64
 2132 0640 E6       		.byte	-26
 2133 0641 C0       		.byte	-64
 2134 0642 E8       		.byte	-24
 2135 0643 C0       		.byte	-64
 2136 0644 EA       		.byte	-22
 2137 0645 C0       		.byte	-64
 2138 0646 EC       		.byte	-20
 2139 0647 C0       		.byte	-64
 2140 0648 EE       		.byte	-18
 2141 0649 C0       		.byte	-64
 2142 064a 00       		.byte	0
 2143 064b 01       		.byte	1
ARM GAS  C:\Users\aupen\AppData\Local\Temp\ccogqXvD.s 			page 67


 2144 064c 03       		.byte	3
 2145 064d 20       		.byte	32
 2146 064e 04       		.byte	4
 2147 064f 40       		.byte	64
 2148 0650 05       		.byte	5
 2149 0651 28       		.byte	40
 2150 0652 07       		.byte	7
 2151 0653 10       		.byte	16
 2152 0654 0A       		.byte	10
 2153 0655 04       		.byte	4
 2154 0656 0B       		.byte	11
 2155 0657 20       		.byte	32
 2156 0658 0F       		.byte	15
 2157 0659 88       		.byte	-120
 2158 065a 10       		.byte	16
 2159 065b 20       		.byte	32
 2160 065c 12       		.byte	18
 2161 065d 08       		.byte	8
 2162 065e 14       		.byte	20
 2163 065f 40       		.byte	64
 2164 0660 15       		.byte	21
 2165 0661 04       		.byte	4
 2166 0662 16       		.byte	22
 2167 0663 10       		.byte	16
 2168 0664 18       		.byte	24
 2169 0665 01       		.byte	1
 2170 0666 19       		.byte	25
 2171 0667 02       		.byte	2
 2172 0668 1A       		.byte	26
 2173 0669 24       		.byte	36
 2174 066a 1B       		.byte	27
 2175 066b 10       		.byte	16
 2176 066c 21       		.byte	33
 2177 066d 02       		.byte	2
 2178 066e 2C       		.byte	44
 2179 066f 40       		.byte	64
 2180 0670 2D       		.byte	45
 2181 0671 24       		.byte	36
 2182 0672 2E       		.byte	46
 2183 0673 20       		.byte	32
 2184 0674 30       		.byte	48
 2185 0675 08       		.byte	8
 2186 0676 31       		.byte	49
 2187 0677 02       		.byte	2
 2188 0678 35       		.byte	53
 2189 0679 88       		.byte	-120
 2190 067a 3C       		.byte	60
 2191 067b 40       		.byte	64
 2192 067c 3F       		.byte	63
 2193 067d 08       		.byte	8
 2194 067e 40       		.byte	64
 2195 067f 01       		.byte	1
 2196 0680 48       		.byte	72
 2197 0681 28       		.byte	40
 2198 0682 4F       		.byte	79
 2199 0683 20       		.byte	32
 2200 0684 50       		.byte	80
ARM GAS  C:\Users\aupen\AppData\Local\Temp\ccogqXvD.s 			page 68


 2201 0685 08       		.byte	8
 2202 0686 53       		.byte	83
 2203 0687 10       		.byte	16
 2204 0688 57       		.byte	87
 2205 0689 20       		.byte	32
 2206 068a 58       		.byte	88
 2207 068b 80       		.byte	-128
 2208 068c 5F       		.byte	95
 2209 068d 80       		.byte	-128
 2210 068e 67       		.byte	103
 2211 068f 01       		.byte	1
 2212 0690 69       		.byte	105
 2213 0691 28       		.byte	40
 2214 0692 6A       		.byte	106
 2215 0693 01       		.byte	1
 2216 0694 6B       		.byte	107
 2217 0695 01       		.byte	1
 2218 0696 83       		.byte	-125
 2219 0697 01       		.byte	1
 2220 0698 87       		.byte	-121
 2221 0699 01       		.byte	1
 2222 069a 8F       		.byte	-113
 2223 069b 10       		.byte	16
 2224 069c 90       		.byte	-112
 2225 069d 40       		.byte	64
 2226 069e 96       		.byte	-106
 2227 069f 20       		.byte	32
 2228 06a0 98       		.byte	-104
 2229 06a1 40       		.byte	64
 2230 06a2 9A       		.byte	-102
 2231 06a3 30       		.byte	48
 2232 06a4 9B       		.byte	-101
 2233 06a5 80       		.byte	-128
 2234 06a6 A2       		.byte	-94
 2235 06a7 08       		.byte	8
 2236 06a8 A3       		.byte	-93
 2237 06a9 04       		.byte	4
 2238 06aa A9       		.byte	-87
 2239 06ab 80       		.byte	-128
 2240 06ac B0       		.byte	-80
 2241 06ad 40       		.byte	64
 2242 06ae B4       		.byte	-76
 2243 06af 40       		.byte	64
 2244 06b0 C0       		.byte	-64
 2245 06b1 EC       		.byte	-20
 2246 06b2 C2       		.byte	-62
 2247 06b3 56       		.byte	86
 2248 06b4 C4       		.byte	-60
 2249 06b5 36       		.byte	54
 2250 06b6 CA       		.byte	-54
 2251 06b7 E0       		.byte	-32
 2252 06b8 CC       		.byte	-52
 2253 06b9 53       		.byte	83
 2254 06ba CE       		.byte	-50
 2255 06bb 50       		.byte	80
 2256 06bc D0       		.byte	-48
 2257 06bd 08       		.byte	8
ARM GAS  C:\Users\aupen\AppData\Local\Temp\ccogqXvD.s 			page 69


 2258 06be D2       		.byte	-46
 2259 06bf 24       		.byte	36
 2260 06c0 D6       		.byte	-42
 2261 06c1 18       		.byte	24
 2262 06c2 D8       		.byte	-40
 2263 06c3 10       		.byte	16
 2264 06c4 E0       		.byte	-32
 2265 06c5 02       		.byte	2
 2266 06c6 E2       		.byte	-30
 2267 06c7 08       		.byte	8
 2268 06c8 E4       		.byte	-28
 2269 06c9 40       		.byte	64
 2270 06ca E8       		.byte	-24
 2271 06cb D0       		.byte	-48
 2272 06cc 89       		.byte	-119
 2273 06cd 04       		.byte	4
 2274 06ce 91       		.byte	-111
 2275 06cf 08       		.byte	8
 2276 06d0 AD       		.byte	-83
 2277 06d1 02       		.byte	2
 2278 06d2 B0       		.byte	-80
 2279 06d3 80       		.byte	-128
 2280 06d4 B1       		.byte	-79
 2281 06d5 10       		.byte	16
 2282 06d6 B2       		.byte	-78
 2283 06d7 01       		.byte	1
 2284 06d8 B5       		.byte	-75
 2285 06d9 80       		.byte	-128
 2286 06da B7       		.byte	-73
 2287 06db 40       		.byte	64
 2288 06dc E8       		.byte	-24
 2289 06dd 11       		.byte	17
 2290 06de EC       		.byte	-20
 2291 06df 48       		.byte	72
 2292 06e0 13       		.byte	19
 2293 06e1 04       		.byte	4
 2294 06e2 16       		.byte	22
 2295 06e3 80       		.byte	-128
 2296 06e4 30       		.byte	48
 2297 06e5 02       		.byte	2
 2298 06e6 33       		.byte	51
 2299 06e7 80       		.byte	-128
 2300 06e8 34       		.byte	52
 2301 06e9 08       		.byte	8
 2302 06ea 36       		.byte	54
 2303 06eb 40       		.byte	64
 2304 06ec 38       		.byte	56
