ARM GAS  C:\Users\aupen\AppData\Local\Temp\cct0TTf9.s 			page 1


   1              		.syntax unified
   2              		.cpu cortex-m3
   3              		.fpu softvfp
   4              		.eabi_attribute 20, 1
   5              		.eabi_attribute 21, 1
   6              		.eabi_attribute 23, 3
   7              		.eabi_attribute 24, 1
   8              		.eabi_attribute 25, 1
   9              		.eabi_attribute 26, 1
  10              		.eabi_attribute 30, 4
  11              		.eabi_attribute 34, 1
  12              		.eabi_attribute 18, 4
  13              		.thumb
  14              		.syntax unified
  15              		.file	"cyPm.c"
  16              		.text
  17              	.Ltext0:
  18              		.cfi_sections	.debug_frame
  19              		.section	.text.CyPmHibSlpSaveSet,"ax",%progbits
  20              		.align	1
  21              		.thumb
  22              		.thumb_func
  23              		.type	CyPmHibSlpSaveSet, %function
  24              	CyPmHibSlpSaveSet:
  25              	.LFB12:
  26              		.file 1 "Generated_Source\\PSoC5\\cyPm.c"
   1:Generated_Source\PSoC5/cyPm.c **** /***************************************************************************//**
   2:Generated_Source\PSoC5/cyPm.c **** * \file cyPm.c
   3:Generated_Source\PSoC5/cyPm.c **** * \version 5.60
   4:Generated_Source\PSoC5/cyPm.c **** *
   5:Generated_Source\PSoC5/cyPm.c **** * \brief Provides an API for the power management.
   6:Generated_Source\PSoC5/cyPm.c **** *
   7:Generated_Source\PSoC5/cyPm.c **** * \note Documentation of the API's in this file is located in the
   8:Generated_Source\PSoC5/cyPm.c **** *  System Reference Guide provided with PSoC Creator.
   9:Generated_Source\PSoC5/cyPm.c **** *
  10:Generated_Source\PSoC5/cyPm.c **** ********************************************************************************
  11:Generated_Source\PSoC5/cyPm.c **** * \copyright
  12:Generated_Source\PSoC5/cyPm.c **** * Copyright 2008-2017, Cypress Semiconductor Corporation.  All rights reserved.
  13:Generated_Source\PSoC5/cyPm.c **** * You may use this file only in accordance with the license, terms, conditions,
  14:Generated_Source\PSoC5/cyPm.c **** * disclaimers, and limitations in the end user license agreement accompanying
  15:Generated_Source\PSoC5/cyPm.c **** * the software package with which this file was provided.
  16:Generated_Source\PSoC5/cyPm.c **** *******************************************************************************/
  17:Generated_Source\PSoC5/cyPm.c **** 
  18:Generated_Source\PSoC5/cyPm.c **** #include "cyPm.h"
  19:Generated_Source\PSoC5/cyPm.c **** #include "cyapicallbacks.h"
  20:Generated_Source\PSoC5/cyPm.c **** 
  21:Generated_Source\PSoC5/cyPm.c **** 
  22:Generated_Source\PSoC5/cyPm.c **** /*******************************************************************
  23:Generated_Source\PSoC5/cyPm.c **** * Place your includes, defines, and code here. Do not use the merge
  24:Generated_Source\PSoC5/cyPm.c **** * region below unless any component datasheet suggests doing so.
  25:Generated_Source\PSoC5/cyPm.c **** *******************************************************************/
  26:Generated_Source\PSoC5/cyPm.c **** /* `#START CY_PM_HEADER_INCLUDE` */
  27:Generated_Source\PSoC5/cyPm.c **** 
  28:Generated_Source\PSoC5/cyPm.c **** /* `#END` */
  29:Generated_Source\PSoC5/cyPm.c **** 
  30:Generated_Source\PSoC5/cyPm.c **** 
  31:Generated_Source\PSoC5/cyPm.c **** static CY_PM_BACKUP_STRUCT          cyPmBackup;
ARM GAS  C:\Users\aupen\AppData\Local\Temp\cct0TTf9.s 			page 2


  32:Generated_Source\PSoC5/cyPm.c **** static CY_PM_CLOCK_BACKUP_STRUCT    cyPmClockBackup;
  33:Generated_Source\PSoC5/cyPm.c **** 
  34:Generated_Source\PSoC5/cyPm.c **** /* Convertion table between register's values and frequency in MHz  */
  35:Generated_Source\PSoC5/cyPm.c **** static const uint8 CYCODE cyPmImoFreqReg2Mhz[7u] = {12u, 6u, 24u, 3u, 48u, 62u, 74u};
  36:Generated_Source\PSoC5/cyPm.c **** 
  37:Generated_Source\PSoC5/cyPm.c **** /* Function Prototypes */
  38:Generated_Source\PSoC5/cyPm.c **** static void CyPmHibSaveSet(void);
  39:Generated_Source\PSoC5/cyPm.c **** static void CyPmHibRestore(void) ;
  40:Generated_Source\PSoC5/cyPm.c **** 
  41:Generated_Source\PSoC5/cyPm.c **** static void CyPmHibSlpSaveSet(void) ;
  42:Generated_Source\PSoC5/cyPm.c **** static void CyPmHibSlpRestore(void) ;
  43:Generated_Source\PSoC5/cyPm.c **** 
  44:Generated_Source\PSoC5/cyPm.c **** static void CyPmHviLviSaveDisable(void) ;
  45:Generated_Source\PSoC5/cyPm.c **** static void CyPmHviLviRestore(void) ;
  46:Generated_Source\PSoC5/cyPm.c **** 
  47:Generated_Source\PSoC5/cyPm.c **** 
  48:Generated_Source\PSoC5/cyPm.c **** /*******************************************************************************
  49:Generated_Source\PSoC5/cyPm.c **** * Function Name: CyPmSaveClocks
  50:Generated_Source\PSoC5/cyPm.c **** ****************************************************************************//**
  51:Generated_Source\PSoC5/cyPm.c **** *
  52:Generated_Source\PSoC5/cyPm.c **** *  This function is called in preparation for entering sleep or hibernate low
  53:Generated_Source\PSoC5/cyPm.c **** *  power modes. Saves all the states of the clocking system that do not persist
  54:Generated_Source\PSoC5/cyPm.c **** *  during sleep/hibernate or that need to be altered in preparation for
  55:Generated_Source\PSoC5/cyPm.c **** *  sleep/hibernate. Shutdowns all the digital and analog clock dividers for the
  56:Generated_Source\PSoC5/cyPm.c **** *  active power mode configuration.
  57:Generated_Source\PSoC5/cyPm.c **** *
  58:Generated_Source\PSoC5/cyPm.c **** *  Switches the master clock over to the IMO and shuts down the PLL and MHz
  59:Generated_Source\PSoC5/cyPm.c **** *  Crystal. The IMO frequency is set to either 12 MHz or 48 MHz to match the
  60:Generated_Source\PSoC5/cyPm.c **** *  Design-Wide Resources System Editor "Enable Fast IMO During Startup" setting.
  61:Generated_Source\PSoC5/cyPm.c **** *  The ILO and 32 KHz oscillators are not impacted. The current Flash wait state
  62:Generated_Source\PSoC5/cyPm.c **** *  setting is saved and the Flash wait state setting is set for the current IMO
  63:Generated_Source\PSoC5/cyPm.c **** *  speed.
  64:Generated_Source\PSoC5/cyPm.c **** *
  65:Generated_Source\PSoC5/cyPm.c **** *  Note If the Master Clock source is routed through the DSI inputs, then it
  66:Generated_Source\PSoC5/cyPm.c **** *  must be set manually to another source before using the
  67:Generated_Source\PSoC5/cyPm.c **** *  CyPmSaveClocks()/CyPmRestoreClocks() functions.
  68:Generated_Source\PSoC5/cyPm.c **** *
  69:Generated_Source\PSoC5/cyPm.c **** * \sideeffect
  70:Generated_Source\PSoC5/cyPm.c **** *  All peripheral clocks are going to be off after this API method call.
  71:Generated_Source\PSoC5/cyPm.c **** *
  72:Generated_Source\PSoC5/cyPm.c **** *******************************************************************************/
  73:Generated_Source\PSoC5/cyPm.c **** void CyPmSaveClocks(void) 
  74:Generated_Source\PSoC5/cyPm.c **** {
  75:Generated_Source\PSoC5/cyPm.c ****     /* Digital and analog clocks - save enable state and disable them all */
  76:Generated_Source\PSoC5/cyPm.c ****     cyPmClockBackup.enClkA = CY_PM_ACT_CFG1_REG & CY_PM_ACT_EN_CLK_A_MASK;
  77:Generated_Source\PSoC5/cyPm.c ****     cyPmClockBackup.enClkD = CY_PM_ACT_CFG2_REG;
  78:Generated_Source\PSoC5/cyPm.c ****     CY_PM_ACT_CFG1_REG &= ((uint8)(~CY_PM_ACT_EN_CLK_A_MASK));
  79:Generated_Source\PSoC5/cyPm.c ****     CY_PM_ACT_CFG2_REG &= ((uint8)(~CY_PM_ACT_EN_CLK_D_MASK));
  80:Generated_Source\PSoC5/cyPm.c **** 
  81:Generated_Source\PSoC5/cyPm.c ****     /* Save current flash wait cycles and set the maximum value */
  82:Generated_Source\PSoC5/cyPm.c ****     cyPmClockBackup.flashWaitCycles = CY_PM_CACHE_CR_CYCLES_MASK & CY_PM_CACHE_CR_REG;
  83:Generated_Source\PSoC5/cyPm.c ****     CyFlash_SetWaitCycles(CY_PM_MAX_FLASH_WAIT_CYCLES);
  84:Generated_Source\PSoC5/cyPm.c **** 
  85:Generated_Source\PSoC5/cyPm.c ****     /* IMO - save current IMO MHz OSC frequency and USB mode is on bit */
  86:Generated_Source\PSoC5/cyPm.c ****     cyPmClockBackup.imoFreq = CY_PM_FASTCLK_IMO_CR_REG & CY_PM_FASTCLK_IMO_CR_FREQ_MASK;
  87:Generated_Source\PSoC5/cyPm.c ****     cyPmClockBackup.imoUsbClk = CY_PM_FASTCLK_IMO_CR_REG & CY_PM_FASTCLK_IMO_CR_USB;
  88:Generated_Source\PSoC5/cyPm.c **** 
ARM GAS  C:\Users\aupen\AppData\Local\Temp\cct0TTf9.s 			page 3


  89:Generated_Source\PSoC5/cyPm.c ****     /* IMO doubler - save enable state */
  90:Generated_Source\PSoC5/cyPm.c ****     if(0u != (CY_PM_FASTCLK_IMO_CR_REG & CY_PM_FASTCLK_IMO_CR_F2XON))
  91:Generated_Source\PSoC5/cyPm.c ****     {
  92:Generated_Source\PSoC5/cyPm.c ****         /* IMO doubler enabled - save and disable */
  93:Generated_Source\PSoC5/cyPm.c ****         cyPmClockBackup.imo2x = CY_PM_ENABLED;
  94:Generated_Source\PSoC5/cyPm.c ****     }
  95:Generated_Source\PSoC5/cyPm.c ****     else
  96:Generated_Source\PSoC5/cyPm.c ****     {
  97:Generated_Source\PSoC5/cyPm.c ****         /* IMO doubler disabled */
  98:Generated_Source\PSoC5/cyPm.c ****         cyPmClockBackup.imo2x = CY_PM_DISABLED;
  99:Generated_Source\PSoC5/cyPm.c ****     }
 100:Generated_Source\PSoC5/cyPm.c **** 
 101:Generated_Source\PSoC5/cyPm.c ****     /* Master clock - save source */
 102:Generated_Source\PSoC5/cyPm.c ****     cyPmClockBackup.masterClkSrc = CY_PM_CLKDIST_MSTR1_REG & CY_PM_MASTER_CLK_SRC_MASK;
 103:Generated_Source\PSoC5/cyPm.c **** 
 104:Generated_Source\PSoC5/cyPm.c ****     /* Switch Master clock's source from PLL's output to PLL's source */
 105:Generated_Source\PSoC5/cyPm.c ****     if(CY_MASTER_SOURCE_PLL == cyPmClockBackup.masterClkSrc)
 106:Generated_Source\PSoC5/cyPm.c ****     {
 107:Generated_Source\PSoC5/cyPm.c ****         switch (CY_PM_CLKDIST_CR_REG & CY_PM_CLKDIST_PLL_SRC_MASK)
 108:Generated_Source\PSoC5/cyPm.c ****         {
 109:Generated_Source\PSoC5/cyPm.c ****         case CY_PM_CLKDIST_PLL_SRC_IMO:
 110:Generated_Source\PSoC5/cyPm.c ****             CyMasterClk_SetSource(CY_MASTER_SOURCE_IMO);
 111:Generated_Source\PSoC5/cyPm.c ****             break;
 112:Generated_Source\PSoC5/cyPm.c **** 
 113:Generated_Source\PSoC5/cyPm.c ****         case CY_PM_CLKDIST_PLL_SRC_XTAL:
 114:Generated_Source\PSoC5/cyPm.c ****             CyMasterClk_SetSource(CY_MASTER_SOURCE_XTAL);
 115:Generated_Source\PSoC5/cyPm.c ****             break;
 116:Generated_Source\PSoC5/cyPm.c **** 
 117:Generated_Source\PSoC5/cyPm.c ****         case CY_PM_CLKDIST_PLL_SRC_DSI:
 118:Generated_Source\PSoC5/cyPm.c ****             CyMasterClk_SetSource(CY_MASTER_SOURCE_DSI);
 119:Generated_Source\PSoC5/cyPm.c ****             break;
 120:Generated_Source\PSoC5/cyPm.c **** 
 121:Generated_Source\PSoC5/cyPm.c ****         default:
 122:Generated_Source\PSoC5/cyPm.c ****             CYASSERT(0u != 0u);
 123:Generated_Source\PSoC5/cyPm.c ****             break;
 124:Generated_Source\PSoC5/cyPm.c ****         }
 125:Generated_Source\PSoC5/cyPm.c ****     }
 126:Generated_Source\PSoC5/cyPm.c **** 
 127:Generated_Source\PSoC5/cyPm.c ****     /* PLL - check enable state, disable if needed */
 128:Generated_Source\PSoC5/cyPm.c ****     if(0u != (CY_PM_FASTCLK_PLL_CFG0_REG & CY_PM_PLL_CFG0_ENABLE))
 129:Generated_Source\PSoC5/cyPm.c ****     {
 130:Generated_Source\PSoC5/cyPm.c ****         /* PLL is enabled - save state and disable */
 131:Generated_Source\PSoC5/cyPm.c ****         cyPmClockBackup.pllEnableState = CY_PM_ENABLED;
 132:Generated_Source\PSoC5/cyPm.c ****         CyPLL_OUT_Stop();
 133:Generated_Source\PSoC5/cyPm.c ****     }
 134:Generated_Source\PSoC5/cyPm.c ****     else
 135:Generated_Source\PSoC5/cyPm.c ****     {
 136:Generated_Source\PSoC5/cyPm.c ****         /* PLL is disabled - save state */
 137:Generated_Source\PSoC5/cyPm.c ****         cyPmClockBackup.pllEnableState = CY_PM_DISABLED;
 138:Generated_Source\PSoC5/cyPm.c ****     }
 139:Generated_Source\PSoC5/cyPm.c **** 
 140:Generated_Source\PSoC5/cyPm.c ****     /* IMO - set appropriate frequency for LPM */
 141:Generated_Source\PSoC5/cyPm.c ****     CyIMO_SetFreq(CY_PM_IMO_FREQ_LPM);
 142:Generated_Source\PSoC5/cyPm.c **** 
 143:Generated_Source\PSoC5/cyPm.c ****     /* IMO - save enable state and enable without wait to settle */
 144:Generated_Source\PSoC5/cyPm.c ****     if(0u != (CY_PM_ACT_CFG0_IMO & CY_PM_ACT_CFG0_REG))
 145:Generated_Source\PSoC5/cyPm.c ****     {
ARM GAS  C:\Users\aupen\AppData\Local\Temp\cct0TTf9.s 			page 4


 146:Generated_Source\PSoC5/cyPm.c ****         /* IMO - save enabled state */
 147:Generated_Source\PSoC5/cyPm.c ****         cyPmClockBackup.imoEnable = CY_PM_ENABLED;
 148:Generated_Source\PSoC5/cyPm.c ****     }
 149:Generated_Source\PSoC5/cyPm.c ****     else
 150:Generated_Source\PSoC5/cyPm.c ****     {
 151:Generated_Source\PSoC5/cyPm.c ****         /* IMO - save disabled state */
 152:Generated_Source\PSoC5/cyPm.c ****         cyPmClockBackup.imoEnable = CY_PM_DISABLED;
 153:Generated_Source\PSoC5/cyPm.c **** 
 154:Generated_Source\PSoC5/cyPm.c ****         /* Enable the IMO. Use software delay instead of the FTW-based inside */
 155:Generated_Source\PSoC5/cyPm.c ****         CyIMO_Start(CY_PM_IMO_NO_WAIT_TO_SETTLE);
 156:Generated_Source\PSoC5/cyPm.c **** 
 157:Generated_Source\PSoC5/cyPm.c ****         /* Settling time of the IMO is of the order of less than 6us */
 158:Generated_Source\PSoC5/cyPm.c ****         CyDelayUs(6u);
 159:Generated_Source\PSoC5/cyPm.c ****     }
 160:Generated_Source\PSoC5/cyPm.c **** 
 161:Generated_Source\PSoC5/cyPm.c ****     /* IMO - save the current IMOCLK source and set to IMO if not yet */
 162:Generated_Source\PSoC5/cyPm.c ****     if(0u != (CY_PM_FASTCLK_IMO_CR_REG & CY_PM_FASTCLK_IMO_CR_XCLKEN))
 163:Generated_Source\PSoC5/cyPm.c ****     {
 164:Generated_Source\PSoC5/cyPm.c ****         /* DSI or XTAL CLK */
 165:Generated_Source\PSoC5/cyPm.c ****         cyPmClockBackup.imoClkSrc =
 166:Generated_Source\PSoC5/cyPm.c ****             (0u == (CY_PM_CLKDIST_CR_REG & CY_PM_CLKDIST_IMO2X_SRC)) ? CY_IMO_SOURCE_DSI : CY_IMO_S
 167:Generated_Source\PSoC5/cyPm.c **** 
 168:Generated_Source\PSoC5/cyPm.c ****         /* IMO -  set IMOCLK source to IMO */
 169:Generated_Source\PSoC5/cyPm.c ****         CyIMO_SetSource(CY_IMO_SOURCE_IMO);
 170:Generated_Source\PSoC5/cyPm.c ****     }
 171:Generated_Source\PSoC5/cyPm.c ****     else
 172:Generated_Source\PSoC5/cyPm.c ****     {
 173:Generated_Source\PSoC5/cyPm.c ****         /* IMO */
 174:Generated_Source\PSoC5/cyPm.c ****         cyPmClockBackup.imoClkSrc = CY_IMO_SOURCE_IMO;
 175:Generated_Source\PSoC5/cyPm.c ****     }
 176:Generated_Source\PSoC5/cyPm.c **** 
 177:Generated_Source\PSoC5/cyPm.c ****     /* Save clk_imo source */
 178:Generated_Source\PSoC5/cyPm.c ****     cyPmClockBackup.clkImoSrc = CY_PM_CLKDIST_CR_REG & CY_PM_CLKDIST_IMO_OUT_MASK;
 179:Generated_Source\PSoC5/cyPm.c **** 
 180:Generated_Source\PSoC5/cyPm.c ****     /* If IMOCLK2X or SPC OSC is source for clk_imo, set it to IMOCLK */
 181:Generated_Source\PSoC5/cyPm.c ****     if(CY_PM_CLKDIST_IMO_OUT_IMO != cyPmClockBackup.clkImoSrc)
 182:Generated_Source\PSoC5/cyPm.c ****     {
 183:Generated_Source\PSoC5/cyPm.c ****         /* Set IMOCLK to source for clk_imo */
 184:Generated_Source\PSoC5/cyPm.c ****         CY_PM_CLKDIST_CR_REG = (CY_PM_CLKDIST_CR_REG & ((uint8)(~CY_PM_CLKDIST_IMO_OUT_MASK))) |
 185:Generated_Source\PSoC5/cyPm.c ****                                 CY_PM_CLKDIST_IMO_OUT_IMO;
 186:Generated_Source\PSoC5/cyPm.c ****     }    /* Need to change nothing if IMOCLK is source clk_imo */
 187:Generated_Source\PSoC5/cyPm.c **** 
 188:Generated_Source\PSoC5/cyPm.c ****     /* IMO doubler - disable it (saved above) */
 189:Generated_Source\PSoC5/cyPm.c ****     if(0u != (CY_PM_FASTCLK_IMO_CR_REG & CY_PM_FASTCLK_IMO_CR_F2XON))
 190:Generated_Source\PSoC5/cyPm.c ****     {
 191:Generated_Source\PSoC5/cyPm.c ****         CyIMO_DisableDoubler();
 192:Generated_Source\PSoC5/cyPm.c ****     }
 193:Generated_Source\PSoC5/cyPm.c **** 
 194:Generated_Source\PSoC5/cyPm.c ****     /* Master clock - save divider and set it to divide-by-one (if no yet) */
 195:Generated_Source\PSoC5/cyPm.c ****     cyPmClockBackup.clkSyncDiv = CY_PM_CLKDIST_MSTR0_REG;
 196:Generated_Source\PSoC5/cyPm.c ****     if(CY_PM_DIV_BY_ONE != cyPmClockBackup.clkSyncDiv)
 197:Generated_Source\PSoC5/cyPm.c ****     {
 198:Generated_Source\PSoC5/cyPm.c ****         CyMasterClk_SetDivider(CY_PM_DIV_BY_ONE);
 199:Generated_Source\PSoC5/cyPm.c ****     }    /* No change if master clock divider is 1 */
 200:Generated_Source\PSoC5/cyPm.c **** 
 201:Generated_Source\PSoC5/cyPm.c ****     /* Master clock source - set it to IMO if not yet. */
 202:Generated_Source\PSoC5/cyPm.c ****     if(CY_MASTER_SOURCE_IMO != cyPmClockBackup.masterClkSrc)
ARM GAS  C:\Users\aupen\AppData\Local\Temp\cct0TTf9.s 			page 5


 203:Generated_Source\PSoC5/cyPm.c ****     {
 204:Generated_Source\PSoC5/cyPm.c ****         CyMasterClk_SetSource(CY_MASTER_SOURCE_IMO);
 205:Generated_Source\PSoC5/cyPm.c ****     }    /* No change if master clock source is IMO */
 206:Generated_Source\PSoC5/cyPm.c **** 
 207:Generated_Source\PSoC5/cyPm.c ****     /* Bus clock - save divider and set it, if needed, to divide-by-one */
 208:Generated_Source\PSoC5/cyPm.c ****     cyPmClockBackup.clkBusDiv = (uint16) ((uint16) CY_PM_CLK_BUS_MSB_DIV_REG << 8u);
 209:Generated_Source\PSoC5/cyPm.c ****     cyPmClockBackup.clkBusDiv |= CY_PM_CLK_BUS_LSB_DIV_REG;
 210:Generated_Source\PSoC5/cyPm.c ****     if(CY_PM_BUS_CLK_DIV_BY_ONE != cyPmClockBackup.clkBusDiv)
 211:Generated_Source\PSoC5/cyPm.c ****     {
 212:Generated_Source\PSoC5/cyPm.c ****         CyBusClk_SetDivider(CY_PM_BUS_CLK_DIV_BY_ONE);
 213:Generated_Source\PSoC5/cyPm.c ****     }    /* Do nothing if saved and actual values are equal */
 214:Generated_Source\PSoC5/cyPm.c **** 
 215:Generated_Source\PSoC5/cyPm.c ****     /* Set number of wait cycles for flash according to CPU frequency in MHz */
 216:Generated_Source\PSoC5/cyPm.c ****     CyFlash_SetWaitCycles((uint8)CY_PM_GET_CPU_FREQ_MHZ);
 217:Generated_Source\PSoC5/cyPm.c **** 
 218:Generated_Source\PSoC5/cyPm.c ****     /* MHz ECO - check enable state and disable if needed */
 219:Generated_Source\PSoC5/cyPm.c ****     if(0u != (CY_PM_FASTCLK_XMHZ_CSR_REG & CY_PM_XMHZ_CSR_ENABLE))
 220:Generated_Source\PSoC5/cyPm.c ****     {
 221:Generated_Source\PSoC5/cyPm.c ****         /* MHz ECO is enabled - save state and disable */
 222:Generated_Source\PSoC5/cyPm.c ****         cyPmClockBackup.xmhzEnableState = CY_PM_ENABLED;
 223:Generated_Source\PSoC5/cyPm.c ****         CyXTAL_Stop();
 224:Generated_Source\PSoC5/cyPm.c ****     }
 225:Generated_Source\PSoC5/cyPm.c ****     else
 226:Generated_Source\PSoC5/cyPm.c ****     {
 227:Generated_Source\PSoC5/cyPm.c ****         /* MHz ECO is disabled - save state */
 228:Generated_Source\PSoC5/cyPm.c ****         cyPmClockBackup.xmhzEnableState = CY_PM_DISABLED;
 229:Generated_Source\PSoC5/cyPm.c ****     }
 230:Generated_Source\PSoC5/cyPm.c **** 
 231:Generated_Source\PSoC5/cyPm.c **** 
 232:Generated_Source\PSoC5/cyPm.c ****     /***************************************************************************
 233:Generated_Source\PSoC5/cyPm.c ****     * Save the enable state of delay between the system bus clock and each of the
 234:Generated_Source\PSoC5/cyPm.c ****     * 4 individual analog clocks. This bit non-retention and its value should
 235:Generated_Source\PSoC5/cyPm.c ****     * be restored on wakeup.
 236:Generated_Source\PSoC5/cyPm.c ****     ***************************************************************************/
 237:Generated_Source\PSoC5/cyPm.c ****     if(0u != (CY_PM_CLKDIST_DELAY_REG & CY_PM_CLKDIST_DELAY_EN))
 238:Generated_Source\PSoC5/cyPm.c ****     {
 239:Generated_Source\PSoC5/cyPm.c ****         cyPmClockBackup.clkDistDelay = CY_PM_ENABLED;
 240:Generated_Source\PSoC5/cyPm.c ****     }
 241:Generated_Source\PSoC5/cyPm.c ****     else
 242:Generated_Source\PSoC5/cyPm.c ****     {
 243:Generated_Source\PSoC5/cyPm.c ****         cyPmClockBackup.clkDistDelay = CY_PM_DISABLED;
 244:Generated_Source\PSoC5/cyPm.c ****     }
 245:Generated_Source\PSoC5/cyPm.c **** }
 246:Generated_Source\PSoC5/cyPm.c **** 
 247:Generated_Source\PSoC5/cyPm.c **** 
 248:Generated_Source\PSoC5/cyPm.c **** /*******************************************************************************
 249:Generated_Source\PSoC5/cyPm.c **** * Function Name: CyPmRestoreClocks
 250:Generated_Source\PSoC5/cyPm.c **** ****************************************************************************//**
 251:Generated_Source\PSoC5/cyPm.c **** *
 252:Generated_Source\PSoC5/cyPm.c **** *  Restores any state that was preserved by the last call to CyPmSaveClocks().
 253:Generated_Source\PSoC5/cyPm.c **** *  The Flash wait state setting is also restored.
 254:Generated_Source\PSoC5/cyPm.c **** *
 255:Generated_Source\PSoC5/cyPm.c **** *  Note If the Master Clock source is routed through the DSI inputs, then it
 256:Generated_Source\PSoC5/cyPm.c **** *  must be set manually to another source before using the
 257:Generated_Source\PSoC5/cyPm.c **** *  CyPmSaveClocks()/CyPmRestoreClocks() functions.
 258:Generated_Source\PSoC5/cyPm.c **** *
 259:Generated_Source\PSoC5/cyPm.c **** *  PSoC 3 and PSoC 5LP:
ARM GAS  C:\Users\aupen\AppData\Local\Temp\cct0TTf9.s 			page 6


 260:Generated_Source\PSoC5/cyPm.c **** *  The merge region could be used to process state when the megahertz crystal is
 261:Generated_Source\PSoC5/cyPm.c **** *  not ready after a hold-off timeout.
 262:Generated_Source\PSoC5/cyPm.c **** *
 263:Generated_Source\PSoC5/cyPm.c **** *  PSoC 5:
 264:Generated_Source\PSoC5/cyPm.c **** *  The 130 ms is given for the megahertz crystal to stabilize. Its readiness is
 265:Generated_Source\PSoC5/cyPm.c **** *  not verified after a hold-off timeout.
 266:Generated_Source\PSoC5/cyPm.c **** *
 267:Generated_Source\PSoC5/cyPm.c **** *******************************************************************************/
 268:Generated_Source\PSoC5/cyPm.c **** void CyPmRestoreClocks(void) 
 269:Generated_Source\PSoC5/cyPm.c **** {
 270:Generated_Source\PSoC5/cyPm.c ****     cystatus status = CYRET_TIMEOUT;
 271:Generated_Source\PSoC5/cyPm.c ****     uint16 i;
 272:Generated_Source\PSoC5/cyPm.c ****     uint16 clkBusDivTmp;
 273:Generated_Source\PSoC5/cyPm.c **** 
 274:Generated_Source\PSoC5/cyPm.c **** 
 275:Generated_Source\PSoC5/cyPm.c ****     /* Convertion table between CyIMO_SetFreq() parameters and register's value */
 276:Generated_Source\PSoC5/cyPm.c ****     const uint8 CYCODE cyPmImoFreqMhz2Reg[7u] = {
 277:Generated_Source\PSoC5/cyPm.c ****         CY_IMO_FREQ_12MHZ, CY_IMO_FREQ_6MHZ,  CY_IMO_FREQ_24MHZ, CY_IMO_FREQ_3MHZ,
 278:Generated_Source\PSoC5/cyPm.c ****         CY_IMO_FREQ_48MHZ, 5u, 6u};
 279:Generated_Source\PSoC5/cyPm.c **** 
 280:Generated_Source\PSoC5/cyPm.c ****     /* Restore enable state of delay between system bus clock and ACLKs. */
 281:Generated_Source\PSoC5/cyPm.c ****     if(CY_PM_ENABLED == cyPmClockBackup.clkDistDelay)
 282:Generated_Source\PSoC5/cyPm.c ****     {
 283:Generated_Source\PSoC5/cyPm.c ****         /* Delay for both bandgap and delay line to settle out */
 284:Generated_Source\PSoC5/cyPm.c ****         CyDelayCycles((uint32)(CY_PM_CLK_DELAY_BANDGAP_SETTLE_US + CY_PM_CLK_DELAY_BIAS_SETTLE_US) 
 285:Generated_Source\PSoC5/cyPm.c ****                         CY_PM_GET_CPU_FREQ_MHZ);
 286:Generated_Source\PSoC5/cyPm.c **** 
 287:Generated_Source\PSoC5/cyPm.c ****         CY_PM_CLKDIST_DELAY_REG |= CY_PM_CLKDIST_DELAY_EN;
 288:Generated_Source\PSoC5/cyPm.c ****     }
 289:Generated_Source\PSoC5/cyPm.c **** 
 290:Generated_Source\PSoC5/cyPm.c ****     /* MHz ECO restore state */
 291:Generated_Source\PSoC5/cyPm.c ****     if(CY_PM_ENABLED == cyPmClockBackup.xmhzEnableState)
 292:Generated_Source\PSoC5/cyPm.c ****     {
 293:Generated_Source\PSoC5/cyPm.c ****         /***********************************************************************
 294:Generated_Source\PSoC5/cyPm.c ****         * Enabling XMHZ XTAL. The actual CyXTAL_Start() with a non zero wait
 295:Generated_Source\PSoC5/cyPm.c ****         * period uses FTW for period measurement. This could cause a problem
 296:Generated_Source\PSoC5/cyPm.c ****         * if CTW/FTW is used as a wake up time in the low power modes APIs.
 297:Generated_Source\PSoC5/cyPm.c ****         * So, the XTAL wait procedure is implemented with a software delay.
 298:Generated_Source\PSoC5/cyPm.c ****         ***********************************************************************/
 299:Generated_Source\PSoC5/cyPm.c **** 
 300:Generated_Source\PSoC5/cyPm.c ****         /* Enable XMHZ XTAL with no wait */
 301:Generated_Source\PSoC5/cyPm.c ****         (void) CyXTAL_Start(CY_PM_XTAL_MHZ_NO_WAIT);
 302:Generated_Source\PSoC5/cyPm.c **** 
 303:Generated_Source\PSoC5/cyPm.c ****         /* Read XERR bit to clear it */
 304:Generated_Source\PSoC5/cyPm.c ****         (void) CY_PM_FASTCLK_XMHZ_CSR_REG;
 305:Generated_Source\PSoC5/cyPm.c **** 
 306:Generated_Source\PSoC5/cyPm.c ****         /* Wait */
 307:Generated_Source\PSoC5/cyPm.c ****         for(i = CY_PM_MHZ_XTAL_WAIT_NUM_OF_200_US; i > 0u; i--)
 308:Generated_Source\PSoC5/cyPm.c ****         {
 309:Generated_Source\PSoC5/cyPm.c ****             /* Make a 200 microseconds delay */
 310:Generated_Source\PSoC5/cyPm.c ****             CyDelayCycles((uint32)CY_PM_WAIT_200_US * CY_PM_GET_CPU_FREQ_MHZ);
 311:Generated_Source\PSoC5/cyPm.c **** 
 312:Generated_Source\PSoC5/cyPm.c ****             /* High output indicates oscillator failure */
 313:Generated_Source\PSoC5/cyPm.c ****             if(0u == (CY_PM_FASTCLK_XMHZ_CSR_REG & CY_PM_XMHZ_CSR_XERR))
 314:Generated_Source\PSoC5/cyPm.c ****             {
 315:Generated_Source\PSoC5/cyPm.c ****                 status = CYRET_SUCCESS;
 316:Generated_Source\PSoC5/cyPm.c ****                 break;
ARM GAS  C:\Users\aupen\AppData\Local\Temp\cct0TTf9.s 			page 7


 317:Generated_Source\PSoC5/cyPm.c ****             }
 318:Generated_Source\PSoC5/cyPm.c ****         }
 319:Generated_Source\PSoC5/cyPm.c **** 
 320:Generated_Source\PSoC5/cyPm.c ****         if(CYRET_TIMEOUT == status)
 321:Generated_Source\PSoC5/cyPm.c ****         {
 322:Generated_Source\PSoC5/cyPm.c ****             /*******************************************************************
 323:Generated_Source\PSoC5/cyPm.c ****             * Process the situation when megahertz crystal is not ready.
 324:Generated_Source\PSoC5/cyPm.c ****             * Time to stabilize the value is crystal specific.
 325:Generated_Source\PSoC5/cyPm.c ****             *******************************************************************/
 326:Generated_Source\PSoC5/cyPm.c ****            /* `#START_MHZ_ECO_TIMEOUT` */
 327:Generated_Source\PSoC5/cyPm.c **** 
 328:Generated_Source\PSoC5/cyPm.c ****            /* `#END` */
 329:Generated_Source\PSoC5/cyPm.c **** 
 330:Generated_Source\PSoC5/cyPm.c ****         #ifdef CY_BOOT_CY_PM_RESTORE_CLOCKS_ECO_TIMEOUT_CALLBACK
 331:Generated_Source\PSoC5/cyPm.c ****             CyBoot_CyPmRestoreClocks_EcoTimeout_Callback();
 332:Generated_Source\PSoC5/cyPm.c ****         #endif /* CY_BOOT_CY_PM_RESTORE_CLOCKS_ECO_TIMEOUT_CALLBACK */
 333:Generated_Source\PSoC5/cyPm.c ****         }
 334:Generated_Source\PSoC5/cyPm.c ****     }   /* (CY_PM_ENABLED == cyPmClockBackup.xmhzEnableState) */
 335:Generated_Source\PSoC5/cyPm.c **** 
 336:Generated_Source\PSoC5/cyPm.c **** 
 337:Generated_Source\PSoC5/cyPm.c ****     /* Temporary set maximum flash wait cycles */
 338:Generated_Source\PSoC5/cyPm.c ****     CyFlash_SetWaitCycles(CY_PM_MAX_FLASH_WAIT_CYCLES);
 339:Generated_Source\PSoC5/cyPm.c **** 
 340:Generated_Source\PSoC5/cyPm.c ****     /* XTAL and DSI clocks are ready to be source for Master clock. */
 341:Generated_Source\PSoC5/cyPm.c ****     if((CY_PM_MASTER_CLK_SRC_XTAL == cyPmClockBackup.masterClkSrc) ||
 342:Generated_Source\PSoC5/cyPm.c ****        (CY_PM_MASTER_CLK_SRC_DSI  == cyPmClockBackup.masterClkSrc))
 343:Generated_Source\PSoC5/cyPm.c ****     {
 344:Generated_Source\PSoC5/cyPm.c ****         /* Restore Master clock's divider */
 345:Generated_Source\PSoC5/cyPm.c ****         if(CY_PM_CLKDIST_MSTR0_REG != cyPmClockBackup.clkSyncDiv)
 346:Generated_Source\PSoC5/cyPm.c ****         {
 347:Generated_Source\PSoC5/cyPm.c ****             /* Restore Master clock divider */
 348:Generated_Source\PSoC5/cyPm.c ****             CyMasterClk_SetDivider(cyPmClockBackup.clkSyncDiv);
 349:Generated_Source\PSoC5/cyPm.c ****         }
 350:Generated_Source\PSoC5/cyPm.c **** 
 351:Generated_Source\PSoC5/cyPm.c ****         /* Restore Master clock source */
 352:Generated_Source\PSoC5/cyPm.c ****         CyMasterClk_SetSource(cyPmClockBackup.masterClkSrc);
 353:Generated_Source\PSoC5/cyPm.c ****     }
 354:Generated_Source\PSoC5/cyPm.c **** 
 355:Generated_Source\PSoC5/cyPm.c ****     /* IMO - restore IMO frequency */
 356:Generated_Source\PSoC5/cyPm.c ****     if((0u != (cyPmClockBackup.imoUsbClk & CY_PM_FASTCLK_IMO_CR_USB)) &&
 357:Generated_Source\PSoC5/cyPm.c ****         (CY_IMO_FREQ_24MHZ == cyPmImoFreqMhz2Reg[cyPmClockBackup.imoFreq]))
 358:Generated_Source\PSoC5/cyPm.c ****     {
 359:Generated_Source\PSoC5/cyPm.c ****         /* Restore IMO frequency (24 MHz) and trim it for USB */
 360:Generated_Source\PSoC5/cyPm.c ****         CyIMO_SetFreq(CY_IMO_FREQ_USB);
 361:Generated_Source\PSoC5/cyPm.c ****     }
 362:Generated_Source\PSoC5/cyPm.c ****     else
 363:Generated_Source\PSoC5/cyPm.c ****     {
 364:Generated_Source\PSoC5/cyPm.c ****         /* Restore IMO frequency */
 365:Generated_Source\PSoC5/cyPm.c ****         CyIMO_SetFreq(cyPmImoFreqMhz2Reg[cyPmClockBackup.imoFreq]);
 366:Generated_Source\PSoC5/cyPm.c **** 
 367:Generated_Source\PSoC5/cyPm.c ****         if(0u != (cyPmClockBackup.imoUsbClk & CY_PM_FASTCLK_IMO_CR_USB))
 368:Generated_Source\PSoC5/cyPm.c ****         {
 369:Generated_Source\PSoC5/cyPm.c ****             CY_PM_FASTCLK_IMO_CR_REG |= CY_PM_FASTCLK_IMO_CR_USB;
 370:Generated_Source\PSoC5/cyPm.c ****         }
 371:Generated_Source\PSoC5/cyPm.c ****         else
 372:Generated_Source\PSoC5/cyPm.c ****         {
 373:Generated_Source\PSoC5/cyPm.c ****             CY_PM_FASTCLK_IMO_CR_REG &= ((uint8)(~CY_PM_FASTCLK_IMO_CR_USB));
ARM GAS  C:\Users\aupen\AppData\Local\Temp\cct0TTf9.s 			page 8


 374:Generated_Source\PSoC5/cyPm.c ****         }
 375:Generated_Source\PSoC5/cyPm.c ****     }
 376:Generated_Source\PSoC5/cyPm.c **** 
 377:Generated_Source\PSoC5/cyPm.c ****     /* IMO - restore enable state if needed */
 378:Generated_Source\PSoC5/cyPm.c ****     if((CY_PM_ENABLED == cyPmClockBackup.imoEnable) &&
 379:Generated_Source\PSoC5/cyPm.c ****        (0u == (CY_PM_ACT_CFG0_IMO & CY_PM_ACT_CFG0_REG)))
 380:Generated_Source\PSoC5/cyPm.c ****     {
 381:Generated_Source\PSoC5/cyPm.c ****         /* IMO - restore enabled state */
 382:Generated_Source\PSoC5/cyPm.c ****         CyIMO_Start(CY_PM_IMO_NO_WAIT_TO_SETTLE);
 383:Generated_Source\PSoC5/cyPm.c ****     }
 384:Generated_Source\PSoC5/cyPm.c **** 
 385:Generated_Source\PSoC5/cyPm.c ****     /* IMO - restore IMOCLK source */
 386:Generated_Source\PSoC5/cyPm.c ****     CyIMO_SetSource(cyPmClockBackup.imoClkSrc);
 387:Generated_Source\PSoC5/cyPm.c **** 
 388:Generated_Source\PSoC5/cyPm.c ****     /* Restore IMO doubler enable state (turned off by CyPmSaveClocks()) */
 389:Generated_Source\PSoC5/cyPm.c ****     if(CY_PM_ENABLED == cyPmClockBackup.imo2x)
 390:Generated_Source\PSoC5/cyPm.c ****     {
 391:Generated_Source\PSoC5/cyPm.c ****         CyIMO_EnableDoubler();
 392:Generated_Source\PSoC5/cyPm.c ****     }
 393:Generated_Source\PSoC5/cyPm.c **** 
 394:Generated_Source\PSoC5/cyPm.c ****     /* IMO - restore clk_imo source, if needed */
 395:Generated_Source\PSoC5/cyPm.c ****     if(cyPmClockBackup.clkImoSrc != (CY_PM_CLKDIST_CR_REG & CY_PM_CLKDIST_IMO_OUT_MASK))
 396:Generated_Source\PSoC5/cyPm.c ****     {
 397:Generated_Source\PSoC5/cyPm.c ****         CY_PM_CLKDIST_CR_REG = (CY_PM_CLKDIST_CR_REG & ((uint8)(~CY_PM_CLKDIST_IMO_OUT_MASK))) |
 398:Generated_Source\PSoC5/cyPm.c ****                                 cyPmClockBackup.clkImoSrc;
 399:Generated_Source\PSoC5/cyPm.c ****     }
 400:Generated_Source\PSoC5/cyPm.c **** 
 401:Generated_Source\PSoC5/cyPm.c **** 
 402:Generated_Source\PSoC5/cyPm.c ****     /* PLL restore state */
 403:Generated_Source\PSoC5/cyPm.c ****     if(CY_PM_ENABLED == cyPmClockBackup.pllEnableState)
 404:Generated_Source\PSoC5/cyPm.c ****     {
 405:Generated_Source\PSoC5/cyPm.c ****         /***********************************************************************
 406:Generated_Source\PSoC5/cyPm.c ****         * Enable PLL. The actual CyPLL_OUT_Start() without wait period uses FTW
 407:Generated_Source\PSoC5/cyPm.c ****         * for period measurement. This could cause a problem if CTW/FTW is used
 408:Generated_Source\PSoC5/cyPm.c ****         * as a wakeup time in the low power modes APIs. To omit this issue PLL
 409:Generated_Source\PSoC5/cyPm.c ****         * wait procedure is implemented with a software delay.
 410:Generated_Source\PSoC5/cyPm.c ****         ***********************************************************************/
 411:Generated_Source\PSoC5/cyPm.c ****         status = CYRET_TIMEOUT;
 412:Generated_Source\PSoC5/cyPm.c **** 
 413:Generated_Source\PSoC5/cyPm.c ****         /* Enable PLL */
 414:Generated_Source\PSoC5/cyPm.c ****         (void) CyPLL_OUT_Start(CY_PM_PLL_OUT_NO_WAIT);
 415:Generated_Source\PSoC5/cyPm.c **** 
 416:Generated_Source\PSoC5/cyPm.c ****         /* Read to clear lock status after delay */
 417:Generated_Source\PSoC5/cyPm.c ****         CyDelayUs((uint32)80u);
 418:Generated_Source\PSoC5/cyPm.c ****         (void) CY_PM_FASTCLK_PLL_SR_REG;
 419:Generated_Source\PSoC5/cyPm.c **** 
 420:Generated_Source\PSoC5/cyPm.c ****         /* It should take 250 us lock: 251-80 = 171 */
 421:Generated_Source\PSoC5/cyPm.c ****         for(i = 171u; i > 0u; i--)
 422:Generated_Source\PSoC5/cyPm.c ****         {
 423:Generated_Source\PSoC5/cyPm.c ****             CyDelayUs((uint32)1u);
 424:Generated_Source\PSoC5/cyPm.c **** 
 425:Generated_Source\PSoC5/cyPm.c ****             /* Accept PLL is OK after two consecutive polls indicate PLL lock */
 426:Generated_Source\PSoC5/cyPm.c ****             if((0u != (CY_PM_FASTCLK_PLL_SR_REG & CY_PM_FASTCLK_PLL_LOCKED)) &&
 427:Generated_Source\PSoC5/cyPm.c ****                (0u != (CY_PM_FASTCLK_PLL_SR_REG & CY_PM_FASTCLK_PLL_LOCKED)))
 428:Generated_Source\PSoC5/cyPm.c ****             {
 429:Generated_Source\PSoC5/cyPm.c ****                 status = CYRET_SUCCESS;
 430:Generated_Source\PSoC5/cyPm.c ****                 break;
ARM GAS  C:\Users\aupen\AppData\Local\Temp\cct0TTf9.s 			page 9


 431:Generated_Source\PSoC5/cyPm.c ****             }
 432:Generated_Source\PSoC5/cyPm.c ****         }
 433:Generated_Source\PSoC5/cyPm.c **** 
 434:Generated_Source\PSoC5/cyPm.c ****         if(CYRET_TIMEOUT == status)
 435:Generated_Source\PSoC5/cyPm.c ****         {
 436:Generated_Source\PSoC5/cyPm.c ****             /*******************************************************************
 437:Generated_Source\PSoC5/cyPm.c ****             * Process the situation when PLL is not ready.
 438:Generated_Source\PSoC5/cyPm.c ****             *******************************************************************/
 439:Generated_Source\PSoC5/cyPm.c ****            /* `#START_PLL_TIMEOUT` */
 440:Generated_Source\PSoC5/cyPm.c **** 
 441:Generated_Source\PSoC5/cyPm.c ****            /* `#END` */
 442:Generated_Source\PSoC5/cyPm.c **** 
 443:Generated_Source\PSoC5/cyPm.c ****         #ifdef CY_BOOT_CY_PM_RESTORE_CLOCKS_PLL_TIMEOUT_CALLBACK
 444:Generated_Source\PSoC5/cyPm.c ****             CyBoot_CyPmRestoreClocks_PllTimeout_Callback();
 445:Generated_Source\PSoC5/cyPm.c ****         #endif /* CY_BOOT_CY_PM_RESTORE_CLOCKS_PLL_TIMEOUT_CALLBACK */
 446:Generated_Source\PSoC5/cyPm.c ****         }
 447:Generated_Source\PSoC5/cyPm.c ****     }   /* (CY_PM_ENABLED == cyPmClockBackup.pllEnableState) */
 448:Generated_Source\PSoC5/cyPm.c **** 
 449:Generated_Source\PSoC5/cyPm.c **** 
 450:Generated_Source\PSoC5/cyPm.c ****     /* PLL and IMO is ready to be source for Master clock */
 451:Generated_Source\PSoC5/cyPm.c ****     if((CY_PM_MASTER_CLK_SRC_IMO == cyPmClockBackup.masterClkSrc) ||
 452:Generated_Source\PSoC5/cyPm.c ****        (CY_PM_MASTER_CLK_SRC_PLL == cyPmClockBackup.masterClkSrc))
 453:Generated_Source\PSoC5/cyPm.c ****     {
 454:Generated_Source\PSoC5/cyPm.c ****         /* Restore Master clock divider */
 455:Generated_Source\PSoC5/cyPm.c ****         if(CY_PM_CLKDIST_MSTR0_REG != cyPmClockBackup.clkSyncDiv)
 456:Generated_Source\PSoC5/cyPm.c ****         {
 457:Generated_Source\PSoC5/cyPm.c ****             CyMasterClk_SetDivider(cyPmClockBackup.clkSyncDiv);
 458:Generated_Source\PSoC5/cyPm.c ****         }
 459:Generated_Source\PSoC5/cyPm.c **** 
 460:Generated_Source\PSoC5/cyPm.c ****         /* Restore Master clock source */
 461:Generated_Source\PSoC5/cyPm.c ****         CyMasterClk_SetSource(cyPmClockBackup.masterClkSrc);
 462:Generated_Source\PSoC5/cyPm.c ****     }
 463:Generated_Source\PSoC5/cyPm.c **** 
 464:Generated_Source\PSoC5/cyPm.c ****     /* IMO - disable if it was originally disabled */
 465:Generated_Source\PSoC5/cyPm.c ****     if((CY_PM_DISABLED == cyPmClockBackup.imoEnable) &&
 466:Generated_Source\PSoC5/cyPm.c ****        (0u != (CY_PM_ACT_CFG0_IMO & CY_PM_ACT_CFG0_REG)))
 467:Generated_Source\PSoC5/cyPm.c ****     {
 468:Generated_Source\PSoC5/cyPm.c ****         CyIMO_Stop();
 469:Generated_Source\PSoC5/cyPm.c ****     }
 470:Generated_Source\PSoC5/cyPm.c **** 
 471:Generated_Source\PSoC5/cyPm.c ****     /* Bus clock - restore divider, if needed */
 472:Generated_Source\PSoC5/cyPm.c ****     clkBusDivTmp = (uint16) ((uint16)CY_PM_CLK_BUS_MSB_DIV_REG << 8u);
 473:Generated_Source\PSoC5/cyPm.c ****     clkBusDivTmp |= CY_PM_CLK_BUS_LSB_DIV_REG;
 474:Generated_Source\PSoC5/cyPm.c ****     if(cyPmClockBackup.clkBusDiv != clkBusDivTmp)
 475:Generated_Source\PSoC5/cyPm.c ****     {
 476:Generated_Source\PSoC5/cyPm.c ****         CyBusClk_SetDivider(cyPmClockBackup.clkBusDiv);
 477:Generated_Source\PSoC5/cyPm.c ****     }
 478:Generated_Source\PSoC5/cyPm.c **** 
 479:Generated_Source\PSoC5/cyPm.c ****     /* Restore flash wait cycles */
 480:Generated_Source\PSoC5/cyPm.c ****     CY_PM_CACHE_CR_REG = ((CY_PM_CACHE_CR_REG & ((uint8)(~CY_PM_CACHE_CR_CYCLES_MASK))) |
 481:Generated_Source\PSoC5/cyPm.c ****                            cyPmClockBackup.flashWaitCycles);
 482:Generated_Source\PSoC5/cyPm.c **** 
 483:Generated_Source\PSoC5/cyPm.c ****     /* Digital and analog clocks - restore state */
 484:Generated_Source\PSoC5/cyPm.c ****     CY_PM_ACT_CFG1_REG = cyPmClockBackup.enClkA;
 485:Generated_Source\PSoC5/cyPm.c ****     CY_PM_ACT_CFG2_REG = cyPmClockBackup.enClkD;
 486:Generated_Source\PSoC5/cyPm.c **** }
 487:Generated_Source\PSoC5/cyPm.c **** 
ARM GAS  C:\Users\aupen\AppData\Local\Temp\cct0TTf9.s 			page 10


 488:Generated_Source\PSoC5/cyPm.c **** 
 489:Generated_Source\PSoC5/cyPm.c **** /*******************************************************************************
 490:Generated_Source\PSoC5/cyPm.c **** * Function Name: CyPmAltAct
 491:Generated_Source\PSoC5/cyPm.c **** ****************************************************************************//**
 492:Generated_Source\PSoC5/cyPm.c **** *
 493:Generated_Source\PSoC5/cyPm.c **** *  Puts the part into the Alternate Active (Standby) state. The Alternate Active
 494:Generated_Source\PSoC5/cyPm.c **** *  state can allow for any of the capabilities of the device to be active, but
 495:Generated_Source\PSoC5/cyPm.c **** *  the operation of this function is dependent on the CPU being disabled during
 496:Generated_Source\PSoC5/cyPm.c **** *  the Alternate Active state. The configuration code and the component APIs
 497:Generated_Source\PSoC5/cyPm.c **** *  will configure the template for the Alternate Active state to be the same as
 498:Generated_Source\PSoC5/cyPm.c **** *  the Active state with the exception that the CPU will be disabled during
 499:Generated_Source\PSoC5/cyPm.c **** *  Alternate Active.
 500:Generated_Source\PSoC5/cyPm.c **** *
 501:Generated_Source\PSoC5/cyPm.c **** *  Note Before calling this function, you must manually configure the power mode
 502:Generated_Source\PSoC5/cyPm.c **** *  of the source clocks for the timer that is used as the wakeup timer.
 503:Generated_Source\PSoC5/cyPm.c **** *
 504:Generated_Source\PSoC5/cyPm.c **** *  PSoC 3:
 505:Generated_Source\PSoC5/cyPm.c **** *  Before switching to Alternate Active, if a wakeupTime other than NONE is
 506:Generated_Source\PSoC5/cyPm.c **** *  specified, then the appropriate timer state is configured as specified with
 507:Generated_Source\PSoC5/cyPm.c **** *  the interrupt for that timer disabled.  The wakeup source will be the
 508:Generated_Source\PSoC5/cyPm.c **** *  combination of the values specified in the wakeupSource and any timer
 509:Generated_Source\PSoC5/cyPm.c **** *  specified in the wakeupTime argument.  Once the wakeup condition is
 510:Generated_Source\PSoC5/cyPm.c **** *  satisfied, then all saved state is restored and the function returns in the
 511:Generated_Source\PSoC5/cyPm.c **** *  Active state.
 512:Generated_Source\PSoC5/cyPm.c **** *
 513:Generated_Source\PSoC5/cyPm.c **** *  Note that if the wakeupTime is made with a different value, the period before
 514:Generated_Source\PSoC5/cyPm.c **** *  the wakeup occurs can be significantly shorter than the specified time.  If
 515:Generated_Source\PSoC5/cyPm.c **** *  the next call is made with the same wakeupTime value, then the wakeup will
 516:Generated_Source\PSoC5/cyPm.c **** *  occur the specified period after the previous wakeup occurred.
 517:Generated_Source\PSoC5/cyPm.c **** *
 518:Generated_Source\PSoC5/cyPm.c **** *  If a wakeupTime other than NONE is specified, then upon exit the state of the
 519:Generated_Source\PSoC5/cyPm.c **** *  specified timer will be left as specified by wakeupTime with the timer
 520:Generated_Source\PSoC5/cyPm.c **** *  enabled and the interrupt disabled.  If the CTW, FTW or One PPS is already
 521:Generated_Source\PSoC5/cyPm.c **** *  configured for wakeup, for example with the SleepTimer or RTC components,
 522:Generated_Source\PSoC5/cyPm.c **** *  then specify NONE for the wakeupTime and include the appropriate source for
 523:Generated_Source\PSoC5/cyPm.c **** *  wakeupSource.
 524:Generated_Source\PSoC5/cyPm.c **** *
 525:Generated_Source\PSoC5/cyPm.c **** *  PSoC 5LP:
 526:Generated_Source\PSoC5/cyPm.c **** *  This function is used to both enter the Alternate Active mode and halt the
 527:Generated_Source\PSoC5/cyPm.c **** *  processor.  For PSoC 3 these two actions must be paired together.  With PSoC
 528:Generated_Source\PSoC5/cyPm.c **** *  5LP the processor can be halted independently with the __WFI() function from
 529:Generated_Source\PSoC5/cyPm.c **** *  the CMSIS library that is included in Creator.  This function should be used
 530:Generated_Source\PSoC5/cyPm.c **** *  instead when the action required is just to halt the processor until an
 531:Generated_Source\PSoC5/cyPm.c **** *  enabled interrupt occurs.
 532:Generated_Source\PSoC5/cyPm.c **** *
 533:Generated_Source\PSoC5/cyPm.c **** *  The wakeupTime parameter is not used for this device. It must be set to zero
 534:Generated_Source\PSoC5/cyPm.c **** *  (PM_ALT_ACT_TIME_NONE). The wake up time configuration can be done by a
 535:Generated_Source\PSoC5/cyPm.c **** *  separate component: the CTW wakeup interval should be configured with the
 536:Generated_Source\PSoC5/cyPm.c **** *  Sleep Timer component and one second interval should be configured with the
 537:Generated_Source\PSoC5/cyPm.c **** *  RTC component.
 538:Generated_Source\PSoC5/cyPm.c **** *
 539:Generated_Source\PSoC5/cyPm.c **** *  The wakeup behavior depends on the wakeupSource parameter in the following
 540:Generated_Source\PSoC5/cyPm.c **** *  manner: upon function execution the device will be switched from Active to
 541:Generated_Source\PSoC5/cyPm.c **** *  Alternate Active mode and then the CPU will be halted. When an enabled wakeup
 542:Generated_Source\PSoC5/cyPm.c **** *  event occurs the device will return to Active mode.  Similarly when an
 543:Generated_Source\PSoC5/cyPm.c **** *  enabled interrupt occurs the CPU will be started. These two actions will
 544:Generated_Source\PSoC5/cyPm.c **** *  occur together provided that the event that occurs is an enabled wakeup
ARM GAS  C:\Users\aupen\AppData\Local\Temp\cct0TTf9.s 			page 11


 545:Generated_Source\PSoC5/cyPm.c **** *  source and also generates an interrupt. If just the wakeup event occurs then
 546:Generated_Source\PSoC5/cyPm.c **** *  the device will be in Active mode, but the CPU will remain halted waiting for
 547:Generated_Source\PSoC5/cyPm.c **** *  an interrupt. If an interrupt occurs from something other than a wakeup
 548:Generated_Source\PSoC5/cyPm.c **** *  source, then the CPU will restart with the device in Alternate Active mode
 549:Generated_Source\PSoC5/cyPm.c **** *  until a wakeup event occurs.
 550:Generated_Source\PSoC5/cyPm.c **** *
 551:Generated_Source\PSoC5/cyPm.c **** *  For example, if CyPmAltAct(PM_ALT_ACT_TIME_NONE, PM_ALT_ACT_SRC_PICU) is
 552:Generated_Source\PSoC5/cyPm.c **** *  called and PICU interrupt occurs, the CPU will be started and device will be
 553:Generated_Source\PSoC5/cyPm.c **** *  switched into Active mode. And if CyPmAltAct(PM_ALT_ACT_TIME_NONE,
 554:Generated_Source\PSoC5/cyPm.c **** *  PM_ALT_ACT_SRC_NONE) is called and PICU interrupt occurs, the CPU will be
 555:Generated_Source\PSoC5/cyPm.c **** *  started while device remains in Alternate Active mode.
 556:Generated_Source\PSoC5/cyPm.c **** *
 557:Generated_Source\PSoC5/cyPm.c **** *  \param wakeupTime: Specifies a timer wakeup source and the frequency of that
 558:Generated_Source\PSoC5/cyPm.c **** *              source. For PSoC 5LP this parameter is ignored.
 559:Generated_Source\PSoC5/cyPm.c **** *
 560:Generated_Source\PSoC5/cyPm.c **** *           Define                      Time
 561:Generated_Source\PSoC5/cyPm.c **** *  PM_ALT_ACT_TIME_NONE             None
 562:Generated_Source\PSoC5/cyPm.c **** *  \param PM_ALT_ACT_TIME_ONE_PPS          One PPS: 1 second
 563:Generated_Source\PSoC5/cyPm.c **** *  \param PM_ALT_ACT_TIME_CTW_2MS          CTW: 2 ms
 564:Generated_Source\PSoC5/cyPm.c **** *  \param PM_ALT_ACT_TIME_CTW_4MS          CTW: 4 ms
 565:Generated_Source\PSoC5/cyPm.c **** *  \param PM_ALT_ACT_TIME_CTW_8MS          CTW: 8 ms
 566:Generated_Source\PSoC5/cyPm.c **** *  \param PM_ALT_ACT_TIME_CTW_16MS         CTW: 16 ms
 567:Generated_Source\PSoC5/cyPm.c **** *  \param PM_ALT_ACT_TIME_CTW_32MS         CTW: 32 ms
 568:Generated_Source\PSoC5/cyPm.c **** *  \param PM_ALT_ACT_TIME_CTW_64MS         CTW: 64 ms
 569:Generated_Source\PSoC5/cyPm.c **** *  \param PM_ALT_ACT_TIME_CTW_128MS        CTW: 128 ms
 570:Generated_Source\PSoC5/cyPm.c **** *  \param PM_ALT_ACT_TIME_CTW_256MS        CTW: 256 ms
 571:Generated_Source\PSoC5/cyPm.c **** *  \param PM_ALT_ACT_TIME_CTW_512MS        CTW: 512 ms
 572:Generated_Source\PSoC5/cyPm.c **** *  \param PM_ALT_ACT_TIME_CTW_1024MS       CTW: 1024 ms
 573:Generated_Source\PSoC5/cyPm.c **** *  \param PM_ALT_ACT_TIME_CTW_2048MS       CTW: 2048 ms
 574:Generated_Source\PSoC5/cyPm.c **** *  \param PM_ALT_ACT_TIME_CTW_4096MS       CTW: 4096 ms
 575:Generated_Source\PSoC5/cyPm.c **** *  PM_ALT_ACT_TIME_FTW(1-256)*       FTW: 10us to 2.56 ms
 576:Generated_Source\PSoC5/cyPm.c **** *
 577:Generated_Source\PSoC5/cyPm.c **** *  \param *Note:   PM_ALT_ACT_TIME_FTW() is a macro that takes an argument that
 578:Generated_Source\PSoC5/cyPm.c **** *           specifies how many increments of 10 us to delay.
 579:Generated_Source\PSoC5/cyPm.c ****             For PSoC 3 silicon the valid range of  values is 1 to 256.
 580:Generated_Source\PSoC5/cyPm.c **** *
 581:Generated_Source\PSoC5/cyPm.c **** *  \param wakeUpSource:    Specifies a bitwise mask of wakeup sources. In addition, if
 582:Generated_Source\PSoC5/cyPm.c **** *                   a wakeupTime has been specified, the associated timer will
 583:Generated_Source\PSoC5/cyPm.c **** *                   be included as a wakeup source.
 584:Generated_Source\PSoC5/cyPm.c **** *
 585:Generated_Source\PSoC5/cyPm.c **** *           Define                      Source
 586:Generated_Source\PSoC5/cyPm.c **** *  PM_ALT_ACT_SRC_NONE              None
 587:Generated_Source\PSoC5/cyPm.c **** *  PM_ALT_ACT_SRC_COMPARATOR0       Comparator 0
 588:Generated_Source\PSoC5/cyPm.c **** *  PM_ALT_ACT_SRC_COMPARATOR1       Comparator 1
 589:Generated_Source\PSoC5/cyPm.c **** *  PM_ALT_ACT_SRC_COMPARATOR2       Comparator 2
 590:Generated_Source\PSoC5/cyPm.c **** *  PM_ALT_ACT_SRC_COMPARATOR3       Comparator 3
 591:Generated_Source\PSoC5/cyPm.c **** *  PM_ALT_ACT_SRC_INTERRUPT         Interrupt
 592:Generated_Source\PSoC5/cyPm.c **** *  PM_ALT_ACT_SRC_PICU              PICU
 593:Generated_Source\PSoC5/cyPm.c **** *  PM_ALT_ACT_SRC_I2C               I2C
 594:Generated_Source\PSoC5/cyPm.c **** *  PM_ALT_ACT_SRC_BOOSTCONVERTER    Boost Converter
 595:Generated_Source\PSoC5/cyPm.c **** *  PM_ALT_ACT_SRC_FTW               Fast Timewheel*
 596:Generated_Source\PSoC5/cyPm.c **** *  PM_ALT_ACT_SRC_VD                High and Low Voltage Detection (HVI, LVI)*
 597:Generated_Source\PSoC5/cyPm.c **** *  PM_ALT_ACT_SRC_CTW               Central Timewheel**
 598:Generated_Source\PSoC5/cyPm.c **** *  PM_ALT_ACT_SRC_ONE_PPS           One PPS**
 599:Generated_Source\PSoC5/cyPm.c **** *  PM_ALT_ACT_SRC_LCD               LCD
 600:Generated_Source\PSoC5/cyPm.c **** *
 601:Generated_Source\PSoC5/cyPm.c **** *  \param *Note : FTW and HVI/LVI wakeup signals are in the same mask bit.
ARM GAS  C:\Users\aupen\AppData\Local\Temp\cct0TTf9.s 			page 12


 602:Generated_Source\PSoC5/cyPm.c **** *  \param **Note: CTW and One PPS wakeup signals are in the same mask bit.
 603:Generated_Source\PSoC5/cyPm.c **** *
 604:Generated_Source\PSoC5/cyPm.c **** *  When specifying a Comparator as the wakeupSource, an instance specific define
 605:Generated_Source\PSoC5/cyPm.c **** *  that will track with the specific comparator that the instance
 606:Generated_Source\PSoC5/cyPm.c **** *  is placed into should be used. As an example, for a Comparator instance named
 607:Generated_Source\PSoC5/cyPm.c **** *  \param MyComp the value to OR into the mask is: MyComp_ctComp__CMP_MASK.
 608:Generated_Source\PSoC5/cyPm.c **** *
 609:Generated_Source\PSoC5/cyPm.c **** *  When CTW, FTW or One PPS is used as a wakeup source, the CyPmReadStatus()
 610:Generated_Source\PSoC5/cyPm.c **** *  function must be called upon wakeup with a corresponding parameter. Please
 611:Generated_Source\PSoC5/cyPm.c **** *  refer to the CyPmReadStatus() API in the System Reference Guide for more
 612:Generated_Source\PSoC5/cyPm.c **** *  information.
 613:Generated_Source\PSoC5/cyPm.c **** *
 614:Generated_Source\PSoC5/cyPm.c **** * Reentrant:
 615:Generated_Source\PSoC5/cyPm.c **** *  No
 616:Generated_Source\PSoC5/cyPm.c **** *
 617:Generated_Source\PSoC5/cyPm.c **** * \sideeffect
 618:Generated_Source\PSoC5/cyPm.c **** *  If a wakeupTime other than NONE is specified, then upon exit the state of the
 619:Generated_Source\PSoC5/cyPm.c **** *  specified timer will be left as specified by wakeupTime with the timer
 620:Generated_Source\PSoC5/cyPm.c **** *  enabled and the interrupt disabled.  Also, the ILO 1 KHz (if CTW timer is
 621:Generated_Source\PSoC5/cyPm.c **** *  used as wakeup time) or ILO 100 KHz (if the FTW timer is used as wakeup time)
 622:Generated_Source\PSoC5/cyPm.c **** *  will be left started.
 623:Generated_Source\PSoC5/cyPm.c **** *
 624:Generated_Source\PSoC5/cyPm.c **** *******************************************************************************/
 625:Generated_Source\PSoC5/cyPm.c **** void CyPmAltAct(uint16 wakeupTime, uint16 wakeupSource) 
 626:Generated_Source\PSoC5/cyPm.c **** {
 627:Generated_Source\PSoC5/cyPm.c ****     #if(CY_PSOC5)
 628:Generated_Source\PSoC5/cyPm.c **** 
 629:Generated_Source\PSoC5/cyPm.c ****         /* Arguments expected to be 0 */
 630:Generated_Source\PSoC5/cyPm.c ****         CYASSERT(PM_ALT_ACT_TIME_NONE == wakeupTime);
 631:Generated_Source\PSoC5/cyPm.c **** 
 632:Generated_Source\PSoC5/cyPm.c ****         if(0u != wakeupTime)
 633:Generated_Source\PSoC5/cyPm.c ****         {
 634:Generated_Source\PSoC5/cyPm.c ****             /* To remove unreferenced local variable warning */
 635:Generated_Source\PSoC5/cyPm.c ****         }
 636:Generated_Source\PSoC5/cyPm.c **** 
 637:Generated_Source\PSoC5/cyPm.c ****     #endif /* (CY_PSOC5) */
 638:Generated_Source\PSoC5/cyPm.c **** 
 639:Generated_Source\PSoC5/cyPm.c **** 
 640:Generated_Source\PSoC5/cyPm.c ****     #if(CY_PSOC3)
 641:Generated_Source\PSoC5/cyPm.c **** 
 642:Generated_Source\PSoC5/cyPm.c ****         /* FTW - save current and set new configuration */
 643:Generated_Source\PSoC5/cyPm.c ****         if((wakeupTime >= PM_ALT_ACT_TIME_FTW(1u)) && (wakeupTime <= PM_ALT_ACT_TIME_FTW(256u)))
 644:Generated_Source\PSoC5/cyPm.c ****         {
 645:Generated_Source\PSoC5/cyPm.c ****             CyPmFtwSetInterval(PM_ALT_ACT_FTW_INTERVAL(wakeupTime));
 646:Generated_Source\PSoC5/cyPm.c **** 
 647:Generated_Source\PSoC5/cyPm.c ****             /* Include associated timer to wakeupSource */
 648:Generated_Source\PSoC5/cyPm.c ****             wakeupSource |= PM_ALT_ACT_SRC_FTW;
 649:Generated_Source\PSoC5/cyPm.c ****         }
 650:Generated_Source\PSoC5/cyPm.c **** 
 651:Generated_Source\PSoC5/cyPm.c ****         /* CTW - save current and set new configuration */
 652:Generated_Source\PSoC5/cyPm.c ****         if((wakeupTime >= PM_ALT_ACT_TIME_CTW_2MS) && (wakeupTime <= PM_ALT_ACT_TIME_CTW_4096MS))
 653:Generated_Source\PSoC5/cyPm.c ****         {
 654:Generated_Source\PSoC5/cyPm.c ****             /* Save current CTW configuration and set new one */
 655:Generated_Source\PSoC5/cyPm.c ****             CyPmCtwSetInterval((uint8)(wakeupTime - 1u));
 656:Generated_Source\PSoC5/cyPm.c **** 
 657:Generated_Source\PSoC5/cyPm.c ****             /* Include associated timer to wakeupSource */
 658:Generated_Source\PSoC5/cyPm.c ****             wakeupSource |= PM_ALT_ACT_SRC_CTW;
ARM GAS  C:\Users\aupen\AppData\Local\Temp\cct0TTf9.s 			page 13


 659:Generated_Source\PSoC5/cyPm.c ****         }
 660:Generated_Source\PSoC5/cyPm.c **** 
 661:Generated_Source\PSoC5/cyPm.c ****         /* 1PPS - save current and set new configuration */
 662:Generated_Source\PSoC5/cyPm.c ****         if(PM_ALT_ACT_TIME_ONE_PPS == wakeupTime)
 663:Generated_Source\PSoC5/cyPm.c ****         {
 664:Generated_Source\PSoC5/cyPm.c ****             /* Save current 1PPS configuration and set new one */
 665:Generated_Source\PSoC5/cyPm.c ****             CyPmOppsSet();
 666:Generated_Source\PSoC5/cyPm.c **** 
 667:Generated_Source\PSoC5/cyPm.c ****             /* Include associated timer to wakeupSource */
 668:Generated_Source\PSoC5/cyPm.c ****             wakeupSource |= PM_ALT_ACT_SRC_ONE_PPS;
 669:Generated_Source\PSoC5/cyPm.c ****         }
 670:Generated_Source\PSoC5/cyPm.c **** 
 671:Generated_Source\PSoC5/cyPm.c ****     #endif /* (CY_PSOC3) */
 672:Generated_Source\PSoC5/cyPm.c **** 
 673:Generated_Source\PSoC5/cyPm.c **** 
 674:Generated_Source\PSoC5/cyPm.c ****     /* Save and set new wake up configuration */
 675:Generated_Source\PSoC5/cyPm.c **** 
 676:Generated_Source\PSoC5/cyPm.c ****     /* Interrupt, PICU, I2C, Boost converter, CTW/1PPS */
 677:Generated_Source\PSoC5/cyPm.c ****     cyPmBackup.wakeupCfg0 = CY_PM_WAKEUP_CFG0_REG;
 678:Generated_Source\PSoC5/cyPm.c ****     CY_PM_WAKEUP_CFG0_REG = (uint8) (wakeupSource >> 4u);
 679:Generated_Source\PSoC5/cyPm.c **** 
 680:Generated_Source\PSoC5/cyPm.c ****     /* Comparators */
 681:Generated_Source\PSoC5/cyPm.c ****     cyPmBackup.wakeupCfg1 = CY_PM_WAKEUP_CFG1_REG;
 682:Generated_Source\PSoC5/cyPm.c ****     CY_PM_WAKEUP_CFG1_REG = (((uint8) wakeupSource) & CY_PM_WAKEUP_SRC_CMPS_MASK);
 683:Generated_Source\PSoC5/cyPm.c **** 
 684:Generated_Source\PSoC5/cyPm.c ****     /* LCD */
 685:Generated_Source\PSoC5/cyPm.c ****     cyPmBackup.wakeupCfg2 = CY_PM_WAKEUP_CFG2_REG;
 686:Generated_Source\PSoC5/cyPm.c ****     CY_PM_WAKEUP_CFG2_REG = ((uint8) ((wakeupSource >> 12u) & 0x01u));
 687:Generated_Source\PSoC5/cyPm.c **** 
 688:Generated_Source\PSoC5/cyPm.c **** 
 689:Generated_Source\PSoC5/cyPm.c ****     /* Switch to the Alternate Active mode */
 690:Generated_Source\PSoC5/cyPm.c ****     CY_PM_MODE_CSR_REG = ((CY_PM_MODE_CSR_REG & ((uint8)(~CY_PM_MODE_CSR_MASK))) | CY_PM_MODE_CSR_A
 691:Generated_Source\PSoC5/cyPm.c **** 
 692:Generated_Source\PSoC5/cyPm.c ****     /* Recommended readback. */
 693:Generated_Source\PSoC5/cyPm.c ****     (void) CY_PM_MODE_CSR_REG;
 694:Generated_Source\PSoC5/cyPm.c **** 
 695:Generated_Source\PSoC5/cyPm.c ****     /* Two recommended NOPs to get into the mode. */
 696:Generated_Source\PSoC5/cyPm.c ****     CY_NOP;
 697:Generated_Source\PSoC5/cyPm.c ****     CY_NOP;
 698:Generated_Source\PSoC5/cyPm.c **** 
 699:Generated_Source\PSoC5/cyPm.c ****     /* Execute WFI instruction (for ARM-based devices only) */
 700:Generated_Source\PSoC5/cyPm.c ****     CY_PM_WFI;
 701:Generated_Source\PSoC5/cyPm.c **** 
 702:Generated_Source\PSoC5/cyPm.c ****     /* Point of return from Alternate Active Mode */
 703:Generated_Source\PSoC5/cyPm.c **** 
 704:Generated_Source\PSoC5/cyPm.c ****     /* Restore wake up configuration */
 705:Generated_Source\PSoC5/cyPm.c ****     CY_PM_WAKEUP_CFG0_REG = cyPmBackup.wakeupCfg0;
 706:Generated_Source\PSoC5/cyPm.c ****     CY_PM_WAKEUP_CFG1_REG = cyPmBackup.wakeupCfg1;
 707:Generated_Source\PSoC5/cyPm.c ****     CY_PM_WAKEUP_CFG2_REG = cyPmBackup.wakeupCfg2;
 708:Generated_Source\PSoC5/cyPm.c **** }
 709:Generated_Source\PSoC5/cyPm.c **** 
 710:Generated_Source\PSoC5/cyPm.c **** 
 711:Generated_Source\PSoC5/cyPm.c **** /*******************************************************************************
 712:Generated_Source\PSoC5/cyPm.c **** * Function Name: CyPmSleep
 713:Generated_Source\PSoC5/cyPm.c **** ****************************************************************************//**
 714:Generated_Source\PSoC5/cyPm.c **** *
 715:Generated_Source\PSoC5/cyPm.c **** *  Puts the part into the Sleep state.
ARM GAS  C:\Users\aupen\AppData\Local\Temp\cct0TTf9.s 			page 14


 716:Generated_Source\PSoC5/cyPm.c **** *
 717:Generated_Source\PSoC5/cyPm.c **** *  Note Before calling this function, you must manually configure the power
 718:Generated_Source\PSoC5/cyPm.c **** *  mode of the source clocks for the timer that is used as the wakeup timer.
 719:Generated_Source\PSoC5/cyPm.c **** *
 720:Generated_Source\PSoC5/cyPm.c **** *  Note Before calling this function, you must prepare clock tree configuration
 721:Generated_Source\PSoC5/cyPm.c **** *  for the low power mode by calling CyPmSaveClocks(). And restore clock
 722:Generated_Source\PSoC5/cyPm.c **** *  configuration after CyPmSleep() execution by calling CyPmRestoreClocks(). See
 723:Generated_Source\PSoC5/cyPm.c **** *  Power Management section, Clock Configuration subsection of the System
 724:Generated_Source\PSoC5/cyPm.c **** *  Reference Guide for more information.
 725:Generated_Source\PSoC5/cyPm.c **** *
 726:Generated_Source\PSoC5/cyPm.c **** *  PSoC 3:
 727:Generated_Source\PSoC5/cyPm.c **** *  Before switching to Sleep, if a wakeupTime other than NONE is specified,
 728:Generated_Source\PSoC5/cyPm.c **** *  then the appropriate timer state is configured as specified with the
 729:Generated_Source\PSoC5/cyPm.c **** *  interrupt for that timer disabled.  The wakeup source will be a combination
 730:Generated_Source\PSoC5/cyPm.c **** *  of the values specified in the wakeupSource and any timer specified in the
 731:Generated_Source\PSoC5/cyPm.c **** *  wakeupTime argument.  Once the wakeup condition is satisfied, then all saved
 732:Generated_Source\PSoC5/cyPm.c **** *  state is restored and the function returns in the Active state.
 733:Generated_Source\PSoC5/cyPm.c **** *
 734:Generated_Source\PSoC5/cyPm.c **** *  Note that if the wakeupTime is made with a different value, the period before
 735:Generated_Source\PSoC5/cyPm.c **** *  the wakeup occurs can be significantly shorter than the specified time.  If
 736:Generated_Source\PSoC5/cyPm.c **** *  the next call is made with the same wakeupTime value, then the wakeup will
 737:Generated_Source\PSoC5/cyPm.c **** *  occur the specified period after the previous wakeup occurred.
 738:Generated_Source\PSoC5/cyPm.c **** *
 739:Generated_Source\PSoC5/cyPm.c **** *  If a wakeupTime other than NONE is specified, then upon exit the state of the
 740:Generated_Source\PSoC5/cyPm.c **** *  specified timer will be left as specified by wakeupTime with the timer
 741:Generated_Source\PSoC5/cyPm.c **** *  enabled and the interrupt disabled.  If the CTW or One PPS is already
 742:Generated_Source\PSoC5/cyPm.c **** *  configured for wakeup, for example with the SleepTimer or RTC components,
 743:Generated_Source\PSoC5/cyPm.c **** *  then specify NONE for the wakeupTime and include the appropriate source for
 744:Generated_Source\PSoC5/cyPm.c **** *  wakeupSource.
 745:Generated_Source\PSoC5/cyPm.c **** *
 746:Generated_Source\PSoC5/cyPm.c **** *  PSoC 5LP:
 747:Generated_Source\PSoC5/cyPm.c **** *  The wakeupTime parameter is not used and the only NONE can be specified.
 748:Generated_Source\PSoC5/cyPm.c **** *  The wakeup time must be configured with the component, SleepTimer for CTW
 749:Generated_Source\PSoC5/cyPm.c **** *  intervals and RTC for 1PPS interval. The component must be configured to
 750:Generated_Source\PSoC5/cyPm.c **** *  generate interrupt.
 751:Generated_Source\PSoC5/cyPm.c **** *
 752:Generated_Source\PSoC5/cyPm.c **** *  \param wakeupTime:      Specifies a timer wakeup source and the frequency of that
 753:Generated_Source\PSoC5/cyPm.c **** *                   source. For PSoC 5LP, this parameter is ignored.
 754:Generated_Source\PSoC5/cyPm.c **** *
 755:Generated_Source\PSoC5/cyPm.c **** *           Define                      Time
 756:Generated_Source\PSoC5/cyPm.c **** *  PM_SLEEP_TIME_NONE               None
 757:Generated_Source\PSoC5/cyPm.c **** *  \param PM_SLEEP_TIME_ONE_PPS            One PPS: 1 second
 758:Generated_Source\PSoC5/cyPm.c **** *  \param PM_SLEEP_TIME_CTW_2MS            CTW: 2 ms
 759:Generated_Source\PSoC5/cyPm.c **** *  \param PM_SLEEP_TIME_CTW_4MS            CTW: 4 ms
 760:Generated_Source\PSoC5/cyPm.c **** *  \param PM_SLEEP_TIME_CTW_8MS            CTW: 8 ms
 761:Generated_Source\PSoC5/cyPm.c **** *  \param PM_SLEEP_TIME_CTW_16MS           CTW: 16 ms
 762:Generated_Source\PSoC5/cyPm.c **** *  \param PM_SLEEP_TIME_CTW_32MS           CTW: 32 ms
 763:Generated_Source\PSoC5/cyPm.c **** *  \param PM_SLEEP_TIME_CTW_64MS           CTW: 64 ms
 764:Generated_Source\PSoC5/cyPm.c **** *  \param PM_SLEEP_TIME_CTW_128MS          CTW: 128 ms
 765:Generated_Source\PSoC5/cyPm.c **** *  \param PM_SLEEP_TIME_CTW_256MS          CTW: 256 ms
 766:Generated_Source\PSoC5/cyPm.c **** *  \param PM_SLEEP_TIME_CTW_512MS          CTW: 512 ms
 767:Generated_Source\PSoC5/cyPm.c **** *  \param PM_SLEEP_TIME_CTW_1024MS         CTW: 1024 ms
 768:Generated_Source\PSoC5/cyPm.c **** *  \param PM_SLEEP_TIME_CTW_2048MS         CTW: 2048 ms
 769:Generated_Source\PSoC5/cyPm.c **** *  \param PM_SLEEP_TIME_CTW_4096MS         CTW: 4096 ms
 770:Generated_Source\PSoC5/cyPm.c **** *
 771:Generated_Source\PSoC5/cyPm.c **** *  \param wakeUpSource:    Specifies a bitwise mask of wakeup sources. In addition, if
 772:Generated_Source\PSoC5/cyPm.c **** *                   a wakeupTime has been specified the associated timer will be
ARM GAS  C:\Users\aupen\AppData\Local\Temp\cct0TTf9.s 			page 15


 773:Generated_Source\PSoC5/cyPm.c **** *                   included as a wakeup source.
 774:Generated_Source\PSoC5/cyPm.c **** *
 775:Generated_Source\PSoC5/cyPm.c **** *           Define                      Source
 776:Generated_Source\PSoC5/cyPm.c **** *  PM_SLEEP_SRC_NONE                None
 777:Generated_Source\PSoC5/cyPm.c **** *  PM_SLEEP_SRC_COMPARATOR0         Comparator 0
 778:Generated_Source\PSoC5/cyPm.c **** *  PM_SLEEP_SRC_COMPARATOR1         Comparator 1
 779:Generated_Source\PSoC5/cyPm.c **** *  PM_SLEEP_SRC_COMPARATOR2         Comparator 2
 780:Generated_Source\PSoC5/cyPm.c **** *  PM_SLEEP_SRC_COMPARATOR3         Comparator 3
 781:Generated_Source\PSoC5/cyPm.c **** *  PM_SLEEP_SRC_PICU                PICU
 782:Generated_Source\PSoC5/cyPm.c **** *  PM_SLEEP_SRC_I2C                 I2C
 783:Generated_Source\PSoC5/cyPm.c **** *  PM_SLEEP_SRC_BOOSTCONVERTER      Boost Converter
 784:Generated_Source\PSoC5/cyPm.c **** *  PM_SLEEP_SRC_VD                  High and Low Voltage Detection (HVI, LVI)
 785:Generated_Source\PSoC5/cyPm.c **** *  PM_SLEEP_SRC_CTW                 Central Timewheel*
 786:Generated_Source\PSoC5/cyPm.c **** *  PM_SLEEP_SRC_ONE_PPS             One PPS*
 787:Generated_Source\PSoC5/cyPm.c **** *  PM_SLEEP_SRC_LCD                 LCD
 788:Generated_Source\PSoC5/cyPm.c **** *
 789:Generated_Source\PSoC5/cyPm.c **** *  \param *Note:   CTW and One PPS wakeup signals are in the same mask bit.
 790:Generated_Source\PSoC5/cyPm.c **** *
 791:Generated_Source\PSoC5/cyPm.c **** *  When specifying a Comparator as the wakeupSource an instance specific define
 792:Generated_Source\PSoC5/cyPm.c **** *  should be used that will track with the specific comparator that the instance
 793:Generated_Source\PSoC5/cyPm.c **** *  is placed into. As an example for a Comparator instance named MyComp the
 794:Generated_Source\PSoC5/cyPm.c **** *  \param value to OR into the mask is: MyComp_ctComp__CMP_MASK.
 795:Generated_Source\PSoC5/cyPm.c **** *
 796:Generated_Source\PSoC5/cyPm.c **** *  When CTW or One PPS is used as a wakeup source, the CyPmReadStatus()
 797:Generated_Source\PSoC5/cyPm.c **** *  function must be called upon wakeup with corresponding parameter. Please
 798:Generated_Source\PSoC5/cyPm.c **** *  refer to the CyPmReadStatus() API in the System Reference Guide for more
 799:Generated_Source\PSoC5/cyPm.c **** *  information.
 800:Generated_Source\PSoC5/cyPm.c **** *
 801:Generated_Source\PSoC5/cyPm.c **** * Reentrant:
 802:Generated_Source\PSoC5/cyPm.c **** *  No
 803:Generated_Source\PSoC5/cyPm.c **** *
 804:Generated_Source\PSoC5/cyPm.c **** * Side Effects and Restrictions:
 805:Generated_Source\PSoC5/cyPm.c **** *  If a wakeupTime other than NONE is specified, then upon exit the state of the
 806:Generated_Source\PSoC5/cyPm.c **** *  specified timer will be left as specified by wakeupTime with the timer
 807:Generated_Source\PSoC5/cyPm.c **** *  enabled and the interrupt disabled. Also, the ILO 1 KHz (if CTW timer is
 808:Generated_Source\PSoC5/cyPm.c **** *  used as wake up time) will be left started.
 809:Generated_Source\PSoC5/cyPm.c **** *
 810:Generated_Source\PSoC5/cyPm.c **** *  The 1 kHz ILO clock is expected to be enabled for PSoC 3 and PSoC 5LP to
 811:Generated_Source\PSoC5/cyPm.c **** *  measure Hibernate/Sleep regulator settling time after a reset. The holdoff
 812:Generated_Source\PSoC5/cyPm.c **** *  delay is measured using rising edges of the 1 kHz ILO.
 813:Generated_Source\PSoC5/cyPm.c **** *
 814:Generated_Source\PSoC5/cyPm.c **** *  For PSoC 3 silicon hardware buzz should be disabled before entering a sleep
 815:Generated_Source\PSoC5/cyPm.c **** *  power mode. It is disabled by PSoC Creator during startup.
 816:Generated_Source\PSoC5/cyPm.c **** *  If a Low Voltage Interrupt (LVI), High Voltage Interrupt (HVI) or Brown Out
 817:Generated_Source\PSoC5/cyPm.c **** *  detect (power supply supervising capabilities) are required in a design
 818:Generated_Source\PSoC5/cyPm.c **** *  during sleep, use the Central Time Wheel (CTW) to periodically wake the
 819:Generated_Source\PSoC5/cyPm.c **** *  device, perform software buzz, and refresh the supervisory services. If LVI,
 820:Generated_Source\PSoC5/cyPm.c **** *  HVI, or Brown Out is not required, then CTW is not required.
 821:Generated_Source\PSoC5/cyPm.c **** *  Refer to the device errata for more information.
 822:Generated_Source\PSoC5/cyPm.c **** *
 823:Generated_Source\PSoC5/cyPm.c **** *******************************************************************************/
 824:Generated_Source\PSoC5/cyPm.c **** void CyPmSleep(uint8 wakeupTime, uint16 wakeupSource) 
 825:Generated_Source\PSoC5/cyPm.c **** {
 826:Generated_Source\PSoC5/cyPm.c ****     uint8 interruptState;
 827:Generated_Source\PSoC5/cyPm.c **** 
 828:Generated_Source\PSoC5/cyPm.c ****     /* Save current global interrupt enable and disable it */
 829:Generated_Source\PSoC5/cyPm.c ****     interruptState = CyEnterCriticalSection();
ARM GAS  C:\Users\aupen\AppData\Local\Temp\cct0TTf9.s 			page 16


 830:Generated_Source\PSoC5/cyPm.c **** 
 831:Generated_Source\PSoC5/cyPm.c **** 
 832:Generated_Source\PSoC5/cyPm.c ****     /***********************************************************************
 833:Generated_Source\PSoC5/cyPm.c ****     * The Hibernate/Sleep regulator has a settling time after a reset.
 834:Generated_Source\PSoC5/cyPm.c ****     * During this time, the system ignores requests to enter Sleep and
 835:Generated_Source\PSoC5/cyPm.c ****     * Hibernate modes. The holdoff delay is measured using rising edges of
 836:Generated_Source\PSoC5/cyPm.c ****     * the 1 kHz ILO.
 837:Generated_Source\PSoC5/cyPm.c ****     ***********************************************************************/
 838:Generated_Source\PSoC5/cyPm.c ****     if(0u == (CY_PM_MODE_CSR_REG & CY_PM_MODE_CSR_PWRUP_PULSE_Q))
 839:Generated_Source\PSoC5/cyPm.c ****     {
 840:Generated_Source\PSoC5/cyPm.c ****         /* Disable hold off - no action on restore */
 841:Generated_Source\PSoC5/cyPm.c ****         CY_PM_PWRSYS_SLP_TR_REG &= CY_PM_PWRSYS_SLP_TR_HIBSLP_HOLDOFF_MASK;
 842:Generated_Source\PSoC5/cyPm.c ****     }
 843:Generated_Source\PSoC5/cyPm.c ****     else
 844:Generated_Source\PSoC5/cyPm.c ****     {
 845:Generated_Source\PSoC5/cyPm.c ****         /* Abort, device is not ready for low power mode entry */
 846:Generated_Source\PSoC5/cyPm.c **** 
 847:Generated_Source\PSoC5/cyPm.c ****         /* Restore global interrupt enable state */
 848:Generated_Source\PSoC5/cyPm.c ****         CyExitCriticalSection(interruptState);
 849:Generated_Source\PSoC5/cyPm.c **** 
 850:Generated_Source\PSoC5/cyPm.c ****         return;
 851:Generated_Source\PSoC5/cyPm.c ****     }
 852:Generated_Source\PSoC5/cyPm.c **** 
 853:Generated_Source\PSoC5/cyPm.c **** 
 854:Generated_Source\PSoC5/cyPm.c ****     /***********************************************************************
 855:Generated_Source\PSoC5/cyPm.c ****     * PSoC3 < TO6:
 856:Generated_Source\PSoC5/cyPm.c ****     * - Hardware buzz must be disabled before the sleep mode entry.
 857:Generated_Source\PSoC5/cyPm.c ****     * - Voltage supervision (HVI/LVI) requires hardware buzz, so they must
 858:Generated_Source\PSoC5/cyPm.c ****     *   be also disabled.
 859:Generated_Source\PSoC5/cyPm.c ****     *
 860:Generated_Source\PSoC5/cyPm.c ****     * PSoC3 >= TO6:
 861:Generated_Source\PSoC5/cyPm.c ****     * - Voltage supervision (HVI/LVI) requires hardware buzz, so hardware
 862:Generated_Source\PSoC5/cyPm.c ****     *   buzz must be enabled before the sleep mode entry and restored on
 863:Generated_Source\PSoC5/cyPm.c ****     *   the wakeup.
 864:Generated_Source\PSoC5/cyPm.c ****     ***********************************************************************/
 865:Generated_Source\PSoC5/cyPm.c ****     #if(CY_PSOC3)
 866:Generated_Source\PSoC5/cyPm.c **** 
 867:Generated_Source\PSoC5/cyPm.c ****         /* Silicon Revision ID is below TO6 */
 868:Generated_Source\PSoC5/cyPm.c ****         if(CYDEV_CHIP_REV_ACTUAL < 5u)
 869:Generated_Source\PSoC5/cyPm.c ****         {
 870:Generated_Source\PSoC5/cyPm.c ****             /* Hardware buzz expected to be disabled in Sleep mode */
 871:Generated_Source\PSoC5/cyPm.c ****             CYASSERT(0u == (CY_PM_PWRSYS_WAKE_TR2_REG & CY_PM_PWRSYS_WAKE_TR2_EN_BUZZ));
 872:Generated_Source\PSoC5/cyPm.c ****         }
 873:Generated_Source\PSoC5/cyPm.c **** 
 874:Generated_Source\PSoC5/cyPm.c **** 
 875:Generated_Source\PSoC5/cyPm.c ****         if(0u != (CY_PM_RESET_CR1_REG & (CY_PM_RESET_CR1_HVIA_EN |
 876:Generated_Source\PSoC5/cyPm.c ****             CY_PM_RESET_CR1_LVIA_EN | CY_PM_RESET_CR1_LVID_EN)))
 877:Generated_Source\PSoC5/cyPm.c ****         {
 878:Generated_Source\PSoC5/cyPm.c ****             if(CYDEV_CHIP_REV_ACTUAL < 5u)
 879:Generated_Source\PSoC5/cyPm.c ****             {
 880:Generated_Source\PSoC5/cyPm.c ****                 /* LVI/HVI requires hardware buzz to be enabled */
 881:Generated_Source\PSoC5/cyPm.c ****                 CYASSERT(0u != 0u);
 882:Generated_Source\PSoC5/cyPm.c ****             }
 883:Generated_Source\PSoC5/cyPm.c ****             else
 884:Generated_Source\PSoC5/cyPm.c ****             {
 885:Generated_Source\PSoC5/cyPm.c ****                 if (0u == (CY_PM_PWRSYS_WAKE_TR2_REG & CY_PM_PWRSYS_WAKE_TR2_EN_BUZZ))
 886:Generated_Source\PSoC5/cyPm.c ****                 {
ARM GAS  C:\Users\aupen\AppData\Local\Temp\cct0TTf9.s 			page 17


 887:Generated_Source\PSoC5/cyPm.c ****                     cyPmBackup.hardwareBuzz = CY_PM_DISABLED;
 888:Generated_Source\PSoC5/cyPm.c ****                     CY_PM_PWRSYS_WAKE_TR2_REG |= CY_PM_PWRSYS_WAKE_TR2_EN_BUZZ;
 889:Generated_Source\PSoC5/cyPm.c ****                 }
 890:Generated_Source\PSoC5/cyPm.c ****                 else
 891:Generated_Source\PSoC5/cyPm.c ****                 {
 892:Generated_Source\PSoC5/cyPm.c ****                     cyPmBackup.hardwareBuzz = CY_PM_ENABLED;
 893:Generated_Source\PSoC5/cyPm.c ****                 }
 894:Generated_Source\PSoC5/cyPm.c ****             }
 895:Generated_Source\PSoC5/cyPm.c ****         }
 896:Generated_Source\PSoC5/cyPm.c **** 
 897:Generated_Source\PSoC5/cyPm.c ****     #endif /* (CY_PSOC3) */
 898:Generated_Source\PSoC5/cyPm.c **** 
 899:Generated_Source\PSoC5/cyPm.c **** 
 900:Generated_Source\PSoC5/cyPm.c ****     /*******************************************************************************
 901:Generated_Source\PSoC5/cyPm.c ****     * For ARM-based devices,interrupt is required for the CPU to wake up. The
 902:Generated_Source\PSoC5/cyPm.c ****     * Power Management implementation assumes that wakeup time is configured with a
 903:Generated_Source\PSoC5/cyPm.c ****     * separate component (component-based wakeup time configuration) for
 904:Generated_Source\PSoC5/cyPm.c ****     * interrupt to be issued on terminal count. For more information, refer to the
 905:Generated_Source\PSoC5/cyPm.c ****     * Wakeup Time Configuration section of System Reference Guide.
 906:Generated_Source\PSoC5/cyPm.c ****     *******************************************************************************/
 907:Generated_Source\PSoC5/cyPm.c ****     #if(CY_PSOC5)
 908:Generated_Source\PSoC5/cyPm.c **** 
 909:Generated_Source\PSoC5/cyPm.c ****         /* Arguments expected to be 0 */
 910:Generated_Source\PSoC5/cyPm.c ****         CYASSERT(PM_SLEEP_TIME_NONE == wakeupTime);
 911:Generated_Source\PSoC5/cyPm.c **** 
 912:Generated_Source\PSoC5/cyPm.c ****         if(0u != wakeupTime)
 913:Generated_Source\PSoC5/cyPm.c ****         {
 914:Generated_Source\PSoC5/cyPm.c ****             /* To remove unreferenced local variable warning */
 915:Generated_Source\PSoC5/cyPm.c ****         }
 916:Generated_Source\PSoC5/cyPm.c **** 
 917:Generated_Source\PSoC5/cyPm.c ****     #endif /* (CY_PSOC5) */
 918:Generated_Source\PSoC5/cyPm.c **** 
 919:Generated_Source\PSoC5/cyPm.c **** 
 920:Generated_Source\PSoC5/cyPm.c ****     CyPmHibSlpSaveSet();
 921:Generated_Source\PSoC5/cyPm.c **** 
 922:Generated_Source\PSoC5/cyPm.c **** 
 923:Generated_Source\PSoC5/cyPm.c ****     #if(CY_PSOC3)
 924:Generated_Source\PSoC5/cyPm.c **** 
 925:Generated_Source\PSoC5/cyPm.c ****         /* CTW - save current and set new configuration */
 926:Generated_Source\PSoC5/cyPm.c ****         if((wakeupTime >= PM_SLEEP_TIME_CTW_2MS) && (wakeupTime <= PM_SLEEP_TIME_CTW_4096MS))
 927:Generated_Source\PSoC5/cyPm.c ****         {
 928:Generated_Source\PSoC5/cyPm.c ****             /* Save current and set new configuration of CTW */
 929:Generated_Source\PSoC5/cyPm.c ****             CyPmCtwSetInterval((uint8)(wakeupTime - 1u));
 930:Generated_Source\PSoC5/cyPm.c **** 
 931:Generated_Source\PSoC5/cyPm.c ****             /* Include associated timer to wakeupSource */
 932:Generated_Source\PSoC5/cyPm.c ****             wakeupSource |= PM_SLEEP_SRC_CTW;
 933:Generated_Source\PSoC5/cyPm.c ****         }
 934:Generated_Source\PSoC5/cyPm.c **** 
 935:Generated_Source\PSoC5/cyPm.c ****         /* 1PPS - save current and set new configuration */
 936:Generated_Source\PSoC5/cyPm.c ****         if(PM_SLEEP_TIME_ONE_PPS == wakeupTime)
 937:Generated_Source\PSoC5/cyPm.c ****         {
 938:Generated_Source\PSoC5/cyPm.c ****             /* Save current and set new configuration of the 1PPS */
 939:Generated_Source\PSoC5/cyPm.c ****             CyPmOppsSet();
 940:Generated_Source\PSoC5/cyPm.c **** 
 941:Generated_Source\PSoC5/cyPm.c ****             /* Include associated timer to wakeupSource */
 942:Generated_Source\PSoC5/cyPm.c ****             wakeupSource |= PM_SLEEP_SRC_ONE_PPS;
 943:Generated_Source\PSoC5/cyPm.c ****         }
ARM GAS  C:\Users\aupen\AppData\Local\Temp\cct0TTf9.s 			page 18


 944:Generated_Source\PSoC5/cyPm.c **** 
 945:Generated_Source\PSoC5/cyPm.c ****     #endif /* (CY_PSOC3) */
 946:Generated_Source\PSoC5/cyPm.c **** 
 947:Generated_Source\PSoC5/cyPm.c **** 
 948:Generated_Source\PSoC5/cyPm.c ****     /* Save and set new wake up configuration */
 949:Generated_Source\PSoC5/cyPm.c **** 
 950:Generated_Source\PSoC5/cyPm.c ****     /* Interrupt, PICU, I2C, Boost converter, CTW/1PPS */
 951:Generated_Source\PSoC5/cyPm.c ****     cyPmBackup.wakeupCfg0 = CY_PM_WAKEUP_CFG0_REG;
 952:Generated_Source\PSoC5/cyPm.c ****     CY_PM_WAKEUP_CFG0_REG = (uint8) (wakeupSource >> 4u);
 953:Generated_Source\PSoC5/cyPm.c **** 
 954:Generated_Source\PSoC5/cyPm.c ****     /* Comparators */
 955:Generated_Source\PSoC5/cyPm.c ****     cyPmBackup.wakeupCfg1 = CY_PM_WAKEUP_CFG1_REG;
 956:Generated_Source\PSoC5/cyPm.c ****     CY_PM_WAKEUP_CFG1_REG = (((uint8) wakeupSource) & CY_PM_WAKEUP_SRC_CMPS_MASK);
 957:Generated_Source\PSoC5/cyPm.c **** 
 958:Generated_Source\PSoC5/cyPm.c ****     /* LCD */
 959:Generated_Source\PSoC5/cyPm.c ****     cyPmBackup.wakeupCfg2 = CY_PM_WAKEUP_CFG2_REG;
 960:Generated_Source\PSoC5/cyPm.c ****     CY_PM_WAKEUP_CFG2_REG = ((uint8) ((wakeupSource >> 12u) & 0x01u));
 961:Generated_Source\PSoC5/cyPm.c **** 
 962:Generated_Source\PSoC5/cyPm.c **** 
 963:Generated_Source\PSoC5/cyPm.c ****     /*******************************************************************
 964:Generated_Source\PSoC5/cyPm.c ****     * Do not use the merge region below unless any component datasheet
 965:Generated_Source\PSoC5/cyPm.c ****     * suggests doing so.
 966:Generated_Source\PSoC5/cyPm.c ****     *******************************************************************/
 967:Generated_Source\PSoC5/cyPm.c ****     /* `#START CY_PM_JUST_BEFORE_SLEEP` */
 968:Generated_Source\PSoC5/cyPm.c **** 
 969:Generated_Source\PSoC5/cyPm.c ****     /* `#END` */
 970:Generated_Source\PSoC5/cyPm.c **** 
 971:Generated_Source\PSoC5/cyPm.c ****     #ifdef CY_BOOT_CY_PM_SLEEP_BEFORE_SLEEP_CALLBACK
 972:Generated_Source\PSoC5/cyPm.c ****         CyBoot_CyPmSleep_BeforeSleep_Callback();
 973:Generated_Source\PSoC5/cyPm.c ****     #endif /* CY_BOOT_CY_PM_SLEEP_BEFORE_SLEEP_CALLBACK */
 974:Generated_Source\PSoC5/cyPm.c **** 
 975:Generated_Source\PSoC5/cyPm.c ****     /* Last moment IMO frequency change */
 976:Generated_Source\PSoC5/cyPm.c ****     if(0u == (CY_PM_FASTCLK_IMO_CR_REG & CY_PM_FASTCLK_IMO_CR_FREQ_MASK))
 977:Generated_Source\PSoC5/cyPm.c ****     {
 978:Generated_Source\PSoC5/cyPm.c ****         /* IMO frequency is 12 MHz */
 979:Generated_Source\PSoC5/cyPm.c ****         cyPmBackup.imoActFreq12Mhz = CY_PM_ENABLED;
 980:Generated_Source\PSoC5/cyPm.c ****     }
 981:Generated_Source\PSoC5/cyPm.c ****     else
 982:Generated_Source\PSoC5/cyPm.c ****     {
 983:Generated_Source\PSoC5/cyPm.c ****         /* IMO frequency is not 12 MHz */
 984:Generated_Source\PSoC5/cyPm.c ****         cyPmBackup.imoActFreq12Mhz = CY_PM_DISABLED;
 985:Generated_Source\PSoC5/cyPm.c **** 
 986:Generated_Source\PSoC5/cyPm.c ****         /* Save IMO frequency */
 987:Generated_Source\PSoC5/cyPm.c ****         cyPmBackup.imoActFreq = CY_PM_FASTCLK_IMO_CR_REG & CY_PM_FASTCLK_IMO_CR_FREQ_MASK;
 988:Generated_Source\PSoC5/cyPm.c **** 
 989:Generated_Source\PSoC5/cyPm.c ****         /* Set IMO frequency to 12 MHz */
 990:Generated_Source\PSoC5/cyPm.c ****         CY_PM_FASTCLK_IMO_CR_REG &= ((uint8) (~CY_PM_FASTCLK_IMO_CR_FREQ_MASK));
 991:Generated_Source\PSoC5/cyPm.c ****     }
 992:Generated_Source\PSoC5/cyPm.c **** 
 993:Generated_Source\PSoC5/cyPm.c ****     /* Switch to Sleep mode */
 994:Generated_Source\PSoC5/cyPm.c ****     CY_PM_MODE_CSR_REG = ((CY_PM_MODE_CSR_REG & ((uint8)(~CY_PM_MODE_CSR_MASK))) | CY_PM_MODE_CSR_S
 995:Generated_Source\PSoC5/cyPm.c **** 
 996:Generated_Source\PSoC5/cyPm.c ****     /* Recommended readback. */
 997:Generated_Source\PSoC5/cyPm.c ****     (void) CY_PM_MODE_CSR_REG;
 998:Generated_Source\PSoC5/cyPm.c **** 
 999:Generated_Source\PSoC5/cyPm.c ****     /* Two recommended NOPs to get into mode. */
1000:Generated_Source\PSoC5/cyPm.c ****     CY_NOP;
ARM GAS  C:\Users\aupen\AppData\Local\Temp\cct0TTf9.s 			page 19


1001:Generated_Source\PSoC5/cyPm.c ****     CY_NOP;
1002:Generated_Source\PSoC5/cyPm.c **** 
1003:Generated_Source\PSoC5/cyPm.c ****     /* Execute WFI instruction (for ARM-based devices only) */
1004:Generated_Source\PSoC5/cyPm.c ****     CY_PM_WFI;
1005:Generated_Source\PSoC5/cyPm.c **** 
1006:Generated_Source\PSoC5/cyPm.c ****     /* Point of return from Sleep Mode */
1007:Generated_Source\PSoC5/cyPm.c **** 
1008:Generated_Source\PSoC5/cyPm.c ****     /* Restore last moment IMO frequency change */
1009:Generated_Source\PSoC5/cyPm.c ****     if(CY_PM_ENABLED != cyPmBackup.imoActFreq12Mhz)
1010:Generated_Source\PSoC5/cyPm.c ****     {
1011:Generated_Source\PSoC5/cyPm.c ****         CY_PM_FASTCLK_IMO_CR_REG  = (CY_PM_FASTCLK_IMO_CR_REG & ((uint8)(~CY_PM_FASTCLK_IMO_CR_FREQ
1012:Generated_Source\PSoC5/cyPm.c ****                                     cyPmBackup.imoActFreq;
1013:Generated_Source\PSoC5/cyPm.c ****     }
1014:Generated_Source\PSoC5/cyPm.c **** 
1015:Generated_Source\PSoC5/cyPm.c **** 
1016:Generated_Source\PSoC5/cyPm.c ****     /*******************************************************************
1017:Generated_Source\PSoC5/cyPm.c ****     * Do not use merge region below unless any component datasheet
1018:Generated_Source\PSoC5/cyPm.c ****     * suggest to do so.
1019:Generated_Source\PSoC5/cyPm.c ****     *******************************************************************/
1020:Generated_Source\PSoC5/cyPm.c ****     /* `#START CY_PM_JUST_AFTER_WAKEUP_FROM_SLEEP` */
1021:Generated_Source\PSoC5/cyPm.c **** 
1022:Generated_Source\PSoC5/cyPm.c ****     /* `#END` */
1023:Generated_Source\PSoC5/cyPm.c **** 
1024:Generated_Source\PSoC5/cyPm.c ****     #ifdef CY_BOOT_CY_PM_SLEEP_AFTER_SLEEP_CALLBACK
1025:Generated_Source\PSoC5/cyPm.c ****         CyBoot_CyPmSleep_AfterSleep_Callback();
1026:Generated_Source\PSoC5/cyPm.c ****     #endif /* CY_BOOT_CY_PM_SLEEP_AFTER_SLEEP_CALLBACK */
1027:Generated_Source\PSoC5/cyPm.c **** 
1028:Generated_Source\PSoC5/cyPm.c ****     /* Restore hardware configuration */
1029:Generated_Source\PSoC5/cyPm.c ****     CyPmHibSlpRestore();
1030:Generated_Source\PSoC5/cyPm.c **** 
1031:Generated_Source\PSoC5/cyPm.c **** 
1032:Generated_Source\PSoC5/cyPm.c ****     /* Disable hardware buzz, if it was previously enabled */
1033:Generated_Source\PSoC5/cyPm.c ****     #if(CY_PSOC3)
1034:Generated_Source\PSoC5/cyPm.c **** 
1035:Generated_Source\PSoC5/cyPm.c ****         if(0u != (CY_PM_RESET_CR1_REG & (CY_PM_RESET_CR1_HVIA_EN |
1036:Generated_Source\PSoC5/cyPm.c ****             CY_PM_RESET_CR1_LVIA_EN | CY_PM_RESET_CR1_LVID_EN)))
1037:Generated_Source\PSoC5/cyPm.c ****         {
1038:Generated_Source\PSoC5/cyPm.c ****             if(CYDEV_CHIP_REV_ACTUAL >= 5u)
1039:Generated_Source\PSoC5/cyPm.c ****             {
1040:Generated_Source\PSoC5/cyPm.c ****                 if (CY_PM_DISABLED == cyPmBackup.hardwareBuzz)
1041:Generated_Source\PSoC5/cyPm.c ****                 {
1042:Generated_Source\PSoC5/cyPm.c ****                     CY_PM_PWRSYS_WAKE_TR2_REG &= (uint8)(~CY_PM_PWRSYS_WAKE_TR2_EN_BUZZ);
1043:Generated_Source\PSoC5/cyPm.c ****                 }
1044:Generated_Source\PSoC5/cyPm.c ****             }
1045:Generated_Source\PSoC5/cyPm.c ****         }
1046:Generated_Source\PSoC5/cyPm.c **** 
1047:Generated_Source\PSoC5/cyPm.c ****     #endif /* (CY_PSOC3) */
1048:Generated_Source\PSoC5/cyPm.c **** 
1049:Generated_Source\PSoC5/cyPm.c **** 
1050:Generated_Source\PSoC5/cyPm.c ****     /* Restore current wake up configuration */
1051:Generated_Source\PSoC5/cyPm.c ****     CY_PM_WAKEUP_CFG0_REG = cyPmBackup.wakeupCfg0;
1052:Generated_Source\PSoC5/cyPm.c ****     CY_PM_WAKEUP_CFG1_REG = cyPmBackup.wakeupCfg1;
1053:Generated_Source\PSoC5/cyPm.c ****     CY_PM_WAKEUP_CFG2_REG = cyPmBackup.wakeupCfg2;
1054:Generated_Source\PSoC5/cyPm.c **** 
1055:Generated_Source\PSoC5/cyPm.c ****     /* Restore global interrupt enable state */
1056:Generated_Source\PSoC5/cyPm.c ****     CyExitCriticalSection(interruptState);
1057:Generated_Source\PSoC5/cyPm.c **** }
ARM GAS  C:\Users\aupen\AppData\Local\Temp\cct0TTf9.s 			page 20


1058:Generated_Source\PSoC5/cyPm.c **** 
1059:Generated_Source\PSoC5/cyPm.c **** 
1060:Generated_Source\PSoC5/cyPm.c **** /*******************************************************************************
1061:Generated_Source\PSoC5/cyPm.c **** * Function Name: CyPmHibernate
1062:Generated_Source\PSoC5/cyPm.c **** ****************************************************************************//**
1063:Generated_Source\PSoC5/cyPm.c **** *
1064:Generated_Source\PSoC5/cyPm.c **** *  Puts the part into the Hibernate state.
1065:Generated_Source\PSoC5/cyPm.c **** *
1066:Generated_Source\PSoC5/cyPm.c **** *  Before switching to Hibernate, the current status of the PICU wakeup source
1067:Generated_Source\PSoC5/cyPm.c **** *  bit is saved and then set. This configures the device to wake up from the
1068:Generated_Source\PSoC5/cyPm.c **** *  PICU. Make sure you have at least one pin configured to generate PICU
1069:Generated_Source\PSoC5/cyPm.c **** *  interrupt. For pin Px.y, the register "PICU_INTTYPE_PICUx_INTTYPEy" controls
1070:Generated_Source\PSoC5/cyPm.c **** *  the PICU behavior. In the TRM, this register is "PICU[0..15]_INTTYPE[0..7]."
1071:Generated_Source\PSoC5/cyPm.c **** *  In the Pins component datasheet, this register is referred to as the IRQ
1072:Generated_Source\PSoC5/cyPm.c **** *  option. Once the wakeup occurs, the PICU wakeup source bit is restored and
1073:Generated_Source\PSoC5/cyPm.c **** *  the PSoC returns to the Active state.
1074:Generated_Source\PSoC5/cyPm.c **** *
1075:Generated_Source\PSoC5/cyPm.c **** * Reentrant:
1076:Generated_Source\PSoC5/cyPm.c **** *  No
1077:Generated_Source\PSoC5/cyPm.c **** *
1078:Generated_Source\PSoC5/cyPm.c **** * \sideeffect
1079:Generated_Source\PSoC5/cyPm.c **** *  Applications must wait 20 us before re-entering hibernate or sleep after
1080:Generated_Source\PSoC5/cyPm.c **** *  waking up from hibernate. The 20 us allows the sleep regulator time to
1081:Generated_Source\PSoC5/cyPm.c **** *  stabilize before the next hibernate / sleep event occurs. The 20 us
1082:Generated_Source\PSoC5/cyPm.c **** *  requirement begins when the device wakes up. There is no hardware check that
1083:Generated_Source\PSoC5/cyPm.c **** *  this requirement is met. The specified delay should be done on ISR entry.
1084:Generated_Source\PSoC5/cyPm.c **** *
1085:Generated_Source\PSoC5/cyPm.c **** *  After the wakeup PICU interrupt occurs, the Pin_ClearInterrupt() (where Pin
1086:Generated_Source\PSoC5/cyPm.c **** *  is instance name of the Pins component) function must be called to clear the
1087:Generated_Source\PSoC5/cyPm.c **** *  latched pin events to allow the proper Hibernate mode entry and to enable
1088:Generated_Source\PSoC5/cyPm.c **** *  detection of future events.
1089:Generated_Source\PSoC5/cyPm.c **** *
1090:Generated_Source\PSoC5/cyPm.c **** *  The 1 kHz ILO clock is expected to be enabled for PSoC 3 and PSoC 5LP to
1091:Generated_Source\PSoC5/cyPm.c **** *  measure Hibernate/Sleep regulator settling time after a reset. The holdoff
1092:Generated_Source\PSoC5/cyPm.c **** *  delay is measured using the rising edges of the 1 kHz ILO.
1093:Generated_Source\PSoC5/cyPm.c **** *
1094:Generated_Source\PSoC5/cyPm.c **** *******************************************************************************/
1095:Generated_Source\PSoC5/cyPm.c **** void CyPmHibernate(void) 
1096:Generated_Source\PSoC5/cyPm.c **** {
1097:Generated_Source\PSoC5/cyPm.c ****     CyPmHibernateEx(CY_PM_HIB_SRC_PICU);
1098:Generated_Source\PSoC5/cyPm.c **** }
1099:Generated_Source\PSoC5/cyPm.c **** 
1100:Generated_Source\PSoC5/cyPm.c **** 
1101:Generated_Source\PSoC5/cyPm.c **** /*******************************************************************************
1102:Generated_Source\PSoC5/cyPm.c **** * Function Name: CyPmHibernateEx
1103:Generated_Source\PSoC5/cyPm.c **** ****************************************************************************//**
1104:Generated_Source\PSoC5/cyPm.c **** *
1105:Generated_Source\PSoC5/cyPm.c **** *  Puts the part into the Hibernate state.
1106:Generated_Source\PSoC5/cyPm.c **** *
1107:Generated_Source\PSoC5/cyPm.c **** *  The following wake up sources can be configured: PICU interrupt, Comparator0,
1108:Generated_Source\PSoC5/cyPm.c **** *  Comparator1, Comparator2, and Comparator3 output.
1109:Generated_Source\PSoC5/cyPm.c **** *
1110:Generated_Source\PSoC5/cyPm.c **** *  Before switching to Hibernate, the current status of the PICU wakeup source
1111:Generated_Source\PSoC5/cyPm.c **** *  bit is saved and then set.
1112:Generated_Source\PSoC5/cyPm.c **** *
1113:Generated_Source\PSoC5/cyPm.c **** *  If using PICU as the wake up source, make sure you have at least one pin
1114:Generated_Source\PSoC5/cyPm.c **** *  configured to generate a PICU interrupt. For pin Px.y, the register
ARM GAS  C:\Users\aupen\AppData\Local\Temp\cct0TTf9.s 			page 21


1115:Generated_Source\PSoC5/cyPm.c **** *  "PICU_INTTYPE_PICUx_INTTYPEy" controls  the PICU behavior. In the TRM, this
1116:Generated_Source\PSoC5/cyPm.c **** *  register is "PICU[0..15]_INTTYPE[0..7]." In the Pins component datasheet,
1117:Generated_Source\PSoC5/cyPm.c **** *  this register is referred to as the IRQ option. Once the wakeup occurs, the
1118:Generated_Source\PSoC5/cyPm.c **** *  PICU wakeup source bit is restored and the PSoC returns to the Active state.
1119:Generated_Source\PSoC5/cyPm.c **** *
1120:Generated_Source\PSoC5/cyPm.c **** *  If using a comparator as the wake up source, make sure you call this function
1121:Generated_Source\PSoC5/cyPm.c **** *  with the 'wakeupSource' parameter set to the appropriate comparator. The part
1122:Generated_Source\PSoC5/cyPm.c **** *  is configured for the requested wakeup source by setting the corresponding
1123:Generated_Source\PSoC5/cyPm.c **** *  bits in PM_WAKEUP_CFG1 register.
1124:Generated_Source\PSoC5/cyPm.c **** *
1125:Generated_Source\PSoC5/cyPm.c **** *  Function call CyPmHibernateEx(CY_PM_HIB_SRC_PICU) will act in the same way as
1126:Generated_Source\PSoC5/cyPm.c **** *  CyPmHibernate().
1127:Generated_Source\PSoC5/cyPm.c **** *
1128:Generated_Source\PSoC5/cyPm.c **** *  \param wakeupSource:
1129:Generated_Source\PSoC5/cyPm.c **** *           Parameter Value             Description
1130:Generated_Source\PSoC5/cyPm.c **** *       CY_PM_HIB_SRC_PICU          PICU interrupt is set as the wake up source.
1131:Generated_Source\PSoC5/cyPm.c **** *       CY_PM_HIB_SRC_COMPARATOR0   Comparator 0 is set as the wake up source.
1132:Generated_Source\PSoC5/cyPm.c **** *       CY_PM_HIB_SRC_COMPARATOR1   Comparator 1 is set as the wake up source.
1133:Generated_Source\PSoC5/cyPm.c **** *       CY_PM_HIB_SRC_COMPARATOR2   Comparator 2 is set as the wake up source.
1134:Generated_Source\PSoC5/cyPm.c **** *       CY_PM_HIB_SRC_COMPARATOR3   Comparator 3 is set as the wake up source.
1135:Generated_Source\PSoC5/cyPm.c **** *
1136:Generated_Source\PSoC5/cyPm.c **** * Reentrant:
1137:Generated_Source\PSoC5/cyPm.c **** *  No
1138:Generated_Source\PSoC5/cyPm.c **** *
1139:Generated_Source\PSoC5/cyPm.c **** * \sideeffect
1140:Generated_Source\PSoC5/cyPm.c **** *  Applications must wait 20 us before re-entering hibernate or sleep after
1141:Generated_Source\PSoC5/cyPm.c **** *  waking up from hibernate. The 20 us allows the sleep regulator time to
1142:Generated_Source\PSoC5/cyPm.c **** *  stabilize before the next hibernate / sleep event occurs. The 20 us
1143:Generated_Source\PSoC5/cyPm.c **** *  requirement begins when the device wakes up. There is no hardware check that
1144:Generated_Source\PSoC5/cyPm.c **** *  this requirement is met. The specified delay should be done on ISR entry.
1145:Generated_Source\PSoC5/cyPm.c **** *
1146:Generated_Source\PSoC5/cyPm.c **** *  After the wakeup PICU interrupt occurs, the Pin_ClearInterrupt() (where Pin
1147:Generated_Source\PSoC5/cyPm.c **** *  is instance name of the Pins component) function must be called to clear the
1148:Generated_Source\PSoC5/cyPm.c **** *  latched pin events to allow the proper Hibernate mode entry and to enable
1149:Generated_Source\PSoC5/cyPm.c **** *  detection of future events.
1150:Generated_Source\PSoC5/cyPm.c **** *
1151:Generated_Source\PSoC5/cyPm.c **** *  The 1 kHz ILO clock is expected to be enabled for PSoC 3 and PSoC 5LP to
1152:Generated_Source\PSoC5/cyPm.c **** *  measure Hibernate/Sleep regulator settling time after a reset. The holdoff
1153:Generated_Source\PSoC5/cyPm.c **** *  delay is measured using the rising edges of the 1 kHz ILO.
1154:Generated_Source\PSoC5/cyPm.c **** *
1155:Generated_Source\PSoC5/cyPm.c **** *******************************************************************************/
1156:Generated_Source\PSoC5/cyPm.c **** void CyPmHibernateEx(uint16 wakeupSource) 
1157:Generated_Source\PSoC5/cyPm.c **** {
1158:Generated_Source\PSoC5/cyPm.c ****     uint8 interruptState;
1159:Generated_Source\PSoC5/cyPm.c **** 
1160:Generated_Source\PSoC5/cyPm.c ****     /* Save current global interrupt enable and disable it */
1161:Generated_Source\PSoC5/cyPm.c ****     interruptState = CyEnterCriticalSection();
1162:Generated_Source\PSoC5/cyPm.c **** 
1163:Generated_Source\PSoC5/cyPm.c ****         /***********************************************************************
1164:Generated_Source\PSoC5/cyPm.c ****         * The Hibernate/Sleep regulator has a settling time after a reset.
1165:Generated_Source\PSoC5/cyPm.c ****         * During this time, the system ignores requests to enter the Sleep and
1166:Generated_Source\PSoC5/cyPm.c ****         * Hibernate modes. The holdoff delay is measured using the rising edges of
1167:Generated_Source\PSoC5/cyPm.c ****         * the 1 kHz ILO.
1168:Generated_Source\PSoC5/cyPm.c ****         ***********************************************************************/
1169:Generated_Source\PSoC5/cyPm.c ****         if(0u == (CY_PM_MODE_CSR_REG & CY_PM_MODE_CSR_PWRUP_PULSE_Q))
1170:Generated_Source\PSoC5/cyPm.c ****         {
1171:Generated_Source\PSoC5/cyPm.c ****             /* Disable hold off - no action on restore */
ARM GAS  C:\Users\aupen\AppData\Local\Temp\cct0TTf9.s 			page 22


1172:Generated_Source\PSoC5/cyPm.c ****             CY_PM_PWRSYS_SLP_TR_REG &= CY_PM_PWRSYS_SLP_TR_HIBSLP_HOLDOFF_MASK;
1173:Generated_Source\PSoC5/cyPm.c ****         }
1174:Generated_Source\PSoC5/cyPm.c ****         else
1175:Generated_Source\PSoC5/cyPm.c ****         {
1176:Generated_Source\PSoC5/cyPm.c ****             /* Abort, device is not ready for low power mode entry */
1177:Generated_Source\PSoC5/cyPm.c **** 
1178:Generated_Source\PSoC5/cyPm.c ****             /* Restore global interrupt enable state */
1179:Generated_Source\PSoC5/cyPm.c ****             CyExitCriticalSection(interruptState);
1180:Generated_Source\PSoC5/cyPm.c **** 
1181:Generated_Source\PSoC5/cyPm.c ****             return;
1182:Generated_Source\PSoC5/cyPm.c ****         }
1183:Generated_Source\PSoC5/cyPm.c **** 
1184:Generated_Source\PSoC5/cyPm.c ****     CyPmHibSaveSet();
1185:Generated_Source\PSoC5/cyPm.c **** 
1186:Generated_Source\PSoC5/cyPm.c **** 
1187:Generated_Source\PSoC5/cyPm.c ****     /* Save and set new wake up configuration */
1188:Generated_Source\PSoC5/cyPm.c **** 
1189:Generated_Source\PSoC5/cyPm.c ****     /* Save and enable only wakeup on PICU */
1190:Generated_Source\PSoC5/cyPm.c ****     cyPmBackup.wakeupCfg0 = CY_PM_WAKEUP_CFG0_REG;
1191:Generated_Source\PSoC5/cyPm.c ****     CY_PM_WAKEUP_CFG0_REG = ((uint8) (wakeupSource >> 4u) & CY_PM_WAKEUP_PICU);
1192:Generated_Source\PSoC5/cyPm.c **** 
1193:Generated_Source\PSoC5/cyPm.c ****     /* Comparators */
1194:Generated_Source\PSoC5/cyPm.c ****     cyPmBackup.wakeupCfg1 = CY_PM_WAKEUP_CFG1_REG;
1195:Generated_Source\PSoC5/cyPm.c ****     CY_PM_WAKEUP_CFG1_REG = (((uint8) wakeupSource) & CY_PM_WAKEUP_SRC_CMPS_MASK);
1196:Generated_Source\PSoC5/cyPm.c **** 
1197:Generated_Source\PSoC5/cyPm.c ****     cyPmBackup.wakeupCfg2 = CY_PM_WAKEUP_CFG2_REG;
1198:Generated_Source\PSoC5/cyPm.c ****     CY_PM_WAKEUP_CFG2_REG = 0x00u;
1199:Generated_Source\PSoC5/cyPm.c **** 
1200:Generated_Source\PSoC5/cyPm.c **** 
1201:Generated_Source\PSoC5/cyPm.c ****     /* Last moment IMO frequency change */
1202:Generated_Source\PSoC5/cyPm.c ****     if(0u == (CY_PM_FASTCLK_IMO_CR_REG & CY_PM_FASTCLK_IMO_CR_FREQ_MASK))
1203:Generated_Source\PSoC5/cyPm.c ****     {
1204:Generated_Source\PSoC5/cyPm.c ****         /* IMO frequency is 12 MHz */
1205:Generated_Source\PSoC5/cyPm.c ****         cyPmBackup.imoActFreq12Mhz = CY_PM_ENABLED;
1206:Generated_Source\PSoC5/cyPm.c ****     }
1207:Generated_Source\PSoC5/cyPm.c ****     else
1208:Generated_Source\PSoC5/cyPm.c ****     {
1209:Generated_Source\PSoC5/cyPm.c ****         /* IMO frequency is not 12 MHz */
1210:Generated_Source\PSoC5/cyPm.c ****         cyPmBackup.imoActFreq12Mhz = CY_PM_DISABLED;
1211:Generated_Source\PSoC5/cyPm.c **** 
1212:Generated_Source\PSoC5/cyPm.c ****         /* Save IMO frequency */
1213:Generated_Source\PSoC5/cyPm.c ****         cyPmBackup.imoActFreq = CY_PM_FASTCLK_IMO_CR_REG & CY_PM_FASTCLK_IMO_CR_FREQ_MASK;
1214:Generated_Source\PSoC5/cyPm.c **** 
1215:Generated_Source\PSoC5/cyPm.c ****         /* Set IMO frequency to 12 MHz */
1216:Generated_Source\PSoC5/cyPm.c ****         CY_PM_FASTCLK_IMO_CR_REG &= ((uint8) (~CY_PM_FASTCLK_IMO_CR_FREQ_MASK));
1217:Generated_Source\PSoC5/cyPm.c ****     }
1218:Generated_Source\PSoC5/cyPm.c **** 
1219:Generated_Source\PSoC5/cyPm.c **** 
1220:Generated_Source\PSoC5/cyPm.c ****     /* Switch to Hibernate Mode */
1221:Generated_Source\PSoC5/cyPm.c ****     CY_PM_MODE_CSR_REG = (CY_PM_MODE_CSR_REG & ((uint8) (~CY_PM_MODE_CSR_MASK))) | CY_PM_MODE_CSR_H
1222:Generated_Source\PSoC5/cyPm.c **** 
1223:Generated_Source\PSoC5/cyPm.c ****     /* Recommended readback. */
1224:Generated_Source\PSoC5/cyPm.c ****     (void) CY_PM_MODE_CSR_REG;
1225:Generated_Source\PSoC5/cyPm.c **** 
1226:Generated_Source\PSoC5/cyPm.c ****     /* Two recommended NOPs to get into mode. */
1227:Generated_Source\PSoC5/cyPm.c ****     CY_NOP;
1228:Generated_Source\PSoC5/cyPm.c ****     CY_NOP;
ARM GAS  C:\Users\aupen\AppData\Local\Temp\cct0TTf9.s 			page 23


1229:Generated_Source\PSoC5/cyPm.c **** 
1230:Generated_Source\PSoC5/cyPm.c ****     /* Execute WFI instruction (for ARM-based devices only) */
1231:Generated_Source\PSoC5/cyPm.c ****     CY_PM_WFI;
1232:Generated_Source\PSoC5/cyPm.c **** 
1233:Generated_Source\PSoC5/cyPm.c **** 
1234:Generated_Source\PSoC5/cyPm.c ****     /* Point of return from Hibernate mode */
1235:Generated_Source\PSoC5/cyPm.c **** 
1236:Generated_Source\PSoC5/cyPm.c **** 
1237:Generated_Source\PSoC5/cyPm.c ****     /* Restore last moment IMO frequency change */
1238:Generated_Source\PSoC5/cyPm.c ****     if(CY_PM_ENABLED != cyPmBackup.imoActFreq12Mhz)
1239:Generated_Source\PSoC5/cyPm.c ****     {
1240:Generated_Source\PSoC5/cyPm.c ****         CY_PM_FASTCLK_IMO_CR_REG  = (CY_PM_FASTCLK_IMO_CR_REG & ((uint8)(~CY_PM_FASTCLK_IMO_CR_FREQ
1241:Generated_Source\PSoC5/cyPm.c ****                                     cyPmBackup.imoActFreq;
1242:Generated_Source\PSoC5/cyPm.c ****     }
1243:Generated_Source\PSoC5/cyPm.c **** 
1244:Generated_Source\PSoC5/cyPm.c **** 
1245:Generated_Source\PSoC5/cyPm.c ****     /* Restore device for proper Hibernate mode exit*/
1246:Generated_Source\PSoC5/cyPm.c ****     CyPmHibRestore();
1247:Generated_Source\PSoC5/cyPm.c **** 
1248:Generated_Source\PSoC5/cyPm.c ****     /* Restore current wake up configuration */
1249:Generated_Source\PSoC5/cyPm.c ****     CY_PM_WAKEUP_CFG0_REG = cyPmBackup.wakeupCfg0;
1250:Generated_Source\PSoC5/cyPm.c ****     CY_PM_WAKEUP_CFG1_REG = cyPmBackup.wakeupCfg1;
1251:Generated_Source\PSoC5/cyPm.c ****     CY_PM_WAKEUP_CFG2_REG = cyPmBackup.wakeupCfg2;
1252:Generated_Source\PSoC5/cyPm.c **** 
1253:Generated_Source\PSoC5/cyPm.c ****     /* Restore global interrupt enable state */
1254:Generated_Source\PSoC5/cyPm.c ****     CyExitCriticalSection(interruptState);
1255:Generated_Source\PSoC5/cyPm.c **** }
1256:Generated_Source\PSoC5/cyPm.c **** 
1257:Generated_Source\PSoC5/cyPm.c **** 
1258:Generated_Source\PSoC5/cyPm.c **** /*******************************************************************************
1259:Generated_Source\PSoC5/cyPm.c **** * Function Name: CyPmReadStatus
1260:Generated_Source\PSoC5/cyPm.c **** ****************************************************************************//**
1261:Generated_Source\PSoC5/cyPm.c **** *
1262:Generated_Source\PSoC5/cyPm.c **** *  Manages the Power Manager Interrupt Status Register.  This register has the
1263:Generated_Source\PSoC5/cyPm.c **** *  interrupt status for the one pulse per second, central timewheel and fast
1264:Generated_Source\PSoC5/cyPm.c **** *  timewheel timers.  This hardware register clears on read.  To allow for only
1265:Generated_Source\PSoC5/cyPm.c **** *  clearing the bits of interest and preserving the other bits, this function
1266:Generated_Source\PSoC5/cyPm.c **** *  uses a shadow register that retains the state.  This function reads the
1267:Generated_Source\PSoC5/cyPm.c **** *  status register and ORs that value with the shadow register.  That is the
1268:Generated_Source\PSoC5/cyPm.c **** *  value that is returned.  Then the bits in the mask that are set are cleared
1269:Generated_Source\PSoC5/cyPm.c **** *  from this value and written back to the shadow register.
1270:Generated_Source\PSoC5/cyPm.c **** *
1271:Generated_Source\PSoC5/cyPm.c **** *  Note You must call this function within 1 ms (1 clock cycle of the ILO)
1272:Generated_Source\PSoC5/cyPm.c **** *  after a CTW event has occurred.
1273:Generated_Source\PSoC5/cyPm.c **** *
1274:Generated_Source\PSoC5/cyPm.c **** *  \param mask: Bits in the shadow register to clear.
1275:Generated_Source\PSoC5/cyPm.c **** *
1276:Generated_Source\PSoC5/cyPm.c **** *       Define                      Source
1277:Generated_Source\PSoC5/cyPm.c **** *  CY_PM_FTW_INT                Fast Timewheel
1278:Generated_Source\PSoC5/cyPm.c **** *  CY_PM_CTW_INT                Central Timewheel
1279:Generated_Source\PSoC5/cyPm.c **** *  CY_PM_ONEPPS_INT             One Pulse Per Second
1280:Generated_Source\PSoC5/cyPm.c **** *
1281:Generated_Source\PSoC5/cyPm.c **** * \return
1282:Generated_Source\PSoC5/cyPm.c **** *  Status.  Same bits values as the mask parameter.
1283:Generated_Source\PSoC5/cyPm.c **** *
1284:Generated_Source\PSoC5/cyPm.c **** *******************************************************************************/
1285:Generated_Source\PSoC5/cyPm.c **** uint8 CyPmReadStatus(uint8 mask) 
ARM GAS  C:\Users\aupen\AppData\Local\Temp\cct0TTf9.s 			page 24


1286:Generated_Source\PSoC5/cyPm.c **** {
1287:Generated_Source\PSoC5/cyPm.c ****     static uint8 interruptStatus;
1288:Generated_Source\PSoC5/cyPm.c ****     uint8 interruptState;
1289:Generated_Source\PSoC5/cyPm.c ****     uint8 tmpStatus;
1290:Generated_Source\PSoC5/cyPm.c **** 
1291:Generated_Source\PSoC5/cyPm.c ****     /* Enter critical section */
1292:Generated_Source\PSoC5/cyPm.c ****     interruptState = CyEnterCriticalSection();
1293:Generated_Source\PSoC5/cyPm.c **** 
1294:Generated_Source\PSoC5/cyPm.c ****     /* Save value of register, copy it and clear desired bit */
1295:Generated_Source\PSoC5/cyPm.c ****     interruptStatus |= CY_PM_INT_SR_REG;
1296:Generated_Source\PSoC5/cyPm.c ****     tmpStatus = interruptStatus & (CY_PM_FTW_INT | CY_PM_CTW_INT | CY_PM_ONEPPS_INT);
1297:Generated_Source\PSoC5/cyPm.c ****     interruptStatus &= ((uint8)(~mask));
1298:Generated_Source\PSoC5/cyPm.c **** 
1299:Generated_Source\PSoC5/cyPm.c ****     /* Exit critical section */
1300:Generated_Source\PSoC5/cyPm.c ****     CyExitCriticalSection(interruptState);
1301:Generated_Source\PSoC5/cyPm.c **** 
1302:Generated_Source\PSoC5/cyPm.c ****     return(tmpStatus);
1303:Generated_Source\PSoC5/cyPm.c **** }
1304:Generated_Source\PSoC5/cyPm.c **** 
1305:Generated_Source\PSoC5/cyPm.c **** 
1306:Generated_Source\PSoC5/cyPm.c **** /*******************************************************************************
1307:Generated_Source\PSoC5/cyPm.c **** * Function Name: CyPmHibSaveSet
1308:Generated_Source\PSoC5/cyPm.c **** ****************************************************************************//**
1309:Generated_Source\PSoC5/cyPm.c **** *
1310:Generated_Source\PSoC5/cyPm.c **** *  Prepare device for proper Hibernate low power mode entry:
1311:Generated_Source\PSoC5/cyPm.c **** *  - Disables I2C backup regulator
1312:Generated_Source\PSoC5/cyPm.c **** *  - Saves ILO power down mode state and enable it
1313:Generated_Source\PSoC5/cyPm.c **** *  - Saves state of 1 kHz and 100 kHz ILO and disable them
1314:Generated_Source\PSoC5/cyPm.c **** *  - Disables sleep regulator and shorts vccd to vpwrsleep
1315:Generated_Source\PSoC5/cyPm.c **** *  - Save LVI/HVI configuration and disable them - CyPmHviLviSaveDisable()
1316:Generated_Source\PSoC5/cyPm.c **** *  - CyPmHibSlpSaveSet() function is called
1317:Generated_Source\PSoC5/cyPm.c **** *
1318:Generated_Source\PSoC5/cyPm.c **** * Reentrant:
1319:Generated_Source\PSoC5/cyPm.c **** *  No
1320:Generated_Source\PSoC5/cyPm.c **** *
1321:Generated_Source\PSoC5/cyPm.c **** *******************************************************************************/
1322:Generated_Source\PSoC5/cyPm.c **** static void CyPmHibSaveSet(void) 
1323:Generated_Source\PSoC5/cyPm.c **** {
1324:Generated_Source\PSoC5/cyPm.c ****     /* I2C backup reg must be off when the sleep regulator is unavailable */
1325:Generated_Source\PSoC5/cyPm.c ****     if(0u != (CY_PM_PWRSYS_CR1_REG & CY_PM_PWRSYS_CR1_I2CREG_BACKUP))
1326:Generated_Source\PSoC5/cyPm.c ****     {
1327:Generated_Source\PSoC5/cyPm.c ****         /***********************************************************************
1328:Generated_Source\PSoC5/cyPm.c ****         * If the I2C backup regulator is enabled, all the fixed-function registers
1329:Generated_Source\PSoC5/cyPm.c ****         * store their values while the device is in the low power mode, otherwise their
1330:Generated_Source\PSoC5/cyPm.c ****         * configuration is lost. The I2C API makes a decision to restore or not
1331:Generated_Source\PSoC5/cyPm.c ****         * to restore I2C registers based on this. If this regulator will be
1332:Generated_Source\PSoC5/cyPm.c ****         * disabled and then enabled, I2C API will suppose that the I2C block
1333:Generated_Source\PSoC5/cyPm.c ****         * registers preserved their values, while this is not true. So, the
1334:Generated_Source\PSoC5/cyPm.c ****         * backup regulator is disabled. The I2C sleep APIs is responsible for
1335:Generated_Source\PSoC5/cyPm.c ****         * restoration.
1336:Generated_Source\PSoC5/cyPm.c ****         ***********************************************************************/
1337:Generated_Source\PSoC5/cyPm.c **** 
1338:Generated_Source\PSoC5/cyPm.c ****         /* Disable I2C backup register */
1339:Generated_Source\PSoC5/cyPm.c ****         CY_PM_PWRSYS_CR1_REG &= ((uint8)(~CY_PM_PWRSYS_CR1_I2CREG_BACKUP));
1340:Generated_Source\PSoC5/cyPm.c ****     }
1341:Generated_Source\PSoC5/cyPm.c **** 
1342:Generated_Source\PSoC5/cyPm.c **** 
ARM GAS  C:\Users\aupen\AppData\Local\Temp\cct0TTf9.s 			page 25


1343:Generated_Source\PSoC5/cyPm.c ****     /* Save current ILO power mode and ensure low power mode */
1344:Generated_Source\PSoC5/cyPm.c ****     cyPmBackup.iloPowerMode = CyILO_SetPowerMode(CY_PM_POWERDOWN_MODE);
1345:Generated_Source\PSoC5/cyPm.c **** 
1346:Generated_Source\PSoC5/cyPm.c ****     /* Save current 1kHz ILO enable state. Disabled automatically. */
1347:Generated_Source\PSoC5/cyPm.c ****     cyPmBackup.ilo1kEnable = (0u == (CY_PM_SLOWCLK_ILO_CR0_REG & CY_PM_ILO_CR0_EN_1K)) ?
1348:Generated_Source\PSoC5/cyPm.c ****                                 CY_PM_DISABLED : CY_PM_ENABLED;
1349:Generated_Source\PSoC5/cyPm.c **** 
1350:Generated_Source\PSoC5/cyPm.c ****     /* Save current 100kHz ILO enable state. Disabled automatically. */
1351:Generated_Source\PSoC5/cyPm.c ****     cyPmBackup.ilo100kEnable = (0u == (CY_PM_SLOWCLK_ILO_CR0_REG & CY_PM_ILO_CR0_EN_100K)) ?
1352:Generated_Source\PSoC5/cyPm.c ****                                 CY_PM_DISABLED : CY_PM_ENABLED;
1353:Generated_Source\PSoC5/cyPm.c **** 
1354:Generated_Source\PSoC5/cyPm.c **** 
1355:Generated_Source\PSoC5/cyPm.c ****     /* Disable the sleep regulator and shorts vccd to vpwrsleep */
1356:Generated_Source\PSoC5/cyPm.c ****     if(0u == (CY_PM_PWRSYS_SLP_TR_REG & CY_PM_PWRSYS_SLP_TR_BYPASS))
1357:Generated_Source\PSoC5/cyPm.c ****     {
1358:Generated_Source\PSoC5/cyPm.c ****         /* Save current bypass state */
1359:Generated_Source\PSoC5/cyPm.c ****         cyPmBackup.slpTrBypass = CY_PM_DISABLED;
1360:Generated_Source\PSoC5/cyPm.c ****         CY_PM_PWRSYS_SLP_TR_REG |= CY_PM_PWRSYS_SLP_TR_BYPASS;
1361:Generated_Source\PSoC5/cyPm.c ****     }
1362:Generated_Source\PSoC5/cyPm.c ****     else
1363:Generated_Source\PSoC5/cyPm.c ****     {
1364:Generated_Source\PSoC5/cyPm.c ****         cyPmBackup.slpTrBypass = CY_PM_ENABLED;
1365:Generated_Source\PSoC5/cyPm.c ****     }
1366:Generated_Source\PSoC5/cyPm.c **** 
1367:Generated_Source\PSoC5/cyPm.c ****     /* LPCOMPs are always enabled (even when BOTH ext_vccd=1 and ext_vcca=1)*/
1368:Generated_Source\PSoC5/cyPm.c **** 
1369:Generated_Source\PSoC5/cyPm.c **** 
1370:Generated_Source\PSoC5/cyPm.c ****     /***************************************************************************
1371:Generated_Source\PSoC5/cyPm.c ****     * LVI/HVI must be disabled in Hibernate
1372:Generated_Source\PSoC5/cyPm.c ****     ***************************************************************************/
1373:Generated_Source\PSoC5/cyPm.c **** 
1374:Generated_Source\PSoC5/cyPm.c ****     /* Save LVI/HVI configuration and disable them */
1375:Generated_Source\PSoC5/cyPm.c ****     CyPmHviLviSaveDisable();
1376:Generated_Source\PSoC5/cyPm.c **** 
1377:Generated_Source\PSoC5/cyPm.c **** 
1378:Generated_Source\PSoC5/cyPm.c ****     /* Make the same preparations for Hibernate and Sleep modes */
1379:Generated_Source\PSoC5/cyPm.c ****     CyPmHibSlpSaveSet();
1380:Generated_Source\PSoC5/cyPm.c **** 
1381:Generated_Source\PSoC5/cyPm.c **** 
1382:Generated_Source\PSoC5/cyPm.c ****     /***************************************************************************
1383:Generated_Source\PSoC5/cyPm.c ****     * Save and set the power mode wakeup trim registers
1384:Generated_Source\PSoC5/cyPm.c ****     ***************************************************************************/
1385:Generated_Source\PSoC5/cyPm.c ****     cyPmBackup.wakeupTrim0 = CY_PM_PWRSYS_WAKE_TR0_REG;
1386:Generated_Source\PSoC5/cyPm.c ****     cyPmBackup.wakeupTrim1 = CY_PM_PWRSYS_WAKE_TR1_REG;
1387:Generated_Source\PSoC5/cyPm.c ****     
1388:Generated_Source\PSoC5/cyPm.c ****     #if(CY_PSOC5)
1389:Generated_Source\PSoC5/cyPm.c ****         cyPmBackup.wakeupTrim3 = CY_PM_PWRSYS_WAKE_TR3_REG;
1390:Generated_Source\PSoC5/cyPm.c ****     #endif  /* (CY_PSOC5) */    
1391:Generated_Source\PSoC5/cyPm.c **** 
1392:Generated_Source\PSoC5/cyPm.c ****     CY_PM_PWRSYS_WAKE_TR0_REG = CY_PM_PWRSYS_WAKE_TR0;
1393:Generated_Source\PSoC5/cyPm.c ****     CY_PM_PWRSYS_WAKE_TR1_REG = CY_PM_PWRSYS_WAKE_TR1;
1394:Generated_Source\PSoC5/cyPm.c ****     
1395:Generated_Source\PSoC5/cyPm.c ****     #if(CY_PSOC5)
1396:Generated_Source\PSoC5/cyPm.c ****         CY_PM_PWRSYS_WAKE_TR3_REG = CY_PM_PWRSYS_WAKE_TR3;
1397:Generated_Source\PSoC5/cyPm.c ****     #endif  /* (CY_PSOC5) */    
1398:Generated_Source\PSoC5/cyPm.c **** }
1399:Generated_Source\PSoC5/cyPm.c **** 
ARM GAS  C:\Users\aupen\AppData\Local\Temp\cct0TTf9.s 			page 26


1400:Generated_Source\PSoC5/cyPm.c **** 
1401:Generated_Source\PSoC5/cyPm.c **** /*******************************************************************************
1402:Generated_Source\PSoC5/cyPm.c **** * Function Name: CyPmHibRestore
1403:Generated_Source\PSoC5/cyPm.c **** ****************************************************************************//**
1404:Generated_Source\PSoC5/cyPm.c **** *
1405:Generated_Source\PSoC5/cyPm.c **** *  Restores the device for the proper Hibernate mode exit:
1406:Generated_Source\PSoC5/cyPm.c **** *  - Restores LVI/HVI configuration - calsl CyPmHviLviRestore()
1407:Generated_Source\PSoC5/cyPm.c **** *  - CyPmHibSlpSaveRestore() function is called
1408:Generated_Source\PSoC5/cyPm.c **** *  - Restores ILO power down mode state and enables it
1409:Generated_Source\PSoC5/cyPm.c **** *  - Restores the state of 1 kHz and 100 kHz ILO and disables them
1410:Generated_Source\PSoC5/cyPm.c **** *  - Restores the sleep regulator settings
1411:Generated_Source\PSoC5/cyPm.c **** *
1412:Generated_Source\PSoC5/cyPm.c **** *******************************************************************************/
1413:Generated_Source\PSoC5/cyPm.c **** static void CyPmHibRestore(void) 
1414:Generated_Source\PSoC5/cyPm.c **** {
1415:Generated_Source\PSoC5/cyPm.c ****     /* Restore LVI/HVI configuration */
1416:Generated_Source\PSoC5/cyPm.c ****     CyPmHviLviRestore();
1417:Generated_Source\PSoC5/cyPm.c **** 
1418:Generated_Source\PSoC5/cyPm.c ****     /* Restore the same configuration for Hibernate and Sleep modes */
1419:Generated_Source\PSoC5/cyPm.c ****     CyPmHibSlpRestore();
1420:Generated_Source\PSoC5/cyPm.c **** 
1421:Generated_Source\PSoC5/cyPm.c ****     /* Restore 1kHz ILO enable state */
1422:Generated_Source\PSoC5/cyPm.c ****     if(CY_PM_ENABLED == cyPmBackup.ilo1kEnable)
1423:Generated_Source\PSoC5/cyPm.c ****     {
1424:Generated_Source\PSoC5/cyPm.c ****         /* Enable 1kHz ILO */
1425:Generated_Source\PSoC5/cyPm.c ****         CyILO_Start1K();
1426:Generated_Source\PSoC5/cyPm.c ****     }
1427:Generated_Source\PSoC5/cyPm.c **** 
1428:Generated_Source\PSoC5/cyPm.c ****     /* Restore 100kHz ILO enable state */
1429:Generated_Source\PSoC5/cyPm.c ****     if(CY_PM_ENABLED == cyPmBackup.ilo100kEnable)
1430:Generated_Source\PSoC5/cyPm.c ****     {
1431:Generated_Source\PSoC5/cyPm.c ****         /* Enable 100kHz ILO */
1432:Generated_Source\PSoC5/cyPm.c ****         CyILO_Start100K();
1433:Generated_Source\PSoC5/cyPm.c ****     }
1434:Generated_Source\PSoC5/cyPm.c **** 
1435:Generated_Source\PSoC5/cyPm.c ****     /* Restore ILO power mode */
1436:Generated_Source\PSoC5/cyPm.c ****     (void) CyILO_SetPowerMode(cyPmBackup.iloPowerMode);
1437:Generated_Source\PSoC5/cyPm.c **** 
1438:Generated_Source\PSoC5/cyPm.c **** 
1439:Generated_Source\PSoC5/cyPm.c ****     if(CY_PM_DISABLED == cyPmBackup.slpTrBypass)
1440:Generated_Source\PSoC5/cyPm.c ****     {
1441:Generated_Source\PSoC5/cyPm.c ****         /* Enable the sleep regulator */
1442:Generated_Source\PSoC5/cyPm.c ****         CY_PM_PWRSYS_SLP_TR_REG &= ((uint8)(~CY_PM_PWRSYS_SLP_TR_BYPASS));
1443:Generated_Source\PSoC5/cyPm.c ****     }
1444:Generated_Source\PSoC5/cyPm.c **** 
1445:Generated_Source\PSoC5/cyPm.c **** 
1446:Generated_Source\PSoC5/cyPm.c ****     /***************************************************************************
1447:Generated_Source\PSoC5/cyPm.c ****     * Restore the power mode wakeup trim registers
1448:Generated_Source\PSoC5/cyPm.c ****     ***************************************************************************/
1449:Generated_Source\PSoC5/cyPm.c ****     CY_PM_PWRSYS_WAKE_TR0_REG = cyPmBackup.wakeupTrim0;
1450:Generated_Source\PSoC5/cyPm.c ****     CY_PM_PWRSYS_WAKE_TR1_REG = cyPmBackup.wakeupTrim1;
1451:Generated_Source\PSoC5/cyPm.c **** 
1452:Generated_Source\PSoC5/cyPm.c ****     #if(CY_PSOC5)
1453:Generated_Source\PSoC5/cyPm.c ****         CY_PM_PWRSYS_WAKE_TR3_REG = cyPmBackup.wakeupTrim3;
1454:Generated_Source\PSoC5/cyPm.c ****     #endif  /* (CY_PSOC5) */    
1455:Generated_Source\PSoC5/cyPm.c **** }
1456:Generated_Source\PSoC5/cyPm.c **** 
ARM GAS  C:\Users\aupen\AppData\Local\Temp\cct0TTf9.s 			page 27


1457:Generated_Source\PSoC5/cyPm.c **** 
1458:Generated_Source\PSoC5/cyPm.c **** /*******************************************************************************
1459:Generated_Source\PSoC5/cyPm.c **** * Function Name: CyPmCtwSetInterval
1460:Generated_Source\PSoC5/cyPm.c **** ****************************************************************************//**
1461:Generated_Source\PSoC5/cyPm.c **** *
1462:Generated_Source\PSoC5/cyPm.c **** *  Performs the CTW configuration:
1463:Generated_Source\PSoC5/cyPm.c **** *  - Disables the CTW interrupt
1464:Generated_Source\PSoC5/cyPm.c **** *  - Enables 1 kHz ILO
1465:Generated_Source\PSoC5/cyPm.c **** *  - Sets a new CTW interval
1466:Generated_Source\PSoC5/cyPm.c **** *
1467:Generated_Source\PSoC5/cyPm.c **** *  \param ctwInterval: the CTW interval to be set.
1468:Generated_Source\PSoC5/cyPm.c **** *
1469:Generated_Source\PSoC5/cyPm.c **** * \sideeffect
1470:Generated_Source\PSoC5/cyPm.c **** *  Enables ILO 1 KHz clock and leaves it enabled.
1471:Generated_Source\PSoC5/cyPm.c **** *
1472:Generated_Source\PSoC5/cyPm.c **** *******************************************************************************/
1473:Generated_Source\PSoC5/cyPm.c **** void CyPmCtwSetInterval(uint8 ctwInterval) 
1474:Generated_Source\PSoC5/cyPm.c **** {
1475:Generated_Source\PSoC5/cyPm.c ****     /* Disable CTW interrupt enable */
1476:Generated_Source\PSoC5/cyPm.c ****     CY_PM_TW_CFG2_REG &= ((uint8)(~CY_PM_CTW_IE));
1477:Generated_Source\PSoC5/cyPm.c **** 
1478:Generated_Source\PSoC5/cyPm.c ****     /* Enable 1kHz ILO (required for CTW operation) */
1479:Generated_Source\PSoC5/cyPm.c ****     CyILO_Start1K();
1480:Generated_Source\PSoC5/cyPm.c **** 
1481:Generated_Source\PSoC5/cyPm.c ****     /* Interval could be set only while CTW is disabled */
1482:Generated_Source\PSoC5/cyPm.c ****     if(0u != (CY_PM_TW_CFG2_REG & CY_PM_CTW_EN))
1483:Generated_Source\PSoC5/cyPm.c ****     {
1484:Generated_Source\PSoC5/cyPm.c ****         /* Set CTW interval if needed */
1485:Generated_Source\PSoC5/cyPm.c ****         if(CY_PM_TW_CFG1_REG != ctwInterval)
1486:Generated_Source\PSoC5/cyPm.c ****         {
1487:Generated_Source\PSoC5/cyPm.c ****             /* Disable the CTW, set new CTW interval and enable it again */
1488:Generated_Source\PSoC5/cyPm.c ****             CY_PM_TW_CFG2_REG &= ((uint8)(~CY_PM_CTW_EN));
1489:Generated_Source\PSoC5/cyPm.c ****             CY_PM_TW_CFG1_REG = ctwInterval;
1490:Generated_Source\PSoC5/cyPm.c ****             CY_PM_TW_CFG2_REG |= CY_PM_CTW_EN;
1491:Generated_Source\PSoC5/cyPm.c ****         }   /* Required interval is already set */
1492:Generated_Source\PSoC5/cyPm.c ****     }
1493:Generated_Source\PSoC5/cyPm.c ****     else
1494:Generated_Source\PSoC5/cyPm.c ****     {
1495:Generated_Source\PSoC5/cyPm.c ****         /* Set CTW interval if needed */
1496:Generated_Source\PSoC5/cyPm.c ****         if(CY_PM_TW_CFG1_REG != ctwInterval)
1497:Generated_Source\PSoC5/cyPm.c ****         {
1498:Generated_Source\PSoC5/cyPm.c ****             /* Set new CTW interval. Could be changed if CTW is disabled */
1499:Generated_Source\PSoC5/cyPm.c ****             CY_PM_TW_CFG1_REG = ctwInterval;
1500:Generated_Source\PSoC5/cyPm.c ****         }   /* Required interval is already set */
1501:Generated_Source\PSoC5/cyPm.c **** 
1502:Generated_Source\PSoC5/cyPm.c ****         /* Enable CTW */
1503:Generated_Source\PSoC5/cyPm.c ****         CY_PM_TW_CFG2_REG |= CY_PM_CTW_EN;
1504:Generated_Source\PSoC5/cyPm.c ****     }
1505:Generated_Source\PSoC5/cyPm.c **** }
1506:Generated_Source\PSoC5/cyPm.c **** 
1507:Generated_Source\PSoC5/cyPm.c **** 
1508:Generated_Source\PSoC5/cyPm.c **** /*******************************************************************************
1509:Generated_Source\PSoC5/cyPm.c **** * Function Name: CyPmOppsSet
1510:Generated_Source\PSoC5/cyPm.c **** ****************************************************************************//**
1511:Generated_Source\PSoC5/cyPm.c **** *
1512:Generated_Source\PSoC5/cyPm.c **** *  Performs 1PPS configuration:
1513:Generated_Source\PSoC5/cyPm.c **** *  - Starts 32 KHz XTAL
ARM GAS  C:\Users\aupen\AppData\Local\Temp\cct0TTf9.s 			page 28


1514:Generated_Source\PSoC5/cyPm.c **** *  - Disables 1PPS interrupts
1515:Generated_Source\PSoC5/cyPm.c **** *  - Enables 1PPS
1516:Generated_Source\PSoC5/cyPm.c **** *
1517:Generated_Source\PSoC5/cyPm.c **** *******************************************************************************/
1518:Generated_Source\PSoC5/cyPm.c **** void CyPmOppsSet(void) 
1519:Generated_Source\PSoC5/cyPm.c **** {
1520:Generated_Source\PSoC5/cyPm.c ****     /* Enable 32kHz XTAL if needed */
1521:Generated_Source\PSoC5/cyPm.c ****     if(0u == (CY_PM_SLOWCLK_X32_CR_REG & CY_PM_X32_CR_X32EN))
1522:Generated_Source\PSoC5/cyPm.c ****     {
1523:Generated_Source\PSoC5/cyPm.c ****         /* Enable 32kHz XTAL */
1524:Generated_Source\PSoC5/cyPm.c ****         CyXTAL_32KHZ_Start();
1525:Generated_Source\PSoC5/cyPm.c ****     }
1526:Generated_Source\PSoC5/cyPm.c **** 
1527:Generated_Source\PSoC5/cyPm.c ****     /* Disable 1PPS interrupt enable */
1528:Generated_Source\PSoC5/cyPm.c ****     CY_PM_TW_CFG2_REG &= ((uint8)(~CY_PM_1PPS_IE));
1529:Generated_Source\PSoC5/cyPm.c **** 
1530:Generated_Source\PSoC5/cyPm.c ****     /* Enable 1PPS operation */
1531:Generated_Source\PSoC5/cyPm.c ****     CY_PM_TW_CFG2_REG |= CY_PM_1PPS_EN;
1532:Generated_Source\PSoC5/cyPm.c **** }
1533:Generated_Source\PSoC5/cyPm.c **** 
1534:Generated_Source\PSoC5/cyPm.c **** 
1535:Generated_Source\PSoC5/cyPm.c **** /*******************************************************************************
1536:Generated_Source\PSoC5/cyPm.c **** * Function Name: CyPmFtwSetInterval
1537:Generated_Source\PSoC5/cyPm.c **** ****************************************************************************//**
1538:Generated_Source\PSoC5/cyPm.c **** *
1539:Generated_Source\PSoC5/cyPm.c **** *  Performs the FTW configuration:
1540:Generated_Source\PSoC5/cyPm.c **** *  - Disables the FTW interrupt
1541:Generated_Source\PSoC5/cyPm.c **** *  - Enables 100 kHz ILO
1542:Generated_Source\PSoC5/cyPm.c **** *  - Sets a new FTW interval.
1543:Generated_Source\PSoC5/cyPm.c **** *
1544:Generated_Source\PSoC5/cyPm.c **** *  \param ftwInterval The FTW counter interval.
1545:Generated_Source\PSoC5/cyPm.c **** *
1546:Generated_Source\PSoC5/cyPm.c **** * \sideeffect
1547:Generated_Source\PSoC5/cyPm.c **** *  Enables the ILO 100 KHz clock and leaves it enabled.
1548:Generated_Source\PSoC5/cyPm.c **** *
1549:Generated_Source\PSoC5/cyPm.c **** *******************************************************************************/
1550:Generated_Source\PSoC5/cyPm.c **** void CyPmFtwSetInterval(uint8 ftwInterval) 
1551:Generated_Source\PSoC5/cyPm.c **** {
1552:Generated_Source\PSoC5/cyPm.c ****     /* Disable FTW interrupt enable */
1553:Generated_Source\PSoC5/cyPm.c ****     CY_PM_TW_CFG2_REG &= ((uint8)(~CY_PM_FTW_IE));
1554:Generated_Source\PSoC5/cyPm.c **** 
1555:Generated_Source\PSoC5/cyPm.c ****     /* Enable 100kHz ILO */
1556:Generated_Source\PSoC5/cyPm.c ****     CyILO_Start100K();
1557:Generated_Source\PSoC5/cyPm.c **** 
1558:Generated_Source\PSoC5/cyPm.c ****     /* Interval could be set only while FTW is disabled */
1559:Generated_Source\PSoC5/cyPm.c ****     if(0u != (CY_PM_TW_CFG2_REG & CY_PM_FTW_EN))
1560:Generated_Source\PSoC5/cyPm.c ****     {
1561:Generated_Source\PSoC5/cyPm.c ****         /* Disable FTW, set new FTW interval if needed and enable it again */
1562:Generated_Source\PSoC5/cyPm.c ****         if(CY_PM_TW_CFG0_REG != ftwInterval)
1563:Generated_Source\PSoC5/cyPm.c ****         {
1564:Generated_Source\PSoC5/cyPm.c ****             /* Disable CTW, set new CTW interval and enable it again */
1565:Generated_Source\PSoC5/cyPm.c ****             CY_PM_TW_CFG2_REG &= ((uint8)(~CY_PM_FTW_EN));
1566:Generated_Source\PSoC5/cyPm.c ****             CY_PM_TW_CFG0_REG = ftwInterval;
1567:Generated_Source\PSoC5/cyPm.c ****             CY_PM_TW_CFG2_REG |= CY_PM_FTW_EN;
1568:Generated_Source\PSoC5/cyPm.c ****         }   /* Required interval is already set */
1569:Generated_Source\PSoC5/cyPm.c ****     }
1570:Generated_Source\PSoC5/cyPm.c ****     else
ARM GAS  C:\Users\aupen\AppData\Local\Temp\cct0TTf9.s 			page 29


1571:Generated_Source\PSoC5/cyPm.c ****     {
1572:Generated_Source\PSoC5/cyPm.c ****         /* Set new FTW counter interval if needed. FTW is disabled. */
1573:Generated_Source\PSoC5/cyPm.c ****         if(CY_PM_TW_CFG0_REG != ftwInterval)
1574:Generated_Source\PSoC5/cyPm.c ****         {
1575:Generated_Source\PSoC5/cyPm.c ****             /* Set new CTW interval. Could be changed if CTW is disabled */
1576:Generated_Source\PSoC5/cyPm.c ****             CY_PM_TW_CFG0_REG = ftwInterval;
1577:Generated_Source\PSoC5/cyPm.c ****         }   /* Required interval is already set */
1578:Generated_Source\PSoC5/cyPm.c **** 
1579:Generated_Source\PSoC5/cyPm.c ****         /* Enable FTW */
1580:Generated_Source\PSoC5/cyPm.c ****         CY_PM_TW_CFG2_REG |= CY_PM_FTW_EN;
1581:Generated_Source\PSoC5/cyPm.c ****     }
1582:Generated_Source\PSoC5/cyPm.c **** }
1583:Generated_Source\PSoC5/cyPm.c **** 
1584:Generated_Source\PSoC5/cyPm.c **** 
1585:Generated_Source\PSoC5/cyPm.c **** /*******************************************************************************
1586:Generated_Source\PSoC5/cyPm.c **** * Function Name: CyPmHibSlpSaveSet
1587:Generated_Source\PSoC5/cyPm.c **** ****************************************************************************//**
1588:Generated_Source\PSoC5/cyPm.c **** *
1589:Generated_Source\PSoC5/cyPm.c **** *  This API is used for preparing the device for the Sleep and Hibernate low
1590:Generated_Source\PSoC5/cyPm.c **** *  power modes entry:
1591:Generated_Source\PSoC5/cyPm.c **** *  - Saves the COMP, VIDAC, DSM, and SAR routing connections (PSoC 5)
1592:Generated_Source\PSoC5/cyPm.c **** *  - Saves the SC/CT routing connections (PSoC 3/5/5LP)
1593:Generated_Source\PSoC5/cyPm.c **** *  - Disables the Serial Wire Viewer (SWV) (PSoC 3)
1594:Generated_Source\PSoC5/cyPm.c **** *  - Saves the boost reference selection and sets it to internal
1595:Generated_Source\PSoC5/cyPm.c **** *
1596:Generated_Source\PSoC5/cyPm.c **** * Reentrant:
1597:Generated_Source\PSoC5/cyPm.c **** *  No
1598:Generated_Source\PSoC5/cyPm.c **** *
1599:Generated_Source\PSoC5/cyPm.c **** *******************************************************************************/
1600:Generated_Source\PSoC5/cyPm.c **** static void CyPmHibSlpSaveSet(void) 
1601:Generated_Source\PSoC5/cyPm.c **** {
  27              		.loc 1 1601 0
  28              		.cfi_startproc
  29              		@ args = 0, pretend = 0, frame = 0
  30              		@ frame_needed = 0, uses_anonymous_args = 0
  31 0000 2DE9F04F 		push	{r4, r5, r6, r7, r8, r9, r10, fp, lr}
  32              		.cfi_def_cfa_offset 36
  33              		.cfi_offset 4, -36
  34              		.cfi_offset 5, -32
  35              		.cfi_offset 6, -28
  36              		.cfi_offset 7, -24
  37              		.cfi_offset 8, -20
  38              		.cfi_offset 9, -16
  39              		.cfi_offset 10, -12
  40              		.cfi_offset 11, -8
  41              		.cfi_offset 14, -4
1602:Generated_Source\PSoC5/cyPm.c ****     /* Save SC/CT routing registers */
1603:Generated_Source\PSoC5/cyPm.c ****     cyPmBackup.scctData[0u]   = CY_GET_REG8(CYREG_SC0_SW0 );
  42              		.loc 1 1603 0
  43 0004 DFF8A4B1 		ldr	fp, .L5+92
  44 0008 514B     		ldr	r3, .L5
  45 000a 9BF80020 		ldrb	r2, [fp]	@ zero_extendqisi2
1604:Generated_Source\PSoC5/cyPm.c ****     cyPmBackup.scctData[1u]   = CY_GET_REG8(CYREG_SC0_SW2 );
  46              		.loc 1 1604 0
  47 000e DFF8A0A1 		ldr	r10, .L5+96
1603:Generated_Source\PSoC5/cyPm.c ****     cyPmBackup.scctData[1u]   = CY_GET_REG8(CYREG_SC0_SW2 );
  48              		.loc 1 1603 0
ARM GAS  C:\Users\aupen\AppData\Local\Temp\cct0TTf9.s 			page 30


  49 0012 9A72     		strb	r2, [r3, #10]
  50              		.loc 1 1604 0
  51 0014 9AF80020 		ldrb	r2, [r10]	@ zero_extendqisi2
1605:Generated_Source\PSoC5/cyPm.c ****     cyPmBackup.scctData[2u]   = CY_GET_REG8(CYREG_SC0_SW3 );
1606:Generated_Source\PSoC5/cyPm.c ****     cyPmBackup.scctData[3u]   = CY_GET_REG8(CYREG_SC0_SW4 );
1607:Generated_Source\PSoC5/cyPm.c ****     cyPmBackup.scctData[4u]   = CY_GET_REG8(CYREG_SC0_SW6 );
1608:Generated_Source\PSoC5/cyPm.c ****     cyPmBackup.scctData[5u]   = CY_GET_REG8(CYREG_SC0_SW8 );
1609:Generated_Source\PSoC5/cyPm.c ****     cyPmBackup.scctData[6u]   = CY_GET_REG8(CYREG_SC0_SW10);
1610:Generated_Source\PSoC5/cyPm.c **** 
1611:Generated_Source\PSoC5/cyPm.c ****     cyPmBackup.scctData[7u]   = CY_GET_REG8(CYREG_SC1_SW0 );
1612:Generated_Source\PSoC5/cyPm.c ****     cyPmBackup.scctData[8u]   = CY_GET_REG8(CYREG_SC1_SW2 );
1613:Generated_Source\PSoC5/cyPm.c ****     cyPmBackup.scctData[9u]   = CY_GET_REG8(CYREG_SC1_SW3 );
1614:Generated_Source\PSoC5/cyPm.c ****     cyPmBackup.scctData[10u]  = CY_GET_REG8(CYREG_SC1_SW4 );
1615:Generated_Source\PSoC5/cyPm.c ****     cyPmBackup.scctData[11u]  = CY_GET_REG8(CYREG_SC1_SW6 );
1616:Generated_Source\PSoC5/cyPm.c ****     cyPmBackup.scctData[12u]  = CY_GET_REG8(CYREG_SC1_SW8 );
1617:Generated_Source\PSoC5/cyPm.c ****     cyPmBackup.scctData[13u]  = CY_GET_REG8(CYREG_SC1_SW10);
1618:Generated_Source\PSoC5/cyPm.c **** 
1619:Generated_Source\PSoC5/cyPm.c ****     cyPmBackup.scctData[14u]  = CY_GET_REG8(CYREG_SC2_SW0 );
1620:Generated_Source\PSoC5/cyPm.c ****     cyPmBackup.scctData[15u]  = CY_GET_REG8(CYREG_SC2_SW2 );
1621:Generated_Source\PSoC5/cyPm.c ****     cyPmBackup.scctData[16u]  = CY_GET_REG8(CYREG_SC2_SW3 );
1622:Generated_Source\PSoC5/cyPm.c ****     cyPmBackup.scctData[17u]  = CY_GET_REG8(CYREG_SC2_SW4 );
1623:Generated_Source\PSoC5/cyPm.c ****     cyPmBackup.scctData[18u]  = CY_GET_REG8(CYREG_SC2_SW6 );
  52              		.loc 1 1623 0
  53 0018 DFF89891 		ldr	r9, .L5+100
1604:Generated_Source\PSoC5/cyPm.c ****     cyPmBackup.scctData[2u]   = CY_GET_REG8(CYREG_SC0_SW3 );
  54              		.loc 1 1604 0
  55 001c DA72     		strb	r2, [r3, #11]
1605:Generated_Source\PSoC5/cyPm.c ****     cyPmBackup.scctData[2u]   = CY_GET_REG8(CYREG_SC0_SW3 );
  56              		.loc 1 1605 0
  57 001e 4D4A     		ldr	r2, .L5+4
1624:Generated_Source\PSoC5/cyPm.c ****     cyPmBackup.scctData[19u]  = CY_GET_REG8(CYREG_SC2_SW8 );
  58              		.loc 1 1624 0
  59 0020 DFF89481 		ldr	r8, .L5+104
1605:Generated_Source\PSoC5/cyPm.c ****     cyPmBackup.scctData[2u]   = CY_GET_REG8(CYREG_SC0_SW3 );
  60              		.loc 1 1605 0
  61 0024 1278     		ldrb	r2, [r2]	@ zero_extendqisi2
1625:Generated_Source\PSoC5/cyPm.c ****     cyPmBackup.scctData[20u]  = CY_GET_REG8(CYREG_SC2_SW10);
  62              		.loc 1 1625 0
  63 0026 DFF894C1 		ldr	ip, .L5+108
1605:Generated_Source\PSoC5/cyPm.c ****     cyPmBackup.scctData[3u]   = CY_GET_REG8(CYREG_SC0_SW4 );
  64              		.loc 1 1605 0
  65 002a 1A73     		strb	r2, [r3, #12]
1606:Generated_Source\PSoC5/cyPm.c ****     cyPmBackup.scctData[4u]   = CY_GET_REG8(CYREG_SC0_SW6 );
  66              		.loc 1 1606 0
  67 002c 4A4A     		ldr	r2, .L5+8
1626:Generated_Source\PSoC5/cyPm.c **** 
1627:Generated_Source\PSoC5/cyPm.c ****     cyPmBackup.scctData[21u]  = CY_GET_REG8(CYREG_SC3_SW0 );
  68              		.loc 1 1627 0
  69 002e DFF890E1 		ldr	lr, .L5+112
1606:Generated_Source\PSoC5/cyPm.c ****     cyPmBackup.scctData[4u]   = CY_GET_REG8(CYREG_SC0_SW6 );
  70              		.loc 1 1606 0
  71 0032 1278     		ldrb	r2, [r2]	@ zero_extendqisi2
1628:Generated_Source\PSoC5/cyPm.c ****     cyPmBackup.scctData[22u]  = CY_GET_REG8(CYREG_SC3_SW2 );
  72              		.loc 1 1628 0
  73 0034 494F     		ldr	r7, .L5+12
1606:Generated_Source\PSoC5/cyPm.c ****     cyPmBackup.scctData[4u]   = CY_GET_REG8(CYREG_SC0_SW6 );
  74              		.loc 1 1606 0
ARM GAS  C:\Users\aupen\AppData\Local\Temp\cct0TTf9.s 			page 31


  75 0036 5A73     		strb	r2, [r3, #13]
1607:Generated_Source\PSoC5/cyPm.c ****     cyPmBackup.scctData[5u]   = CY_GET_REG8(CYREG_SC0_SW8 );
  76              		.loc 1 1607 0
  77 0038 494A     		ldr	r2, .L5+16
1629:Generated_Source\PSoC5/cyPm.c ****     cyPmBackup.scctData[23u]  = CY_GET_REG8(CYREG_SC3_SW3 );
  78              		.loc 1 1629 0
  79 003a 4A4E     		ldr	r6, .L5+20
1607:Generated_Source\PSoC5/cyPm.c ****     cyPmBackup.scctData[5u]   = CY_GET_REG8(CYREG_SC0_SW8 );
  80              		.loc 1 1607 0
  81 003c 1278     		ldrb	r2, [r2]	@ zero_extendqisi2
1630:Generated_Source\PSoC5/cyPm.c ****     cyPmBackup.scctData[24u]  = CY_GET_REG8(CYREG_SC3_SW4 );
  82              		.loc 1 1630 0
  83 003e 4A4D     		ldr	r5, .L5+24
1607:Generated_Source\PSoC5/cyPm.c ****     cyPmBackup.scctData[5u]   = CY_GET_REG8(CYREG_SC0_SW8 );
  84              		.loc 1 1607 0
  85 0040 9A73     		strb	r2, [r3, #14]
1608:Generated_Source\PSoC5/cyPm.c ****     cyPmBackup.scctData[6u]   = CY_GET_REG8(CYREG_SC0_SW10);
  86              		.loc 1 1608 0
  87 0042 4A4A     		ldr	r2, .L5+28
1631:Generated_Source\PSoC5/cyPm.c ****     cyPmBackup.scctData[25u]  = CY_GET_REG8(CYREG_SC3_SW6 );
  88              		.loc 1 1631 0
  89 0044 4A4C     		ldr	r4, .L5+32
1608:Generated_Source\PSoC5/cyPm.c ****     cyPmBackup.scctData[6u]   = CY_GET_REG8(CYREG_SC0_SW10);
  90              		.loc 1 1608 0
  91 0046 1278     		ldrb	r2, [r2]	@ zero_extendqisi2
1632:Generated_Source\PSoC5/cyPm.c ****     cyPmBackup.scctData[26u]  = CY_GET_REG8(CYREG_SC3_SW8 );
  92              		.loc 1 1632 0
  93 0048 4A48     		ldr	r0, .L5+36
1608:Generated_Source\PSoC5/cyPm.c ****     cyPmBackup.scctData[6u]   = CY_GET_REG8(CYREG_SC0_SW10);
  94              		.loc 1 1608 0
  95 004a DA73     		strb	r2, [r3, #15]
1609:Generated_Source\PSoC5/cyPm.c **** 
  96              		.loc 1 1609 0
  97 004c 4A4A     		ldr	r2, .L5+40
1633:Generated_Source\PSoC5/cyPm.c ****     cyPmBackup.scctData[27u]  = CY_GET_REG8(CYREG_SC3_SW10);
1634:Generated_Source\PSoC5/cyPm.c **** 
1635:Generated_Source\PSoC5/cyPm.c ****     CY_SET_REG8(CYREG_SC0_SW0 , 0u);
1636:Generated_Source\PSoC5/cyPm.c ****     CY_SET_REG8(CYREG_SC0_SW2 , 0u);
1637:Generated_Source\PSoC5/cyPm.c ****     CY_SET_REG8(CYREG_SC0_SW3 , 0u);
  98              		.loc 1 1637 0
  99 004e 4149     		ldr	r1, .L5+4
1609:Generated_Source\PSoC5/cyPm.c **** 
 100              		.loc 1 1609 0
 101 0050 1278     		ldrb	r2, [r2]	@ zero_extendqisi2
1638:Generated_Source\PSoC5/cyPm.c ****     CY_SET_REG8(CYREG_SC0_SW4 , 0u);
 102              		.loc 1 1638 0
 103 0052 0131     		adds	r1, r1, #1
1609:Generated_Source\PSoC5/cyPm.c **** 
 104              		.loc 1 1609 0
 105 0054 1A74     		strb	r2, [r3, #16]
1611:Generated_Source\PSoC5/cyPm.c ****     cyPmBackup.scctData[8u]   = CY_GET_REG8(CYREG_SC1_SW2 );
 106              		.loc 1 1611 0
 107 0056 494A     		ldr	r2, .L5+44
 108 0058 1278     		ldrb	r2, [r2]	@ zero_extendqisi2
 109 005a 5A74     		strb	r2, [r3, #17]
1612:Generated_Source\PSoC5/cyPm.c ****     cyPmBackup.scctData[9u]   = CY_GET_REG8(CYREG_SC1_SW3 );
 110              		.loc 1 1612 0
ARM GAS  C:\Users\aupen\AppData\Local\Temp\cct0TTf9.s 			page 32


 111 005c 484A     		ldr	r2, .L5+48
 112 005e 1278     		ldrb	r2, [r2]	@ zero_extendqisi2
 113 0060 9A74     		strb	r2, [r3, #18]
1613:Generated_Source\PSoC5/cyPm.c ****     cyPmBackup.scctData[10u]  = CY_GET_REG8(CYREG_SC1_SW4 );
 114              		.loc 1 1613 0
 115 0062 484A     		ldr	r2, .L5+52
 116 0064 1278     		ldrb	r2, [r2]	@ zero_extendqisi2
 117 0066 DA74     		strb	r2, [r3, #19]
1614:Generated_Source\PSoC5/cyPm.c ****     cyPmBackup.scctData[11u]  = CY_GET_REG8(CYREG_SC1_SW6 );
 118              		.loc 1 1614 0
 119 0068 474A     		ldr	r2, .L5+56
 120 006a 1278     		ldrb	r2, [r2]	@ zero_extendqisi2
 121 006c 1A75     		strb	r2, [r3, #20]
1615:Generated_Source\PSoC5/cyPm.c ****     cyPmBackup.scctData[12u]  = CY_GET_REG8(CYREG_SC1_SW8 );
 122              		.loc 1 1615 0
 123 006e 474A     		ldr	r2, .L5+60
 124 0070 1278     		ldrb	r2, [r2]	@ zero_extendqisi2
 125 0072 5A75     		strb	r2, [r3, #21]
1616:Generated_Source\PSoC5/cyPm.c ****     cyPmBackup.scctData[13u]  = CY_GET_REG8(CYREG_SC1_SW10);
 126              		.loc 1 1616 0
 127 0074 464A     		ldr	r2, .L5+64
 128 0076 1278     		ldrb	r2, [r2]	@ zero_extendqisi2
 129 0078 9A75     		strb	r2, [r3, #22]
1617:Generated_Source\PSoC5/cyPm.c **** 
 130              		.loc 1 1617 0
 131 007a 464A     		ldr	r2, .L5+68
 132 007c 1278     		ldrb	r2, [r2]	@ zero_extendqisi2
 133 007e DA75     		strb	r2, [r3, #23]
1619:Generated_Source\PSoC5/cyPm.c ****     cyPmBackup.scctData[15u]  = CY_GET_REG8(CYREG_SC2_SW2 );
 134              		.loc 1 1619 0
 135 0080 454A     		ldr	r2, .L5+72
 136 0082 1278     		ldrb	r2, [r2]	@ zero_extendqisi2
 137 0084 1A76     		strb	r2, [r3, #24]
1620:Generated_Source\PSoC5/cyPm.c ****     cyPmBackup.scctData[16u]  = CY_GET_REG8(CYREG_SC2_SW3 );
 138              		.loc 1 1620 0
 139 0086 454A     		ldr	r2, .L5+76
 140 0088 1278     		ldrb	r2, [r2]	@ zero_extendqisi2
 141 008a 5A76     		strb	r2, [r3, #25]
1621:Generated_Source\PSoC5/cyPm.c ****     cyPmBackup.scctData[17u]  = CY_GET_REG8(CYREG_SC2_SW4 );
 142              		.loc 1 1621 0
 143 008c 444A     		ldr	r2, .L5+80
 144 008e 1278     		ldrb	r2, [r2]	@ zero_extendqisi2
 145 0090 9A76     		strb	r2, [r3, #26]
1622:Generated_Source\PSoC5/cyPm.c ****     cyPmBackup.scctData[18u]  = CY_GET_REG8(CYREG_SC2_SW6 );
 146              		.loc 1 1622 0
 147 0092 444A     		ldr	r2, .L5+84
 148 0094 1278     		ldrb	r2, [r2]	@ zero_extendqisi2
 149 0096 DA76     		strb	r2, [r3, #27]
1623:Generated_Source\PSoC5/cyPm.c ****     cyPmBackup.scctData[19u]  = CY_GET_REG8(CYREG_SC2_SW8 );
 150              		.loc 1 1623 0
 151 0098 99F80020 		ldrb	r2, [r9]	@ zero_extendqisi2
 152 009c 1A77     		strb	r2, [r3, #28]
1624:Generated_Source\PSoC5/cyPm.c ****     cyPmBackup.scctData[20u]  = CY_GET_REG8(CYREG_SC2_SW10);
 153              		.loc 1 1624 0
 154 009e 98F80020 		ldrb	r2, [r8]	@ zero_extendqisi2
 155 00a2 5A77     		strb	r2, [r3, #29]
1625:Generated_Source\PSoC5/cyPm.c **** 
ARM GAS  C:\Users\aupen\AppData\Local\Temp\cct0TTf9.s 			page 33


 156              		.loc 1 1625 0
 157 00a4 9CF80020 		ldrb	r2, [ip]	@ zero_extendqisi2
 158 00a8 9A77     		strb	r2, [r3, #30]
1627:Generated_Source\PSoC5/cyPm.c ****     cyPmBackup.scctData[22u]  = CY_GET_REG8(CYREG_SC3_SW2 );
 159              		.loc 1 1627 0
 160 00aa 9EF80020 		ldrb	r2, [lr]	@ zero_extendqisi2
 161 00ae DA77     		strb	r2, [r3, #31]
1628:Generated_Source\PSoC5/cyPm.c ****     cyPmBackup.scctData[23u]  = CY_GET_REG8(CYREG_SC3_SW3 );
 162              		.loc 1 1628 0
 163 00b0 3A78     		ldrb	r2, [r7]	@ zero_extendqisi2
 164 00b2 83F82020 		strb	r2, [r3, #32]
1629:Generated_Source\PSoC5/cyPm.c ****     cyPmBackup.scctData[24u]  = CY_GET_REG8(CYREG_SC3_SW4 );
 165              		.loc 1 1629 0
 166 00b6 3278     		ldrb	r2, [r6]	@ zero_extendqisi2
 167 00b8 83F82120 		strb	r2, [r3, #33]
1630:Generated_Source\PSoC5/cyPm.c ****     cyPmBackup.scctData[25u]  = CY_GET_REG8(CYREG_SC3_SW6 );
 168              		.loc 1 1630 0
 169 00bc 2A78     		ldrb	r2, [r5]	@ zero_extendqisi2
 170 00be 83F82220 		strb	r2, [r3, #34]
1631:Generated_Source\PSoC5/cyPm.c ****     cyPmBackup.scctData[26u]  = CY_GET_REG8(CYREG_SC3_SW8 );
 171              		.loc 1 1631 0
 172 00c2 2278     		ldrb	r2, [r4]	@ zero_extendqisi2
 173 00c4 83F82320 		strb	r2, [r3, #35]
1632:Generated_Source\PSoC5/cyPm.c ****     cyPmBackup.scctData[27u]  = CY_GET_REG8(CYREG_SC3_SW10);
 174              		.loc 1 1632 0
 175 00c8 0278     		ldrb	r2, [r0]	@ zero_extendqisi2
 176 00ca 83F82420 		strb	r2, [r3, #36]
1633:Generated_Source\PSoC5/cyPm.c **** 
 177              		.loc 1 1633 0
 178 00ce 364A     		ldr	r2, .L5+88
 179 00d0 1278     		ldrb	r2, [r2]	@ zero_extendqisi2
 180 00d2 83F82520 		strb	r2, [r3, #37]
1635:Generated_Source\PSoC5/cyPm.c ****     CY_SET_REG8(CYREG_SC0_SW2 , 0u);
 181              		.loc 1 1635 0
 182 00d6 0022     		movs	r2, #0
 183 00d8 8BF80020 		strb	r2, [fp]
1636:Generated_Source\PSoC5/cyPm.c ****     CY_SET_REG8(CYREG_SC0_SW3 , 0u);
 184              		.loc 1 1636 0
 185 00dc 8AF80020 		strb	r2, [r10]
1637:Generated_Source\PSoC5/cyPm.c ****     CY_SET_REG8(CYREG_SC0_SW4 , 0u);
 186              		.loc 1 1637 0
 187 00e0 01F8012C 		strb	r2, [r1, #-1]
 188              		.loc 1 1638 0
 189 00e4 0A70     		strb	r2, [r1]
1639:Generated_Source\PSoC5/cyPm.c ****     CY_SET_REG8(CYREG_SC0_SW6 , 0u);
 190              		.loc 1 1639 0
 191 00e6 8A70     		strb	r2, [r1, #2]
1640:Generated_Source\PSoC5/cyPm.c ****     CY_SET_REG8(CYREG_SC0_SW8 , 0u);
 192              		.loc 1 1640 0
 193 00e8 0A71     		strb	r2, [r1, #4]
1641:Generated_Source\PSoC5/cyPm.c ****     CY_SET_REG8(CYREG_SC0_SW10, 0u);
 194              		.loc 1 1641 0
 195 00ea 8A71     		strb	r2, [r1, #6]
1642:Generated_Source\PSoC5/cyPm.c **** 
1643:Generated_Source\PSoC5/cyPm.c ****     CY_SET_REG8(CYREG_SC1_SW0 , 0u);
 196              		.loc 1 1643 0
 197 00ec 0A73     		strb	r2, [r1, #12]
ARM GAS  C:\Users\aupen\AppData\Local\Temp\cct0TTf9.s 			page 34


1644:Generated_Source\PSoC5/cyPm.c ****     CY_SET_REG8(CYREG_SC1_SW2 , 0u);
 198              		.loc 1 1644 0
 199 00ee 8A73     		strb	r2, [r1, #14]
1645:Generated_Source\PSoC5/cyPm.c ****     CY_SET_REG8(CYREG_SC1_SW3 , 0u);
 200              		.loc 1 1645 0
 201 00f0 CA73     		strb	r2, [r1, #15]
1646:Generated_Source\PSoC5/cyPm.c ****     CY_SET_REG8(CYREG_SC1_SW4 , 0u);
 202              		.loc 1 1646 0
 203 00f2 0A74     		strb	r2, [r1, #16]
1647:Generated_Source\PSoC5/cyPm.c ****     CY_SET_REG8(CYREG_SC1_SW6 , 0u);
 204              		.loc 1 1647 0
 205 00f4 8A74     		strb	r2, [r1, #18]
1648:Generated_Source\PSoC5/cyPm.c ****     CY_SET_REG8(CYREG_SC1_SW8 , 0u);
 206              		.loc 1 1648 0
 207 00f6 0A75     		strb	r2, [r1, #20]
1649:Generated_Source\PSoC5/cyPm.c ****     CY_SET_REG8(CYREG_SC1_SW10, 0u);
 208              		.loc 1 1649 0
 209 00f8 8A75     		strb	r2, [r1, #22]
1650:Generated_Source\PSoC5/cyPm.c **** 
1651:Generated_Source\PSoC5/cyPm.c ****     CY_SET_REG8(CYREG_SC2_SW0 , 0u);
 210              		.loc 1 1651 0
 211 00fa 0A77     		strb	r2, [r1, #28]
1652:Generated_Source\PSoC5/cyPm.c ****     CY_SET_REG8(CYREG_SC2_SW2 , 0u);
 212              		.loc 1 1652 0
 213 00fc 8A77     		strb	r2, [r1, #30]
1653:Generated_Source\PSoC5/cyPm.c ****     CY_SET_REG8(CYREG_SC2_SW3 , 0u);
 214              		.loc 1 1653 0
 215 00fe CA77     		strb	r2, [r1, #31]
1654:Generated_Source\PSoC5/cyPm.c ****     CY_SET_REG8(CYREG_SC2_SW4 , 0u);
 216              		.loc 1 1654 0
 217 0100 81F82020 		strb	r2, [r1, #32]
1655:Generated_Source\PSoC5/cyPm.c ****     CY_SET_REG8(CYREG_SC2_SW6 , 0u);
 218              		.loc 1 1655 0
 219 0104 89F80020 		strb	r2, [r9]
1656:Generated_Source\PSoC5/cyPm.c ****     CY_SET_REG8(CYREG_SC2_SW8 , 0u);
 220              		.loc 1 1656 0
 221 0108 88F80020 		strb	r2, [r8]
1657:Generated_Source\PSoC5/cyPm.c ****     CY_SET_REG8(CYREG_SC2_SW10, 0u);
 222              		.loc 1 1657 0
 223 010c 8CF80020 		strb	r2, [ip]
1658:Generated_Source\PSoC5/cyPm.c **** 
1659:Generated_Source\PSoC5/cyPm.c ****     CY_SET_REG8(CYREG_SC3_SW0 , 0u);
 224              		.loc 1 1659 0
 225 0110 8EF80020 		strb	r2, [lr]
1660:Generated_Source\PSoC5/cyPm.c ****     CY_SET_REG8(CYREG_SC3_SW2 , 0u);
 226              		.loc 1 1660 0
 227 0114 3A70     		strb	r2, [r7]
1661:Generated_Source\PSoC5/cyPm.c ****     CY_SET_REG8(CYREG_SC3_SW3 , 0u);
 228              		.loc 1 1661 0
 229 0116 3270     		strb	r2, [r6]
1662:Generated_Source\PSoC5/cyPm.c ****     CY_SET_REG8(CYREG_SC3_SW4 , 0u);
 230              		.loc 1 1662 0
 231 0118 2A70     		strb	r2, [r5]
1663:Generated_Source\PSoC5/cyPm.c ****     CY_SET_REG8(CYREG_SC3_SW6 , 0u);
 232              		.loc 1 1663 0
 233 011a 2270     		strb	r2, [r4]
1664:Generated_Source\PSoC5/cyPm.c ****     CY_SET_REG8(CYREG_SC3_SW8 , 0u);
ARM GAS  C:\Users\aupen\AppData\Local\Temp\cct0TTf9.s 			page 35


 234              		.loc 1 1664 0
 235 011c 0270     		strb	r2, [r0]
1665:Generated_Source\PSoC5/cyPm.c ****     CY_SET_REG8(CYREG_SC3_SW10, 0u);
 236              		.loc 1 1665 0
 237 011e 81F83620 		strb	r2, [r1, #54]
1652:Generated_Source\PSoC5/cyPm.c ****     CY_SET_REG8(CYREG_SC2_SW3 , 0u);
 238              		.loc 1 1652 0
 239 0122 1E31     		adds	r1, r1, #30
1666:Generated_Source\PSoC5/cyPm.c **** 
1667:Generated_Source\PSoC5/cyPm.c **** 
1668:Generated_Source\PSoC5/cyPm.c ****     #if(CY_PSOC3)
1669:Generated_Source\PSoC5/cyPm.c **** 
1670:Generated_Source\PSoC5/cyPm.c ****         /* Serial Wire Viewer (SWV) workaround */
1671:Generated_Source\PSoC5/cyPm.c **** 
1672:Generated_Source\PSoC5/cyPm.c ****         /* Disable SWV before entering low power mode */
1673:Generated_Source\PSoC5/cyPm.c ****         if(0u != (CY_PM_MLOGIC_DBG_REG & CY_PM_MLOGIC_DBG_SWV_CLK_EN))
1674:Generated_Source\PSoC5/cyPm.c ****         {
1675:Generated_Source\PSoC5/cyPm.c ****             /* Save SWV clock enabled state */
1676:Generated_Source\PSoC5/cyPm.c ****             cyPmBackup.swvClkEnabled = CY_PM_ENABLED;
1677:Generated_Source\PSoC5/cyPm.c **** 
1678:Generated_Source\PSoC5/cyPm.c ****             /* Save current ports drive mode settings */
1679:Generated_Source\PSoC5/cyPm.c ****             cyPmBackup.prt1Dm = CY_PM_PRT1_PC3_REG & ((uint8)(~CY_PM_PRT1_PC3_DM_MASK));
1680:Generated_Source\PSoC5/cyPm.c **** 
1681:Generated_Source\PSoC5/cyPm.c ****             /* Set drive mode to strong output */
1682:Generated_Source\PSoC5/cyPm.c ****             CY_PM_PRT1_PC3_REG = (CY_PM_PRT1_PC3_REG & CY_PM_PRT1_PC3_DM_MASK) |
1683:Generated_Source\PSoC5/cyPm.c ****                                 CY_PM_PRT1_PC3_DM_STRONG;
1684:Generated_Source\PSoC5/cyPm.c **** 
1685:Generated_Source\PSoC5/cyPm.c ****             /* Disable SWV clocks */
1686:Generated_Source\PSoC5/cyPm.c ****             CY_PM_MLOGIC_DBG_REG &= ((uint8)(~CY_PM_MLOGIC_DBG_SWV_CLK_EN));
1687:Generated_Source\PSoC5/cyPm.c ****         }
1688:Generated_Source\PSoC5/cyPm.c ****         else
1689:Generated_Source\PSoC5/cyPm.c ****         {
1690:Generated_Source\PSoC5/cyPm.c ****             /* Save SWV clock disabled state */
1691:Generated_Source\PSoC5/cyPm.c ****             cyPmBackup.swvClkEnabled = CY_PM_DISABLED;
1692:Generated_Source\PSoC5/cyPm.c ****         }
1693:Generated_Source\PSoC5/cyPm.c **** 
1694:Generated_Source\PSoC5/cyPm.c ****     #endif  /* (CY_PSOC3) */
1695:Generated_Source\PSoC5/cyPm.c **** 
1696:Generated_Source\PSoC5/cyPm.c **** 
1697:Generated_Source\PSoC5/cyPm.c ****     /***************************************************************************
1698:Generated_Source\PSoC5/cyPm.c ****     * Save boost reference and set it to boost's internal by clearing the bit.
1699:Generated_Source\PSoC5/cyPm.c ****     * External (chip bandgap) reference is not available in Sleep and Hibernate.
1700:Generated_Source\PSoC5/cyPm.c ****     ***************************************************************************/
1701:Generated_Source\PSoC5/cyPm.c ****     if(0u != (CY_PM_BOOST_CR2_REG & CY_PM_BOOST_CR2_EREFSEL_EXT))
 240              		.loc 1 1701 0
 241 0124 A1F5B851 		sub	r1, r1, #5888
 242 0128 0A78     		ldrb	r2, [r1]	@ zero_extendqisi2
 243 012a 02F00802 		and	r2, r2, #8
 244 012e 02F0FF00 		and	r0, r2, #255
 245 0132 42B1     		cbz	r2, .L2
1702:Generated_Source\PSoC5/cyPm.c ****     {
1703:Generated_Source\PSoC5/cyPm.c ****         cyPmBackup.boostRefExt = CY_PM_ENABLED;
 246              		.loc 1 1703 0
 247 0134 0122     		movs	r2, #1
 248 0136 83F82F20 		strb	r2, [r3, #47]
1704:Generated_Source\PSoC5/cyPm.c ****         CY_PM_BOOST_CR2_REG &= ((uint8)(~CY_PM_BOOST_CR2_EREFSEL_EXT));
 249              		.loc 1 1704 0
ARM GAS  C:\Users\aupen\AppData\Local\Temp\cct0TTf9.s 			page 36


 250 013a 0B78     		ldrb	r3, [r1]	@ zero_extendqisi2
 251 013c 03F0F703 		and	r3, r3, #247
 252 0140 0B70     		strb	r3, [r1]
 253 0142 BDE8F08F 		pop	{r4, r5, r6, r7, r8, r9, r10, fp, pc}
 254              	.L2:
1705:Generated_Source\PSoC5/cyPm.c ****     }
1706:Generated_Source\PSoC5/cyPm.c ****     else
1707:Generated_Source\PSoC5/cyPm.c ****     {
1708:Generated_Source\PSoC5/cyPm.c ****         cyPmBackup.boostRefExt = CY_PM_DISABLED;
 255              		.loc 1 1708 0
 256 0146 83F82F00 		strb	r0, [r3, #47]
 257 014a BDE8F08F 		pop	{r4, r5, r6, r7, r8, r9, r10, fp, pc}
 258              	.L6:
 259 014e 00BF     		.align	2
 260              	.L5:
 261 0150 00000000 		.word	.LANCHOR0
 262 0154 035A0040 		.word	1073764867
 263 0158 045A0040 		.word	1073764868
 264 015c 325A0040 		.word	1073764914
 265 0160 065A0040 		.word	1073764870
 266 0164 335A0040 		.word	1073764915
 267 0168 345A0040 		.word	1073764916
 268 016c 085A0040 		.word	1073764872
 269 0170 365A0040 		.word	1073764918
 270 0174 385A0040 		.word	1073764920
 271 0178 0A5A0040 		.word	1073764874
 272 017c 105A0040 		.word	1073764880
 273 0180 125A0040 		.word	1073764882
 274 0184 135A0040 		.word	1073764883
 275 0188 145A0040 		.word	1073764884
 276 018c 165A0040 		.word	1073764886
 277 0190 185A0040 		.word	1073764888
 278 0194 1A5A0040 		.word	1073764890
 279 0198 205A0040 		.word	1073764896
 280 019c 225A0040 		.word	1073764898
 281 01a0 235A0040 		.word	1073764899
 282 01a4 245A0040 		.word	1073764900
 283 01a8 3A5A0040 		.word	1073764922
 284 01ac 005A0040 		.word	1073764864
 285 01b0 025A0040 		.word	1073764866
 286 01b4 265A0040 		.word	1073764902
 287 01b8 285A0040 		.word	1073764904
 288 01bc 2A5A0040 		.word	1073764906
 289 01c0 305A0040 		.word	1073764912
 290              		.cfi_endproc
 291              	.LFE12:
 292              		.size	CyPmHibSlpSaveSet, .-CyPmHibSlpSaveSet
 293              		.section	.text.CyPmHibSlpRestore,"ax",%progbits
 294              		.align	1
 295              		.thumb
 296              		.thumb_func
 297              		.type	CyPmHibSlpRestore, %function
 298              	CyPmHibSlpRestore:
 299              	.LFB13:
1709:Generated_Source\PSoC5/cyPm.c ****     }
1710:Generated_Source\PSoC5/cyPm.c **** }
1711:Generated_Source\PSoC5/cyPm.c **** 
ARM GAS  C:\Users\aupen\AppData\Local\Temp\cct0TTf9.s 			page 37


1712:Generated_Source\PSoC5/cyPm.c **** 
1713:Generated_Source\PSoC5/cyPm.c **** /*******************************************************************************
1714:Generated_Source\PSoC5/cyPm.c **** * Function Name: CyPmHibSlpRestore
1715:Generated_Source\PSoC5/cyPm.c **** ****************************************************************************//**
1716:Generated_Source\PSoC5/cyPm.c **** *
1717:Generated_Source\PSoC5/cyPm.c **** *  This API is used for restoring the device configurations after wakeup from
1718:Generated_Source\PSoC5/cyPm.c **** *  the Sleep and Hibernate low power modes:
1719:Generated_Source\PSoC5/cyPm.c **** *  - Restores the SC/CT routing connections
1720:Generated_Source\PSoC5/cyPm.c **** *  - Restores the enable state of the Serial Wire Viewer (SWV) (PSoC 3)
1721:Generated_Source\PSoC5/cyPm.c **** *  - Restores the  boost reference selection
1722:Generated_Source\PSoC5/cyPm.c **** *
1723:Generated_Source\PSoC5/cyPm.c **** *******************************************************************************/
1724:Generated_Source\PSoC5/cyPm.c **** static void CyPmHibSlpRestore(void) 
1725:Generated_Source\PSoC5/cyPm.c **** {
 300              		.loc 1 1725 0
 301              		.cfi_startproc
 302              		@ args = 0, pretend = 0, frame = 0
 303              		@ frame_needed = 0, uses_anonymous_args = 0
 304              		@ link register save eliminated.
1726:Generated_Source\PSoC5/cyPm.c ****     /* Restore SC/CT routing registers */
1727:Generated_Source\PSoC5/cyPm.c ****     CY_SET_REG8(CYREG_SC0_SW0 , cyPmBackup.scctData[0u] );
 305              		.loc 1 1727 0
 306 0000 2D4B     		ldr	r3, .L9
 307 0002 2E4A     		ldr	r2, .L9+4
 308 0004 997A     		ldrb	r1, [r3, #10]	@ zero_extendqisi2
1728:Generated_Source\PSoC5/cyPm.c ****     CY_SET_REG8(CYREG_SC0_SW2 , cyPmBackup.scctData[1u] );
1729:Generated_Source\PSoC5/cyPm.c ****     CY_SET_REG8(CYREG_SC0_SW3 , cyPmBackup.scctData[2u] );
1730:Generated_Source\PSoC5/cyPm.c ****     CY_SET_REG8(CYREG_SC0_SW4 , cyPmBackup.scctData[3u] );
1731:Generated_Source\PSoC5/cyPm.c ****     CY_SET_REG8(CYREG_SC0_SW6 , cyPmBackup.scctData[4u] );
1732:Generated_Source\PSoC5/cyPm.c ****     CY_SET_REG8(CYREG_SC0_SW8 , cyPmBackup.scctData[5u] );
1733:Generated_Source\PSoC5/cyPm.c ****     CY_SET_REG8(CYREG_SC0_SW10, cyPmBackup.scctData[6u] );
1734:Generated_Source\PSoC5/cyPm.c **** 
1735:Generated_Source\PSoC5/cyPm.c ****     CY_SET_REG8(CYREG_SC1_SW0 , cyPmBackup.scctData[7u] );
1736:Generated_Source\PSoC5/cyPm.c ****     CY_SET_REG8(CYREG_SC1_SW2 , cyPmBackup.scctData[8u] );
1737:Generated_Source\PSoC5/cyPm.c ****     CY_SET_REG8(CYREG_SC1_SW3 , cyPmBackup.scctData[9u] );
1738:Generated_Source\PSoC5/cyPm.c ****     CY_SET_REG8(CYREG_SC1_SW4 , cyPmBackup.scctData[10u]);
1739:Generated_Source\PSoC5/cyPm.c ****     CY_SET_REG8(CYREG_SC1_SW6 , cyPmBackup.scctData[11u]);
1740:Generated_Source\PSoC5/cyPm.c ****     CY_SET_REG8(CYREG_SC1_SW8 , cyPmBackup.scctData[12u]);
 309              		.loc 1 1740 0
 310 0006 1832     		adds	r2, r2, #24
1727:Generated_Source\PSoC5/cyPm.c ****     CY_SET_REG8(CYREG_SC0_SW2 , cyPmBackup.scctData[1u] );
 311              		.loc 1 1727 0
 312 0008 02F8181C 		strb	r1, [r2, #-24]
1728:Generated_Source\PSoC5/cyPm.c ****     CY_SET_REG8(CYREG_SC0_SW2 , cyPmBackup.scctData[1u] );
 313              		.loc 1 1728 0
 314 000c D97A     		ldrb	r1, [r3, #11]	@ zero_extendqisi2
 315 000e 02F8161C 		strb	r1, [r2, #-22]
1729:Generated_Source\PSoC5/cyPm.c ****     CY_SET_REG8(CYREG_SC0_SW4 , cyPmBackup.scctData[3u] );
 316              		.loc 1 1729 0
 317 0012 197B     		ldrb	r1, [r3, #12]	@ zero_extendqisi2
 318 0014 02F8151C 		strb	r1, [r2, #-21]
1730:Generated_Source\PSoC5/cyPm.c ****     CY_SET_REG8(CYREG_SC0_SW6 , cyPmBackup.scctData[4u] );
 319              		.loc 1 1730 0
 320 0018 597B     		ldrb	r1, [r3, #13]	@ zero_extendqisi2
 321 001a 02F8141C 		strb	r1, [r2, #-20]
1731:Generated_Source\PSoC5/cyPm.c ****     CY_SET_REG8(CYREG_SC0_SW8 , cyPmBackup.scctData[5u] );
 322              		.loc 1 1731 0
ARM GAS  C:\Users\aupen\AppData\Local\Temp\cct0TTf9.s 			page 38


 323 001e 997B     		ldrb	r1, [r3, #14]	@ zero_extendqisi2
 324 0020 02F8121C 		strb	r1, [r2, #-18]
1732:Generated_Source\PSoC5/cyPm.c ****     CY_SET_REG8(CYREG_SC0_SW10, cyPmBackup.scctData[6u] );
 325              		.loc 1 1732 0
 326 0024 D97B     		ldrb	r1, [r3, #15]	@ zero_extendqisi2
 327 0026 02F8101C 		strb	r1, [r2, #-16]
1733:Generated_Source\PSoC5/cyPm.c **** 
 328              		.loc 1 1733 0
 329 002a 197C     		ldrb	r1, [r3, #16]	@ zero_extendqisi2
 330 002c 02F80E1C 		strb	r1, [r2, #-14]
1735:Generated_Source\PSoC5/cyPm.c ****     CY_SET_REG8(CYREG_SC1_SW2 , cyPmBackup.scctData[8u] );
 331              		.loc 1 1735 0
 332 0030 597C     		ldrb	r1, [r3, #17]	@ zero_extendqisi2
 333 0032 02F8081C 		strb	r1, [r2, #-8]
1736:Generated_Source\PSoC5/cyPm.c ****     CY_SET_REG8(CYREG_SC1_SW3 , cyPmBackup.scctData[9u] );
 334              		.loc 1 1736 0
 335 0036 997C     		ldrb	r1, [r3, #18]	@ zero_extendqisi2
 336 0038 02F8061C 		strb	r1, [r2, #-6]
1737:Generated_Source\PSoC5/cyPm.c ****     CY_SET_REG8(CYREG_SC1_SW4 , cyPmBackup.scctData[10u]);
 337              		.loc 1 1737 0
 338 003c D97C     		ldrb	r1, [r3, #19]	@ zero_extendqisi2
 339 003e 02F8051C 		strb	r1, [r2, #-5]
1738:Generated_Source\PSoC5/cyPm.c ****     CY_SET_REG8(CYREG_SC1_SW6 , cyPmBackup.scctData[11u]);
 340              		.loc 1 1738 0
 341 0042 197D     		ldrb	r1, [r3, #20]	@ zero_extendqisi2
 342 0044 02F8041C 		strb	r1, [r2, #-4]
1739:Generated_Source\PSoC5/cyPm.c ****     CY_SET_REG8(CYREG_SC1_SW8 , cyPmBackup.scctData[12u]);
 343              		.loc 1 1739 0
 344 0048 597D     		ldrb	r1, [r3, #21]	@ zero_extendqisi2
 345 004a 02F8021C 		strb	r1, [r2, #-2]
 346              		.loc 1 1740 0
 347 004e 997D     		ldrb	r1, [r3, #22]	@ zero_extendqisi2
 348 0050 1170     		strb	r1, [r2]
1741:Generated_Source\PSoC5/cyPm.c ****     CY_SET_REG8(CYREG_SC1_SW10, cyPmBackup.scctData[13u]);
 349              		.loc 1 1741 0
 350 0052 D97D     		ldrb	r1, [r3, #23]	@ zero_extendqisi2
 351 0054 9170     		strb	r1, [r2, #2]
1742:Generated_Source\PSoC5/cyPm.c **** 
1743:Generated_Source\PSoC5/cyPm.c ****     CY_SET_REG8(CYREG_SC2_SW0 , cyPmBackup.scctData[14u]);
 352              		.loc 1 1743 0
 353 0056 197E     		ldrb	r1, [r3, #24]	@ zero_extendqisi2
 354 0058 1172     		strb	r1, [r2, #8]
1744:Generated_Source\PSoC5/cyPm.c ****     CY_SET_REG8(CYREG_SC2_SW2 , cyPmBackup.scctData[15u]);
 355              		.loc 1 1744 0
 356 005a 597E     		ldrb	r1, [r3, #25]	@ zero_extendqisi2
 357 005c 9172     		strb	r1, [r2, #10]
1745:Generated_Source\PSoC5/cyPm.c ****     CY_SET_REG8(CYREG_SC2_SW3 , cyPmBackup.scctData[16u]);
 358              		.loc 1 1745 0
 359 005e 997E     		ldrb	r1, [r3, #26]	@ zero_extendqisi2
 360 0060 D172     		strb	r1, [r2, #11]
1746:Generated_Source\PSoC5/cyPm.c ****     CY_SET_REG8(CYREG_SC2_SW4 , cyPmBackup.scctData[17u]);
 361              		.loc 1 1746 0
 362 0062 D97E     		ldrb	r1, [r3, #27]	@ zero_extendqisi2
 363 0064 1173     		strb	r1, [r2, #12]
1747:Generated_Source\PSoC5/cyPm.c ****     CY_SET_REG8(CYREG_SC2_SW6 , cyPmBackup.scctData[18u]);
 364              		.loc 1 1747 0
 365 0066 197F     		ldrb	r1, [r3, #28]	@ zero_extendqisi2
ARM GAS  C:\Users\aupen\AppData\Local\Temp\cct0TTf9.s 			page 39


 366 0068 9173     		strb	r1, [r2, #14]
1748:Generated_Source\PSoC5/cyPm.c ****     CY_SET_REG8(CYREG_SC2_SW8 , cyPmBackup.scctData[19u]);
 367              		.loc 1 1748 0
 368 006a 597F     		ldrb	r1, [r3, #29]	@ zero_extendqisi2
 369 006c 1174     		strb	r1, [r2, #16]
1749:Generated_Source\PSoC5/cyPm.c ****     CY_SET_REG8(CYREG_SC2_SW10, cyPmBackup.scctData[20u]);
 370              		.loc 1 1749 0
 371 006e 997F     		ldrb	r1, [r3, #30]	@ zero_extendqisi2
 372 0070 9174     		strb	r1, [r2, #18]
1750:Generated_Source\PSoC5/cyPm.c **** 
1751:Generated_Source\PSoC5/cyPm.c ****     CY_SET_REG8(CYREG_SC3_SW0 , cyPmBackup.scctData[21u]);
 373              		.loc 1 1751 0
 374 0072 D97F     		ldrb	r1, [r3, #31]	@ zero_extendqisi2
 375 0074 1176     		strb	r1, [r2, #24]
1752:Generated_Source\PSoC5/cyPm.c ****     CY_SET_REG8(CYREG_SC3_SW2 , cyPmBackup.scctData[22u]);
 376              		.loc 1 1752 0
 377 0076 93F82010 		ldrb	r1, [r3, #32]	@ zero_extendqisi2
 378 007a 9176     		strb	r1, [r2, #26]
1753:Generated_Source\PSoC5/cyPm.c ****     CY_SET_REG8(CYREG_SC3_SW3 , cyPmBackup.scctData[23u]);
 379              		.loc 1 1753 0
 380 007c 93F82110 		ldrb	r1, [r3, #33]	@ zero_extendqisi2
 381 0080 D176     		strb	r1, [r2, #27]
1754:Generated_Source\PSoC5/cyPm.c ****     CY_SET_REG8(CYREG_SC3_SW4 , cyPmBackup.scctData[24u]);
 382              		.loc 1 1754 0
 383 0082 93F82210 		ldrb	r1, [r3, #34]	@ zero_extendqisi2
 384 0086 1177     		strb	r1, [r2, #28]
1755:Generated_Source\PSoC5/cyPm.c ****     CY_SET_REG8(CYREG_SC3_SW6 , cyPmBackup.scctData[25u]);
 385              		.loc 1 1755 0
 386 0088 93F82310 		ldrb	r1, [r3, #35]	@ zero_extendqisi2
 387 008c 9177     		strb	r1, [r2, #30]
1756:Generated_Source\PSoC5/cyPm.c ****     CY_SET_REG8(CYREG_SC3_SW8 , cyPmBackup.scctData[26u]);
 388              		.loc 1 1756 0
 389 008e 93F82410 		ldrb	r1, [r3, #36]	@ zero_extendqisi2
 390 0092 82F82010 		strb	r1, [r2, #32]
1757:Generated_Source\PSoC5/cyPm.c ****     CY_SET_REG8(CYREG_SC3_SW10, cyPmBackup.scctData[27u]);
 391              		.loc 1 1757 0
 392 0096 93F82510 		ldrb	r1, [r3, #37]	@ zero_extendqisi2
 393 009a 82F82210 		strb	r1, [r2, #34]
1758:Generated_Source\PSoC5/cyPm.c **** 
1759:Generated_Source\PSoC5/cyPm.c **** 
1760:Generated_Source\PSoC5/cyPm.c ****     #if(CY_PSOC3)
1761:Generated_Source\PSoC5/cyPm.c **** 
1762:Generated_Source\PSoC5/cyPm.c ****         /* Serial Wire Viewer (SWV) workaround */
1763:Generated_Source\PSoC5/cyPm.c ****         if(CY_PM_ENABLED == cyPmBackup.swvClkEnabled)
1764:Generated_Source\PSoC5/cyPm.c ****         {
1765:Generated_Source\PSoC5/cyPm.c ****             /* Restore ports drive mode */
1766:Generated_Source\PSoC5/cyPm.c ****             CY_PM_PRT1_PC3_REG = (CY_PM_PRT1_PC3_REG & CY_PM_PRT1_PC3_DM_MASK) |
1767:Generated_Source\PSoC5/cyPm.c ****                                     cyPmBackup.prt1Dm;
1768:Generated_Source\PSoC5/cyPm.c **** 
1769:Generated_Source\PSoC5/cyPm.c ****             /* Enable SWV clocks */
1770:Generated_Source\PSoC5/cyPm.c ****             CY_PM_MLOGIC_DBG_REG |= CY_PM_MLOGIC_DBG_SWV_CLK_EN;
1771:Generated_Source\PSoC5/cyPm.c ****         }
1772:Generated_Source\PSoC5/cyPm.c **** 
1773:Generated_Source\PSoC5/cyPm.c ****     #endif /* (CY_PSOC3) */
1774:Generated_Source\PSoC5/cyPm.c **** 
1775:Generated_Source\PSoC5/cyPm.c **** 
1776:Generated_Source\PSoC5/cyPm.c ****     /* Restore boost reference */
ARM GAS  C:\Users\aupen\AppData\Local\Temp\cct0TTf9.s 			page 40


1777:Generated_Source\PSoC5/cyPm.c ****     if(CY_PM_ENABLED == cyPmBackup.boostRefExt)
 394              		.loc 1 1777 0
 395 009e 93F82F30 		ldrb	r3, [r3, #47]	@ zero_extendqisi2
1757:Generated_Source\PSoC5/cyPm.c ****     CY_SET_REG8(CYREG_SC3_SW10, cyPmBackup.scctData[27u]);
 396              		.loc 1 1757 0
 397 00a2 2232     		adds	r2, r2, #34
 398              		.loc 1 1777 0
 399 00a4 012B     		cmp	r3, #1
 400 00a6 06D1     		bne	.L7
1778:Generated_Source\PSoC5/cyPm.c ****     {
1779:Generated_Source\PSoC5/cyPm.c ****         CY_PM_BOOST_CR2_REG |= CY_PM_BOOST_CR2_EREFSEL_EXT;
 401              		.loc 1 1779 0
 402 00a8 A2F5B852 		sub	r2, r2, #5888
 403 00ac 183A     		subs	r2, r2, #24
 404 00ae 1378     		ldrb	r3, [r2]	@ zero_extendqisi2
 405 00b0 43F00803 		orr	r3, r3, #8
 406 00b4 1370     		strb	r3, [r2]
 407              	.L7:
 408 00b6 7047     		bx	lr
 409              	.L10:
 410              		.align	2
 411              	.L9:
 412 00b8 00000000 		.word	.LANCHOR0
 413 00bc 005A0040 		.word	1073764864
 414              		.cfi_endproc
 415              	.LFE13:
 416              		.size	CyPmHibSlpRestore, .-CyPmHibSlpRestore
 417              		.section	.text.CyPmSaveClocks,"ax",%progbits
 418              		.align	1
 419              		.global	CyPmSaveClocks
 420              		.thumb
 421              		.thumb_func
 422              		.type	CyPmSaveClocks, %function
 423              	CyPmSaveClocks:
 424              	.LFB0:
  74:Generated_Source\PSoC5/cyPm.c ****     /* Digital and analog clocks - save enable state and disable them all */
 425              		.loc 1 74 0
 426              		.cfi_startproc
 427              		@ args = 0, pretend = 0, frame = 0
 428              		@ frame_needed = 0, uses_anonymous_args = 0
 429 0000 10B5     		push	{r4, lr}
 430              		.cfi_def_cfa_offset 8
 431              		.cfi_offset 4, -8
 432              		.cfi_offset 14, -4
  76:Generated_Source\PSoC5/cyPm.c ****     cyPmClockBackup.enClkD = CY_PM_ACT_CFG2_REG;
 433              		.loc 1 76 0
 434 0002 6A4A     		ldr	r2, .L51
 435 0004 6A4C     		ldr	r4, .L51+4
 436 0006 1378     		ldrb	r3, [r2]	@ zero_extendqisi2
  83:Generated_Source\PSoC5/cyPm.c **** 
 437              		.loc 1 83 0
 438 0008 3720     		movs	r0, #55
  76:Generated_Source\PSoC5/cyPm.c ****     cyPmClockBackup.enClkD = CY_PM_ACT_CFG2_REG;
 439              		.loc 1 76 0
 440 000a 03F00F03 		and	r3, r3, #15
 441 000e 84F83030 		strb	r3, [r4, #48]
  77:Generated_Source\PSoC5/cyPm.c ****     CY_PM_ACT_CFG1_REG &= ((uint8)(~CY_PM_ACT_EN_CLK_A_MASK));
ARM GAS  C:\Users\aupen\AppData\Local\Temp\cct0TTf9.s 			page 41


 442              		.loc 1 77 0
 443 0012 684B     		ldr	r3, .L51+8
 444 0014 1978     		ldrb	r1, [r3]	@ zero_extendqisi2
 445 0016 84F83110 		strb	r1, [r4, #49]
  78:Generated_Source\PSoC5/cyPm.c ****     CY_PM_ACT_CFG2_REG &= ((uint8)(~CY_PM_ACT_EN_CLK_D_MASK));
 446              		.loc 1 78 0
 447 001a 1178     		ldrb	r1, [r2]	@ zero_extendqisi2
 448 001c 01F0F001 		and	r1, r1, #240
 449 0020 1170     		strb	r1, [r2]
  79:Generated_Source\PSoC5/cyPm.c **** 
 450              		.loc 1 79 0
 451 0022 1A78     		ldrb	r2, [r3]	@ zero_extendqisi2
 452 0024 0022     		movs	r2, #0
 453 0026 1A70     		strb	r2, [r3]
  82:Generated_Source\PSoC5/cyPm.c ****     CyFlash_SetWaitCycles(CY_PM_MAX_FLASH_WAIT_CYCLES);
 454              		.loc 1 82 0
 455 0028 03F25E43 		addw	r3, r3, #1118
 456 002c 1B78     		ldrb	r3, [r3]	@ zero_extendqisi2
 457 002e 03F0C003 		and	r3, r3, #192
 458 0032 84F83530 		strb	r3, [r4, #53]
  83:Generated_Source\PSoC5/cyPm.c **** 
 459              		.loc 1 83 0
 460 0036 FFF7FEFF 		bl	CyFlash_SetWaitCycles
 461              	.LVL0:
  86:Generated_Source\PSoC5/cyPm.c ****     cyPmClockBackup.imoUsbClk = CY_PM_FASTCLK_IMO_CR_REG & CY_PM_FASTCLK_IMO_CR_USB;
 462              		.loc 1 86 0
 463 003a 5F4B     		ldr	r3, .L51+12
 464 003c 1A78     		ldrb	r2, [r3]	@ zero_extendqisi2
 465 003e 02F00702 		and	r2, r2, #7
 466 0042 84F83320 		strb	r2, [r4, #51]
  87:Generated_Source\PSoC5/cyPm.c **** 
 467              		.loc 1 87 0
 468 0046 1A78     		ldrb	r2, [r3]	@ zero_extendqisi2
 469 0048 02F04002 		and	r2, r2, #64
 470 004c 84F83420 		strb	r2, [r4, #52]
  90:Generated_Source\PSoC5/cyPm.c ****     {
 471              		.loc 1 90 0
 472 0050 1B78     		ldrb	r3, [r3]	@ zero_extendqisi2
 473 0052 03F01003 		and	r3, r3, #16
 474 0056 03F0FF02 		and	r2, r3, #255
 475 005a 1BB1     		cbz	r3, .L12
  93:Generated_Source\PSoC5/cyPm.c ****     }
 476              		.loc 1 93 0
 477 005c 0123     		movs	r3, #1
 478 005e 84F83930 		strb	r3, [r4, #57]
 479 0062 01E0     		b	.L13
 480              	.L12:
  98:Generated_Source\PSoC5/cyPm.c ****     }
 481              		.loc 1 98 0
 482 0064 84F83920 		strb	r2, [r4, #57]
 483              	.L13:
 102:Generated_Source\PSoC5/cyPm.c **** 
 484              		.loc 1 102 0
 485 0068 544B     		ldr	r3, .L51+16
 486 006a 1B78     		ldrb	r3, [r3]	@ zero_extendqisi2
 487 006c 03F00303 		and	r3, r3, #3
 105:Generated_Source\PSoC5/cyPm.c ****     {
ARM GAS  C:\Users\aupen\AppData\Local\Temp\cct0TTf9.s 			page 42


 488              		.loc 1 105 0
 489 0070 012B     		cmp	r3, #1
 102:Generated_Source\PSoC5/cyPm.c **** 
 490              		.loc 1 102 0
 491 0072 84F83230 		strb	r3, [r4, #50]
 105:Generated_Source\PSoC5/cyPm.c ****     {
 492              		.loc 1 105 0
 493 0076 10D1     		bne	.L14
 107:Generated_Source\PSoC5/cyPm.c ****         {
 494              		.loc 1 107 0
 495 0078 4FF04023 		mov	r3, #1073758208
 496 007c 1B78     		ldrb	r3, [r3]	@ zero_extendqisi2
 497 007e 03F00303 		and	r3, r3, #3
 498 0082 012B     		cmp	r3, #1
 499 0084 06D0     		beq	.L15
 500 0086 03D3     		bcc	.L16
 501 0088 022B     		cmp	r3, #2
 502 008a 06D1     		bne	.L14
 118:Generated_Source\PSoC5/cyPm.c ****             break;
 503              		.loc 1 118 0
 504 008c 0320     		movs	r0, #3
 505 008e 02E0     		b	.L50
 506              	.L16:
 110:Generated_Source\PSoC5/cyPm.c ****             break;
 507              		.loc 1 110 0
 508 0090 0020     		movs	r0, #0
 509 0092 00E0     		b	.L50
 510              	.L15:
 114:Generated_Source\PSoC5/cyPm.c ****             break;
 511              		.loc 1 114 0
 512 0094 0220     		movs	r0, #2
 513              	.L50:
 118:Generated_Source\PSoC5/cyPm.c ****             break;
 514              		.loc 1 118 0
 515 0096 FFF7FEFF 		bl	CyMasterClk_SetSource
 516              	.LVL1:
 517              	.L14:
 128:Generated_Source\PSoC5/cyPm.c ****     {
 518              		.loc 1 128 0
 519 009a 494B     		ldr	r3, .L51+20
 520 009c 1B78     		ldrb	r3, [r3]	@ zero_extendqisi2
 521 009e 13F00103 		ands	r3, r3, #1
 522 00a2 05D0     		beq	.L18
 131:Generated_Source\PSoC5/cyPm.c ****         CyPLL_OUT_Stop();
 523              		.loc 1 131 0
 524 00a4 0123     		movs	r3, #1
 525 00a6 84F83E30 		strb	r3, [r4, #62]
 132:Generated_Source\PSoC5/cyPm.c ****     }
 526              		.loc 1 132 0
 527 00aa FFF7FEFF 		bl	CyPLL_OUT_Stop
 528              	.LVL2:
 529 00ae 01E0     		b	.L19
 530              	.L18:
 137:Generated_Source\PSoC5/cyPm.c ****     }
 531              		.loc 1 137 0
 532 00b0 84F83E30 		strb	r3, [r4, #62]
 533              	.L19:
ARM GAS  C:\Users\aupen\AppData\Local\Temp\cct0TTf9.s 			page 43


 141:Generated_Source\PSoC5/cyPm.c **** 
 534              		.loc 1 141 0
 535 00b4 0420     		movs	r0, #4
 536 00b6 FFF7FEFF 		bl	CyIMO_SetFreq
 537              	.LVL3:
 144:Generated_Source\PSoC5/cyPm.c ****     {
 538              		.loc 1 144 0
 539 00ba 424B     		ldr	r3, .L51+24
 540 00bc 1B78     		ldrb	r3, [r3]	@ zero_extendqisi2
 541 00be 03F01003 		and	r3, r3, #16
 542 00c2 03F0FF00 		and	r0, r3, #255
 543 00c6 1BB1     		cbz	r3, .L20
 147:Generated_Source\PSoC5/cyPm.c ****     }
 544              		.loc 1 147 0
 545 00c8 0123     		movs	r3, #1
 546 00ca 84F83630 		strb	r3, [r4, #54]
 547 00ce 06E0     		b	.L21
 548              	.L20:
 152:Generated_Source\PSoC5/cyPm.c **** 
 549              		.loc 1 152 0
 550 00d0 84F83600 		strb	r0, [r4, #54]
 155:Generated_Source\PSoC5/cyPm.c **** 
 551              		.loc 1 155 0
 552 00d4 FFF7FEFF 		bl	CyIMO_Start
 553              	.LVL4:
 158:Generated_Source\PSoC5/cyPm.c ****     }
 554              		.loc 1 158 0
 555 00d8 0620     		movs	r0, #6
 556 00da FFF7FEFF 		bl	CyDelayUs
 557              	.LVL5:
 558              	.L21:
 162:Generated_Source\PSoC5/cyPm.c ****     {
 559              		.loc 1 162 0
 560 00de 364B     		ldr	r3, .L51+12
 561 00e0 1B78     		ldrb	r3, [r3]	@ zero_extendqisi2
 562 00e2 03F02003 		and	r3, r3, #32
 563 00e6 03F0FF02 		and	r2, r3, #255
 564 00ea 6BB1     		cbz	r3, .L22
 166:Generated_Source\PSoC5/cyPm.c **** 
 565              		.loc 1 166 0
 566 00ec 4FF04023 		mov	r3, #1073758208
 567 00f0 1B78     		ldrb	r3, [r3]	@ zero_extendqisi2
 169:Generated_Source\PSoC5/cyPm.c ****     }
 568              		.loc 1 169 0
 569 00f2 0020     		movs	r0, #0
 165:Generated_Source\PSoC5/cyPm.c ****             (0u == (CY_PM_CLKDIST_CR_REG & CY_PM_CLKDIST_IMO2X_SRC)) ? CY_IMO_SOURCE_DSI : CY_IMO_S
 570              		.loc 1 165 0
 571 00f4 13F0400F 		tst	r3, #64
 572 00f8 0CBF     		ite	eq
 573 00fa 0223     		moveq	r3, #2
 574 00fc 0123     		movne	r3, #1
 575 00fe 84F83730 		strb	r3, [r4, #55]
 169:Generated_Source\PSoC5/cyPm.c ****     }
 576              		.loc 1 169 0
 577 0102 FFF7FEFF 		bl	CyIMO_SetSource
 578              	.LVL6:
 579 0106 01E0     		b	.L24
ARM GAS  C:\Users\aupen\AppData\Local\Temp\cct0TTf9.s 			page 44


 580              	.L22:
 174:Generated_Source\PSoC5/cyPm.c ****     }
 581              		.loc 1 174 0
 582 0108 84F83720 		strb	r2, [r4, #55]
 583              	.L24:
 178:Generated_Source\PSoC5/cyPm.c **** 
 584              		.loc 1 178 0
 585 010c 4FF04022 		mov	r2, #1073758208
 586 0110 1378     		ldrb	r3, [r2]	@ zero_extendqisi2
 587 0112 03F03003 		and	r3, r3, #48
 588 0116 84F83830 		strb	r3, [r4, #56]
 181:Generated_Source\PSoC5/cyPm.c ****     {
 589              		.loc 1 181 0
 590 011a 1BB1     		cbz	r3, .L25
 184:Generated_Source\PSoC5/cyPm.c ****                                 CY_PM_CLKDIST_IMO_OUT_IMO;
 591              		.loc 1 184 0
 592 011c 1378     		ldrb	r3, [r2]	@ zero_extendqisi2
 593 011e 03F0CF03 		and	r3, r3, #207
 594 0122 1370     		strb	r3, [r2]
 595              	.L25:
 189:Generated_Source\PSoC5/cyPm.c ****     {
 596              		.loc 1 189 0
 597 0124 244B     		ldr	r3, .L51+12
 598 0126 1B78     		ldrb	r3, [r3]	@ zero_extendqisi2
 599 0128 DB06     		lsls	r3, r3, #27
 600 012a 01D5     		bpl	.L26
 191:Generated_Source\PSoC5/cyPm.c ****     }
 601              		.loc 1 191 0
 602 012c FFF7FEFF 		bl	CyIMO_DisableDoubler
 603              	.LVL7:
 604              	.L26:
 195:Generated_Source\PSoC5/cyPm.c ****     if(CY_PM_DIV_BY_ONE != cyPmClockBackup.clkSyncDiv)
 605              		.loc 1 195 0
 606 0130 254B     		ldr	r3, .L51+28
 607 0132 1B78     		ldrb	r3, [r3]	@ zero_extendqisi2
 608 0134 DBB2     		uxtb	r3, r3
 609 0136 84F83A30 		strb	r3, [r4, #58]
 196:Generated_Source\PSoC5/cyPm.c ****     {
 610              		.loc 1 196 0
 611 013a 13B1     		cbz	r3, .L27
 198:Generated_Source\PSoC5/cyPm.c ****     }    /* No change if master clock divider is 1 */
 612              		.loc 1 198 0
 613 013c 0020     		movs	r0, #0
 614 013e FFF7FEFF 		bl	CyMasterClk_SetDivider
 615              	.LVL8:
 616              	.L27:
 202:Generated_Source\PSoC5/cyPm.c ****     {
 617              		.loc 1 202 0
 618 0142 94F83230 		ldrb	r3, [r4, #50]	@ zero_extendqisi2
 619 0146 13B1     		cbz	r3, .L28
 204:Generated_Source\PSoC5/cyPm.c ****     }    /* No change if master clock source is IMO */
 620              		.loc 1 204 0
 621 0148 0020     		movs	r0, #0
 622 014a FFF7FEFF 		bl	CyMasterClk_SetSource
 623              	.LVL9:
 624              	.L28:
 208:Generated_Source\PSoC5/cyPm.c ****     cyPmClockBackup.clkBusDiv |= CY_PM_CLK_BUS_LSB_DIV_REG;
ARM GAS  C:\Users\aupen\AppData\Local\Temp\cct0TTf9.s 			page 45


 625              		.loc 1 208 0
 626 014e 1F4B     		ldr	r3, .L51+32
 627 0150 1B78     		ldrb	r3, [r3]	@ zero_extendqisi2
 628 0152 1A02     		lsls	r2, r3, #8
 209:Generated_Source\PSoC5/cyPm.c ****     if(CY_PM_BUS_CLK_DIV_BY_ONE != cyPmClockBackup.clkBusDiv)
 629              		.loc 1 209 0
 630 0154 1E4B     		ldr	r3, .L51+36
 208:Generated_Source\PSoC5/cyPm.c ****     cyPmClockBackup.clkBusDiv |= CY_PM_CLK_BUS_LSB_DIV_REG;
 631              		.loc 1 208 0
 632 0156 A287     		strh	r2, [r4, #60]	@ movhi
 209:Generated_Source\PSoC5/cyPm.c ****     if(CY_PM_BUS_CLK_DIV_BY_ONE != cyPmClockBackup.clkBusDiv)
 633              		.loc 1 209 0
 634 0158 1B78     		ldrb	r3, [r3]	@ zero_extendqisi2
 635 015a 1343     		orrs	r3, r3, r2
 636 015c A387     		strh	r3, [r4, #60]	@ movhi
 210:Generated_Source\PSoC5/cyPm.c ****     {
 637              		.loc 1 210 0
 638 015e 13B1     		cbz	r3, .L29
 212:Generated_Source\PSoC5/cyPm.c ****     }    /* Do nothing if saved and actual values are equal */
 639              		.loc 1 212 0
 640 0160 0020     		movs	r0, #0
 641 0162 FFF7FEFF 		bl	CyBusClk_SetDivider
 642              	.LVL10:
 643              	.L29:
 216:Generated_Source\PSoC5/cyPm.c **** 
 644              		.loc 1 216 0
 645 0166 144B     		ldr	r3, .L51+12
 646 0168 1A4A     		ldr	r2, .L51+40
 647 016a 1B78     		ldrb	r3, [r3]	@ zero_extendqisi2
 648 016c 03F00703 		and	r3, r3, #7
 649 0170 D05C     		ldrb	r0, [r2, r3]	@ zero_extendqisi2
 650 0172 FFF7FEFF 		bl	CyFlash_SetWaitCycles
 651              	.LVL11:
 219:Generated_Source\PSoC5/cyPm.c ****     {
 652              		.loc 1 219 0
 653 0176 184B     		ldr	r3, .L51+44
 654 0178 1B78     		ldrb	r3, [r3]	@ zero_extendqisi2
 655 017a 13F00103 		ands	r3, r3, #1
 656 017e 05D0     		beq	.L30
 222:Generated_Source\PSoC5/cyPm.c ****         CyXTAL_Stop();
 657              		.loc 1 222 0
 658 0180 0123     		movs	r3, #1
 659 0182 84F83F30 		strb	r3, [r4, #63]
 223:Generated_Source\PSoC5/cyPm.c ****     }
 660              		.loc 1 223 0
 661 0186 FFF7FEFF 		bl	CyXTAL_Stop
 662              	.LVL12:
 663 018a 01E0     		b	.L31
 664              	.L30:
 228:Generated_Source\PSoC5/cyPm.c ****     }
 665              		.loc 1 228 0
 666 018c 84F83F30 		strb	r3, [r4, #63]
 667              	.L31:
 237:Generated_Source\PSoC5/cyPm.c ****     {
 668              		.loc 1 237 0
 669 0190 124B     		ldr	r3, .L51+48
 670 0192 1B78     		ldrb	r3, [r3]	@ zero_extendqisi2
ARM GAS  C:\Users\aupen\AppData\Local\Temp\cct0TTf9.s 			page 46


 671 0194 03F00403 		and	r3, r3, #4
 672 0198 03F0FF02 		and	r2, r3, #255
 673 019c 1BB1     		cbz	r3, .L32
 239:Generated_Source\PSoC5/cyPm.c ****     }
 674              		.loc 1 239 0
 675 019e 0123     		movs	r3, #1
 676 01a0 84F84030 		strb	r3, [r4, #64]
 677 01a4 10BD     		pop	{r4, pc}
 678              	.L32:
 243:Generated_Source\PSoC5/cyPm.c ****     }
 679              		.loc 1 243 0
 680 01a6 84F84020 		strb	r2, [r4, #64]
 681 01aa 10BD     		pop	{r4, pc}
 682              	.L52:
 683              		.align	2
 684              	.L51:
 685 01ac A1430040 		.word	1073759137
 686 01b0 00000000 		.word	.LANCHOR0
 687 01b4 A2430040 		.word	1073759138
 688 01b8 00420040 		.word	1073758720
 689 01bc 05400040 		.word	1073758213
 690 01c0 20420040 		.word	1073758752
 691 01c4 A0430040 		.word	1073759136
 692 01c8 04400040 		.word	1073758212
 693 01cc 07400040 		.word	1073758215
 694 01d0 06400040 		.word	1073758214
 695 01d4 00000000 		.word	.LANCHOR1
 696 01d8 10420040 		.word	1073758736
 697 01dc 0B400040 		.word	1073758219
 698              		.cfi_endproc
 699              	.LFE0:
 700              		.size	CyPmSaveClocks, .-CyPmSaveClocks
 701              		.section	.text.CyPmRestoreClocks,"ax",%progbits
 702              		.align	1
 703              		.global	CyPmRestoreClocks
 704              		.thumb
 705              		.thumb_func
 706              		.type	CyPmRestoreClocks, %function
 707              	CyPmRestoreClocks:
 708              	.LFB1:
 269:Generated_Source\PSoC5/cyPm.c ****     cystatus status = CYRET_TIMEOUT;
 709              		.loc 1 269 0
 710              		.cfi_startproc
 711              		@ args = 0, pretend = 0, frame = 8
 712              		@ frame_needed = 0, uses_anonymous_args = 0
 713              	.LVL13:
 714 0000 2DE9F743 		push	{r0, r1, r2, r4, r5, r6, r7, r8, r9, lr}
 715              		.cfi_def_cfa_offset 40
 716              		.cfi_offset 4, -28
 717              		.cfi_offset 5, -24
 718              		.cfi_offset 6, -20
 719              		.cfi_offset 7, -16
 720              		.cfi_offset 8, -12
 721              		.cfi_offset 9, -8
 722              		.cfi_offset 14, -4
 276:Generated_Source\PSoC5/cyPm.c ****         CY_IMO_FREQ_12MHZ, CY_IMO_FREQ_6MHZ,  CY_IMO_FREQ_24MHZ, CY_IMO_FREQ_3MHZ,
 723              		.loc 1 276 0
ARM GAS  C:\Users\aupen\AppData\Local\Temp\cct0TTf9.s 			page 47


 724 0004 784E     		ldr	r6, .L90
 281:Generated_Source\PSoC5/cyPm.c ****     {
 725              		.loc 1 281 0
 726 0006 794C     		ldr	r4, .L90+4
 276:Generated_Source\PSoC5/cyPm.c ****         CY_IMO_FREQ_12MHZ, CY_IMO_FREQ_6MHZ,  CY_IMO_FREQ_24MHZ, CY_IMO_FREQ_3MHZ,
 727              		.loc 1 276 0
 728 0008 3346     		mov	r3, r6
 729 000a 53F8070F 		ldr	r0, [r3, #7]!	@ unaligned
 730 000e 9A88     		ldrh	r2, [r3, #4]	@ unaligned
 731 0010 9B79     		ldrb	r3, [r3, #6]	@ zero_extendqisi2
 732 0012 0090     		str	r0, [sp]	@ unaligned
 733 0014 8DF80630 		strb	r3, [sp, #6]
 281:Generated_Source\PSoC5/cyPm.c ****     {
 734              		.loc 1 281 0
 735 0018 94F84030 		ldrb	r3, [r4, #64]	@ zero_extendqisi2
 276:Generated_Source\PSoC5/cyPm.c ****         CY_IMO_FREQ_12MHZ, CY_IMO_FREQ_6MHZ,  CY_IMO_FREQ_24MHZ, CY_IMO_FREQ_3MHZ,
 736              		.loc 1 276 0
 737 001c ADF80420 		strh	r2, [sp, #4]	@ unaligned
 281:Generated_Source\PSoC5/cyPm.c ****     {
 738              		.loc 1 281 0
 739 0020 012B     		cmp	r3, #1
 740 0022 0DD1     		bne	.L54
 285:Generated_Source\PSoC5/cyPm.c **** 
 741              		.loc 1 285 0
 742 0024 724B     		ldr	r3, .L90+8
 284:Generated_Source\PSoC5/cyPm.c ****                         CY_PM_GET_CPU_FREQ_MHZ);
 743              		.loc 1 284 0
 744 0026 4B20     		movs	r0, #75
 285:Generated_Source\PSoC5/cyPm.c **** 
 745              		.loc 1 285 0
 746 0028 1B78     		ldrb	r3, [r3]	@ zero_extendqisi2
 747 002a 03F00703 		and	r3, r3, #7
 284:Generated_Source\PSoC5/cyPm.c ****                         CY_PM_GET_CPU_FREQ_MHZ);
 748              		.loc 1 284 0
 749 002e F35C     		ldrb	r3, [r6, r3]	@ zero_extendqisi2
 750 0030 5843     		muls	r0, r3, r0
 751 0032 FFF7FEFF 		bl	CyDelayCycles
 752              	.LVL14:
 287:Generated_Source\PSoC5/cyPm.c ****     }
 753              		.loc 1 287 0
 754 0036 6F4A     		ldr	r2, .L90+12
 755 0038 1378     		ldrb	r3, [r2]	@ zero_extendqisi2
 756 003a 43F00403 		orr	r3, r3, #4
 757 003e 1370     		strb	r3, [r2]
 758              	.L54:
 291:Generated_Source\PSoC5/cyPm.c ****     {
 759              		.loc 1 291 0
 760 0040 94F83F30 		ldrb	r3, [r4, #63]	@ zero_extendqisi2
 761 0044 012B     		cmp	r3, #1
 762 0046 08D0     		beq	.L55
 763              	.L58:
 338:Generated_Source\PSoC5/cyPm.c **** 
 764              		.loc 1 338 0
 765 0048 3720     		movs	r0, #55
 766 004a FFF7FEFF 		bl	CyFlash_SetWaitCycles
 767              	.LVL15:
 341:Generated_Source\PSoC5/cyPm.c ****        (CY_PM_MASTER_CLK_SRC_DSI  == cyPmClockBackup.masterClkSrc))
ARM GAS  C:\Users\aupen\AppData\Local\Temp\cct0TTf9.s 			page 48


 768              		.loc 1 341 0
 769 004e 94F83230 		ldrb	r3, [r4, #50]	@ zero_extendqisi2
 770 0052 023B     		subs	r3, r3, #2
 771 0054 012B     		cmp	r3, #1
 772 0056 29D8     		bhi	.L57
 773 0058 1BE0     		b	.L88
 774              	.L55:
 301:Generated_Source\PSoC5/cyPm.c **** 
 775              		.loc 1 301 0
 776 005a 0020     		movs	r0, #0
 777 005c FFF7FEFF 		bl	CyXTAL_Start
 778              	.LVL16:
 304:Generated_Source\PSoC5/cyPm.c **** 
 779              		.loc 1 304 0
 780 0060 654B     		ldr	r3, .L90+16
 310:Generated_Source\PSoC5/cyPm.c **** 
 781              		.loc 1 310 0
 782 0062 DFF88C81 		ldr	r8, .L90+8
 783 0066 1F46     		mov	r7, r3
 304:Generated_Source\PSoC5/cyPm.c **** 
 784              		.loc 1 304 0
 785 0068 1A78     		ldrb	r2, [r3]	@ zero_extendqisi2
 786              	.LVL17:
 787 006a 0525     		movs	r5, #5
 310:Generated_Source\PSoC5/cyPm.c **** 
 788              		.loc 1 310 0
 789 006c 4FF0C809 		mov	r9, #200
 790              	.LVL18:
 791              	.L59:
 792 0070 98F80030 		ldrb	r3, [r8]	@ zero_extendqisi2
 793 0074 03F00703 		and	r3, r3, #7
 794 0078 F05C     		ldrb	r0, [r6, r3]	@ zero_extendqisi2
 795 007a 09FB00F0 		mul	r0, r9, r0
 796 007e FFF7FEFF 		bl	CyDelayCycles
 797              	.LVL19:
 313:Generated_Source\PSoC5/cyPm.c ****             {
 798              		.loc 1 313 0
 799 0082 3B78     		ldrb	r3, [r7]	@ zero_extendqisi2
 800 0084 1B06     		lsls	r3, r3, #24
 801 0086 DFD5     		bpl	.L58
 802              	.LVL20:
 803 0088 013D     		subs	r5, r5, #1
 804              	.LVL21:
 805 008a ADB2     		uxth	r5, r5
 307:Generated_Source\PSoC5/cyPm.c ****         {
 806              		.loc 1 307 0 discriminator 2
 807 008c 002D     		cmp	r5, #0
 808 008e EFD1     		bne	.L59
 809 0090 DAE7     		b	.L58
 810              	.L88:
 345:Generated_Source\PSoC5/cyPm.c ****         {
 811              		.loc 1 345 0
 812 0092 5A4B     		ldr	r3, .L90+20
 813 0094 554A     		ldr	r2, .L90+4
 814 0096 1B78     		ldrb	r3, [r3]	@ zero_extendqisi2
 815 0098 92F83A00 		ldrb	r0, [r2, #58]	@ zero_extendqisi2
 816 009c 8342     		cmp	r3, r0
ARM GAS  C:\Users\aupen\AppData\Local\Temp\cct0TTf9.s 			page 49


 817 009e 01D0     		beq	.L60
 348:Generated_Source\PSoC5/cyPm.c ****         }
 818              		.loc 1 348 0
 819 00a0 FFF7FEFF 		bl	CyMasterClk_SetDivider
 820              	.LVL22:
 821              	.L60:
 352:Generated_Source\PSoC5/cyPm.c ****     }
 822              		.loc 1 352 0
 823 00a4 94F83200 		ldrb	r0, [r4, #50]	@ zero_extendqisi2
 824 00a8 FFF7FEFF 		bl	CyMasterClk_SetSource
 825              	.LVL23:
 826              	.L57:
 356:Generated_Source\PSoC5/cyPm.c ****         (CY_IMO_FREQ_24MHZ == cyPmImoFreqMhz2Reg[cyPmClockBackup.imoFreq]))
 827              		.loc 1 356 0
 828 00ac 94F83430 		ldrb	r3, [r4, #52]	@ zero_extendqisi2
 829 00b0 5806     		lsls	r0, r3, #25
 830 00b2 0CD5     		bpl	.L61
 357:Generated_Source\PSoC5/cyPm.c ****     {
 831              		.loc 1 357 0 discriminator 1
 832 00b4 4D4B     		ldr	r3, .L90+4
 833 00b6 02AA     		add	r2, sp, #8
 834 00b8 93F83330 		ldrb	r3, [r3, #51]	@ zero_extendqisi2
 835 00bc 1344     		add	r3, r3, r2
 356:Generated_Source\PSoC5/cyPm.c ****         (CY_IMO_FREQ_24MHZ == cyPmImoFreqMhz2Reg[cyPmClockBackup.imoFreq]))
 836              		.loc 1 356 0 discriminator 1
 837 00be 13F8083C 		ldrb	r3, [r3, #-8]	@ zero_extendqisi2
 838 00c2 032B     		cmp	r3, #3
 839 00c4 03D1     		bne	.L61
 360:Generated_Source\PSoC5/cyPm.c ****     }
 840              		.loc 1 360 0
 841 00c6 0820     		movs	r0, #8
 842 00c8 FFF7FEFF 		bl	CyIMO_SetFreq
 843              	.LVL24:
 844 00cc 13E0     		b	.L62
 845              	.L61:
 365:Generated_Source\PSoC5/cyPm.c **** 
 846              		.loc 1 365 0
 847 00ce 94F83330 		ldrb	r3, [r4, #51]	@ zero_extendqisi2
 848 00d2 02AA     		add	r2, sp, #8
 849 00d4 1344     		add	r3, r3, r2
 850 00d6 13F8080C 		ldrb	r0, [r3, #-8]	@ zero_extendqisi2
 851 00da FFF7FEFF 		bl	CyIMO_SetFreq
 852              	.LVL25:
 367:Generated_Source\PSoC5/cyPm.c ****         {
 853              		.loc 1 367 0
 854 00de 94F83430 		ldrb	r3, [r4, #52]	@ zero_extendqisi2
 855 00e2 13F0400F 		tst	r3, #64
 856 00e6 424B     		ldr	r3, .L90+8
 369:Generated_Source\PSoC5/cyPm.c ****         }
 857              		.loc 1 369 0
 858 00e8 1A78     		ldrb	r2, [r3]	@ zero_extendqisi2
 859 00ea 14BF     		ite	ne
 860 00ec 42F04002 		orrne	r2, r2, #64
 373:Generated_Source\PSoC5/cyPm.c ****         }
 861              		.loc 1 373 0
 862 00f0 02F0BF02 		andeq	r2, r2, #191
 863 00f4 1A70     		strb	r2, [r3]
ARM GAS  C:\Users\aupen\AppData\Local\Temp\cct0TTf9.s 			page 50


 864              	.L62:
 378:Generated_Source\PSoC5/cyPm.c ****        (0u == (CY_PM_ACT_CFG0_IMO & CY_PM_ACT_CFG0_REG)))
 865              		.loc 1 378 0
 866 00f6 94F83630 		ldrb	r3, [r4, #54]	@ zero_extendqisi2
 867 00fa 012B     		cmp	r3, #1
 868 00fc 08D1     		bne	.L64
 379:Generated_Source\PSoC5/cyPm.c ****     {
 869              		.loc 1 379 0 discriminator 1
 870 00fe 404B     		ldr	r3, .L90+24
 871 0100 1B78     		ldrb	r3, [r3]	@ zero_extendqisi2
 378:Generated_Source\PSoC5/cyPm.c ****        (0u == (CY_PM_ACT_CFG0_IMO & CY_PM_ACT_CFG0_REG)))
 872              		.loc 1 378 0 discriminator 1
 873 0102 03F01003 		and	r3, r3, #16
 874 0106 03F0FF00 		and	r0, r3, #255
 875 010a 0BB9     		cbnz	r3, .L64
 382:Generated_Source\PSoC5/cyPm.c ****     }
 876              		.loc 1 382 0
 877 010c FFF7FEFF 		bl	CyIMO_Start
 878              	.LVL26:
 879              	.L64:
 386:Generated_Source\PSoC5/cyPm.c **** 
 880              		.loc 1 386 0
 881 0110 94F83700 		ldrb	r0, [r4, #55]	@ zero_extendqisi2
 882 0114 FFF7FEFF 		bl	CyIMO_SetSource
 883              	.LVL27:
 389:Generated_Source\PSoC5/cyPm.c ****     {
 884              		.loc 1 389 0
 885 0118 94F83930 		ldrb	r3, [r4, #57]	@ zero_extendqisi2
 886 011c 012B     		cmp	r3, #1
 887 011e 01D1     		bne	.L65
 391:Generated_Source\PSoC5/cyPm.c ****     }
 888              		.loc 1 391 0
 889 0120 FFF7FEFF 		bl	CyIMO_EnableDoubler
 890              	.LVL28:
 891              	.L65:
 395:Generated_Source\PSoC5/cyPm.c ****     {
 892              		.loc 1 395 0
 893 0124 4FF04022 		mov	r2, #1073758208
 894 0128 1178     		ldrb	r1, [r2]	@ zero_extendqisi2
 895 012a 94F83830 		ldrb	r3, [r4, #56]	@ zero_extendqisi2
 896 012e 01F03001 		and	r1, r1, #48
 897 0132 9942     		cmp	r1, r3
 397:Generated_Source\PSoC5/cyPm.c ****                                 cyPmClockBackup.clkImoSrc;
 898              		.loc 1 397 0
 899 0134 1FBF     		itttt	ne
 900 0136 1178     		ldrbne	r1, [r2]	@ zero_extendqisi2
 901 0138 01F0CF01 		andne	r1, r1, #207
 902 013c 0B43     		orrne	r3, r3, r1
 903 013e 1370     		strbne	r3, [r2]
 403:Generated_Source\PSoC5/cyPm.c ****     {
 904              		.loc 1 403 0
 905 0140 94F83E30 		ldrb	r3, [r4, #62]	@ zero_extendqisi2
 906 0144 012B     		cmp	r3, #1
 907 0146 04D0     		beq	.L67
 908              	.L71:
 451:Generated_Source\PSoC5/cyPm.c ****        (CY_PM_MASTER_CLK_SRC_PLL == cyPmClockBackup.masterClkSrc))
 909              		.loc 1 451 0
ARM GAS  C:\Users\aupen\AppData\Local\Temp\cct0TTf9.s 			page 51


 910 0148 94F83230 		ldrb	r3, [r4, #50]	@ zero_extendqisi2
 911 014c 012B     		cmp	r3, #1
 912 014e 25D8     		bhi	.L69
 913 0150 17E0     		b	.L89
 914              	.L67:
 418:Generated_Source\PSoC5/cyPm.c **** 
 915              		.loc 1 418 0
 916 0152 2C4E     		ldr	r6, .L90+28
 414:Generated_Source\PSoC5/cyPm.c **** 
 917              		.loc 1 414 0
 918 0154 0020     		movs	r0, #0
 426:Generated_Source\PSoC5/cyPm.c ****                (0u != (CY_PM_FASTCLK_PLL_SR_REG & CY_PM_FASTCLK_PLL_LOCKED)))
 919              		.loc 1 426 0
 920 0156 3746     		mov	r7, r6
 414:Generated_Source\PSoC5/cyPm.c **** 
 921              		.loc 1 414 0
 922 0158 FFF7FEFF 		bl	CyPLL_OUT_Start
 923              	.LVL29:
 417:Generated_Source\PSoC5/cyPm.c ****         (void) CY_PM_FASTCLK_PLL_SR_REG;
 924              		.loc 1 417 0
 925 015c 5020     		movs	r0, #80
 926 015e FFF7FEFF 		bl	CyDelayUs
 927              	.LVL30:
 418:Generated_Source\PSoC5/cyPm.c **** 
 928              		.loc 1 418 0
 929 0162 3378     		ldrb	r3, [r6]	@ zero_extendqisi2
 930              	.LVL31:
 931 0164 AB25     		movs	r5, #171
 932              	.LVL32:
 933              	.L72:
 423:Generated_Source\PSoC5/cyPm.c **** 
 934              		.loc 1 423 0
 935 0166 0120     		movs	r0, #1
 936 0168 FFF7FEFF 		bl	CyDelayUs
 937              	.LVL33:
 426:Generated_Source\PSoC5/cyPm.c ****                (0u != (CY_PM_FASTCLK_PLL_SR_REG & CY_PM_FASTCLK_PLL_LOCKED)))
 938              		.loc 1 426 0
 939 016c 3378     		ldrb	r3, [r6]	@ zero_extendqisi2
 940 016e D907     		lsls	r1, r3, #31
 941 0170 02D5     		bpl	.L70
 427:Generated_Source\PSoC5/cyPm.c ****             {
 942              		.loc 1 427 0 discriminator 1
 943 0172 3B78     		ldrb	r3, [r7]	@ zero_extendqisi2
 426:Generated_Source\PSoC5/cyPm.c ****                (0u != (CY_PM_FASTCLK_PLL_SR_REG & CY_PM_FASTCLK_PLL_LOCKED)))
 944              		.loc 1 426 0 discriminator 1
 945 0174 DA07     		lsls	r2, r3, #31
 946 0176 E7D4     		bmi	.L71
 947              	.L70:
 948              	.LVL34:
 949 0178 013D     		subs	r5, r5, #1
 950              	.LVL35:
 951 017a ADB2     		uxth	r5, r5
 421:Generated_Source\PSoC5/cyPm.c ****         {
 952              		.loc 1 421 0 discriminator 2
 953 017c 002D     		cmp	r5, #0
 954 017e F2D1     		bne	.L72
 955 0180 E2E7     		b	.L71
ARM GAS  C:\Users\aupen\AppData\Local\Temp\cct0TTf9.s 			page 52


 956              	.L89:
 455:Generated_Source\PSoC5/cyPm.c ****         {
 957              		.loc 1 455 0
 958 0182 1E4B     		ldr	r3, .L90+20
 959 0184 194A     		ldr	r2, .L90+4
 960 0186 1B78     		ldrb	r3, [r3]	@ zero_extendqisi2
 961 0188 92F83A00 		ldrb	r0, [r2, #58]	@ zero_extendqisi2
 962 018c 8342     		cmp	r3, r0
 963 018e 01D0     		beq	.L73
 457:Generated_Source\PSoC5/cyPm.c ****         }
 964              		.loc 1 457 0
 965 0190 FFF7FEFF 		bl	CyMasterClk_SetDivider
 966              	.LVL36:
 967              	.L73:
 461:Generated_Source\PSoC5/cyPm.c ****     }
 968              		.loc 1 461 0
 969 0194 94F83200 		ldrb	r0, [r4, #50]	@ zero_extendqisi2
 970 0198 FFF7FEFF 		bl	CyMasterClk_SetSource
 971              	.LVL37:
 972              	.L69:
 465:Generated_Source\PSoC5/cyPm.c ****        (0u != (CY_PM_ACT_CFG0_IMO & CY_PM_ACT_CFG0_REG)))
 973              		.loc 1 465 0
 974 019c 94F83630 		ldrb	r3, [r4, #54]	@ zero_extendqisi2
 975 01a0 2BB9     		cbnz	r3, .L74
 466:Generated_Source\PSoC5/cyPm.c ****     {
 976              		.loc 1 466 0 discriminator 1
 977 01a2 174B     		ldr	r3, .L90+24
 978 01a4 1B78     		ldrb	r3, [r3]	@ zero_extendqisi2
 465:Generated_Source\PSoC5/cyPm.c ****        (0u != (CY_PM_ACT_CFG0_IMO & CY_PM_ACT_CFG0_REG)))
 979              		.loc 1 465 0 discriminator 1
 980 01a6 DB06     		lsls	r3, r3, #27
 981 01a8 01D5     		bpl	.L74
 468:Generated_Source\PSoC5/cyPm.c ****     }
 982              		.loc 1 468 0
 983 01aa FFF7FEFF 		bl	CyIMO_Stop
 984              	.LVL38:
 985              	.L74:
 472:Generated_Source\PSoC5/cyPm.c ****     clkBusDivTmp |= CY_PM_CLK_BUS_LSB_DIV_REG;
 986              		.loc 1 472 0
 987 01ae 164B     		ldr	r3, .L90+32
 474:Generated_Source\PSoC5/cyPm.c ****     {
 988              		.loc 1 474 0
 989 01b0 A08F     		ldrh	r0, [r4, #60]
 472:Generated_Source\PSoC5/cyPm.c ****     clkBusDivTmp |= CY_PM_CLK_BUS_LSB_DIV_REG;
 990              		.loc 1 472 0
 991 01b2 1A78     		ldrb	r2, [r3]	@ zero_extendqisi2
 992              	.LVL39:
 473:Generated_Source\PSoC5/cyPm.c ****     if(cyPmClockBackup.clkBusDiv != clkBusDivTmp)
 993              		.loc 1 473 0
 994 01b4 013B     		subs	r3, r3, #1
 995 01b6 1B78     		ldrb	r3, [r3]	@ zero_extendqisi2
 996              	.LVL40:
 474:Generated_Source\PSoC5/cyPm.c ****     {
 997              		.loc 1 474 0
 998 01b8 43EA0223 		orr	r3, r3, r2, lsl #8
 999              	.LVL41:
 1000 01bc 8342     		cmp	r3, r0
ARM GAS  C:\Users\aupen\AppData\Local\Temp\cct0TTf9.s 			page 53


 1001 01be 01D0     		beq	.L75
 476:Generated_Source\PSoC5/cyPm.c ****     }
 1002              		.loc 1 476 0
 1003 01c0 FFF7FEFF 		bl	CyBusClk_SetDivider
 1004              	.LVL42:
 1005              	.L75:
 480:Generated_Source\PSoC5/cyPm.c ****                            cyPmClockBackup.flashWaitCycles);
 1006              		.loc 1 480 0
 1007 01c4 1149     		ldr	r1, .L90+36
 1008 01c6 0B78     		ldrb	r3, [r1]	@ zero_extendqisi2
 1009 01c8 03F03F02 		and	r2, r3, #63
 1010 01cc 94F83530 		ldrb	r3, [r4, #53]	@ zero_extendqisi2
 1011 01d0 1343     		orrs	r3, r3, r2
 1012 01d2 0B70     		strb	r3, [r1]
 484:Generated_Source\PSoC5/cyPm.c ****     CY_PM_ACT_CFG2_REG = cyPmClockBackup.enClkD;
 1013              		.loc 1 484 0
 1014 01d4 94F83020 		ldrb	r2, [r4, #48]	@ zero_extendqisi2
 1015 01d8 0D4B     		ldr	r3, .L90+40
 1016 01da 1A70     		strb	r2, [r3]
 485:Generated_Source\PSoC5/cyPm.c **** }
 1017              		.loc 1 485 0
 1018 01dc 94F83120 		ldrb	r2, [r4, #49]	@ zero_extendqisi2
 1019 01e0 5A70     		strb	r2, [r3, #1]
 486:Generated_Source\PSoC5/cyPm.c **** 
 1020              		.loc 1 486 0
 1021 01e2 03B0     		add	sp, sp, #12
 1022              		.cfi_def_cfa_offset 28
 1023              		@ sp needed
 1024 01e4 BDE8F083 		pop	{r4, r5, r6, r7, r8, r9, pc}
 1025              	.L91:
 1026              		.align	2
 1027              	.L90:
 1028 01e8 00000000 		.word	.LANCHOR1
 1029 01ec 00000000 		.word	.LANCHOR0
 1030 01f0 00420040 		.word	1073758720
 1031 01f4 0B400040 		.word	1073758219
 1032 01f8 10420040 		.word	1073758736
 1033 01fc 04400040 		.word	1073758212
 1034 0200 A0430040 		.word	1073759136
 1035 0204 25420040 		.word	1073758757
 1036 0208 07400040 		.word	1073758215
 1037 020c 00480040 		.word	1073760256
 1038 0210 A1430040 		.word	1073759137
 1039              		.cfi_endproc
 1040              	.LFE1:
 1041              		.size	CyPmRestoreClocks, .-CyPmRestoreClocks
 1042              		.section	.text.CyPmAltAct,"ax",%progbits
 1043              		.align	1
 1044              		.global	CyPmAltAct
 1045              		.thumb
 1046              		.thumb_func
 1047              		.type	CyPmAltAct, %function
 1048              	CyPmAltAct:
 1049              	.LFB2:
 626:Generated_Source\PSoC5/cyPm.c ****     #if(CY_PSOC5)
 1050              		.loc 1 626 0
 1051              		.cfi_startproc
ARM GAS  C:\Users\aupen\AppData\Local\Temp\cct0TTf9.s 			page 54


 1052              		@ args = 0, pretend = 0, frame = 0
 1053              		@ frame_needed = 0, uses_anonymous_args = 0
 1054              	.LVL43:
 1055 0000 30B5     		push	{r4, r5, lr}
 1056              		.cfi_def_cfa_offset 12
 1057              		.cfi_offset 4, -12
 1058              		.cfi_offset 5, -8
 1059              		.cfi_offset 14, -4
 677:Generated_Source\PSoC5/cyPm.c ****     CY_PM_WAKEUP_CFG0_REG = (uint8) (wakeupSource >> 4u);
 1060              		.loc 1 677 0
 1061 0002 124D     		ldr	r5, .L93
 1062 0004 124B     		ldr	r3, .L93+4
 1063 0006 2A78     		ldrb	r2, [r5]	@ zero_extendqisi2
 681:Generated_Source\PSoC5/cyPm.c ****     CY_PM_WAKEUP_CFG1_REG = (((uint8) wakeupSource) & CY_PM_WAKEUP_SRC_CMPS_MASK);
 1064              		.loc 1 681 0
 1065 0008 124C     		ldr	r4, .L93+8
 677:Generated_Source\PSoC5/cyPm.c ****     CY_PM_WAKEUP_CFG0_REG = (uint8) (wakeupSource >> 4u);
 1066              		.loc 1 677 0
 1067 000a 1A71     		strb	r2, [r3, #4]
 678:Generated_Source\PSoC5/cyPm.c **** 
 1068              		.loc 1 678 0
 1069 000c C1F30712 		ubfx	r2, r1, #4, #8
 1070 0010 2A70     		strb	r2, [r5]
 681:Generated_Source\PSoC5/cyPm.c ****     CY_PM_WAKEUP_CFG1_REG = (((uint8) wakeupSource) & CY_PM_WAKEUP_SRC_CMPS_MASK);
 1071              		.loc 1 681 0
 1072 0012 2278     		ldrb	r2, [r4]	@ zero_extendqisi2
 685:Generated_Source\PSoC5/cyPm.c ****     CY_PM_WAKEUP_CFG2_REG = ((uint8) ((wakeupSource >> 12u) & 0x01u));
 1073              		.loc 1 685 0
 1074 0014 1048     		ldr	r0, .L93+12
 1075              	.LVL44:
 681:Generated_Source\PSoC5/cyPm.c ****     CY_PM_WAKEUP_CFG1_REG = (((uint8) wakeupSource) & CY_PM_WAKEUP_SRC_CMPS_MASK);
 1076              		.loc 1 681 0
 1077 0016 5A71     		strb	r2, [r3, #5]
 682:Generated_Source\PSoC5/cyPm.c **** 
 1078              		.loc 1 682 0
 1079 0018 01F00F02 		and	r2, r1, #15
 1080 001c 2270     		strb	r2, [r4]
 685:Generated_Source\PSoC5/cyPm.c ****     CY_PM_WAKEUP_CFG2_REG = ((uint8) ((wakeupSource >> 12u) & 0x01u));
 1081              		.loc 1 685 0
 1082 001e 0278     		ldrb	r2, [r0]	@ zero_extendqisi2
 686:Generated_Source\PSoC5/cyPm.c **** 
 1083              		.loc 1 686 0
 1084 0020 C1F30031 		ubfx	r1, r1, #12, #1
 1085              	.LVL45:
 685:Generated_Source\PSoC5/cyPm.c ****     CY_PM_WAKEUP_CFG2_REG = ((uint8) ((wakeupSource >> 12u) & 0x01u));
 1086              		.loc 1 685 0
 1087 0024 9A71     		strb	r2, [r3, #6]
 686:Generated_Source\PSoC5/cyPm.c **** 
 1088              		.loc 1 686 0
 1089 0026 0170     		strb	r1, [r0]
 690:Generated_Source\PSoC5/cyPm.c **** 
