ARM GAS  C:\Users\aupen\AppData\Local\Temp\ccPo8kBl.s 			page 1


   1              		.syntax unified
   2              		.cpu cortex-m3
   3              		.fpu softvfp
   4              		.eabi_attribute 20, 1
   5              		.eabi_attribute 21, 1
   6              		.eabi_attribute 23, 3
   7              		.eabi_attribute 24, 1
   8              		.eabi_attribute 25, 1
   9              		.eabi_attribute 26, 1
  10              		.eabi_attribute 30, 4
  11              		.eabi_attribute 34, 1
  12              		.eabi_attribute 18, 4
  13              		.thumb
  14              		.syntax unified
  15              		.file	"first_move.c"
  16              		.text
  17              	.Ltext0:
  18              		.cfi_sections	.debug_frame
  19              		.section	.text.firstMoveRightLineArc,"ax",%progbits
  20              		.align	1
  21              		.global	firstMoveRightLineArc
  22              		.thumb
  23              		.thumb_func
  24              		.type	firstMoveRightLineArc, %function
  25              	firstMoveRightLineArc:
  26              	.LFB64:
  27              		.file 1 "first_move.c"
   1:first_move.c  **** /* ========================================
   2:first_move.c  ****  *
   3:first_move.c  ****  * Copyright YOUR COMPANY, THE YEAR
   4:first_move.c  ****  * All Rights Reserved
   5:first_move.c  ****  * UNPUBLISHED, LICENSED SOFTWARE.
   6:first_move.c  ****  *
   7:first_move.c  ****  * CONFIDENTIAL AND PROPRIETARY INFORMATION
   8:first_move.c  ****  * WHICH IS THE PROPERTY OF your company.
   9:first_move.c  ****  *
  10:first_move.c  ****  * ========================================
  11:first_move.c  **** */
  12:first_move.c  **** #include <project.h>
  13:first_move.c  **** #include "first_move.h"
  14:first_move.c  **** #include "sensors.h"
  15:first_move.c  **** #include "timer_time.h"
  16:first_move.c  **** #include "drive.h"
  17:first_move.c  **** #include "stdlib.h"
  18:first_move.c  **** 
  19:first_move.c  **** //=============================================================================
  20:first_move.c  **** // Private defines and typedefs
  21:first_move.c  **** //=============================================================================
  22:first_move.c  **** #define Rd_bits(value, mask)        ((value)&(mask))
  23:first_move.c  **** 
  24:first_move.c  **** #define SEARCH_PWM_L  25
  25:first_move.c  **** #define SEARCH_PWM_R  25
  26:first_move.c  **** #define TURN_PWM    40
  27:first_move.c  **** #define ATTACK_PWM  70
  28:first_move.c  **** 
  29:first_move.c  **** 
  30:first_move.c  **** void firstMoveTurnRight();
ARM GAS  C:\Users\aupen\AppData\Local\Temp\ccPo8kBl.s 			page 2


  31:first_move.c  **** void firstMoveTurnLeft();
  32:first_move.c  **** void firstMoveFastForward();
  33:first_move.c  **** void firstMoveDoubleFastForward();
  34:first_move.c  **** void firstMoveDriveToLine();
  35:first_move.c  **** void firstMoveDriveSlowToLine();
  36:first_move.c  **** 
  37:first_move.c  **** void firstMoveSelector(FirstMove_t firstMove)
  38:first_move.c  **** {
  39:first_move.c  ****     switch(firstMove)
  40:first_move.c  ****     {
  41:first_move.c  ****         case DEFAULT:
  42:first_move.c  ****             drive_forward(SEARCH_PWM_L, SEARCH_PWM_R);
  43:first_move.c  ****             CyDelay(50);
  44:first_move.c  ****         break;
  45:first_move.c  ****         case FAST_FORWARD:
  46:first_move.c  ****             firstMoveFastForward();
  47:first_move.c  ****         break;
  48:first_move.c  ****         case TURN_RIGHT_45:
  49:first_move.c  ****             firstMoveTurnRight();
  50:first_move.c  ****         break;
  51:first_move.c  ****         case TURN_LEFT_45:
  52:first_move.c  ****             firstMoveTurnLeft();
  53:first_move.c  ****         break;
  54:first_move.c  ****         case RIGHT_LINE_ARC:
  55:first_move.c  ****             firstMoveRightLineArc();
  56:first_move.c  ****         break;
  57:first_move.c  ****         case DOUBLE_FAST_FORWARD:
  58:first_move.c  ****             firstMoveDoubleFastForward();
  59:first_move.c  ****         break;
  60:first_move.c  ****         case DRIVE_TO_LINE:
  61:first_move.c  ****             firstMoveDriveToLine();
  62:first_move.c  ****         break;
  63:first_move.c  ****         case DRIVE_SLOW_TO_LINE:
  64:first_move.c  ****             firstMoveDriveSlowToLine();
  65:first_move.c  ****             break;
  66:first_move.c  ****         default:
  67:first_move.c  ****             drive_forward(SEARCH_PWM_L, SEARCH_PWM_R);
  68:first_move.c  ****         break;
  69:first_move.c  ****     }
  70:first_move.c  **** }
  71:first_move.c  **** 
  72:first_move.c  **** void firstMoveRightLineArc()
  73:first_move.c  **** {
  28              		.loc 1 73 0
  29              		.cfi_startproc
  30              		@ args = 0, pretend = 0, frame = 0
  31              		@ frame_needed = 0, uses_anonymous_args = 0
  32              		@ link register save eliminated.
  74:first_move.c  ****     //driveLineRight(1300);
  75:first_move.c  ****     //turn_left(50,70);
  76:first_move.c  ****     CyDelay(250);
  33              		.loc 1 76 0
  34 0000 FA20     		movs	r0, #250
  35 0002 FFF7FEBF 		b	CyDelay
  36              	.LVL0:
  37              		.cfi_endproc
  38              	.LFE64:
ARM GAS  C:\Users\aupen\AppData\Local\Temp\ccPo8kBl.s 			page 3


  39              		.size	firstMoveRightLineArc, .-firstMoveRightLineArc
  40              		.section	.text.firstMoveTurnRight,"ax",%progbits
  41              		.align	1
  42              		.global	firstMoveTurnRight
  43              		.thumb
  44              		.thumb_func
  45              		.type	firstMoveTurnRight, %function
  46              	firstMoveTurnRight:
  47              	.LFB65:
  77:first_move.c  **** }
  78:first_move.c  **** 
  79:first_move.c  **** void firstMoveTurnRight()
  80:first_move.c  **** {
  48              		.loc 1 80 0
  49              		.cfi_startproc
  50              		@ args = 0, pretend = 0, frame = 0
  51              		@ frame_needed = 0, uses_anonymous_args = 0
  52 0000 08B5     		push	{r3, lr}
  53              		.cfi_def_cfa_offset 8
  54              		.cfi_offset 3, -8
  55              		.cfi_offset 14, -4
  81:first_move.c  ****     turn_right(40,40);
  56              		.loc 1 81 0
  57 0002 2821     		movs	r1, #40
  58 0004 0846     		mov	r0, r1
  59 0006 FFF7FEFF 		bl	turn_right
  60              	.LVL1:
  82:first_move.c  ****     CyDelay(50);    
  83:first_move.c  **** }
  61              		.loc 1 83 0
  62 000a BDE80840 		pop	{r3, lr}
  63              		.cfi_restore 14
  64              		.cfi_restore 3
  65              		.cfi_def_cfa_offset 0
  82:first_move.c  ****     CyDelay(50);    
  66              		.loc 1 82 0
  67 000e 3220     		movs	r0, #50
  68 0010 FFF7FEBF 		b	CyDelay
  69              	.LVL2:
  70              		.cfi_endproc
  71              	.LFE65:
  72              		.size	firstMoveTurnRight, .-firstMoveTurnRight
  73              		.section	.text.firstMoveTurnLeft,"ax",%progbits
  74              		.align	1
  75              		.global	firstMoveTurnLeft
  76              		.thumb
  77              		.thumb_func
  78              		.type	firstMoveTurnLeft, %function
  79              	firstMoveTurnLeft:
  80              	.LFB66:
  84:first_move.c  **** 
  85:first_move.c  **** void firstMoveTurnLeft()
  86:first_move.c  **** {
  81              		.loc 1 86 0
  82              		.cfi_startproc
  83              		@ args = 0, pretend = 0, frame = 0
  84              		@ frame_needed = 0, uses_anonymous_args = 0
ARM GAS  C:\Users\aupen\AppData\Local\Temp\ccPo8kBl.s 			page 4


  85 0000 08B5     		push	{r3, lr}
  86              		.cfi_def_cfa_offset 8
  87              		.cfi_offset 3, -8
  88              		.cfi_offset 14, -4
  87:first_move.c  ****     turn_left(40,40);
  89              		.loc 1 87 0
  90 0002 2821     		movs	r1, #40
  91 0004 0846     		mov	r0, r1
  92 0006 FFF7FEFF 		bl	turn_left
  93              	.LVL3:
  88:first_move.c  ****     CyDelay(50);    
  89:first_move.c  **** }
  94              		.loc 1 89 0
  95 000a BDE80840 		pop	{r3, lr}
  96              		.cfi_restore 14
  97              		.cfi_restore 3
  98              		.cfi_def_cfa_offset 0
  88:first_move.c  ****     CyDelay(50);    
  99              		.loc 1 88 0
 100 000e 3220     		movs	r0, #50
 101 0010 FFF7FEBF 		b	CyDelay
 102              	.LVL4:
 103              		.cfi_endproc
 104              	.LFE66:
 105              		.size	firstMoveTurnLeft, .-firstMoveTurnLeft
 106              		.section	.text.firstMoveFastForward,"ax",%progbits
 107              		.align	1
 108              		.global	firstMoveFastForward
 109              		.thumb
 110              		.thumb_func
 111              		.type	firstMoveFastForward, %function
 112              	firstMoveFastForward:
 113              	.LFB67:
  90:first_move.c  **** void firstMoveFastForward()
  91:first_move.c  **** {
 114              		.loc 1 91 0
 115              		.cfi_startproc
 116              		@ args = 0, pretend = 0, frame = 0
 117              		@ frame_needed = 0, uses_anonymous_args = 0
  92:first_move.c  ****     drive_forward(ATTACK_PWM, ATTACK_PWM);
 118              		.loc 1 92 0
 119 0000 4621     		movs	r1, #70
  91:first_move.c  ****     drive_forward(ATTACK_PWM, ATTACK_PWM);
 120              		.loc 1 91 0
 121 0002 08B5     		push	{r3, lr}
 122              		.cfi_def_cfa_offset 8
 123              		.cfi_offset 3, -8
 124              		.cfi_offset 14, -4
 125              		.loc 1 92 0
 126 0004 0846     		mov	r0, r1
 127 0006 FFF7FEFF 		bl	drive_forward
 128              	.LVL5:
  93:first_move.c  ****     CyDelay(280);
 129              		.loc 1 93 0
 130 000a 4FF48C70 		mov	r0, #280
 131 000e FFF7FEFF 		bl	CyDelay
 132              	.LVL6:
ARM GAS  C:\Users\aupen\AppData\Local\Temp\ccPo8kBl.s 			page 5


  94:first_move.c  ****     brake();
 133              		.loc 1 94 0
 134 0012 FFF7FEFF 		bl	brake
 135              	.LVL7:
  95:first_move.c  ****     CyDelay(30);
 136              		.loc 1 95 0
 137 0016 1E20     		movs	r0, #30
 138 0018 FFF7FEFF 		bl	CyDelay
 139              	.LVL8:
  96:first_move.c  ****     drive_forward(0,0);   
  97:first_move.c  **** }
 140              		.loc 1 97 0
 141 001c BDE80840 		pop	{r3, lr}
 142              		.cfi_restore 14
 143              		.cfi_restore 3
 144              		.cfi_def_cfa_offset 0
  96:first_move.c  ****     drive_forward(0,0);   
 145              		.loc 1 96 0
 146 0020 0021     		movs	r1, #0
 147 0022 0846     		mov	r0, r1
 148 0024 FFF7FEBF 		b	drive_forward
 149              	.LVL9:
 150              		.cfi_endproc
 151              	.LFE67:
 152              		.size	firstMoveFastForward, .-firstMoveFastForward
 153              		.section	.text.firstMoveDoubleFastForward,"ax",%progbits
 154              		.align	1
 155              		.global	firstMoveDoubleFastForward
 156              		.thumb
 157              		.thumb_func
 158              		.type	firstMoveDoubleFastForward, %function
 159              	firstMoveDoubleFastForward:
 160              	.LFB68:
  98:first_move.c  **** 
  99:first_move.c  **** void firstMoveDoubleFastForward()
 100:first_move.c  **** {
 161              		.loc 1 100 0
 162              		.cfi_startproc
 163              		@ args = 0, pretend = 0, frame = 0
 164              		@ frame_needed = 0, uses_anonymous_args = 0
 101:first_move.c  ****     drive_forward(ATTACK_PWM, ATTACK_PWM);
 165              		.loc 1 101 0
 166 0000 4621     		movs	r1, #70
 100:first_move.c  ****     drive_forward(ATTACK_PWM, ATTACK_PWM);
 167              		.loc 1 100 0
 168 0002 08B5     		push	{r3, lr}
 169              		.cfi_def_cfa_offset 8
 170              		.cfi_offset 3, -8
 171              		.cfi_offset 14, -4
 172              		.loc 1 101 0
 173 0004 0846     		mov	r0, r1
 174 0006 FFF7FEFF 		bl	drive_forward
 175              	.LVL10:
 102:first_move.c  ****     CyDelay(450);
 176              		.loc 1 102 0
 177 000a 4FF4E170 		mov	r0, #450
 178 000e FFF7FEFF 		bl	CyDelay
ARM GAS  C:\Users\aupen\AppData\Local\Temp\ccPo8kBl.s 			page 6


 179              	.LVL11:
 103:first_move.c  ****     brake();
 180              		.loc 1 103 0
 181 0012 FFF7FEFF 		bl	brake
 182              	.LVL12:
 104:first_move.c  ****     CyDelay(30);
 183              		.loc 1 104 0
 184 0016 1E20     		movs	r0, #30
 185 0018 FFF7FEFF 		bl	CyDelay
 186              	.LVL13:
 105:first_move.c  ****     drive_forward(ATTACK_PWM, ATTACK_PWM);
 187              		.loc 1 105 0
 188 001c 4621     		movs	r1, #70
 189 001e 0846     		mov	r0, r1
 190 0020 FFF7FEFF 		bl	drive_forward
 191              	.LVL14:
 106:first_move.c  ****     CyDelay(40);
 192              		.loc 1 106 0
 193 0024 2820     		movs	r0, #40
 194 0026 FFF7FEFF 		bl	CyDelay
 195              	.LVL15:
 107:first_move.c  ****     brake();
 196              		.loc 1 107 0
 197 002a FFF7FEFF 		bl	brake
 198              	.LVL16:
 108:first_move.c  ****     CyDelay(30);
 199              		.loc 1 108 0
 200 002e 1E20     		movs	r0, #30
 201 0030 FFF7FEFF 		bl	CyDelay
 202              	.LVL17:
 109:first_move.c  ****     drive_forward(0,0);   
 110:first_move.c  **** }
 203              		.loc 1 110 0
 204 0034 BDE80840 		pop	{r3, lr}
 205              		.cfi_restore 14
 206              		.cfi_restore 3
 207              		.cfi_def_cfa_offset 0
 109:first_move.c  ****     drive_forward(0,0);   
 208              		.loc 1 109 0
 209 0038 0021     		movs	r1, #0
 210 003a 0846     		mov	r0, r1
 211 003c FFF7FEBF 		b	drive_forward
 212              	.LVL18:
 213              		.cfi_endproc
 214              	.LFE68:
 215              		.size	firstMoveDoubleFastForward, .-firstMoveDoubleFastForward
 216              		.section	.text.firstMoveDriveToLine,"ax",%progbits
 217              		.align	1
 218              		.global	firstMoveDriveToLine
 219              		.thumb
 220              		.thumb_func
 221              		.type	firstMoveDriveToLine, %function
 222              	firstMoveDriveToLine:
 223              	.LFB69:
 111:first_move.c  **** 
 112:first_move.c  **** void firstMoveDriveToLine()
 113:first_move.c  **** {
ARM GAS  C:\Users\aupen\AppData\Local\Temp\ccPo8kBl.s 			page 7


 224              		.loc 1 113 0
 225              		.cfi_startproc
 226              		@ args = 0, pretend = 0, frame = 0
 227              		@ frame_needed = 0, uses_anonymous_args = 0
 114:first_move.c  ****     drive_forward(ATTACK_PWM, ATTACK_PWM);
 228              		.loc 1 114 0
 229 0000 4621     		movs	r1, #70
 230 0002 0846     		mov	r0, r1
 113:first_move.c  ****     drive_forward(ATTACK_PWM, ATTACK_PWM);
 231              		.loc 1 113 0
 232 0004 08B5     		push	{r3, lr}
 233              		.cfi_def_cfa_offset 8
 234              		.cfi_offset 3, -8
 235              		.cfi_offset 14, -4
 236              		.loc 1 114 0
 237 0006 FFF7FEFF 		bl	drive_forward
 238              	.LVL19:
 115:first_move.c  ****     CyDelay(300);
 239              		.loc 1 115 0
 240 000a 4FF49670 		mov	r0, #300
 241 000e FFF7FEFF 		bl	CyDelay
 242              	.LVL20:
 243              	.L7:
 116:first_move.c  ****     while(LineSensRead() == 0){
 244              		.loc 1 116 0
 245 0012 FFF7FEFF 		bl	LineSensRead
 246              	.LVL21:
 247 0016 20B9     		cbnz	r0, .L10
 117:first_move.c  ****         drive_forward(40,40);
 248              		.loc 1 117 0
 249 0018 2821     		movs	r1, #40
 250 001a 0846     		mov	r0, r1
 251 001c FFF7FEFF 		bl	drive_forward
 252              	.LVL22:
 253 0020 F7E7     		b	.L7
 254              	.L10:
 118:first_move.c  ****     }   
 119:first_move.c  **** }
 255              		.loc 1 119 0
 256 0022 08BD     		pop	{r3, pc}
 257              		.cfi_endproc
 258              	.LFE69:
 259              		.size	firstMoveDriveToLine, .-firstMoveDriveToLine
 260              		.section	.text.firstMoveDriveSlowToLine,"ax",%progbits
 261              		.align	1
 262              		.global	firstMoveDriveSlowToLine
 263              		.thumb
 264              		.thumb_func
 265              		.type	firstMoveDriveSlowToLine, %function
 266              	firstMoveDriveSlowToLine:
 267              	.LFB70:
 120:first_move.c  **** 
 121:first_move.c  **** void firstMoveDriveSlowToLine()
 122:first_move.c  **** {
 268              		.loc 1 122 0
 269              		.cfi_startproc
 270              		@ args = 0, pretend = 0, frame = 0
ARM GAS  C:\Users\aupen\AppData\Local\Temp\ccPo8kBl.s 			page 8


 271              		@ frame_needed = 0, uses_anonymous_args = 0
 123:first_move.c  ****     drive_forward(30, 30);
 272              		.loc 1 123 0
 273 0000 1E21     		movs	r1, #30
 274 0002 0846     		mov	r0, r1
 122:first_move.c  ****     drive_forward(30, 30);
 275              		.loc 1 122 0
 276 0004 08B5     		push	{r3, lr}
 277              		.cfi_def_cfa_offset 8
 278              		.cfi_offset 3, -8
 279              		.cfi_offset 14, -4
 280              		.loc 1 123 0
 281 0006 FFF7FEFF 		bl	drive_forward
 282              	.LVL23:
 124:first_move.c  ****     CyDelay(300);
 283              		.loc 1 124 0
 284 000a 4FF49670 		mov	r0, #300
 285 000e FFF7FEFF 		bl	CyDelay
 286              	.LVL24:
 287              	.L12:
 125:first_move.c  ****     while(LineSensRead() == 0){
 288              		.loc 1 125 0
 289 0012 FFF7FEFF 		bl	LineSensRead
 290              	.LVL25:
 291 0016 20B9     		cbnz	r0, .L14
 126:first_move.c  ****         drive_forward(25,25);
 292              		.loc 1 126 0
 293 0018 1921     		movs	r1, #25
 294 001a 0846     		mov	r0, r1
 295 001c FFF7FEFF 		bl	drive_forward
 296              	.LVL26:
 297 0020 F7E7     		b	.L12
 298              	.L14:
 127:first_move.c  ****     }   
 128:first_move.c  **** }
 299              		.loc 1 128 0
 300 0022 08BD     		pop	{r3, pc}
 301              		.cfi_endproc
 302              	.LFE70:
 303              		.size	firstMoveDriveSlowToLine, .-firstMoveDriveSlowToLine
 304              		.section	.text.firstMoveSelector,"ax",%progbits
 305              		.align	1
 306              		.global	firstMoveSelector
 307              		.thumb
 308              		.thumb_func
 309              		.type	firstMoveSelector, %function
 310              	firstMoveSelector:
 311              	.LFB63:
  38:first_move.c  ****     switch(firstMove)
 312              		.loc 1 38 0
 313              		.cfi_startproc
 314              		@ args = 0, pretend = 0, frame = 0
 315              		@ frame_needed = 0, uses_anonymous_args = 0
 316              	.LVL27:
 317 0000 08B5     		push	{r3, lr}
 318              		.cfi_def_cfa_offset 8
 319              		.cfi_offset 3, -8
ARM GAS  C:\Users\aupen\AppData\Local\Temp\ccPo8kBl.s 			page 9


 320              		.cfi_offset 14, -4
  39:first_move.c  ****     {
 321              		.loc 1 39 0
 322 0002 0728     		cmp	r0, #7
 323 0004 2AD8     		bhi	.L16
 324 0006 DFE800F0 		tbb	[pc, r0]
 325              	.L18:
 326 000a 04       		.byte	(.L17-.L18)/2
 327 000b 0D       		.byte	(.L19-.L18)/2
 328 000c 15       		.byte	(.L20-.L18)/2
 329 000d 11       		.byte	(.L21-.L18)/2
 330 000e 19       		.byte	(.L22-.L18)/2
 331 000f 1D       		.byte	(.L23-.L18)/2
 332 0010 21       		.byte	(.L24-.L18)/2
 333 0011 25       		.byte	(.L25-.L18)/2
 334              		.p2align 1
 335              	.L17:
  42:first_move.c  ****             CyDelay(50);
 336              		.loc 1 42 0
 337 0012 1921     		movs	r1, #25
 338 0014 0846     		mov	r0, r1
 339              	.LVL28:
 340 0016 FFF7FEFF 		bl	drive_forward
 341              	.LVL29:
  70:first_move.c  **** 
 342              		.loc 1 70 0
 343 001a BDE80840 		pop	{r3, lr}
 344              		.cfi_remember_state
 345              		.cfi_restore 14
 346              		.cfi_restore 3
 347              		.cfi_def_cfa_offset 0
  43:first_move.c  ****         break;
 348              		.loc 1 43 0
 349 001e 3220     		movs	r0, #50
 350 0020 FFF7FEBF 		b	CyDelay
 351              	.LVL30:
 352              	.L19:
 353              		.cfi_restore_state
  70:first_move.c  **** 
 354              		.loc 1 70 0
 355 0024 BDE80840 		pop	{r3, lr}
 356              		.cfi_remember_state
 357              		.cfi_restore 14
 358              		.cfi_restore 3
 359              		.cfi_def_cfa_offset 0
  46:first_move.c  ****         break;
 360              		.loc 1 46 0
 361 0028 FFF7FEBF 		b	firstMoveFastForward
 362              	.LVL31:
 363              	.L21:
 364              		.cfi_restore_state
  70:first_move.c  **** 
 365              		.loc 1 70 0
 366 002c BDE80840 		pop	{r3, lr}
 367              		.cfi_remember_state
 368              		.cfi_restore 14
 369              		.cfi_restore 3
ARM GAS  C:\Users\aupen\AppData\Local\Temp\ccPo8kBl.s 			page 10


 370              		.cfi_def_cfa_offset 0
  49:first_move.c  ****         break;
 371              		.loc 1 49 0
 372 0030 FFF7FEBF 		b	firstMoveTurnRight
 373              	.LVL32:
 374              	.L20:
 375              		.cfi_restore_state
  70:first_move.c  **** 
 376              		.loc 1 70 0
 377 0034 BDE80840 		pop	{r3, lr}
 378              		.cfi_remember_state
 379              		.cfi_restore 14
 380              		.cfi_restore 3
 381              		.cfi_def_cfa_offset 0
  52:first_move.c  ****         break;
 382              		.loc 1 52 0
 383 0038 FFF7FEBF 		b	firstMoveTurnLeft
 384              	.LVL33:
 385              	.L22:
 386              		.cfi_restore_state
  70:first_move.c  **** 
 387              		.loc 1 70 0
 388 003c BDE80840 		pop	{r3, lr}
 389              		.cfi_remember_state
 390              		.cfi_restore 14
 391              		.cfi_restore 3
 392              		.cfi_def_cfa_offset 0
  55:first_move.c  ****         break;
 393              		.loc 1 55 0
 394 0040 FFF7FEBF 		b	firstMoveRightLineArc
 395              	.LVL34:
 396              	.L23:
 397              		.cfi_restore_state
  70:first_move.c  **** 
 398              		.loc 1 70 0
 399 0044 BDE80840 		pop	{r3, lr}
 400              		.cfi_remember_state
 401              		.cfi_restore 14
 402              		.cfi_restore 3
 403              		.cfi_def_cfa_offset 0
  58:first_move.c  ****         break;
 404              		.loc 1 58 0
 405 0048 FFF7FEBF 		b	firstMoveDoubleFastForward
 406              	.LVL35:
 407              	.L24:
 408              		.cfi_restore_state
  70:first_move.c  **** 
 409              		.loc 1 70 0
 410 004c BDE80840 		pop	{r3, lr}
 411              		.cfi_remember_state
 412              		.cfi_restore 14
 413              		.cfi_restore 3
 414              		.cfi_def_cfa_offset 0
  61:first_move.c  ****         break;
 415              		.loc 1 61 0
 416 0050 FFF7FEBF 		b	firstMoveDriveToLine
 417              	.LVL36:
ARM GAS  C:\Users\aupen\AppData\Local\Temp\ccPo8kBl.s 			page 11


 418              	.L25:
 419              		.cfi_restore_state
  70:first_move.c  **** 
 420              		.loc 1 70 0
 421 0054 BDE80840 		pop	{r3, lr}
 422              		.cfi_restore 14
 423              		.cfi_restore 3
 424              		.cfi_def_cfa_offset 0
  64:first_move.c  ****             break;
 425              		.loc 1 64 0
 426 0058 FFF7FEBF 		b	firstMoveDriveSlowToLine
 427              	.LVL37:
 428              	.L16:
  67:first_move.c  ****         break;
 429              		.loc 1 67 0
 430 005c 1921     		movs	r1, #25
 431 005e 0846     		mov	r0, r1
 432              	.LVL38:
  70:first_move.c  **** 
 433              		.loc 1 70 0
 434 0060 BDE80840 		pop	{r3, lr}
  67:first_move.c  ****         break;
 435              		.loc 1 67 0
 436 0064 FFF7FEBF 		b	drive_forward
 437              	.LVL39:
 438              		.cfi_endproc
 439              	.LFE63:
 440              		.size	firstMoveSelector, .-firstMoveSelector
 441              		.comm	gMotor,16,4
 442              		.comm	gLine,96,4
 443              		.text
 444              	.Letext0:
 445              		.file 2 "c:\\program files (x86)\\cypress\\psoc creator\\4.1\\psoc creator\\import\\gnu\\arm\\5.4.
 446              		.file 3 "c:\\program files (x86)\\cypress\\psoc creator\\4.1\\psoc creator\\import\\gnu\\arm\\5.4.
 447              		.file 4 "first_move.h"
 448              		.file 5 "sensors.h"
 449              		.file 6 "drive.h"
 450              		.file 7 "Generated_Source\\PSoC5/core_cm3.h"
 451              		.file 8 "Generated_Source\\PSoC5/CyLib.h"
