ARM GAS  C:\Users\aupen\AppData\Local\Temp\ccIPmRXc.s 			page 1


   1              		.syntax unified
   2              		.cpu cortex-m3
   3              		.fpu softvfp
   4              		.eabi_attribute 20, 1
   5              		.eabi_attribute 21, 1
   6              		.eabi_attribute 23, 3
   7              		.eabi_attribute 24, 1
   8              		.eabi_attribute 25, 1
   9              		.eabi_attribute 26, 1
  10              		.eabi_attribute 30, 4
  11              		.eabi_attribute 34, 1
  12              		.eabi_attribute 18, 4
  13              		.thumb
  14              		.syntax unified
  15              		.file	"sen1.c"
  16              		.text
  17              	.Ltext0:
  18              		.cfi_sections	.debug_frame
  19              		.section	.text.sen1_Write,"ax",%progbits
  20              		.align	1
  21              		.global	sen1_Write
  22              		.thumb
  23              		.thumb_func
  24              		.type	sen1_Write, %function
  25              	sen1_Write:
  26              	.LFB0:
  27              		.file 1 "Generated_Source\\PSoC5\\sen1.c"
   1:Generated_Source\PSoC5/sen1.c **** /*******************************************************************************
   2:Generated_Source\PSoC5/sen1.c **** * File Name: sen1.c  
   3:Generated_Source\PSoC5/sen1.c **** * Version 2.20
   4:Generated_Source\PSoC5/sen1.c **** *
   5:Generated_Source\PSoC5/sen1.c **** * Description:
   6:Generated_Source\PSoC5/sen1.c **** *  This file contains API to enable firmware control of a Pins component.
   7:Generated_Source\PSoC5/sen1.c **** *
   8:Generated_Source\PSoC5/sen1.c **** * Note:
   9:Generated_Source\PSoC5/sen1.c **** *
  10:Generated_Source\PSoC5/sen1.c **** ********************************************************************************
  11:Generated_Source\PSoC5/sen1.c **** * Copyright 2008-2015, Cypress Semiconductor Corporation.  All rights reserved.
  12:Generated_Source\PSoC5/sen1.c **** * You may use this file only in accordance with the license, terms, conditions, 
  13:Generated_Source\PSoC5/sen1.c **** * disclaimers, and limitations in the end user license agreement accompanying 
  14:Generated_Source\PSoC5/sen1.c **** * the software package with which this file was provided.
  15:Generated_Source\PSoC5/sen1.c **** *******************************************************************************/
  16:Generated_Source\PSoC5/sen1.c **** 
  17:Generated_Source\PSoC5/sen1.c **** #include "cytypes.h"
  18:Generated_Source\PSoC5/sen1.c **** #include "sen1.h"
  19:Generated_Source\PSoC5/sen1.c **** 
  20:Generated_Source\PSoC5/sen1.c **** /* APIs are not generated for P15[7:6] on PSoC 5 */
  21:Generated_Source\PSoC5/sen1.c **** #if !(CY_PSOC5A &&\
  22:Generated_Source\PSoC5/sen1.c **** 	 sen1__PORT == 15 && ((sen1__MASK & 0xC0) != 0))
  23:Generated_Source\PSoC5/sen1.c **** 
  24:Generated_Source\PSoC5/sen1.c **** 
  25:Generated_Source\PSoC5/sen1.c **** /*******************************************************************************
  26:Generated_Source\PSoC5/sen1.c **** * Function Name: sen1_Write
  27:Generated_Source\PSoC5/sen1.c **** ****************************************************************************//**
  28:Generated_Source\PSoC5/sen1.c **** *
  29:Generated_Source\PSoC5/sen1.c **** * \brief Writes the value to the physical port (data output register), masking
  30:Generated_Source\PSoC5/sen1.c **** *  and shifting the bits appropriately. 
ARM GAS  C:\Users\aupen\AppData\Local\Temp\ccIPmRXc.s 			page 2


  31:Generated_Source\PSoC5/sen1.c **** *
  32:Generated_Source\PSoC5/sen1.c **** * The data output register controls the signal applied to the physical pin in 
  33:Generated_Source\PSoC5/sen1.c **** * conjunction with the drive mode parameter. This function avoids changing 
  34:Generated_Source\PSoC5/sen1.c **** * other bits in the port by using the appropriate method (read-modify-write or
  35:Generated_Source\PSoC5/sen1.c **** * bit banding).
  36:Generated_Source\PSoC5/sen1.c **** *
  37:Generated_Source\PSoC5/sen1.c **** * <b>Note</b> This function should not be used on a hardware digital output pin 
  38:Generated_Source\PSoC5/sen1.c **** * as it is driven by the hardware signal attached to it.
  39:Generated_Source\PSoC5/sen1.c **** *
  40:Generated_Source\PSoC5/sen1.c **** * \param value
  41:Generated_Source\PSoC5/sen1.c **** *  Value to write to the component instance.
  42:Generated_Source\PSoC5/sen1.c **** *
  43:Generated_Source\PSoC5/sen1.c **** * \return 
  44:Generated_Source\PSoC5/sen1.c **** *  None 
  45:Generated_Source\PSoC5/sen1.c **** *
  46:Generated_Source\PSoC5/sen1.c **** * \sideeffect
  47:Generated_Source\PSoC5/sen1.c **** *  If you use read-modify-write operations that are not atomic; the Interrupt 
  48:Generated_Source\PSoC5/sen1.c **** *  Service Routines (ISR) can cause corruption of this function. An ISR that 
  49:Generated_Source\PSoC5/sen1.c **** *  interrupts this function and performs writes to the Pins component data 
  50:Generated_Source\PSoC5/sen1.c **** *  register can cause corrupted port data. To avoid this issue, you should 
  51:Generated_Source\PSoC5/sen1.c **** *  either use the Per-Pin APIs (primary method) or disable interrupts around 
  52:Generated_Source\PSoC5/sen1.c **** *  this function.
  53:Generated_Source\PSoC5/sen1.c **** *
  54:Generated_Source\PSoC5/sen1.c **** * \funcusage
  55:Generated_Source\PSoC5/sen1.c **** *  \snippet sen1_SUT.c usage_sen1_Write
  56:Generated_Source\PSoC5/sen1.c **** *******************************************************************************/
  57:Generated_Source\PSoC5/sen1.c **** void sen1_Write(uint8 value)
  58:Generated_Source\PSoC5/sen1.c **** {
  28              		.loc 1 58 0
  29              		.cfi_startproc
  30              		@ args = 0, pretend = 0, frame = 0
  31              		@ frame_needed = 0, uses_anonymous_args = 0
  32              		@ link register save eliminated.
  33              	.LVL0:
  59:Generated_Source\PSoC5/sen1.c ****     uint8 staticBits = (sen1_DR & (uint8)(~sen1_MASK));
  34              		.loc 1 59 0
  35 0000 044A     		ldr	r2, .L2
  60:Generated_Source\PSoC5/sen1.c ****     sen1_DR = staticBits | ((uint8)(value << sen1_SHIFT) & sen1_MASK);
  36              		.loc 1 60 0
  37 0002 00F00100 		and	r0, r0, #1
  38              	.LVL1:
  59:Generated_Source\PSoC5/sen1.c ****     uint8 staticBits = (sen1_DR & (uint8)(~sen1_MASK));
  39              		.loc 1 59 0
  40 0006 1378     		ldrb	r3, [r2]	@ zero_extendqisi2
  41              	.LVL2:
  42              		.loc 1 60 0
  43 0008 03F0FE03 		and	r3, r3, #254
  44              	.LVL3:
  45 000c 1843     		orrs	r0, r0, r3
  46 000e 1070     		strb	r0, [r2]
  47 0010 7047     		bx	lr
  48              	.L3:
  49 0012 00BF     		.align	2
  50              	.L2:
  51 0014 00510040 		.word	1073762560
  52              		.cfi_endproc
  53              	.LFE0:
ARM GAS  C:\Users\aupen\AppData\Local\Temp\ccIPmRXc.s 			page 3


  54              		.size	sen1_Write, .-sen1_Write
  55              		.section	.text.sen1_SetDriveMode,"ax",%progbits
  56              		.align	1
  57              		.global	sen1_SetDriveMode
  58              		.thumb
  59              		.thumb_func
  60              		.type	sen1_SetDriveMode, %function
  61              	sen1_SetDriveMode:
  62              	.LFB1:
  61:Generated_Source\PSoC5/sen1.c **** }
  62:Generated_Source\PSoC5/sen1.c **** 
  63:Generated_Source\PSoC5/sen1.c **** 
  64:Generated_Source\PSoC5/sen1.c **** /*******************************************************************************
  65:Generated_Source\PSoC5/sen1.c **** * Function Name: sen1_SetDriveMode
  66:Generated_Source\PSoC5/sen1.c **** ****************************************************************************//**
  67:Generated_Source\PSoC5/sen1.c **** *
  68:Generated_Source\PSoC5/sen1.c **** * \brief Sets the drive mode for each of the Pins component's pins.
  69:Generated_Source\PSoC5/sen1.c **** * 
  70:Generated_Source\PSoC5/sen1.c **** * <b>Note</b> This affects all pins in the Pins component instance. Use the
  71:Generated_Source\PSoC5/sen1.c **** * Per-Pin APIs if you wish to control individual pin's drive modes.
  72:Generated_Source\PSoC5/sen1.c **** *
  73:Generated_Source\PSoC5/sen1.c **** * \param mode
  74:Generated_Source\PSoC5/sen1.c **** *  Mode for the selected signals. Valid options are documented in 
  75:Generated_Source\PSoC5/sen1.c **** *  \ref driveMode.
  76:Generated_Source\PSoC5/sen1.c **** *
  77:Generated_Source\PSoC5/sen1.c **** * \return
  78:Generated_Source\PSoC5/sen1.c **** *  None
  79:Generated_Source\PSoC5/sen1.c **** *
  80:Generated_Source\PSoC5/sen1.c **** * \sideeffect
  81:Generated_Source\PSoC5/sen1.c **** *  If you use read-modify-write operations that are not atomic, the ISR can
  82:Generated_Source\PSoC5/sen1.c **** *  cause corruption of this function. An ISR that interrupts this function 
  83:Generated_Source\PSoC5/sen1.c **** *  and performs writes to the Pins component Drive Mode registers can cause 
  84:Generated_Source\PSoC5/sen1.c **** *  corrupted port data. To avoid this issue, you should either use the Per-Pin
  85:Generated_Source\PSoC5/sen1.c **** *  APIs (primary method) or disable interrupts around this function.
  86:Generated_Source\PSoC5/sen1.c **** *
  87:Generated_Source\PSoC5/sen1.c **** * \funcusage
  88:Generated_Source\PSoC5/sen1.c **** *  \snippet sen1_SUT.c usage_sen1_SetDriveMode
  89:Generated_Source\PSoC5/sen1.c **** *******************************************************************************/
  90:Generated_Source\PSoC5/sen1.c **** void sen1_SetDriveMode(uint8 mode)
  91:Generated_Source\PSoC5/sen1.c **** {
  63              		.loc 1 91 0
  64              		.cfi_startproc
  65              		@ args = 0, pretend = 0, frame = 0
  66              		@ frame_needed = 0, uses_anonymous_args = 0
  67              		@ link register save eliminated.
  68              	.LVL4:
  92:Generated_Source\PSoC5/sen1.c **** 	CyPins_SetPinDriveMode(sen1_0, mode);
  69              		.loc 1 92 0
  70 0000 044A     		ldr	r2, .L5
  71 0002 00F00E00 		and	r0, r0, #14
  72              	.LVL5:
  73 0006 1378     		ldrb	r3, [r2]	@ zero_extendqisi2
  74 0008 03F0F103 		and	r3, r3, #241
  75 000c 1843     		orrs	r0, r0, r3
  76 000e 1070     		strb	r0, [r2]
  77 0010 7047     		bx	lr
  78              	.L6:
ARM GAS  C:\Users\aupen\AppData\Local\Temp\ccIPmRXc.s 			page 4


  79 0012 00BF     		.align	2
  80              	.L5:
  81 0014 00500040 		.word	1073762304
  82              		.cfi_endproc
  83              	.LFE1:
  84              		.size	sen1_SetDriveMode, .-sen1_SetDriveMode
  85              		.section	.text.sen1_Read,"ax",%progbits
  86              		.align	1
  87              		.global	sen1_Read
  88              		.thumb
  89              		.thumb_func
  90              		.type	sen1_Read, %function
  91              	sen1_Read:
  92              	.LFB2:
  93:Generated_Source\PSoC5/sen1.c **** }
  94:Generated_Source\PSoC5/sen1.c **** 
  95:Generated_Source\PSoC5/sen1.c **** 
  96:Generated_Source\PSoC5/sen1.c **** /*******************************************************************************
  97:Generated_Source\PSoC5/sen1.c **** * Function Name: sen1_Read
  98:Generated_Source\PSoC5/sen1.c **** ****************************************************************************//**
  99:Generated_Source\PSoC5/sen1.c **** *
 100:Generated_Source\PSoC5/sen1.c **** * \brief Reads the associated physical port (pin status register) and masks 
 101:Generated_Source\PSoC5/sen1.c **** *  the required bits according to the width and bit position of the component
 102:Generated_Source\PSoC5/sen1.c **** *  instance. 
 103:Generated_Source\PSoC5/sen1.c **** *
 104:Generated_Source\PSoC5/sen1.c **** * The pin's status register returns the current logic level present on the 
 105:Generated_Source\PSoC5/sen1.c **** * physical pin.
 106:Generated_Source\PSoC5/sen1.c **** *
 107:Generated_Source\PSoC5/sen1.c **** * \return 
 108:Generated_Source\PSoC5/sen1.c **** *  The current value for the pins in the component as a right justified number.
 109:Generated_Source\PSoC5/sen1.c **** *
 110:Generated_Source\PSoC5/sen1.c **** * \funcusage
 111:Generated_Source\PSoC5/sen1.c **** *  \snippet sen1_SUT.c usage_sen1_Read  
 112:Generated_Source\PSoC5/sen1.c **** *******************************************************************************/
 113:Generated_Source\PSoC5/sen1.c **** uint8 sen1_Read(void)
 114:Generated_Source\PSoC5/sen1.c **** {
  93              		.loc 1 114 0
  94              		.cfi_startproc
  95              		@ args = 0, pretend = 0, frame = 0
  96              		@ frame_needed = 0, uses_anonymous_args = 0
  97              		@ link register save eliminated.
 115:Generated_Source\PSoC5/sen1.c ****     return (sen1_PS & sen1_MASK) >> sen1_SHIFT;
  98              		.loc 1 115 0
  99 0000 024B     		ldr	r3, .L8
 100 0002 1878     		ldrb	r0, [r3]	@ zero_extendqisi2
 116:Generated_Source\PSoC5/sen1.c **** }
 101              		.loc 1 116 0
 102 0004 00F00100 		and	r0, r0, #1
 103 0008 7047     		bx	lr
 104              	.L9:
 105 000a 00BF     		.align	2
 106              	.L8:
 107 000c 01510040 		.word	1073762561
 108              		.cfi_endproc
 109              	.LFE2:
 110              		.size	sen1_Read, .-sen1_Read
 111              		.section	.text.sen1_ReadDataReg,"ax",%progbits
ARM GAS  C:\Users\aupen\AppData\Local\Temp\ccIPmRXc.s 			page 5


 112              		.align	1
 113              		.global	sen1_ReadDataReg
 114              		.thumb
 115              		.thumb_func
 116              		.type	sen1_ReadDataReg, %function
 117              	sen1_ReadDataReg:
 118              	.LFB3:
 117:Generated_Source\PSoC5/sen1.c **** 
 118:Generated_Source\PSoC5/sen1.c **** 
 119:Generated_Source\PSoC5/sen1.c **** /*******************************************************************************
 120:Generated_Source\PSoC5/sen1.c **** * Function Name: sen1_ReadDataReg
 121:Generated_Source\PSoC5/sen1.c **** ****************************************************************************//**
 122:Generated_Source\PSoC5/sen1.c **** *
 123:Generated_Source\PSoC5/sen1.c **** * \brief Reads the associated physical port's data output register and masks 
 124:Generated_Source\PSoC5/sen1.c **** *  the correct bits according to the width and bit position of the component 
 125:Generated_Source\PSoC5/sen1.c **** *  instance. 
 126:Generated_Source\PSoC5/sen1.c **** *
 127:Generated_Source\PSoC5/sen1.c **** * The data output register controls the signal applied to the physical pin in 
 128:Generated_Source\PSoC5/sen1.c **** * conjunction with the drive mode parameter. This is not the same as the 
 129:Generated_Source\PSoC5/sen1.c **** * preferred sen1_Read() API because the 
 130:Generated_Source\PSoC5/sen1.c **** * sen1_ReadDataReg() reads the data register instead of the status 
 131:Generated_Source\PSoC5/sen1.c **** * register. For output pins this is a useful function to determine the value 
 132:Generated_Source\PSoC5/sen1.c **** * just written to the pin.
 133:Generated_Source\PSoC5/sen1.c **** *
 134:Generated_Source\PSoC5/sen1.c **** * \return 
 135:Generated_Source\PSoC5/sen1.c **** *  The current value of the data register masked and shifted into a right 
 136:Generated_Source\PSoC5/sen1.c **** *  justified number for the component instance.
 137:Generated_Source\PSoC5/sen1.c **** *
 138:Generated_Source\PSoC5/sen1.c **** * \funcusage
 139:Generated_Source\PSoC5/sen1.c **** *  \snippet sen1_SUT.c usage_sen1_ReadDataReg 
 140:Generated_Source\PSoC5/sen1.c **** *******************************************************************************/
 141:Generated_Source\PSoC5/sen1.c **** uint8 sen1_ReadDataReg(void)
 142:Generated_Source\PSoC5/sen1.c **** {
 119              		.loc 1 142 0
 120              		.cfi_startproc
 121              		@ args = 0, pretend = 0, frame = 0
 122              		@ frame_needed = 0, uses_anonymous_args = 0
 123              		@ link register save eliminated.
 143:Generated_Source\PSoC5/sen1.c ****     return (sen1_DR & sen1_MASK) >> sen1_SHIFT;
 124              		.loc 1 143 0
 125 0000 024B     		ldr	r3, .L11
 126 0002 1878     		ldrb	r0, [r3]	@ zero_extendqisi2
 144:Generated_Source\PSoC5/sen1.c **** }
 127              		.loc 1 144 0
 128 0004 00F00100 		and	r0, r0, #1
 129 0008 7047     		bx	lr
 130              	.L12:
 131 000a 00BF     		.align	2
 132              	.L11:
 133 000c 00510040 		.word	1073762560
 134              		.cfi_endproc
 135              	.LFE3:
 136              		.size	sen1_ReadDataReg, .-sen1_ReadDataReg
 137              		.text
 138              	.Letext0:
 139              		.file 2 "Generated_Source\\PSoC5\\cytypes.h"
