ARM GAS  C:\Users\aupen\AppData\Local\Temp\ccmHCvVm.s 			page 1


   1              		.syntax unified
   2              		.cpu cortex-m3
   3              		.fpu softvfp
   4              		.eabi_attribute 20, 1
   5              		.eabi_attribute 21, 1
   6              		.eabi_attribute 23, 3
   7              		.eabi_attribute 24, 1
   8              		.eabi_attribute 25, 1
   9              		.eabi_attribute 26, 1
  10              		.eabi_attribute 30, 4
  11              		.eabi_attribute 34, 1
  12              		.eabi_attribute 18, 4
  13              		.thumb
  14              		.syntax unified
  15              		.file	"tactic7.c"
  16              		.text
  17              	.Ltext0:
  18              		.cfi_sections	.debug_frame
  19              		.section	.text.RunTactic7,"ax",%progbits
  20              		.align	1
  21              		.global	RunTactic7
  22              		.thumb
  23              		.thumb_func
  24              		.type	RunTactic7, %function
  25              	RunTactic7:
  26              	.LFB63:
  27              		.file 1 "tactic7.c"
   1:tactic7.c     **** /* ========================================
   2:tactic7.c     ****  *
   3:tactic7.c     ****  * Copyright YOUR COMPANY, THE YEAR
   4:tactic7.c     ****  * All Rights Reserved
   5:tactic7.c     ****  * UNPUBLISHED, LICENSED SOFTWARE.
   6:tactic7.c     ****  *
   7:tactic7.c     ****  * CONFIDENTIAL AND PROPRIETARY INFORMATION
   8:tactic7.c     ****  * WHICH IS THE PROPERTY OF your company.
   9:tactic7.c     ****  *
  10:tactic7.c     ****  * ========================================
  11:tactic7.c     **** */
  12:tactic7.c     **** #include <project.h>
  13:tactic7.c     **** #include "tactic7.h"
  14:tactic7.c     **** #include "first_move.h"
  15:tactic7.c     **** #include "sensors.h"
  16:tactic7.c     **** #include "timer_time.h"
  17:tactic7.c     **** #include "drive.h"
  18:tactic7.c     **** 
  19:tactic7.c     **** //=============================================================================
  20:tactic7.c     **** // Private defines and typedefs
  21:tactic7.c     **** //=============================================================================
  22:tactic7.c     **** #define Rd_bits(value, mask)        ((value)&(mask))
  23:tactic7.c     **** 
  24:tactic7.c     **** #define SEARCH_PWM_L  35
  25:tactic7.c     **** #define SEARCH_PWM_R  35
  26:tactic7.c     **** #define TURN_PWM    40
  27:tactic7.c     **** #define ATTACK_PWM  80
  28:tactic7.c     **** 
  29:tactic7.c     **** //=============================================================================
  30:tactic7.c     **** // Private function declarations
ARM GAS  C:\Users\aupen\AppData\Local\Temp\ccmHCvVm.s 			page 2


  31:tactic7.c     **** //=============================================================================
  32:tactic7.c     **** static void ActOnEnemySpotted(void);
  33:tactic7.c     **** static void ActOnLineDetected(void);
  34:tactic7.c     **** static void DoSomething(void);
  35:tactic7.c     **** 
  36:tactic7.c     **** //=============================================================================
  37:tactic7.c     **** // Private data definitions
  38:tactic7.c     **** //=============================================================================
  39:tactic7.c     **** static uint8_t lineSens = 0;
  40:tactic7.c     **** static uint8_t distSens = 0;
  41:tactic7.c     **** static uint8_t side = 0;
  42:tactic7.c     **** 
  43:tactic7.c     **** 
  44:tactic7.c     **** //=============================================================================
  45:tactic7.c     **** // Public function definitions
  46:tactic7.c     **** //=============================================================================
  47:tactic7.c     **** 
  48:tactic7.c     **** //-----------------------------------------------------------------------------
  49:tactic7.c     **** //! \brief	Combat tactic #1 in action
  50:tactic7.c     **** //-----------------------------------------------------------------------------
  51:tactic7.c     **** void RunTactic7(int firstMove)
  52:tactic7.c     **** {
  28              		.loc 1 52 0
  29              		.cfi_startproc
  30              		@ args = 0, pretend = 0, frame = 0
  31              		@ frame_needed = 0, uses_anonymous_args = 0
  32              	.LVL0:
  33 0000 38B5     		push	{r3, r4, r5, lr}
  34              		.cfi_def_cfa_offset 16
  35              		.cfi_offset 3, -16
  36              		.cfi_offset 4, -12
  37              		.cfi_offset 5, -8
  38              		.cfi_offset 14, -4
  39              		.loc 1 52 0
  40 0002 0446     		mov	r4, r0
  53:tactic7.c     ****     WaitForIRStart();
  41              		.loc 1 53 0
  42 0004 FFF7FEFF 		bl	WaitForIRStart
  43              	.LVL1:
  54:tactic7.c     ****     
  55:tactic7.c     ****     // ============================ First move ================================
  56:tactic7.c     **** 
  57:tactic7.c     ****     //CyDelay(5000);
  58:tactic7.c     ****     firstMoveSelector(firstMove);
  44              		.loc 1 58 0
  45 0008 E0B2     		uxtb	r0, r4
  46 000a FFF7FEFF 		bl	firstMoveSelector
  47              	.LVL2:
  59:tactic7.c     ****     
  60:tactic7.c     ****                     
  61:tactic7.c     **** 
  62:tactic7.c     ****     // ============================= Main loop ================================
  63:tactic7.c     ****     uint32_t timout_time = millis();
  48              		.loc 1 63 0
  49 000e FFF7FEFF 		bl	millis
  50              	.LVL3:
  51 0012 0446     		mov	r4, r0
ARM GAS  C:\Users\aupen\AppData\Local\Temp\ccmHCvVm.s 			page 3


  52              	.LVL4:
  53              	.LBB6:
  54              	.LBB7:
  64:tactic7.c     ****     while (1) {
  65:tactic7.c     **** 		// read all sensors
  66:tactic7.c     **** 		lineSens = LineSensRead();
  67:tactic7.c     **** 	    //distSens = DistSensRead(); //Distance_sensor_value_Read();
  68:tactic7.c     ****         //Sensor_Reset_Write(0xFF);  // why???
  69:tactic7.c     ****         
  70:tactic7.c     ****         //Sensor_Reset_Write(0); 
  71:tactic7.c     **** 
  72:tactic7.c     **** 		if( 0 < lineSens ){
  73:tactic7.c     **** 			// line has detected
  74:tactic7.c     **** 		    ActOnLineDetected();
  75:tactic7.c     **** 			timout_time = millis();
  76:tactic7.c     **** 		}
  77:tactic7.c     **** 		//else if( 0 < distSens ){
  78:tactic7.c     **** 			// opponent spotted
  79:tactic7.c     **** 			//ActOnEnemySpotted();
  80:tactic7.c     **** 			//timout_time = millis();
  81:tactic7.c     **** 		//}
  82:tactic7.c     ****         else {
  83:tactic7.c     ****             drive_forward(SEARCH_PWM_L, SEARCH_PWM_R);
  84:tactic7.c     ****             //CyDelay(50);
  85:tactic7.c     ****         }
  86:tactic7.c     **** 
  87:tactic7.c     **** 		if( 2500 < millis() - timout_time ){
  88:tactic7.c     **** 			timout_time = millis();
  89:tactic7.c     **** 			DoSomething();
  90:tactic7.c     ****             Servo_enable_Write(0);
  91:tactic7.c     **** 		}
  92:tactic7.c     ****     }
  93:tactic7.c     **** }
  94:tactic7.c     **** 
  95:tactic7.c     **** //=============================================================================
  96:tactic7.c     **** // Private function definitions
  97:tactic7.c     **** //=============================================================================
  98:tactic7.c     **** 
  99:tactic7.c     **** //! \brief	Act on opponent spotted event
 100:tactic7.c     **** void ActOnEnemySpotted(void){
 101:tactic7.c     **** 
 102:tactic7.c     **** 
 103:tactic7.c     **** 	    int distSens = DistSensRead(); //Distance_sensor_value_Read();
 104:tactic7.c     ****         //Sensor_Reset_Write(0xFF);  // why???
 105:tactic7.c     ****         
 106:tactic7.c     ****         //Sensor_Reset_Write(0); 
 107:tactic7.c     **** 
 108:tactic7.c     ****     	if( 0 < distSens ){
 109:tactic7.c     ****             int8_t avrg_angle_grad = CalcAvrgAngle();
 110:tactic7.c     **** 
 111:tactic7.c     ****         	int8_t pwm = 60;
 112:tactic7.c     ****             // Attack spotted opponent
 113:tactic7.c     ****         	if( 0 == avrg_angle_grad ){
 114:tactic7.c     ****         		drive_forward( ATTACK_PWM , ATTACK_PWM );		// drive forward
 115:tactic7.c     ****         		CyDelay(40);
 116:tactic7.c     ****         	}else if( -60 >= avrg_angle_grad ){
 117:tactic7.c     ****         		// [-90; -60] grad
ARM GAS  C:\Users\aupen\AppData\Local\Temp\ccmHCvVm.s 			page 4


 118:tactic7.c     ****         		turn_left(TURN_PWM,TURN_PWM); //drive_motors( -pwm, pwm );		// turn on spot left
 119:tactic7.c     ****                 CyDelay(40);
 120:tactic7.c     ****         	}else if( -30 >= avrg_angle_grad ){
 121:tactic7.c     ****         		// (-60; -30] grad
 122:tactic7.c     ****         		drive_forward( pwm / 3, pwm );	// drive more left
 123:tactic7.c     ****                 CyDelay(30);
 124:tactic7.c     ****         	}else if( 0 > avrg_angle_grad ){
 125:tactic7.c     ****         		// (-30; 0) grad
 126:tactic7.c     ****         		drive_forward( ATTACK_PWM * 0.7, ATTACK_PWM );	// drive little left
 127:tactic7.c     ****                 CyDelay(40);
 128:tactic7.c     ****         	}else if( 60 <= avrg_angle_grad ){
 129:tactic7.c     ****         		// [60; 90] grad
 130:tactic7.c     ****         		turn_right(TURN_PWM,TURN_PWM); //drive_motors( pwm, -pwm );		// turn on spot right
 131:tactic7.c     ****                 CyDelay(40);
 132:tactic7.c     ****         	}else if( 30 <= avrg_angle_grad ){
 133:tactic7.c     ****         		// [30; 60) grad
 134:tactic7.c     ****         		drive_forward( pwm, pwm / 3 );	// drive more right
 135:tactic7.c     ****                 CyDelay(30);
 136:tactic7.c     ****         	}else if( 0 <= avrg_angle_grad ){
 137:tactic7.c     ****         		// (0; 30) grad
 138:tactic7.c     ****         		drive_forward( ATTACK_PWM, ATTACK_PWM * 0.7 );	// drive little right
 139:tactic7.c     ****                 CyDelay(40);
 140:tactic7.c     ****         	}
 141:tactic7.c     ****             CyDelay(10);
 142:tactic7.c     **** 
 143:tactic7.c     ****     		}
 144:tactic7.c     ****         else {
 145:tactic7.c     ****             drive_forward(0, 0);
 146:tactic7.c     ****             //CyDelay(50);
 147:tactic7.c     ****         }
 148:tactic7.c     ****        
 149:tactic7.c     **** }
 150:tactic7.c     **** 
 151:tactic7.c     **** //! \brief	Act on line detected event
 152:tactic7.c     **** void ActOnLineDetected(void){
 153:tactic7.c     **** 	//int lineSens = LineSensRead();
 154:tactic7.c     ****      
 155:tactic7.c     **** 	// Line_FL && Line_FR
 156:tactic7.c     **** 	if(gLine.F_LEFT && gLine.F_RIGHT){
  55              		.loc 1 156 0
  56 0014 2A4D     		ldr	r5, .L16
  57              	.LVL5:
  58              	.L7:
  59              	.LBE7:
  60              	.LBE6:
  66:tactic7.c     **** 	    //distSens = DistSensRead(); //Distance_sensor_value_Read();
  61              		.loc 1 66 0
  62 0016 FFF7FEFF 		bl	LineSensRead
  63              	.LVL6:
  72:tactic7.c     **** 			// line has detected
  64              		.loc 1 72 0
  65 001a A0B3     		cbz	r0, .L2
  66              	.LBB9:
  67              	.LBB8:
  68              		.loc 1 156 0
  69 001c AB69     		ldr	r3, [r5, #24]
  70 001e D3B1     		cbz	r3, .L3
ARM GAS  C:\Users\aupen\AppData\Local\Temp\ccmHCvVm.s 			page 5


  71 0020 EB69     		ldr	r3, [r5, #28]
 157:tactic7.c     ****         drive_backward(40,40); //drive_distance_straight_backward(10, 40);
  72              		.loc 1 157 0
  73 0022 2821     		movs	r1, #40
  74 0024 0846     		mov	r0, r1
 156:tactic7.c     ****         drive_backward(40,40); //drive_distance_straight_backward(10, 40);
  75              		.loc 1 156 0
  76 0026 63B1     		cbz	r3, .L4
  77              		.loc 1 157 0
  78 0028 FFF7FEFF 		bl	drive_backward
  79              	.LVL7:
 158:tactic7.c     ****         CyDelay(400);
  80              		.loc 1 158 0
  81 002c 4FF4C870 		mov	r0, #400
  82 0030 FFF7FEFF 		bl	CyDelay
  83              	.LVL8:
 159:tactic7.c     ****         //turn_angle_right(170,50);
 160:tactic7.c     ****         turn_left(TURN_PWM,TURN_PWM); //turn_angle_right(180, TURN_PWM );
  84              		.loc 1 160 0
  85 0034 2821     		movs	r1, #40
  86 0036 0846     		mov	r0, r1
  87 0038 FFF7FEFF 		bl	turn_left
  88              	.LVL9:
 161:tactic7.c     ****         CyDelay(300);
  89              		.loc 1 161 0
  90 003c 4FF49670 		mov	r0, #300
  91 0040 17E0     		b	.L13
  92              	.L4:
 162:tactic7.c     **** 	}
 163:tactic7.c     **** 	// Line_FL
 164:tactic7.c     **** 	else if(gLine.F_LEFT){
 165:tactic7.c     ****         drive_backward(40,40); //drive_distance_straight_backward(10, 40);
  93              		.loc 1 165 0
  94 0042 FFF7FEFF 		bl	drive_backward
  95              	.LVL10:
 166:tactic7.c     ****         CyDelay(150);
  96              		.loc 1 166 0
  97 0046 9620     		movs	r0, #150
  98 0048 FFF7FEFF 		bl	CyDelay
  99              	.LVL11:
 167:tactic7.c     ****         turn_right(TURN_PWM,TURN_PWM); //turn_angle_right(135, TURN_PWM );
 100              		.loc 1 167 0
 101 004c 2821     		movs	r1, #40
 102 004e 0846     		mov	r0, r1
 103 0050 FFF7FEFF 		bl	turn_right
 104              	.LVL12:
 105 0054 0CE0     		b	.L14
 106              	.L3:
 168:tactic7.c     ****         CyDelay(200);
 169:tactic7.c     **** 	}
 170:tactic7.c     **** 	// Line_FR
 171:tactic7.c     **** 	else if(gLine.F_RIGHT){
 107              		.loc 1 171 0
 108 0056 EB69     		ldr	r3, [r5, #28]
 109 0058 6BB1     		cbz	r3, .L5
 172:tactic7.c     ****         drive_backward(40,40); //drive_distance_straight_backward(10, 40);
 110              		.loc 1 172 0
ARM GAS  C:\Users\aupen\AppData\Local\Temp\ccmHCvVm.s 			page 6


 111 005a 2821     		movs	r1, #40
 112 005c 0846     		mov	r0, r1
 113 005e FFF7FEFF 		bl	drive_backward
 114              	.LVL13:
 173:tactic7.c     ****         CyDelay(150);
 115              		.loc 1 173 0
 116 0062 9620     		movs	r0, #150
 117 0064 FFF7FEFF 		bl	CyDelay
 118              	.LVL14:
 174:tactic7.c     ****         turn_left(TURN_PWM,TURN_PWM); //turn_angle_left(135, TURN_PWM );
 119              		.loc 1 174 0
 120 0068 2821     		movs	r1, #40
 121 006a 0846     		mov	r0, r1
 122 006c FFF7FEFF 		bl	turn_left
 123              	.LVL15:
 124              	.L14:
 175:tactic7.c     ****         CyDelay(200);
 125              		.loc 1 175 0
 126 0070 C820     		movs	r0, #200
 127              	.L13:
 128 0072 FFF7FEFF 		bl	CyDelay
 129              	.LVL16:
 130              	.L5:
 176:tactic7.c     **** 	}
 177:tactic7.c     ****     drive_forward( 0, 0 );
 131              		.loc 1 177 0
 132 0076 0021     		movs	r1, #0
 133 0078 0846     		mov	r0, r1
 134 007a FFF7FEFF 		bl	drive_forward
 135              	.LVL17:
 136              	.LBE8:
 137              	.LBE9:
  75:tactic7.c     **** 		}
 138              		.loc 1 75 0
 139 007e FFF7FEFF 		bl	millis
 140              	.LVL18:
 141 0082 0446     		mov	r4, r0
 142              	.LVL19:
 143 0084 03E0     		b	.L6
 144              	.LVL20:
 145              	.L2:
  83:tactic7.c     ****             //CyDelay(50);
 146              		.loc 1 83 0
 147 0086 2321     		movs	r1, #35
 148 0088 0846     		mov	r0, r1
 149 008a FFF7FEFF 		bl	drive_forward
 150              	.LVL21:
 151              	.L6:
  87:tactic7.c     **** 			timout_time = millis();
 152              		.loc 1 87 0
 153 008e FFF7FEFF 		bl	millis
 154              	.LVL22:
 155 0092 40F6C413 		movw	r3, #2500
 156 0096 001B     		subs	r0, r0, r4
 157 0098 9842     		cmp	r0, r3
 158 009a BCD9     		bls	.L7
  88:tactic7.c     **** 			DoSomething();
ARM GAS  C:\Users\aupen\AppData\Local\Temp\ccmHCvVm.s 			page 7


 159              		.loc 1 88 0
 160 009c FFF7FEFF 		bl	millis
 161              	.LVL23:
 162              	.LBB10:
 163              	.LBB11:
 178:tactic7.c     **** }
 179:tactic7.c     **** 
 180:tactic7.c     **** //! \brief	Do something when opponent is not visible
 181:tactic7.c     **** void DoSomething(void){
 182:tactic7.c     **** 
 183:tactic7.c     ****     drive_backward(SEARCH_PWM_L * 2,SEARCH_PWM_L * 2);
 164              		.loc 1 183 0
 165 00a0 4621     		movs	r1, #70
 166              	.LBE11:
 167              	.LBE10:
  88:tactic7.c     **** 			DoSomething();
 168              		.loc 1 88 0
 169 00a2 0446     		mov	r4, r0
 170              	.LVL24:
 171              	.LBB13:
 172              	.LBB12:
 173              		.loc 1 183 0
 174 00a4 0846     		mov	r0, r1
 175              	.LVL25:
 176 00a6 FFF7FEFF 		bl	drive_backward
 177              	.LVL26:
 184:tactic7.c     ****     CyDelay(40);
 178              		.loc 1 184 0
 179 00aa 2820     		movs	r0, #40
 180 00ac FFF7FEFF 		bl	CyDelay
 181              	.LVL27:
 185:tactic7.c     **** 
 186:tactic7.c     ****     drive_forward( 0, 0 ); // BREAK A BIT FOR FUN
 182              		.loc 1 186 0
 183 00b0 0021     		movs	r1, #0
 184 00b2 0846     		mov	r0, r1
 185 00b4 FFF7FEFF 		bl	drive_forward
 186              	.LVL28:
 187              	.LBE12:
 188              	.LBE13:
  90:tactic7.c     **** 		}
 189              		.loc 1 90 0
 190 00b8 0020     		movs	r0, #0
 191 00ba FFF7FEFF 		bl	Servo_enable_Write
 192              	.LVL29:
 193 00be AAE7     		b	.L7
 194              	.L17:
 195              		.align	2
 196              	.L16:
 197 00c0 00000000 		.word	gLine
 198              		.cfi_endproc
 199              	.LFE63:
 200              		.size	RunTactic7, .-RunTactic7
 201              		.comm	gMotor,16,4
 202              		.comm	gLine,96,4
 203              		.text
 204              	.Letext0:
ARM GAS  C:\Users\aupen\AppData\Local\Temp\ccmHCvVm.s 			page 8


 205              		.file 2 "c:\\program files (x86)\\cypress\\psoc creator\\4.1\\psoc creator\\import\\gnu\\arm\\5.4.
 206              		.file 3 "c:\\program files (x86)\\cypress\\psoc creator\\4.1\\psoc creator\\import\\gnu\\arm\\5.4.
 207              		.file 4 "sensors.h"
 208              		.file 5 "drive.h"
 209              		.file 6 "Generated_Source\\PSoC5/core_cm3.h"
 210              		.file 7 "Generated_Source\\PSoC5/CyLib.h"
 211              		.file 8 "first_move.h"
 212              		.file 9 "timer_time.h"
 213              		.file 10 "Generated_Source\\PSoC5/Servo_enable.h"
