ARM GAS  C:\Users\aupen\AppData\Local\Temp\cczUxnbz.s 			page 1


   1              		.syntax unified
   2              		.cpu cortex-m3
   3              		.fpu softvfp
   4              		.eabi_attribute 20, 1
   5              		.eabi_attribute 21, 1
   6              		.eabi_attribute 23, 3
   7              		.eabi_attribute 24, 1
   8              		.eabi_attribute 25, 1
   9              		.eabi_attribute 26, 1
  10              		.eabi_attribute 30, 4
  11              		.eabi_attribute 34, 1
  12              		.eabi_attribute 18, 4
  13              		.thumb
  14              		.syntax unified
  15              		.file	"USBUART.c"
  16              		.text
  17              	.Ltext0:
  18              		.cfi_sections	.debug_frame
  19              		.section	.text.USBUART_Init,"ax",%progbits
  20              		.align	1
  21              		.global	USBUART_Init
  22              		.thumb
  23              		.thumb_func
  24              		.type	USBUART_Init, %function
  25              	USBUART_Init:
  26              	.LFB1:
  27              		.file 1 "Generated_Source\\PSoC5\\USBUART.c"
   1:Generated_Source\PSoC5/USBUART.c **** /***************************************************************************//**
   2:Generated_Source\PSoC5/USBUART.c **** * \file USBUART.c
   3:Generated_Source\PSoC5/USBUART.c **** * \version 3.20
   4:Generated_Source\PSoC5/USBUART.c **** *
   5:Generated_Source\PSoC5/USBUART.c **** * \brief
   6:Generated_Source\PSoC5/USBUART.c **** *  This file contains the global USBFS API functions.
   7:Generated_Source\PSoC5/USBUART.c **** *
   8:Generated_Source\PSoC5/USBUART.c **** * Note:
   9:Generated_Source\PSoC5/USBUART.c **** *  Many of the functions use an endpoint number. SRAM arrays are sized with 9
  10:Generated_Source\PSoC5/USBUART.c **** *  elements, so they are indexed directly by epNumber.  The SIE and ARB
  11:Generated_Source\PSoC5/USBUART.c **** *  registers are indexed by variations of epNumber - 1.
  12:Generated_Source\PSoC5/USBUART.c **** *
  13:Generated_Source\PSoC5/USBUART.c **** ********************************************************************************
  14:Generated_Source\PSoC5/USBUART.c **** * \copyright
  15:Generated_Source\PSoC5/USBUART.c **** * Copyright 2008-2016, Cypress Semiconductor Corporation.  All rights reserved.
  16:Generated_Source\PSoC5/USBUART.c **** * You may use this file only in accordance with the license, terms, conditions,
  17:Generated_Source\PSoC5/USBUART.c **** * disclaimers, and limitations in the end user license agreement accompanying
  18:Generated_Source\PSoC5/USBUART.c **** * the software package with which this file was provided.
  19:Generated_Source\PSoC5/USBUART.c **** *******************************************************************************/
  20:Generated_Source\PSoC5/USBUART.c **** 
  21:Generated_Source\PSoC5/USBUART.c **** #include "USBUART_pvt.h"
  22:Generated_Source\PSoC5/USBUART.c **** #include "USBUART_cydmac.h"
  23:Generated_Source\PSoC5/USBUART.c **** #include "USBUART_hid.h"
  24:Generated_Source\PSoC5/USBUART.c **** #include "USBUART_Dp.h"
  25:Generated_Source\PSoC5/USBUART.c **** 
  26:Generated_Source\PSoC5/USBUART.c **** 
  27:Generated_Source\PSoC5/USBUART.c **** /***************************************
  28:Generated_Source\PSoC5/USBUART.c **** * Global data allocation
  29:Generated_Source\PSoC5/USBUART.c **** ***************************************/
  30:Generated_Source\PSoC5/USBUART.c **** 
ARM GAS  C:\Users\aupen\AppData\Local\Temp\cczUxnbz.s 			page 2


  31:Generated_Source\PSoC5/USBUART.c **** /** Indicates whether the USBFS has been initialized. The variable is
  32:Generated_Source\PSoC5/USBUART.c **** * initialized to 0 after device reset and set to 1 the first time USBFS_Start()
  33:Generated_Source\PSoC5/USBUART.c **** * is called. This allows the Component to restart without reinitialization after
  34:Generated_Source\PSoC5/USBUART.c **** * the first call to the USBFS_Start() routine.
  35:Generated_Source\PSoC5/USBUART.c **** * If re-initialization of the Component is required, the variable should be set
  36:Generated_Source\PSoC5/USBUART.c **** * to 0 before the USBFS_Start() routine is called. Alternatively, the USBFS can
  37:Generated_Source\PSoC5/USBUART.c **** * be reinitialized by calling both USBFS_Init() and USBFS_InitComponent()
  38:Generated_Source\PSoC5/USBUART.c **** * functions.
  39:Generated_Source\PSoC5/USBUART.c **** */
  40:Generated_Source\PSoC5/USBUART.c **** uint8 USBUART_initVar = 0u;
  41:Generated_Source\PSoC5/USBUART.c **** 
  42:Generated_Source\PSoC5/USBUART.c **** #if (USBUART_EP_MANAGEMENT_DMA)
  43:Generated_Source\PSoC5/USBUART.c ****     #if (CY_PSOC4)
  44:Generated_Source\PSoC5/USBUART.c ****         static void USBUART_InitEpDma(void);
  45:Generated_Source\PSoC5/USBUART.c **** 
  46:Generated_Source\PSoC5/USBUART.c ****         /* DMA chanels assigend for endpoints. */
  47:Generated_Source\PSoC5/USBUART.c ****         const uint8 USBUART_DmaChan[USBUART_MAX_EP] =
  48:Generated_Source\PSoC5/USBUART.c ****         {
  49:Generated_Source\PSoC5/USBUART.c ****             0u,
  50:Generated_Source\PSoC5/USBUART.c ****             0u,
  51:Generated_Source\PSoC5/USBUART.c ****             0u,
  52:Generated_Source\PSoC5/USBUART.c ****             0u,
  53:Generated_Source\PSoC5/USBUART.c ****             0u,
  54:Generated_Source\PSoC5/USBUART.c ****             0u,
  55:Generated_Source\PSoC5/USBUART.c ****             0u,
  56:Generated_Source\PSoC5/USBUART.c ****             0u,
  57:Generated_Source\PSoC5/USBUART.c ****             0u,
  58:Generated_Source\PSoC5/USBUART.c ****         };        
  59:Generated_Source\PSoC5/USBUART.c ****     #else
  60:Generated_Source\PSoC5/USBUART.c ****         /* DMA chanels assigend for endpoints. */
  61:Generated_Source\PSoC5/USBUART.c ****         uint8 USBUART_DmaChan[USBUART_MAX_EP];
  62:Generated_Source\PSoC5/USBUART.c ****         
  63:Generated_Source\PSoC5/USBUART.c ****         /* DMA TDs require for PSoC 3/5LP operation. */
  64:Generated_Source\PSoC5/USBUART.c ****         uint8 USBUART_DmaTd[USBUART_MAX_EP];
  65:Generated_Source\PSoC5/USBUART.c ****     #endif /* (CY_PSOC4) */
  66:Generated_Source\PSoC5/USBUART.c **** #endif /* (USBUART_EP_MANAGEMENT_DMA) */
  67:Generated_Source\PSoC5/USBUART.c **** 
  68:Generated_Source\PSoC5/USBUART.c **** #if (USBUART_EP_MANAGEMENT_DMA_AUTO)
  69:Generated_Source\PSoC5/USBUART.c **** #if (CY_PSOC4)
  70:Generated_Source\PSoC5/USBUART.c ****     /* Number of DMA bursts. */
  71:Generated_Source\PSoC5/USBUART.c ****     uint8  USBUART_DmaEpBurstCnt   [USBUART_MAX_EP];
  72:Generated_Source\PSoC5/USBUART.c ****     
  73:Generated_Source\PSoC5/USBUART.c ****     /* Number of bytes to transfer in last DMA burst. */
  74:Generated_Source\PSoC5/USBUART.c ****     uint8  USBUART_DmaEpLastBurstEl[USBUART_MAX_EP];
  75:Generated_Source\PSoC5/USBUART.c **** 
  76:Generated_Source\PSoC5/USBUART.c ****     /* Storage for arrays above. */
  77:Generated_Source\PSoC5/USBUART.c ****     uint8  USBUART_DmaEpBurstCntBackup  [USBUART_MAX_EP];
  78:Generated_Source\PSoC5/USBUART.c ****     uint32 USBUART_DmaEpBufferAddrBackup[USBUART_MAX_EP];
  79:Generated_Source\PSoC5/USBUART.c ****      
  80:Generated_Source\PSoC5/USBUART.c ****     /* DMA trigger mux output for usb.dma_req[0-7]. */
  81:Generated_Source\PSoC5/USBUART.c ****     const uint8 USBUART_DmaReqOut[USBUART_MAX_EP] =
  82:Generated_Source\PSoC5/USBUART.c ****     {
  83:Generated_Source\PSoC5/USBUART.c ****         0u,
  84:Generated_Source\PSoC5/USBUART.c ****         USBUART_ep1_dma__TR_OUTPUT,
  85:Generated_Source\PSoC5/USBUART.c ****         USBUART_ep2_dma__TR_OUTPUT,
  86:Generated_Source\PSoC5/USBUART.c ****         USBUART_ep3_dma__TR_OUTPUT,
  87:Generated_Source\PSoC5/USBUART.c ****         0u,
ARM GAS  C:\Users\aupen\AppData\Local\Temp\cczUxnbz.s 			page 3


  88:Generated_Source\PSoC5/USBUART.c ****         0u,
  89:Generated_Source\PSoC5/USBUART.c ****         0u,
  90:Generated_Source\PSoC5/USBUART.c ****         0u,
  91:Generated_Source\PSoC5/USBUART.c ****         0u,
  92:Generated_Source\PSoC5/USBUART.c ****     };
  93:Generated_Source\PSoC5/USBUART.c **** 
  94:Generated_Source\PSoC5/USBUART.c ****     /* DMA trigger mux output for usb.dma_burstend[0-7]. */
  95:Generated_Source\PSoC5/USBUART.c ****     const uint8 USBUART_DmaBurstEndOut[USBUART_MAX_EP] =
  96:Generated_Source\PSoC5/USBUART.c ****     {
  97:Generated_Source\PSoC5/USBUART.c ****         0u,
  98:Generated_Source\PSoC5/USBUART.c ****         USBUART_BURSTEND_0_TR_OUTPUT,
  99:Generated_Source\PSoC5/USBUART.c ****         USBUART_BURSTEND_1_TR_OUTPUT,
 100:Generated_Source\PSoC5/USBUART.c ****         USBUART_BURSTEND_2_TR_OUTPUT,
 101:Generated_Source\PSoC5/USBUART.c ****         USBUART_BURSTEND_3_TR_OUTPUT,
 102:Generated_Source\PSoC5/USBUART.c ****         USBUART_BURSTEND_4_TR_OUTPUT,
 103:Generated_Source\PSoC5/USBUART.c ****         USBUART_BURSTEND_5_TR_OUTPUT,
 104:Generated_Source\PSoC5/USBUART.c ****         USBUART_BURSTEND_6_TR_OUTPUT,
 105:Generated_Source\PSoC5/USBUART.c ****         USBUART_BURSTEND_7_TR_OUTPUT
 106:Generated_Source\PSoC5/USBUART.c ****     };
 107:Generated_Source\PSoC5/USBUART.c ****     
 108:Generated_Source\PSoC5/USBUART.c **** #else
 109:Generated_Source\PSoC5/USBUART.c ****     #if (USBUART_EP_DMA_AUTO_OPT == 0u)
 110:Generated_Source\PSoC5/USBUART.c ****         static uint8 clearInDataRdyStatus = USBUART_ARB_EPX_CFG_DEFAULT;
 111:Generated_Source\PSoC5/USBUART.c ****         uint8 USBUART_DmaNextTd[USBUART_MAX_EP];
 112:Generated_Source\PSoC5/USBUART.c ****         const uint8 USBUART_epX_TD_TERMOUT_EN[USBUART_MAX_EP] =
 113:Generated_Source\PSoC5/USBUART.c ****         {
 114:Generated_Source\PSoC5/USBUART.c ****             0u,
 115:Generated_Source\PSoC5/USBUART.c ****             0u,
 116:Generated_Source\PSoC5/USBUART.c ****             0u,
 117:Generated_Source\PSoC5/USBUART.c ****             0u,
 118:Generated_Source\PSoC5/USBUART.c ****             0u,
 119:Generated_Source\PSoC5/USBUART.c ****             0u,
 120:Generated_Source\PSoC5/USBUART.c ****             0u,
 121:Generated_Source\PSoC5/USBUART.c ****             0u,
 122:Generated_Source\PSoC5/USBUART.c ****             0u,
 123:Generated_Source\PSoC5/USBUART.c ****         };
 124:Generated_Source\PSoC5/USBUART.c **** 
 125:Generated_Source\PSoC5/USBUART.c ****         volatile uint16 USBUART_inLength[USBUART_MAX_EP];
 126:Generated_Source\PSoC5/USBUART.c ****         const uint8 *USBUART_inDataPointer[USBUART_MAX_EP];
 127:Generated_Source\PSoC5/USBUART.c ****         volatile uint8 USBUART_inBufFull[USBUART_MAX_EP];
 128:Generated_Source\PSoC5/USBUART.c ****     #endif /* (USBUART_EP_DMA_AUTO_OPT == 0u) */
 129:Generated_Source\PSoC5/USBUART.c **** #endif /* (CY_PSOC4) */
 130:Generated_Source\PSoC5/USBUART.c **** #endif /* (USBUART_EP_MANAGEMENT_DMA_AUTO) */
 131:Generated_Source\PSoC5/USBUART.c **** 
 132:Generated_Source\PSoC5/USBUART.c **** 
 133:Generated_Source\PSoC5/USBUART.c **** /*******************************************************************************
 134:Generated_Source\PSoC5/USBUART.c **** * Function Name: USBUART_Start
 135:Generated_Source\PSoC5/USBUART.c **** ****************************************************************************//**
 136:Generated_Source\PSoC5/USBUART.c **** *
 137:Generated_Source\PSoC5/USBUART.c **** *   This function performs all required initialization for the USBFS component.
 138:Generated_Source\PSoC5/USBUART.c **** *   After this function call, the USB device initiates communication with the
 139:Generated_Source\PSoC5/USBUART.c **** *   host by pull-up D+ line. This is the preferred method to begin component
 140:Generated_Source\PSoC5/USBUART.c **** *   operation.
 141:Generated_Source\PSoC5/USBUART.c **** *
 142:Generated_Source\PSoC5/USBUART.c **** *   Note that global interrupts have to be enabled because interrupts are
 143:Generated_Source\PSoC5/USBUART.c **** *   required for USBFS component operation.
 144:Generated_Source\PSoC5/USBUART.c **** *
ARM GAS  C:\Users\aupen\AppData\Local\Temp\cczUxnbz.s 			page 4


 145:Generated_Source\PSoC5/USBUART.c **** *   PSoC 4200L devices: when USBFS component configured to DMA with Automatic
 146:Generated_Source\PSoC5/USBUART.c **** *   Buffer Management, the DMA interrupt priority is changed to the highest
 147:Generated_Source\PSoC5/USBUART.c **** *   (priority 0) inside this function.
 148:Generated_Source\PSoC5/USBUART.c **** *
 149:Generated_Source\PSoC5/USBUART.c **** *   PSoC 3/PSoC 5LP devices: when USBFS component configured to DMA with
 150:Generated_Source\PSoC5/USBUART.c **** *   Automatic Buffer Management, the Arbiter interrupt priority is changed to
 151:Generated_Source\PSoC5/USBUART.c **** *   the highest (priority 0) inside this function.
 152:Generated_Source\PSoC5/USBUART.c **** *
 153:Generated_Source\PSoC5/USBUART.c **** *  \param device
 154:Generated_Source\PSoC5/USBUART.c **** *          Contains the device number of the desired device descriptor.
 155:Generated_Source\PSoC5/USBUART.c **** *          The device number can be found in the Device Descriptor Tab of
 156:Generated_Source\PSoC5/USBUART.c **** *          "Configure" dialog, under the settings of desired Device Descriptor,
 157:Generated_Source\PSoC5/USBUART.c **** *          in the "Device Number" field.
 158:Generated_Source\PSoC5/USBUART.c **** *  \param mode:
 159:Generated_Source\PSoC5/USBUART.c **** *   The operating voltage. This determines whether the voltage regulator
 160:Generated_Source\PSoC5/USBUART.c **** *   is enabled for 5V operation or if pass through mode is used for 3.3V
 161:Generated_Source\PSoC5/USBUART.c **** *   operation. Symbolic names and their associated values are given in the
 162:Generated_Source\PSoC5/USBUART.c **** *   following list.
 163:Generated_Source\PSoC5/USBUART.c **** *
 164:Generated_Source\PSoC5/USBUART.c **** *       *USBUART_3V_OPERATION* - Disable voltage regulator and pass-
 165:Generated_Source\PSoC5/USBUART.c **** *                                      through Vcc for pull-up
 166:Generated_Source\PSoC5/USBUART.c **** *
 167:Generated_Source\PSoC5/USBUART.c **** *       *USBUART_5V_OPERATION* - Enable voltage regulator and use
 168:Generated_Source\PSoC5/USBUART.c **** *                                      regulator for pull-up
 169:Generated_Source\PSoC5/USBUART.c **** *
 170:Generated_Source\PSoC5/USBUART.c **** *       *USBUART_DWR_POWER_OPERATION* - Enable or disable the voltage
 171:Generated_Source\PSoC5/USBUART.c **** *                                      regulator depending on the power supply
 172:Generated_Source\PSoC5/USBUART.c **** *                                      voltage configuration in the DWR tab.
 173:Generated_Source\PSoC5/USBUART.c **** *                                      For PSoC 3/5LP devices, the VDDD supply
 174:Generated_Source\PSoC5/USBUART.c **** *                                      voltage is considered and for PSoC 4A-L,
 175:Generated_Source\PSoC5/USBUART.c **** *                                      the VBUS supply voltage is considered.*
 176:Generated_Source\PSoC5/USBUART.c **** * \globalvars
 177:Generated_Source\PSoC5/USBUART.c **** *  \ref USBUART_initVar
 178:Generated_Source\PSoC5/USBUART.c **** *
 179:Generated_Source\PSoC5/USBUART.c **** * \sideeffect
 180:Generated_Source\PSoC5/USBUART.c **** *   This function will reset all communication states to default.
 181:Generated_Source\PSoC5/USBUART.c **** *
 182:Generated_Source\PSoC5/USBUART.c **** * \reentrant
 183:Generated_Source\PSoC5/USBUART.c **** *  No.
 184:Generated_Source\PSoC5/USBUART.c **** *
 185:Generated_Source\PSoC5/USBUART.c **** *******************************************************************************/
 186:Generated_Source\PSoC5/USBUART.c **** void USBUART_Start(uint8 device, uint8 mode) 
 187:Generated_Source\PSoC5/USBUART.c **** {
 188:Generated_Source\PSoC5/USBUART.c ****     if (0u == USBUART_initVar)
 189:Generated_Source\PSoC5/USBUART.c ****     {
 190:Generated_Source\PSoC5/USBUART.c ****         USBUART_Init();
 191:Generated_Source\PSoC5/USBUART.c ****         USBUART_initVar = 1u;
 192:Generated_Source\PSoC5/USBUART.c ****     }
 193:Generated_Source\PSoC5/USBUART.c **** 
 194:Generated_Source\PSoC5/USBUART.c ****     USBUART_InitComponent(device, mode);
 195:Generated_Source\PSoC5/USBUART.c **** }
 196:Generated_Source\PSoC5/USBUART.c **** 
 197:Generated_Source\PSoC5/USBUART.c **** 
 198:Generated_Source\PSoC5/USBUART.c **** /*******************************************************************************
 199:Generated_Source\PSoC5/USBUART.c **** * Function Name: USBUART_Init
 200:Generated_Source\PSoC5/USBUART.c **** ****************************************************************************//**
 201:Generated_Source\PSoC5/USBUART.c **** *
ARM GAS  C:\Users\aupen\AppData\Local\Temp\cczUxnbz.s 			page 5


 202:Generated_Source\PSoC5/USBUART.c **** * This function initializes or restores the component according to the
 203:Generated_Source\PSoC5/USBUART.c **** * customizer Configure dialog settings. It is not necessary to call
 204:Generated_Source\PSoC5/USBUART.c **** * USBUART_Init() because the USBUART_Start() routine calls
 205:Generated_Source\PSoC5/USBUART.c **** * this function and is the preferred method to begin component operation.
 206:Generated_Source\PSoC5/USBUART.c **** *
 207:Generated_Source\PSoC5/USBUART.c **** * \reentrant
 208:Generated_Source\PSoC5/USBUART.c **** *  No.
 209:Generated_Source\PSoC5/USBUART.c **** *
 210:Generated_Source\PSoC5/USBUART.c **** *******************************************************************************/
 211:Generated_Source\PSoC5/USBUART.c **** void USBUART_Init(void) 
 212:Generated_Source\PSoC5/USBUART.c **** {
  28              		.loc 1 212 0
  29              		.cfi_startproc
  30              		@ args = 0, pretend = 0, frame = 0
  31              		@ frame_needed = 0, uses_anonymous_args = 0
  32 0000 F8B5     		push	{r3, r4, r5, r6, r7, lr}
  33              		.cfi_def_cfa_offset 24
  34              		.cfi_offset 3, -24
  35              		.cfi_offset 4, -20
  36              		.cfi_offset 5, -16
  37              		.cfi_offset 6, -12
  38              		.cfi_offset 7, -8
  39              		.cfi_offset 14, -4
 213:Generated_Source\PSoC5/USBUART.c **** #if (CY_PSOC4)
 214:Generated_Source\PSoC5/USBUART.c ****     /* Enable clock to USB IP. */
 215:Generated_Source\PSoC5/USBUART.c ****     USBUART_USB_CLK_EN_REG = USBUART_USB_CLK_CSR_CLK_EN;
 216:Generated_Source\PSoC5/USBUART.c **** 
 217:Generated_Source\PSoC5/USBUART.c ****     /* The internal regulator (CR1.REG_ENABLE) is enabled in
 218:Generated_Source\PSoC5/USBUART.c ****     * USBUART_InitComponent() if it is required.
 219:Generated_Source\PSoC5/USBUART.c ****     */
 220:Generated_Source\PSoC5/USBUART.c **** 
 221:Generated_Source\PSoC5/USBUART.c ****     /* Enable USBIO control on drive mode of D+ and D- pins. */
 222:Generated_Source\PSoC5/USBUART.c ****     USBUART_USBIO_CR1_REG &= ~ (uint32) USBUART_USBIO_CR1_IOMODE;
 223:Generated_Source\PSoC5/USBUART.c **** 
 224:Generated_Source\PSoC5/USBUART.c ****     /* Set number of LF CLK to detect UBS bus reset. */
 225:Generated_Source\PSoC5/USBUART.c ****     USBUART_BUS_RST_CNT_REG = USBUART_DEFUALT_BUS_RST_CNT;
 226:Generated_Source\PSoC5/USBUART.c **** 
 227:Generated_Source\PSoC5/USBUART.c ****     /* Select VBUS detection source and clear PHY isolate. The application level
 228:Generated_Source\PSoC5/USBUART.c ****     * must ensure that VBUS is valid. There is no need to wait 2us before VBUS is valid.
 229:Generated_Source\PSoC5/USBUART.c ****     */
 230:Generated_Source\PSoC5/USBUART.c ****     USBUART_POWER_CTRL_REG = USBUART_DEFAULT_POWER_CTRL_VBUS;
 231:Generated_Source\PSoC5/USBUART.c **** 
 232:Generated_Source\PSoC5/USBUART.c ****     /* Enable PHY detector and single-ended and differential receivers. */
 233:Generated_Source\PSoC5/USBUART.c ****     USBUART_POWER_CTRL_REG |= USBUART_DEFAULT_POWER_CTRL_PHY;
 234:Generated_Source\PSoC5/USBUART.c **** 
 235:Generated_Source\PSoC5/USBUART.c ****     /* Suspend clear sequence. */
 236:Generated_Source\PSoC5/USBUART.c ****     USBUART_POWER_CTRL_REG &= (uint32) ~USBUART_POWER_CTRL_SUSPEND;
 237:Generated_Source\PSoC5/USBUART.c ****     CyDelayUs(USBUART_WAIT_SUSPEND_DEL_DISABLE);
 238:Generated_Source\PSoC5/USBUART.c ****     USBUART_POWER_CTRL_REG &= (uint32) ~USBUART_POWER_CTRL_SUSPEND_DEL;
 239:Generated_Source\PSoC5/USBUART.c **** 
 240:Generated_Source\PSoC5/USBUART.c ****     /* Sets IMO lock options and clear all other bits. */
 241:Generated_Source\PSoC5/USBUART.c ****     USBUART_CR1_REG = USBUART_DEFUALT_CR1;
 242:Generated_Source\PSoC5/USBUART.c **** 
 243:Generated_Source\PSoC5/USBUART.c ****     /* Configure level (hi, lo, med) for each interrupt source. */
 244:Generated_Source\PSoC5/USBUART.c ****     USBUART_INTR_LVL_SEL_REG = USBUART_DEFAULT_INTR_LVL_SEL;
 245:Generated_Source\PSoC5/USBUART.c **** 
 246:Generated_Source\PSoC5/USBUART.c ****     /* Configure interrupt sources from: SOF, Bus Reset and EP0. */
ARM GAS  C:\Users\aupen\AppData\Local\Temp\cczUxnbz.s 			page 6


 247:Generated_Source\PSoC5/USBUART.c ****     USBUART_INTR_SIE_MASK_REG = USBUART_DEFAULT_INTR_SIE_MASK;
 248:Generated_Source\PSoC5/USBUART.c **** 
 249:Generated_Source\PSoC5/USBUART.c **** #else
 250:Generated_Source\PSoC5/USBUART.c ****     uint8 enableInterrupts = CyEnterCriticalSection();
  40              		.loc 1 250 0
  41 0002 FFF7FEFF 		bl	CyEnterCriticalSection
  42              	.LVL0:
 251:Generated_Source\PSoC5/USBUART.c **** 
 252:Generated_Source\PSoC5/USBUART.c **** #if (USBUART_EP_MANAGEMENT_DMA)
 253:Generated_Source\PSoC5/USBUART.c ****     uint16 i;
 254:Generated_Source\PSoC5/USBUART.c **** #endif /* (USBUART_EP_MANAGEMENT_DMA) */
 255:Generated_Source\PSoC5/USBUART.c **** 
 256:Generated_Source\PSoC5/USBUART.c ****     /* Enable USB block. */
 257:Generated_Source\PSoC5/USBUART.c ****     USBUART_PM_ACT_CFG_REG |= USBUART_PM_ACT_EN_FSUSB;
  43              		.loc 1 257 0
  44 0006 404A     		ldr	r2, .L2
 258:Generated_Source\PSoC5/USBUART.c ****     /* Enable USB block for Standby Power Mode. */
 259:Generated_Source\PSoC5/USBUART.c ****     USBUART_PM_STBY_CFG_REG |= USBUART_PM_STBY_EN_FSUSB;
 260:Generated_Source\PSoC5/USBUART.c **** 
 261:Generated_Source\PSoC5/USBUART.c ****     /* Enable core clock. */
 262:Generated_Source\PSoC5/USBUART.c ****     USBUART_USB_CLK_EN_REG = USBUART_USB_CLK_ENABLE;
  45              		.loc 1 262 0
  46 0008 0126     		movs	r6, #1
 257:Generated_Source\PSoC5/USBUART.c ****     /* Enable USB block for Standby Power Mode. */
  47              		.loc 1 257 0
  48 000a 1378     		ldrb	r3, [r2]	@ zero_extendqisi2
 263:Generated_Source\PSoC5/USBUART.c **** 
 264:Generated_Source\PSoC5/USBUART.c ****     USBUART_CR1_REG = USBUART_CR1_ENABLE_LOCK;
  49              		.loc 1 264 0
  50 000c 0225     		movs	r5, #2
 257:Generated_Source\PSoC5/USBUART.c ****     /* Enable USB block for Standby Power Mode. */
  51              		.loc 1 257 0
  52 000e 43F00103 		orr	r3, r3, #1
  53 0012 1370     		strb	r3, [r2]
 259:Generated_Source\PSoC5/USBUART.c **** 
  54              		.loc 1 259 0
  55 0014 137C     		ldrb	r3, [r2, #16]	@ zero_extendqisi2
 265:Generated_Source\PSoC5/USBUART.c **** 
 266:Generated_Source\PSoC5/USBUART.c ****     /* ENABLING USBIO PADS IN USB MODE FROM I/O MODE. */
 267:Generated_Source\PSoC5/USBUART.c ****     /* Ensure USB transmit enable is low (USB_USBIO_CR0.ten). - Manual Transmission - Disabled. */
 268:Generated_Source\PSoC5/USBUART.c ****     USBUART_USBIO_CR0_REG &= (uint8) ~USBUART_USBIO_CR0_TEN;
 269:Generated_Source\PSoC5/USBUART.c ****     CyDelayUs(USBUART_WAIT_REG_STABILITY_50NS);  /* ~50ns delay. */
 270:Generated_Source\PSoC5/USBUART.c ****     /* Disable USBIO by asserting PM.USB_CR0.fsusbio_pd_n(Inverted.
 271:Generated_Source\PSoC5/USBUART.c ****     *  high. These bits will be set low by the power manager out-of-reset.
 272:Generated_Source\PSoC5/USBUART.c ****     *  Also confirm USBIO pull-up is disabled.
 273:Generated_Source\PSoC5/USBUART.c ****     */
 274:Generated_Source\PSoC5/USBUART.c ****     USBUART_PM_USB_CR0_REG &= (uint8) ~(USBUART_PM_USB_CR0_PD_N |
  56              		.loc 1 274 0
  57 0016 3D4C     		ldr	r4, .L2+4
 259:Generated_Source\PSoC5/USBUART.c **** 
  58              		.loc 1 259 0
  59 0018 43F00103 		orr	r3, r3, #1
  60 001c 1374     		strb	r3, [r2, #16]
 262:Generated_Source\PSoC5/USBUART.c **** 
  61              		.loc 1 262 0
  62 001e 3C4B     		ldr	r3, .L2+8
 268:Generated_Source\PSoC5/USBUART.c ****     CyDelayUs(USBUART_WAIT_REG_STABILITY_50NS);  /* ~50ns delay. */
ARM GAS  C:\Users\aupen\AppData\Local\Temp\cczUxnbz.s 			page 7


  63              		.loc 1 268 0
  64 0020 02F5E352 		add	r2, r2, #7264
 262:Generated_Source\PSoC5/USBUART.c **** 
  65              		.loc 1 262 0
  66 0024 1E70     		strb	r6, [r3]
 268:Generated_Source\PSoC5/USBUART.c ****     CyDelayUs(USBUART_WAIT_REG_STABILITY_50NS);  /* ~50ns delay. */
  67              		.loc 1 268 0
  68 0026 0B32     		adds	r2, r2, #11
 264:Generated_Source\PSoC5/USBUART.c **** 
  69              		.loc 1 264 0
  70 0028 03F8945C 		strb	r5, [r3, #-148]
 268:Generated_Source\PSoC5/USBUART.c ****     CyDelayUs(USBUART_WAIT_REG_STABILITY_50NS);  /* ~50ns delay. */
  71              		.loc 1 268 0
  72 002c 1378     		ldrb	r3, [r2]	@ zero_extendqisi2
 250:Generated_Source\PSoC5/USBUART.c **** 
  73              		.loc 1 250 0
  74 002e 0746     		mov	r7, r0
  75              	.LVL1:
 268:Generated_Source\PSoC5/USBUART.c ****     CyDelayUs(USBUART_WAIT_REG_STABILITY_50NS);  /* ~50ns delay. */
  76              		.loc 1 268 0
  77 0030 03F07F03 		and	r3, r3, #127
  78 0034 1370     		strb	r3, [r2]
 269:Generated_Source\PSoC5/USBUART.c ****     /* Disable USBIO by asserting PM.USB_CR0.fsusbio_pd_n(Inverted.
  79              		.loc 1 269 0
  80 0036 0020     		movs	r0, #0
  81 0038 FFF7FEFF 		bl	CyDelayUs
  82              	.LVL2:
  83              		.loc 1 274 0
  84 003c 2378     		ldrb	r3, [r4]	@ zero_extendqisi2
 275:Generated_Source\PSoC5/USBUART.c ****                                                  USBUART_PM_USB_CR0_PD_PULLUP_N);
 276:Generated_Source\PSoC5/USBUART.c **** 
 277:Generated_Source\PSoC5/USBUART.c ****     /* Select IOMODE to USB mode. */
 278:Generated_Source\PSoC5/USBUART.c ****     USBUART_USBIO_CR1_REG &= (uint8) ~USBUART_USBIO_CR1_IOMODE;
  85              		.loc 1 278 0
  86 003e 354A     		ldr	r2, .L2+12
 274:Generated_Source\PSoC5/USBUART.c ****                                                  USBUART_PM_USB_CR0_PD_PULLUP_N);
  87              		.loc 1 274 0
  88 0040 03F0F903 		and	r3, r3, #249
  89 0044 2370     		strb	r3, [r4]
  90              		.loc 1 278 0
  91 0046 1378     		ldrb	r3, [r2]	@ zero_extendqisi2
 279:Generated_Source\PSoC5/USBUART.c **** 
 280:Generated_Source\PSoC5/USBUART.c ****     /* Enable USBIO reference by setting PM.USB_CR0.fsusbio_ref_en. */
 281:Generated_Source\PSoC5/USBUART.c ****     USBUART_PM_USB_CR0_REG |= USBUART_PM_USB_CR0_REF_EN;
 282:Generated_Source\PSoC5/USBUART.c ****     /* Reference is available for 1us after regulator is enabled. */
 283:Generated_Source\PSoC5/USBUART.c ****     CyDelayUs(USBUART_WAIT_REG_STABILITY_1US);
  92              		.loc 1 283 0
  93 0048 3046     		mov	r0, r6
 278:Generated_Source\PSoC5/USBUART.c **** 
  94              		.loc 1 278 0
  95 004a 03F0DF03 		and	r3, r3, #223
  96 004e 1370     		strb	r3, [r2]
 281:Generated_Source\PSoC5/USBUART.c ****     /* Reference is available for 1us after regulator is enabled. */
  97              		.loc 1 281 0
  98 0050 2378     		ldrb	r3, [r4]	@ zero_extendqisi2
  99 0052 3343     		orrs	r3, r3, r6
 100 0054 2370     		strb	r3, [r4]
ARM GAS  C:\Users\aupen\AppData\Local\Temp\cczUxnbz.s 			page 8


 101              		.loc 1 283 0
 102 0056 FFF7FEFF 		bl	CyDelayUs
 103              	.LVL3:
 284:Generated_Source\PSoC5/USBUART.c ****     /* OR 40us after power is restored. */
 285:Generated_Source\PSoC5/USBUART.c ****     CyDelayUs(USBUART_WAIT_VREF_RESTORE);
 104              		.loc 1 285 0
 105 005a 2820     		movs	r0, #40
 106 005c FFF7FEFF 		bl	CyDelayUs
 107              	.LVL4:
 286:Generated_Source\PSoC5/USBUART.c ****     /* Ensure single-ended disable bits are low (PRT15.INP_DIS[7:6])(input receiver enabled). */
 287:Generated_Source\PSoC5/USBUART.c ****     USBUART_DM_INP_DIS_REG &= (uint8) ~USBUART_DM_MASK;
 108              		.loc 1 287 0
 109 0060 2D4B     		ldr	r3, .L2+16
 288:Generated_Source\PSoC5/USBUART.c ****     USBUART_DP_INP_DIS_REG &= (uint8) ~USBUART_DP_MASK;
 289:Generated_Source\PSoC5/USBUART.c **** 
 290:Generated_Source\PSoC5/USBUART.c ****     /* Enable USBIO. */
 291:Generated_Source\PSoC5/USBUART.c ****     USBUART_PM_USB_CR0_REG |= USBUART_PM_USB_CR0_PD_N;
 292:Generated_Source\PSoC5/USBUART.c ****     CyDelayUs(USBUART_WAIT_PD_PULLUP_N_ENABLE);
 110              		.loc 1 292 0
 111 0062 2846     		mov	r0, r5
 287:Generated_Source\PSoC5/USBUART.c ****     USBUART_DP_INP_DIS_REG &= (uint8) ~USBUART_DP_MASK;
 112              		.loc 1 287 0
 113 0064 1A78     		ldrb	r2, [r3]	@ zero_extendqisi2
 114 0066 02F07F02 		and	r2, r2, #127
 115 006a 1A70     		strb	r2, [r3]
 288:Generated_Source\PSoC5/USBUART.c ****     USBUART_DP_INP_DIS_REG &= (uint8) ~USBUART_DP_MASK;
 116              		.loc 1 288 0
 117 006c 1A78     		ldrb	r2, [r3]	@ zero_extendqisi2
 118 006e 02F0BF02 		and	r2, r2, #191
 119 0072 1A70     		strb	r2, [r3]
 291:Generated_Source\PSoC5/USBUART.c ****     CyDelayUs(USBUART_WAIT_PD_PULLUP_N_ENABLE);
 120              		.loc 1 291 0
 121 0074 2378     		ldrb	r3, [r4]	@ zero_extendqisi2
 122 0076 2B43     		orrs	r3, r3, r5
 123 0078 2370     		strb	r3, [r4]
 124              		.loc 1 292 0
 125 007a FFF7FEFF 		bl	CyDelayUs
 126              	.LVL5:
 293:Generated_Source\PSoC5/USBUART.c ****     /* Set USBIO pull-up enable. */
 294:Generated_Source\PSoC5/USBUART.c ****     USBUART_PM_USB_CR0_REG |= USBUART_PM_USB_CR0_PD_PULLUP_N;
 127              		.loc 1 294 0
 128 007e 2378     		ldrb	r3, [r4]	@ zero_extendqisi2
 295:Generated_Source\PSoC5/USBUART.c **** 
 296:Generated_Source\PSoC5/USBUART.c ****     /* Reset Arbiter Write Address register for endpoint 1. */
 297:Generated_Source\PSoC5/USBUART.c ****     CY_SET_REG8(USBUART_ARB_RW1_WA_PTR,     0u);
 129              		.loc 1 297 0
 130 0080 264A     		ldr	r2, .L2+20
 294:Generated_Source\PSoC5/USBUART.c **** 
 131              		.loc 1 294 0
 132 0082 43F00403 		orr	r3, r3, #4
 133 0086 2370     		strb	r3, [r4]
 134              		.loc 1 297 0
 135 0088 0023     		movs	r3, #0
 136 008a 1370     		strb	r3, [r2]
 298:Generated_Source\PSoC5/USBUART.c ****     CY_SET_REG8(USBUART_ARB_RW1_WA_MSB_PTR, 0u);
 299:Generated_Source\PSoC5/USBUART.c **** 
 300:Generated_Source\PSoC5/USBUART.c **** #if (USBUART_EP_MANAGEMENT_DMA)
ARM GAS  C:\Users\aupen\AppData\Local\Temp\cczUxnbz.s 			page 9


 301:Generated_Source\PSoC5/USBUART.c ****     /* Initialize transfer descriptor. This will be used to detect DMA state - initialized or not. 
 302:Generated_Source\PSoC5/USBUART.c ****     for (i = 0u; i < USBUART_MAX_EP; ++i)
 303:Generated_Source\PSoC5/USBUART.c ****     {
 304:Generated_Source\PSoC5/USBUART.c ****         USBUART_DmaTd[i] = DMA_INVALID_TD;
 305:Generated_Source\PSoC5/USBUART.c **** 
 306:Generated_Source\PSoC5/USBUART.c ****     #if (USBUART_EP_MANAGEMENT_DMA_AUTO && (USBUART_EP_DMA_AUTO_OPT == 0u))
 307:Generated_Source\PSoC5/USBUART.c ****         USBUART_DmaNextTd[i] = DMA_INVALID_TD;
 308:Generated_Source\PSoC5/USBUART.c ****     #endif /* (USBUART_EP_MANAGEMENT_DMA_AUTO && (USBUART_EP_DMA_AUTO_OPT == 0u)) */
 309:Generated_Source\PSoC5/USBUART.c ****     }
 310:Generated_Source\PSoC5/USBUART.c **** #endif /* (USBUART_EP_MANAGEMENT_DMA) */
 311:Generated_Source\PSoC5/USBUART.c **** 
 312:Generated_Source\PSoC5/USBUART.c ****     CyExitCriticalSection(enableInterrupts);
 137              		.loc 1 312 0
 138 008c 3846     		mov	r0, r7
 298:Generated_Source\PSoC5/USBUART.c ****     CY_SET_REG8(USBUART_ARB_RW1_WA_MSB_PTR, 0u);
 139              		.loc 1 298 0
 140 008e 5370     		strb	r3, [r2, #1]
 141              		.loc 1 312 0
 142 0090 FFF7FEFF 		bl	CyExitCriticalSection
 143              	.LVL6:
 313:Generated_Source\PSoC5/USBUART.c **** #endif /* (CY_PSOC4) */
 314:Generated_Source\PSoC5/USBUART.c **** 
 315:Generated_Source\PSoC5/USBUART.c ****     /* Configure interrupts from USB block. */
 316:Generated_Source\PSoC5/USBUART.c **** #if (CY_PSOC4)
 317:Generated_Source\PSoC5/USBUART.c ****     /* Configure hi_int: set handler and priority. */
 318:Generated_Source\PSoC5/USBUART.c ****     CyIntSetPriority     (USBUART_INTR_HI_VECT_NUM,  USBUART_INTR_HI_PRIORITY);
 319:Generated_Source\PSoC5/USBUART.c ****     (void) CyIntSetVector(USBUART_INTR_HI_VECT_NUM, &USBUART_INTR_HI_ISR);
 320:Generated_Source\PSoC5/USBUART.c **** 
 321:Generated_Source\PSoC5/USBUART.c ****     /* Configure lo_int: set handler and priority. */
 322:Generated_Source\PSoC5/USBUART.c ****     CyIntSetPriority     (USBUART_INTR_LO_VECT_NUM,  USBUART_INTR_LO_PRIORITY);
 323:Generated_Source\PSoC5/USBUART.c ****     (void) CyIntSetVector(USBUART_INTR_LO_VECT_NUM, &USBUART_INTR_LO_ISR);
 324:Generated_Source\PSoC5/USBUART.c **** 
 325:Generated_Source\PSoC5/USBUART.c ****     /* Configure med_int: set handler and priority (routed through DSI). */
 326:Generated_Source\PSoC5/USBUART.c ****     CyIntSetPriority     (USBUART_INTR_MED_VECT_NUM,  USBUART_INTR_MED_PRIORITY);
 327:Generated_Source\PSoC5/USBUART.c ****     (void) CyIntSetVector(USBUART_INTR_MED_VECT_NUM, &USBUART_INTR_MED_ISR);
 328:Generated_Source\PSoC5/USBUART.c **** 
 329:Generated_Source\PSoC5/USBUART.c **** #else
 330:Generated_Source\PSoC5/USBUART.c ****     /* Set bus reset interrupt. */
 331:Generated_Source\PSoC5/USBUART.c ****     CyIntSetPriority(USBUART_BUS_RESET_VECT_NUM, USBUART_BUS_RESET_PRIOR);
 144              		.loc 1 331 0
 145 0094 0721     		movs	r1, #7
 146 0096 1720     		movs	r0, #23
 147 0098 FFF7FEFF 		bl	CyIntSetPriority
 148              	.LVL7:
 332:Generated_Source\PSoC5/USBUART.c ****     (void) CyIntSetVector(USBUART_BUS_RESET_VECT_NUM,   &USBUART_BUS_RESET_ISR);
 149              		.loc 1 332 0
 150 009c 2049     		ldr	r1, .L2+24
 151 009e 1720     		movs	r0, #23
 152 00a0 FFF7FEFF 		bl	CyIntSetVector
 153              	.LVL8:
 333:Generated_Source\PSoC5/USBUART.c **** 
 334:Generated_Source\PSoC5/USBUART.c ****     /* Set Control Endpoint Interrupt. */
 335:Generated_Source\PSoC5/USBUART.c ****     CyIntSetPriority(USBUART_EP_0_VECT_NUM, USBUART_EP_0_PRIOR);
 154              		.loc 1 335 0
 155 00a4 0721     		movs	r1, #7
 156 00a6 1820     		movs	r0, #24
 157 00a8 FFF7FEFF 		bl	CyIntSetPriority
ARM GAS  C:\Users\aupen\AppData\Local\Temp\cczUxnbz.s 			page 10


 158              	.LVL9:
 336:Generated_Source\PSoC5/USBUART.c ****     (void) CyIntSetVector(USBUART_EP_0_VECT_NUM,   &USBUART_EP_0_ISR);
 159              		.loc 1 336 0
 160 00ac 1D49     		ldr	r1, .L2+28
 161 00ae 1820     		movs	r0, #24
 162 00b0 FFF7FEFF 		bl	CyIntSetVector
 163              	.LVL10:
 337:Generated_Source\PSoC5/USBUART.c **** 
 338:Generated_Source\PSoC5/USBUART.c ****     /* Set SOF interrupt. */
 339:Generated_Source\PSoC5/USBUART.c ****     #if (USBUART_SOF_ISR_ACTIVE)
 340:Generated_Source\PSoC5/USBUART.c ****         CyIntSetPriority     (USBUART_SOF_VECT_NUM,  USBUART_SOF_PRIOR);
 164              		.loc 1 340 0
 165 00b4 0721     		movs	r1, #7
 166 00b6 1520     		movs	r0, #21
 167 00b8 FFF7FEFF 		bl	CyIntSetPriority
 168              	.LVL11:
 341:Generated_Source\PSoC5/USBUART.c ****         (void) CyIntSetVector(USBUART_SOF_VECT_NUM, &USBUART_SOF_ISR);
 169              		.loc 1 341 0
 170 00bc 1A49     		ldr	r1, .L2+32
 171 00be 1520     		movs	r0, #21
 172 00c0 FFF7FEFF 		bl	CyIntSetVector
 173              	.LVL12:
 342:Generated_Source\PSoC5/USBUART.c ****     #endif /* (USBUART_SOF_ISR_ACTIVE) */
 343:Generated_Source\PSoC5/USBUART.c **** 
 344:Generated_Source\PSoC5/USBUART.c ****     /* Set Data Endpoint 1 Interrupt. */
 345:Generated_Source\PSoC5/USBUART.c ****     #if (USBUART_EP1_ISR_ACTIVE)
 346:Generated_Source\PSoC5/USBUART.c ****         CyIntSetPriority     (USBUART_EP_1_VECT_NUM,  USBUART_EP_1_PRIOR);
 174              		.loc 1 346 0
 175 00c4 3046     		mov	r0, r6
 176 00c6 0721     		movs	r1, #7
 177 00c8 FFF7FEFF 		bl	CyIntSetPriority
 178              	.LVL13:
 347:Generated_Source\PSoC5/USBUART.c ****         (void) CyIntSetVector(USBUART_EP_1_VECT_NUM,  &USBUART_EP_1_ISR);
 179              		.loc 1 347 0
 180 00cc 1749     		ldr	r1, .L2+36
 181 00ce 3046     		mov	r0, r6
 182 00d0 FFF7FEFF 		bl	CyIntSetVector
 183              	.LVL14:
 348:Generated_Source\PSoC5/USBUART.c ****     #endif /* (USBUART_EP1_ISR_ACTIVE) */
 349:Generated_Source\PSoC5/USBUART.c **** 
 350:Generated_Source\PSoC5/USBUART.c ****     /* Set Data Endpoint 2 Interrupt. */
 351:Generated_Source\PSoC5/USBUART.c ****     #if (USBUART_EP2_ISR_ACTIVE)
 352:Generated_Source\PSoC5/USBUART.c ****         CyIntSetPriority     (USBUART_EP_2_VECT_NUM,  USBUART_EP_2_PRIOR);
 184              		.loc 1 352 0
 185 00d4 2846     		mov	r0, r5
 186 00d6 0721     		movs	r1, #7
 187 00d8 FFF7FEFF 		bl	CyIntSetPriority
 188              	.LVL15:
 353:Generated_Source\PSoC5/USBUART.c ****         (void) CyIntSetVector(USBUART_EP_2_VECT_NUM, &USBUART_EP_2_ISR);
 189              		.loc 1 353 0
 190 00dc 1449     		ldr	r1, .L2+40
 191 00de 2846     		mov	r0, r5
 192 00e0 FFF7FEFF 		bl	CyIntSetVector
 193              	.LVL16:
 354:Generated_Source\PSoC5/USBUART.c ****     #endif /* (USBUART_EP2_ISR_ACTIVE) */
 355:Generated_Source\PSoC5/USBUART.c **** 
 356:Generated_Source\PSoC5/USBUART.c ****     /* Set Data Endpoint 3 Interrupt. */
ARM GAS  C:\Users\aupen\AppData\Local\Temp\cczUxnbz.s 			page 11


 357:Generated_Source\PSoC5/USBUART.c ****     #if (USBUART_EP3_ISR_ACTIVE)
 358:Generated_Source\PSoC5/USBUART.c ****         CyIntSetPriority     (USBUART_EP_3_VECT_NUM,  USBUART_EP_3_PRIOR);
 194              		.loc 1 358 0
 195 00e4 0721     		movs	r1, #7
 196 00e6 0320     		movs	r0, #3
 197 00e8 FFF7FEFF 		bl	CyIntSetPriority
 198              	.LVL17:
 359:Generated_Source\PSoC5/USBUART.c ****         (void) CyIntSetVector(USBUART_EP_3_VECT_NUM, &USBUART_EP_3_ISR);
 199              		.loc 1 359 0
 200 00ec 1149     		ldr	r1, .L2+44
 201 00ee 0320     		movs	r0, #3
 202 00f0 FFF7FEFF 		bl	CyIntSetVector
 203              	.LVL18:
 360:Generated_Source\PSoC5/USBUART.c ****     #endif /* (USBUART_EP3_ISR_ACTIVE) */
 361:Generated_Source\PSoC5/USBUART.c **** 
 362:Generated_Source\PSoC5/USBUART.c ****     /* Set Data Endpoint 4 Interrupt. */
 363:Generated_Source\PSoC5/USBUART.c ****     #if (USBUART_EP4_ISR_ACTIVE)
 364:Generated_Source\PSoC5/USBUART.c ****         CyIntSetPriority     (USBUART_EP_4_VECT_NUM,  USBUART_EP_4_PRIOR);
 365:Generated_Source\PSoC5/USBUART.c ****         (void) CyIntSetVector(USBUART_EP_4_VECT_NUM, &USBUART_EP_4_ISR);
 366:Generated_Source\PSoC5/USBUART.c ****     #endif /* (USBUART_EP4_ISR_ACTIVE) */
 367:Generated_Source\PSoC5/USBUART.c **** 
 368:Generated_Source\PSoC5/USBUART.c ****     /* Set Data Endpoint 5 Interrupt. */
 369:Generated_Source\PSoC5/USBUART.c ****     #if (USBUART_EP5_ISR_ACTIVE)
 370:Generated_Source\PSoC5/USBUART.c ****         CyIntSetPriority     (USBUART_EP_5_VECT_NUM,  USBUART_EP_5_PRIOR);
 371:Generated_Source\PSoC5/USBUART.c ****         (void) CyIntSetVector(USBUART_EP_5_VECT_NUM, &USBUART_EP_5_ISR);
 372:Generated_Source\PSoC5/USBUART.c ****     #endif /* (USBUART_EP5_ISR_ACTIVE) */
 373:Generated_Source\PSoC5/USBUART.c **** 
 374:Generated_Source\PSoC5/USBUART.c ****     /* Set Data Endpoint 6 Interrupt. */
 375:Generated_Source\PSoC5/USBUART.c ****     #if (USBUART_EP6_ISR_ACTIVE)
 376:Generated_Source\PSoC5/USBUART.c ****         CyIntSetPriority     (USBUART_EP_6_VECT_NUM,  USBUART_EP_6_PRIOR);
 377:Generated_Source\PSoC5/USBUART.c ****         (void) CyIntSetVector(USBUART_EP_6_VECT_NUM, &USBUART_EP_6_ISR);
 378:Generated_Source\PSoC5/USBUART.c ****     #endif /* (USBUART_EP6_ISR_ACTIVE) */
 379:Generated_Source\PSoC5/USBUART.c **** 
 380:Generated_Source\PSoC5/USBUART.c ****      /* Set Data Endpoint 7 Interrupt. */
 381:Generated_Source\PSoC5/USBUART.c ****     #if (USBUART_EP7_ISR_ACTIVE)
 382:Generated_Source\PSoC5/USBUART.c ****         CyIntSetPriority     (USBUART_EP_7_VECT_NUM,  USBUART_EP_7_PRIOR);
 383:Generated_Source\PSoC5/USBUART.c ****         (void) CyIntSetVector(USBUART_EP_7_VECT_NUM, &USBUART_EP_7_ISR);
 384:Generated_Source\PSoC5/USBUART.c ****     #endif /* (USBUART_EP7_ISR_ACTIVE) */
 385:Generated_Source\PSoC5/USBUART.c **** 
 386:Generated_Source\PSoC5/USBUART.c ****     /* Set Data Endpoint 8 Interrupt. */
 387:Generated_Source\PSoC5/USBUART.c ****     #if (USBUART_EP8_ISR_ACTIVE)
 388:Generated_Source\PSoC5/USBUART.c ****         CyIntSetPriority     (USBUART_EP_8_VECT_NUM,  USBUART_EP_8_PRIOR);
 389:Generated_Source\PSoC5/USBUART.c ****         (void) CyIntSetVector(USBUART_EP_8_VECT_NUM, &USBUART_EP_8_ISR);
 390:Generated_Source\PSoC5/USBUART.c ****     #endif /* (USBUART_EP8_ISR_ACTIVE) */
 391:Generated_Source\PSoC5/USBUART.c **** 
 392:Generated_Source\PSoC5/USBUART.c ****     /* Set ARB Interrupt. */
 393:Generated_Source\PSoC5/USBUART.c ****     #if (USBUART_EP_MANAGEMENT_DMA && USBUART_ARB_ISR_ACTIVE)
 394:Generated_Source\PSoC5/USBUART.c ****         CyIntSetPriority     (USBUART_ARB_VECT_NUM,  USBUART_ARB_PRIOR);
 395:Generated_Source\PSoC5/USBUART.c ****         (void) CyIntSetVector(USBUART_ARB_VECT_NUM, &USBUART_ARB_ISR);
 396:Generated_Source\PSoC5/USBUART.c ****     #endif /* (USBUART_EP_MANAGEMENT_DMA && USBUART_ARB_ISR_ACTIVE) */
 397:Generated_Source\PSoC5/USBUART.c **** #endif /* (CY_PSOC4) */
 398:Generated_Source\PSoC5/USBUART.c **** 
 399:Generated_Source\PSoC5/USBUART.c ****     /* Common: Configure GPIO interrupt for wakeup. */
 400:Generated_Source\PSoC5/USBUART.c **** #if (USBUART_DP_ISR_ACTIVE)
 401:Generated_Source\PSoC5/USBUART.c ****     CyIntSetPriority     (USBUART_DP_INTC_VECT_NUM,  USBUART_DP_INTC_PRIORITY);
 204              		.loc 1 401 0
 205 00f4 0721     		movs	r1, #7
ARM GAS  C:\Users\aupen\AppData\Local\Temp\cczUxnbz.s 			page 12


 206 00f6 0C20     		movs	r0, #12
 207 00f8 FFF7FEFF 		bl	CyIntSetPriority
 208              	.LVL19:
 402:Generated_Source\PSoC5/USBUART.c ****     (void) CyIntSetVector(USBUART_DP_INTC_VECT_NUM, &USBUART_DP_ISR);
 403:Generated_Source\PSoC5/USBUART.c **** #endif /* (USBUART_DP_ISR_ACTIVE) */
 404:Generated_Source\PSoC5/USBUART.c **** 
 405:Generated_Source\PSoC5/USBUART.c **** #if (USBUART_EP_MANAGEMENT_DMA && CY_PSOC4)
 406:Generated_Source\PSoC5/USBUART.c ****     /* Initialize DMA channels. */
 407:Generated_Source\PSoC5/USBUART.c ****     USBUART_InitEpDma();
 408:Generated_Source\PSoC5/USBUART.c **** #endif /* (USBUART_EP_MANAGEMENT_DMA && CY_PSOC4) */
 409:Generated_Source\PSoC5/USBUART.c **** }
 209              		.loc 1 409 0
 210 00fc BDE8F840 		pop	{r3, r4, r5, r6, r7, lr}
 211              		.cfi_restore 14
 212              		.cfi_restore 7
 213              		.cfi_restore 6
 214              		.cfi_restore 5
 215              		.cfi_restore 4
 216              		.cfi_restore 3
 217              		.cfi_def_cfa_offset 0
 218              	.LVL20:
 402:Generated_Source\PSoC5/USBUART.c ****     (void) CyIntSetVector(USBUART_DP_INTC_VECT_NUM, &USBUART_DP_ISR);
 219              		.loc 1 402 0
 220 0100 0D49     		ldr	r1, .L2+48
 221 0102 0C20     		movs	r0, #12
 222 0104 FFF7FEBF 		b	CyIntSetVector
 223              	.LVL21:
 224              	.L3:
 225              		.align	2
 226              	.L2:
 227 0108 A5430040 		.word	1073759141
 228 010c 94430040 		.word	1073759124
 229 0110 9D600040 		.word	1073766557
 230 0114 12600040 		.word	1073766418
 231 0118 F8510040 		.word	1073762808
 232 011c 84600040 		.word	1073766532
 233 0120 00000000 		.word	USBUART_BUS_RESET_ISR
 234 0124 00000000 		.word	USBUART_EP_0_ISR
 235 0128 00000000 		.word	USBUART_SOF_ISR
 236 012c 00000000 		.word	USBUART_EP_1_ISR
 237 0130 00000000 		.word	USBUART_EP_2_ISR
 238 0134 00000000 		.word	USBUART_EP_3_ISR
 239 0138 00000000 		.word	USBUART_DP_ISR
 240              		.cfi_endproc
 241              	.LFE1:
 242              		.size	USBUART_Init, .-USBUART_Init
 243              		.section	.text.USBUART_InitComponent,"ax",%progbits
 244              		.align	1
 245              		.global	USBUART_InitComponent
 246              		.thumb
 247              		.thumb_func
 248              		.type	USBUART_InitComponent, %function
 249              	USBUART_InitComponent:
 250              	.LFB2:
 410:Generated_Source\PSoC5/USBUART.c **** 
 411:Generated_Source\PSoC5/USBUART.c **** 
 412:Generated_Source\PSoC5/USBUART.c **** /*******************************************************************************
ARM GAS  C:\Users\aupen\AppData\Local\Temp\cczUxnbz.s 			page 13


 413:Generated_Source\PSoC5/USBUART.c **** * Function Name: USBUART_InitComponent
 414:Generated_Source\PSoC5/USBUART.c **** ****************************************************************************//**
 415:Generated_Source\PSoC5/USBUART.c **** *
 416:Generated_Source\PSoC5/USBUART.c **** *   This function initializes the component’s global variables and initiates
 417:Generated_Source\PSoC5/USBUART.c **** *   communication with the host by pull-up D+ line.
 418:Generated_Source\PSoC5/USBUART.c **** *
 419:Generated_Source\PSoC5/USBUART.c **** * \param device:
 420:Generated_Source\PSoC5/USBUART.c **** *   Contains the device number of the desired device descriptor. The device
 421:Generated_Source\PSoC5/USBUART.c **** *   number can be found in the Device Descriptor Tab of "Configure" dialog,
 422:Generated_Source\PSoC5/USBUART.c **** *   under the settings of desired Device Descriptor, in the *Device Number*
 423:Generated_Source\PSoC5/USBUART.c **** *   field.
 424:Generated_Source\PSoC5/USBUART.c **** *  \param mode:
 425:Generated_Source\PSoC5/USBUART.c **** *   The operating voltage. This determines whether the voltage regulator
 426:Generated_Source\PSoC5/USBUART.c **** *   is enabled for 5V operation or if pass through mode is used for 3.3V
 427:Generated_Source\PSoC5/USBUART.c **** *   operation. Symbolic names and their associated values are given in the
 428:Generated_Source\PSoC5/USBUART.c **** *   following list.
 429:Generated_Source\PSoC5/USBUART.c **** *
 430:Generated_Source\PSoC5/USBUART.c **** *       *USBUART_3V_OPERATION* - Disable voltage regulator and pass-
 431:Generated_Source\PSoC5/USBUART.c **** *                                      through Vcc for pull-up
 432:Generated_Source\PSoC5/USBUART.c **** *
 433:Generated_Source\PSoC5/USBUART.c **** *       *USBUART_5V_OPERATION* - Enable voltage regulator and use
 434:Generated_Source\PSoC5/USBUART.c **** *                                      regulator for pull-up
 435:Generated_Source\PSoC5/USBUART.c **** *
 436:Generated_Source\PSoC5/USBUART.c **** *       *USBUART_DWR_POWER_OPERATION* - Enable or disable the voltage
 437:Generated_Source\PSoC5/USBUART.c **** *                                      regulator depending on the power supply
 438:Generated_Source\PSoC5/USBUART.c **** *                                      voltage configuration in the DWR tab.
 439:Generated_Source\PSoC5/USBUART.c **** *                                      For PSoC 3/5LP devices, the VDDD supply
 440:Generated_Source\PSoC5/USBUART.c **** *                                      voltage is considered and for PSoC 4A-L,
 441:Generated_Source\PSoC5/USBUART.c **** *                                      the VBUS supply voltage is considered.
 442:Generated_Source\PSoC5/USBUART.c **** *
 443:Generated_Source\PSoC5/USBUART.c **** * \globalvars
 444:Generated_Source\PSoC5/USBUART.c **** *   \ref USBUART_device
 445:Generated_Source\PSoC5/USBUART.c **** *   \ref USBUART_transferState
 446:Generated_Source\PSoC5/USBUART.c **** *   \ref USBUART_configuration
 447:Generated_Source\PSoC5/USBUART.c **** *   \ref USBUART_deviceStatus
 448:Generated_Source\PSoC5/USBUART.c **** *
 449:Generated_Source\PSoC5/USBUART.c **** *   \ref USBUART_deviceAddress - Contains the current device address. This
 450:Generated_Source\PSoC5/USBUART.c **** *       variable is initialized to zero in this API. The Host starts to communicate
 451:Generated_Source\PSoC5/USBUART.c **** *      to the device with address 0 and then sets it to a whatever value using a
 452:Generated_Source\PSoC5/USBUART.c **** *      SET_ADDRESS request.
 453:Generated_Source\PSoC5/USBUART.c **** *
 454:Generated_Source\PSoC5/USBUART.c **** *   \ref USBUART_lastPacketSize - Initialized to 0;
 455:Generated_Source\PSoC5/USBUART.c **** *
 456:Generated_Source\PSoC5/USBUART.c **** * \reentrant
 457:Generated_Source\PSoC5/USBUART.c **** *  No.
 458:Generated_Source\PSoC5/USBUART.c **** *
 459:Generated_Source\PSoC5/USBUART.c **** *******************************************************************************/
 460:Generated_Source\PSoC5/USBUART.c **** void USBUART_InitComponent(uint8 device, uint8 mode) 
 461:Generated_Source\PSoC5/USBUART.c **** {
 251              		.loc 1 461 0
 252              		.cfi_startproc
 253              		@ args = 0, pretend = 0, frame = 0
 254              		@ frame_needed = 0, uses_anonymous_args = 0
 255              	.LVL22:
 256 0000 08B5     		push	{r3, lr}
 257              		.cfi_def_cfa_offset 8
 258              		.cfi_offset 3, -8
ARM GAS  C:\Users\aupen\AppData\Local\Temp\cczUxnbz.s 			page 14


 259              		.cfi_offset 14, -4
 462:Generated_Source\PSoC5/USBUART.c ****     /* Initialize _hidProtocol variable to comply with
 463:Generated_Source\PSoC5/USBUART.c ****     *  HID 7.2.6 Set_Protocol Request:
 464:Generated_Source\PSoC5/USBUART.c ****     *  "When initialized, all devices default to report protocol."
 465:Generated_Source\PSoC5/USBUART.c ****     */
 466:Generated_Source\PSoC5/USBUART.c **** #if defined(USBUART_ENABLE_HID_CLASS)
 467:Generated_Source\PSoC5/USBUART.c ****     uint8 i;
 468:Generated_Source\PSoC5/USBUART.c **** 
 469:Generated_Source\PSoC5/USBUART.c ****     for (i = 0u; i < USBUART_MAX_INTERFACES_NUMBER; i++)
 470:Generated_Source\PSoC5/USBUART.c ****     {
 471:Generated_Source\PSoC5/USBUART.c ****         USBUART_hidProtocol[i] = USBUART_PROTOCOL_REPORT;
 472:Generated_Source\PSoC5/USBUART.c ****     }
 473:Generated_Source\PSoC5/USBUART.c **** #endif /* USBUART_ENABLE_HID_CLASS */
 474:Generated_Source\PSoC5/USBUART.c **** 
 475:Generated_Source\PSoC5/USBUART.c ****     /* Store device number to access descriptor. */
 476:Generated_Source\PSoC5/USBUART.c ****     USBUART_device = device;
 260              		.loc 1 476 0
 261 0002 1C4B     		ldr	r3, .L13
 477:Generated_Source\PSoC5/USBUART.c **** 
 478:Generated_Source\PSoC5/USBUART.c ****     /* Reset component internal variables. */
 479:Generated_Source\PSoC5/USBUART.c ****     USBUART_transferState   = USBUART_TRANS_STATE_IDLE;
 262              		.loc 1 479 0
 263 0004 1C4A     		ldr	r2, .L13+4
 476:Generated_Source\PSoC5/USBUART.c **** 
 264              		.loc 1 476 0
 265 0006 1870     		strb	r0, [r3]
 266              		.loc 1 479 0
 267 0008 0023     		movs	r3, #0
 268 000a 1370     		strb	r3, [r2]
 480:Generated_Source\PSoC5/USBUART.c ****     USBUART_configurationChanged = 0u;
 269              		.loc 1 480 0
 270 000c 1B4A     		ldr	r2, .L13+8
 271 000e 1370     		strb	r3, [r2]
 481:Generated_Source\PSoC5/USBUART.c ****     USBUART_configuration   = 0u;
 272              		.loc 1 481 0
 273 0010 1B4A     		ldr	r2, .L13+12
 274 0012 1370     		strb	r3, [r2]
 482:Generated_Source\PSoC5/USBUART.c ****     USBUART_interfaceNumber = 0u;
 275              		.loc 1 482 0
 276 0014 1B4A     		ldr	r2, .L13+16
 277 0016 1370     		strb	r3, [r2]
 483:Generated_Source\PSoC5/USBUART.c ****     USBUART_deviceAddress   = 0u;
 278              		.loc 1 483 0
 279 0018 1B4A     		ldr	r2, .L13+20
 280 001a 1370     		strb	r3, [r2]
 484:Generated_Source\PSoC5/USBUART.c ****     USBUART_deviceStatus    = 0u;
 281              		.loc 1 484 0
 282 001c 1B4A     		ldr	r2, .L13+24
 283 001e 1370     		strb	r3, [r2]
 485:Generated_Source\PSoC5/USBUART.c ****     USBUART_lastPacketSize  = 0u;
 284              		.loc 1 485 0
 285 0020 1B4A     		ldr	r2, .L13+28
 286 0022 1370     		strb	r3, [r2]
 486:Generated_Source\PSoC5/USBUART.c **** 
 487:Generated_Source\PSoC5/USBUART.c ****     /* Enable component interrupts. */
 488:Generated_Source\PSoC5/USBUART.c **** #if (CY_PSOC4)
 489:Generated_Source\PSoC5/USBUART.c ****     CyIntEnable(USBUART_INTR_HI_VECT_NUM);
ARM GAS  C:\Users\aupen\AppData\Local\Temp\cczUxnbz.s 			page 15


 490:Generated_Source\PSoC5/USBUART.c ****     CyIntEnable(USBUART_INTR_MED_VECT_NUM);
 491:Generated_Source\PSoC5/USBUART.c ****     CyIntEnable(USBUART_INTR_LO_VECT_NUM);
 492:Generated_Source\PSoC5/USBUART.c **** #else
 493:Generated_Source\PSoC5/USBUART.c ****     CyIntEnable(USBUART_BUS_RESET_VECT_NUM);
 287              		.loc 1 493 0
 288 0024 1B4B     		ldr	r3, .L13+32
 289 0026 4FF40002 		mov	r2, #8388608
 290 002a 1A60     		str	r2, [r3]
 494:Generated_Source\PSoC5/USBUART.c ****     CyIntEnable(USBUART_EP_0_VECT_NUM);
 291              		.loc 1 494 0
 292 002c 4FF08072 		mov	r2, #16777216
 293 0030 1A60     		str	r2, [r3]
 495:Generated_Source\PSoC5/USBUART.c **** 
 496:Generated_Source\PSoC5/USBUART.c ****     #if (USBUART_SOF_ISR_ACTIVE)
 497:Generated_Source\PSoC5/USBUART.c ****         CyIntEnable(USBUART_SOF_VECT_NUM);
 294              		.loc 1 497 0
 295 0032 4FF40012 		mov	r2, #2097152
 296 0036 1A60     		str	r2, [r3]
 498:Generated_Source\PSoC5/USBUART.c ****     #endif /* (USBUART_SOF_ISR_ACTIVE) */
 499:Generated_Source\PSoC5/USBUART.c **** 
 500:Generated_Source\PSoC5/USBUART.c ****     #if (USBUART_EP1_ISR_ACTIVE)
 501:Generated_Source\PSoC5/USBUART.c ****         CyIntEnable(USBUART_EP_1_VECT_NUM);
 297              		.loc 1 501 0
 298 0038 0222     		movs	r2, #2
 299 003a 1A60     		str	r2, [r3]
 502:Generated_Source\PSoC5/USBUART.c ****     #endif /* (USBUART_EP1_ISR_ACTIVE) */
 503:Generated_Source\PSoC5/USBUART.c **** 
 504:Generated_Source\PSoC5/USBUART.c ****     #if (USBUART_EP2_ISR_ACTIVE)
 505:Generated_Source\PSoC5/USBUART.c ****         CyIntEnable(USBUART_EP_2_VECT_NUM);
 300              		.loc 1 505 0
 301 003c 0422     		movs	r2, #4
 302 003e 1A60     		str	r2, [r3]
 506:Generated_Source\PSoC5/USBUART.c ****     #endif /* (USBUART_EP5_ISR_ACTIVE) */
 507:Generated_Source\PSoC5/USBUART.c **** 
 508:Generated_Source\PSoC5/USBUART.c ****     #if (USBUART_EP3_ISR_ACTIVE)
 509:Generated_Source\PSoC5/USBUART.c ****         CyIntEnable(USBUART_EP_3_VECT_NUM);
 303              		.loc 1 509 0
 304 0040 0822     		movs	r2, #8
 305 0042 1A60     		str	r2, [r3]
 306 0044 144B     		ldr	r3, .L13+36
 510:Generated_Source\PSoC5/USBUART.c ****     #endif /* (USBUART_EP5_ISR_ACTIVE) */
 511:Generated_Source\PSoC5/USBUART.c **** 
 512:Generated_Source\PSoC5/USBUART.c ****     #if (USBUART_EP4_ISR_ACTIVE)
 513:Generated_Source\PSoC5/USBUART.c ****         CyIntEnable(USBUART_EP_4_VECT_NUM);
 514:Generated_Source\PSoC5/USBUART.c ****     #endif /* (USBUART_EP5_ISR_ACTIVE) */
 515:Generated_Source\PSoC5/USBUART.c **** 
 516:Generated_Source\PSoC5/USBUART.c ****     #if (USBUART_EP5_ISR_ACTIVE)
 517:Generated_Source\PSoC5/USBUART.c ****         CyIntEnable(USBUART_EP_5_VECT_NUM);
 518:Generated_Source\PSoC5/USBUART.c ****     #endif /* (USBUART_EP5_ISR_ACTIVE) */
 519:Generated_Source\PSoC5/USBUART.c **** 
 520:Generated_Source\PSoC5/USBUART.c ****     #if (USBUART_EP6_ISR_ACTIVE)
 521:Generated_Source\PSoC5/USBUART.c ****         CyIntEnable(USBUART_EP_6_VECT_NUM);
 522:Generated_Source\PSoC5/USBUART.c ****     #endif /* USBUART_EP6_ISR_REMOVE */
 523:Generated_Source\PSoC5/USBUART.c **** 
 524:Generated_Source\PSoC5/USBUART.c ****     #if (USBUART_EP7_ISR_ACTIVE)
 525:Generated_Source\PSoC5/USBUART.c ****         CyIntEnable(USBUART_EP_7_VECT_NUM);
 526:Generated_Source\PSoC5/USBUART.c ****     #endif /* (USBUART_EP7_ISR_ACTIVE) */
ARM GAS  C:\Users\aupen\AppData\Local\Temp\cczUxnbz.s 			page 16


 527:Generated_Source\PSoC5/USBUART.c **** 
 528:Generated_Source\PSoC5/USBUART.c ****     #if (USBUART_EP8_ISR_ACTIVE)
 529:Generated_Source\PSoC5/USBUART.c ****         CyIntEnable(USBUART_EP_8_VECT_NUM);
 530:Generated_Source\PSoC5/USBUART.c ****     #endif /* (USBUART_EP8_ISR_ACTIVE) */
 531:Generated_Source\PSoC5/USBUART.c **** #endif /* (CY_PSOC4) */
 532:Generated_Source\PSoC5/USBUART.c **** 
 533:Generated_Source\PSoC5/USBUART.c **** #if (USBUART_EP_MANAGEMENT_DMA && USBUART_ARB_ISR_ACTIVE)
 534:Generated_Source\PSoC5/USBUART.c ****     /* Enable ARB EP interrupt sources. */
 535:Generated_Source\PSoC5/USBUART.c ****     USBUART_ARB_INT_EN_REG = USBUART_DEFAULT_ARB_INT_EN;
 536:Generated_Source\PSoC5/USBUART.c **** 
 537:Generated_Source\PSoC5/USBUART.c ****     #if (CY_PSOC3 || CY_PSOC5)
 538:Generated_Source\PSoC5/USBUART.c ****         CyIntEnable(USBUART_ARB_VECT_NUM);
 539:Generated_Source\PSoC5/USBUART.c ****     #endif /* (CY_PSOC3 || CY_PSOC5) */
 540:Generated_Source\PSoC5/USBUART.c **** #endif   /* (USBUART_EP_MANAGEMENT_DMA && USBUART_ARB_ISR_ACTIVE) */
 541:Generated_Source\PSoC5/USBUART.c **** 
 542:Generated_Source\PSoC5/USBUART.c **** /* Arbiter configuration for DMA transfers. */
 543:Generated_Source\PSoC5/USBUART.c **** #if (USBUART_EP_MANAGEMENT_DMA)
 544:Generated_Source\PSoC5/USBUART.c ****     /* Configure Arbiter for Manual or Auto DMA operation and clear configuration completion. */
 545:Generated_Source\PSoC5/USBUART.c ****     USBUART_ARB_CFG_REG = USBUART_DEFAULT_ARB_CFG;
 546:Generated_Source\PSoC5/USBUART.c **** 
 547:Generated_Source\PSoC5/USBUART.c ****     #if (CY_PSOC4)
 548:Generated_Source\PSoC5/USBUART.c ****         /* Enable DMA operation. */
 549:Generated_Source\PSoC5/USBUART.c ****         CyDmaEnable();
 550:Generated_Source\PSoC5/USBUART.c **** 
 551:Generated_Source\PSoC5/USBUART.c ****         #if (USBUART_EP_MANAGEMENT_DMA_AUTO)
 552:Generated_Source\PSoC5/USBUART.c ****             /* Change DMA priority to be highest. */
 553:Generated_Source\PSoC5/USBUART.c ****              CyIntSetPriority(CYDMA_INTR_NUMBER, USBUART_DMA_AUTO_INTR_PRIO);
 554:Generated_Source\PSoC5/USBUART.c ****         #endif /* (USBUART_EP_MANAGEMENT_DMA_AUTO) */
 555:Generated_Source\PSoC5/USBUART.c ****     #endif /* (CY_PSOC4) */
 556:Generated_Source\PSoC5/USBUART.c **** 
 557:Generated_Source\PSoC5/USBUART.c ****     #if (USBUART_EP_MANAGEMENT_DMA_AUTO)
 558:Generated_Source\PSoC5/USBUART.c ****         #if (CY_PSOC4)
 559:Generated_Source\PSoC5/USBUART.c ****             /* Enable DMA interrupt to handle DMA management. */
 560:Generated_Source\PSoC5/USBUART.c ****             CyIntEnable(CYDMA_INTR_NUMBER);
 561:Generated_Source\PSoC5/USBUART.c ****         #else
 562:Generated_Source\PSoC5/USBUART.c ****             #if (USBUART_EP_DMA_AUTO_OPT == 0u)
 563:Generated_Source\PSoC5/USBUART.c ****                 /* Initialize interrupts which handle verification of successful DMA transaction. *
 564:Generated_Source\PSoC5/USBUART.c ****                 USBUART_EP_DMA_Done_isr_StartEx(&USBUART_EP_DMA_DONE_ISR);
 565:Generated_Source\PSoC5/USBUART.c ****                 USBUART_EP17_DMA_Done_SR_InterruptEnable();
 566:Generated_Source\PSoC5/USBUART.c ****                 USBUART_EP8_DMA_Done_SR_InterruptEnable();
 567:Generated_Source\PSoC5/USBUART.c ****             #endif /* (USBUART_EP_DMA_AUTO_OPT == 0u) */
 568:Generated_Source\PSoC5/USBUART.c ****         #endif /* (CY_PSOC4) */
 569:Generated_Source\PSoC5/USBUART.c ****     #endif /* (USBUART_EP_MANAGEMENT_DMA_AUTO) */
 570:Generated_Source\PSoC5/USBUART.c **** #endif /* (USBUART_EP_MANAGEMENT_DMA) */
 571:Generated_Source\PSoC5/USBUART.c **** 
 572:Generated_Source\PSoC5/USBUART.c ****     /* Enable USB regulator depends on operation voltage. IMO Locking is enabled in Init(). */
 573:Generated_Source\PSoC5/USBUART.c ****     switch(mode)
 307              		.loc 1 573 0
 308 0046 19B9     		cbnz	r1, .L12
 574:Generated_Source\PSoC5/USBUART.c ****     {
 575:Generated_Source\PSoC5/USBUART.c ****     case USBUART_3V_OPERATION:
 576:Generated_Source\PSoC5/USBUART.c ****         /* Disable regulator for 3V operation. */
 577:Generated_Source\PSoC5/USBUART.c ****         USBUART_CR1_REG &= (uint8) ~USBUART_CR1_REG_ENABLE;
 309              		.loc 1 577 0
 310 0048 1A78     		ldrb	r2, [r3]	@ zero_extendqisi2
 311 004a 02F0FE02 		and	r2, r2, #254
 312 004e 02E0     		b	.L10
ARM GAS  C:\Users\aupen\AppData\Local\Temp\cczUxnbz.s 			page 17


 313              	.L12:
 578:Generated_Source\PSoC5/USBUART.c ****         break;
 579:Generated_Source\PSoC5/USBUART.c **** 
 580:Generated_Source\PSoC5/USBUART.c ****     case USBUART_5V_OPERATION:
 581:Generated_Source\PSoC5/USBUART.c ****         /* Enable regulator for 5V operation. */
 582:Generated_Source\PSoC5/USBUART.c ****         USBUART_CR1_REG |= (uint8)  USBUART_CR1_REG_ENABLE;
 583:Generated_Source\PSoC5/USBUART.c ****         break;
 584:Generated_Source\PSoC5/USBUART.c **** 
 585:Generated_Source\PSoC5/USBUART.c ****     default: /* Check DWR settings of USB power supply. */
 586:Generated_Source\PSoC5/USBUART.c ****     #if (USBUART_VDDD_MV < USBUART_3500MV)
 587:Generated_Source\PSoC5/USBUART.c ****         /* Disable regulator for 3V operation. */
 588:Generated_Source\PSoC5/USBUART.c ****         USBUART_CR1_REG &= (uint8) ~USBUART_CR1_REG_ENABLE;
 589:Generated_Source\PSoC5/USBUART.c ****     #else
 590:Generated_Source\PSoC5/USBUART.c ****         /* Enable regulator for 5V operation. */
 591:Generated_Source\PSoC5/USBUART.c ****         USBUART_CR1_REG |= (uint8)  USBUART_CR1_REG_ENABLE;
 314              		.loc 1 591 0
 315 0050 1A78     		ldrb	r2, [r3]	@ zero_extendqisi2
 316 0052 42F00102 		orr	r2, r2, #1
 317              	.L10:
 318 0056 1A70     		strb	r2, [r3]
 592:Generated_Source\PSoC5/USBUART.c ****     #endif /* (USBUART_VDDD_MV < USBUART_3500MV) */
 593:Generated_Source\PSoC5/USBUART.c ****         break;
 594:Generated_Source\PSoC5/USBUART.c ****     }
 595:Generated_Source\PSoC5/USBUART.c **** 
 596:Generated_Source\PSoC5/USBUART.c **** #if (CY_PSOC4)
 597:Generated_Source\PSoC5/USBUART.c ****     /* Clear bus activity. */
 598:Generated_Source\PSoC5/USBUART.c ****     USBUART_CR1_REG &= (uint32) ~USBUART_CR1_BUS_ACTIVITY;
 599:Generated_Source\PSoC5/USBUART.c **** 
 600:Generated_Source\PSoC5/USBUART.c ****     /* Clear EP0 count register. */
 601:Generated_Source\PSoC5/USBUART.c ****     USBUART_EP0_CNT_REG = USBUART_CLEAR_REG;
 602:Generated_Source\PSoC5/USBUART.c **** 
 603:Generated_Source\PSoC5/USBUART.c ****     /* Set EP0.CR: ACK Setup, NAK IN/OUT. */
 604:Generated_Source\PSoC5/USBUART.c ****     USBUART_EP0_CR_REG = USBUART_MODE_NAK_IN_OUT;
 605:Generated_Source\PSoC5/USBUART.c **** 
 606:Generated_Source\PSoC5/USBUART.c ****     #if (USBUART_LPM_ACTIVE)
 607:Generated_Source\PSoC5/USBUART.c ****         if (NULL != USBUART_GetBOSPtr())
 608:Generated_Source\PSoC5/USBUART.c ****         {
 609:Generated_Source\PSoC5/USBUART.c ****             /* Enable LPM and acknowledge LPM packets for active device.
 610:Generated_Source\PSoC5/USBUART.c ****             * Reset NYET_EN and SUB_RESP bits in the LPM_CTRL register.
 611:Generated_Source\PSoC5/USBUART.c ****             */
 612:Generated_Source\PSoC5/USBUART.c ****             USBUART_LPM_CTRL_REG = (USBUART_LPM_CTRL_LPM_EN | \
 613:Generated_Source\PSoC5/USBUART.c ****                                              USBUART_LPM_CTRL_LPM_ACK_RESP);
 614:Generated_Source\PSoC5/USBUART.c ****         }
 615:Generated_Source\PSoC5/USBUART.c ****         else
 616:Generated_Source\PSoC5/USBUART.c ****         {
 617:Generated_Source\PSoC5/USBUART.c ****             /* Disable LPM for active device. */
 618:Generated_Source\PSoC5/USBUART.c ****             USBUART_LPM_CTRL_REG &= (uint32) ~USBUART_LPM_CTRL_LPM_EN;
 619:Generated_Source\PSoC5/USBUART.c ****         }
 620:Generated_Source\PSoC5/USBUART.c ****     #endif /* (USBUART_LPM_ACTIVE) */
 621:Generated_Source\PSoC5/USBUART.c **** 
 622:Generated_Source\PSoC5/USBUART.c ****     /* Enable device to responds to USB traffic with address 0. */
 623:Generated_Source\PSoC5/USBUART.c ****     USBUART_CR0_REG = USBUART_DEFUALT_CR0;
 624:Generated_Source\PSoC5/USBUART.c **** 
 625:Generated_Source\PSoC5/USBUART.c **** #else
 626:Generated_Source\PSoC5/USBUART.c ****     /* Set EP0.CR: ACK Setup, STALL IN/OUT. */
 627:Generated_Source\PSoC5/USBUART.c ****     USBUART_EP0_CR_REG = USBUART_MODE_STALL_IN_OUT;
 319              		.loc 1 627 0
ARM GAS  C:\Users\aupen\AppData\Local\Temp\cczUxnbz.s 			page 18


 320 0058 104B     		ldr	r3, .L13+40
 321 005a 0322     		movs	r2, #3
 322 005c 1A70     		strb	r2, [r3]
 628:Generated_Source\PSoC5/USBUART.c **** 
 629:Generated_Source\PSoC5/USBUART.c ****     /* Enable device to respond to USB traffic with address 0. */
 630:Generated_Source\PSoC5/USBUART.c ****     USBUART_CR0_REG = USBUART_DEFUALT_CR0;
 323              		.loc 1 630 0
 324 005e 8022     		movs	r2, #128
 325 0060 03F8202C 		strb	r2, [r3, #-32]
 631:Generated_Source\PSoC5/USBUART.c ****     CyDelayCycles(USBUART_WAIT_CR0_REG_STABILITY);
 326              		.loc 1 631 0
 327 0064 0120     		movs	r0, #1
 328              	.LVL23:
 329 0066 FFF7FEFF 		bl	CyDelayCycles
 330              	.LVL24:
 632:Generated_Source\PSoC5/USBUART.c **** #endif /* (CY_PSOC4) */
 633:Generated_Source\PSoC5/USBUART.c **** 
 634:Generated_Source\PSoC5/USBUART.c ****     /* Enable D+ pull-up and keep USB control on IO. */
 635:Generated_Source\PSoC5/USBUART.c ****     USBUART_USBIO_CR1_REG = USBUART_USBIO_CR1_USBPUEN;
 331              		.loc 1 635 0
 332 006a 0D4B     		ldr	r3, .L13+44
 333 006c 0422     		movs	r2, #4
 334 006e 1A70     		strb	r2, [r3]
 335 0070 08BD     		pop	{r3, pc}
 336              	.L14:
 337 0072 00BF     		.align	2
 338              	.L13:
 339 0074 00000000 		.word	USBUART_device
 340 0078 00000000 		.word	USBUART_transferState
 341 007c 00000000 		.word	USBUART_configurationChanged
 342 0080 00000000 		.word	USBUART_configuration
 343 0084 00000000 		.word	USBUART_interfaceNumber
 344 0088 00000000 		.word	USBUART_deviceAddress
 345 008c 00000000 		.word	USBUART_deviceStatus
 346 0090 00000000 		.word	USBUART_lastPacketSize
 347 0094 00E100E0 		.word	-536813312
 348 0098 09600040 		.word	1073766409
 349 009c 28600040 		.word	1073766440
 350 00a0 12600040 		.word	1073766418
 351              		.cfi_endproc
 352              	.LFE2:
 353              		.size	USBUART_InitComponent, .-USBUART_InitComponent
 354              		.section	.text.USBUART_Start,"ax",%progbits
 355              		.align	1
 356              		.global	USBUART_Start
 357              		.thumb
 358              		.thumb_func
 359              		.type	USBUART_Start, %function
 360              	USBUART_Start:
 361              	.LFB0:
 187:Generated_Source\PSoC5/USBUART.c ****     if (0u == USBUART_initVar)
 362              		.loc 1 187 0
 363              		.cfi_startproc
 364              		@ args = 0, pretend = 0, frame = 0
 365              		@ frame_needed = 0, uses_anonymous_args = 0
 366              	.LVL25:
 367 0000 70B5     		push	{r4, r5, r6, lr}
ARM GAS  C:\Users\aupen\AppData\Local\Temp\cczUxnbz.s 			page 19


 368              		.cfi_def_cfa_offset 16
 369              		.cfi_offset 4, -16
 370              		.cfi_offset 5, -12
 371              		.cfi_offset 6, -8
 372              		.cfi_offset 14, -4
 188:Generated_Source\PSoC5/USBUART.c ****     {
 373              		.loc 1 188 0
 374 0002 074C     		ldr	r4, .L17
 187:Generated_Source\PSoC5/USBUART.c ****     if (0u == USBUART_initVar)
 375              		.loc 1 187 0
 376 0004 0546     		mov	r5, r0
 188:Generated_Source\PSoC5/USBUART.c ****     {
 377              		.loc 1 188 0
 378 0006 2378     		ldrb	r3, [r4]	@ zero_extendqisi2
 187:Generated_Source\PSoC5/USBUART.c ****     if (0u == USBUART_initVar)
 379              		.loc 1 187 0
 380 0008 0E46     		mov	r6, r1
 188:Generated_Source\PSoC5/USBUART.c ****     {
 381              		.loc 1 188 0
 382 000a 1BB9     		cbnz	r3, .L16
 190:Generated_Source\PSoC5/USBUART.c ****         USBUART_initVar = 1u;
 383              		.loc 1 190 0
 384 000c FFF7FEFF 		bl	USBUART_Init
 385              	.LVL26:
 191:Generated_Source\PSoC5/USBUART.c ****     }
 386              		.loc 1 191 0
 387 0010 0123     		movs	r3, #1
 388 0012 2370     		strb	r3, [r4]
 389              	.L16:
 194:Generated_Source\PSoC5/USBUART.c **** }
 390              		.loc 1 194 0
 391 0014 3146     		mov	r1, r6
 392 0016 2846     		mov	r0, r5
 195:Generated_Source\PSoC5/USBUART.c **** 
 393              		.loc 1 195 0
 394 0018 BDE87040 		pop	{r4, r5, r6, lr}
 395              		.cfi_restore 14
 396              		.cfi_restore 6
 397              		.cfi_restore 5
 398              		.cfi_restore 4
 399              		.cfi_def_cfa_offset 0
 194:Generated_Source\PSoC5/USBUART.c **** }
 400              		.loc 1 194 0
 401 001c FFF7FEBF 		b	USBUART_InitComponent
 402              	.LVL27:
 403              	.L18:
 404              		.align	2
 405              	.L17:
 406 0020 00000000 		.word	.LANCHOR0
 407              		.cfi_endproc
 408              	.LFE0:
 409              		.size	USBUART_Start, .-USBUART_Start
 410              		.section	.text.USBUART_ReInitComponent,"ax",%progbits
 411              		.align	1
 412              		.global	USBUART_ReInitComponent
 413              		.thumb
 414              		.thumb_func
ARM GAS  C:\Users\aupen\AppData\Local\Temp\cczUxnbz.s 			page 20


 415              		.type	USBUART_ReInitComponent, %function
 416              	USBUART_ReInitComponent:
 417              	.LFB3:
 636:Generated_Source\PSoC5/USBUART.c **** }
 637:Generated_Source\PSoC5/USBUART.c **** 
 638:Generated_Source\PSoC5/USBUART.c **** 
 639:Generated_Source\PSoC5/USBUART.c **** /*******************************************************************************
 640:Generated_Source\PSoC5/USBUART.c **** * Function Name: USBUART_ReInitComponent
 641:Generated_Source\PSoC5/USBUART.c **** ****************************************************************************//**
 642:Generated_Source\PSoC5/USBUART.c **** *
 643:Generated_Source\PSoC5/USBUART.c **** *  This function reinitialize the component configuration and is
 644:Generated_Source\PSoC5/USBUART.c **** *  intend to be called from the Reset interrupt.
 645:Generated_Source\PSoC5/USBUART.c **** *
 646:Generated_Source\PSoC5/USBUART.c **** * \globalvars
 647:Generated_Source\PSoC5/USBUART.c **** *   USBUART_device - Contains the device number of the desired Device
 648:Generated_Source\PSoC5/USBUART.c **** *        Descriptor. The device number can be found in the Device Descriptor tab
 649:Generated_Source\PSoC5/USBUART.c **** *       of the Configure dialog, under the settings of the desired Device Descriptor,
 650:Generated_Source\PSoC5/USBUART.c **** *       in the Device Number field.
 651:Generated_Source\PSoC5/USBUART.c **** *   USBUART_transferState - This variable is used by the communication
 652:Generated_Source\PSoC5/USBUART.c **** *       functions to handle the current transfer state. Initialized to
 653:Generated_Source\PSoC5/USBUART.c **** *       TRANS_STATE_IDLE in this API.
 654:Generated_Source\PSoC5/USBUART.c **** *   USBUART_configuration - Contains the current configuration number
 655:Generated_Source\PSoC5/USBUART.c **** *       set by the Host using a SET_CONFIGURATION request.
 656:Generated_Source\PSoC5/USBUART.c **** *       Initialized to zero in this API.
 657:Generated_Source\PSoC5/USBUART.c **** *   USBUART_deviceAddress - Contains the current device address. This
 658:Generated_Source\PSoC5/USBUART.c **** *       variable is initialized to zero in this API. The Host starts to communicate
 659:Generated_Source\PSoC5/USBUART.c **** *      to the device with address 0 and then sets it to a whatever value using
 660:Generated_Source\PSoC5/USBUART.c **** *      a SET_ADDRESS request.
 661:Generated_Source\PSoC5/USBUART.c **** *   USBUART_deviceStatus - Initialized to 0.
 662:Generated_Source\PSoC5/USBUART.c **** *       This is a two-bit variable which contains the power status in the first bit
 663:Generated_Source\PSoC5/USBUART.c **** *       (DEVICE_STATUS_BUS_POWERED or DEVICE_STATUS_SELF_POWERED) and the remote
 664:Generated_Source\PSoC5/USBUART.c **** *       wakeup status (DEVICE_STATUS_REMOTE_WAKEUP) in the second bit.
 665:Generated_Source\PSoC5/USBUART.c **** *   USBUART_lastPacketSize - Initialized to 0;
 666:Generated_Source\PSoC5/USBUART.c **** *
 667:Generated_Source\PSoC5/USBUART.c **** * \reentrant
 668:Generated_Source\PSoC5/USBUART.c **** *  No.
 669:Generated_Source\PSoC5/USBUART.c **** *
 670:Generated_Source\PSoC5/USBUART.c **** *******************************************************************************/
 671:Generated_Source\PSoC5/USBUART.c **** void USBUART_ReInitComponent(void) 
 672:Generated_Source\PSoC5/USBUART.c **** {
 418              		.loc 1 672 0
 419              		.cfi_startproc
 420              		@ args = 0, pretend = 0, frame = 0
 421              		@ frame_needed = 0, uses_anonymous_args = 0
 422              		@ link register save eliminated.
 673:Generated_Source\PSoC5/USBUART.c ****     /* Initialize _hidProtocol variable to comply with HID 7.2.6 Set_Protocol
 674:Generated_Source\PSoC5/USBUART.c ****     *  Request: "When initialized, all devices default to report protocol."
 675:Generated_Source\PSoC5/USBUART.c ****     */
 676:Generated_Source\PSoC5/USBUART.c **** #if defined(USBUART_ENABLE_HID_CLASS)
 677:Generated_Source\PSoC5/USBUART.c ****     uint8 i;
 678:Generated_Source\PSoC5/USBUART.c **** 
 679:Generated_Source\PSoC5/USBUART.c ****     for (i = 0u; i < USBUART_MAX_INTERFACES_NUMBER; i++)
 680:Generated_Source\PSoC5/USBUART.c ****     {
 681:Generated_Source\PSoC5/USBUART.c ****         USBUART_hidProtocol[i] = USBUART_PROTOCOL_REPORT;
 682:Generated_Source\PSoC5/USBUART.c ****     }
 683:Generated_Source\PSoC5/USBUART.c **** #endif /* USBUART_ENABLE_HID_CLASS */
 684:Generated_Source\PSoC5/USBUART.c **** 
ARM GAS  C:\Users\aupen\AppData\Local\Temp\cczUxnbz.s 			page 21


 685:Generated_Source\PSoC5/USBUART.c ****     /* Reset component internal variables. */
 686:Generated_Source\PSoC5/USBUART.c ****     USBUART_transferState   = USBUART_TRANS_STATE_IDLE;
 423              		.loc 1 686 0
 424 0000 0A4A     		ldr	r2, .L20
 425 0002 0023     		movs	r3, #0
 426 0004 1370     		strb	r3, [r2]
 687:Generated_Source\PSoC5/USBUART.c ****     USBUART_configurationChanged = 0u;
 427              		.loc 1 687 0
 428 0006 0A4A     		ldr	r2, .L20+4
 429 0008 1370     		strb	r3, [r2]
 688:Generated_Source\PSoC5/USBUART.c ****     USBUART_configuration   = 0u;
 430              		.loc 1 688 0
 431 000a 0A4A     		ldr	r2, .L20+8
 432 000c 1370     		strb	r3, [r2]
 689:Generated_Source\PSoC5/USBUART.c ****     USBUART_interfaceNumber = 0u;
 433              		.loc 1 689 0
 434 000e 0A4A     		ldr	r2, .L20+12
 435 0010 1370     		strb	r3, [r2]
 690:Generated_Source\PSoC5/USBUART.c ****     USBUART_deviceAddress   = 0u;
 436              		.loc 1 690 0
 437 0012 0A4A     		ldr	r2, .L20+16
 438 0014 1370     		strb	r3, [r2]
 691:Generated_Source\PSoC5/USBUART.c ****     USBUART_deviceStatus    = 0u;
 439              		.loc 1 691 0
 440 0016 0A4A     		ldr	r2, .L20+20
 441 0018 1370     		strb	r3, [r2]
 692:Generated_Source\PSoC5/USBUART.c ****     USBUART_lastPacketSize  = 0u;
 442              		.loc 1 692 0
 443 001a 0A4A     		ldr	r2, .L20+24
 444 001c 1370     		strb	r3, [r2]
 693:Generated_Source\PSoC5/USBUART.c **** 
 694:Generated_Source\PSoC5/USBUART.c **** #if (CY_PSOC4)
 695:Generated_Source\PSoC5/USBUART.c ****     /* Set EP0.CR: ACK Setup, NAK IN/OUT. */
 696:Generated_Source\PSoC5/USBUART.c ****     USBUART_EP0_CR_REG = USBUART_MODE_NAK_IN_OUT;
 697:Generated_Source\PSoC5/USBUART.c **** #else
 698:Generated_Source\PSoC5/USBUART.c ****     /* Set EP0.CR: ACK Setup, STALL IN/OUT. */
 699:Generated_Source\PSoC5/USBUART.c ****     USBUART_EP0_CR_REG = USBUART_MODE_STALL_IN_OUT;
 445              		.loc 1 699 0
 446 001e 0A4B     		ldr	r3, .L20+28
 447 0020 0322     		movs	r2, #3
 448 0022 1A70     		strb	r2, [r3]
 700:Generated_Source\PSoC5/USBUART.c **** #endif /* (CY_PSOC4) */
 701:Generated_Source\PSoC5/USBUART.c **** 
 702:Generated_Source\PSoC5/USBUART.c ****     /* Enable device to respond to USB traffic with address 0. */
 703:Generated_Source\PSoC5/USBUART.c ****     USBUART_CR0_REG = USBUART_DEFUALT_CR0;
 449              		.loc 1 703 0
 450 0024 8022     		movs	r2, #128
 451 0026 03F8202C 		strb	r2, [r3, #-32]
 452 002a 7047     		bx	lr
 453              	.L21:
 454              		.align	2
 455              	.L20:
 456 002c 00000000 		.word	USBUART_transferState
 457 0030 00000000 		.word	USBUART_configurationChanged
 458 0034 00000000 		.word	USBUART_configuration
 459 0038 00000000 		.word	USBUART_interfaceNumber
 460 003c 00000000 		.word	USBUART_deviceAddress
ARM GAS  C:\Users\aupen\AppData\Local\Temp\cczUxnbz.s 			page 22


 461 0040 00000000 		.word	USBUART_deviceStatus
 462 0044 00000000 		.word	USBUART_lastPacketSize
 463 0048 28600040 		.word	1073766440
 464              		.cfi_endproc
 465              	.LFE3:
 466              		.size	USBUART_ReInitComponent, .-USBUART_ReInitComponent
 467              		.section	.text.USBUART_Stop,"ax",%progbits
 468              		.align	1
 469              		.global	USBUART_Stop
 470              		.thumb
 471              		.thumb_func
 472              		.type	USBUART_Stop, %function
 473              	USBUART_Stop:
 474              	.LFB4:
 704:Generated_Source\PSoC5/USBUART.c **** }
 705:Generated_Source\PSoC5/USBUART.c **** 
 706:Generated_Source\PSoC5/USBUART.c **** 
 707:Generated_Source\PSoC5/USBUART.c **** /*******************************************************************************
 708:Generated_Source\PSoC5/USBUART.c **** * Function Name: USBUART_Stop
 709:Generated_Source\PSoC5/USBUART.c **** ****************************************************************************//**
 710:Generated_Source\PSoC5/USBUART.c **** *
 711:Generated_Source\PSoC5/USBUART.c **** *  This function shuts down the USB function including to release
 712:Generated_Source\PSoC5/USBUART.c **** *  the D+ pull-up and disabling the SIE.
 713:Generated_Source\PSoC5/USBUART.c **** *
 714:Generated_Source\PSoC5/USBUART.c **** * \globalvars
 715:Generated_Source\PSoC5/USBUART.c **** *   \ref USBUART_configuration
 716:Generated_Source\PSoC5/USBUART.c **** *
 717:Generated_Source\PSoC5/USBUART.c **** *   USBUART_deviceAddress - Contains the current device address. This
 718:Generated_Source\PSoC5/USBUART.c **** *       variable is initialized to zero in this API. The Host starts to communicate
 719:Generated_Source\PSoC5/USBUART.c **** *      to the device with address 0 and then sets it to a whatever value using
 720:Generated_Source\PSoC5/USBUART.c **** *      a SET_ADDRESS request.
 721:Generated_Source\PSoC5/USBUART.c **** *
 722:Generated_Source\PSoC5/USBUART.c **** *   \ref USBUART_deviceStatus
 723:Generated_Source\PSoC5/USBUART.c **** *
 724:Generated_Source\PSoC5/USBUART.c **** *   \ref USBUART_configurationChanged
 725:Generated_Source\PSoC5/USBUART.c **** *
 726:Generated_Source\PSoC5/USBUART.c **** *   USBUART_intiVar -  This variable is set to zero
 727:Generated_Source\PSoC5/USBUART.c **** *
 728:Generated_Source\PSoC5/USBUART.c **** *******************************************************************************/
 729:Generated_Source\PSoC5/USBUART.c **** void USBUART_Stop(void) 
 730:Generated_Source\PSoC5/USBUART.c **** {
 475              		.loc 1 730 0
 476              		.cfi_startproc
 477              		@ args = 0, pretend = 0, frame = 0
 478              		@ frame_needed = 0, uses_anonymous_args = 0
 479 0000 08B5     		push	{r3, lr}
 480              		.cfi_def_cfa_offset 8
 481              		.cfi_offset 3, -8
 482              		.cfi_offset 14, -4
 731:Generated_Source\PSoC5/USBUART.c ****     uint8 enableInterrupts;
 732:Generated_Source\PSoC5/USBUART.c **** 
 733:Generated_Source\PSoC5/USBUART.c **** #if (USBUART_EP_MANAGEMENT_DMA)
 734:Generated_Source\PSoC5/USBUART.c ****     /* Stop all DMA channels. */
 735:Generated_Source\PSoC5/USBUART.c ****     USBUART_Stop_DMA(USBUART_MAX_EP);
 736:Generated_Source\PSoC5/USBUART.c **** #endif /* (USBUART_EP_MANAGEMENT_DMA) */
 737:Generated_Source\PSoC5/USBUART.c **** 
 738:Generated_Source\PSoC5/USBUART.c ****     enableInterrupts = CyEnterCriticalSection();
ARM GAS  C:\Users\aupen\AppData\Local\Temp\cczUxnbz.s 			page 23


 483              		.loc 1 738 0
 484 0002 FFF7FEFF 		bl	CyEnterCriticalSection
 485              	.LVL28:
 739:Generated_Source\PSoC5/USBUART.c **** 
 740:Generated_Source\PSoC5/USBUART.c ****     /* Disable USB IP to respond to USB traffic. */
 741:Generated_Source\PSoC5/USBUART.c ****     USBUART_CR0_REG &= (uint8) ~USBUART_CR0_ENABLE;
 486              		.loc 1 741 0
 487 0006 214A     		ldr	r2, .L23
 488 0008 1378     		ldrb	r3, [r2]	@ zero_extendqisi2
 489 000a 03F07F03 		and	r3, r3, #127
 490 000e 1370     		strb	r3, [r2]
 742:Generated_Source\PSoC5/USBUART.c **** 
 743:Generated_Source\PSoC5/USBUART.c ****     /* Disable D+ pull-up. */
 744:Generated_Source\PSoC5/USBUART.c ****     USBUART_USBIO_CR1_REG &= (uint8) ~ USBUART_USBIO_CR1_USBPUEN;
 491              		.loc 1 744 0
 492 0010 937A     		ldrb	r3, [r2, #10]	@ zero_extendqisi2
 493 0012 03F0FB03 		and	r3, r3, #251
 494 0016 9372     		strb	r3, [r2, #10]
 745:Generated_Source\PSoC5/USBUART.c **** 
 746:Generated_Source\PSoC5/USBUART.c **** #if (CY_PSOC4)
 747:Generated_Source\PSoC5/USBUART.c ****     /* Disable USBFS block. */
 748:Generated_Source\PSoC5/USBUART.c ****     USBUART_POWER_CTRL_REG &= (uint32) ~USBUART_POWER_CTRL_ENABLE;
 749:Generated_Source\PSoC5/USBUART.c **** #else
 750:Generated_Source\PSoC5/USBUART.c ****     /* Clear power active and standby mode templates. */
 751:Generated_Source\PSoC5/USBUART.c ****     USBUART_PM_ACT_CFG_REG  &= (uint8) ~USBUART_PM_ACT_EN_FSUSB;
 495              		.loc 1 751 0
 496 0018 A2F5E352 		sub	r2, r2, #7264
 497 001c 033A     		subs	r2, r2, #3
 498 001e 1378     		ldrb	r3, [r2]	@ zero_extendqisi2
 499 0020 03F0FE03 		and	r3, r3, #254
 500 0024 1370     		strb	r3, [r2]
 752:Generated_Source\PSoC5/USBUART.c ****     USBUART_PM_STBY_CFG_REG &= (uint8) ~USBUART_PM_STBY_EN_FSUSB;
 501              		.loc 1 752 0
 502 0026 137C     		ldrb	r3, [r2, #16]	@ zero_extendqisi2
 503 0028 03F0FE03 		and	r3, r3, #254
 504 002c 1374     		strb	r3, [r2, #16]
 753:Generated_Source\PSoC5/USBUART.c **** 
 754:Generated_Source\PSoC5/USBUART.c ****     /* Ensure single-ended disable bits are high (PRT15.INP_DIS[7:6])
 755:Generated_Source\PSoC5/USBUART.c ****      * (input receiver disabled). */
 756:Generated_Source\PSoC5/USBUART.c ****     USBUART_DM_INP_DIS_REG |= (uint8) USBUART_DM_MASK;
 505              		.loc 1 756 0
 506 002e 184B     		ldr	r3, .L23+4
 507 0030 1A78     		ldrb	r2, [r3]	@ zero_extendqisi2
 508 0032 42F08002 		orr	r2, r2, #128
 509 0036 1A70     		strb	r2, [r3]
 757:Generated_Source\PSoC5/USBUART.c ****     USBUART_DP_INP_DIS_REG |= (uint8) USBUART_DP_MASK;
 510              		.loc 1 757 0
 511 0038 1A78     		ldrb	r2, [r3]	@ zero_extendqisi2
 512 003a 42F04002 		orr	r2, r2, #64
 513 003e 1A70     		strb	r2, [r3]
 758:Generated_Source\PSoC5/USBUART.c **** 
 759:Generated_Source\PSoC5/USBUART.c **** #endif /* (CY_PSOC4) */
 760:Generated_Source\PSoC5/USBUART.c **** 
 761:Generated_Source\PSoC5/USBUART.c ****     CyExitCriticalSection(enableInterrupts);
 514              		.loc 1 761 0
 515 0040 FFF7FEFF 		bl	CyExitCriticalSection
 516              	.LVL29:
ARM GAS  C:\Users\aupen\AppData\Local\Temp\cczUxnbz.s 			page 24


 762:Generated_Source\PSoC5/USBUART.c **** 
 763:Generated_Source\PSoC5/USBUART.c ****     /* Disable component interrupts. */
 764:Generated_Source\PSoC5/USBUART.c **** #if (CY_PSOC4)
 765:Generated_Source\PSoC5/USBUART.c ****     CyIntDisable(USBUART_INTR_HI_VECT_NUM);
 766:Generated_Source\PSoC5/USBUART.c ****     CyIntDisable(USBUART_INTR_LO_VECT_NUM);
 767:Generated_Source\PSoC5/USBUART.c ****     CyIntDisable(USBUART_INTR_MED_VECT_NUM);
 768:Generated_Source\PSoC5/USBUART.c **** #else
 769:Generated_Source\PSoC5/USBUART.c **** 
 770:Generated_Source\PSoC5/USBUART.c ****     CyIntDisable(USBUART_BUS_RESET_VECT_NUM);
 517              		.loc 1 770 0
 518 0044 134B     		ldr	r3, .L23+8
 519 0046 4FF40002 		mov	r2, #8388608
 520 004a 1A60     		str	r2, [r3]
 771:Generated_Source\PSoC5/USBUART.c ****     CyIntDisable(USBUART_EP_0_VECT_NUM);
 521              		.loc 1 771 0
 522 004c 4FF08072 		mov	r2, #16777216
 523 0050 1A60     		str	r2, [r3]
 772:Generated_Source\PSoC5/USBUART.c **** 
 773:Generated_Source\PSoC5/USBUART.c ****     #if (USBUART_SOF_ISR_ACTIVE)
 774:Generated_Source\PSoC5/USBUART.c ****         CyIntDisable(USBUART_SOF_VECT_NUM);
 524              		.loc 1 774 0
 525 0052 4FF40012 		mov	r2, #2097152
 526 0056 1A60     		str	r2, [r3]
 775:Generated_Source\PSoC5/USBUART.c ****     #endif /* (USBUART_SOF_ISR_ACTIVE) */
 776:Generated_Source\PSoC5/USBUART.c **** 
 777:Generated_Source\PSoC5/USBUART.c ****     #if (USBUART_EP1_ISR_ACTIVE)
 778:Generated_Source\PSoC5/USBUART.c ****         CyIntDisable(USBUART_EP_1_VECT_NUM);
 527              		.loc 1 778 0
 528 0058 0222     		movs	r2, #2
 529 005a 1A60     		str	r2, [r3]
 779:Generated_Source\PSoC5/USBUART.c ****     #endif /* (USBUART_EP1_ISR_ACTIVE) */
 780:Generated_Source\PSoC5/USBUART.c **** 
 781:Generated_Source\PSoC5/USBUART.c ****     #if (USBUART_EP2_ISR_ACTIVE)
 782:Generated_Source\PSoC5/USBUART.c ****         CyIntDisable(USBUART_EP_2_VECT_NUM);
 530              		.loc 1 782 0
 531 005c 0422     		movs	r2, #4
 532 005e 1A60     		str	r2, [r3]
 783:Generated_Source\PSoC5/USBUART.c ****     #endif /* (USBUART_EP2_ISR_ACTIVE) */
 784:Generated_Source\PSoC5/USBUART.c **** 
 785:Generated_Source\PSoC5/USBUART.c ****     #if (USBUART_EP3_ISR_ACTIVE)
 786:Generated_Source\PSoC5/USBUART.c ****         CyIntDisable(USBUART_EP_3_VECT_NUM);
 533              		.loc 1 786 0
 534 0060 0822     		movs	r2, #8
 535 0062 1A60     		str	r2, [r3]
 787:Generated_Source\PSoC5/USBUART.c ****     #endif /* (USBUART_EP3_ISR_ACTIVE) */
 788:Generated_Source\PSoC5/USBUART.c **** 
 789:Generated_Source\PSoC5/USBUART.c ****     #if (USBUART_EP4_ISR_ACTIVE)
 790:Generated_Source\PSoC5/USBUART.c ****         CyIntDisable(USBUART_EP_4_VECT_NUM);
 791:Generated_Source\PSoC5/USBUART.c ****     #endif /* (USBUART_EP4_ISR_ACTIVE) */
 792:Generated_Source\PSoC5/USBUART.c **** 
 793:Generated_Source\PSoC5/USBUART.c ****     #if (USBUART_EP5_ISR_ACTIVE)
 794:Generated_Source\PSoC5/USBUART.c ****         CyIntDisable(USBUART_EP_5_VECT_NUM);
 795:Generated_Source\PSoC5/USBUART.c ****     #endif /* (USBUART_EP5_ISR_ACTIVE) */
 796:Generated_Source\PSoC5/USBUART.c **** 
 797:Generated_Source\PSoC5/USBUART.c ****     #if (USBUART_EP6_ISR_ACTIVE)
 798:Generated_Source\PSoC5/USBUART.c ****         CyIntDisable(USBUART_EP_6_VECT_NUM);
 799:Generated_Source\PSoC5/USBUART.c ****     #endif /* USBUART_EP6_ISR_REMOVE */
ARM GAS  C:\Users\aupen\AppData\Local\Temp\cczUxnbz.s 			page 25


 800:Generated_Source\PSoC5/USBUART.c **** 
 801:Generated_Source\PSoC5/USBUART.c ****     #if (USBUART_EP7_ISR_ACTIVE)
 802:Generated_Source\PSoC5/USBUART.c ****         CyIntDisable(USBUART_EP_7_VECT_NUM);
 803:Generated_Source\PSoC5/USBUART.c ****     #endif /* (USBUART_EP7_ISR_ACTIVE) */
 804:Generated_Source\PSoC5/USBUART.c **** 
 805:Generated_Source\PSoC5/USBUART.c ****     #if (USBUART_EP8_ISR_ACTIVE)
 806:Generated_Source\PSoC5/USBUART.c ****         CyIntDisable(USBUART_EP_8_VECT_NUM);
 807:Generated_Source\PSoC5/USBUART.c ****     #endif /* (USBUART_EP8_ISR_ACTIVE) */
 808:Generated_Source\PSoC5/USBUART.c **** 
 809:Generated_Source\PSoC5/USBUART.c ****     #if (USBUART_DP_ISR_ACTIVE)
 810:Generated_Source\PSoC5/USBUART.c ****         /* Clear active mode Dp interrupt source history. */
 811:Generated_Source\PSoC5/USBUART.c ****         (void) USBUART_Dp_ClearInterrupt();
 536              		.loc 1 811 0
 537 0064 FFF7FEFF 		bl	USBUART_Dp_ClearInterrupt
 538              	.LVL30:
 812:Generated_Source\PSoC5/USBUART.c ****         CyIntClearPending(USBUART_DP_INTC_VECT_NUM);
 539              		.loc 1 812 0
 540 0068 0B4B     		ldr	r3, .L23+12
 541 006a 4FF48052 		mov	r2, #4096
 542 006e 1A60     		str	r2, [r3]
 813:Generated_Source\PSoC5/USBUART.c ****     #endif /* (USBUART_DP_ISR_ACTIVE). */
 814:Generated_Source\PSoC5/USBUART.c **** 
 815:Generated_Source\PSoC5/USBUART.c **** #endif /* (CY_PSOC4) */
 816:Generated_Source\PSoC5/USBUART.c **** 
 817:Generated_Source\PSoC5/USBUART.c ****     /* Reset component internal variables. */
 818:Generated_Source\PSoC5/USBUART.c ****     USBUART_configurationChanged = 0u;
 543              		.loc 1 818 0
 544 0070 0A4A     		ldr	r2, .L23+16
 545 0072 0023     		movs	r3, #0
 546 0074 1370     		strb	r3, [r2]
 819:Generated_Source\PSoC5/USBUART.c ****     USBUART_configuration   = 0u;
 547              		.loc 1 819 0
 548 0076 0A4A     		ldr	r2, .L23+20
 549 0078 1370     		strb	r3, [r2]
 820:Generated_Source\PSoC5/USBUART.c ****     USBUART_interfaceNumber = 0u;
 550              		.loc 1 820 0
 551 007a 0A4A     		ldr	r2, .L23+24
 552 007c 1370     		strb	r3, [r2]
 821:Generated_Source\PSoC5/USBUART.c ****     USBUART_deviceAddress   = 0u;
 553              		.loc 1 821 0
 554 007e 0A4A     		ldr	r2, .L23+28
 555 0080 1370     		strb	r3, [r2]
 822:Generated_Source\PSoC5/USBUART.c ****     USBUART_deviceStatus    = 0u;
 556              		.loc 1 822 0
 557 0082 0A4A     		ldr	r2, .L23+32
 558 0084 1370     		strb	r3, [r2]
 823:Generated_Source\PSoC5/USBUART.c **** 
 824:Generated_Source\PSoC5/USBUART.c ****     /* It is mandatory for correct device startup. */
 825:Generated_Source\PSoC5/USBUART.c ****     USBUART_initVar = 0u;
 559              		.loc 1 825 0
 560 0086 0A4A     		ldr	r2, .L23+36
 561 0088 1370     		strb	r3, [r2]
 562 008a 08BD     		pop	{r3, pc}
 563              	.L24:
 564              		.align	2
 565              	.L23:
 566 008c 08600040 		.word	1073766408
ARM GAS  C:\Users\aupen\AppData\Local\Temp\cczUxnbz.s 			page 26


 567 0090 F8510040 		.word	1073762808
 568 0094 80E100E0 		.word	-536813184
 569 0098 80E200E0 		.word	-536812928
 570 009c 00000000 		.word	USBUART_configurationChanged
 571 00a0 00000000 		.word	USBUART_configuration
 572 00a4 00000000 		.word	USBUART_interfaceNumber
 573 00a8 00000000 		.word	USBUART_deviceAddress
 574 00ac 00000000 		.word	USBUART_deviceStatus
 575 00b0 00000000 		.word	.LANCHOR0
 576              		.cfi_endproc
 577              	.LFE4:
 578              		.size	USBUART_Stop, .-USBUART_Stop
 579              		.section	.text.USBUART_CheckActivity,"ax",%progbits
 580              		.align	1
 581              		.global	USBUART_CheckActivity
 582              		.thumb
 583              		.thumb_func
 584              		.type	USBUART_CheckActivity, %function
 585              	USBUART_CheckActivity:
 586              	.LFB5:
 826:Generated_Source\PSoC5/USBUART.c **** }
 827:Generated_Source\PSoC5/USBUART.c **** 
 828:Generated_Source\PSoC5/USBUART.c **** 
 829:Generated_Source\PSoC5/USBUART.c **** /*******************************************************************************
 830:Generated_Source\PSoC5/USBUART.c **** * Function Name: USBUART_CheckActivity
 831:Generated_Source\PSoC5/USBUART.c **** ****************************************************************************//**
 832:Generated_Source\PSoC5/USBUART.c **** *
 833:Generated_Source\PSoC5/USBUART.c **** *  This function returns the activity status of the bus. It clears the hardware
 834:Generated_Source\PSoC5/USBUART.c **** *  status to provide updated status on the next call of this function. It
 835:Generated_Source\PSoC5/USBUART.c **** *  provides a way to determine whether any USB bus activity occurred. The
 836:Generated_Source\PSoC5/USBUART.c **** *  application should use this function to determine if the USB suspend
 837:Generated_Source\PSoC5/USBUART.c **** *  conditions are met.
 838:Generated_Source\PSoC5/USBUART.c **** *
 839:Generated_Source\PSoC5/USBUART.c **** *
 840:Generated_Source\PSoC5/USBUART.c **** * \return
 841:Generated_Source\PSoC5/USBUART.c **** *  cystatus: Status of the bus since the last call of the function.
 842:Generated_Source\PSoC5/USBUART.c **** *  Return Value |   Description
 843:Generated_Source\PSoC5/USBUART.c **** *  -------------|---------------------------------------------------------------
 844:Generated_Source\PSoC5/USBUART.c **** *  1            |Bus activity was detected since the last call to this function
 845:Generated_Source\PSoC5/USBUART.c **** *  0            |Bus activity was not detected since the last call to this function
 846:Generated_Source\PSoC5/USBUART.c **** *
 847:Generated_Source\PSoC5/USBUART.c **** *
 848:Generated_Source\PSoC5/USBUART.c **** *******************************************************************************/
 849:Generated_Source\PSoC5/USBUART.c **** uint8 USBUART_CheckActivity(void) 
 850:Generated_Source\PSoC5/USBUART.c **** {
 587              		.loc 1 850 0
 588              		.cfi_startproc
 589              		@ args = 0, pretend = 0, frame = 0
 590              		@ frame_needed = 0, uses_anonymous_args = 0
 591              		@ link register save eliminated.
 851:Generated_Source\PSoC5/USBUART.c ****     uint8 cr1Reg = USBUART_CR1_REG;
 592              		.loc 1 851 0
 593 0000 044B     		ldr	r3, .L26
 594 0002 1878     		ldrb	r0, [r3]	@ zero_extendqisi2
 595 0004 C0B2     		uxtb	r0, r0
 596              	.LVL31:
 852:Generated_Source\PSoC5/USBUART.c **** 
ARM GAS  C:\Users\aupen\AppData\Local\Temp\cczUxnbz.s 			page 27


 853:Generated_Source\PSoC5/USBUART.c ****     /* Clear bus activity. */
 854:Generated_Source\PSoC5/USBUART.c ****     USBUART_CR1_REG = (cr1Reg & (uint8) ~USBUART_CR1_BUS_ACTIVITY);
 597              		.loc 1 854 0
 598 0006 00F0FB02 		and	r2, r0, #251
 599 000a 1A70     		strb	r2, [r3]
 855:Generated_Source\PSoC5/USBUART.c **** 
 856:Generated_Source\PSoC5/USBUART.c ****     /* Get bus activity. */
 857:Generated_Source\PSoC5/USBUART.c ****     return ((0u != (cr1Reg & USBUART_CR1_BUS_ACTIVITY)) ? (1u) : (0u));
 858:Generated_Source\PSoC5/USBUART.c **** }
 600              		.loc 1 858 0
 601 000c C0F38000 		ubfx	r0, r0, #2, #1
 602              	.LVL32:
 603 0010 7047     		bx	lr
 604              	.L27:
 605 0012 00BF     		.align	2
 606              	.L26:
 607 0014 09600040 		.word	1073766409
 608              		.cfi_endproc
 609              	.LFE5:
 610              		.size	USBUART_CheckActivity, .-USBUART_CheckActivity
 611              		.section	.text.USBUART_GetConfiguration,"ax",%progbits
 612              		.align	1
 613              		.global	USBUART_GetConfiguration
 614              		.thumb
 615              		.thumb_func
 616              		.type	USBUART_GetConfiguration, %function
 617              	USBUART_GetConfiguration:
 618              	.LFB6:
 859:Generated_Source\PSoC5/USBUART.c **** 
 860:Generated_Source\PSoC5/USBUART.c **** 
 861:Generated_Source\PSoC5/USBUART.c **** /*******************************************************************************
 862:Generated_Source\PSoC5/USBUART.c **** * Function Name: USBUART_GetConfiguration
 863:Generated_Source\PSoC5/USBUART.c **** ****************************************************************************//**
 864:Generated_Source\PSoC5/USBUART.c **** *
 865:Generated_Source\PSoC5/USBUART.c **** *  This function gets the current configuration of the USB device.
 866:Generated_Source\PSoC5/USBUART.c **** *
 867:Generated_Source\PSoC5/USBUART.c **** * \return
 868:Generated_Source\PSoC5/USBUART.c **** *  Returns the currently assigned configuration. Returns 0 if the device
 869:Generated_Source\PSoC5/USBUART.c **** *  is not configured
 870:Generated_Source\PSoC5/USBUART.c **** *
 871:Generated_Source\PSoC5/USBUART.c **** *******************************************************************************/
 872:Generated_Source\PSoC5/USBUART.c **** uint8 USBUART_GetConfiguration(void) 
 873:Generated_Source\PSoC5/USBUART.c **** {
 619              		.loc 1 873 0
 620              		.cfi_startproc
 621              		@ args = 0, pretend = 0, frame = 0
 622              		@ frame_needed = 0, uses_anonymous_args = 0
 623              		@ link register save eliminated.
 874:Generated_Source\PSoC5/USBUART.c ****     return (USBUART_configuration);
 624              		.loc 1 874 0
 625 0000 014B     		ldr	r3, .L29
 626 0002 1878     		ldrb	r0, [r3]	@ zero_extendqisi2
 875:Generated_Source\PSoC5/USBUART.c **** }
 627              		.loc 1 875 0
 628 0004 7047     		bx	lr
 629              	.L30:
 630 0006 00BF     		.align	2
ARM GAS  C:\Users\aupen\AppData\Local\Temp\cczUxnbz.s 			page 28


 631              	.L29:
 632 0008 00000000 		.word	USBUART_configuration
 633              		.cfi_endproc
 634              	.LFE6:
 635              		.size	USBUART_GetConfiguration, .-USBUART_GetConfiguration
 636              		.section	.text.USBUART_IsConfigurationChanged,"ax",%progbits
 637              		.align	1
 638              		.global	USBUART_IsConfigurationChanged
 639              		.thumb
 640              		.thumb_func
 641              		.type	USBUART_IsConfigurationChanged, %function
 642              	USBUART_IsConfigurationChanged:
 643              	.LFB7:
 876:Generated_Source\PSoC5/USBUART.c **** 
 877:Generated_Source\PSoC5/USBUART.c **** 
 878:Generated_Source\PSoC5/USBUART.c **** /*******************************************************************************
 879:Generated_Source\PSoC5/USBUART.c **** * Function Name: USBUART_IsConfigurationChanged
 880:Generated_Source\PSoC5/USBUART.c **** ****************************************************************************//**
 881:Generated_Source\PSoC5/USBUART.c **** *
 882:Generated_Source\PSoC5/USBUART.c **** *  This function returns the clear-on-read configuration state.  It is useful
 883:Generated_Source\PSoC5/USBUART.c **** *  when the host sends double SET_CONFIGURATION request with the same 
 884:Generated_Source\PSoC5/USBUART.c **** *  configuration number or changes alternate settings of the interface. 
 885:Generated_Source\PSoC5/USBUART.c **** *  After configuration has been changed the OUT endpoints must be enabled and IN 
 886:Generated_Source\PSoC5/USBUART.c **** *  endpoint must be loaded with data to start communication with the host.
 887:Generated_Source\PSoC5/USBUART.c **** *
 888:Generated_Source\PSoC5/USBUART.c **** * \return
 889:Generated_Source\PSoC5/USBUART.c **** *  None-zero value when new configuration has been changed, otherwise zero is
 890:Generated_Source\PSoC5/USBUART.c **** *  returned.
 891:Generated_Source\PSoC5/USBUART.c **** *
 892:Generated_Source\PSoC5/USBUART.c **** * \globalvars
 893:Generated_Source\PSoC5/USBUART.c **** *
 894:Generated_Source\PSoC5/USBUART.c **** *  \ref USBUART_configurationChanged - This variable is set to 1 after
 895:Generated_Source\PSoC5/USBUART.c **** *   a SET_CONFIGURATION request and cleared in this function.
 896:Generated_Source\PSoC5/USBUART.c **** *
 897:Generated_Source\PSoC5/USBUART.c **** *******************************************************************************/
 898:Generated_Source\PSoC5/USBUART.c **** uint8 USBUART_IsConfigurationChanged(void) 
 899:Generated_Source\PSoC5/USBUART.c **** {
 644              		.loc 1 899 0
 645              		.cfi_startproc
 646              		@ args = 0, pretend = 0, frame = 0
 647              		@ frame_needed = 0, uses_anonymous_args = 0
 648              		@ link register save eliminated.
 649              	.LVL33:
 900:Generated_Source\PSoC5/USBUART.c ****     uint8 res = 0u;
 901:Generated_Source\PSoC5/USBUART.c **** 
 902:Generated_Source\PSoC5/USBUART.c ****     if (USBUART_configurationChanged != 0u)
 650              		.loc 1 902 0
 651 0000 044B     		ldr	r3, .L34
 652 0002 1A78     		ldrb	r2, [r3]	@ zero_extendqisi2
 653 0004 02F0FF00 		and	r0, r2, #255
 654 0008 1AB1     		cbz	r2, .L32
 903:Generated_Source\PSoC5/USBUART.c ****     {
 904:Generated_Source\PSoC5/USBUART.c ****         res = USBUART_configurationChanged;
 655              		.loc 1 904 0
 656 000a 1878     		ldrb	r0, [r3]	@ zero_extendqisi2
 905:Generated_Source\PSoC5/USBUART.c ****         USBUART_configurationChanged = 0u;
 657              		.loc 1 905 0
ARM GAS  C:\Users\aupen\AppData\Local\Temp\cczUxnbz.s 			page 29


 658 000c 0022     		movs	r2, #0
 904:Generated_Source\PSoC5/USBUART.c ****         USBUART_configurationChanged = 0u;
 659              		.loc 1 904 0
 660 000e C0B2     		uxtb	r0, r0
 661              	.LVL34:
 662              		.loc 1 905 0
 663 0010 1A70     		strb	r2, [r3]
 664              	.LVL35:
 665              	.L32:
 906:Generated_Source\PSoC5/USBUART.c ****     }
 907:Generated_Source\PSoC5/USBUART.c **** 
 908:Generated_Source\PSoC5/USBUART.c ****     return (res);
 909:Generated_Source\PSoC5/USBUART.c **** }
 666              		.loc 1 909 0
 667 0012 7047     		bx	lr
 668              	.L35:
 669              		.align	2
 670              	.L34:
 671 0014 00000000 		.word	USBUART_configurationChanged
 672              		.cfi_endproc
 673              	.LFE7:
 674              		.size	USBUART_IsConfigurationChanged, .-USBUART_IsConfigurationChanged
 675              		.section	.text.USBUART_GetInterfaceSetting,"ax",%progbits
 676              		.align	1
 677              		.global	USBUART_GetInterfaceSetting
 678              		.thumb
 679              		.thumb_func
 680              		.type	USBUART_GetInterfaceSetting, %function
 681              	USBUART_GetInterfaceSetting:
 682              	.LFB8:
 910:Generated_Source\PSoC5/USBUART.c **** 
 911:Generated_Source\PSoC5/USBUART.c **** 
 912:Generated_Source\PSoC5/USBUART.c **** /*******************************************************************************
 913:Generated_Source\PSoC5/USBUART.c **** * Function Name: USBUART_GetInterfaceSetting
 914:Generated_Source\PSoC5/USBUART.c **** ****************************************************************************//**
 915:Generated_Source\PSoC5/USBUART.c **** *
 916:Generated_Source\PSoC5/USBUART.c **** *  This function gets the current alternate setting for the specified interface.
 917:Generated_Source\PSoC5/USBUART.c **** *  It is useful to identify which alternate settings are active in the specified 
 918:Generated_Source\PSoC5/USBUART.c **** *  interface.
 919:Generated_Source\PSoC5/USBUART.c **** *
 920:Generated_Source\PSoC5/USBUART.c **** *  \param
 921:Generated_Source\PSoC5/USBUART.c **** *  interfaceNumber interface number
 922:Generated_Source\PSoC5/USBUART.c **** *
 923:Generated_Source\PSoC5/USBUART.c **** * \return
 924:Generated_Source\PSoC5/USBUART.c **** *  Returns the current alternate setting for the specified interface.
 925:Generated_Source\PSoC5/USBUART.c **** *
 926:Generated_Source\PSoC5/USBUART.c **** *******************************************************************************/
 927:Generated_Source\PSoC5/USBUART.c **** uint8  USBUART_GetInterfaceSetting(uint8 interfaceNumber)
 928:Generated_Source\PSoC5/USBUART.c ****                                                     
 929:Generated_Source\PSoC5/USBUART.c **** {
 683              		.loc 1 929 0
 684              		.cfi_startproc
 685              		@ args = 0, pretend = 0, frame = 0
 686              		@ frame_needed = 0, uses_anonymous_args = 0
 687              		@ link register save eliminated.
 688              	.LVL36:
 930:Generated_Source\PSoC5/USBUART.c ****     return (USBUART_interfaceSetting[interfaceNumber]);
ARM GAS  C:\Users\aupen\AppData\Local\Temp\cczUxnbz.s 			page 30


 689              		.loc 1 930 0
 690 0000 014B     		ldr	r3, .L37
 691 0002 185C     		ldrb	r0, [r3, r0]	@ zero_extendqisi2
 692              	.LVL37:
 931:Generated_Source\PSoC5/USBUART.c **** }
 693              		.loc 1 931 0
 694 0004 7047     		bx	lr
 695              	.L38:
 696 0006 00BF     		.align	2
 697              	.L37:
 698 0008 00000000 		.word	USBUART_interfaceSetting
 699              		.cfi_endproc
 700              	.LFE8:
 701              		.size	USBUART_GetInterfaceSetting, .-USBUART_GetInterfaceSetting
 702              		.section	.text.USBUART_GetEPState,"ax",%progbits
 703              		.align	1
 704              		.global	USBUART_GetEPState
 705              		.thumb
 706              		.thumb_func
 707              		.type	USBUART_GetEPState, %function
 708              	USBUART_GetEPState:
 709              	.LFB9:
 932:Generated_Source\PSoC5/USBUART.c **** 
 933:Generated_Source\PSoC5/USBUART.c **** 
 934:Generated_Source\PSoC5/USBUART.c **** /*******************************************************************************
 935:Generated_Source\PSoC5/USBUART.c **** * Function Name: USBUART_GetEPState
 936:Generated_Source\PSoC5/USBUART.c **** ****************************************************************************//**
 937:Generated_Source\PSoC5/USBUART.c **** *
 938:Generated_Source\PSoC5/USBUART.c **** *  This function returns the state of the requested endpoint.
 939:Generated_Source\PSoC5/USBUART.c **** *
 940:Generated_Source\PSoC5/USBUART.c **** * \param epNumber Data endpoint number
 941:Generated_Source\PSoC5/USBUART.c **** *
 942:Generated_Source\PSoC5/USBUART.c **** * \return
 943:Generated_Source\PSoC5/USBUART.c **** *  Returns the current state of the specified USBFS endpoint. Symbolic names and
 944:Generated_Source\PSoC5/USBUART.c **** *  their associated values are given in the following table. Use these constants
 945:Generated_Source\PSoC5/USBUART.c **** *  whenever you write code to change the state of the endpoints, such as ISR
 946:Generated_Source\PSoC5/USBUART.c **** *  code, to handle data sent or received.
 947:Generated_Source\PSoC5/USBUART.c **** *
 948:Generated_Source\PSoC5/USBUART.c **** *  Return Value           | Description
 949:Generated_Source\PSoC5/USBUART.c **** *  -----------------------|-----------------------------------------------------
 950:Generated_Source\PSoC5/USBUART.c **** *  USBFS_NO_EVENT_PENDING |The endpoint is awaiting SIE action
 951:Generated_Source\PSoC5/USBUART.c **** *  USBFS_EVENT_PENDING    |The endpoint is awaiting CPU action
 952:Generated_Source\PSoC5/USBUART.c **** *  USBFS_NO_EVENT_ALLOWED |The endpoint is locked from access
 953:Generated_Source\PSoC5/USBUART.c **** *  USBFS_IN_BUFFER_FULL   |The IN endpoint is loaded and the mode is set to ACK IN
 954:Generated_Source\PSoC5/USBUART.c **** *  USBFS_IN_BUFFER_EMPTY  |An IN transaction occurred and more data can be loaded
 955:Generated_Source\PSoC5/USBUART.c **** *  USBFS_OUT_BUFFER_EMPTY |The OUT endpoint is set to ACK OUT and is waiting for data
 956:Generated_Source\PSoC5/USBUART.c **** *  USBFS_OUT_BUFFER_FULL  |An OUT transaction has occurred and data can be read
 957:Generated_Source\PSoC5/USBUART.c **** *
 958:Generated_Source\PSoC5/USBUART.c **** *******************************************************************************/
 959:Generated_Source\PSoC5/USBUART.c **** uint8 USBUART_GetEPState(uint8 epNumber) 
 960:Generated_Source\PSoC5/USBUART.c **** {
 710              		.loc 1 960 0
 711              		.cfi_startproc
 712              		@ args = 0, pretend = 0, frame = 0
 713              		@ frame_needed = 0, uses_anonymous_args = 0
 714              		@ link register save eliminated.
 715              	.LVL38:
ARM GAS  C:\Users\aupen\AppData\Local\Temp\cczUxnbz.s 			page 31


 961:Generated_Source\PSoC5/USBUART.c ****     return (USBUART_EP[epNumber].apiEpState);
 716              		.loc 1 961 0
 717 0000 024A     		ldr	r2, .L40
 718 0002 0C23     		movs	r3, #12
 719 0004 03FB0020 		mla	r0, r3, r0, r2
 720              	.LVL39:
 721 0008 4078     		ldrb	r0, [r0, #1]	@ zero_extendqisi2
 962:Generated_Source\PSoC5/USBUART.c **** }
 722              		.loc 1 962 0
 723 000a 7047     		bx	lr
 724              	.L41:
 725              		.align	2
 726              	.L40:
 727 000c 00000000 		.word	USBUART_EP
 728              		.cfi_endproc
 729              	.LFE9:
 730              		.size	USBUART_GetEPState, .-USBUART_GetEPState
 731              		.section	.text.USBUART_GetEPCount,"ax",%progbits
 732              		.align	1
 733              		.global	USBUART_GetEPCount
 734              		.thumb
 735              		.thumb_func
 736              		.type	USBUART_GetEPCount, %function
 737              	USBUART_GetEPCount:
 738              	.LFB10:
 963:Generated_Source\PSoC5/USBUART.c **** 
 964:Generated_Source\PSoC5/USBUART.c **** 
 965:Generated_Source\PSoC5/USBUART.c **** /*******************************************************************************
 966:Generated_Source\PSoC5/USBUART.c **** * Function Name: USBUART_GetEPCount
 967:Generated_Source\PSoC5/USBUART.c **** ****************************************************************************//**
 968:Generated_Source\PSoC5/USBUART.c **** *
 969:Generated_Source\PSoC5/USBUART.c **** *  This function supports Data Endpoints only(EP1-EP8).
 970:Generated_Source\PSoC5/USBUART.c **** *  Returns the transfer count for the requested endpoint.  The value from
 971:Generated_Source\PSoC5/USBUART.c **** *  the count registers includes 2 counts for the two byte checksum of the
 972:Generated_Source\PSoC5/USBUART.c **** *  packet.  This function subtracts the two counts.
 973:Generated_Source\PSoC5/USBUART.c **** *
 974:Generated_Source\PSoC5/USBUART.c **** *  \param epNumber Data Endpoint Number.
 975:Generated_Source\PSoC5/USBUART.c **** *                   Valid values are between 1 and 8.
 976:Generated_Source\PSoC5/USBUART.c **** *
 977:Generated_Source\PSoC5/USBUART.c **** * \return
 978:Generated_Source\PSoC5/USBUART.c **** *  Returns the current byte count from the specified endpoint or 0 for an
 979:Generated_Source\PSoC5/USBUART.c **** *  invalid endpoint.
 980:Generated_Source\PSoC5/USBUART.c **** *
 981:Generated_Source\PSoC5/USBUART.c **** *******************************************************************************/
 982:Generated_Source\PSoC5/USBUART.c **** uint16 USBUART_GetEPCount(uint8 epNumber) 
 983:Generated_Source\PSoC5/USBUART.c **** {
 739              		.loc 1 983 0
 740              		.cfi_startproc
 741              		@ args = 0, pretend = 0, frame = 0
 742              		@ frame_needed = 0, uses_anonymous_args = 0
 743              		@ link register save eliminated.
 744              	.LVL40:
 984:Generated_Source\PSoC5/USBUART.c ****     uint16 cntr = 0u;
 985:Generated_Source\PSoC5/USBUART.c **** 
 986:Generated_Source\PSoC5/USBUART.c ****     if ((epNumber > USBUART_EP0) && (epNumber < USBUART_MAX_EP))
 745              		.loc 1 986 0
 746 0000 431E     		subs	r3, r0, #1
ARM GAS  C:\Users\aupen\AppData\Local\Temp\cczUxnbz.s 			page 32


 747 0002 072B     		cmp	r3, #7
 748 0004 0CD8     		bhi	.L44
 749              	.LVL41:
 750              	.LBB4:
 751              	.LBB5:
 987:Generated_Source\PSoC5/USBUART.c ****     {
 988:Generated_Source\PSoC5/USBUART.c ****         /* Get 11-bits EP counter where epCnt0 - 3 bits MSB and epCnt1 - 8 bits LSB. */
 989:Generated_Source\PSoC5/USBUART.c ****         cntr  = ((uint16) USBUART_SIE_EP_BASE.sieEp[epNumber].epCnt0) & USBUART_EPX_CNT0_MASK;
 752              		.loc 1 989 0
 753 0006 074A     		ldr	r2, .L45
 754 0008 064B     		ldr	r3, .L45
 755 000a 0001     		lsls	r0, r0, #4
 756              	.LVL42:
 757 000c 0344     		add	r3, r3, r0
 758 000e 805C     		ldrb	r0, [r0, r2]	@ zero_extendqisi2
 759              	.LVL43:
 990:Generated_Source\PSoC5/USBUART.c ****         cntr  = ((uint16) (cntr << 8u)) | ((uint16) USBUART_SIE_EP_BASE.sieEp[epNumber].epCnt1);
 760              		.loc 1 990 0
 761 0010 5B78     		ldrb	r3, [r3, #1]	@ zero_extendqisi2
 762 0012 00F00F00 		and	r0, r0, #15
 763              	.LVL44:
 991:Generated_Source\PSoC5/USBUART.c ****         cntr -= USBUART_EPX_CNTX_CRC_COUNT;
 764              		.loc 1 991 0
 765 0016 43EA0020 		orr	r0, r3, r0, lsl #8
 766              	.LVL45:
 767 001a 0238     		subs	r0, r0, #2
 768 001c 80B2     		uxth	r0, r0
 769              	.LVL46:
 770 001e 7047     		bx	lr
 771              	.LVL47:
 772              	.L44:
 773              	.LBE5:
 774              	.LBE4:
 984:Generated_Source\PSoC5/USBUART.c **** 
 775              		.loc 1 984 0
 776 0020 0020     		movs	r0, #0
 777              	.LVL48:
 992:Generated_Source\PSoC5/USBUART.c ****     }
 993:Generated_Source\PSoC5/USBUART.c **** 
 994:Generated_Source\PSoC5/USBUART.c ****     return (cntr);
 995:Generated_Source\PSoC5/USBUART.c **** }
 778              		.loc 1 995 0
 779 0022 7047     		bx	lr
 780              	.L46:
 781              		.align	2
 782              	.L45:
 783 0024 FC5F0040 		.word	1073766396
 784              		.cfi_endproc
 785              	.LFE10:
 786              		.size	USBUART_GetEPCount, .-USBUART_GetEPCount
 787              		.section	.text.USBUART_LoadInEP,"ax",%progbits
 788              		.align	1
 789              		.global	USBUART_LoadInEP
 790              		.thumb
 791              		.thumb_func
 792              		.type	USBUART_LoadInEP, %function
 793              	USBUART_LoadInEP:
ARM GAS  C:\Users\aupen\AppData\Local\Temp\cczUxnbz.s 			page 33


 794              	.LFB11:
 996:Generated_Source\PSoC5/USBUART.c **** 
 997:Generated_Source\PSoC5/USBUART.c **** 
 998:Generated_Source\PSoC5/USBUART.c **** #if (USBUART_EP_MANAGEMENT_DMA)
 999:Generated_Source\PSoC5/USBUART.c **** #if (CY_PSOC4)
1000:Generated_Source\PSoC5/USBUART.c ****     /*******************************************************************************
1001:Generated_Source\PSoC5/USBUART.c ****     * Function Name: USBUART_InitEpDma
1002:Generated_Source\PSoC5/USBUART.c ****     ****************************************************************************//**
1003:Generated_Source\PSoC5/USBUART.c ****     *
1004:Generated_Source\PSoC5/USBUART.c ****     *  This function configures priority for all DMA channels utilized by the
1005:Generated_Source\PSoC5/USBUART.c ****     *  component. Also sets callbacks for DMA auto mode.
1006:Generated_Source\PSoC5/USBUART.c ****     *
1007:Generated_Source\PSoC5/USBUART.c ****     *******************************************************************************/
1008:Generated_Source\PSoC5/USBUART.c ****     static void USBUART_InitEpDma(void)
1009:Generated_Source\PSoC5/USBUART.c ****     {
1010:Generated_Source\PSoC5/USBUART.c ****     #if (USBUART_DMA1_ACTIVE)
1011:Generated_Source\PSoC5/USBUART.c ****         CYDMA_CH_CTL_BASE.ctl[USBUART_ep1_dma_CHANNEL] = USBUART_ep1_dma_CHANNEL_CFG;
1012:Generated_Source\PSoC5/USBUART.c ****     #endif /* (USBUART_DMA1_ACTIVE) */
1013:Generated_Source\PSoC5/USBUART.c **** 
1014:Generated_Source\PSoC5/USBUART.c ****     #if (USBUART_DMA2_ACTIVE)
1015:Generated_Source\PSoC5/USBUART.c ****         CYDMA_CH_CTL_BASE.ctl[USBUART_ep2_dma_CHANNEL] = USBUART_ep2_dma_CHANNEL_CFG;
1016:Generated_Source\PSoC5/USBUART.c ****     #endif /* (USBUART_DMA2_ACTIVE) */
1017:Generated_Source\PSoC5/USBUART.c **** 
1018:Generated_Source\PSoC5/USBUART.c ****     #if (USBUART_DMA3_ACTIVE)
1019:Generated_Source\PSoC5/USBUART.c ****         CYDMA_CH_CTL_BASE.ctl[USBUART_ep3_dma_CHANNEL] = USBUART_ep3_dma_CHANNEL_CFG;
1020:Generated_Source\PSoC5/USBUART.c ****     #endif /* (USBUART_DMA3_ACTIVE) */
1021:Generated_Source\PSoC5/USBUART.c **** 
1022:Generated_Source\PSoC5/USBUART.c ****     #if (USBUART_DMA4_ACTIVE)
1023:Generated_Source\PSoC5/USBUART.c ****         CYDMA_CH_CTL_BASE.ctl[USBUART_ep4_dma_CHANNEL] = USBUART_ep4_dma_CHANNEL_CFG;
1024:Generated_Source\PSoC5/USBUART.c ****     #endif /* (USBUART_DMA4_ACTIVE) */
1025:Generated_Source\PSoC5/USBUART.c **** 
1026:Generated_Source\PSoC5/USBUART.c ****     #if (USBUART_DMA5_ACTIVE)
1027:Generated_Source\PSoC5/USBUART.c ****         CYDMA_CH_CTL_BASE.ctl[USBUART_ep5_dma_CHANNEL] = USBUART_ep5_dma_CHANNEL_CFG;
1028:Generated_Source\PSoC5/USBUART.c ****     #endif /* (USBUART_DMA5_ACTIVE) */
1029:Generated_Source\PSoC5/USBUART.c **** 
1030:Generated_Source\PSoC5/USBUART.c ****     #if (USBUART_DMA6_ACTIVE)
1031:Generated_Source\PSoC5/USBUART.c ****         CYDMA_CH_CTL_BASE.ctl[USBUART_ep6_dma_CHANNEL] = USBUART_ep6_dma_CHANNEL_CFG;
1032:Generated_Source\PSoC5/USBUART.c ****     #endif /* (USBUART_DMA6_ACTIVE) */
1033:Generated_Source\PSoC5/USBUART.c **** 
1034:Generated_Source\PSoC5/USBUART.c ****     #if (USBUART_DMA7_ACTIVE)
1035:Generated_Source\PSoC5/USBUART.c ****         CYDMA_CH_CTL_BASE.ctl[USBUART_ep7_dma_CHANNEL] = USBUART_ep7_dma_CHANNEL_CFG;
1036:Generated_Source\PSoC5/USBUART.c ****     #endif /* (USBUART_DMA7_ACTIVE) */
1037:Generated_Source\PSoC5/USBUART.c **** 
1038:Generated_Source\PSoC5/USBUART.c ****     #if (USBUART_DMA8_ACTIVE)
1039:Generated_Source\PSoC5/USBUART.c ****         CYDMA_CH_CTL_BASE.ctl[USBUART_ep8_dma_CHANNEL] = USBUART_ep8_dma_CHANNEL_CFG;
1040:Generated_Source\PSoC5/USBUART.c ****     #endif /* (USBUART_DMA8_ACTIVE) */
1041:Generated_Source\PSoC5/USBUART.c **** 
1042:Generated_Source\PSoC5/USBUART.c ****     #if (USBUART_EP_MANAGEMENT_DMA_AUTO)
1043:Generated_Source\PSoC5/USBUART.c ****         /* Initialize DMA channel callbacks. */
1044:Generated_Source\PSoC5/USBUART.c ****         #if (USBUART_DMA1_ACTIVE)
1045:Generated_Source\PSoC5/USBUART.c ****             (void) USBUART_ep1_dma_SetInterruptCallback(&USBUART_EP1_DMA_DONE_ISR);
1046:Generated_Source\PSoC5/USBUART.c ****         #endif /* (USBUART_DMA1_ACTIVE) */
1047:Generated_Source\PSoC5/USBUART.c **** 
1048:Generated_Source\PSoC5/USBUART.c ****         #if (USBUART_DMA2_ACTIVE)
1049:Generated_Source\PSoC5/USBUART.c ****             (void) USBUART_ep2_dma_SetInterruptCallback(&USBUART_EP2_DMA_DONE_ISR);
1050:Generated_Source\PSoC5/USBUART.c ****         #endif /* (USBUART_DMA2_ACTIVE) */
1051:Generated_Source\PSoC5/USBUART.c **** 
ARM GAS  C:\Users\aupen\AppData\Local\Temp\cczUxnbz.s 			page 34


1052:Generated_Source\PSoC5/USBUART.c ****         #if (USBUART_DMA3_ACTIVE)
1053:Generated_Source\PSoC5/USBUART.c ****             (void) USBUART_ep3_dma_SetInterruptCallback(&USBUART_EP3_DMA_DONE_ISR);
1054:Generated_Source\PSoC5/USBUART.c ****         #endif /* (USBUART_DMA3_ACTIVE) */
1055:Generated_Source\PSoC5/USBUART.c **** 
1056:Generated_Source\PSoC5/USBUART.c ****         #if (USBUART_DMA4_ACTIVE)
1057:Generated_Source\PSoC5/USBUART.c ****             (void) USBUART_ep4_dma_SetInterruptCallback(&USBUART_EP4_DMA_DONE_ISR);
1058:Generated_Source\PSoC5/USBUART.c ****         #endif /* (USBUART_DMA4_ACTIVE) */
1059:Generated_Source\PSoC5/USBUART.c **** 
1060:Generated_Source\PSoC5/USBUART.c ****         #if (USBUART_DMA5_ACTIVE)
1061:Generated_Source\PSoC5/USBUART.c ****             (void) USBUART_ep5_dma_SetInterruptCallback(&USBUART_EP5_DMA_DONE_ISR);
1062:Generated_Source\PSoC5/USBUART.c ****         #endif /* (USBUART_DMA5_ACTIVE) */
1063:Generated_Source\PSoC5/USBUART.c **** 
1064:Generated_Source\PSoC5/USBUART.c ****         #if (USBUART_DMA6_ACTIVE)
1065:Generated_Source\PSoC5/USBUART.c ****             (void) USBUART_ep6_dma_SetInterruptCallback(&USBUART_EP6_DMA_DONE_ISR);
1066:Generated_Source\PSoC5/USBUART.c ****         #endif /* (USBUART_DMA6_ACTIVE) */
1067:Generated_Source\PSoC5/USBUART.c **** 
1068:Generated_Source\PSoC5/USBUART.c ****         #if (USBUART_DMA7_ACTIVE)
1069:Generated_Source\PSoC5/USBUART.c ****             (void) USBUART_ep7_dma_SetInterruptCallback(&USBUART_EP7_DMA_DONE_ISR);
1070:Generated_Source\PSoC5/USBUART.c ****         #endif /* (USBUART_DMA7_ACTIVE) */
1071:Generated_Source\PSoC5/USBUART.c **** 
1072:Generated_Source\PSoC5/USBUART.c ****         #if (USBUART_DMA8_ACTIVE)
1073:Generated_Source\PSoC5/USBUART.c ****             (void) USBUART_ep8_dma_SetInterruptCallback(&USBUART_EP8_DMA_DONE_ISR);
1074:Generated_Source\PSoC5/USBUART.c ****         #endif /* (USBUART_DMA8_ACTIVE) */
1075:Generated_Source\PSoC5/USBUART.c ****     #endif /* (USBUART_EP_MANAGEMENT_DMA_AUTO) */
1076:Generated_Source\PSoC5/USBUART.c ****     }
1077:Generated_Source\PSoC5/USBUART.c **** #else
1078:Generated_Source\PSoC5/USBUART.c **** 
1079:Generated_Source\PSoC5/USBUART.c **** 
1080:Generated_Source\PSoC5/USBUART.c ****     /***************************************************************************
1081:Generated_Source\PSoC5/USBUART.c ****     * Function Name: USBUART_InitEP_DMA
1082:Generated_Source\PSoC5/USBUART.c ****     ************************************************************************//**
1083:Generated_Source\PSoC5/USBUART.c ****     *
1084:Generated_Source\PSoC5/USBUART.c ****     *  This function allocates and initializes a DMA channel to be used by the
1085:Generated_Source\PSoC5/USBUART.c ****     *  USBUART_LoadInEP() or USBUART_ReadOutEP() APIs for data
1086:Generated_Source\PSoC5/USBUART.c ****     *  transfer. It is available when the Endpoint Memory Management parameter
1087:Generated_Source\PSoC5/USBUART.c ****     *  is set to DMA.
1088:Generated_Source\PSoC5/USBUART.c ****     *
1089:Generated_Source\PSoC5/USBUART.c ****     *  This function is automatically called from the USBFS_LoadInEP() and USBFS_ReadOutEP() APIs.
1090:Generated_Source\PSoC5/USBUART.c ****     *
1091:Generated_Source\PSoC5/USBUART.c ****     *  \param epNumber Contains the data endpoint number.
1092:Generated_Source\PSoC5/USBUART.c ****     *            Valid values are between 1 and 8.
1093:Generated_Source\PSoC5/USBUART.c ****     *  \param *pData Pointer to a data array that is related to the EP transfers.
1094:Generated_Source\PSoC5/USBUART.c ****     *
1095:Generated_Source\PSoC5/USBUART.c ****     * \reentrant No.
1096:Generated_Source\PSoC5/USBUART.c ****     *
1097:Generated_Source\PSoC5/USBUART.c ****     ***************************************************************************/
1098:Generated_Source\PSoC5/USBUART.c ****     void USBUART_InitEP_DMA(uint8 epNumber, const uint8 *pData)
1099:Generated_Source\PSoC5/USBUART.c ****                                                                     
1100:Generated_Source\PSoC5/USBUART.c ****     {
1101:Generated_Source\PSoC5/USBUART.c ****         uint16 src;
1102:Generated_Source\PSoC5/USBUART.c ****         uint16 dst;
1103:Generated_Source\PSoC5/USBUART.c **** 
1104:Generated_Source\PSoC5/USBUART.c ****     #if (CY_PSOC3)
1105:Generated_Source\PSoC5/USBUART.c ****         src = HI16(CYDEV_SRAM_BASE);
1106:Generated_Source\PSoC5/USBUART.c ****         dst = HI16(CYDEV_PERIPH_BASE);
1107:Generated_Source\PSoC5/USBUART.c ****         pData = pData;
1108:Generated_Source\PSoC5/USBUART.c ****     #else
ARM GAS  C:\Users\aupen\AppData\Local\Temp\cczUxnbz.s 			page 35


1109:Generated_Source\PSoC5/USBUART.c ****         if ((USBUART_EP[epNumber].addr & USBUART_DIR_IN) != 0u)
1110:Generated_Source\PSoC5/USBUART.c ****         {
1111:Generated_Source\PSoC5/USBUART.c ****             /* IN endpoint: source is memory buffer. */
1112:Generated_Source\PSoC5/USBUART.c ****             src = HI16(pData);
1113:Generated_Source\PSoC5/USBUART.c ****             dst = HI16(CYDEV_PERIPH_BASE);
1114:Generated_Source\PSoC5/USBUART.c ****         }
1115:Generated_Source\PSoC5/USBUART.c ****         else
1116:Generated_Source\PSoC5/USBUART.c ****         {
1117:Generated_Source\PSoC5/USBUART.c ****             /* OUT endpoint: source is USB IP memory buffer. */
1118:Generated_Source\PSoC5/USBUART.c ****             src = HI16(CYDEV_PERIPH_BASE);
1119:Generated_Source\PSoC5/USBUART.c ****             dst = HI16(pData);
1120:Generated_Source\PSoC5/USBUART.c ****         }
1121:Generated_Source\PSoC5/USBUART.c ****     #endif  /* (CY_PSOC3) */
1122:Generated_Source\PSoC5/USBUART.c **** 
1123:Generated_Source\PSoC5/USBUART.c ****         switch(epNumber)
1124:Generated_Source\PSoC5/USBUART.c ****         {
1125:Generated_Source\PSoC5/USBUART.c ****     #if (USBUART_DMA1_ACTIVE)
1126:Generated_Source\PSoC5/USBUART.c ****         case USBUART_EP1:
1127:Generated_Source\PSoC5/USBUART.c ****             USBUART_DmaChan[epNumber] = USBUART_ep1_DmaInitialize(USBUART_DMA_BYTES_PER_BURST,
1128:Generated_Source\PSoC5/USBUART.c ****                                                                                     USBUART_DMA_REQ
1129:Generated_Source\PSoC5/USBUART.c ****             break;
1130:Generated_Source\PSoC5/USBUART.c ****     #endif /* (USBUART_DMA1_ACTIVE) */
1131:Generated_Source\PSoC5/USBUART.c **** 
1132:Generated_Source\PSoC5/USBUART.c ****     #if (USBUART_DMA2_ACTIVE)
1133:Generated_Source\PSoC5/USBUART.c ****         case USBUART_EP2:
1134:Generated_Source\PSoC5/USBUART.c ****             USBUART_DmaChan[epNumber] = USBUART_ep2_DmaInitialize(USBUART_DMA_BYTES_PER_BURST,
1135:Generated_Source\PSoC5/USBUART.c ****                                                                                     USBUART_DMA_REQ
1136:Generated_Source\PSoC5/USBUART.c ****             break;
1137:Generated_Source\PSoC5/USBUART.c ****     #endif /* (USBUART_DMA2_ACTIVE) */
1138:Generated_Source\PSoC5/USBUART.c **** 
1139:Generated_Source\PSoC5/USBUART.c ****     #if (USBUART_DMA3_ACTIVE)
1140:Generated_Source\PSoC5/USBUART.c ****             case USBUART_EP3:
1141:Generated_Source\PSoC5/USBUART.c ****                 USBUART_DmaChan[epNumber] = USBUART_ep3_DmaInitialize(USBUART_DMA_BYTES_PER_BURST,
1142:Generated_Source\PSoC5/USBUART.c ****                                                                                         USBUART_DMA
1143:Generated_Source\PSoC5/USBUART.c ****             break;
1144:Generated_Source\PSoC5/USBUART.c ****     #endif /* (USBUART_DMA3_ACTIVE) */
1145:Generated_Source\PSoC5/USBUART.c **** 
1146:Generated_Source\PSoC5/USBUART.c ****     #if (USBUART_DMA4_ACTIVE)
1147:Generated_Source\PSoC5/USBUART.c ****             case USBUART_EP4:
1148:Generated_Source\PSoC5/USBUART.c ****                 USBUART_DmaChan[epNumber] = USBUART_ep4_DmaInitialize(USBUART_DMA_BYTES_PER_BURST,
1149:Generated_Source\PSoC5/USBUART.c ****                                                                                         USBUART_DMA
1150:Generated_Source\PSoC5/USBUART.c ****             break;
1151:Generated_Source\PSoC5/USBUART.c ****     #endif /* (USBUART_DMA4_ACTIVE) */
1152:Generated_Source\PSoC5/USBUART.c **** 
1153:Generated_Source\PSoC5/USBUART.c ****     #if (USBUART_DMA5_ACTIVE)
1154:Generated_Source\PSoC5/USBUART.c ****             case USBUART_EP5:
1155:Generated_Source\PSoC5/USBUART.c ****                 USBUART_DmaChan[epNumber] = USBUART_ep5_DmaInitialize(USBUART_DMA_BYTES_PER_BURST,
1156:Generated_Source\PSoC5/USBUART.c ****                                                                                         USBUART_DMA
1157:Generated_Source\PSoC5/USBUART.c ****             break;
1158:Generated_Source\PSoC5/USBUART.c ****     #endif /* (USBUART_DMA5_ACTIVE) */
1159:Generated_Source\PSoC5/USBUART.c **** 
1160:Generated_Source\PSoC5/USBUART.c ****     #if (USBUART_DMA6_ACTIVE)
1161:Generated_Source\PSoC5/USBUART.c ****         case USBUART_EP6:
1162:Generated_Source\PSoC5/USBUART.c ****             USBUART_DmaChan[epNumber] = USBUART_ep6_DmaInitialize(USBUART_DMA_BYTES_PER_BURST,
1163:Generated_Source\PSoC5/USBUART.c ****                                                                                     USBUART_DMA_REQ
1164:Generated_Source\PSoC5/USBUART.c ****             break;
1165:Generated_Source\PSoC5/USBUART.c ****     #endif /* (USBUART_DMA6_ACTIVE) */
ARM GAS  C:\Users\aupen\AppData\Local\Temp\cczUxnbz.s 			page 36


1166:Generated_Source\PSoC5/USBUART.c **** 
1167:Generated_Source\PSoC5/USBUART.c ****     #if (USBUART_DMA7_ACTIVE)
1168:Generated_Source\PSoC5/USBUART.c ****         case USBUART_EP7:
1169:Generated_Source\PSoC5/USBUART.c ****                 USBUART_DmaChan[epNumber] = USBUART_ep7_DmaInitialize(USBUART_DMA_BYTES_PER_BURST,
1170:Generated_Source\PSoC5/USBUART.c ****                                                                                         USBUART_DMA
1171:Generated_Source\PSoC5/USBUART.c ****             break;
1172:Generated_Source\PSoC5/USBUART.c ****     #endif /* (USBUART_DMA7_ACTIVE) */
1173:Generated_Source\PSoC5/USBUART.c **** 
1174:Generated_Source\PSoC5/USBUART.c ****     #if (USBUART_DMA8_ACTIVE)
1175:Generated_Source\PSoC5/USBUART.c ****         case USBUART_EP8:
1176:Generated_Source\PSoC5/USBUART.c ****                 USBUART_DmaChan[epNumber] = USBUART_ep8_DmaInitialize(USBUART_DMA_BYTES_PER_BURST,
1177:Generated_Source\PSoC5/USBUART.c ****                                                                                         USBUART_DMA
1178:Generated_Source\PSoC5/USBUART.c ****             break;
1179:Generated_Source\PSoC5/USBUART.c ****     #endif /* (USBUART_DMA8_ACTIVE) */
1180:Generated_Source\PSoC5/USBUART.c **** 
1181:Generated_Source\PSoC5/USBUART.c ****         default:
1182:Generated_Source\PSoC5/USBUART.c ****             /* Do nothing for endpoints other than 1-8. */
1183:Generated_Source\PSoC5/USBUART.c ****             break;
1184:Generated_Source\PSoC5/USBUART.c ****         }
1185:Generated_Source\PSoC5/USBUART.c **** 
1186:Generated_Source\PSoC5/USBUART.c ****         if ((epNumber > USBUART_EP0) && (epNumber < USBUART_MAX_EP))
1187:Generated_Source\PSoC5/USBUART.c ****         {
1188:Generated_Source\PSoC5/USBUART.c ****             USBUART_DmaTd[epNumber] = CyDmaTdAllocate();
1189:Generated_Source\PSoC5/USBUART.c **** 
1190:Generated_Source\PSoC5/USBUART.c ****         #if (USBUART_EP_MANAGEMENT_DMA_AUTO && (USBUART_EP_DMA_AUTO_OPT == 0u))
1191:Generated_Source\PSoC5/USBUART.c ****             USBUART_DmaNextTd[epNumber] = CyDmaTdAllocate();
1192:Generated_Source\PSoC5/USBUART.c ****         #endif /* (USBUART_EP_MANAGEMENT_DMA_AUTO && (USBUART_EP_DMA_AUTO_OPT == 0u)) */
1193:Generated_Source\PSoC5/USBUART.c ****         }
1194:Generated_Source\PSoC5/USBUART.c ****     }
1195:Generated_Source\PSoC5/USBUART.c **** #endif /* (CY_PSOC4) */
1196:Generated_Source\PSoC5/USBUART.c **** 
1197:Generated_Source\PSoC5/USBUART.c ****     /***************************************************************************
1198:Generated_Source\PSoC5/USBUART.c ****     * Function Name: USBUART_Stop_DMA
1199:Generated_Source\PSoC5/USBUART.c ****     ************************************************************************//**
1200:Generated_Source\PSoC5/USBUART.c ****     *  
1201:Generated_Source\PSoC5/USBUART.c ****     *  This function stops DMA channel associated with endpoint. It is available 
1202:Generated_Source\PSoC5/USBUART.c ****     *  when the Endpoint Buffer Management parameter is set to DMA. Call this 
1203:Generated_Source\PSoC5/USBUART.c ****     *  function when endpoint direction is changed from IN to OUT or vice versa 
1204:Generated_Source\PSoC5/USBUART.c ****     *  to trigger DMA re-configuration when USBUART_LoadInEP() or 
1205:Generated_Source\PSoC5/USBUART.c ****     *  USBUART_ReadOutEP() functions are called the first time. 
1206:Generated_Source\PSoC5/USBUART.c ****     *  
1207:Generated_Source\PSoC5/USBUART.c ****     *  \param epNumber: The data endpoint number for which associated DMA 
1208:Generated_Source\PSoC5/USBUART.c ****     *  channel is stopped. The range of valid values is between 1 and 8. To stop 
1209:Generated_Source\PSoC5/USBUART.c ****     *  all DMAs associated with endpoints call this function with 
1210:Generated_Source\PSoC5/USBUART.c ****     *  USBUART_MAX_EP argument.
1211:Generated_Source\PSoC5/USBUART.c ****     *
1212:Generated_Source\PSoC5/USBUART.c ****     * \reentrant
1213:Generated_Source\PSoC5/USBUART.c ****     *  No.
1214:Generated_Source\PSoC5/USBUART.c ****     *
1215:Generated_Source\PSoC5/USBUART.c ****     ***************************************************************************/
1216:Generated_Source\PSoC5/USBUART.c ****     void USBUART_Stop_DMA(uint8 epNumber) 
1217:Generated_Source\PSoC5/USBUART.c ****     {
1218:Generated_Source\PSoC5/USBUART.c ****         uint8 i;
1219:Generated_Source\PSoC5/USBUART.c **** 
1220:Generated_Source\PSoC5/USBUART.c ****         i = (epNumber < USBUART_MAX_EP) ? epNumber : USBUART_EP1;
1221:Generated_Source\PSoC5/USBUART.c **** 
1222:Generated_Source\PSoC5/USBUART.c ****         do
ARM GAS  C:\Users\aupen\AppData\Local\Temp\cczUxnbz.s 			page 37


1223:Generated_Source\PSoC5/USBUART.c ****         {
1224:Generated_Source\PSoC5/USBUART.c ****         #if (CY_PSOC4)
1225:Generated_Source\PSoC5/USBUART.c ****             if (0u != USBUART_DmaChan[i])
1226:Generated_Source\PSoC5/USBUART.c ****             {
1227:Generated_Source\PSoC5/USBUART.c ****                 USBUART_CyDmaChDisable(USBUART_DmaChan[i]);
1228:Generated_Source\PSoC5/USBUART.c ****             }
1229:Generated_Source\PSoC5/USBUART.c ****         #else
1230:Generated_Source\PSoC5/USBUART.c ****             if(USBUART_DmaTd[i] != DMA_INVALID_TD)
1231:Generated_Source\PSoC5/USBUART.c ****             {
1232:Generated_Source\PSoC5/USBUART.c ****                 (void) CyDmaChDisable(USBUART_DmaChan[i]);
1233:Generated_Source\PSoC5/USBUART.c ****                 CyDmaTdFree(USBUART_DmaTd[i]);
1234:Generated_Source\PSoC5/USBUART.c ****                 USBUART_DmaTd[i] = DMA_INVALID_TD;
1235:Generated_Source\PSoC5/USBUART.c ****             }
1236:Generated_Source\PSoC5/USBUART.c **** 
1237:Generated_Source\PSoC5/USBUART.c ****             #if (USBUART_EP_MANAGEMENT_DMA_AUTO && (USBUART_EP_DMA_AUTO_OPT == 0u))
1238:Generated_Source\PSoC5/USBUART.c ****                 if(USBUART_DmaNextTd[i] != DMA_INVALID_TD)
1239:Generated_Source\PSoC5/USBUART.c ****                 {
1240:Generated_Source\PSoC5/USBUART.c ****                     CyDmaTdFree(USBUART_DmaNextTd[i]);
1241:Generated_Source\PSoC5/USBUART.c ****                     USBUART_DmaNextTd[i] = DMA_INVALID_TD;
1242:Generated_Source\PSoC5/USBUART.c ****                 }
1243:Generated_Source\PSoC5/USBUART.c ****             #endif /* (USBUART_EP_MANAGEMENT_DMA_AUTO && (USBUART_EP_DMA_AUTO_OPT == 0u)) */
1244:Generated_Source\PSoC5/USBUART.c **** 
1245:Generated_Source\PSoC5/USBUART.c ****         #endif /* (CY_PSOC4) */
1246:Generated_Source\PSoC5/USBUART.c ****             i++;
1247:Generated_Source\PSoC5/USBUART.c ****         }
1248:Generated_Source\PSoC5/USBUART.c ****         while ((i < USBUART_MAX_EP) && (epNumber == USBUART_MAX_EP));
1249:Generated_Source\PSoC5/USBUART.c ****     }
1250:Generated_Source\PSoC5/USBUART.c **** #endif /* (USBUART_EP_MANAGEMENT_DMA) */
1251:Generated_Source\PSoC5/USBUART.c **** 
1252:Generated_Source\PSoC5/USBUART.c **** 
1253:Generated_Source\PSoC5/USBUART.c **** #if (CY_PSOC3 || CY_PSOC5)
1254:Generated_Source\PSoC5/USBUART.c **** #if (USBUART_EP_MANAGEMENT_DMA_AUTO && (USBUART_EP_DMA_AUTO_OPT == 0u))
1255:Generated_Source\PSoC5/USBUART.c ****     /***************************************************************************
1256:Generated_Source\PSoC5/USBUART.c ****     * Function Name: USBUART_LoadNextInEP
1257:Generated_Source\PSoC5/USBUART.c ****     ************************************************************************//**
1258:Generated_Source\PSoC5/USBUART.c ****     *
1259:Generated_Source\PSoC5/USBUART.c ****     * Summary:
1260:Generated_Source\PSoC5/USBUART.c ****     *  This internal function is used for IN endpoint DMA reconfiguration in
1261:Generated_Source\PSoC5/USBUART.c ****     *  Auto DMA mode.
1262:Generated_Source\PSoC5/USBUART.c ****     *
1263:Generated_Source\PSoC5/USBUART.c ****     * Parameters:
1264:Generated_Source\PSoC5/USBUART.c ****     *  epNumber: Contains the data endpoint number.
1265:Generated_Source\PSoC5/USBUART.c ****     *  mode:   0 - Configure DMA to send the the rest of data.
1266:Generated_Source\PSoC5/USBUART.c ****     *          1 - Configure DMA to repeat 2 last bytes of the first burst.
1267:Generated_Source\PSoC5/USBUART.c ****     *
1268:Generated_Source\PSoC5/USBUART.c ****     ***************************************************************************/
1269:Generated_Source\PSoC5/USBUART.c ****     void USBUART_LoadNextInEP(uint8 epNumber, uint8 mode) 
1270:Generated_Source\PSoC5/USBUART.c ****     {
1271:Generated_Source\PSoC5/USBUART.c ****         reg16 *convert;
1272:Generated_Source\PSoC5/USBUART.c **** 
1273:Generated_Source\PSoC5/USBUART.c ****         if (mode == 0u)
1274:Generated_Source\PSoC5/USBUART.c ****         {
1275:Generated_Source\PSoC5/USBUART.c ****             /* Configure DMA to send rest of data. */
1276:Generated_Source\PSoC5/USBUART.c ****             /* CyDmaTdSetConfiguration API is optimized to change transfer length only and configur
1277:Generated_Source\PSoC5/USBUART.c ****             convert = (reg16 *) &CY_DMA_TDMEM_STRUCT_PTR[USBUART_DmaTd[epNumber]].TD0[0u];
1278:Generated_Source\PSoC5/USBUART.c ****             /* Set transfer length. */
1279:Generated_Source\PSoC5/USBUART.c ****             CY_SET_REG16(convert, USBUART_inLength[epNumber] - USBUART_DMA_BYTES_PER_BURST);
ARM GAS  C:\Users\aupen\AppData\Local\Temp\cczUxnbz.s 			page 38


1280:Generated_Source\PSoC5/USBUART.c ****             /* CyDmaTdSetAddress API is optimized to change source address only. */
1281:Generated_Source\PSoC5/USBUART.c ****             convert = (reg16 *) &CY_DMA_TDMEM_STRUCT_PTR[USBUART_DmaTd[epNumber]].TD1[0u];
1282:Generated_Source\PSoC5/USBUART.c ****             CY_SET_REG16(convert, LO16((uint32)USBUART_inDataPointer[epNumber] +
1283:Generated_Source\PSoC5/USBUART.c ****                                             USBUART_DMA_BYTES_PER_BURST));
1284:Generated_Source\PSoC5/USBUART.c ****             USBUART_inBufFull[epNumber] = 1u;
1285:Generated_Source\PSoC5/USBUART.c ****         }
1286:Generated_Source\PSoC5/USBUART.c ****         else
1287:Generated_Source\PSoC5/USBUART.c ****         {
1288:Generated_Source\PSoC5/USBUART.c ****             /* Configure DMA to repeat 2 last bytes of the first burst. */
1289:Generated_Source\PSoC5/USBUART.c ****             /* CyDmaTdSetConfiguration API is optimized to change transfer length only and configur
1290:Generated_Source\PSoC5/USBUART.c ****             convert = (reg16 *) &CY_DMA_TDMEM_STRUCT_PTR[USBUART_DmaTd[epNumber]].TD0[0u];
1291:Generated_Source\PSoC5/USBUART.c ****             /* Set transfer length. */
1292:Generated_Source\PSoC5/USBUART.c ****             CY_SET_REG16(convert, USBUART_DMA_BYTES_REPEAT);
1293:Generated_Source\PSoC5/USBUART.c ****             /* CyDmaTdSetAddress API is optimized to change source address only. */
1294:Generated_Source\PSoC5/USBUART.c ****             convert = (reg16 *) &CY_DMA_TDMEM_STRUCT_PTR[USBUART_DmaTd[epNumber]].TD1[0u];
1295:Generated_Source\PSoC5/USBUART.c ****             CY_SET_REG16(convert,  LO16((uint32)USBUART_inDataPointer[epNumber] +
1296:Generated_Source\PSoC5/USBUART.c ****                                    (USBUART_DMA_BYTES_PER_BURST - USBUART_DMA_BYTES_REPEAT)));
1297:Generated_Source\PSoC5/USBUART.c ****         }
1298:Generated_Source\PSoC5/USBUART.c **** 
1299:Generated_Source\PSoC5/USBUART.c ****         /* CyDmaChSetInitialTd API is optimized to initialize TD. */
1300:Generated_Source\PSoC5/USBUART.c ****         CY_DMA_CH_STRUCT_PTR[USBUART_DmaChan[epNumber]].basic_status[1u] = USBUART_DmaTd[epNumber];
1301:Generated_Source\PSoC5/USBUART.c ****     }
1302:Generated_Source\PSoC5/USBUART.c **** #endif /* (USBUART_EP_MANAGEMENT_DMA_AUTO && (USBUART_EP_DMA_AUTO_OPT == 0u)) */
1303:Generated_Source\PSoC5/USBUART.c **** #endif /* (CY_PSOC3 || CY_PSOC5) */
1304:Generated_Source\PSoC5/USBUART.c **** 
1305:Generated_Source\PSoC5/USBUART.c **** 
1306:Generated_Source\PSoC5/USBUART.c **** /*******************************************************************************
1307:Generated_Source\PSoC5/USBUART.c **** * Function Name: USBUART_LoadInEP
1308:Generated_Source\PSoC5/USBUART.c **** ****************************************************************************//**
1309:Generated_Source\PSoC5/USBUART.c **** *
1310:Generated_Source\PSoC5/USBUART.c **** *  This function performs different functionality depending on the Component’s
1311:Generated_Source\PSoC5/USBUART.c **** *  configured Endpoint Buffer Management. This parameter is defined in
1312:Generated_Source\PSoC5/USBUART.c **** *  the Descriptor Root in Component Configure window.
1313:Generated_Source\PSoC5/USBUART.c **** *
1314:Generated_Source\PSoC5/USBUART.c **** *  *Manual (Static/Dynamic Allocation):*
1315:Generated_Source\PSoC5/USBUART.c **** *  This function loads and enables the specified USB data endpoint for an IN
1316:Generated_Source\PSoC5/USBUART.c **** *  data transfer.
1317:Generated_Source\PSoC5/USBUART.c **** *
1318:Generated_Source\PSoC5/USBUART.c **** *  *DMA with Manual Buffer Management:*
1319:Generated_Source\PSoC5/USBUART.c **** *  Configures DMA for a data transfer from system RAM to endpoint buffer.
1320:Generated_Source\PSoC5/USBUART.c **** *  Generates request for a transfer.
1321:Generated_Source\PSoC5/USBUART.c **** *
1322:Generated_Source\PSoC5/USBUART.c **** *  *DMA with Automatic Buffer Management:*
1323:Generated_Source\PSoC5/USBUART.c **** *  Configures DMA. This is required only once, so it is done only when parameter
1324:Generated_Source\PSoC5/USBUART.c **** *  pData is not NULL. When the pData pointer is NULL, the function skips this
1325:Generated_Source\PSoC5/USBUART.c **** *  task. Sets Data ready status: This generates the first DMA transfer and
1326:Generated_Source\PSoC5/USBUART.c **** *  prepares data in endpoint buffer.
1327:Generated_Source\PSoC5/USBUART.c **** *
1328:Generated_Source\PSoC5/USBUART.c **** *  \param epNumber Contains the data endpoint number.
1329:Generated_Source\PSoC5/USBUART.c **** *            Valid values are between 1 and 8.
1330:Generated_Source\PSoC5/USBUART.c **** *  \param *pData A pointer to a data array from which the data for the endpoint space
1331:Generated_Source\PSoC5/USBUART.c **** *          is loaded.
1332:Generated_Source\PSoC5/USBUART.c **** *  \param length The number of bytes to transfer from the array and then send as
1333:Generated_Source\PSoC5/USBUART.c **** *          a result of an IN request. Valid values are between 0 and 512
1334:Generated_Source\PSoC5/USBUART.c **** *          (1023 for DMA with Automatic Buffer Management mode). The value 512
1335:Generated_Source\PSoC5/USBUART.c **** *          is applicable if only one endpoint is used.
1336:Generated_Source\PSoC5/USBUART.c **** *
ARM GAS  C:\Users\aupen\AppData\Local\Temp\cczUxnbz.s 			page 39


1337:Generated_Source\PSoC5/USBUART.c **** *
1338:Generated_Source\PSoC5/USBUART.c **** * \reentrant
1339:Generated_Source\PSoC5/USBUART.c **** *  No.
1340:Generated_Source\PSoC5/USBUART.c **** *
1341:Generated_Source\PSoC5/USBUART.c **** *******************************************************************************/
1342:Generated_Source\PSoC5/USBUART.c **** void USBUART_LoadInEP(uint8 epNumber, const uint8 pData[], uint16 length)
1343:Generated_Source\PSoC5/USBUART.c ****                                                                         
1344:Generated_Source\PSoC5/USBUART.c **** {
 795              		.loc 1 1344 0
 796              		.cfi_startproc
 797              		@ args = 0, pretend = 0, frame = 0
 798              		@ frame_needed = 0, uses_anonymous_args = 0
 799              	.LVL49:
1345:Generated_Source\PSoC5/USBUART.c ****     if ((epNumber > USBUART_EP0) && (epNumber < USBUART_MAX_EP))
 800              		.loc 1 1345 0
 801 0000 431E     		subs	r3, r0, #1
 802 0002 072B     		cmp	r3, #7
1344:Generated_Source\PSoC5/USBUART.c ****     if ((epNumber > USBUART_EP0) && (epNumber < USBUART_MAX_EP))
 803              		.loc 1 1344 0
 804 0004 F0B5     		push	{r4, r5, r6, r7, lr}
 805              		.cfi_def_cfa_offset 20
 806              		.cfi_offset 4, -20
 807              		.cfi_offset 5, -16
 808              		.cfi_offset 6, -12
 809              		.cfi_offset 7, -8
 810              		.cfi_offset 14, -4
 811              		.loc 1 1345 0
 812 0006 31D8     		bhi	.L47
1346:Generated_Source\PSoC5/USBUART.c ****     {
1347:Generated_Source\PSoC5/USBUART.c ****     #if (!USBUART_EP_MANAGEMENT_DMA_AUTO)
1348:Generated_Source\PSoC5/USBUART.c ****         /* Limit length to available buffer USB IP buffer size.*/
1349:Generated_Source\PSoC5/USBUART.c ****         if (length > (USBUART_EPX_DATA_BUF_MAX - USBUART_EP[epNumber].buffOffset))
 813              		.loc 1 1349 0
 814 0008 194B     		ldr	r3, .L54
 815 000a 0C25     		movs	r5, #12
 816 000c 05FB0035 		mla	r5, r5, r0, r3
 817 0010 EC88     		ldrh	r4, [r5, #6]
1350:Generated_Source\PSoC5/USBUART.c ****         {
1351:Generated_Source\PSoC5/USBUART.c ****             length = USBUART_EPX_DATA_BUF_MAX - USBUART_EP[epNumber].buffOffset;
1352:Generated_Source\PSoC5/USBUART.c ****         }
1353:Generated_Source\PSoC5/USBUART.c ****     #endif /* (!USBUART_EP_MANAGEMENT_DMA_AUTO) */
1354:Generated_Source\PSoC5/USBUART.c **** 
1355:Generated_Source\PSoC5/USBUART.c ****         /* Set count and data toggle. */
1356:Generated_Source\PSoC5/USBUART.c ****         USBUART_SIE_EP_BASE.sieEp[epNumber].epCnt0 = (uint8) HI8(length) | USBUART_EP[epNumber].epT
 818              		.loc 1 1356 0
 819 0012 184F     		ldr	r7, .L54+4
1349:Generated_Source\PSoC5/USBUART.c ****         {
 820              		.loc 1 1349 0
 821 0014 A4B2     		uxth	r4, r4
 822 0016 C4F50074 		rsb	r4, r4, #512
 823 001a A242     		cmp	r2, r4
 824              		.loc 1 1356 0
 825 001c 4FF00C04 		mov	r4, #12
 826 0020 04FB0034 		mla	r4, r4, r0, r3
1351:Generated_Source\PSoC5/USBUART.c ****         }
 827              		.loc 1 1351 0
 828 0024 88BF     		it	hi
ARM GAS  C:\Users\aupen\AppData\Local\Temp\cczUxnbz.s 			page 40


 829 0026 EA88     		ldrhhi	r2, [r5, #6]
 830              	.LVL50:
 831              		.loc 1 1356 0
 832 0028 E678     		ldrb	r6, [r4, #3]	@ zero_extendqisi2
1351:Generated_Source\PSoC5/USBUART.c ****         }
 833              		.loc 1 1351 0
 834 002a 84BF     		itt	hi
 835 002c C2F50072 		rsbhi	r2, r2, #512
 836 0030 92B2     		uxthhi	r2, r2
 837              	.LVL51:
 838 0032 104C     		ldr	r4, .L54+4
 839              		.loc 1 1356 0
 840 0034 46EA1226 		orr	r6, r6, r2, lsr #8
 841 0038 0501     		lsls	r5, r0, #4
 842 003a EE55     		strb	r6, [r5, r7]
 843 003c 2C44     		add	r4, r4, r5
1357:Generated_Source\PSoC5/USBUART.c ****         USBUART_SIE_EP_BASE.sieEp[epNumber].epCnt1 = (uint8) LO8(length);
 844              		.loc 1 1357 0
 845 003e D6B2     		uxtb	r6, r2
 846 0040 6670     		strb	r6, [r4, #1]
1358:Generated_Source\PSoC5/USBUART.c **** 
1359:Generated_Source\PSoC5/USBUART.c ****     #if (USBUART_EP_MANAGEMENT_MANUAL)
1360:Generated_Source\PSoC5/USBUART.c ****         if (NULL != pData)
 847              		.loc 1 1360 0
 848 0042 41B9     		cbnz	r1, .L50
 849              	.L53:
1361:Generated_Source\PSoC5/USBUART.c ****         {
1362:Generated_Source\PSoC5/USBUART.c **** 			/* Copy data using arbiter data register. */
1363:Generated_Source\PSoC5/USBUART.c ****             uint16 i;
1364:Generated_Source\PSoC5/USBUART.c ****             for (i = 0u; i < length; ++i)
1365:Generated_Source\PSoC5/USBUART.c ****             {
1366:Generated_Source\PSoC5/USBUART.c ****                 USBUART_ARB_EP_BASE.arbEp[epNumber].rwDr = pData[i];
1367:Generated_Source\PSoC5/USBUART.c ****             }
1368:Generated_Source\PSoC5/USBUART.c ****         }
1369:Generated_Source\PSoC5/USBUART.c **** 
1370:Generated_Source\PSoC5/USBUART.c ****         /* IN endpoint buffer is full - read to be read. */
1371:Generated_Source\PSoC5/USBUART.c ****         USBUART_EP[epNumber].apiEpState = USBUART_NO_EVENT_PENDING;
 850              		.loc 1 1371 0
 851 0044 0C22     		movs	r2, #12
 852              	.LVL52:
 853 0046 02FB0030 		mla	r0, r2, r0, r3
 854              	.LVL53:
 855 004a 0023     		movs	r3, #0
 856 004c 4370     		strb	r3, [r0, #1]
1372:Generated_Source\PSoC5/USBUART.c **** 
1373:Generated_Source\PSoC5/USBUART.c ****         /* Arm IN endpoint. */
1374:Generated_Source\PSoC5/USBUART.c ****         USBUART_SIE_EP_BASE.sieEp[epNumber].epCr0 = USBUART_EP[epNumber].epMode;
 857              		.loc 1 1374 0
 858 004e 4379     		ldrb	r3, [r0, #5]	@ zero_extendqisi2
 859 0050 DBB2     		uxtb	r3, r3
 860 0052 A370     		strb	r3, [r4, #2]
 861 0054 F0BD     		pop	{r4, r5, r6, r7, pc}
 862              	.LVL54:
 863              	.L50:
1360:Generated_Source\PSoC5/USBUART.c ****         {
 864              		.loc 1 1360 0
 865 0056 0E46     		mov	r6, r1
ARM GAS  C:\Users\aupen\AppData\Local\Temp\cczUxnbz.s 			page 41


 866              	.LBB6:
1366:Generated_Source\PSoC5/USBUART.c ****             }
 867              		.loc 1 1366 0
 868 0058 074F     		ldr	r7, .L54+8
 869 005a 2F44     		add	r7, r7, r5
 870              	.L51:
 871              	.LVL55:
1364:Generated_Source\PSoC5/USBUART.c ****             {
 872              		.loc 1 1364 0 discriminator 1
 873 005c 751A     		subs	r5, r6, r1
 874 005e ADB2     		uxth	r5, r5
 875 0060 AA42     		cmp	r2, r5
 876 0062 EFD9     		bls	.L53
1366:Generated_Source\PSoC5/USBUART.c ****             }
 877              		.loc 1 1366 0 discriminator 3
 878 0064 16F8015B 		ldrb	r5, [r6], #1	@ zero_extendqisi2
 879              	.LVL56:
 880 0068 3D72     		strb	r5, [r7, #8]
 881              	.LVL57:
 882 006a F7E7     		b	.L51
 883              	.LVL58:
 884              	.L47:
 885 006c F0BD     		pop	{r4, r5, r6, r7, pc}
 886              	.L55:
 887 006e 00BF     		.align	2
 888              	.L54:
 889 0070 00000000 		.word	USBUART_EP
 890 0074 FC5F0040 		.word	1073766396
 891 0078 70600040 		.word	1073766512
 892              	.LBE6:
 893              		.cfi_endproc
 894              	.LFE11:
 895              		.size	USBUART_LoadInEP, .-USBUART_LoadInEP
 896              		.section	.text.USBUART_EnableOutEP,"ax",%progbits
 897              		.align	1
 898              		.global	USBUART_EnableOutEP
 899              		.thumb
 900              		.thumb_func
 901              		.type	USBUART_EnableOutEP, %function
 902              	USBUART_EnableOutEP:
 903              	.LFB13:
1375:Generated_Source\PSoC5/USBUART.c **** 
1376:Generated_Source\PSoC5/USBUART.c ****     #else
1377:Generated_Source\PSoC5/USBUART.c **** 
1378:Generated_Source\PSoC5/USBUART.c ****         #if (CY_PSOC3 || CY_PSOC5LP)
1379:Generated_Source\PSoC5/USBUART.c ****             /* Initialize DMA if it was not initialized. */
1380:Generated_Source\PSoC5/USBUART.c ****             if (DMA_INVALID_TD == USBUART_DmaTd[epNumber])
1381:Generated_Source\PSoC5/USBUART.c ****             {
1382:Generated_Source\PSoC5/USBUART.c ****                 USBUART_InitEP_DMA(epNumber, pData);
1383:Generated_Source\PSoC5/USBUART.c ****             }
1384:Generated_Source\PSoC5/USBUART.c ****         #endif /* (CY_PSOC3 || CY_PSOC5LP) */
1385:Generated_Source\PSoC5/USBUART.c **** 
1386:Generated_Source\PSoC5/USBUART.c ****         #if (USBUART_EP_MANAGEMENT_DMA_MANUAL)
1387:Generated_Source\PSoC5/USBUART.c ****             /* IN endpoint buffer will be fully loaded by DMA shortly. */
1388:Generated_Source\PSoC5/USBUART.c ****             USBUART_EP[epNumber].apiEpState = USBUART_NO_EVENT_PENDING;
1389:Generated_Source\PSoC5/USBUART.c **** 
1390:Generated_Source\PSoC5/USBUART.c ****             if ((pData != NULL) && (length > 0u))
ARM GAS  C:\Users\aupen\AppData\Local\Temp\cczUxnbz.s 			page 42


1391:Generated_Source\PSoC5/USBUART.c ****             {
1392:Generated_Source\PSoC5/USBUART.c ****             #if (CY_PSOC4)
1393:Generated_Source\PSoC5/USBUART.c ****                 uint32 channelNum = (uint32) USBUART_DmaChan[epNumber];
1394:Generated_Source\PSoC5/USBUART.c **** 
1395:Generated_Source\PSoC5/USBUART.c ****                 /* Disable DMA channel: start configuration. */
1396:Generated_Source\PSoC5/USBUART.c ****                 USBUART_CyDmaChDisable(channelNum);
1397:Generated_Source\PSoC5/USBUART.c **** 
1398:Generated_Source\PSoC5/USBUART.c ****                 /* Configure source and destination. */
1399:Generated_Source\PSoC5/USBUART.c ****                 USBUART_CyDmaSetSrcAddress(channelNum, USBUART_DMA_DESCR0, (void*) pData);
1400:Generated_Source\PSoC5/USBUART.c ****                 USBUART_CyDmaSetDstAddress(channelNum, USBUART_DMA_DESCR0, (void*) &USBUART_ARB_EP_
1401:Generated_Source\PSoC5/USBUART.c **** 
1402:Generated_Source\PSoC5/USBUART.c ****                 /* Configure DMA descriptor. */
1403:Generated_Source\PSoC5/USBUART.c ****                 --length;
1404:Generated_Source\PSoC5/USBUART.c ****                 USBUART_CyDmaSetConfiguration(channelNum, USBUART_DMA_DESCR0, USBUART_DMA_COMMON_CF
1405:Generated_Source\PSoC5/USBUART.c ****                                                         CYDMA_BYTE | CYDMA_ELEMENT_WORD | CYDMA_INC
1406:Generated_Source\PSoC5/USBUART.c **** 
1407:Generated_Source\PSoC5/USBUART.c ****                 /* Validate descriptor to execute on following DMA request. */
1408:Generated_Source\PSoC5/USBUART.c ****                 USBUART_CyDmaValidateDescriptor(channelNum, USBUART_DMA_DESCR0);
1409:Generated_Source\PSoC5/USBUART.c **** 
1410:Generated_Source\PSoC5/USBUART.c ****                 /* Enable DMA channel: configuration complete. */
1411:Generated_Source\PSoC5/USBUART.c ****                 USBUART_CyDmaChEnable(channelNum);
1412:Generated_Source\PSoC5/USBUART.c ****             #else
1413:Generated_Source\PSoC5/USBUART.c ****                 /* Configure DMA to transfer data. */
1414:Generated_Source\PSoC5/USBUART.c ****                 (void) CyDmaChDisable(USBUART_DmaChan[epNumber]);
1415:Generated_Source\PSoC5/USBUART.c ****                 (void) CyDmaTdSetConfiguration(USBUART_DmaTd[epNumber], length, CY_DMA_DISABLE_TD, 
1416:Generated_Source\PSoC5/USBUART.c ****                 (void) CyDmaTdSetAddress(USBUART_DmaTd[epNumber], LO16((uint32) pData), LO16((uint3
1417:Generated_Source\PSoC5/USBUART.c **** 
1418:Generated_Source\PSoC5/USBUART.c ****                 /* Enable DMA channel. */
1419:Generated_Source\PSoC5/USBUART.c ****                 (void) CyDmaChSetInitialTd(USBUART_DmaChan[epNumber], USBUART_DmaTd[epNumber]);
1420:Generated_Source\PSoC5/USBUART.c ****                 (void) CyDmaChEnable(USBUART_DmaChan[epNumber], 1u);
1421:Generated_Source\PSoC5/USBUART.c ****             #endif /* (CY_PSOC4) */
1422:Generated_Source\PSoC5/USBUART.c **** 
1423:Generated_Source\PSoC5/USBUART.c ****                 /* Generate DMA request. */
1424:Generated_Source\PSoC5/USBUART.c ****                 USBUART_ARB_EP_BASE.arbEp[epNumber].epCfg |=  (uint8)  USBUART_ARB_EPX_CFG_DMA_REQ;
1425:Generated_Source\PSoC5/USBUART.c ****                 USBUART_ARB_EP_BASE.arbEp[epNumber].epCfg &=  (uint8) ~USBUART_ARB_EPX_CFG_DMA_REQ;
1426:Generated_Source\PSoC5/USBUART.c **** 
1427:Generated_Source\PSoC5/USBUART.c ****                 /* IN endpoint will be armed in ARB_ISR(source: IN_BUF_FULL) after first DMA transf
1428:Generated_Source\PSoC5/USBUART.c ****             }
1429:Generated_Source\PSoC5/USBUART.c ****             else
1430:Generated_Source\PSoC5/USBUART.c ****             {
1431:Generated_Source\PSoC5/USBUART.c ****                 /* When zero-length packet: arm IN endpoint directly. */
1432:Generated_Source\PSoC5/USBUART.c ****                 USBUART_SIE_EP_BASE.sieEp[epNumber].epCr0 = USBUART_EP[epNumber].epMode;
1433:Generated_Source\PSoC5/USBUART.c ****             }
1434:Generated_Source\PSoC5/USBUART.c ****         #endif /* (USBUART_EP_MANAGEMENT_DMA_MANUAL) */
1435:Generated_Source\PSoC5/USBUART.c **** 
1436:Generated_Source\PSoC5/USBUART.c ****         #if (USBUART_EP_MANAGEMENT_DMA_AUTO)
1437:Generated_Source\PSoC5/USBUART.c ****             if (pData != NULL)
1438:Generated_Source\PSoC5/USBUART.c ****             {
1439:Generated_Source\PSoC5/USBUART.c ****             #if (CY_PSOC4)
1440:Generated_Source\PSoC5/USBUART.c ****                 uint32 channelNum = (uint32) USBUART_DmaChan[epNumber];
1441:Generated_Source\PSoC5/USBUART.c **** 
1442:Generated_Source\PSoC5/USBUART.c ****                 /* Store address of buffer. */
1443:Generated_Source\PSoC5/USBUART.c ****                 USBUART_DmaEpBufferAddrBackup[epNumber] = (uint32) pData;
1444:Generated_Source\PSoC5/USBUART.c **** 
1445:Generated_Source\PSoC5/USBUART.c ****                 /* Disable DMA channel: start configuration. */
1446:Generated_Source\PSoC5/USBUART.c ****                 USBUART_CyDmaChDisable(channelNum);
1447:Generated_Source\PSoC5/USBUART.c **** 
ARM GAS  C:\Users\aupen\AppData\Local\Temp\cczUxnbz.s 			page 43


1448:Generated_Source\PSoC5/USBUART.c ****                 /* Set destination address. */
1449:Generated_Source\PSoC5/USBUART.c ****                 USBUART_CyDmaSetDstAddress(channelNum, USBUART_DMA_DESCR0, (void*) &USBUART_ARB_EP_
1450:Generated_Source\PSoC5/USBUART.c ****                 USBUART_CyDmaSetDstAddress(channelNum, USBUART_DMA_DESCR1, (void*) &USBUART_ARB_EP_
1451:Generated_Source\PSoC5/USBUART.c **** 
1452:Generated_Source\PSoC5/USBUART.c ****                 /* Configure DMA descriptor. */
1453:Generated_Source\PSoC5/USBUART.c ****                 USBUART_CyDmaSetConfiguration(channelNum, USBUART_DMA_DESCR0, USBUART_DMA_COMMON_CF
1454:Generated_Source\PSoC5/USBUART.c ****                                                         CYDMA_BYTE | CYDMA_ELEMENT_WORD | CYDMA_INC
1455:Generated_Source\PSoC5/USBUART.c **** 
1456:Generated_Source\PSoC5/USBUART.c ****                 /* Configure DMA descriptor. */
1457:Generated_Source\PSoC5/USBUART.c ****                 USBUART_CyDmaSetConfiguration(channelNum, USBUART_DMA_DESCR1, USBUART_DMA_COMMON_CF
1458:Generated_Source\PSoC5/USBUART.c ****                                                         CYDMA_BYTE | CYDMA_ELEMENT_WORD | CYDMA_INC
1459:Generated_Source\PSoC5/USBUART.c **** 
1460:Generated_Source\PSoC5/USBUART.c ****                 /* Enable interrupt from DMA channel. */
1461:Generated_Source\PSoC5/USBUART.c ****                 USBUART_CyDmaSetInterruptMask(channelNum);
1462:Generated_Source\PSoC5/USBUART.c **** 
1463:Generated_Source\PSoC5/USBUART.c **** 
1464:Generated_Source\PSoC5/USBUART.c ****                 /* Enable DMA channel: configuration complete. */
1465:Generated_Source\PSoC5/USBUART.c ****                 USBUART_CyDmaChEnable(channelNum);
1466:Generated_Source\PSoC5/USBUART.c **** 
1467:Generated_Source\PSoC5/USBUART.c ****             #else
1468:Generated_Source\PSoC5/USBUART.c ****                 (void) CyDmaChDisable(USBUART_DmaChan[epNumber]);
1469:Generated_Source\PSoC5/USBUART.c **** 
1470:Generated_Source\PSoC5/USBUART.c ****                 #if (USBUART_EP_DMA_AUTO_OPT == 0u)
1471:Generated_Source\PSoC5/USBUART.c ****                     USBUART_inLength[epNumber] = length;
1472:Generated_Source\PSoC5/USBUART.c ****                     USBUART_inDataPointer[epNumber] = pData;
1473:Generated_Source\PSoC5/USBUART.c **** 
1474:Generated_Source\PSoC5/USBUART.c ****                     /* Configure DMA to send data only for first burst */
1475:Generated_Source\PSoC5/USBUART.c ****                     (void) CyDmaTdSetConfiguration(USBUART_DmaTd[epNumber],
1476:Generated_Source\PSoC5/USBUART.c ****                         (length > USBUART_DMA_BYTES_PER_BURST) ? USBUART_DMA_BYTES_PER_BURST : leng
1477:Generated_Source\PSoC5/USBUART.c ****                         USBUART_DmaNextTd[epNumber], TD_TERMIN_EN | TD_INC_SRC_ADR);
1478:Generated_Source\PSoC5/USBUART.c ****                     (void) CyDmaTdSetAddress(USBUART_DmaTd[epNumber], LO16((uint32) pData),
1479:Generated_Source\PSoC5/USBUART.c ****                                                                                LO16((uint32) &USBUA
1480:Generated_Source\PSoC5/USBUART.c **** 
1481:Generated_Source\PSoC5/USBUART.c ****                     /* The second TD will be executed only when the first one fails.
1482:Generated_Source\PSoC5/USBUART.c ****                     *  The intention of this TD is to generate NRQ interrupt
1483:Generated_Source\PSoC5/USBUART.c ****                     *  and repeat 2 last bytes of the first burst.
1484:Generated_Source\PSoC5/USBUART.c ****                     */
1485:Generated_Source\PSoC5/USBUART.c ****                     (void) CyDmaTdSetConfiguration(USBUART_DmaNextTd[epNumber], 1u,
1486:Generated_Source\PSoC5/USBUART.c ****                                                    USBUART_DmaNextTd[epNumber],
1487:Generated_Source\PSoC5/USBUART.c ****                                                    USBUART_epX_TD_TERMOUT_EN[epNumber]);
1488:Generated_Source\PSoC5/USBUART.c **** 
1489:Generated_Source\PSoC5/USBUART.c ****                     /* Configure DmaNextTd to clear Data Ready status. */
1490:Generated_Source\PSoC5/USBUART.c ****                     (void) CyDmaTdSetAddress(USBUART_DmaNextTd[epNumber], LO16((uint32) &clearInDat
1491:Generated_Source\PSoC5/USBUART.c ****                                                                                    LO16((uint32) &U
1492:Generated_Source\PSoC5/USBUART.c ****                 #else
1493:Generated_Source\PSoC5/USBUART.c ****                     /* Configure DMA to send all data. */
1494:Generated_Source\PSoC5/USBUART.c ****                     (void) CyDmaTdSetConfiguration(USBUART_DmaTd[epNumber], length,
1495:Generated_Source\PSoC5/USBUART.c ****                                                    USBUART_DmaTd[epNumber], TD_TERMIN_EN | TD_INC_S
1496:Generated_Source\PSoC5/USBUART.c ****                     (void) CyDmaTdSetAddress(USBUART_DmaTd[epNumber], LO16((uint32) pData),
1497:Generated_Source\PSoC5/USBUART.c ****                                                                                LO16((uint32) &USBUA
1498:Generated_Source\PSoC5/USBUART.c ****                 #endif /* (USBUART_EP_DMA_AUTO_OPT == 0u) */
1499:Generated_Source\PSoC5/USBUART.c **** 
1500:Generated_Source\PSoC5/USBUART.c ****                 /* Clear any potential pending DMA requests before starting DMA channel to transfer
1501:Generated_Source\PSoC5/USBUART.c ****                 (void) CyDmaClearPendingDrq(USBUART_DmaChan[epNumber]);
1502:Generated_Source\PSoC5/USBUART.c ****                 /* Enable DMA. */
1503:Generated_Source\PSoC5/USBUART.c ****                 (void) CyDmaChSetInitialTd(USBUART_DmaChan[epNumber], USBUART_DmaTd[epNumber]);
1504:Generated_Source\PSoC5/USBUART.c ****                 (void) CyDmaChEnable(USBUART_DmaChan[epNumber], 1u);
ARM GAS  C:\Users\aupen\AppData\Local\Temp\cczUxnbz.s 			page 44


1505:Generated_Source\PSoC5/USBUART.c ****             #endif /* (CY_PSOC4) */
1506:Generated_Source\PSoC5/USBUART.c ****             }
1507:Generated_Source\PSoC5/USBUART.c ****             else
1508:Generated_Source\PSoC5/USBUART.c ****             {
1509:Generated_Source\PSoC5/USBUART.c ****                 /* IN endpoint buffer (32 bytes) will shortly be preloaded by DMA. */
1510:Generated_Source\PSoC5/USBUART.c ****                 USBUART_EP[epNumber].apiEpState = USBUART_NO_EVENT_PENDING;
1511:Generated_Source\PSoC5/USBUART.c **** 
1512:Generated_Source\PSoC5/USBUART.c ****                 if (length > 0u)
1513:Generated_Source\PSoC5/USBUART.c ****                 {
1514:Generated_Source\PSoC5/USBUART.c ****                 #if (CY_PSOC4)
1515:Generated_Source\PSoC5/USBUART.c ****                     uint32 lengthDescr0, lengthDescr1;
1516:Generated_Source\PSoC5/USBUART.c ****                     uint32 channelNum = (uint32) USBUART_DmaChan[epNumber];
1517:Generated_Source\PSoC5/USBUART.c **** 
1518:Generated_Source\PSoC5/USBUART.c ****                     /* Get number of full bursts. */
1519:Generated_Source\PSoC5/USBUART.c ****                     USBUART_DmaEpBurstCnt[epNumber] = (uint8) (length / USBUART_DMA_BYTES_PER_BURST
1520:Generated_Source\PSoC5/USBUART.c **** 
1521:Generated_Source\PSoC5/USBUART.c ****                     /* Get number of elements in the last burst. */
1522:Generated_Source\PSoC5/USBUART.c ****                     USBUART_DmaEpLastBurstEl[epNumber] = (uint8) (length % USBUART_DMA_BYTES_PER_BU
1523:Generated_Source\PSoC5/USBUART.c **** 
1524:Generated_Source\PSoC5/USBUART.c ****                     /* Get total number of bursts. */
1525:Generated_Source\PSoC5/USBUART.c ****                     USBUART_DmaEpBurstCnt[epNumber] += (0u != USBUART_DmaEpLastBurstEl[epNumber]) ?
1526:Generated_Source\PSoC5/USBUART.c **** 
1527:Generated_Source\PSoC5/USBUART.c ****                     /* Adjust number of data elements transferred in last burst. */
1528:Generated_Source\PSoC5/USBUART.c ****                     USBUART_DmaEpLastBurstEl[epNumber] = (0u != USBUART_DmaEpLastBurstEl[epNumber])
1529:Generated_Source\PSoC5/USBUART.c ****                                                                           (USBUART_DmaEpLastBurstEl
1530:Generated_Source\PSoC5/USBUART.c ****                                                                           (USBUART_DMA_BYTES_PER_BU
1531:Generated_Source\PSoC5/USBUART.c **** 
1532:Generated_Source\PSoC5/USBUART.c ****                     /* Get number of data elements to transfer for descriptor 0 and 1. */
1533:Generated_Source\PSoC5/USBUART.c ****                     lengthDescr0 = (1u == USBUART_DmaEpBurstCnt[epNumber]) ? USBUART_DmaEpLastBurst
1534:Generated_Source\PSoC5/USBUART.c ****                     lengthDescr1 = (2u == USBUART_DmaEpBurstCnt[epNumber]) ? USBUART_DmaEpLastBurst
1535:Generated_Source\PSoC5/USBUART.c **** 
1536:Generated_Source\PSoC5/USBUART.c **** 
1537:Generated_Source\PSoC5/USBUART.c ****                     /* Mark which descriptor is last one to execute. */
1538:Generated_Source\PSoC5/USBUART.c ****                     USBUART_DmaEpLastBurstEl[epNumber] |= (0u != (USBUART_DmaEpBurstCnt[epNumber] &
1539:Generated_Source\PSoC5/USBUART.c ****                                                                             USBUART_DMA_DESCR0_MASK
1540:Generated_Source\PSoC5/USBUART.c **** 
1541:Generated_Source\PSoC5/USBUART.c ****                     /* Restore DMA settings for current transfer. */
1542:Generated_Source\PSoC5/USBUART.c ****                     USBUART_CyDmaChDisable(channelNum);
1543:Generated_Source\PSoC5/USBUART.c **** 
1544:Generated_Source\PSoC5/USBUART.c ****                     /* Restore destination address for input endpoint. */
1545:Generated_Source\PSoC5/USBUART.c ****                     USBUART_CyDmaSetSrcAddress(channelNum, USBUART_DMA_DESCR0, (void*) ((uint32) US
1546:Generated_Source\PSoC5/USBUART.c ****                     USBUART_CyDmaSetSrcAddress(channelNum, USBUART_DMA_DESCR1, (void*) ((uint32) US
1547:Generated_Source\PSoC5/USBUART.c ****                                                                                                    
1548:Generated_Source\PSoC5/USBUART.c **** 
1549:Generated_Source\PSoC5/USBUART.c ****                     /* Set number of elements to transfer. */
1550:Generated_Source\PSoC5/USBUART.c ****                     USBUART_CyDmaSetNumDataElements(channelNum, USBUART_DMA_DESCR0, lengthDescr0);
1551:Generated_Source\PSoC5/USBUART.c ****                     USBUART_CyDmaSetNumDataElements(channelNum, USBUART_DMA_DESCR1, lengthDescr1);
1552:Generated_Source\PSoC5/USBUART.c **** 
1553:Generated_Source\PSoC5/USBUART.c ****                     /* Validate descriptor 0 and command to start with it. */
1554:Generated_Source\PSoC5/USBUART.c ****                     USBUART_CyDmaValidateDescriptor(channelNum, USBUART_DMA_DESCR0);
1555:Generated_Source\PSoC5/USBUART.c ****                     USBUART_CyDmaSetDescriptor0Next(channelNum);
1556:Generated_Source\PSoC5/USBUART.c **** 
1557:Generated_Source\PSoC5/USBUART.c ****                     /* Validate descriptor 1. */
1558:Generated_Source\PSoC5/USBUART.c ****                     if (USBUART_DmaEpBurstCnt[epNumber] > 1u)
1559:Generated_Source\PSoC5/USBUART.c ****                     {
1560:Generated_Source\PSoC5/USBUART.c ****                         USBUART_CyDmaValidateDescriptor(channelNum, USBUART_DMA_DESCR1); 
1561:Generated_Source\PSoC5/USBUART.c ****                     }                   
ARM GAS  C:\Users\aupen\AppData\Local\Temp\cczUxnbz.s 			page 45


1562:Generated_Source\PSoC5/USBUART.c **** 
1563:Generated_Source\PSoC5/USBUART.c ****                     /* Adjust burst counter taking to account: 2 valid descriptors and interrupt tr
1564:Generated_Source\PSoC5/USBUART.c ****                     USBUART_DmaEpBurstCnt[epNumber] = USBUART_DMA_GET_BURST_CNT(USBUART_DmaEpBurstC
1565:Generated_Source\PSoC5/USBUART.c **** 
1566:Generated_Source\PSoC5/USBUART.c ****                     /* Enable DMA channel: configuration complete. */
1567:Generated_Source\PSoC5/USBUART.c ****                     USBUART_CyDmaChEnable(channelNum);
1568:Generated_Source\PSoC5/USBUART.c **** 
1569:Generated_Source\PSoC5/USBUART.c ****                 #elif (USBUART_EP_DMA_AUTO_OPT == 0u)
1570:Generated_Source\PSoC5/USBUART.c ****                     USBUART_inLength[epNumber]  = length;
1571:Generated_Source\PSoC5/USBUART.c ****                     USBUART_inBufFull[epNumber] = 0u;
1572:Generated_Source\PSoC5/USBUART.c **** 
1573:Generated_Source\PSoC5/USBUART.c ****                     (void) CyDmaChDisable(USBUART_DmaChan[epNumber]);
1574:Generated_Source\PSoC5/USBUART.c ****                     /* Configure DMA to send data only for first burst. */
1575:Generated_Source\PSoC5/USBUART.c ****                     (void) CyDmaTdSetConfiguration(
1576:Generated_Source\PSoC5/USBUART.c ****                         USBUART_DmaTd[epNumber], (length > USBUART_DMA_BYTES_PER_BURST) ?
1577:Generated_Source\PSoC5/USBUART.c ****                         USBUART_DMA_BYTES_PER_BURST : length,
1578:Generated_Source\PSoC5/USBUART.c ****                         USBUART_DmaNextTd[epNumber], TD_TERMIN_EN | TD_INC_SRC_ADR );
1579:Generated_Source\PSoC5/USBUART.c ****                     (void) CyDmaTdSetAddress(USBUART_DmaTd[epNumber], LO16((uint32)  USBUART_inData
1580:Generated_Source\PSoC5/USBUART.c ****                                                                                LO16((uint32) &USBUA
1581:Generated_Source\PSoC5/USBUART.c ****                     /* Clear Any potential pending DMA requests before starting DMA channel to tran
1582:Generated_Source\PSoC5/USBUART.c ****                     (void) CyDmaClearPendingDrq(USBUART_DmaChan[epNumber]);
1583:Generated_Source\PSoC5/USBUART.c ****                     /* Enable DMA. */
1584:Generated_Source\PSoC5/USBUART.c ****                     (void) CyDmaChSetInitialTd(USBUART_DmaChan[epNumber], USBUART_DmaTd[epNumber]);
1585:Generated_Source\PSoC5/USBUART.c ****                     (void) CyDmaChEnable(USBUART_DmaChan[epNumber], 1u);
1586:Generated_Source\PSoC5/USBUART.c ****                 #endif /* (CY_PSOC4) */
1587:Generated_Source\PSoC5/USBUART.c **** 
1588:Generated_Source\PSoC5/USBUART.c ****                 #if !defined (USBUART_MANUAL_IN_EP_ARM)
1589:Generated_Source\PSoC5/USBUART.c ****                     /* Set IN data ready to generate DMA request to load data into endpoint buffer.
1590:Generated_Source\PSoC5/USBUART.c ****                     USBUART_ARB_EP_BASE.arbEp[epNumber].epCfg |= USBUART_ARB_EPX_CFG_IN_DATA_RDY;
1591:Generated_Source\PSoC5/USBUART.c ****                 #endif  /* (USBUART_MANUAL_IN_EP_ARM) */
1592:Generated_Source\PSoC5/USBUART.c **** 
1593:Generated_Source\PSoC5/USBUART.c ****                     /* IN endpoint will be armed in ARB_ISR(source: IN_BUF_FULL) after first DMA tr
1594:Generated_Source\PSoC5/USBUART.c ****                 }
1595:Generated_Source\PSoC5/USBUART.c ****                 else
1596:Generated_Source\PSoC5/USBUART.c ****                 {
1597:Generated_Source\PSoC5/USBUART.c ****                     /* When zero-length packet: arm IN endpoint directly. */
1598:Generated_Source\PSoC5/USBUART.c ****                     USBUART_SIE_EP_BASE.sieEp[epNumber].epCr0 = USBUART_EP[epNumber].epMode;
1599:Generated_Source\PSoC5/USBUART.c ****                 }
1600:Generated_Source\PSoC5/USBUART.c ****             }
1601:Generated_Source\PSoC5/USBUART.c ****         #endif /* (USBUART_EP_MANAGEMENT_DMA_AUTO) */
1602:Generated_Source\PSoC5/USBUART.c ****     #endif /* (USBUART_EP_MANAGEMENT_MANUAL) */
1603:Generated_Source\PSoC5/USBUART.c ****     }
1604:Generated_Source\PSoC5/USBUART.c **** }
1605:Generated_Source\PSoC5/USBUART.c **** 
1606:Generated_Source\PSoC5/USBUART.c **** 
1607:Generated_Source\PSoC5/USBUART.c **** /*******************************************************************************
1608:Generated_Source\PSoC5/USBUART.c **** * Function Name: USBUART_ReadOutEP
1609:Generated_Source\PSoC5/USBUART.c **** ****************************************************************************//**
1610:Generated_Source\PSoC5/USBUART.c **** *
1611:Generated_Source\PSoC5/USBUART.c **** *   This function performs different functionality depending on the Component’s
1612:Generated_Source\PSoC5/USBUART.c **** *   configured Endpoint Buffer Management. This parameter is defined in the
1613:Generated_Source\PSoC5/USBUART.c **** *   Descriptor Root in Component Configure window.
1614:Generated_Source\PSoC5/USBUART.c **** *
1615:Generated_Source\PSoC5/USBUART.c **** *   *Manual (Static/Dynamic Allocation):*
1616:Generated_Source\PSoC5/USBUART.c **** *   This function moves the specified number of bytes from endpoint buffer to
1617:Generated_Source\PSoC5/USBUART.c **** *   system RAM. The number of bytes actually transferred from endpoint buffer to
1618:Generated_Source\PSoC5/USBUART.c **** *   system RAM is the lesser of the actual number of bytes sent by the host or
ARM GAS  C:\Users\aupen\AppData\Local\Temp\cczUxnbz.s 			page 46


1619:Generated_Source\PSoC5/USBUART.c **** *   the number of bytes requested by the length parameter.
1620:Generated_Source\PSoC5/USBUART.c **** *
1621:Generated_Source\PSoC5/USBUART.c **** *   *DMA with Manual Buffer Management:*
1622:Generated_Source\PSoC5/USBUART.c **** *   Configure DMA to transfer data from endpoint buffer to system RAM. Generate
1623:Generated_Source\PSoC5/USBUART.c **** *   a DMA request. The firmware must wait until the DMA completes the data
1624:Generated_Source\PSoC5/USBUART.c **** *   transfer after calling the USBUART_ReadOutEP() API. For example,
1625:Generated_Source\PSoC5/USBUART.c **** *   by checking EPstate:
1626:Generated_Source\PSoC5/USBUART.c **** *
1627:Generated_Source\PSoC5/USBUART.c **** *   \snippet /USBFS_sut_02.cydsn/main.c checking EPstatey
1628:Generated_Source\PSoC5/USBUART.c **** *
1629:Generated_Source\PSoC5/USBUART.c **** *   The USBFS_EnableOutEP() has to be called to allow host to write data into
1630:Generated_Source\PSoC5/USBUART.c **** *   the endpoint buffer after DMA has completed transfer data from OUT endpoint
1631:Generated_Source\PSoC5/USBUART.c **** *   buffer to SRAM.
1632:Generated_Source\PSoC5/USBUART.c **** *
1633:Generated_Source\PSoC5/USBUART.c **** *   *DMA with Automatic Buffer Management:*
1634:Generated_Source\PSoC5/USBUART.c **** *   Configure DMA. This is required only once and automatically generates DMA
1635:Generated_Source\PSoC5/USBUART.c **** *   requests as data arrives
1636:Generated_Source\PSoC5/USBUART.c **** *
1637:Generated_Source\PSoC5/USBUART.c **** *  \param epNumber: Contains the data endpoint number.
1638:Generated_Source\PSoC5/USBUART.c **** *            Valid values are between 1 and 8.
1639:Generated_Source\PSoC5/USBUART.c **** *  \param pData: A pointer to a data array from which the data for the endpoint
1640:Generated_Source\PSoC5/USBUART.c **** *         space is loaded.
1641:Generated_Source\PSoC5/USBUART.c **** *  \param length: The number of bytes to transfer from the USB Out endpoint and
1642:Generated_Source\PSoC5/USBUART.c **** *          loads it into data array. Valid values are between 0 and 1023. The
1643:Generated_Source\PSoC5/USBUART.c **** *          function moves fewer than the requested number of bytes if the host
1644:Generated_Source\PSoC5/USBUART.c **** *          sends fewer bytes than requested.
1645:Generated_Source\PSoC5/USBUART.c **** *
1646:Generated_Source\PSoC5/USBUART.c **** * \return
1647:Generated_Source\PSoC5/USBUART.c **** *  Number of bytes received, 0 for an invalid endpoint.
1648:Generated_Source\PSoC5/USBUART.c **** *
1649:Generated_Source\PSoC5/USBUART.c **** * \reentrant
1650:Generated_Source\PSoC5/USBUART.c **** *  No.
1651:Generated_Source\PSoC5/USBUART.c **** *
1652:Generated_Source\PSoC5/USBUART.c **** *******************************************************************************/
1653:Generated_Source\PSoC5/USBUART.c **** uint16 USBUART_ReadOutEP(uint8 epNumber, uint8 pData[], uint16 length)
1654:Generated_Source\PSoC5/USBUART.c ****                                                                         
1655:Generated_Source\PSoC5/USBUART.c **** {
1656:Generated_Source\PSoC5/USBUART.c ****     if ((pData != NULL) && (epNumber > USBUART_EP0) && (epNumber < USBUART_MAX_EP))
1657:Generated_Source\PSoC5/USBUART.c ****     {
1658:Generated_Source\PSoC5/USBUART.c ****     #if (!USBUART_EP_MANAGEMENT_DMA_AUTO)
1659:Generated_Source\PSoC5/USBUART.c ****         /* Adjust requested length to available data. */
1660:Generated_Source\PSoC5/USBUART.c ****         length = (length > USBUART_GetEPCount(epNumber)) ? USBUART_GetEPCount(epNumber) : length;
1661:Generated_Source\PSoC5/USBUART.c ****     #endif /* (!USBUART_EP_MANAGEMENT_DMA_AUTO) */
1662:Generated_Source\PSoC5/USBUART.c **** 
1663:Generated_Source\PSoC5/USBUART.c ****     #if (USBUART_EP_MANAGEMENT_MANUAL)
1664:Generated_Source\PSoC5/USBUART.c ****         {
1665:Generated_Source\PSoC5/USBUART.c ****             /* Copy data using arbiter data register. */
1666:Generated_Source\PSoC5/USBUART.c ****             uint16 i;
1667:Generated_Source\PSoC5/USBUART.c ****             for (i = 0u; i < length; ++i)
1668:Generated_Source\PSoC5/USBUART.c ****             {
1669:Generated_Source\PSoC5/USBUART.c ****                 pData[i] = (uint8) USBUART_ARB_EP_BASE.arbEp[epNumber].rwDr;
1670:Generated_Source\PSoC5/USBUART.c ****             }
1671:Generated_Source\PSoC5/USBUART.c ****         }
1672:Generated_Source\PSoC5/USBUART.c **** 
1673:Generated_Source\PSoC5/USBUART.c ****         /* Arm OUT endpoint after data has been copied from endpoint buffer. */
1674:Generated_Source\PSoC5/USBUART.c ****         USBUART_EnableOutEP(epNumber);
1675:Generated_Source\PSoC5/USBUART.c ****     #else
ARM GAS  C:\Users\aupen\AppData\Local\Temp\cczUxnbz.s 			page 47


1676:Generated_Source\PSoC5/USBUART.c **** 
1677:Generated_Source\PSoC5/USBUART.c ****         #if (CY_PSOC3 || CY_PSOC5LP)
1678:Generated_Source\PSoC5/USBUART.c ****             /* Initialize DMA if it was not initialized. */
1679:Generated_Source\PSoC5/USBUART.c ****             if (DMA_INVALID_TD == USBUART_DmaTd[epNumber])
1680:Generated_Source\PSoC5/USBUART.c ****             {
1681:Generated_Source\PSoC5/USBUART.c ****                 USBUART_InitEP_DMA(epNumber, pData);
1682:Generated_Source\PSoC5/USBUART.c ****             }
1683:Generated_Source\PSoC5/USBUART.c ****         #endif /* (CY_PSOC3 || CY_PSOC5LP) */
1684:Generated_Source\PSoC5/USBUART.c **** 
1685:Generated_Source\PSoC5/USBUART.c ****         #if (USBUART_EP_MANAGEMENT_DMA_MANUAL)
1686:Generated_Source\PSoC5/USBUART.c ****         #if (CY_PSOC4)
1687:Generated_Source\PSoC5/USBUART.c ****         {
1688:Generated_Source\PSoC5/USBUART.c ****             uint32 channelNum = (uint32) USBUART_DmaChan[epNumber];
1689:Generated_Source\PSoC5/USBUART.c **** 
1690:Generated_Source\PSoC5/USBUART.c ****             /* Disable DMA channel: start configuration. */
1691:Generated_Source\PSoC5/USBUART.c ****             USBUART_CyDmaChDisable(channelNum);
1692:Generated_Source\PSoC5/USBUART.c **** 
1693:Generated_Source\PSoC5/USBUART.c ****             /* Configure source and destination. */
1694:Generated_Source\PSoC5/USBUART.c ****             USBUART_CyDmaSetSrcAddress(channelNum, USBUART_DMA_DESCR0, (void*) &USBUART_ARB_EP_BASE
1695:Generated_Source\PSoC5/USBUART.c ****             USBUART_CyDmaSetDstAddress(channelNum, USBUART_DMA_DESCR0, (void*) pData);
1696:Generated_Source\PSoC5/USBUART.c **** 
1697:Generated_Source\PSoC5/USBUART.c ****             /* Configure DMA descriptor. */
1698:Generated_Source\PSoC5/USBUART.c ****             USBUART_CyDmaSetConfiguration(channelNum, USBUART_DMA_DESCR0, USBUART_DMA_COMMON_CFG | 
1699:Generated_Source\PSoC5/USBUART.c ****                                                     CYDMA_BYTE | CYDMA_WORD_ELEMENT | CYDMA_INC_DST
1700:Generated_Source\PSoC5/USBUART.c **** 
1701:Generated_Source\PSoC5/USBUART.c ****             /* Validate descriptor to execute on following DMA request. */
1702:Generated_Source\PSoC5/USBUART.c ****             USBUART_CyDmaValidateDescriptor(channelNum, USBUART_DMA_DESCR0);
1703:Generated_Source\PSoC5/USBUART.c **** 
1704:Generated_Source\PSoC5/USBUART.c ****             /* Enable DMA channel: configuration complete. */
1705:Generated_Source\PSoC5/USBUART.c ****             USBUART_CyDmaChEnable(channelNum);
1706:Generated_Source\PSoC5/USBUART.c ****         }
1707:Generated_Source\PSoC5/USBUART.c ****         #else
1708:Generated_Source\PSoC5/USBUART.c ****             /* Configure DMA to transfer data. */
1709:Generated_Source\PSoC5/USBUART.c ****             (void) CyDmaChDisable(USBUART_DmaChan[epNumber]);
1710:Generated_Source\PSoC5/USBUART.c ****             (void) CyDmaTdSetConfiguration(USBUART_DmaTd[epNumber], length, CY_DMA_DISABLE_TD, TD_T
1711:Generated_Source\PSoC5/USBUART.c ****             (void) CyDmaTdSetAddress(USBUART_DmaTd[epNumber], LO16((uint32) &USBUART_ARB_EP_BASE.ar
1712:Generated_Source\PSoC5/USBUART.c **** 
1713:Generated_Source\PSoC5/USBUART.c ****             /* Enable DMA channel. */
1714:Generated_Source\PSoC5/USBUART.c ****             (void) CyDmaChSetInitialTd(USBUART_DmaChan[epNumber], USBUART_DmaTd[epNumber]);
1715:Generated_Source\PSoC5/USBUART.c ****             (void) CyDmaChEnable(USBUART_DmaChan[epNumber], 1u);
1716:Generated_Source\PSoC5/USBUART.c ****         #endif /* (CY_PSOC4) */
1717:Generated_Source\PSoC5/USBUART.c **** 
1718:Generated_Source\PSoC5/USBUART.c ****             /* Generate DMA request. */
1719:Generated_Source\PSoC5/USBUART.c ****             USBUART_ARB_EP_BASE.arbEp[epNumber].epCfg |=  (uint8)  USBUART_ARB_EPX_CFG_DMA_REQ;
1720:Generated_Source\PSoC5/USBUART.c ****             USBUART_ARB_EP_BASE.arbEp[epNumber].epCfg &=  (uint8) ~USBUART_ARB_EPX_CFG_DMA_REQ;
1721:Generated_Source\PSoC5/USBUART.c **** 
1722:Generated_Source\PSoC5/USBUART.c ****             /* OUT endpoint has to be armed again by user when DMA transfers have been completed.
1723:Generated_Source\PSoC5/USBUART.c ****             * NO_EVENT_PENDING: notifies that data has been copied from endpoint buffer.
1724:Generated_Source\PSoC5/USBUART.c ****             */
1725:Generated_Source\PSoC5/USBUART.c **** 
1726:Generated_Source\PSoC5/USBUART.c ****         #endif /* (USBUART_EP_MANAGEMENT_DMA_MANUAL) */
1727:Generated_Source\PSoC5/USBUART.c **** 
1728:Generated_Source\PSoC5/USBUART.c ****         #if (USBUART_EP_MANAGEMENT_DMA_AUTO)
1729:Generated_Source\PSoC5/USBUART.c ****         #if (CY_PSOC4)
1730:Generated_Source\PSoC5/USBUART.c ****         {
1731:Generated_Source\PSoC5/USBUART.c ****             uint32 channelNum = (uint32) USBUART_DmaChan[epNumber];
1732:Generated_Source\PSoC5/USBUART.c ****             uint32 lengthDescr0, lengthDescr1;
ARM GAS  C:\Users\aupen\AppData\Local\Temp\cczUxnbz.s 			page 48


1733:Generated_Source\PSoC5/USBUART.c **** 
1734:Generated_Source\PSoC5/USBUART.c ****             /* Get number of full bursts. */
1735:Generated_Source\PSoC5/USBUART.c ****             USBUART_DmaEpBurstCnt[epNumber] = (uint8) (length / USBUART_DMA_BYTES_PER_BURST);
1736:Generated_Source\PSoC5/USBUART.c **** 
1737:Generated_Source\PSoC5/USBUART.c ****             /* Get number of elements in the last burst. */
1738:Generated_Source\PSoC5/USBUART.c ****             USBUART_DmaEpLastBurstEl[epNumber] = (uint8) (length % USBUART_DMA_BYTES_PER_BURST);
1739:Generated_Source\PSoC5/USBUART.c **** 
1740:Generated_Source\PSoC5/USBUART.c ****             /* Get total number of bursts. */
1741:Generated_Source\PSoC5/USBUART.c ****             USBUART_DmaEpBurstCnt[epNumber] += (0u != USBUART_DmaEpLastBurstEl[epNumber]) ? 1u : 0u
1742:Generated_Source\PSoC5/USBUART.c **** 
1743:Generated_Source\PSoC5/USBUART.c ****             /* Adjust number of the data elements transfered in last burst. */
1744:Generated_Source\PSoC5/USBUART.c ****             USBUART_DmaEpLastBurstEl[epNumber] = (0u != USBUART_DmaEpLastBurstEl[epNumber]) ?
1745:Generated_Source\PSoC5/USBUART.c ****                                                                   (USBUART_DmaEpLastBurstEl[epNumbe
1746:Generated_Source\PSoC5/USBUART.c ****                                                                   (USBUART_DMA_BYTES_PER_BURST - 1u
1747:Generated_Source\PSoC5/USBUART.c **** 
1748:Generated_Source\PSoC5/USBUART.c ****             /* Get number of data elements to transfer for descriptor 0 and 1. */
1749:Generated_Source\PSoC5/USBUART.c ****             lengthDescr0 = (1u == USBUART_DmaEpBurstCnt[epNumber]) ? USBUART_DmaEpLastBurstEl[epNum
1750:Generated_Source\PSoC5/USBUART.c ****             lengthDescr1 = (2u == USBUART_DmaEpBurstCnt[epNumber]) ? USBUART_DmaEpLastBurstEl[epNum
1751:Generated_Source\PSoC5/USBUART.c **** 
1752:Generated_Source\PSoC5/USBUART.c ****             /* Mark if revert number of data elements in descriptor after transfer completion. */
1753:Generated_Source\PSoC5/USBUART.c ****             USBUART_DmaEpLastBurstEl[epNumber] |= (USBUART_DmaEpBurstCnt[epNumber] > 2u) ? USBUART_
1754:Generated_Source\PSoC5/USBUART.c **** 
1755:Generated_Source\PSoC5/USBUART.c ****             /* Mark last descriptor to be executed. */
1756:Generated_Source\PSoC5/USBUART.c ****             USBUART_DmaEpLastBurstEl[epNumber] |= (0u != (USBUART_DmaEpBurstCnt[epNumber] & 0x1u)) 
1757:Generated_Source\PSoC5/USBUART.c ****                                                                     USBUART_DMA_DESCR0_MASK : USBUA
1758:Generated_Source\PSoC5/USBUART.c **** 
1759:Generated_Source\PSoC5/USBUART.c ****             /* Store address of buffer and burst counter for endpoint. */
1760:Generated_Source\PSoC5/USBUART.c ****             USBUART_DmaEpBufferAddrBackup[epNumber] = (uint32) pData;
1761:Generated_Source\PSoC5/USBUART.c ****             USBUART_DmaEpBurstCntBackup[epNumber]   = USBUART_DmaEpBurstCnt[epNumber];
1762:Generated_Source\PSoC5/USBUART.c **** 
1763:Generated_Source\PSoC5/USBUART.c ****             /* Adjust burst counter taking to account: 2 valid descriptors and interrupt trigger af
1764:Generated_Source\PSoC5/USBUART.c ****             USBUART_DmaEpBurstCnt[epNumber] = USBUART_DMA_GET_BURST_CNT(USBUART_DmaEpBurstCnt[epNum
1765:Generated_Source\PSoC5/USBUART.c **** 
1766:Generated_Source\PSoC5/USBUART.c ****             /* Disable DMA channel: start configuration. */
1767:Generated_Source\PSoC5/USBUART.c ****             USBUART_CyDmaChDisable(channelNum);
1768:Generated_Source\PSoC5/USBUART.c **** 
1769:Generated_Source\PSoC5/USBUART.c ****             /* Set destination address. */
1770:Generated_Source\PSoC5/USBUART.c ****             USBUART_CyDmaSetSrcAddress(channelNum, USBUART_DMA_DESCR0, (void*) &USBUART_ARB_EP_BASE
1771:Generated_Source\PSoC5/USBUART.c ****             USBUART_CyDmaSetSrcAddress(channelNum, USBUART_DMA_DESCR1, (void*) &USBUART_ARB_EP_BASE
1772:Generated_Source\PSoC5/USBUART.c **** 
1773:Generated_Source\PSoC5/USBUART.c ****             USBUART_CyDmaSetDstAddress(channelNum, USBUART_DMA_DESCR0, (void*) ((uint32) pData));
1774:Generated_Source\PSoC5/USBUART.c ****             USBUART_CyDmaSetDstAddress(channelNum, USBUART_DMA_DESCR1, (void*) ((uint32) pData + US
1775:Generated_Source\PSoC5/USBUART.c **** 
1776:Generated_Source\PSoC5/USBUART.c ****             /* Configure DMA descriptor. */
1777:Generated_Source\PSoC5/USBUART.c ****             USBUART_CyDmaSetConfiguration(channelNum, USBUART_DMA_DESCR0, USBUART_DMA_COMMON_CFG  |
1778:Generated_Source\PSoC5/USBUART.c ****                                                     CYDMA_BYTE | CYDMA_WORD_ELEMENT | CYDMA_INC_DST
1779:Generated_Source\PSoC5/USBUART.c **** 
1780:Generated_Source\PSoC5/USBUART.c ****             /* Configure DMA descriptor. */
1781:Generated_Source\PSoC5/USBUART.c ****             USBUART_CyDmaSetConfiguration(channelNum, USBUART_DMA_DESCR1, USBUART_DMA_COMMON_CFG  |
1782:Generated_Source\PSoC5/USBUART.c ****                                                     CYDMA_BYTE | CYDMA_WORD_ELEMENT | CYDMA_INC_DST
1783:Generated_Source\PSoC5/USBUART.c **** 
1784:Generated_Source\PSoC5/USBUART.c ****             /* Enable interrupt from DMA channel. */
1785:Generated_Source\PSoC5/USBUART.c ****             USBUART_CyDmaSetInterruptMask(channelNum);
1786:Generated_Source\PSoC5/USBUART.c **** 
1787:Generated_Source\PSoC5/USBUART.c ****             /* Validate DMA descriptor 0 and 1. */
1788:Generated_Source\PSoC5/USBUART.c ****             USBUART_CyDmaValidateDescriptor(channelNum, USBUART_DMA_DESCR0);
1789:Generated_Source\PSoC5/USBUART.c **** 
ARM GAS  C:\Users\aupen\AppData\Local\Temp\cczUxnbz.s 			page 49


1790:Generated_Source\PSoC5/USBUART.c ****             if (USBUART_DmaEpBurstCntBackup[epNumber] > 1u)
1791:Generated_Source\PSoC5/USBUART.c ****             {
1792:Generated_Source\PSoC5/USBUART.c ****                 USBUART_CyDmaValidateDescriptor(channelNum, USBUART_DMA_DESCR1);
1793:Generated_Source\PSoC5/USBUART.c ****             }
1794:Generated_Source\PSoC5/USBUART.c **** 
1795:Generated_Source\PSoC5/USBUART.c ****             /* Enable DMA channel: configuration complete. */
1796:Generated_Source\PSoC5/USBUART.c ****             USBUART_CyDmaChEnable(channelNum);
1797:Generated_Source\PSoC5/USBUART.c ****         }
1798:Generated_Source\PSoC5/USBUART.c ****         #else
1799:Generated_Source\PSoC5/USBUART.c ****             (void) CyDmaChDisable(USBUART_DmaChan[epNumber]);
1800:Generated_Source\PSoC5/USBUART.c ****             (void) CyDmaTdSetConfiguration(USBUART_DmaTd[epNumber], length,  USBUART_DmaTd[epNumber
1801:Generated_Source\PSoC5/USBUART.c ****             (void) CyDmaTdSetAddress(USBUART_DmaTd[epNumber], LO16((uint32) &USBUART_ARB_EP_BASE.ar
1802:Generated_Source\PSoC5/USBUART.c **** 
1803:Generated_Source\PSoC5/USBUART.c ****             /* Clear Any potential pending DMA requests before starting DMA channel to transfer dat
1804:Generated_Source\PSoC5/USBUART.c ****             (void) CyDmaClearPendingDrq(USBUART_DmaChan[epNumber]);
1805:Generated_Source\PSoC5/USBUART.c **** 
1806:Generated_Source\PSoC5/USBUART.c ****             /* Enable DMA channel. */
1807:Generated_Source\PSoC5/USBUART.c ****             (void) CyDmaChSetInitialTd(USBUART_DmaChan[epNumber], USBUART_DmaTd[epNumber]);
1808:Generated_Source\PSoC5/USBUART.c ****             (void) CyDmaChEnable(USBUART_DmaChan[epNumber], 1u);
1809:Generated_Source\PSoC5/USBUART.c ****         #endif /* (CY_PSOC4) */
1810:Generated_Source\PSoC5/USBUART.c **** 
1811:Generated_Source\PSoC5/USBUART.c ****             /* OUT endpoint has to be armed again by user when DMA transfers have been completed.
1812:Generated_Source\PSoC5/USBUART.c ****             * NO_EVENT_PENDING: notifies that data has been copied from endpoint buffer.
1813:Generated_Source\PSoC5/USBUART.c ****             */
1814:Generated_Source\PSoC5/USBUART.c **** 
1815:Generated_Source\PSoC5/USBUART.c ****         #endif /* (USBUART_EP_MANAGEMENT_DMA_AUTO) */
1816:Generated_Source\PSoC5/USBUART.c ****     #endif /* (USBUART_EP_MANAGEMENT_MANUAL) */
1817:Generated_Source\PSoC5/USBUART.c ****     }
1818:Generated_Source\PSoC5/USBUART.c ****     else
1819:Generated_Source\PSoC5/USBUART.c ****     {
1820:Generated_Source\PSoC5/USBUART.c ****         length = 0u;
1821:Generated_Source\PSoC5/USBUART.c ****     }
1822:Generated_Source\PSoC5/USBUART.c **** 
1823:Generated_Source\PSoC5/USBUART.c ****     return (length);
1824:Generated_Source\PSoC5/USBUART.c **** }
1825:Generated_Source\PSoC5/USBUART.c **** 
1826:Generated_Source\PSoC5/USBUART.c **** 
1827:Generated_Source\PSoC5/USBUART.c **** #if (USBUART_16BITS_EP_ACCESS_ENABLE)
1828:Generated_Source\PSoC5/USBUART.c **** /*******************************************************************************
1829:Generated_Source\PSoC5/USBUART.c **** * Function Name: USBUART_LoadInEP16
1830:Generated_Source\PSoC5/USBUART.c **** ****************************************************************************//**
1831:Generated_Source\PSoC5/USBUART.c **** *
1832:Generated_Source\PSoC5/USBUART.c **** *  This function performs different functionality depending on the Component’s
1833:Generated_Source\PSoC5/USBUART.c **** *  configured Endpoint Buffer Management. This parameter is defined in
1834:Generated_Source\PSoC5/USBUART.c **** *  the Descriptor Root in Component Configure window.
1835:Generated_Source\PSoC5/USBUART.c **** *
1836:Generated_Source\PSoC5/USBUART.c **** *  *Manual (Static/Dynamic Allocation):*
1837:Generated_Source\PSoC5/USBUART.c **** *  This function loads and enables the specified USB data endpoint for an IN
1838:Generated_Source\PSoC5/USBUART.c **** *  data transfer.
1839:Generated_Source\PSoC5/USBUART.c **** *
1840:Generated_Source\PSoC5/USBUART.c **** *  *DMA with Manual Buffer Management:*
1841:Generated_Source\PSoC5/USBUART.c **** *  Configures DMA for a data transfer from system RAM to endpoint buffer.
1842:Generated_Source\PSoC5/USBUART.c **** *  Generates request for a transfer.
1843:Generated_Source\PSoC5/USBUART.c **** *
1844:Generated_Source\PSoC5/USBUART.c **** *  *DMA with Automatic Buffer Management:*
1845:Generated_Source\PSoC5/USBUART.c **** *  Configures DMA. This is required only once, so it is done only when parameter
1846:Generated_Source\PSoC5/USBUART.c **** *  pData is not NULL. When the pData pointer is NULL, the function skips this
ARM GAS  C:\Users\aupen\AppData\Local\Temp\cczUxnbz.s 			page 50


1847:Generated_Source\PSoC5/USBUART.c **** *  task. Sets Data ready status: This generates the first DMA transfer and
1848:Generated_Source\PSoC5/USBUART.c **** *  prepares data in endpoint buffer.
1849:Generated_Source\PSoC5/USBUART.c **** *
1850:Generated_Source\PSoC5/USBUART.c **** *  \param epNumber Contains the data endpoint number.
1851:Generated_Source\PSoC5/USBUART.c **** *        Valid values are between 1 and 8.
1852:Generated_Source\PSoC5/USBUART.c **** *  \param *pData A pointer to a data array from which the data for the endpoint
1853:Generated_Source\PSoC5/USBUART.c **** *        space is loaded. It shall be ensured that this pointer address is even
1854:Generated_Source\PSoC5/USBUART.c **** *        to ensure the 16-bit transfer is aligned to even address. Else, a hard
1855:Generated_Source\PSoC5/USBUART.c **** *        fault condition can occur.
1856:Generated_Source\PSoC5/USBUART.c **** *  \param length The number of bytes to transfer from the array and then send as
1857:Generated_Source\PSoC5/USBUART.c **** *        a result of an IN request. Valid values are between 0 and 512 (1023 for
1858:Generated_Source\PSoC5/USBUART.c **** *        DMA with Automatic Buffer Management mode). The value 512 is applicable
1859:Generated_Source\PSoC5/USBUART.c **** *        if only one endpoint is used.
1860:Generated_Source\PSoC5/USBUART.c **** *
1861:Generated_Source\PSoC5/USBUART.c **** * \reentrant
1862:Generated_Source\PSoC5/USBUART.c **** *  No.
1863:Generated_Source\PSoC5/USBUART.c **** *
1864:Generated_Source\PSoC5/USBUART.c **** *******************************************************************************/
1865:Generated_Source\PSoC5/USBUART.c **** void USBUART_LoadInEP16(uint8 epNumber, const uint8 pData[], uint16 length)
1866:Generated_Source\PSoC5/USBUART.c **** {
1867:Generated_Source\PSoC5/USBUART.c ****     /* Check array alignment on half-word boundary. */
1868:Generated_Source\PSoC5/USBUART.c ****     CYASSERT(0u == (((uint32) pData) & 0x01u));
1869:Generated_Source\PSoC5/USBUART.c **** 
1870:Generated_Source\PSoC5/USBUART.c ****     if ((epNumber > USBUART_EP0) && (epNumber < USBUART_MAX_EP))
1871:Generated_Source\PSoC5/USBUART.c ****     {
1872:Generated_Source\PSoC5/USBUART.c ****     #if (!USBUART_EP_MANAGEMENT_DMA_AUTO)
1873:Generated_Source\PSoC5/USBUART.c ****         /* Limit length to available buffer USB IP buffer size. */
1874:Generated_Source\PSoC5/USBUART.c ****         if (length > (USBUART_EPX_DATA_BUF_MAX - USBUART_EP[epNumber].buffOffset))
1875:Generated_Source\PSoC5/USBUART.c ****         {
1876:Generated_Source\PSoC5/USBUART.c ****             length = USBUART_EPX_DATA_BUF_MAX - USBUART_EP[epNumber].buffOffset;
1877:Generated_Source\PSoC5/USBUART.c ****         }
1878:Generated_Source\PSoC5/USBUART.c ****     #endif /* (!USBUART_EP_MANAGEMENT_DMA_AUTO) */
1879:Generated_Source\PSoC5/USBUART.c **** 
1880:Generated_Source\PSoC5/USBUART.c ****         /* Set count and data toggle. */
1881:Generated_Source\PSoC5/USBUART.c ****         USBUART_SIE_EP_BASE.sieEp[epNumber].epCnt0 = (uint32) HI8(length) | USBUART_EP[epNumber].ep
1882:Generated_Source\PSoC5/USBUART.c ****         USBUART_SIE_EP_BASE.sieEp[epNumber].epCnt1 = (uint32) LO8(length);
1883:Generated_Source\PSoC5/USBUART.c **** 
1884:Generated_Source\PSoC5/USBUART.c ****         /* Adjust requested length: 2 bytes are handled at one data register access. */
1885:Generated_Source\PSoC5/USBUART.c ****         length += (length & 0x01u);
1886:Generated_Source\PSoC5/USBUART.c **** 
1887:Generated_Source\PSoC5/USBUART.c ****     #if (USBUART_EP_MANAGEMENT_MANUAL)
1888:Generated_Source\PSoC5/USBUART.c ****         if (NULL != pData)
1889:Generated_Source\PSoC5/USBUART.c ****         {
1890:Generated_Source\PSoC5/USBUART.c ****             /* Convert uint8 array to uint16. */
1891:Generated_Source\PSoC5/USBUART.c ****             const uint16 *dataBuf = (uint16 *) pData;
1892:Generated_Source\PSoC5/USBUART.c **** 
1893:Generated_Source\PSoC5/USBUART.c ****             /* Copy data using 16-bits arbiter data register. */
1894:Generated_Source\PSoC5/USBUART.c ****             uint16 i;
1895:Generated_Source\PSoC5/USBUART.c ****             for (i = 0u; i < (length >> 1u); ++i)
1896:Generated_Source\PSoC5/USBUART.c ****             {
1897:Generated_Source\PSoC5/USBUART.c ****                 USBUART_ARB_EP16_BASE.arbEp[epNumber].rwDr16 = dataBuf[i];
1898:Generated_Source\PSoC5/USBUART.c ****             }
1899:Generated_Source\PSoC5/USBUART.c ****         }
1900:Generated_Source\PSoC5/USBUART.c **** 
1901:Generated_Source\PSoC5/USBUART.c ****         /* IN endpoint buffer is full - read to be read. */
1902:Generated_Source\PSoC5/USBUART.c ****         USBUART_EP[epNumber].apiEpState = USBUART_NO_EVENT_PENDING;
1903:Generated_Source\PSoC5/USBUART.c **** 
ARM GAS  C:\Users\aupen\AppData\Local\Temp\cczUxnbz.s 			page 51


