ARM GAS  C:\Users\ARMAND~1\AppData\Local\Temp\cc2HUbPD.s 			page 1


   1              		.syntax unified
   2              		.cpu cortex-m3
   3              		.fpu softvfp
   4              		.eabi_attribute 20, 1
   5              		.eabi_attribute 21, 1
   6              		.eabi_attribute 23, 3
   7              		.eabi_attribute 24, 1
   8              		.eabi_attribute 25, 1
   9              		.eabi_attribute 26, 1
  10              		.eabi_attribute 30, 1
  11              		.eabi_attribute 34, 1
  12              		.eabi_attribute 18, 4
  13              		.thumb
  14              		.syntax unified
  15              		.file	"ENC_R_Counter.c"
  16              		.text
  17              	.Ltext0:
  18              		.cfi_sections	.debug_frame
  19              		.section	.text.ENC_R_Counter_Enable,"ax",%progbits
  20              		.align	2
  21              		.global	ENC_R_Counter_Enable
  22              		.thumb
  23              		.thumb_func
  24              		.type	ENC_R_Counter_Enable, %function
  25              	ENC_R_Counter_Enable:
  26              	.LFB1:
  27              		.file 1 "Generated_Source\\PSoC5\\ENC_R_Counter.c"
   1:Generated_Source\PSoC5/ENC_R_Counter.c **** /*******************************************************************************
   2:Generated_Source\PSoC5/ENC_R_Counter.c **** * File Name: ENC_R_Counter.c  
   3:Generated_Source\PSoC5/ENC_R_Counter.c **** * Version 3.0
   4:Generated_Source\PSoC5/ENC_R_Counter.c **** *
   5:Generated_Source\PSoC5/ENC_R_Counter.c **** *  Description:
   6:Generated_Source\PSoC5/ENC_R_Counter.c **** *     The Counter component consists of a 8, 16, 24 or 32-bit counter with
   7:Generated_Source\PSoC5/ENC_R_Counter.c **** *     a selectable period between 2 and 2^Width - 1.  
   8:Generated_Source\PSoC5/ENC_R_Counter.c **** *
   9:Generated_Source\PSoC5/ENC_R_Counter.c **** *   Note:
  10:Generated_Source\PSoC5/ENC_R_Counter.c **** *     None
  11:Generated_Source\PSoC5/ENC_R_Counter.c **** *
  12:Generated_Source\PSoC5/ENC_R_Counter.c **** ********************************************************************************
  13:Generated_Source\PSoC5/ENC_R_Counter.c **** * Copyright 2008-2012, Cypress Semiconductor Corporation.  All rights reserved.
  14:Generated_Source\PSoC5/ENC_R_Counter.c **** * You may use this file only in accordance with the license, terms, conditions, 
  15:Generated_Source\PSoC5/ENC_R_Counter.c **** * disclaimers, and limitations in the end user license agreement accompanying 
  16:Generated_Source\PSoC5/ENC_R_Counter.c **** * the software package with which this file was provided.
  17:Generated_Source\PSoC5/ENC_R_Counter.c **** *******************************************************************************/
  18:Generated_Source\PSoC5/ENC_R_Counter.c **** 
  19:Generated_Source\PSoC5/ENC_R_Counter.c **** #include "ENC_R_Counter.h"
  20:Generated_Source\PSoC5/ENC_R_Counter.c **** 
  21:Generated_Source\PSoC5/ENC_R_Counter.c **** uint8 ENC_R_Counter_initVar = 0u;
  22:Generated_Source\PSoC5/ENC_R_Counter.c **** 
  23:Generated_Source\PSoC5/ENC_R_Counter.c **** 
  24:Generated_Source\PSoC5/ENC_R_Counter.c **** /*******************************************************************************
  25:Generated_Source\PSoC5/ENC_R_Counter.c **** * Function Name: ENC_R_Counter_Init
  26:Generated_Source\PSoC5/ENC_R_Counter.c **** ********************************************************************************
  27:Generated_Source\PSoC5/ENC_R_Counter.c **** * Summary:
  28:Generated_Source\PSoC5/ENC_R_Counter.c **** *     Initialize to the schematic state
  29:Generated_Source\PSoC5/ENC_R_Counter.c **** * 
  30:Generated_Source\PSoC5/ENC_R_Counter.c **** * Parameters:  
ARM GAS  C:\Users\ARMAND~1\AppData\Local\Temp\cc2HUbPD.s 			page 2


  31:Generated_Source\PSoC5/ENC_R_Counter.c **** *  void  
  32:Generated_Source\PSoC5/ENC_R_Counter.c **** *
  33:Generated_Source\PSoC5/ENC_R_Counter.c **** * Return: 
  34:Generated_Source\PSoC5/ENC_R_Counter.c **** *  void
  35:Generated_Source\PSoC5/ENC_R_Counter.c **** *
  36:Generated_Source\PSoC5/ENC_R_Counter.c **** *******************************************************************************/
  37:Generated_Source\PSoC5/ENC_R_Counter.c **** void ENC_R_Counter_Init(void) 
  38:Generated_Source\PSoC5/ENC_R_Counter.c **** {
  39:Generated_Source\PSoC5/ENC_R_Counter.c ****         #if (!ENC_R_Counter_UsingFixedFunction && !ENC_R_Counter_ControlRegRemoved)
  40:Generated_Source\PSoC5/ENC_R_Counter.c ****             uint8 ctrl;
  41:Generated_Source\PSoC5/ENC_R_Counter.c ****         #endif /* (!ENC_R_Counter_UsingFixedFunction && !ENC_R_Counter_ControlRegRemoved) */
  42:Generated_Source\PSoC5/ENC_R_Counter.c ****         
  43:Generated_Source\PSoC5/ENC_R_Counter.c ****         #if(!ENC_R_Counter_UsingFixedFunction) 
  44:Generated_Source\PSoC5/ENC_R_Counter.c ****             /* Interrupt State Backup for Critical Region*/
  45:Generated_Source\PSoC5/ENC_R_Counter.c ****             uint8 ENC_R_Counter_interruptState;
  46:Generated_Source\PSoC5/ENC_R_Counter.c ****         #endif /* (!ENC_R_Counter_UsingFixedFunction) */
  47:Generated_Source\PSoC5/ENC_R_Counter.c ****         
  48:Generated_Source\PSoC5/ENC_R_Counter.c ****         #if (ENC_R_Counter_UsingFixedFunction)
  49:Generated_Source\PSoC5/ENC_R_Counter.c ****             /* Clear all bits but the enable bit (if it's already set for Timer operation */
  50:Generated_Source\PSoC5/ENC_R_Counter.c ****             ENC_R_Counter_CONTROL &= ENC_R_Counter_CTRL_ENABLE;
  51:Generated_Source\PSoC5/ENC_R_Counter.c ****             
  52:Generated_Source\PSoC5/ENC_R_Counter.c ****             /* Clear the mode bits for continuous run mode */
  53:Generated_Source\PSoC5/ENC_R_Counter.c ****             #if (CY_PSOC5A)
  54:Generated_Source\PSoC5/ENC_R_Counter.c ****                 ENC_R_Counter_CONTROL2 &= ((uint8)(~ENC_R_Counter_CTRL_MODE_MASK));
  55:Generated_Source\PSoC5/ENC_R_Counter.c ****             #endif /* (CY_PSOC5A) */
  56:Generated_Source\PSoC5/ENC_R_Counter.c ****             #if (CY_PSOC3 || CY_PSOC5LP)
  57:Generated_Source\PSoC5/ENC_R_Counter.c ****                 ENC_R_Counter_CONTROL3 &= ((uint8)(~ENC_R_Counter_CTRL_MODE_MASK));                
  58:Generated_Source\PSoC5/ENC_R_Counter.c ****             #endif /* (CY_PSOC3 || CY_PSOC5LP) */
  59:Generated_Source\PSoC5/ENC_R_Counter.c ****             /* Check if One Shot mode is enabled i.e. RunMode !=0*/
  60:Generated_Source\PSoC5/ENC_R_Counter.c ****             #if (ENC_R_Counter_RunModeUsed != 0x0u)
  61:Generated_Source\PSoC5/ENC_R_Counter.c ****                 /* Set 3rd bit of Control register to enable one shot mode */
  62:Generated_Source\PSoC5/ENC_R_Counter.c ****                 ENC_R_Counter_CONTROL |= ENC_R_Counter_ONESHOT;
  63:Generated_Source\PSoC5/ENC_R_Counter.c ****             #endif /* (ENC_R_Counter_RunModeUsed != 0x0u) */
  64:Generated_Source\PSoC5/ENC_R_Counter.c ****             
  65:Generated_Source\PSoC5/ENC_R_Counter.c ****             /* Set the IRQ to use the status register interrupts */
  66:Generated_Source\PSoC5/ENC_R_Counter.c ****             ENC_R_Counter_CONTROL2 |= ENC_R_Counter_CTRL2_IRQ_SEL;
  67:Generated_Source\PSoC5/ENC_R_Counter.c ****             
  68:Generated_Source\PSoC5/ENC_R_Counter.c ****             /* Clear and Set SYNCTC and SYNCCMP bits of RT1 register */
  69:Generated_Source\PSoC5/ENC_R_Counter.c ****             ENC_R_Counter_RT1 &= ((uint8)(~ENC_R_Counter_RT1_MASK));
  70:Generated_Source\PSoC5/ENC_R_Counter.c ****             ENC_R_Counter_RT1 |= ENC_R_Counter_SYNC;     
  71:Generated_Source\PSoC5/ENC_R_Counter.c ****                     
  72:Generated_Source\PSoC5/ENC_R_Counter.c ****             /*Enable DSI Sync all all inputs of the Timer*/
  73:Generated_Source\PSoC5/ENC_R_Counter.c ****             ENC_R_Counter_RT1 &= ((uint8)(~ENC_R_Counter_SYNCDSI_MASK));
  74:Generated_Source\PSoC5/ENC_R_Counter.c ****             ENC_R_Counter_RT1 |= ENC_R_Counter_SYNCDSI_EN;
  75:Generated_Source\PSoC5/ENC_R_Counter.c **** 
  76:Generated_Source\PSoC5/ENC_R_Counter.c ****         #else
  77:Generated_Source\PSoC5/ENC_R_Counter.c ****             #if(!ENC_R_Counter_ControlRegRemoved)
  78:Generated_Source\PSoC5/ENC_R_Counter.c ****             /* Set the default compare mode defined in the parameter */
  79:Generated_Source\PSoC5/ENC_R_Counter.c ****             ctrl = ENC_R_Counter_CONTROL & ((uint8)(~ENC_R_Counter_CTRL_CMPMODE_MASK));
  80:Generated_Source\PSoC5/ENC_R_Counter.c ****             ENC_R_Counter_CONTROL = ctrl | ENC_R_Counter_DEFAULT_COMPARE_MODE;
  81:Generated_Source\PSoC5/ENC_R_Counter.c ****             
  82:Generated_Source\PSoC5/ENC_R_Counter.c ****             /* Set the default capture mode defined in the parameter */
  83:Generated_Source\PSoC5/ENC_R_Counter.c ****             ctrl = ENC_R_Counter_CONTROL & ((uint8)(~ENC_R_Counter_CTRL_CAPMODE_MASK));
  84:Generated_Source\PSoC5/ENC_R_Counter.c ****             
  85:Generated_Source\PSoC5/ENC_R_Counter.c ****             #if( 0 != ENC_R_Counter_CAPTURE_MODE_CONF)
  86:Generated_Source\PSoC5/ENC_R_Counter.c ****                 ENC_R_Counter_CONTROL = ctrl | ENC_R_Counter_DEFAULT_CAPTURE_MODE;
  87:Generated_Source\PSoC5/ENC_R_Counter.c ****             #else
ARM GAS  C:\Users\ARMAND~1\AppData\Local\Temp\cc2HUbPD.s 			page 3


  88:Generated_Source\PSoC5/ENC_R_Counter.c ****                 ENC_R_Counter_CONTROL = ctrl;
  89:Generated_Source\PSoC5/ENC_R_Counter.c ****             #endif /* 0 != ENC_R_Counter_CAPTURE_MODE */ 
  90:Generated_Source\PSoC5/ENC_R_Counter.c ****             
  91:Generated_Source\PSoC5/ENC_R_Counter.c ****             #endif /* (!ENC_R_Counter_ControlRegRemoved) */
  92:Generated_Source\PSoC5/ENC_R_Counter.c ****         #endif /* (ENC_R_Counter_UsingFixedFunction) */
  93:Generated_Source\PSoC5/ENC_R_Counter.c ****         
  94:Generated_Source\PSoC5/ENC_R_Counter.c ****         /* Clear all data in the FIFO's */
  95:Generated_Source\PSoC5/ENC_R_Counter.c ****         #if (!ENC_R_Counter_UsingFixedFunction)
  96:Generated_Source\PSoC5/ENC_R_Counter.c ****             ENC_R_Counter_ClearFIFO();
  97:Generated_Source\PSoC5/ENC_R_Counter.c ****         #endif /* (!ENC_R_Counter_UsingFixedFunction) */
  98:Generated_Source\PSoC5/ENC_R_Counter.c ****         
  99:Generated_Source\PSoC5/ENC_R_Counter.c ****         /* Set Initial values from Configuration */
 100:Generated_Source\PSoC5/ENC_R_Counter.c ****         ENC_R_Counter_WritePeriod(ENC_R_Counter_INIT_PERIOD_VALUE);
 101:Generated_Source\PSoC5/ENC_R_Counter.c ****         #if (!(ENC_R_Counter_UsingFixedFunction && (CY_PSOC5A)))
 102:Generated_Source\PSoC5/ENC_R_Counter.c ****             ENC_R_Counter_WriteCounter(ENC_R_Counter_INIT_COUNTER_VALUE);
 103:Generated_Source\PSoC5/ENC_R_Counter.c ****         #endif /* (!(ENC_R_Counter_UsingFixedFunction && (CY_PSOC5A))) */
 104:Generated_Source\PSoC5/ENC_R_Counter.c ****         ENC_R_Counter_SetInterruptMode(ENC_R_Counter_INIT_INTERRUPTS_MASK);
 105:Generated_Source\PSoC5/ENC_R_Counter.c ****         
 106:Generated_Source\PSoC5/ENC_R_Counter.c ****         #if (!ENC_R_Counter_UsingFixedFunction)
 107:Generated_Source\PSoC5/ENC_R_Counter.c ****             /* Read the status register to clear the unwanted interrupts */
 108:Generated_Source\PSoC5/ENC_R_Counter.c ****             (void)ENC_R_Counter_ReadStatusRegister();
 109:Generated_Source\PSoC5/ENC_R_Counter.c ****             /* Set the compare value (only available to non-fixed function implementation */
 110:Generated_Source\PSoC5/ENC_R_Counter.c ****             ENC_R_Counter_WriteCompare(ENC_R_Counter_INIT_COMPARE_VALUE);
 111:Generated_Source\PSoC5/ENC_R_Counter.c ****             /* Use the interrupt output of the status register for IRQ output */
 112:Generated_Source\PSoC5/ENC_R_Counter.c ****             
 113:Generated_Source\PSoC5/ENC_R_Counter.c ****             /* CyEnterCriticalRegion and CyExitCriticalRegion are used to mark following region cri
 114:Generated_Source\PSoC5/ENC_R_Counter.c ****             /* Enter Critical Region*/
 115:Generated_Source\PSoC5/ENC_R_Counter.c ****             ENC_R_Counter_interruptState = CyEnterCriticalSection();
 116:Generated_Source\PSoC5/ENC_R_Counter.c ****             
 117:Generated_Source\PSoC5/ENC_R_Counter.c ****             ENC_R_Counter_STATUS_AUX_CTRL |= ENC_R_Counter_STATUS_ACTL_INT_EN_MASK;
 118:Generated_Source\PSoC5/ENC_R_Counter.c ****             
 119:Generated_Source\PSoC5/ENC_R_Counter.c ****             /* Exit Critical Region*/
 120:Generated_Source\PSoC5/ENC_R_Counter.c ****             CyExitCriticalSection(ENC_R_Counter_interruptState);
 121:Generated_Source\PSoC5/ENC_R_Counter.c ****             
 122:Generated_Source\PSoC5/ENC_R_Counter.c ****         #endif /* (!ENC_R_Counter_UsingFixedFunction) */
 123:Generated_Source\PSoC5/ENC_R_Counter.c **** }
 124:Generated_Source\PSoC5/ENC_R_Counter.c **** 
 125:Generated_Source\PSoC5/ENC_R_Counter.c **** 
 126:Generated_Source\PSoC5/ENC_R_Counter.c **** /*******************************************************************************
 127:Generated_Source\PSoC5/ENC_R_Counter.c **** * Function Name: ENC_R_Counter_Enable
 128:Generated_Source\PSoC5/ENC_R_Counter.c **** ********************************************************************************
 129:Generated_Source\PSoC5/ENC_R_Counter.c **** * Summary:
 130:Generated_Source\PSoC5/ENC_R_Counter.c **** *     Enable the Counter
 131:Generated_Source\PSoC5/ENC_R_Counter.c **** * 
 132:Generated_Source\PSoC5/ENC_R_Counter.c **** * Parameters:  
 133:Generated_Source\PSoC5/ENC_R_Counter.c **** *  void  
 134:Generated_Source\PSoC5/ENC_R_Counter.c **** *
 135:Generated_Source\PSoC5/ENC_R_Counter.c **** * Return: 
 136:Generated_Source\PSoC5/ENC_R_Counter.c **** *  void
 137:Generated_Source\PSoC5/ENC_R_Counter.c **** *
 138:Generated_Source\PSoC5/ENC_R_Counter.c **** * Side Effects: 
 139:Generated_Source\PSoC5/ENC_R_Counter.c **** *   If the Enable mode is set to Hardware only then this function has no effect 
 140:Generated_Source\PSoC5/ENC_R_Counter.c **** *   on the operation of the counter.
 141:Generated_Source\PSoC5/ENC_R_Counter.c **** *
 142:Generated_Source\PSoC5/ENC_R_Counter.c **** *******************************************************************************/
 143:Generated_Source\PSoC5/ENC_R_Counter.c **** void ENC_R_Counter_Enable(void) 
 144:Generated_Source\PSoC5/ENC_R_Counter.c **** {
ARM GAS  C:\Users\ARMAND~1\AppData\Local\Temp\cc2HUbPD.s 			page 4


  28              		.loc 1 144 0
  29              		.cfi_startproc
  30              		@ args = 0, pretend = 0, frame = 0
  31              		@ frame_needed = 0, uses_anonymous_args = 0
  32              		@ link register save eliminated.
 145:Generated_Source\PSoC5/ENC_R_Counter.c ****     /* Globally Enable the Fixed Function Block chosen */
 146:Generated_Source\PSoC5/ENC_R_Counter.c ****     #if (ENC_R_Counter_UsingFixedFunction)
 147:Generated_Source\PSoC5/ENC_R_Counter.c ****         ENC_R_Counter_GLOBAL_ENABLE |= ENC_R_Counter_BLOCK_EN_MASK;
 148:Generated_Source\PSoC5/ENC_R_Counter.c ****         ENC_R_Counter_GLOBAL_STBY_ENABLE |= ENC_R_Counter_BLOCK_STBY_EN_MASK;
 149:Generated_Source\PSoC5/ENC_R_Counter.c ****     #endif /* (ENC_R_Counter_UsingFixedFunction) */  
 150:Generated_Source\PSoC5/ENC_R_Counter.c ****         
 151:Generated_Source\PSoC5/ENC_R_Counter.c ****     /* Enable the counter from the control register  */
 152:Generated_Source\PSoC5/ENC_R_Counter.c ****     /* If Fixed Function then make sure Mode is set correctly */
 153:Generated_Source\PSoC5/ENC_R_Counter.c ****     /* else make sure reset is clear */
 154:Generated_Source\PSoC5/ENC_R_Counter.c ****     #if(!ENC_R_Counter_ControlRegRemoved || ENC_R_Counter_UsingFixedFunction)
 155:Generated_Source\PSoC5/ENC_R_Counter.c ****         ENC_R_Counter_CONTROL |= ENC_R_Counter_CTRL_ENABLE;                
  33              		.loc 1 155 0
  34 0000 024A     		ldr	r2, .L2
  35 0002 1378     		ldrb	r3, [r2]	@ zero_extendqisi2
  36 0004 43F08003 		orr	r3, r3, #128
  37 0008 1370     		strb	r3, [r2]
  38 000a 7047     		bx	lr
  39              	.L3:
  40              		.align	2
  41              	.L2:
  42 000c 70640040 		.word	1073767536
  43              		.cfi_endproc
  44              	.LFE1:
  45              		.size	ENC_R_Counter_Enable, .-ENC_R_Counter_Enable
  46              		.section	.text.ENC_R_Counter_Stop,"ax",%progbits
  47              		.align	2
  48              		.global	ENC_R_Counter_Stop
  49              		.thumb
  50              		.thumb_func
  51              		.type	ENC_R_Counter_Stop, %function
  52              	ENC_R_Counter_Stop:
  53              	.LFB3:
 156:Generated_Source\PSoC5/ENC_R_Counter.c ****     #endif /* (!ENC_R_Counter_ControlRegRemoved || ENC_R_Counter_UsingFixedFunction) */
 157:Generated_Source\PSoC5/ENC_R_Counter.c ****     
 158:Generated_Source\PSoC5/ENC_R_Counter.c **** }
 159:Generated_Source\PSoC5/ENC_R_Counter.c **** 
 160:Generated_Source\PSoC5/ENC_R_Counter.c **** 
 161:Generated_Source\PSoC5/ENC_R_Counter.c **** /*******************************************************************************
 162:Generated_Source\PSoC5/ENC_R_Counter.c **** * Function Name: ENC_R_Counter_Start
 163:Generated_Source\PSoC5/ENC_R_Counter.c **** ********************************************************************************
 164:Generated_Source\PSoC5/ENC_R_Counter.c **** * Summary:
 165:Generated_Source\PSoC5/ENC_R_Counter.c **** *  Enables the counter for operation 
 166:Generated_Source\PSoC5/ENC_R_Counter.c **** *
 167:Generated_Source\PSoC5/ENC_R_Counter.c **** * Parameters:  
 168:Generated_Source\PSoC5/ENC_R_Counter.c **** *  void  
 169:Generated_Source\PSoC5/ENC_R_Counter.c **** *
 170:Generated_Source\PSoC5/ENC_R_Counter.c **** * Return: 
 171:Generated_Source\PSoC5/ENC_R_Counter.c **** *  void
 172:Generated_Source\PSoC5/ENC_R_Counter.c **** *
 173:Generated_Source\PSoC5/ENC_R_Counter.c **** * Global variables:
 174:Generated_Source\PSoC5/ENC_R_Counter.c **** *  ENC_R_Counter_initVar: Is modified when this function is called for the  
 175:Generated_Source\PSoC5/ENC_R_Counter.c **** *   first time. Is used to ensure that initialization happens only once.
ARM GAS  C:\Users\ARMAND~1\AppData\Local\Temp\cc2HUbPD.s 			page 5


 176:Generated_Source\PSoC5/ENC_R_Counter.c **** *
 177:Generated_Source\PSoC5/ENC_R_Counter.c **** *******************************************************************************/
 178:Generated_Source\PSoC5/ENC_R_Counter.c **** void ENC_R_Counter_Start(void) 
 179:Generated_Source\PSoC5/ENC_R_Counter.c **** {
 180:Generated_Source\PSoC5/ENC_R_Counter.c ****     if(ENC_R_Counter_initVar == 0u)
 181:Generated_Source\PSoC5/ENC_R_Counter.c ****     {
 182:Generated_Source\PSoC5/ENC_R_Counter.c ****         ENC_R_Counter_Init();
 183:Generated_Source\PSoC5/ENC_R_Counter.c ****         
 184:Generated_Source\PSoC5/ENC_R_Counter.c ****         ENC_R_Counter_initVar = 1u; /* Clear this bit for Initialization */        
 185:Generated_Source\PSoC5/ENC_R_Counter.c ****     }
 186:Generated_Source\PSoC5/ENC_R_Counter.c ****     
 187:Generated_Source\PSoC5/ENC_R_Counter.c ****     /* Enable the Counter */
 188:Generated_Source\PSoC5/ENC_R_Counter.c ****     ENC_R_Counter_Enable();        
 189:Generated_Source\PSoC5/ENC_R_Counter.c **** }
 190:Generated_Source\PSoC5/ENC_R_Counter.c **** 
 191:Generated_Source\PSoC5/ENC_R_Counter.c **** 
 192:Generated_Source\PSoC5/ENC_R_Counter.c **** /*******************************************************************************
 193:Generated_Source\PSoC5/ENC_R_Counter.c **** * Function Name: ENC_R_Counter_Stop
 194:Generated_Source\PSoC5/ENC_R_Counter.c **** ********************************************************************************
 195:Generated_Source\PSoC5/ENC_R_Counter.c **** * Summary:
 196:Generated_Source\PSoC5/ENC_R_Counter.c **** * Halts the counter, but does not change any modes or disable interrupts.
 197:Generated_Source\PSoC5/ENC_R_Counter.c **** *
 198:Generated_Source\PSoC5/ENC_R_Counter.c **** * Parameters:  
 199:Generated_Source\PSoC5/ENC_R_Counter.c **** *  void  
 200:Generated_Source\PSoC5/ENC_R_Counter.c **** *
 201:Generated_Source\PSoC5/ENC_R_Counter.c **** * Return: 
 202:Generated_Source\PSoC5/ENC_R_Counter.c **** *  void
 203:Generated_Source\PSoC5/ENC_R_Counter.c **** *
 204:Generated_Source\PSoC5/ENC_R_Counter.c **** * Side Effects: If the Enable mode is set to Hardware only then this function
 205:Generated_Source\PSoC5/ENC_R_Counter.c **** *               has no effect on the operation of the counter.
 206:Generated_Source\PSoC5/ENC_R_Counter.c **** *
 207:Generated_Source\PSoC5/ENC_R_Counter.c **** *******************************************************************************/
 208:Generated_Source\PSoC5/ENC_R_Counter.c **** void ENC_R_Counter_Stop(void) 
 209:Generated_Source\PSoC5/ENC_R_Counter.c **** {
  54              		.loc 1 209 0
  55              		.cfi_startproc
  56              		@ args = 0, pretend = 0, frame = 0
  57              		@ frame_needed = 0, uses_anonymous_args = 0
  58              		@ link register save eliminated.
 210:Generated_Source\PSoC5/ENC_R_Counter.c ****     /* Disable Counter */
 211:Generated_Source\PSoC5/ENC_R_Counter.c ****     #if(!ENC_R_Counter_ControlRegRemoved || ENC_R_Counter_UsingFixedFunction)
 212:Generated_Source\PSoC5/ENC_R_Counter.c ****         ENC_R_Counter_CONTROL &= ((uint8)(~ENC_R_Counter_CTRL_ENABLE));        
  59              		.loc 1 212 0
  60 0000 024A     		ldr	r2, .L5
  61 0002 1378     		ldrb	r3, [r2]	@ zero_extendqisi2
  62 0004 03F07F03 		and	r3, r3, #127
  63 0008 1370     		strb	r3, [r2]
  64 000a 7047     		bx	lr
  65              	.L6:
  66              		.align	2
  67              	.L5:
  68 000c 70640040 		.word	1073767536
  69              		.cfi_endproc
  70              	.LFE3:
  71              		.size	ENC_R_Counter_Stop, .-ENC_R_Counter_Stop
  72              		.section	.text.ENC_R_Counter_SetInterruptMode,"ax",%progbits
  73              		.align	2
ARM GAS  C:\Users\ARMAND~1\AppData\Local\Temp\cc2HUbPD.s 			page 6


  74              		.global	ENC_R_Counter_SetInterruptMode
  75              		.thumb
  76              		.thumb_func
  77              		.type	ENC_R_Counter_SetInterruptMode, %function
  78              	ENC_R_Counter_SetInterruptMode:
  79              	.LFB4:
 213:Generated_Source\PSoC5/ENC_R_Counter.c ****     #endif /* (!ENC_R_Counter_ControlRegRemoved || ENC_R_Counter_UsingFixedFunction) */
 214:Generated_Source\PSoC5/ENC_R_Counter.c ****     
 215:Generated_Source\PSoC5/ENC_R_Counter.c ****     /* Globally disable the Fixed Function Block chosen */
 216:Generated_Source\PSoC5/ENC_R_Counter.c ****     #if (ENC_R_Counter_UsingFixedFunction)
 217:Generated_Source\PSoC5/ENC_R_Counter.c ****         ENC_R_Counter_GLOBAL_ENABLE &= ((uint8)(~ENC_R_Counter_BLOCK_EN_MASK));
 218:Generated_Source\PSoC5/ENC_R_Counter.c ****         ENC_R_Counter_GLOBAL_STBY_ENABLE &= ((uint8)(~ENC_R_Counter_BLOCK_STBY_EN_MASK));
 219:Generated_Source\PSoC5/ENC_R_Counter.c ****     #endif /* (ENC_R_Counter_UsingFixedFunction) */
 220:Generated_Source\PSoC5/ENC_R_Counter.c **** }
 221:Generated_Source\PSoC5/ENC_R_Counter.c **** 
 222:Generated_Source\PSoC5/ENC_R_Counter.c **** 
 223:Generated_Source\PSoC5/ENC_R_Counter.c **** /*******************************************************************************
 224:Generated_Source\PSoC5/ENC_R_Counter.c **** * Function Name: ENC_R_Counter_SetInterruptMode
 225:Generated_Source\PSoC5/ENC_R_Counter.c **** ********************************************************************************
 226:Generated_Source\PSoC5/ENC_R_Counter.c **** * Summary:
 227:Generated_Source\PSoC5/ENC_R_Counter.c **** * Configures which interrupt sources are enabled to generate the final interrupt
 228:Generated_Source\PSoC5/ENC_R_Counter.c **** *
 229:Generated_Source\PSoC5/ENC_R_Counter.c **** * Parameters:  
 230:Generated_Source\PSoC5/ENC_R_Counter.c **** *  InterruptsMask: This parameter is an or'd collection of the status bits
 231:Generated_Source\PSoC5/ENC_R_Counter.c **** *                   which will be allowed to generate the counters interrupt.   
 232:Generated_Source\PSoC5/ENC_R_Counter.c **** *
 233:Generated_Source\PSoC5/ENC_R_Counter.c **** * Return: 
 234:Generated_Source\PSoC5/ENC_R_Counter.c **** *  void
 235:Generated_Source\PSoC5/ENC_R_Counter.c **** *
 236:Generated_Source\PSoC5/ENC_R_Counter.c **** *******************************************************************************/
 237:Generated_Source\PSoC5/ENC_R_Counter.c **** void ENC_R_Counter_SetInterruptMode(uint8 interruptsMask) 
 238:Generated_Source\PSoC5/ENC_R_Counter.c **** {
  80              		.loc 1 238 0
  81              		.cfi_startproc
  82              		@ args = 0, pretend = 0, frame = 0
  83              		@ frame_needed = 0, uses_anonymous_args = 0
  84              		@ link register save eliminated.
  85              	.LVL0:
 239:Generated_Source\PSoC5/ENC_R_Counter.c ****     ENC_R_Counter_STATUS_MASK = interruptsMask;
  86              		.loc 1 239 0
  87 0000 014B     		ldr	r3, .L8
  88 0002 1870     		strb	r0, [r3]
  89 0004 7047     		bx	lr
  90              	.L9:
  91 0006 00BF     		.align	2
  92              	.L8:
  93 0008 81640040 		.word	1073767553
  94              		.cfi_endproc
  95              	.LFE4:
  96              		.size	ENC_R_Counter_SetInterruptMode, .-ENC_R_Counter_SetInterruptMode
  97              		.section	.text.ENC_R_Counter_ReadStatusRegister,"ax",%progbits
  98              		.align	2
  99              		.global	ENC_R_Counter_ReadStatusRegister
 100              		.thumb
 101              		.thumb_func
 102              		.type	ENC_R_Counter_ReadStatusRegister, %function
 103              	ENC_R_Counter_ReadStatusRegister:
ARM GAS  C:\Users\ARMAND~1\AppData\Local\Temp\cc2HUbPD.s 			page 7


 104              	.LFB5:
 240:Generated_Source\PSoC5/ENC_R_Counter.c **** }
 241:Generated_Source\PSoC5/ENC_R_Counter.c **** 
 242:Generated_Source\PSoC5/ENC_R_Counter.c **** 
 243:Generated_Source\PSoC5/ENC_R_Counter.c **** /*******************************************************************************
 244:Generated_Source\PSoC5/ENC_R_Counter.c **** * Function Name: ENC_R_Counter_ReadStatusRegister
 245:Generated_Source\PSoC5/ENC_R_Counter.c **** ********************************************************************************
 246:Generated_Source\PSoC5/ENC_R_Counter.c **** * Summary:
 247:Generated_Source\PSoC5/ENC_R_Counter.c **** *   Reads the status register and returns it's state. This function should use
 248:Generated_Source\PSoC5/ENC_R_Counter.c **** *       defined types for the bit-field information as the bits in this
 249:Generated_Source\PSoC5/ENC_R_Counter.c **** *       register may be permuteable.
 250:Generated_Source\PSoC5/ENC_R_Counter.c **** *
 251:Generated_Source\PSoC5/ENC_R_Counter.c **** * Parameters:  
 252:Generated_Source\PSoC5/ENC_R_Counter.c **** *  void
 253:Generated_Source\PSoC5/ENC_R_Counter.c **** *
 254:Generated_Source\PSoC5/ENC_R_Counter.c **** * Return: 
 255:Generated_Source\PSoC5/ENC_R_Counter.c **** *  (uint8) The contents of the status register
 256:Generated_Source\PSoC5/ENC_R_Counter.c **** *
 257:Generated_Source\PSoC5/ENC_R_Counter.c **** * Side Effects:
 258:Generated_Source\PSoC5/ENC_R_Counter.c **** *   Status register bits may be clear on read. 
 259:Generated_Source\PSoC5/ENC_R_Counter.c **** *
 260:Generated_Source\PSoC5/ENC_R_Counter.c **** *******************************************************************************/
 261:Generated_Source\PSoC5/ENC_R_Counter.c **** uint8   ENC_R_Counter_ReadStatusRegister(void) 
 262:Generated_Source\PSoC5/ENC_R_Counter.c **** {
 105              		.loc 1 262 0
 106              		.cfi_startproc
 107              		@ args = 0, pretend = 0, frame = 0
 108              		@ frame_needed = 0, uses_anonymous_args = 0
 109              		@ link register save eliminated.
 263:Generated_Source\PSoC5/ENC_R_Counter.c ****     return ENC_R_Counter_STATUS;
 110              		.loc 1 263 0
 111 0000 014B     		ldr	r3, .L11
 112 0002 1878     		ldrb	r0, [r3]	@ zero_extendqisi2
 264:Generated_Source\PSoC5/ENC_R_Counter.c **** }
 113              		.loc 1 264 0
 114 0004 7047     		bx	lr
 115              	.L12:
 116 0006 00BF     		.align	2
 117              	.L11:
 118 0008 61640040 		.word	1073767521
 119              		.cfi_endproc
 120              	.LFE5:
 121              		.size	ENC_R_Counter_ReadStatusRegister, .-ENC_R_Counter_ReadStatusRegister
 122              		.section	.text.ENC_R_Counter_ReadControlRegister,"ax",%progbits
 123              		.align	2
 124              		.global	ENC_R_Counter_ReadControlRegister
 125              		.thumb
 126              		.thumb_func
 127              		.type	ENC_R_Counter_ReadControlRegister, %function
 128              	ENC_R_Counter_ReadControlRegister:
 129              	.LFB6:
 265:Generated_Source\PSoC5/ENC_R_Counter.c **** 
 266:Generated_Source\PSoC5/ENC_R_Counter.c **** 
 267:Generated_Source\PSoC5/ENC_R_Counter.c **** #if(!ENC_R_Counter_ControlRegRemoved)
 268:Generated_Source\PSoC5/ENC_R_Counter.c **** /*******************************************************************************
 269:Generated_Source\PSoC5/ENC_R_Counter.c **** * Function Name: ENC_R_Counter_ReadControlRegister
 270:Generated_Source\PSoC5/ENC_R_Counter.c **** ********************************************************************************
ARM GAS  C:\Users\ARMAND~1\AppData\Local\Temp\cc2HUbPD.s 			page 8


 271:Generated_Source\PSoC5/ENC_R_Counter.c **** * Summary:
 272:Generated_Source\PSoC5/ENC_R_Counter.c **** *   Reads the control register and returns it's state. This function should use
 273:Generated_Source\PSoC5/ENC_R_Counter.c **** *       defined types for the bit-field information as the bits in this
 274:Generated_Source\PSoC5/ENC_R_Counter.c **** *       register may be permuteable.
 275:Generated_Source\PSoC5/ENC_R_Counter.c **** *
 276:Generated_Source\PSoC5/ENC_R_Counter.c **** * Parameters:  
 277:Generated_Source\PSoC5/ENC_R_Counter.c **** *  void
 278:Generated_Source\PSoC5/ENC_R_Counter.c **** *
 279:Generated_Source\PSoC5/ENC_R_Counter.c **** * Return: 
 280:Generated_Source\PSoC5/ENC_R_Counter.c **** *  (uint8) The contents of the control register
 281:Generated_Source\PSoC5/ENC_R_Counter.c **** *
 282:Generated_Source\PSoC5/ENC_R_Counter.c **** *******************************************************************************/
 283:Generated_Source\PSoC5/ENC_R_Counter.c **** uint8   ENC_R_Counter_ReadControlRegister(void) 
 284:Generated_Source\PSoC5/ENC_R_Counter.c **** {
 130              		.loc 1 284 0
 131              		.cfi_startproc
 132              		@ args = 0, pretend = 0, frame = 0
 133              		@ frame_needed = 0, uses_anonymous_args = 0
 134              		@ link register save eliminated.
 285:Generated_Source\PSoC5/ENC_R_Counter.c ****     return ENC_R_Counter_CONTROL;
 135              		.loc 1 285 0
 136 0000 014B     		ldr	r3, .L14
 137 0002 1878     		ldrb	r0, [r3]	@ zero_extendqisi2
 286:Generated_Source\PSoC5/ENC_R_Counter.c **** }
 138              		.loc 1 286 0
 139 0004 7047     		bx	lr
 140              	.L15:
 141 0006 00BF     		.align	2
 142              	.L14:
 143 0008 70640040 		.word	1073767536
 144              		.cfi_endproc
 145              	.LFE6:
 146              		.size	ENC_R_Counter_ReadControlRegister, .-ENC_R_Counter_ReadControlRegister
 147              		.section	.text.ENC_R_Counter_WriteControlRegister,"ax",%progbits
 148              		.align	2
 149              		.global	ENC_R_Counter_WriteControlRegister
 150              		.thumb
 151              		.thumb_func
 152              		.type	ENC_R_Counter_WriteControlRegister, %function
 153              	ENC_R_Counter_WriteControlRegister:
 154              	.LFB7:
 287:Generated_Source\PSoC5/ENC_R_Counter.c **** 
 288:Generated_Source\PSoC5/ENC_R_Counter.c **** 
 289:Generated_Source\PSoC5/ENC_R_Counter.c **** /*******************************************************************************
 290:Generated_Source\PSoC5/ENC_R_Counter.c **** * Function Name: ENC_R_Counter_WriteControlRegister
 291:Generated_Source\PSoC5/ENC_R_Counter.c **** ********************************************************************************
 292:Generated_Source\PSoC5/ENC_R_Counter.c **** * Summary:
 293:Generated_Source\PSoC5/ENC_R_Counter.c **** *   Sets the bit-field of the control register.  This function should use
 294:Generated_Source\PSoC5/ENC_R_Counter.c **** *       defined types for the bit-field information as the bits in this
 295:Generated_Source\PSoC5/ENC_R_Counter.c **** *       register may be permuteable.
 296:Generated_Source\PSoC5/ENC_R_Counter.c **** *
 297:Generated_Source\PSoC5/ENC_R_Counter.c **** * Parameters:  
 298:Generated_Source\PSoC5/ENC_R_Counter.c **** *  void
 299:Generated_Source\PSoC5/ENC_R_Counter.c **** *
 300:Generated_Source\PSoC5/ENC_R_Counter.c **** * Return: 
 301:Generated_Source\PSoC5/ENC_R_Counter.c **** *  (uint8) The contents of the control register
 302:Generated_Source\PSoC5/ENC_R_Counter.c **** *
ARM GAS  C:\Users\ARMAND~1\AppData\Local\Temp\cc2HUbPD.s 			page 9


 303:Generated_Source\PSoC5/ENC_R_Counter.c **** *******************************************************************************/
 304:Generated_Source\PSoC5/ENC_R_Counter.c **** void    ENC_R_Counter_WriteControlRegister(uint8 control) 
 305:Generated_Source\PSoC5/ENC_R_Counter.c **** {
 155              		.loc 1 305 0
 156              		.cfi_startproc
 157              		@ args = 0, pretend = 0, frame = 0
 158              		@ frame_needed = 0, uses_anonymous_args = 0
 159              		@ link register save eliminated.
 160              	.LVL1:
 306:Generated_Source\PSoC5/ENC_R_Counter.c ****     ENC_R_Counter_CONTROL = control;
 161              		.loc 1 306 0
 162 0000 014B     		ldr	r3, .L17
 163 0002 1870     		strb	r0, [r3]
 164 0004 7047     		bx	lr
 165              	.L18:
 166 0006 00BF     		.align	2
 167              	.L17:
 168 0008 70640040 		.word	1073767536
 169              		.cfi_endproc
 170              	.LFE7:
 171              		.size	ENC_R_Counter_WriteControlRegister, .-ENC_R_Counter_WriteControlRegister
 172              		.section	.text.ENC_R_Counter_WriteCounter,"ax",%progbits
 173              		.align	2
 174              		.global	ENC_R_Counter_WriteCounter
 175              		.thumb
 176              		.thumb_func
 177              		.type	ENC_R_Counter_WriteCounter, %function
 178              	ENC_R_Counter_WriteCounter:
 179              	.LFB8:
 307:Generated_Source\PSoC5/ENC_R_Counter.c **** }
 308:Generated_Source\PSoC5/ENC_R_Counter.c **** 
 309:Generated_Source\PSoC5/ENC_R_Counter.c **** #endif  /* (!ENC_R_Counter_ControlRegRemoved) */
 310:Generated_Source\PSoC5/ENC_R_Counter.c **** 
 311:Generated_Source\PSoC5/ENC_R_Counter.c **** 
 312:Generated_Source\PSoC5/ENC_R_Counter.c **** #if (!(ENC_R_Counter_UsingFixedFunction && (CY_PSOC5A)))
 313:Generated_Source\PSoC5/ENC_R_Counter.c **** /*******************************************************************************
 314:Generated_Source\PSoC5/ENC_R_Counter.c **** * Function Name: ENC_R_Counter_WriteCounter
 315:Generated_Source\PSoC5/ENC_R_Counter.c **** ********************************************************************************
 316:Generated_Source\PSoC5/ENC_R_Counter.c **** * Summary:
 317:Generated_Source\PSoC5/ENC_R_Counter.c **** *   This funtion is used to set the counter to a specific value
 318:Generated_Source\PSoC5/ENC_R_Counter.c **** *
 319:Generated_Source\PSoC5/ENC_R_Counter.c **** * Parameters:  
 320:Generated_Source\PSoC5/ENC_R_Counter.c **** *  counter:  New counter value. 
 321:Generated_Source\PSoC5/ENC_R_Counter.c **** *
 322:Generated_Source\PSoC5/ENC_R_Counter.c **** * Return: 
 323:Generated_Source\PSoC5/ENC_R_Counter.c **** *  void 
 324:Generated_Source\PSoC5/ENC_R_Counter.c **** *
 325:Generated_Source\PSoC5/ENC_R_Counter.c **** *******************************************************************************/
 326:Generated_Source\PSoC5/ENC_R_Counter.c **** void ENC_R_Counter_WriteCounter(uint16 counter) \
 327:Generated_Source\PSoC5/ENC_R_Counter.c ****                                    
 328:Generated_Source\PSoC5/ENC_R_Counter.c **** {
 180              		.loc 1 328 0
 181              		.cfi_startproc
 182              		@ args = 0, pretend = 0, frame = 0
 183              		@ frame_needed = 0, uses_anonymous_args = 0
 184              		@ link register save eliminated.
 185              	.LVL2:
ARM GAS  C:\Users\ARMAND~1\AppData\Local\Temp\cc2HUbPD.s 			page 10


 329:Generated_Source\PSoC5/ENC_R_Counter.c ****     #if(ENC_R_Counter_UsingFixedFunction)
 330:Generated_Source\PSoC5/ENC_R_Counter.c ****         /* assert if block is already enabled */
 331:Generated_Source\PSoC5/ENC_R_Counter.c ****         CYASSERT (0u == (ENC_R_Counter_GLOBAL_ENABLE & ENC_R_Counter_BLOCK_EN_MASK));
 332:Generated_Source\PSoC5/ENC_R_Counter.c ****         /* If block is disabled, enable it and then write the counter */
 333:Generated_Source\PSoC5/ENC_R_Counter.c ****         ENC_R_Counter_GLOBAL_ENABLE |= ENC_R_Counter_BLOCK_EN_MASK;
 334:Generated_Source\PSoC5/ENC_R_Counter.c ****         CY_SET_REG16(ENC_R_Counter_COUNTER_LSB_PTR, (uint16)counter);
 335:Generated_Source\PSoC5/ENC_R_Counter.c ****         ENC_R_Counter_GLOBAL_ENABLE &= ((uint8)(~ENC_R_Counter_BLOCK_EN_MASK));
 336:Generated_Source\PSoC5/ENC_R_Counter.c ****     #else
 337:Generated_Source\PSoC5/ENC_R_Counter.c ****         CY_SET_REG16(ENC_R_Counter_COUNTER_LSB_PTR, counter);
 186              		.loc 1 337 0
 187 0000 014B     		ldr	r3, .L20
 188 0002 1880     		strh	r0, [r3]	@ movhi
 189 0004 7047     		bx	lr
 190              	.L21:
 191 0006 00BF     		.align	2
 192              	.L20:
 193 0008 00680040 		.word	1073768448
 194              		.cfi_endproc
 195              	.LFE8:
 196              		.size	ENC_R_Counter_WriteCounter, .-ENC_R_Counter_WriteCounter
 197              		.section	.text.ENC_R_Counter_ReadCounter,"ax",%progbits
 198              		.align	2
 199              		.global	ENC_R_Counter_ReadCounter
 200              		.thumb
 201              		.thumb_func
 202              		.type	ENC_R_Counter_ReadCounter, %function
 203              	ENC_R_Counter_ReadCounter:
 204              	.LFB9:
 338:Generated_Source\PSoC5/ENC_R_Counter.c ****     #endif /* (ENC_R_Counter_UsingFixedFunction) */
 339:Generated_Source\PSoC5/ENC_R_Counter.c **** }
 340:Generated_Source\PSoC5/ENC_R_Counter.c **** #endif /* (!(ENC_R_Counter_UsingFixedFunction && (CY_PSOC5A))) */
 341:Generated_Source\PSoC5/ENC_R_Counter.c **** 
 342:Generated_Source\PSoC5/ENC_R_Counter.c **** 
 343:Generated_Source\PSoC5/ENC_R_Counter.c **** /*******************************************************************************
 344:Generated_Source\PSoC5/ENC_R_Counter.c **** * Function Name: ENC_R_Counter_ReadCounter
 345:Generated_Source\PSoC5/ENC_R_Counter.c **** ********************************************************************************
 346:Generated_Source\PSoC5/ENC_R_Counter.c **** * Summary:
 347:Generated_Source\PSoC5/ENC_R_Counter.c **** * Returns the current value of the counter.  It doesn't matter
 348:Generated_Source\PSoC5/ENC_R_Counter.c **** * if the counter is enabled or running.
 349:Generated_Source\PSoC5/ENC_R_Counter.c **** *
 350:Generated_Source\PSoC5/ENC_R_Counter.c **** * Parameters:  
 351:Generated_Source\PSoC5/ENC_R_Counter.c **** *  void:  
 352:Generated_Source\PSoC5/ENC_R_Counter.c **** *
 353:Generated_Source\PSoC5/ENC_R_Counter.c **** * Return: 
 354:Generated_Source\PSoC5/ENC_R_Counter.c **** *  (uint16) The present value of the counter.
 355:Generated_Source\PSoC5/ENC_R_Counter.c **** *
 356:Generated_Source\PSoC5/ENC_R_Counter.c **** *******************************************************************************/
 357:Generated_Source\PSoC5/ENC_R_Counter.c **** uint16 ENC_R_Counter_ReadCounter(void) 
 358:Generated_Source\PSoC5/ENC_R_Counter.c **** {
 205              		.loc 1 358 0
 206              		.cfi_startproc
 207              		@ args = 0, pretend = 0, frame = 0
 208              		@ frame_needed = 0, uses_anonymous_args = 0
 209              		@ link register save eliminated.
 359:Generated_Source\PSoC5/ENC_R_Counter.c ****     /* Force capture by reading Accumulator */
 360:Generated_Source\PSoC5/ENC_R_Counter.c ****     /* Must first do a software capture to be able to read the counter */
 361:Generated_Source\PSoC5/ENC_R_Counter.c ****     /* It is up to the user code to make sure there isn't already captured data in the FIFO */
ARM GAS  C:\Users\ARMAND~1\AppData\Local\Temp\cc2HUbPD.s 			page 11


 362:Generated_Source\PSoC5/ENC_R_Counter.c ****     #if(ENC_R_Counter_UsingFixedFunction)
 363:Generated_Source\PSoC5/ENC_R_Counter.c **** 		(void)CY_GET_REG16(ENC_R_Counter_COUNTER_LSB_PTR);
 364:Generated_Source\PSoC5/ENC_R_Counter.c **** 	#else
 365:Generated_Source\PSoC5/ENC_R_Counter.c **** 		(void)CY_GET_REG8(ENC_R_Counter_COUNTER_LSB_PTR_8BIT);
 210              		.loc 1 365 0
 211 0000 024B     		ldr	r3, .L23
 212 0002 1B78     		ldrb	r3, [r3]	@ zero_extendqisi2
 366:Generated_Source\PSoC5/ENC_R_Counter.c **** 	#endif/* (ENC_R_Counter_UsingFixedFunction) */
 367:Generated_Source\PSoC5/ENC_R_Counter.c ****     
 368:Generated_Source\PSoC5/ENC_R_Counter.c ****     /* Read the data from the FIFO (or capture register for Fixed Function)*/
 369:Generated_Source\PSoC5/ENC_R_Counter.c ****     #if(ENC_R_Counter_UsingFixedFunction)
 370:Generated_Source\PSoC5/ENC_R_Counter.c ****         return ((uint16)CY_GET_REG16(ENC_R_Counter_STATICCOUNT_LSB_PTR));
 371:Generated_Source\PSoC5/ENC_R_Counter.c ****     #else
 372:Generated_Source\PSoC5/ENC_R_Counter.c ****         return (CY_GET_REG16(ENC_R_Counter_STATICCOUNT_LSB_PTR));
 213              		.loc 1 372 0
 214 0004 024B     		ldr	r3, .L23+4
 215 0006 1888     		ldrh	r0, [r3]
 373:Generated_Source\PSoC5/ENC_R_Counter.c ****     #endif /* (ENC_R_Counter_UsingFixedFunction) */
 374:Generated_Source\PSoC5/ENC_R_Counter.c **** }
 216              		.loc 1 374 0
 217 0008 80B2     		uxth	r0, r0
 218 000a 7047     		bx	lr
 219              	.L24:
 220              		.align	2
 221              	.L23:
 222 000c 00640040 		.word	1073767424
 223 0010 80680040 		.word	1073768576
 224              		.cfi_endproc
 225              	.LFE9:
 226              		.size	ENC_R_Counter_ReadCounter, .-ENC_R_Counter_ReadCounter
 227              		.section	.text.ENC_R_Counter_ReadCapture,"ax",%progbits
 228              		.align	2
 229              		.global	ENC_R_Counter_ReadCapture
 230              		.thumb
 231              		.thumb_func
 232              		.type	ENC_R_Counter_ReadCapture, %function
 233              	ENC_R_Counter_ReadCapture:
 234              	.LFB10:
 375:Generated_Source\PSoC5/ENC_R_Counter.c **** 
 376:Generated_Source\PSoC5/ENC_R_Counter.c **** 
 377:Generated_Source\PSoC5/ENC_R_Counter.c **** /*******************************************************************************
 378:Generated_Source\PSoC5/ENC_R_Counter.c **** * Function Name: ENC_R_Counter_ReadCapture
 379:Generated_Source\PSoC5/ENC_R_Counter.c **** ********************************************************************************
 380:Generated_Source\PSoC5/ENC_R_Counter.c **** * Summary:
 381:Generated_Source\PSoC5/ENC_R_Counter.c **** *   This function returns the last value captured.
 382:Generated_Source\PSoC5/ENC_R_Counter.c **** *
 383:Generated_Source\PSoC5/ENC_R_Counter.c **** * Parameters:  
 384:Generated_Source\PSoC5/ENC_R_Counter.c **** *  void
 385:Generated_Source\PSoC5/ENC_R_Counter.c **** *
 386:Generated_Source\PSoC5/ENC_R_Counter.c **** * Return: 
 387:Generated_Source\PSoC5/ENC_R_Counter.c **** *  (uint16) Present Capture value.
 388:Generated_Source\PSoC5/ENC_R_Counter.c **** *
 389:Generated_Source\PSoC5/ENC_R_Counter.c **** *******************************************************************************/
 390:Generated_Source\PSoC5/ENC_R_Counter.c **** uint16 ENC_R_Counter_ReadCapture(void) 
 391:Generated_Source\PSoC5/ENC_R_Counter.c **** {
 235              		.loc 1 391 0
 236              		.cfi_startproc
ARM GAS  C:\Users\ARMAND~1\AppData\Local\Temp\cc2HUbPD.s 			page 12


 237              		@ args = 0, pretend = 0, frame = 0
 238              		@ frame_needed = 0, uses_anonymous_args = 0
 239              		@ link register save eliminated.
 392:Generated_Source\PSoC5/ENC_R_Counter.c ****     #if(ENC_R_Counter_UsingFixedFunction)
 393:Generated_Source\PSoC5/ENC_R_Counter.c ****         return ((uint16)CY_GET_REG16(ENC_R_Counter_STATICCOUNT_LSB_PTR));
 394:Generated_Source\PSoC5/ENC_R_Counter.c ****     #else
 395:Generated_Source\PSoC5/ENC_R_Counter.c ****         return (CY_GET_REG16(ENC_R_Counter_STATICCOUNT_LSB_PTR));
 240              		.loc 1 395 0
 241 0000 014B     		ldr	r3, .L26
 242 0002 1888     		ldrh	r0, [r3]
 396:Generated_Source\PSoC5/ENC_R_Counter.c ****     #endif /* (ENC_R_Counter_UsingFixedFunction) */
 397:Generated_Source\PSoC5/ENC_R_Counter.c **** }
 243              		.loc 1 397 0
 244 0004 80B2     		uxth	r0, r0
 245 0006 7047     		bx	lr
 246              	.L27:
 247              		.align	2
 248              	.L26:
 249 0008 80680040 		.word	1073768576
 250              		.cfi_endproc
 251              	.LFE10:
 252              		.size	ENC_R_Counter_ReadCapture, .-ENC_R_Counter_ReadCapture
 253              		.section	.text.ENC_R_Counter_WritePeriod,"ax",%progbits
 254              		.align	2
 255              		.global	ENC_R_Counter_WritePeriod
 256              		.thumb
 257              		.thumb_func
 258              		.type	ENC_R_Counter_WritePeriod, %function
 259              	ENC_R_Counter_WritePeriod:
 260              	.LFB11:
 398:Generated_Source\PSoC5/ENC_R_Counter.c **** 
 399:Generated_Source\PSoC5/ENC_R_Counter.c **** 
 400:Generated_Source\PSoC5/ENC_R_Counter.c **** /*******************************************************************************
 401:Generated_Source\PSoC5/ENC_R_Counter.c **** * Function Name: ENC_R_Counter_WritePeriod
 402:Generated_Source\PSoC5/ENC_R_Counter.c **** ********************************************************************************
 403:Generated_Source\PSoC5/ENC_R_Counter.c **** * Summary:
 404:Generated_Source\PSoC5/ENC_R_Counter.c **** * Changes the period of the counter.  The new period 
 405:Generated_Source\PSoC5/ENC_R_Counter.c **** * will be loaded the next time terminal count is detected.
 406:Generated_Source\PSoC5/ENC_R_Counter.c **** *
 407:Generated_Source\PSoC5/ENC_R_Counter.c **** * Parameters:  
 408:Generated_Source\PSoC5/ENC_R_Counter.c **** *  period: (uint16) A value of 0 will result in
 409:Generated_Source\PSoC5/ENC_R_Counter.c **** *         the counter remaining at zero.  
 410:Generated_Source\PSoC5/ENC_R_Counter.c **** *
 411:Generated_Source\PSoC5/ENC_R_Counter.c **** * Return: 
 412:Generated_Source\PSoC5/ENC_R_Counter.c **** *  void
 413:Generated_Source\PSoC5/ENC_R_Counter.c **** *
 414:Generated_Source\PSoC5/ENC_R_Counter.c **** *******************************************************************************/
 415:Generated_Source\PSoC5/ENC_R_Counter.c **** void ENC_R_Counter_WritePeriod(uint16 period) 
 416:Generated_Source\PSoC5/ENC_R_Counter.c **** {
 261              		.loc 1 416 0
 262              		.cfi_startproc
 263              		@ args = 0, pretend = 0, frame = 0
 264              		@ frame_needed = 0, uses_anonymous_args = 0
 265              		@ link register save eliminated.
 266              	.LVL3:
 417:Generated_Source\PSoC5/ENC_R_Counter.c ****     #if(ENC_R_Counter_UsingFixedFunction)
 418:Generated_Source\PSoC5/ENC_R_Counter.c ****         CY_SET_REG16(ENC_R_Counter_PERIOD_LSB_PTR,(uint16)period);
ARM GAS  C:\Users\ARMAND~1\AppData\Local\Temp\cc2HUbPD.s 			page 13


 419:Generated_Source\PSoC5/ENC_R_Counter.c ****     #else
 420:Generated_Source\PSoC5/ENC_R_Counter.c ****         CY_SET_REG16(ENC_R_Counter_PERIOD_LSB_PTR, period);
 267              		.loc 1 420 0
 268 0000 014B     		ldr	r3, .L29
 269 0002 1880     		strh	r0, [r3]	@ movhi
 270 0004 7047     		bx	lr
 271              	.L30:
 272 0006 00BF     		.align	2
 273              	.L29:
 274 0008 40680040 		.word	1073768512
 275              		.cfi_endproc
 276              	.LFE11:
 277              		.size	ENC_R_Counter_WritePeriod, .-ENC_R_Counter_WritePeriod
 278              		.section	.text.ENC_R_Counter_ReadPeriod,"ax",%progbits
 279              		.align	2
 280              		.global	ENC_R_Counter_ReadPeriod
 281              		.thumb
 282              		.thumb_func
 283              		.type	ENC_R_Counter_ReadPeriod, %function
 284              	ENC_R_Counter_ReadPeriod:
 285              	.LFB12:
 421:Generated_Source\PSoC5/ENC_R_Counter.c ****     #endif /* (ENC_R_Counter_UsingFixedFunction) */
 422:Generated_Source\PSoC5/ENC_R_Counter.c **** }
 423:Generated_Source\PSoC5/ENC_R_Counter.c **** 
 424:Generated_Source\PSoC5/ENC_R_Counter.c **** 
 425:Generated_Source\PSoC5/ENC_R_Counter.c **** /*******************************************************************************
 426:Generated_Source\PSoC5/ENC_R_Counter.c **** * Function Name: ENC_R_Counter_ReadPeriod
 427:Generated_Source\PSoC5/ENC_R_Counter.c **** ********************************************************************************
 428:Generated_Source\PSoC5/ENC_R_Counter.c **** * Summary:
 429:Generated_Source\PSoC5/ENC_R_Counter.c **** * Reads the current period value without affecting counter operation.
 430:Generated_Source\PSoC5/ENC_R_Counter.c **** *
 431:Generated_Source\PSoC5/ENC_R_Counter.c **** * Parameters:  
 432:Generated_Source\PSoC5/ENC_R_Counter.c **** *  void:  
 433:Generated_Source\PSoC5/ENC_R_Counter.c **** *
 434:Generated_Source\PSoC5/ENC_R_Counter.c **** * Return: 
 435:Generated_Source\PSoC5/ENC_R_Counter.c **** *  (uint16) Present period value.
 436:Generated_Source\PSoC5/ENC_R_Counter.c **** *
 437:Generated_Source\PSoC5/ENC_R_Counter.c **** *******************************************************************************/
 438:Generated_Source\PSoC5/ENC_R_Counter.c **** uint16 ENC_R_Counter_ReadPeriod(void) 
 439:Generated_Source\PSoC5/ENC_R_Counter.c **** {
 286              		.loc 1 439 0
 287              		.cfi_startproc
 288              		@ args = 0, pretend = 0, frame = 0
 289              		@ frame_needed = 0, uses_anonymous_args = 0
 290              		@ link register save eliminated.
 440:Generated_Source\PSoC5/ENC_R_Counter.c ****     #if(ENC_R_Counter_UsingFixedFunction)
 441:Generated_Source\PSoC5/ENC_R_Counter.c ****         return ((uint16)CY_GET_REG16(ENC_R_Counter_PERIOD_LSB_PTR));
 442:Generated_Source\PSoC5/ENC_R_Counter.c ****     #else
 443:Generated_Source\PSoC5/ENC_R_Counter.c ****         return (CY_GET_REG16(ENC_R_Counter_PERIOD_LSB_PTR));
 291              		.loc 1 443 0
 292 0000 014B     		ldr	r3, .L32
 293 0002 1888     		ldrh	r0, [r3]
 444:Generated_Source\PSoC5/ENC_R_Counter.c ****     #endif /* (ENC_R_Counter_UsingFixedFunction) */
 445:Generated_Source\PSoC5/ENC_R_Counter.c **** }
 294              		.loc 1 445 0
 295 0004 80B2     		uxth	r0, r0
 296 0006 7047     		bx	lr
ARM GAS  C:\Users\ARMAND~1\AppData\Local\Temp\cc2HUbPD.s 			page 14


 297              	.L33:
 298              		.align	2
 299              	.L32:
 300 0008 40680040 		.word	1073768512
 301              		.cfi_endproc
 302              	.LFE12:
 303              		.size	ENC_R_Counter_ReadPeriod, .-ENC_R_Counter_ReadPeriod
 304              		.section	.text.ENC_R_Counter_WriteCompare,"ax",%progbits
 305              		.align	2
 306              		.global	ENC_R_Counter_WriteCompare
 307              		.thumb
 308              		.thumb_func
 309              		.type	ENC_R_Counter_WriteCompare, %function
 310              	ENC_R_Counter_WriteCompare:
 311              	.LFB13:
 446:Generated_Source\PSoC5/ENC_R_Counter.c **** 
 447:Generated_Source\PSoC5/ENC_R_Counter.c **** 
 448:Generated_Source\PSoC5/ENC_R_Counter.c **** #if (!ENC_R_Counter_UsingFixedFunction)
 449:Generated_Source\PSoC5/ENC_R_Counter.c **** /*******************************************************************************
 450:Generated_Source\PSoC5/ENC_R_Counter.c **** * Function Name: ENC_R_Counter_WriteCompare
 451:Generated_Source\PSoC5/ENC_R_Counter.c **** ********************************************************************************
 452:Generated_Source\PSoC5/ENC_R_Counter.c **** * Summary:
 453:Generated_Source\PSoC5/ENC_R_Counter.c **** * Changes the compare value.  The compare output will 
 454:Generated_Source\PSoC5/ENC_R_Counter.c **** * reflect the new value on the next UDB clock.  The compare output will be 
 455:Generated_Source\PSoC5/ENC_R_Counter.c **** * driven high when the present counter value compares true based on the 
 456:Generated_Source\PSoC5/ENC_R_Counter.c **** * configured compare mode setting. 
 457:Generated_Source\PSoC5/ENC_R_Counter.c **** *
 458:Generated_Source\PSoC5/ENC_R_Counter.c **** * Parameters:  
 459:Generated_Source\PSoC5/ENC_R_Counter.c **** *  Compare:  New compare value. 
 460:Generated_Source\PSoC5/ENC_R_Counter.c **** *
 461:Generated_Source\PSoC5/ENC_R_Counter.c **** * Return: 
 462:Generated_Source\PSoC5/ENC_R_Counter.c **** *  void
 463:Generated_Source\PSoC5/ENC_R_Counter.c **** *
 464:Generated_Source\PSoC5/ENC_R_Counter.c **** *******************************************************************************/
 465:Generated_Source\PSoC5/ENC_R_Counter.c **** void ENC_R_Counter_WriteCompare(uint16 compare) \
 466:Generated_Source\PSoC5/ENC_R_Counter.c ****                                    
 467:Generated_Source\PSoC5/ENC_R_Counter.c **** {
 312              		.loc 1 467 0
 313              		.cfi_startproc
 314              		@ args = 0, pretend = 0, frame = 0
 315              		@ frame_needed = 0, uses_anonymous_args = 0
 316              		@ link register save eliminated.
 317              	.LVL4:
 468:Generated_Source\PSoC5/ENC_R_Counter.c ****     #if(ENC_R_Counter_UsingFixedFunction)
 469:Generated_Source\PSoC5/ENC_R_Counter.c ****         CY_SET_REG16(ENC_R_Counter_COMPARE_LSB_PTR, (uint16)compare);
 470:Generated_Source\PSoC5/ENC_R_Counter.c ****     #else
 471:Generated_Source\PSoC5/ENC_R_Counter.c ****         CY_SET_REG16(ENC_R_Counter_COMPARE_LSB_PTR, compare);
 318              		.loc 1 471 0
 319 0000 014B     		ldr	r3, .L35
 320 0002 1880     		strh	r0, [r3]	@ movhi
 321 0004 7047     		bx	lr
 322              	.L36:
 323 0006 00BF     		.align	2
 324              	.L35:
 325 0008 60680040 		.word	1073768544
 326              		.cfi_endproc
 327              	.LFE13:
ARM GAS  C:\Users\ARMAND~1\AppData\Local\Temp\cc2HUbPD.s 			page 15


 328              		.size	ENC_R_Counter_WriteCompare, .-ENC_R_Counter_WriteCompare
 329              		.section	.text.ENC_R_Counter_ReadCompare,"ax",%progbits
 330              		.align	2
 331              		.global	ENC_R_Counter_ReadCompare
 332              		.thumb
 333              		.thumb_func
 334              		.type	ENC_R_Counter_ReadCompare, %function
 335              	ENC_R_Counter_ReadCompare:
 336              	.LFB14:
 472:Generated_Source\PSoC5/ENC_R_Counter.c ****     #endif /* (ENC_R_Counter_UsingFixedFunction) */
 473:Generated_Source\PSoC5/ENC_R_Counter.c **** }
 474:Generated_Source\PSoC5/ENC_R_Counter.c **** 
 475:Generated_Source\PSoC5/ENC_R_Counter.c **** 
 476:Generated_Source\PSoC5/ENC_R_Counter.c **** /*******************************************************************************
 477:Generated_Source\PSoC5/ENC_R_Counter.c **** * Function Name: ENC_R_Counter_ReadCompare
 478:Generated_Source\PSoC5/ENC_R_Counter.c **** ********************************************************************************
 479:Generated_Source\PSoC5/ENC_R_Counter.c **** * Summary:
 480:Generated_Source\PSoC5/ENC_R_Counter.c **** * Returns the compare value.
 481:Generated_Source\PSoC5/ENC_R_Counter.c **** *
 482:Generated_Source\PSoC5/ENC_R_Counter.c **** * Parameters:  
 483:Generated_Source\PSoC5/ENC_R_Counter.c **** *  void:
 484:Generated_Source\PSoC5/ENC_R_Counter.c **** *
 485:Generated_Source\PSoC5/ENC_R_Counter.c **** * Return: 
 486:Generated_Source\PSoC5/ENC_R_Counter.c **** *  (uint16) Present compare value.
 487:Generated_Source\PSoC5/ENC_R_Counter.c **** *
 488:Generated_Source\PSoC5/ENC_R_Counter.c **** *******************************************************************************/
 489:Generated_Source\PSoC5/ENC_R_Counter.c **** uint16 ENC_R_Counter_ReadCompare(void) 
 490:Generated_Source\PSoC5/ENC_R_Counter.c **** {
 337              		.loc 1 490 0
 338              		.cfi_startproc
 339              		@ args = 0, pretend = 0, frame = 0
 340              		@ frame_needed = 0, uses_anonymous_args = 0
 341              		@ link register save eliminated.
 491:Generated_Source\PSoC5/ENC_R_Counter.c ****     return (CY_GET_REG16(ENC_R_Counter_COMPARE_LSB_PTR));
 342              		.loc 1 491 0
 343 0000 014B     		ldr	r3, .L38
 344 0002 1888     		ldrh	r0, [r3]
 492:Generated_Source\PSoC5/ENC_R_Counter.c **** }
 345              		.loc 1 492 0
 346 0004 80B2     		uxth	r0, r0
 347 0006 7047     		bx	lr
 348              	.L39:
 349              		.align	2
 350              	.L38:
 351 0008 60680040 		.word	1073768544
 352              		.cfi_endproc
 353              	.LFE14:
 354              		.size	ENC_R_Counter_ReadCompare, .-ENC_R_Counter_ReadCompare
 355              		.section	.text.ENC_R_Counter_ClearFIFO,"ax",%progbits
 356              		.align	2
 357              		.global	ENC_R_Counter_ClearFIFO
 358              		.thumb
 359              		.thumb_func
 360              		.type	ENC_R_Counter_ClearFIFO, %function
 361              	ENC_R_Counter_ClearFIFO:
 362              	.LFB15:
 493:Generated_Source\PSoC5/ENC_R_Counter.c **** 
ARM GAS  C:\Users\ARMAND~1\AppData\Local\Temp\cc2HUbPD.s 			page 16


 494:Generated_Source\PSoC5/ENC_R_Counter.c **** 
 495:Generated_Source\PSoC5/ENC_R_Counter.c **** #if (ENC_R_Counter_COMPARE_MODE_SOFTWARE)
 496:Generated_Source\PSoC5/ENC_R_Counter.c **** /*******************************************************************************
 497:Generated_Source\PSoC5/ENC_R_Counter.c **** * Function Name: ENC_R_Counter_SetCompareMode
 498:Generated_Source\PSoC5/ENC_R_Counter.c **** ********************************************************************************
 499:Generated_Source\PSoC5/ENC_R_Counter.c **** * Summary:
 500:Generated_Source\PSoC5/ENC_R_Counter.c **** *  Sets the software controlled Compare Mode.
 501:Generated_Source\PSoC5/ENC_R_Counter.c **** *
 502:Generated_Source\PSoC5/ENC_R_Counter.c **** * Parameters:
 503:Generated_Source\PSoC5/ENC_R_Counter.c **** *  compareMode:  Compare Mode Enumerated Type.
 504:Generated_Source\PSoC5/ENC_R_Counter.c **** *
 505:Generated_Source\PSoC5/ENC_R_Counter.c **** * Return:
 506:Generated_Source\PSoC5/ENC_R_Counter.c **** *  void
 507:Generated_Source\PSoC5/ENC_R_Counter.c **** *
 508:Generated_Source\PSoC5/ENC_R_Counter.c **** *******************************************************************************/
 509:Generated_Source\PSoC5/ENC_R_Counter.c **** void ENC_R_Counter_SetCompareMode(uint8 compareMode) 
 510:Generated_Source\PSoC5/ENC_R_Counter.c **** {
 511:Generated_Source\PSoC5/ENC_R_Counter.c ****     /* Clear the compare mode bits in the control register */
 512:Generated_Source\PSoC5/ENC_R_Counter.c ****     ENC_R_Counter_CONTROL &= ((uint8)(~ENC_R_Counter_CTRL_CMPMODE_MASK));
 513:Generated_Source\PSoC5/ENC_R_Counter.c ****     
 514:Generated_Source\PSoC5/ENC_R_Counter.c ****     /* Write the new setting */
 515:Generated_Source\PSoC5/ENC_R_Counter.c ****     ENC_R_Counter_CONTROL |= compareMode;
 516:Generated_Source\PSoC5/ENC_R_Counter.c **** }
 517:Generated_Source\PSoC5/ENC_R_Counter.c **** #endif  /* (ENC_R_Counter_COMPARE_MODE_SOFTWARE) */
 518:Generated_Source\PSoC5/ENC_R_Counter.c **** 
 519:Generated_Source\PSoC5/ENC_R_Counter.c **** 
 520:Generated_Source\PSoC5/ENC_R_Counter.c **** #if (ENC_R_Counter_CAPTURE_MODE_SOFTWARE)
 521:Generated_Source\PSoC5/ENC_R_Counter.c **** /*******************************************************************************
 522:Generated_Source\PSoC5/ENC_R_Counter.c **** * Function Name: ENC_R_Counter_SetCaptureMode
 523:Generated_Source\PSoC5/ENC_R_Counter.c **** ********************************************************************************
 524:Generated_Source\PSoC5/ENC_R_Counter.c **** * Summary:
 525:Generated_Source\PSoC5/ENC_R_Counter.c **** *  Sets the software controlled Capture Mode.
 526:Generated_Source\PSoC5/ENC_R_Counter.c **** *
 527:Generated_Source\PSoC5/ENC_R_Counter.c **** * Parameters:
 528:Generated_Source\PSoC5/ENC_R_Counter.c **** *  captureMode:  Capture Mode Enumerated Type.
 529:Generated_Source\PSoC5/ENC_R_Counter.c **** *
 530:Generated_Source\PSoC5/ENC_R_Counter.c **** * Return:
 531:Generated_Source\PSoC5/ENC_R_Counter.c **** *  void
 532:Generated_Source\PSoC5/ENC_R_Counter.c **** *
 533:Generated_Source\PSoC5/ENC_R_Counter.c **** *******************************************************************************/
 534:Generated_Source\PSoC5/ENC_R_Counter.c **** void ENC_R_Counter_SetCaptureMode(uint8 captureMode) 
 535:Generated_Source\PSoC5/ENC_R_Counter.c **** {
 536:Generated_Source\PSoC5/ENC_R_Counter.c ****     /* Clear the capture mode bits in the control register */
 537:Generated_Source\PSoC5/ENC_R_Counter.c ****     ENC_R_Counter_CONTROL &= ((uint8)(~ENC_R_Counter_CTRL_CAPMODE_MASK));
 538:Generated_Source\PSoC5/ENC_R_Counter.c ****     
 539:Generated_Source\PSoC5/ENC_R_Counter.c ****     /* Write the new setting */
 540:Generated_Source\PSoC5/ENC_R_Counter.c ****     ENC_R_Counter_CONTROL |= ((uint8)((uint8)captureMode << ENC_R_Counter_CTRL_CAPMODE0_SHIFT));
 541:Generated_Source\PSoC5/ENC_R_Counter.c **** }
 542:Generated_Source\PSoC5/ENC_R_Counter.c **** #endif  /* (ENC_R_Counter_CAPTURE_MODE_SOFTWARE) */
 543:Generated_Source\PSoC5/ENC_R_Counter.c **** 
 544:Generated_Source\PSoC5/ENC_R_Counter.c **** 
 545:Generated_Source\PSoC5/ENC_R_Counter.c **** /*******************************************************************************
 546:Generated_Source\PSoC5/ENC_R_Counter.c **** * Function Name: ENC_R_Counter_ClearFIFO
 547:Generated_Source\PSoC5/ENC_R_Counter.c **** ********************************************************************************
 548:Generated_Source\PSoC5/ENC_R_Counter.c **** * Summary:
 549:Generated_Source\PSoC5/ENC_R_Counter.c **** *   This function clears all capture data from the capture FIFO
 550:Generated_Source\PSoC5/ENC_R_Counter.c **** *
ARM GAS  C:\Users\ARMAND~1\AppData\Local\Temp\cc2HUbPD.s 			page 17


 551:Generated_Source\PSoC5/ENC_R_Counter.c **** * Parameters:  
 552:Generated_Source\PSoC5/ENC_R_Counter.c **** *  void:
 553:Generated_Source\PSoC5/ENC_R_Counter.c **** *
 554:Generated_Source\PSoC5/ENC_R_Counter.c **** * Return: 
 555:Generated_Source\PSoC5/ENC_R_Counter.c **** *  None
 556:Generated_Source\PSoC5/ENC_R_Counter.c **** *
 557:Generated_Source\PSoC5/ENC_R_Counter.c **** *******************************************************************************/
 558:Generated_Source\PSoC5/ENC_R_Counter.c **** void ENC_R_Counter_ClearFIFO(void) 
 559:Generated_Source\PSoC5/ENC_R_Counter.c **** {
 363              		.loc 1 559 0
 364              		.cfi_startproc
 365              		@ args = 0, pretend = 0, frame = 0
 366              		@ frame_needed = 0, uses_anonymous_args = 0
 367 0000 08B5     		push	{r3, lr}
 368              		.cfi_def_cfa_offset 8
 369              		.cfi_offset 3, -8
 370              		.cfi_offset 14, -4
 560:Generated_Source\PSoC5/ENC_R_Counter.c **** 
 561:Generated_Source\PSoC5/ENC_R_Counter.c ****     while(0u != (ENC_R_Counter_ReadStatusRegister() & ENC_R_Counter_STATUS_FIFONEMP))
 371              		.loc 1 561 0
 372 0002 01E0     		b	.L41
 373              	.L42:
 562:Generated_Source\PSoC5/ENC_R_Counter.c ****     {
 563:Generated_Source\PSoC5/ENC_R_Counter.c ****         (void)ENC_R_Counter_ReadCapture();
 374              		.loc 1 563 0
 375 0004 FFF7FEFF 		bl	ENC_R_Counter_ReadCapture
 376              	.LVL5:
 377              	.L41:
 561:Generated_Source\PSoC5/ENC_R_Counter.c ****     {
 378              		.loc 1 561 0
 379 0008 FFF7FEFF 		bl	ENC_R_Counter_ReadStatusRegister
 380              	.LVL6:
 381 000c 10F0400F 		tst	r0, #64
 382 0010 F8D1     		bne	.L42
 564:Generated_Source\PSoC5/ENC_R_Counter.c ****     }
 565:Generated_Source\PSoC5/ENC_R_Counter.c **** 
 566:Generated_Source\PSoC5/ENC_R_Counter.c **** }
 383              		.loc 1 566 0
 384 0012 08BD     		pop	{r3, pc}
 385              		.cfi_endproc
 386              	.LFE15:
 387              		.size	ENC_R_Counter_ClearFIFO, .-ENC_R_Counter_ClearFIFO
 388              		.section	.text.ENC_R_Counter_Init,"ax",%progbits
 389              		.align	2
 390              		.global	ENC_R_Counter_Init
 391              		.thumb
 392              		.thumb_func
 393              		.type	ENC_R_Counter_Init, %function
 394              	ENC_R_Counter_Init:
 395              	.LFB0:
  38:Generated_Source\PSoC5/ENC_R_Counter.c ****         #if (!ENC_R_Counter_UsingFixedFunction && !ENC_R_Counter_ControlRegRemoved)
 396              		.loc 1 38 0
 397              		.cfi_startproc
 398              		@ args = 0, pretend = 0, frame = 0
 399              		@ frame_needed = 0, uses_anonymous_args = 0
 400 0000 08B5     		push	{r3, lr}
 401              		.cfi_def_cfa_offset 8
ARM GAS  C:\Users\ARMAND~1\AppData\Local\Temp\cc2HUbPD.s 			page 18


 402              		.cfi_offset 3, -8
 403              		.cfi_offset 14, -4
  79:Generated_Source\PSoC5/ENC_R_Counter.c ****             ENC_R_Counter_CONTROL = ctrl | ENC_R_Counter_DEFAULT_COMPARE_MODE;
 404              		.loc 1 79 0
 405 0002 124A     		ldr	r2, .L46
 406 0004 1378     		ldrb	r3, [r2]	@ zero_extendqisi2
 407 0006 03F0F803 		and	r3, r3, #248
 408              	.LVL7:
  80:Generated_Source\PSoC5/ENC_R_Counter.c ****             
 409              		.loc 1 80 0
 410 000a 43F00103 		orr	r3, r3, #1
 411              	.LVL8:
 412 000e 1370     		strb	r3, [r2]
  83:Generated_Source\PSoC5/ENC_R_Counter.c ****             
 413              		.loc 1 83 0
 414 0010 1378     		ldrb	r3, [r2]	@ zero_extendqisi2
 415 0012 03F0FC03 		and	r3, r3, #252
 416              	.LVL9:
  88:Generated_Source\PSoC5/ENC_R_Counter.c ****             #endif /* 0 != ENC_R_Counter_CAPTURE_MODE */ 
 417              		.loc 1 88 0
 418 0016 1370     		strb	r3, [r2]
  96:Generated_Source\PSoC5/ENC_R_Counter.c ****         #endif /* (!ENC_R_Counter_UsingFixedFunction) */
 419              		.loc 1 96 0
 420 0018 FFF7FEFF 		bl	ENC_R_Counter_ClearFIFO
 421              	.LVL10:
 100:Generated_Source\PSoC5/ENC_R_Counter.c ****         #if (!(ENC_R_Counter_UsingFixedFunction && (CY_PSOC5A)))
 422              		.loc 1 100 0
 423 001c FE20     		movs	r0, #254
 424 001e FFF7FEFF 		bl	ENC_R_Counter_WritePeriod
 425              	.LVL11:
 102:Generated_Source\PSoC5/ENC_R_Counter.c ****         #endif /* (!(ENC_R_Counter_UsingFixedFunction && (CY_PSOC5A))) */
 426              		.loc 1 102 0
 427 0022 0020     		movs	r0, #0
 428 0024 FFF7FEFF 		bl	ENC_R_Counter_WriteCounter
 429              	.LVL12:
 104:Generated_Source\PSoC5/ENC_R_Counter.c ****         
 430              		.loc 1 104 0
 431 0028 0020     		movs	r0, #0
 432 002a FFF7FEFF 		bl	ENC_R_Counter_SetInterruptMode
 433              	.LVL13:
 108:Generated_Source\PSoC5/ENC_R_Counter.c ****             /* Set the compare value (only available to non-fixed function implementation */
 434              		.loc 1 108 0
 435 002e FFF7FEFF 		bl	ENC_R_Counter_ReadStatusRegister
 436              	.LVL14:
 110:Generated_Source\PSoC5/ENC_R_Counter.c ****             /* Use the interrupt output of the status register for IRQ output */
 437              		.loc 1 110 0
 438 0032 8020     		movs	r0, #128
 439 0034 FFF7FEFF 		bl	ENC_R_Counter_WriteCompare
 440              	.LVL15:
 115:Generated_Source\PSoC5/ENC_R_Counter.c ****             
 441              		.loc 1 115 0
 442 0038 FFF7FEFF 		bl	CyEnterCriticalSection
 443              	.LVL16:
 117:Generated_Source\PSoC5/ENC_R_Counter.c ****             
 444              		.loc 1 117 0
 445 003c 044A     		ldr	r2, .L46+4
 446 003e 1378     		ldrb	r3, [r2]	@ zero_extendqisi2
ARM GAS  C:\Users\ARMAND~1\AppData\Local\Temp\cc2HUbPD.s 			page 19


 447 0040 43F01003 		orr	r3, r3, #16
 448 0044 1370     		strb	r3, [r2]
 120:Generated_Source\PSoC5/ENC_R_Counter.c ****             
 449              		.loc 1 120 0
 450 0046 FFF7FEFF 		bl	CyExitCriticalSection
 451              	.LVL17:
 452 004a 08BD     		pop	{r3, pc}
 453              	.L47:
 454              		.align	2
 455              	.L46:
 456 004c 70640040 		.word	1073767536
 457 0050 91640040 		.word	1073767569
 458              		.cfi_endproc
 459              	.LFE0:
 460              		.size	ENC_R_Counter_Init, .-ENC_R_Counter_Init
 461              		.section	.text.ENC_R_Counter_Start,"ax",%progbits
 462              		.align	2
 463              		.global	ENC_R_Counter_Start
 464              		.thumb
 465              		.thumb_func
 466              		.type	ENC_R_Counter_Start, %function
 467              	ENC_R_Counter_Start:
 468              	.LFB2:
 179:Generated_Source\PSoC5/ENC_R_Counter.c ****     if(ENC_R_Counter_initVar == 0u)
 469              		.loc 1 179 0
 470              		.cfi_startproc
 471              		@ args = 0, pretend = 0, frame = 0
 472              		@ frame_needed = 0, uses_anonymous_args = 0
 473 0000 08B5     		push	{r3, lr}
 474              		.cfi_def_cfa_offset 8
 475              		.cfi_offset 3, -8
 476              		.cfi_offset 14, -4
 180:Generated_Source\PSoC5/ENC_R_Counter.c ****     {
 477              		.loc 1 180 0
 478 0002 054B     		ldr	r3, .L51
 479 0004 1B78     		ldrb	r3, [r3]	@ zero_extendqisi2
 480 0006 23B9     		cbnz	r3, .L49
 182:Generated_Source\PSoC5/ENC_R_Counter.c ****         
 481              		.loc 1 182 0
 482 0008 FFF7FEFF 		bl	ENC_R_Counter_Init
 483              	.LVL18:
 184:Generated_Source\PSoC5/ENC_R_Counter.c ****     }
 484              		.loc 1 184 0
 485 000c 0122     		movs	r2, #1
 486 000e 024B     		ldr	r3, .L51
 487 0010 1A70     		strb	r2, [r3]
 488              	.L49:
 188:Generated_Source\PSoC5/ENC_R_Counter.c **** }
 489              		.loc 1 188 0
 490 0012 FFF7FEFF 		bl	ENC_R_Counter_Enable
 491              	.LVL19:
 492 0016 08BD     		pop	{r3, pc}
 493              	.L52:
 494              		.align	2
 495              	.L51:
 496 0018 00000000 		.word	.LANCHOR0
 497              		.cfi_endproc
ARM GAS  C:\Users\ARMAND~1\AppData\Local\Temp\cc2HUbPD.s 			page 20


 498              	.LFE2:
 499              		.size	ENC_R_Counter_Start, .-ENC_R_Counter_Start
 500              		.global	ENC_R_Counter_initVar
 501              		.bss
 502              		.set	.LANCHOR0,. + 0
 503              		.type	ENC_R_Counter_initVar, %object
 504              		.size	ENC_R_Counter_initVar, 1
 505              	ENC_R_Counter_initVar:
 506 0000 00       		.space	1
 507              		.text
 508              	.Letext0:
 509              		.file 2 "Generated_Source\\PSoC5\\cytypes.h"
 510              		.file 3 "Generated_Source\\PSoC5\\CyLib.h"
