ARM GAS  C:\Users\Armands\AppData\Local\Temp\ccZR2QL2.s 			page 1


   1              		.syntax unified
   2              		.cpu cortex-m3
   3              		.fpu softvfp
   4              		.eabi_attribute 20, 1
   5              		.eabi_attribute 21, 1
   6              		.eabi_attribute 23, 3
   7              		.eabi_attribute 24, 1
   8              		.eabi_attribute 25, 1
   9              		.eabi_attribute 26, 1
  10              		.eabi_attribute 30, 1
  11              		.eabi_attribute 34, 1
  12              		.eabi_attribute 18, 4
  13              		.thumb
  14              		.syntax unified
  15              		.file	"tactic0_basic.c"
  16              		.text
  17              	.Ltext0:
  18              		.cfi_sections	.debug_frame
  19              		.section	.text.DoSomething,"ax",%progbits
  20              		.align	2
  21              		.thumb
  22              		.thumb_func
  23              		.type	DoSomething, %function
  24              	DoSomething:
  25              	.LFB66:
  26              		.file 1 "tactic0_basic.c"
   1:tactic0_basic.c **** /* ========================================
   2:tactic0_basic.c ****  *
   3:tactic0_basic.c ****  * Copyright YOUR COMPANY, THE YEAR
   4:tactic0_basic.c ****  * All Rights Reserved
   5:tactic0_basic.c ****  * UNPUBLISHED, LICENSED SOFTWARE.
   6:tactic0_basic.c ****  *
   7:tactic0_basic.c ****  * CONFIDENTIAL AND PROPRIETARY INFORMATION
   8:tactic0_basic.c ****  * WHICH IS THE PROPERTY OF your company.
   9:tactic0_basic.c ****  *
  10:tactic0_basic.c ****  * ========================================
  11:tactic0_basic.c **** */
  12:tactic0_basic.c **** #include <project.h>
  13:tactic0_basic.c **** #include "tactic0_basic.h"
  14:tactic0_basic.c **** #include "sensors.h"
  15:tactic0_basic.c **** #include "timer_time.h"
  16:tactic0_basic.c **** #include "drive.h"
  17:tactic0_basic.c **** #include "first_move.h"
  18:tactic0_basic.c **** 
  19:tactic0_basic.c **** //=============================================================================
  20:tactic0_basic.c **** // Private defines and typedefs
  21:tactic0_basic.c **** //=============================================================================
  22:tactic0_basic.c **** #define Rd_bits(value, mask)        ((value)&(mask))
  23:tactic0_basic.c **** 
  24:tactic0_basic.c **** #define SEARCH_PWM_L  25
  25:tactic0_basic.c **** #define SEARCH_PWM_R  25
  26:tactic0_basic.c **** #define TURN_PWM    40
  27:tactic0_basic.c **** //#define ATTACK_PWM  70
  28:tactic0_basic.c **** 
  29:tactic0_basic.c **** //=============================================================================
  30:tactic0_basic.c **** // Private function declarations
  31:tactic0_basic.c **** //=============================================================================
ARM GAS  C:\Users\Armands\AppData\Local\Temp\ccZR2QL2.s 			page 2


  32:tactic0_basic.c **** static void ActOnEnemySpotted(void);
  33:tactic0_basic.c **** static void ActOnLineDetected(void);
  34:tactic0_basic.c **** static void DoSomething(void);
  35:tactic0_basic.c **** 
  36:tactic0_basic.c **** //=============================================================================
  37:tactic0_basic.c **** // Private data definitions
  38:tactic0_basic.c **** //=============================================================================
  39:tactic0_basic.c **** static uint8_t lineSens = 0;
  40:tactic0_basic.c **** static uint8_t distSens = 0;
  41:tactic0_basic.c **** int speed_pwm = 80;
  42:tactic0_basic.c **** 
  43:tactic0_basic.c **** //=============================================================================
  44:tactic0_basic.c **** // Public function definitions
  45:tactic0_basic.c **** //=============================================================================
  46:tactic0_basic.c **** 
  47:tactic0_basic.c **** //-----------------------------------------------------------------------------
  48:tactic0_basic.c **** //! \brief	Combat tactic #1 in action
  49:tactic0_basic.c **** //-----------------------------------------------------------------------------
  50:tactic0_basic.c **** void RunTactic0(int firstMove, int speedlimit)
  51:tactic0_basic.c **** {
  52:tactic0_basic.c ****     WaitForIRStart();
  53:tactic0_basic.c ****     speed_pwm = speedlimit;
  54:tactic0_basic.c ****     // ============================ First move ================================
  55:tactic0_basic.c **** 
  56:tactic0_basic.c ****     firstMoveSelector(firstMove);
  57:tactic0_basic.c ****     
  58:tactic0_basic.c ****     
  59:tactic0_basic.c ****     //drive_forward(SEARCH_PWM_L, SEARCH_PWM_R);
  60:tactic0_basic.c ****     //CyDelay(50);
  61:tactic0_basic.c **** 
  62:tactic0_basic.c **** 
  63:tactic0_basic.c ****     // ============================= Main loop ================================
  64:tactic0_basic.c ****     uint32_t timout_time = millis();
  65:tactic0_basic.c ****     while (1) {
  66:tactic0_basic.c **** 		// read all sensors
  67:tactic0_basic.c **** 		lineSens = LineSensRead();
  68:tactic0_basic.c **** 	    distSens = DistSensRead(); //Distance_sensor_value_Read();
  69:tactic0_basic.c ****         //Sensor_Reset_Write(0xFF);  // why???
  70:tactic0_basic.c ****         
  71:tactic0_basic.c ****         //Sensor_Reset_Write(0); 
  72:tactic0_basic.c **** 
  73:tactic0_basic.c **** 		if( 0 < lineSens ){
  74:tactic0_basic.c **** 			// line has detected
  75:tactic0_basic.c **** 		    ActOnLineDetected();
  76:tactic0_basic.c **** 			timout_time = millis();
  77:tactic0_basic.c **** 		}
  78:tactic0_basic.c **** 		else if( 0 < distSens ){
  79:tactic0_basic.c **** 			// opponent spotted
  80:tactic0_basic.c **** 			ActOnEnemySpotted();
  81:tactic0_basic.c **** 			timout_time = millis();
  82:tactic0_basic.c **** 		}
  83:tactic0_basic.c ****         else {
  84:tactic0_basic.c ****             drive_forward(gMotor.basic_speed, gMotor.basic_speed);
  85:tactic0_basic.c ****             //CyDelay(50);
  86:tactic0_basic.c ****         }
  87:tactic0_basic.c **** 
  88:tactic0_basic.c **** 		if( 3000 < millis() - timout_time ){
ARM GAS  C:\Users\Armands\AppData\Local\Temp\ccZR2QL2.s 			page 3


  89:tactic0_basic.c **** 			timout_time = millis();
  90:tactic0_basic.c **** 			DoSomething();
  91:tactic0_basic.c ****             Servo_enable_Write(0);
  92:tactic0_basic.c **** 		}
  93:tactic0_basic.c ****     }
  94:tactic0_basic.c **** }
  95:tactic0_basic.c **** 
  96:tactic0_basic.c **** //=============================================================================
  97:tactic0_basic.c **** // Private function definitions
  98:tactic0_basic.c **** //=============================================================================
  99:tactic0_basic.c **** 
 100:tactic0_basic.c **** //! \brief	Act on opponent spotted event
 101:tactic0_basic.c **** void ActOnEnemySpotted(void){
 102:tactic0_basic.c **** 
 103:tactic0_basic.c **** 
 104:tactic0_basic.c **** 	    int distSens = DistSensRead(); //Distance_sensor_value_Read();
 105:tactic0_basic.c ****         //Sensor_Reset_Write(0xFF);  // why???
 106:tactic0_basic.c ****         
 107:tactic0_basic.c ****         //Sensor_Reset_Write(0); 
 108:tactic0_basic.c **** 
 109:tactic0_basic.c ****     	if( 0 < distSens ){
 110:tactic0_basic.c ****             int8_t avrg_angle_grad = CalcAvrgAngle();
 111:tactic0_basic.c **** 
 112:tactic0_basic.c ****         	int8_t pwm = 60;
 113:tactic0_basic.c ****             // Attack spotted opponent
 114:tactic0_basic.c ****         	if( 0 == avrg_angle_grad ){
 115:tactic0_basic.c ****         		drive_forward( speed_pwm , speed_pwm );		// drive forward
 116:tactic0_basic.c ****         		CyDelay(40);
 117:tactic0_basic.c ****         	}else if( -60 >= avrg_angle_grad ){
 118:tactic0_basic.c ****         		// [-90; -60] grad
 119:tactic0_basic.c ****         		turn_left(TURN_PWM,TURN_PWM); //drive_motors( -pwm, pwm );		// turn on spot left
 120:tactic0_basic.c ****                 CyDelay(40);
 121:tactic0_basic.c ****         	}else if( -30 >= avrg_angle_grad ){
 122:tactic0_basic.c ****         		// (-60; -30] grad
 123:tactic0_basic.c ****         		drive_forward( pwm / 3, pwm );	// drive more left
 124:tactic0_basic.c ****                 CyDelay(30);
 125:tactic0_basic.c ****         	}else if( 0 > avrg_angle_grad ){
 126:tactic0_basic.c ****         		// (-30; 0) grad
 127:tactic0_basic.c ****         		drive_forward( speed_pwm * 0.7, speed_pwm );	// drive little left
 128:tactic0_basic.c ****                 CyDelay(40);
 129:tactic0_basic.c ****         	}else if( 60 <= avrg_angle_grad ){
 130:tactic0_basic.c ****         		// [60; 90] grad
 131:tactic0_basic.c ****         		turn_right(TURN_PWM,TURN_PWM); //drive_motors( pwm, -pwm );		// turn on spot right
 132:tactic0_basic.c ****                 CyDelay(40);
 133:tactic0_basic.c ****         	}else if( 30 <= avrg_angle_grad ){
 134:tactic0_basic.c ****         		// [30; 60) grad
 135:tactic0_basic.c ****         		drive_forward( pwm, pwm / 3 );	// drive more right
 136:tactic0_basic.c ****                 CyDelay(30);
 137:tactic0_basic.c ****         	}else if( 0 <= avrg_angle_grad ){
 138:tactic0_basic.c ****         		// (0; 30) grad
 139:tactic0_basic.c ****         		drive_forward( speed_pwm, speed_pwm * 0.7 );	// drive little right
 140:tactic0_basic.c ****                 CyDelay(40);
 141:tactic0_basic.c ****         	}
 142:tactic0_basic.c ****             CyDelay(10);
 143:tactic0_basic.c **** 
 144:tactic0_basic.c ****     		}
 145:tactic0_basic.c ****         else {
ARM GAS  C:\Users\Armands\AppData\Local\Temp\ccZR2QL2.s 			page 4


 146:tactic0_basic.c ****             drive_forward(30, 30);
 147:tactic0_basic.c ****             //CyDelay(50);
 148:tactic0_basic.c ****         }
 149:tactic0_basic.c ****        
 150:tactic0_basic.c **** }
 151:tactic0_basic.c **** 
 152:tactic0_basic.c **** //! \brief	Act on line detected event
 153:tactic0_basic.c **** void ActOnLineDetected(void){
 154:tactic0_basic.c **** 	//int lineSens = LineSensRead();
 155:tactic0_basic.c ****      
 156:tactic0_basic.c **** 	// Line_FL && Line_FR
 157:tactic0_basic.c **** 	if(gLine.F_LEFT && gLine.F_RIGHT){
 158:tactic0_basic.c ****         drive_backward(40,40); //drive_distance_straight_backward(10, 40);
 159:tactic0_basic.c ****         CyDelay(400);
 160:tactic0_basic.c ****         //turn_angle_right(170,50);
 161:tactic0_basic.c ****         turn_left(TURN_PWM,TURN_PWM); //turn_angle_right(180, TURN_PWM );
 162:tactic0_basic.c ****         CyDelay(300);
 163:tactic0_basic.c **** 	}
 164:tactic0_basic.c **** 	// Line_FL
 165:tactic0_basic.c **** 	else if(gLine.F_LEFT){
 166:tactic0_basic.c ****         drive_backward(40,40); //drive_distance_straight_backward(10, 40);
 167:tactic0_basic.c ****         CyDelay(150);
 168:tactic0_basic.c ****         turn_right(TURN_PWM,TURN_PWM); //turn_angle_right(135, TURN_PWM );
 169:tactic0_basic.c ****         CyDelay(200);
 170:tactic0_basic.c **** 	}
 171:tactic0_basic.c **** 	// Line_FR
 172:tactic0_basic.c **** 	else if(gLine.F_RIGHT){
 173:tactic0_basic.c ****         drive_backward(40,40); //drive_distance_straight_backward(10, 40);
 174:tactic0_basic.c ****         CyDelay(150);
 175:tactic0_basic.c ****         turn_left(TURN_PWM,TURN_PWM); //turn_angle_left(135, TURN_PWM );
 176:tactic0_basic.c ****         CyDelay(200);
 177:tactic0_basic.c **** 	}
 178:tactic0_basic.c ****     //drive_forward( 0, 0 );
 179:tactic0_basic.c **** }
 180:tactic0_basic.c **** 
 181:tactic0_basic.c **** //! \brief	Do something when opponent is not visible
 182:tactic0_basic.c **** void DoSomething(void){
  27              		.loc 1 182 0
  28              		.cfi_startproc
  29              		@ args = 0, pretend = 0, frame = 0
  30              		@ frame_needed = 0, uses_anonymous_args = 0
  31 0000 08B5     		push	{r3, lr}
  32              		.cfi_def_cfa_offset 8
  33              		.cfi_offset 3, -8
  34              		.cfi_offset 14, -4
 183:tactic0_basic.c **** 	// Drive little forward.
 184:tactic0_basic.c ****     //drive_forward( 40, 40 );
 185:tactic0_basic.c ****     //CyDelay(50);
 186:tactic0_basic.c ****     drive_forward( 0, 0 ); // BREAK A BIT FOR FUN
  35              		.loc 1 186 0
  36 0002 0021     		movs	r1, #0
  37 0004 0846     		mov	r0, r1
  38 0006 FFF7FEFF 		bl	drive_forward
  39              	.LVL0:
 187:tactic0_basic.c ****     CyDelay(50);
  40              		.loc 1 187 0
  41 000a 3220     		movs	r0, #50
ARM GAS  C:\Users\Armands\AppData\Local\Temp\ccZR2QL2.s 			page 5


  42 000c FFF7FEFF 		bl	CyDelay
  43              	.LVL1:
  44 0010 08BD     		pop	{r3, pc}
  45              		.cfi_endproc
  46              	.LFE66:
  47              		.size	DoSomething, .-DoSomething
  48 0012 00BF     		.section	.text.ActOnLineDetected,"ax",%progbits
  49              		.align	2
  50              		.thumb
  51              		.thumb_func
  52              		.type	ActOnLineDetected, %function
  53              	ActOnLineDetected:
  54              	.LFB65:
 153:tactic0_basic.c **** 	//int lineSens = LineSensRead();
  55              		.loc 1 153 0
  56              		.cfi_startproc
  57              		@ args = 0, pretend = 0, frame = 0
  58              		@ frame_needed = 0, uses_anonymous_args = 0
  59 0000 08B5     		push	{r3, lr}
  60              		.cfi_def_cfa_offset 8
  61              		.cfi_offset 3, -8
  62              		.cfi_offset 14, -4
 157:tactic0_basic.c ****         drive_backward(40,40); //drive_distance_straight_backward(10, 40);
  63              		.loc 1 157 0
  64 0002 1C4B     		ldr	r3, .L8
  65 0004 9B69     		ldr	r3, [r3, #24]
  66 0006 9BB1     		cbz	r3, .L4
 157:tactic0_basic.c ****         drive_backward(40,40); //drive_distance_straight_backward(10, 40);
  67              		.loc 1 157 0 is_stmt 0 discriminator 1
  68 0008 1A4A     		ldr	r2, .L8
  69 000a D269     		ldr	r2, [r2, #28]
  70 000c 82B1     		cbz	r2, .L4
 158:tactic0_basic.c ****         CyDelay(400);
  71              		.loc 1 158 0 is_stmt 1
  72 000e 2821     		movs	r1, #40
  73 0010 0846     		mov	r0, r1
  74 0012 FFF7FEFF 		bl	drive_backward
  75              	.LVL2:
 159:tactic0_basic.c ****         //turn_angle_right(170,50);
  76              		.loc 1 159 0
  77 0016 4FF4C870 		mov	r0, #400
  78 001a FFF7FEFF 		bl	CyDelay
  79              	.LVL3:
 161:tactic0_basic.c ****         CyDelay(300);
  80              		.loc 1 161 0
  81 001e 2821     		movs	r1, #40
  82 0020 0846     		mov	r0, r1
  83 0022 FFF7FEFF 		bl	turn_left
  84              	.LVL4:
 162:tactic0_basic.c **** 	}
  85              		.loc 1 162 0
  86 0026 4FF49670 		mov	r0, #300
  87 002a FFF7FEFF 		bl	CyDelay
  88              	.LVL5:
  89 002e 08BD     		pop	{r3, pc}
  90              	.L4:
 165:tactic0_basic.c ****         drive_backward(40,40); //drive_distance_straight_backward(10, 40);
ARM GAS  C:\Users\Armands\AppData\Local\Temp\ccZR2QL2.s 			page 6


  91              		.loc 1 165 0
  92 0030 73B1     		cbz	r3, .L6
 166:tactic0_basic.c ****         CyDelay(150);
  93              		.loc 1 166 0
  94 0032 2821     		movs	r1, #40
  95 0034 0846     		mov	r0, r1
  96 0036 FFF7FEFF 		bl	drive_backward
  97              	.LVL6:
 167:tactic0_basic.c ****         turn_right(TURN_PWM,TURN_PWM); //turn_angle_right(135, TURN_PWM );
  98              		.loc 1 167 0
  99 003a 9620     		movs	r0, #150
 100 003c FFF7FEFF 		bl	CyDelay
 101              	.LVL7:
 168:tactic0_basic.c ****         CyDelay(200);
 102              		.loc 1 168 0
 103 0040 2821     		movs	r1, #40
 104 0042 0846     		mov	r0, r1
 105 0044 FFF7FEFF 		bl	turn_right
 106              	.LVL8:
 169:tactic0_basic.c **** 	}
 107              		.loc 1 169 0
 108 0048 C820     		movs	r0, #200
 109 004a FFF7FEFF 		bl	CyDelay
 110              	.LVL9:
 111 004e 08BD     		pop	{r3, pc}
 112              	.L6:
 172:tactic0_basic.c ****         drive_backward(40,40); //drive_distance_straight_backward(10, 40);
 113              		.loc 1 172 0
 114 0050 084B     		ldr	r3, .L8
 115 0052 DB69     		ldr	r3, [r3, #28]
 116 0054 6BB1     		cbz	r3, .L3
 173:tactic0_basic.c ****         CyDelay(150);
 117              		.loc 1 173 0
 118 0056 2821     		movs	r1, #40
 119 0058 0846     		mov	r0, r1
 120 005a FFF7FEFF 		bl	drive_backward
 121              	.LVL10:
 174:tactic0_basic.c ****         turn_left(TURN_PWM,TURN_PWM); //turn_angle_left(135, TURN_PWM );
 122              		.loc 1 174 0
 123 005e 9620     		movs	r0, #150
 124 0060 FFF7FEFF 		bl	CyDelay
 125              	.LVL11:
 175:tactic0_basic.c ****         CyDelay(200);
 126              		.loc 1 175 0
 127 0064 2821     		movs	r1, #40
 128 0066 0846     		mov	r0, r1
 129 0068 FFF7FEFF 		bl	turn_left
 130              	.LVL12:
 176:tactic0_basic.c **** 	}
 131              		.loc 1 176 0
 132 006c C820     		movs	r0, #200
 133 006e FFF7FEFF 		bl	CyDelay
 134              	.LVL13:
 135              	.L3:
 136 0072 08BD     		pop	{r3, pc}
 137              	.L9:
 138              		.align	2
ARM GAS  C:\Users\Armands\AppData\Local\Temp\ccZR2QL2.s 			page 7


 139              	.L8:
 140 0074 00000000 		.word	gLine
 141              		.cfi_endproc
 142              	.LFE65:
 143              		.size	ActOnLineDetected, .-ActOnLineDetected
 144              		.global	__aeabi_i2d
 145              		.global	__aeabi_dmul
 146              		.global	__aeabi_d2iz
 147              		.section	.text.ActOnEnemySpotted,"ax",%progbits
 148              		.align	2
 149              		.thumb
 150              		.thumb_func
 151              		.type	ActOnEnemySpotted, %function
 152              	ActOnEnemySpotted:
 153              	.LFB64:
 101:tactic0_basic.c **** 
 154              		.loc 1 101 0
 155              		.cfi_startproc
 156              		@ args = 0, pretend = 0, frame = 0
 157              		@ frame_needed = 0, uses_anonymous_args = 0
 158 0000 10B5     		push	{r4, lr}
 159              		.cfi_def_cfa_offset 8
 160              		.cfi_offset 4, -8
 161              		.cfi_offset 14, -4
 104:tactic0_basic.c ****         //Sensor_Reset_Write(0xFF);  // why???
 162              		.loc 1 104 0
 163 0002 FFF7FEFF 		bl	DistSensRead
 164              	.LVL14:
 109:tactic0_basic.c ****             int8_t avrg_angle_grad = CalcAvrgAngle();
 165              		.loc 1 109 0
 166 0006 0028     		cmp	r0, #0
 167 0008 63DD     		ble	.L11
 168              	.LBB2:
 110:tactic0_basic.c **** 
 169              		.loc 1 110 0
 170 000a FFF7FEFF 		bl	CalcAvrgAngle
 171              	.LVL15:
 114:tactic0_basic.c ****         		drive_forward( speed_pwm , speed_pwm );		// drive forward
 172              		.loc 1 114 0
 173 000e 40B9     		cbnz	r0, .L12
 115:tactic0_basic.c ****         		CyDelay(40);
 174              		.loc 1 115 0
 175 0010 354B     		ldr	r3, .L21+8
 176 0012 1868     		ldr	r0, [r3]
 177              	.LVL16:
 178 0014 0146     		mov	r1, r0
 179 0016 FFF7FEFF 		bl	drive_forward
 180              	.LVL17:
 116:tactic0_basic.c ****         	}else if( -60 >= avrg_angle_grad ){
 181              		.loc 1 116 0
 182 001a 2820     		movs	r0, #40
 183 001c FFF7FEFF 		bl	CyDelay
 184              	.LVL18:
 185 0020 53E0     		b	.L13
 186              	.LVL19:
 187              	.L12:
 117:tactic0_basic.c ****         		// [-90; -60] grad
ARM GAS  C:\Users\Armands\AppData\Local\Temp\ccZR2QL2.s 			page 8


 188              		.loc 1 117 0
 189 0022 10F13B0F 		cmn	r0, #59
 190 0026 07DA     		bge	.L14
 119:tactic0_basic.c ****                 CyDelay(40);
 191              		.loc 1 119 0
 192 0028 2821     		movs	r1, #40
 193 002a 0846     		mov	r0, r1
 194              	.LVL20:
 195 002c FFF7FEFF 		bl	turn_left
 196              	.LVL21:
 120:tactic0_basic.c ****         	}else if( -30 >= avrg_angle_grad ){
 197              		.loc 1 120 0
 198 0030 2820     		movs	r0, #40
 199 0032 FFF7FEFF 		bl	CyDelay
 200              	.LVL22:
 201 0036 48E0     		b	.L13
 202              	.LVL23:
 203              	.L14:
 121:tactic0_basic.c ****         		// (-60; -30] grad
 204              		.loc 1 121 0
 205 0038 10F11D0F 		cmn	r0, #29
 206 003c 07DA     		bge	.L15
 123:tactic0_basic.c ****                 CyDelay(30);
 207              		.loc 1 123 0
 208 003e 3C21     		movs	r1, #60
 209 0040 1420     		movs	r0, #20
 210              	.LVL24:
 211 0042 FFF7FEFF 		bl	drive_forward
 212              	.LVL25:
 124:tactic0_basic.c ****         	}else if( 0 > avrg_angle_grad ){
 213              		.loc 1 124 0
 214 0046 1E20     		movs	r0, #30
 215 0048 FFF7FEFF 		bl	CyDelay
 216              	.LVL26:
 217 004c 3DE0     		b	.L13
 218              	.LVL27:
 219              	.L15:
 125:tactic0_basic.c ****         		// (-30; 0) grad
 220              		.loc 1 125 0
 221 004e 0028     		cmp	r0, #0
 222 0050 12DA     		bge	.L16
 127:tactic0_basic.c ****                 CyDelay(40);
 223              		.loc 1 127 0
 224 0052 254B     		ldr	r3, .L21+8
 225 0054 1C68     		ldr	r4, [r3]
 226 0056 2046     		mov	r0, r4
 227              	.LVL28:
 228 0058 FFF7FEFF 		bl	__aeabi_i2d
 229              	.LVL29:
 230 005c 20A3     		adr	r3, .L21
 231 005e D3E90023 		ldrd	r2, [r3]
 232 0062 FFF7FEFF 		bl	__aeabi_dmul
 233              	.LVL30:
 234 0066 FFF7FEFF 		bl	__aeabi_d2iz
 235              	.LVL31:
 236 006a 2146     		mov	r1, r4
 237 006c FFF7FEFF 		bl	drive_forward
ARM GAS  C:\Users\Armands\AppData\Local\Temp\ccZR2QL2.s 			page 9


 238              	.LVL32:
 128:tactic0_basic.c ****         	}else if( 60 <= avrg_angle_grad ){
 239              		.loc 1 128 0
 240 0070 2820     		movs	r0, #40
 241 0072 FFF7FEFF 		bl	CyDelay
 242              	.LVL33:
 243 0076 28E0     		b	.L13
 244              	.LVL34:
 245              	.L16:
 129:tactic0_basic.c ****         		// [60; 90] grad
 246              		.loc 1 129 0
 247 0078 3B28     		cmp	r0, #59
 248 007a 07DD     		ble	.L17
 131:tactic0_basic.c ****                 CyDelay(40);
 249              		.loc 1 131 0
 250 007c 2821     		movs	r1, #40
 251 007e 0846     		mov	r0, r1
 252              	.LVL35:
 253 0080 FFF7FEFF 		bl	turn_right
 254              	.LVL36:
 132:tactic0_basic.c ****         	}else if( 30 <= avrg_angle_grad ){
 255              		.loc 1 132 0
 256 0084 2820     		movs	r0, #40
 257 0086 FFF7FEFF 		bl	CyDelay
 258              	.LVL37:
 259 008a 1EE0     		b	.L13
 260              	.LVL38:
 261              	.L17:
 133:tactic0_basic.c ****         		// [30; 60) grad
 262              		.loc 1 133 0
 263 008c 1D28     		cmp	r0, #29
 264 008e 07DD     		ble	.L18
 135:tactic0_basic.c ****                 CyDelay(30);
 265              		.loc 1 135 0
 266 0090 1421     		movs	r1, #20
 267 0092 3C20     		movs	r0, #60
 268              	.LVL39:
 269 0094 FFF7FEFF 		bl	drive_forward
 270              	.LVL40:
 136:tactic0_basic.c ****         	}else if( 0 <= avrg_angle_grad ){
 271              		.loc 1 136 0
 272 0098 1E20     		movs	r0, #30
 273 009a FFF7FEFF 		bl	CyDelay
 274              	.LVL41:
 275 009e 14E0     		b	.L13
 276              	.LVL42:
 277              	.L18:
 137:tactic0_basic.c ****         		// (0; 30) grad
 278              		.loc 1 137 0
 279 00a0 0028     		cmp	r0, #0
 280 00a2 12DB     		blt	.L13
 139:tactic0_basic.c ****                 CyDelay(40);
 281              		.loc 1 139 0
 282 00a4 104B     		ldr	r3, .L21+8
 283 00a6 1C68     		ldr	r4, [r3]
 284 00a8 2046     		mov	r0, r4
 285              	.LVL43:
ARM GAS  C:\Users\Armands\AppData\Local\Temp\ccZR2QL2.s 			page 10


 286 00aa FFF7FEFF 		bl	__aeabi_i2d
 287              	.LVL44:
 288 00ae 0CA3     		adr	r3, .L21
 289 00b0 D3E90023 		ldrd	r2, [r3]
 290 00b4 FFF7FEFF 		bl	__aeabi_dmul
 291              	.LVL45:
 292 00b8 FFF7FEFF 		bl	__aeabi_d2iz
 293              	.LVL46:
 294 00bc 0146     		mov	r1, r0
 295 00be 2046     		mov	r0, r4
 296 00c0 FFF7FEFF 		bl	drive_forward
 297              	.LVL47:
 140:tactic0_basic.c ****         	}
 298              		.loc 1 140 0
 299 00c4 2820     		movs	r0, #40
 300 00c6 FFF7FEFF 		bl	CyDelay
 301              	.LVL48:
 302              	.L13:
 142:tactic0_basic.c **** 
 303              		.loc 1 142 0
 304 00ca 0A20     		movs	r0, #10
 305 00cc FFF7FEFF 		bl	CyDelay
 306              	.LVL49:
 307              	.LBE2:
 308 00d0 10BD     		pop	{r4, pc}
 309              	.LVL50:
 310              	.L11:
 146:tactic0_basic.c ****             //CyDelay(50);
 311              		.loc 1 146 0
 312 00d2 1E21     		movs	r1, #30
 313 00d4 0846     		mov	r0, r1
 314              	.LVL51:
 315 00d6 FFF7FEFF 		bl	drive_forward
 316              	.LVL52:
 317 00da 10BD     		pop	{r4, pc}
 318              	.L22:
 319 00dc AFF30080 		.align	3
 320              	.L21:
 321 00e0 66666666 		.word	1717986918
 322 00e4 6666E63F 		.word	1072064102
 323 00e8 00000000 		.word	.LANCHOR0
 324              		.cfi_endproc
 325              	.LFE64:
 326              		.size	ActOnEnemySpotted, .-ActOnEnemySpotted
 327              		.section	.text.RunTactic0,"ax",%progbits
 328              		.align	2
 329              		.global	RunTactic0
 330              		.thumb
 331              		.thumb_func
 332              		.type	RunTactic0, %function
 333              	RunTactic0:
 334              	.LFB63:
  51:tactic0_basic.c ****     WaitForIRStart();
 335              		.loc 1 51 0
 336              		.cfi_startproc
 337              		@ args = 0, pretend = 0, frame = 0
 338              		@ frame_needed = 0, uses_anonymous_args = 0
ARM GAS  C:\Users\Armands\AppData\Local\Temp\ccZR2QL2.s 			page 11


 339              	.LVL53:
 340 0000 38B5     		push	{r3, r4, r5, lr}
 341              		.cfi_def_cfa_offset 16
 342              		.cfi_offset 3, -16
 343              		.cfi_offset 4, -12
 344              		.cfi_offset 5, -8
 345              		.cfi_offset 14, -4
 346 0002 0446     		mov	r4, r0
 347 0004 0D46     		mov	r5, r1
  52:tactic0_basic.c ****     speed_pwm = speedlimit;
 348              		.loc 1 52 0
 349 0006 FFF7FEFF 		bl	WaitForIRStart
 350              	.LVL54:
  53:tactic0_basic.c ****     // ============================ First move ================================
 351              		.loc 1 53 0
 352 000a 194B     		ldr	r3, .L30
 353 000c 1D60     		str	r5, [r3]
  56:tactic0_basic.c ****     
 354              		.loc 1 56 0
 355 000e E0B2     		uxtb	r0, r4
 356 0010 FFF7FEFF 		bl	firstMoveSelector
 357              	.LVL55:
  64:tactic0_basic.c ****     while (1) {
 358              		.loc 1 64 0
 359 0014 FFF7FEFF 		bl	millis
 360              	.LVL56:
 361 0018 0546     		mov	r5, r0
 362              	.LVL57:
 363              	.L27:
  67:tactic0_basic.c **** 	    distSens = DistSensRead(); //Distance_sensor_value_Read();
 364              		.loc 1 67 0
 365 001a FFF7FEFF 		bl	LineSensRead
 366              	.LVL58:
 367 001e 154C     		ldr	r4, .L30+4
 368 0020 2070     		strb	r0, [r4]
  68:tactic0_basic.c ****         //Sensor_Reset_Write(0xFF);  // why???
 369              		.loc 1 68 0
 370 0022 FFF7FEFF 		bl	DistSensRead
 371              	.LVL59:
  73:tactic0_basic.c **** 			// line has detected
 372              		.loc 1 73 0
 373 0026 2378     		ldrb	r3, [r4]	@ zero_extendqisi2
 374 0028 2BB1     		cbz	r3, .L24
  75:tactic0_basic.c **** 			timout_time = millis();
 375              		.loc 1 75 0
 376 002a FFF7FEFF 		bl	ActOnLineDetected
 377              	.LVL60:
  76:tactic0_basic.c **** 		}
 378              		.loc 1 76 0
 379 002e FFF7FEFF 		bl	millis
 380              	.LVL61:
 381 0032 0546     		mov	r5, r0
 382              	.LVL62:
 383 0034 0BE0     		b	.L25
 384              	.LVL63:
 385              	.L24:
  78:tactic0_basic.c **** 			// opponent spotted
ARM GAS  C:\Users\Armands\AppData\Local\Temp\ccZR2QL2.s 			page 12


 386              		.loc 1 78 0
 387 0036 28B1     		cbz	r0, .L26
  80:tactic0_basic.c **** 			timout_time = millis();
 388              		.loc 1 80 0
 389 0038 FFF7FEFF 		bl	ActOnEnemySpotted
 390              	.LVL64:
  81:tactic0_basic.c **** 		}
 391              		.loc 1 81 0
 392 003c FFF7FEFF 		bl	millis
 393              	.LVL65:
 394 0040 0546     		mov	r5, r0
 395              	.LVL66:
 396 0042 04E0     		b	.L25
 397              	.LVL67:
 398              	.L26:
  84:tactic0_basic.c ****             //CyDelay(50);
 399              		.loc 1 84 0
 400 0044 0C4B     		ldr	r3, .L30+8
 401 0046 1868     		ldr	r0, [r3]
 402 0048 0146     		mov	r1, r0
 403 004a FFF7FEFF 		bl	drive_forward
 404              	.LVL68:
 405              	.L25:
  88:tactic0_basic.c **** 			timout_time = millis();
 406              		.loc 1 88 0
 407 004e FFF7FEFF 		bl	millis
 408              	.LVL69:
 409 0052 401B     		subs	r0, r0, r5
 410 0054 40F6B833 		movw	r3, #3000
 411 0058 9842     		cmp	r0, r3
 412 005a DED9     		bls	.L27
  89:tactic0_basic.c **** 			DoSomething();
 413              		.loc 1 89 0
 414 005c FFF7FEFF 		bl	millis
 415              	.LVL70:
 416 0060 0546     		mov	r5, r0
 417              	.LVL71:
  90:tactic0_basic.c ****             Servo_enable_Write(0);
 418              		.loc 1 90 0
 419 0062 FFF7FEFF 		bl	DoSomething
 420              	.LVL72:
  91:tactic0_basic.c **** 		}
 421              		.loc 1 91 0
 422 0066 0020     		movs	r0, #0
 423 0068 FFF7FEFF 		bl	Servo_enable_Write
 424              	.LVL73:
 425 006c D5E7     		b	.L27
 426              	.L31:
 427 006e 00BF     		.align	2
 428              	.L30:
 429 0070 00000000 		.word	.LANCHOR0
 430 0074 00000000 		.word	.LANCHOR1
 431 0078 00000000 		.word	gMotor
 432              		.cfi_endproc
 433              	.LFE63:
 434              		.size	RunTactic0, .-RunTactic0
 435              		.global	speed_pwm
ARM GAS  C:\Users\Armands\AppData\Local\Temp\ccZR2QL2.s 			page 13


 436              		.comm	gMotor,16,4
 437              		.comm	gLine,96,4
 438              		.data
 439              		.align	2
 440              		.set	.LANCHOR0,. + 0
 441              		.type	speed_pwm, %object
 442              		.size	speed_pwm, 4
 443              	speed_pwm:
 444 0000 50000000 		.word	80
 445              		.bss
 446              		.set	.LANCHOR1,. + 0
 447              		.type	lineSens, %object
 448              		.size	lineSens, 1
 449              	lineSens:
 450 0000 00       		.space	1
 451              		.text
 452              	.Letext0:
 453              		.file 2 "c:\\program files (x86)\\cypress\\psoc creator\\4.4\\psoc creator\\import\\gnu\\arm\\5.4.
 454              		.file 3 "c:\\program files (x86)\\cypress\\psoc creator\\4.4\\psoc creator\\import\\gnu\\arm\\5.4.
 455              		.file 4 "sensors.h"
 456              		.file 5 "drive.h"
 457              		.file 6 "Generated_Source\\PSoC5/core_cm3.h"
 458              		.file 7 "Generated_Source\\PSoC5/CyLib.h"
 459              		.file 8 "first_move.h"
 460              		.file 9 "timer_time.h"
 461              		.file 10 "Generated_Source\\PSoC5/Servo_enable.h"
