ARM GAS  C:\Users\Armands\AppData\Local\Temp\ccqC4Fc3.s 			page 1


   1              		.syntax unified
   2              		.cpu cortex-m3
   3              		.fpu softvfp
   4              		.eabi_attribute 20, 1
   5              		.eabi_attribute 21, 1
   6              		.eabi_attribute 23, 3
   7              		.eabi_attribute 24, 1
   8              		.eabi_attribute 25, 1
   9              		.eabi_attribute 26, 1
  10              		.eabi_attribute 30, 1
  11              		.eabi_attribute 34, 1
  12              		.eabi_attribute 18, 4
  13              		.thumb
  14              		.syntax unified
  15              		.file	"tests.c"
  16              		.text
  17              	.Ltext0:
  18              		.cfi_sections	.debug_frame
  19              		.section	.text.motorTest,"ax",%progbits
  20              		.align	2
  21              		.global	motorTest
  22              		.thumb
  23              		.thumb_func
  24              		.type	motorTest, %function
  25              	motorTest:
  26              	.LFB65:
  27              		.file 1 "tests.c"
   1:tests.c       **** /* ========================================
   2:tests.c       ****  *
   3:tests.c       ****  * Copyright YOUR COMPANY, THE YEAR
   4:tests.c       ****  * All Rights Reserved
   5:tests.c       ****  * UNPUBLISHED, LICENSED SOFTWARE.
   6:tests.c       ****  *
   7:tests.c       ****  * CONFIDENTIAL AND PROPRIETARY INFORMATION
   8:tests.c       ****  * WHICH IS THE PROPERTY OF your company.
   9:tests.c       ****  *
  10:tests.c       ****  * ========================================
  11:tests.c       **** */
  12:tests.c       **** #include "tests.h"
  13:tests.c       **** #include "project.h"
  14:tests.c       **** #include "stdio.h"
  15:tests.c       **** #include "stdlib.h"
  16:tests.c       **** #include "ssd1306.h"
  17:tests.c       **** #include "menu.h"
  18:tests.c       **** #include "drive.h"
  19:tests.c       **** #include "sensors.h"
  20:tests.c       **** #include "drive_smart.h"
  21:tests.c       **** 
  22:tests.c       **** #define Rd_bits(value, mask)        ((value)&(mask))
  23:tests.c       **** #define TURN_PWM 35
  24:tests.c       **** 
  25:tests.c       **** const char testsMenu_title[] = " #TES#";
  26:tests.c       **** // Menu Page1
  27:tests.c       **** const char testsMenu_1[] = "1.Motor test";
  28:tests.c       **** const char testsMenu_2[] = "2.Line test";
  29:tests.c       **** const char testsMenu_3[] = "3.Track Object";
  30:tests.c       **** const char testsMenu_4[] = "4.Drive BackTill";
ARM GAS  C:\Users\Armands\AppData\Local\Temp\ccqC4Fc3.s 			page 2


  31:tests.c       **** const char testsMenu_5[] = "5.DriveEncoder";
  32:tests.c       **** // Menu Page2
  33:tests.c       **** const char testsMenu_6[] = "6.EXIT";
  34:tests.c       **** 
  35:tests.c       **** const char* testsMenu_strings[] = {testsMenu_1, testsMenu_2, testsMenu_3,
  36:tests.c       **** 	testsMenu_4,testsMenu_5,testsMenu_6,};
  37:tests.c       **** 
  38:tests.c       **** void ActOnLineDetected(void);
  39:tests.c       **** void trackObject(void);
  40:tests.c       **** void motorTest(void);
  41:tests.c       **** void lineTest(void);
  42:tests.c       **** void driveEncoders(void);
  43:tests.c       **** 
  44:tests.c       **** 
  45:tests.c       **** 
  46:tests.c       **** 
  47:tests.c       **** void TestsMenu(){
  48:tests.c       ****     Menu testsMenu = {testsMenu_title, testsMenu_strings, 6, 0, 0};
  49:tests.c       ****     while( 1 ){
  50:tests.c       **** 		// (Re)Initialize menu system and wait for menu item selection.
  51:tests.c       **** 		int menuStatus = ShowMenu(&testsMenu);
  52:tests.c       **** 
  53:tests.c       **** 		switch( menuStatus ){
  54:tests.c       **** 			case 0:  
  55:tests.c       **** 				motorTest();         
  56:tests.c       **** 				break;
  57:tests.c       **** 			case 1:  
  58:tests.c       **** 				lineTest();
  59:tests.c       **** 				break;
  60:tests.c       **** 			case 2:  // 3.encoders
  61:tests.c       **** 				trackObject();
  62:tests.c       **** 				break;
  63:tests.c       ****             case 3:  // 3.encoders
  64:tests.c       **** 				drive_backwardTillLineSpotted(40);
  65:tests.c       ****                 break;
  66:tests.c       ****             case 4:  // 3.encoders
  67:tests.c       **** 				driveEncoders();
  68:tests.c       ****                 break;
  69:tests.c       **** 			case 5:  
  70:tests.c       **** 			default:
  71:tests.c       **** 				// Return to the main menu
  72:tests.c       **** 				return;
  73:tests.c       **** 		}
  74:tests.c       **** 	}
  75:tests.c       **** }
  76:tests.c       **** 
  77:tests.c       **** void motorTest(){
  28              		.loc 1 77 0
  29              		.cfi_startproc
  30              		@ args = 0, pretend = 0, frame = 0
  31              		@ frame_needed = 0, uses_anonymous_args = 0
  32 0000 08B5     		push	{r3, lr}
  33              		.cfi_def_cfa_offset 8
  34              		.cfi_offset 3, -8
  35              		.cfi_offset 14, -4
  78:tests.c       ****     drive_backward(30,30);
  36              		.loc 1 78 0
ARM GAS  C:\Users\Armands\AppData\Local\Temp\ccqC4Fc3.s 			page 3


  37 0002 1E21     		movs	r1, #30
  38 0004 0846     		mov	r0, r1
  39 0006 FFF7FEFF 		bl	drive_backward
  40              	.LVL0:
  79:tests.c       ****     showText(25,"Motor Test");
  41              		.loc 1 79 0
  42 000a 0649     		ldr	r1, .L4
  43 000c 1920     		movs	r0, #25
  44 000e FFF7FEFF 		bl	showText
  45              	.LVL1:
  46              	.L2:
  80:tests.c       ****     while (!GoBack()) {
  47              		.loc 1 80 0 discriminator 1
  48 0012 FFF7FEFF 		bl	GoBack
  49              	.LVL2:
  50 0016 0028     		cmp	r0, #0
  51 0018 FBD0     		beq	.L2
  81:tests.c       ****         //drive forward    
  82:tests.c       ****     }
  83:tests.c       ****     drive_forward(0,0);
  52              		.loc 1 83 0
  53 001a 0021     		movs	r1, #0
  54 001c 0846     		mov	r0, r1
  55 001e FFF7FEFF 		bl	drive_forward
  56              	.LVL3:
  57 0022 08BD     		pop	{r3, pc}
  58              	.L5:
  59              		.align	2
  60              	.L4:
  61 0024 00000000 		.word	.LC1
  62              		.cfi_endproc
  63              	.LFE65:
  64              		.size	motorTest, .-motorTest
  65              		.section	.text.driveEncoders,"ax",%progbits
  66              		.align	2
  67              		.global	driveEncoders
  68              		.thumb
  69              		.thumb_func
  70              		.type	driveEncoders, %function
  71              	driveEncoders:
  72              	.LFB66:
  84:tests.c       **** }
  85:tests.c       **** 
  86:tests.c       **** 
  87:tests.c       **** void driveEncoders()
  88:tests.c       **** {
  73              		.loc 1 88 0
  74              		.cfi_startproc
  75              		@ args = 0, pretend = 0, frame = 0
  76              		@ frame_needed = 0, uses_anonymous_args = 0
  77 0000 08B5     		push	{r3, lr}
  78              		.cfi_def_cfa_offset 8
  79              		.cfi_offset 3, -8
  80              		.cfi_offset 14, -4
  89:tests.c       ****     
  90:tests.c       ****     //drive_arcLeftPID(30,180,80);
  91:tests.c       ****     drive_turnRight_s(50,30);
ARM GAS  C:\Users\Armands\AppData\Local\Temp\ccqC4Fc3.s 			page 4


  81              		.loc 1 91 0
  82 0002 1E21     		movs	r1, #30
  83 0004 3220     		movs	r0, #50
  84 0006 FFF7FEFF 		bl	drive_turnRight_s
  85              	.LVL4:
  92:tests.c       ****     drive_waitFor_DONE();
  86              		.loc 1 92 0
  87 000a FFF7FEFF 		bl	drive_waitFor_DONE
  88              	.LVL5:
  93:tests.c       ****     //drive_forward_s(60,30);
  94:tests.c       ****     drive_arcLeftPID(30,180,80);
  89              		.loc 1 94 0
  90 000e 5022     		movs	r2, #80
  91 0010 B421     		movs	r1, #180
  92 0012 1E20     		movs	r0, #30
  93 0014 FFF7FEFF 		bl	drive_arcLeftPID
  94              	.LVL6:
  95:tests.c       ****     drive_waitFor_DONE();
  95              		.loc 1 95 0
  96 0018 FFF7FEFF 		bl	drive_waitFor_DONE
  97              	.LVL7:
  98 001c 08BD     		pop	{r3, pc}
  99              		.cfi_endproc
 100              	.LFE66:
 101              		.size	driveEncoders, .-driveEncoders
 102 001e 00BF     		.section	.text.trackObject,"ax",%progbits
 103              		.align	2
 104              		.global	trackObject
 105              		.thumb
 106              		.thumb_func
 107              		.type	trackObject, %function
 108              	trackObject:
 109              	.LFB68:
  96:tests.c       ****     //drive_turnLeft_s(90,30);
  97:tests.c       **** }
  98:tests.c       **** 
  99:tests.c       **** void lineTest(){
 100:tests.c       ****     int lineSens = 0;
 101:tests.c       ****     showText(25,"line test");
 102:tests.c       ****     while (!GoBack()) {
 103:tests.c       **** 	    lineSens = LineSensRead();
 104:tests.c       **** 
 105:tests.c       **** 		if( 0 < lineSens ){
 106:tests.c       **** 			// line has detected
 107:tests.c       **** 		    ActOnLineDetected();
 108:tests.c       **** 		}
 109:tests.c       ****         else {
 110:tests.c       ****             drive_forward(gMotor.basic_speed, gMotor.basic_speed); //SEARCH_PWM_L SEARCH_PWM_R
 111:tests.c       ****         }
 112:tests.c       ****     }
 113:tests.c       ****     drive_forward(0,0);
 114:tests.c       ****     
 115:tests.c       **** }
 116:tests.c       **** 
 117:tests.c       **** void trackObject(void){
 110              		.loc 1 117 0
 111              		.cfi_startproc
ARM GAS  C:\Users\Armands\AppData\Local\Temp\ccqC4Fc3.s 			page 5


 112              		@ args = 0, pretend = 0, frame = 0
 113              		@ frame_needed = 0, uses_anonymous_args = 0
 114 0000 08B5     		push	{r3, lr}
 115              		.cfi_def_cfa_offset 8
 116              		.cfi_offset 3, -8
 117              		.cfi_offset 14, -4
 118:tests.c       ****     showText(20,"track object");
 118              		.loc 1 118 0
 119 0002 2F49     		ldr	r1, .L21
 120 0004 1420     		movs	r0, #20
 121 0006 FFF7FEFF 		bl	showText
 122              	.LVL8:
 119:tests.c       ****     while (!GoBack()) {
 123              		.loc 1 119 0
 124 000a 53E0     		b	.L9
 125              	.L19:
 126              	.LBB2:
 120:tests.c       **** 	    int distSens = DistSensRead(); //Distance_sensor_value_Read();
 127              		.loc 1 120 0
 128 000c FFF7FEFF 		bl	DistSensRead
 129              	.LVL9:
 121:tests.c       ****         //Sensor_Reset_Write(0xFF);  // why???
 122:tests.c       ****         
 123:tests.c       ****         //Sensor_Reset_Write(0); 
 124:tests.c       **** 
 125:tests.c       ****     	if( 0 < distSens ){
 130              		.loc 1 125 0
 131 0010 0028     		cmp	r0, #0
 132 0012 4BDD     		ble	.L10
 133              	.LBB3:
 126:tests.c       ****             int8_t avrg_angle_grad = CalcAvrgAngle();
 134              		.loc 1 126 0
 135 0014 FFF7FEFF 		bl	CalcAvrgAngle
 136              	.LVL10:
 127:tests.c       **** 
 128:tests.c       ****         	int8_t pwm = 60;
 129:tests.c       ****             #define ATTACK_PWM 0
 130:tests.c       ****         	// Attack spotted opponent
 131:tests.c       ****         	if( 0 == avrg_angle_grad ){
 137              		.loc 1 131 0
 138 0018 38B9     		cbnz	r0, .L11
 132:tests.c       ****         		drive_forward( ATTACK_PWM , ATTACK_PWM );		// drive forward
 139              		.loc 1 132 0
 140 001a 0021     		movs	r1, #0
 141 001c 0846     		mov	r0, r1
 142              	.LVL11:
 143 001e FFF7FEFF 		bl	drive_forward
 144              	.LVL12:
 133:tests.c       ****         		CyDelay(40);
 145              		.loc 1 133 0
 146 0022 2820     		movs	r0, #40
 147 0024 FFF7FEFF 		bl	CyDelay
 148              	.LVL13:
 149 0028 3CE0     		b	.L12
 150              	.LVL14:
 151              	.L11:
 134:tests.c       ****         	}else if( -60 >= avrg_angle_grad ){
ARM GAS  C:\Users\Armands\AppData\Local\Temp\ccqC4Fc3.s 			page 6


 152              		.loc 1 134 0
 153 002a 10F13B0F 		cmn	r0, #59
 154 002e 07DA     		bge	.L13
 135:tests.c       ****         		// [-90; -60] grad
 136:tests.c       ****         		turn_left(TURN_PWM,TURN_PWM); //drive_motors( -pwm, pwm );		// turn on spot left
 155              		.loc 1 136 0
 156 0030 2321     		movs	r1, #35
 157 0032 0846     		mov	r0, r1
 158              	.LVL15:
 159 0034 FFF7FEFF 		bl	turn_left
 160              	.LVL16:
 137:tests.c       ****                 CyDelay(40);
 161              		.loc 1 137 0
 162 0038 2820     		movs	r0, #40
 163 003a FFF7FEFF 		bl	CyDelay
 164              	.LVL17:
 165 003e 31E0     		b	.L12
 166              	.LVL18:
 167              	.L13:
 138:tests.c       ****         	}else if( -30 >= avrg_angle_grad ){
 168              		.loc 1 138 0
 169 0040 10F11D0F 		cmn	r0, #29
 170 0044 07DA     		bge	.L14
 139:tests.c       ****         		// (-60; -30] grad
 140:tests.c       ****         		drive_forward( pwm / 3, pwm );	// drive more left
 171              		.loc 1 140 0
 172 0046 3C21     		movs	r1, #60
 173 0048 1420     		movs	r0, #20
 174              	.LVL19:
 175 004a FFF7FEFF 		bl	drive_forward
 176              	.LVL20:
 141:tests.c       ****                 CyDelay(30);
 177              		.loc 1 141 0
 178 004e 1E20     		movs	r0, #30
 179 0050 FFF7FEFF 		bl	CyDelay
 180              	.LVL21:
 181 0054 26E0     		b	.L12
 182              	.LVL22:
 183              	.L14:
 142:tests.c       ****         	}else if( 0 > avrg_angle_grad ){
 184              		.loc 1 142 0
 185 0056 0028     		cmp	r0, #0
 186 0058 07DA     		bge	.L15
 143:tests.c       ****         		// (-30; 0) grad
 144:tests.c       ****         		drive_forward( ATTACK_PWM * 0.7, ATTACK_PWM );	// drive little left
 187              		.loc 1 144 0
 188 005a 0021     		movs	r1, #0
 189 005c 0846     		mov	r0, r1
 190              	.LVL23:
 191 005e FFF7FEFF 		bl	drive_forward
 192              	.LVL24:
 145:tests.c       ****                 CyDelay(40);
 193              		.loc 1 145 0
 194 0062 2820     		movs	r0, #40
 195 0064 FFF7FEFF 		bl	CyDelay
 196              	.LVL25:
 197 0068 1CE0     		b	.L12
ARM GAS  C:\Users\Armands\AppData\Local\Temp\ccqC4Fc3.s 			page 7


 198              	.LVL26:
 199              	.L15:
 146:tests.c       ****         	}else if( 60 <= avrg_angle_grad ){
 200              		.loc 1 146 0
 201 006a 3B28     		cmp	r0, #59
 202 006c 07DD     		ble	.L16
 147:tests.c       ****         		// [60; 90] grad
 148:tests.c       ****         		turn_right(TURN_PWM,TURN_PWM); //drive_motors( pwm, -pwm );		// turn on spot right
 203              		.loc 1 148 0
 204 006e 2321     		movs	r1, #35
 205 0070 0846     		mov	r0, r1
 206              	.LVL27:
 207 0072 FFF7FEFF 		bl	turn_right
 208              	.LVL28:
 149:tests.c       ****                 CyDelay(40);
 209              		.loc 1 149 0
 210 0076 2820     		movs	r0, #40
 211 0078 FFF7FEFF 		bl	CyDelay
 212              	.LVL29:
 213 007c 12E0     		b	.L12
 214              	.LVL30:
 215              	.L16:
 150:tests.c       ****         	}else if( 30 <= avrg_angle_grad ){
 216              		.loc 1 150 0
 217 007e 1D28     		cmp	r0, #29
 218 0080 07DD     		ble	.L17
 151:tests.c       ****         		// [30; 60) grad
 152:tests.c       ****         		drive_forward( pwm, pwm / 3 );	// drive more right
 219              		.loc 1 152 0
 220 0082 1421     		movs	r1, #20
 221 0084 3C20     		movs	r0, #60
 222              	.LVL31:
 223 0086 FFF7FEFF 		bl	drive_forward
 224              	.LVL32:
 153:tests.c       ****                 CyDelay(30);
 225              		.loc 1 153 0
 226 008a 1E20     		movs	r0, #30
 227 008c FFF7FEFF 		bl	CyDelay
 228              	.LVL33:
 229 0090 08E0     		b	.L12
 230              	.LVL34:
 231              	.L17:
 154:tests.c       ****         	}else if( 0 <= avrg_angle_grad ){
 232              		.loc 1 154 0
 233 0092 0028     		cmp	r0, #0
 234 0094 06DB     		blt	.L12
 155:tests.c       ****         		// (0; 30) grad
 156:tests.c       ****         		drive_forward( ATTACK_PWM, ATTACK_PWM * 0.7 );	// drive little right
 235              		.loc 1 156 0
 236 0096 0021     		movs	r1, #0
 237 0098 0846     		mov	r0, r1
 238              	.LVL35:
 239 009a FFF7FEFF 		bl	drive_forward
 240              	.LVL36:
 157:tests.c       ****                 CyDelay(40);
 241              		.loc 1 157 0
 242 009e 2820     		movs	r0, #40
ARM GAS  C:\Users\Armands\AppData\Local\Temp\ccqC4Fc3.s 			page 8


 243 00a0 FFF7FEFF 		bl	CyDelay
 244              	.LVL37:
 245              	.L12:
 158:tests.c       ****         	}
 159:tests.c       ****             CyDelay(10);
 246              		.loc 1 159 0
 247 00a4 0A20     		movs	r0, #10
 248 00a6 FFF7FEFF 		bl	CyDelay
 249              	.LVL38:
 250              	.LBE3:
 251 00aa 03E0     		b	.L9
 252              	.LVL39:
 253              	.L10:
 160:tests.c       **** 
 161:tests.c       ****     		}
 162:tests.c       ****         else {
 163:tests.c       ****             drive_forward(0, 0);
 254              		.loc 1 163 0
 255 00ac 0021     		movs	r1, #0
 256 00ae 0846     		mov	r0, r1
 257              	.LVL40:
 258 00b0 FFF7FEFF 		bl	drive_forward
 259              	.LVL41:
 260              	.L9:
 261              	.LBE2:
 119:tests.c       **** 	    int distSens = DistSensRead(); //Distance_sensor_value_Read();
 262              		.loc 1 119 0
 263 00b4 FFF7FEFF 		bl	GoBack
 264              	.LVL42:
 265 00b8 0028     		cmp	r0, #0
 266 00ba A7D0     		beq	.L19
 164:tests.c       ****             //CyDelay(50);
 165:tests.c       ****         }
 166:tests.c       ****     }       
 167:tests.c       **** }
 267              		.loc 1 167 0
 268 00bc 08BD     		pop	{r3, pc}
 269              	.L22:
 270 00be 00BF     		.align	2
 271              	.L21:
 272 00c0 0C000000 		.word	.LC2
 273              		.cfi_endproc
 274              	.LFE68:
 275              		.size	trackObject, .-trackObject
 276              		.section	.text.ActOnLineDetected,"ax",%progbits
 277              		.align	2
 278              		.global	ActOnLineDetected
 279              		.thumb
 280              		.thumb_func
 281              		.type	ActOnLineDetected, %function
 282              	ActOnLineDetected:
 283              	.LFB69:
 168:tests.c       **** 
 169:tests.c       **** void ActOnLineDetected(void){
 284              		.loc 1 169 0
 285              		.cfi_startproc
 286              		@ args = 0, pretend = 0, frame = 0
ARM GAS  C:\Users\Armands\AppData\Local\Temp\ccqC4Fc3.s 			page 9


 287              		@ frame_needed = 0, uses_anonymous_args = 0
 288 0000 08B5     		push	{r3, lr}
 289              		.cfi_def_cfa_offset 8
 290              		.cfi_offset 3, -8
 291              		.cfi_offset 14, -4
 170:tests.c       **** 	//int lineSens = LineSensRead();
 171:tests.c       ****      
 172:tests.c       **** 	// Line_FL && Line_FR
 173:tests.c       **** 	if(gLine.F_LEFT && gLine.F_RIGHT){
 292              		.loc 1 173 0
 293 0002 1C4B     		ldr	r3, .L28
 294 0004 9B69     		ldr	r3, [r3, #24]
 295 0006 9BB1     		cbz	r3, .L24
 296              		.loc 1 173 0 is_stmt 0 discriminator 1
 297 0008 1A4A     		ldr	r2, .L28
 298 000a D269     		ldr	r2, [r2, #28]
 299 000c 82B1     		cbz	r2, .L24
 174:tests.c       ****         drive_backward(40,40); //drive_distance_straight_backward(10, 40);
 300              		.loc 1 174 0 is_stmt 1
 301 000e 2821     		movs	r1, #40
 302 0010 0846     		mov	r0, r1
 303 0012 FFF7FEFF 		bl	drive_backward
 304              	.LVL43:
 175:tests.c       ****         CyDelay(400);
 305              		.loc 1 175 0
 306 0016 4FF4C870 		mov	r0, #400
 307 001a FFF7FEFF 		bl	CyDelay
 308              	.LVL44:
 176:tests.c       ****         //turn_angle_right(170,50);
 177:tests.c       ****         turn_left(TURN_PWM,TURN_PWM); //turn_angle_right(180, TURN_PWM );
 309              		.loc 1 177 0
 310 001e 2321     		movs	r1, #35
 311 0020 0846     		mov	r0, r1
 312 0022 FFF7FEFF 		bl	turn_left
 313              	.LVL45:
 178:tests.c       ****         CyDelay(300);
 314              		.loc 1 178 0
 315 0026 4FF49670 		mov	r0, #300
 316 002a FFF7FEFF 		bl	CyDelay
 317              	.LVL46:
 318 002e 08BD     		pop	{r3, pc}
 319              	.L24:
 179:tests.c       **** 	}
 180:tests.c       **** 	// Line_FL
 181:tests.c       **** 	else if(gLine.F_LEFT){
 320              		.loc 1 181 0
 321 0030 73B1     		cbz	r3, .L26
 182:tests.c       ****         drive_backward(40,40); //drive_distance_straight_backward(10, 40);
 322              		.loc 1 182 0
 323 0032 2821     		movs	r1, #40
 324 0034 0846     		mov	r0, r1
 325 0036 FFF7FEFF 		bl	drive_backward
 326              	.LVL47:
 183:tests.c       ****         CyDelay(150);
 327              		.loc 1 183 0
 328 003a 9620     		movs	r0, #150
 329 003c FFF7FEFF 		bl	CyDelay
ARM GAS  C:\Users\Armands\AppData\Local\Temp\ccqC4Fc3.s 			page 10


 330              	.LVL48:
 184:tests.c       ****         turn_right(TURN_PWM,TURN_PWM); //turn_angle_right(135, TURN_PWM );
 331              		.loc 1 184 0
 332 0040 2321     		movs	r1, #35
 333 0042 0846     		mov	r0, r1
 334 0044 FFF7FEFF 		bl	turn_right
 335              	.LVL49:
 185:tests.c       ****         CyDelay(200);
 336              		.loc 1 185 0
 337 0048 C820     		movs	r0, #200
 338 004a FFF7FEFF 		bl	CyDelay
 339              	.LVL50:
 340 004e 08BD     		pop	{r3, pc}
 341              	.L26:
 186:tests.c       **** 	}
 187:tests.c       **** 	// Line_FR
 188:tests.c       **** 	else if(gLine.F_RIGHT){
 342              		.loc 1 188 0
 343 0050 084B     		ldr	r3, .L28
 344 0052 DB69     		ldr	r3, [r3, #28]
 345 0054 6BB1     		cbz	r3, .L23
 189:tests.c       ****         drive_backward(40,40); //drive_distance_straight_backward(10, 40);
 346              		.loc 1 189 0
 347 0056 2821     		movs	r1, #40
 348 0058 0846     		mov	r0, r1
 349 005a FFF7FEFF 		bl	drive_backward
 350              	.LVL51:
 190:tests.c       ****         CyDelay(150);
 351              		.loc 1 190 0
 352 005e 9620     		movs	r0, #150
 353 0060 FFF7FEFF 		bl	CyDelay
 354              	.LVL52:
 191:tests.c       ****         turn_left(TURN_PWM,TURN_PWM); //turn_angle_left(135, TURN_PWM );
 355              		.loc 1 191 0
 356 0064 2321     		movs	r1, #35
 357 0066 0846     		mov	r0, r1
 358 0068 FFF7FEFF 		bl	turn_left
 359              	.LVL53:
 192:tests.c       ****         CyDelay(200);
 360              		.loc 1 192 0
 361 006c C820     		movs	r0, #200
 362 006e FFF7FEFF 		bl	CyDelay
 363              	.LVL54:
 364              	.L23:
 365 0072 08BD     		pop	{r3, pc}
 366              	.L29:
 367              		.align	2
 368              	.L28:
 369 0074 00000000 		.word	gLine
 370              		.cfi_endproc
 371              	.LFE69:
 372              		.size	ActOnLineDetected, .-ActOnLineDetected
 373              		.section	.text.lineTest,"ax",%progbits
 374              		.align	2
 375              		.global	lineTest
 376              		.thumb
 377              		.thumb_func
ARM GAS  C:\Users\Armands\AppData\Local\Temp\ccqC4Fc3.s 			page 11


 378              		.type	lineTest, %function
 379              	lineTest:
 380              	.LFB67:
  99:tests.c       ****     int lineSens = 0;
 381              		.loc 1 99 0
 382              		.cfi_startproc
 383              		@ args = 0, pretend = 0, frame = 0
 384              		@ frame_needed = 0, uses_anonymous_args = 0
 385 0000 08B5     		push	{r3, lr}
 386              		.cfi_def_cfa_offset 8
 387              		.cfi_offset 3, -8
 388              		.cfi_offset 14, -4
 389              	.LVL55:
 101:tests.c       ****     while (!GoBack()) {
 390              		.loc 1 101 0
 391 0002 0D49     		ldr	r1, .L36
 392 0004 1920     		movs	r0, #25
 393 0006 FFF7FEFF 		bl	showText
 394              	.LVL56:
 102:tests.c       **** 	    lineSens = LineSensRead();
 395              		.loc 1 102 0
 396 000a 0BE0     		b	.L31
 397              	.LVL57:
 398              	.L34:
 103:tests.c       **** 
 399              		.loc 1 103 0
 400 000c FFF7FEFF 		bl	LineSensRead
 401              	.LVL58:
 105:tests.c       **** 			// line has detected
 402              		.loc 1 105 0
 403 0010 0028     		cmp	r0, #0
 404 0012 02DD     		ble	.L32
 107:tests.c       **** 		}
 405              		.loc 1 107 0
 406 0014 FFF7FEFF 		bl	ActOnLineDetected
 407              	.LVL59:
 408 0018 04E0     		b	.L31
 409              	.LVL60:
 410              	.L32:
 110:tests.c       ****         }
 411              		.loc 1 110 0
 412 001a 084B     		ldr	r3, .L36+4
 413 001c 1868     		ldr	r0, [r3]
 414              	.LVL61:
 415 001e 0146     		mov	r1, r0
 416 0020 FFF7FEFF 		bl	drive_forward
 417              	.LVL62:
 418              	.L31:
 102:tests.c       **** 	    lineSens = LineSensRead();
 419              		.loc 1 102 0
 420 0024 FFF7FEFF 		bl	GoBack
 421              	.LVL63:
 422 0028 0028     		cmp	r0, #0
 423 002a EFD0     		beq	.L34
 113:tests.c       ****     
 424              		.loc 1 113 0
 425 002c 0021     		movs	r1, #0
ARM GAS  C:\Users\Armands\AppData\Local\Temp\ccqC4Fc3.s 			page 12


 426 002e 0846     		mov	r0, r1
 427 0030 FFF7FEFF 		bl	drive_forward
 428              	.LVL64:
 429 0034 08BD     		pop	{r3, pc}
 430              	.L37:
 431 0036 00BF     		.align	2
 432              	.L36:
 433 0038 1C000000 		.word	.LC3
 434 003c 00000000 		.word	gMotor
 435              		.cfi_endproc
 436              	.LFE67:
 437              		.size	lineTest, .-lineTest
 438              		.section	.text.TestsMenu,"ax",%progbits
 439              		.align	2
 440              		.global	TestsMenu
 441              		.thumb
 442              		.thumb_func
 443              		.type	TestsMenu, %function
 444              	TestsMenu:
 445              	.LFB64:
  47:tests.c       ****     Menu testsMenu = {testsMenu_title, testsMenu_strings, 6, 0, 0};
 446              		.loc 1 47 0
 447              		.cfi_startproc
 448              		@ args = 0, pretend = 0, frame = 16
 449              		@ frame_needed = 0, uses_anonymous_args = 0
 450 0000 00B5     		push	{lr}
 451              		.cfi_def_cfa_offset 4
 452              		.cfi_offset 14, -4
 453 0002 85B0     		sub	sp, sp, #20
 454              		.cfi_def_cfa_offset 24
  48:tests.c       ****     while( 1 ){
 455              		.loc 1 48 0
 456 0004 114B     		ldr	r3, .L49
 457 0006 93E80700 		ldmia	r3, {r0, r1, r2}
 458 000a 04AB     		add	r3, sp, #16
 459 000c 03E90700 		stmdb	r3, {r0, r1, r2}
 460              	.L39:
 461              	.LBB4:
  51:tests.c       **** 
 462              		.loc 1 51 0
 463 0010 01A8     		add	r0, sp, #4
 464 0012 FFF7FEFF 		bl	ShowMenu
 465              	.LVL65:
  53:tests.c       **** 			case 0:  
 466              		.loc 1 53 0
 467 0016 0428     		cmp	r0, #4
 468 0018 14D8     		bhi	.L38
 469 001a DFE800F0 		tbb	[pc, r0]
 470              	.L42:
 471 001e 03       		.byte	(.L41-.L42)/2
 472 001f 06       		.byte	(.L43-.L42)/2
 473 0020 09       		.byte	(.L44-.L42)/2
 474 0021 0C       		.byte	(.L45-.L42)/2
 475 0022 10       		.byte	(.L46-.L42)/2
 476 0023 00       		.p2align 1
 477              	.L41:
  55:tests.c       **** 				break;
ARM GAS  C:\Users\Armands\AppData\Local\Temp\ccqC4Fc3.s 			page 13


 478              		.loc 1 55 0
 479 0024 FFF7FEFF 		bl	motorTest
 480              	.LVL66:
  56:tests.c       **** 			case 1:  
 481              		.loc 1 56 0
 482 0028 F2E7     		b	.L39
 483              	.LVL67:
 484              	.L43:
  58:tests.c       **** 				break;
 485              		.loc 1 58 0
 486 002a FFF7FEFF 		bl	lineTest
 487              	.LVL68:
  59:tests.c       **** 			case 2:  // 3.encoders
 488              		.loc 1 59 0
 489 002e EFE7     		b	.L39
 490              	.LVL69:
 491              	.L44:
  61:tests.c       **** 				break;
 492              		.loc 1 61 0
 493 0030 FFF7FEFF 		bl	trackObject
 494              	.LVL70:
  62:tests.c       ****             case 3:  // 3.encoders
 495              		.loc 1 62 0
 496 0034 ECE7     		b	.L39
 497              	.LVL71:
 498              	.L45:
  64:tests.c       ****                 break;
 499              		.loc 1 64 0
 500 0036 2820     		movs	r0, #40
 501              	.LVL72:
 502 0038 FFF7FEFF 		bl	drive_backwardTillLineSpotted
 503              	.LVL73:
  65:tests.c       ****             case 4:  // 3.encoders
 504              		.loc 1 65 0
 505 003c E8E7     		b	.L39
 506              	.LVL74:
 507              	.L46:
  67:tests.c       ****                 break;
 508              		.loc 1 67 0
 509 003e FFF7FEFF 		bl	driveEncoders
 510              	.LVL75:
  68:tests.c       **** 			case 5:  
 511              		.loc 1 68 0
 512 0042 E5E7     		b	.L39
 513              	.LVL76:
 514              	.L38:
 515              	.LBE4:
  75:tests.c       **** 
 516              		.loc 1 75 0
 517 0044 05B0     		add	sp, sp, #20
 518              		@ sp needed
 519 0046 5DF804FB 		ldr	pc, [sp], #4
 520              	.L50:
 521 004a 00BF     		.align	2
 522              	.L49:
 523 004c 00000000 		.word	.LANCHOR0
 524              		.cfi_endproc
ARM GAS  C:\Users\Armands\AppData\Local\Temp\ccqC4Fc3.s 			page 14


 525              	.LFE64:
 526              		.size	TestsMenu, .-TestsMenu
 527              		.global	testsMenu_strings
 528              		.global	testsMenu_6
 529              		.global	testsMenu_5
 530              		.global	testsMenu_4
 531              		.global	testsMenu_3
 532              		.global	testsMenu_2
 533              		.global	testsMenu_1
 534              		.global	testsMenu_title
 535              		.comm	gLine,96,4
 536              		.comm	gMotor,16,4
 537              		.section	.rodata
 538              		.align	2
 539              		.set	.LANCHOR0,. + 0
 540              	.LC4:
 541 0000 00000000 		.word	testsMenu_title
 542 0004 00000000 		.word	testsMenu_strings
 543 0008 06       		.byte	6
 544 0009 00       		.byte	0
 545 000a 00       		.byte	0
 546 000b 00       		.space	1
 547              		.type	testsMenu_6, %object
 548              		.size	testsMenu_6, 7
 549              	testsMenu_6:
 550 000c 362E4558 		.ascii	"6.EXIT\000"
 550      495400
 551 0013 00       		.space	1
 552              		.type	testsMenu_5, %object
 553              		.size	testsMenu_5, 15
 554              	testsMenu_5:
 555 0014 352E4472 		.ascii	"5.DriveEncoder\000"
 555      69766545 
 555      6E636F64 
 555      657200
 556 0023 00       		.space	1
 557              		.type	testsMenu_4, %object
 558              		.size	testsMenu_4, 17
 559              	testsMenu_4:
 560 0024 342E4472 		.ascii	"4.Drive BackTill\000"
 560      69766520 
 560      4261636B 
 560      54696C6C 
 560      00
 561 0035 000000   		.space	3
 562              		.type	testsMenu_3, %object
 563              		.size	testsMenu_3, 15
 564              	testsMenu_3:
 565 0038 332E5472 		.ascii	"3.Track Object\000"
 565      61636B20 
 565      4F626A65 
 565      637400
 566 0047 00       		.space	1
 567              		.type	testsMenu_2, %object
 568              		.size	testsMenu_2, 12
 569              	testsMenu_2:
 570 0048 322E4C69 		.ascii	"2.Line test\000"
ARM GAS  C:\Users\Armands\AppData\Local\Temp\ccqC4Fc3.s 			page 15


 570      6E652074 
 570      65737400 
 571              		.type	testsMenu_1, %object
 572              		.size	testsMenu_1, 13
 573              	testsMenu_1:
 574 0054 312E4D6F 		.ascii	"1.Motor test\000"
 574      746F7220 
 574      74657374 
 574      00
 575 0061 000000   		.space	3
 576              		.type	testsMenu_title, %object
 577              		.size	testsMenu_title, 7
 578              	testsMenu_title:
 579 0064 20235445 		.ascii	" #TES#\000"
 579      532300
 580              		.data
 581              		.align	2
 582              		.type	testsMenu_strings, %object
 583              		.size	testsMenu_strings, 24
 584              	testsMenu_strings:
 585 0000 00000000 		.word	testsMenu_1
 586 0004 00000000 		.word	testsMenu_2
 587 0008 00000000 		.word	testsMenu_3
 588 000c 00000000 		.word	testsMenu_4
 589 0010 00000000 		.word	testsMenu_5
 590 0014 00000000 		.word	testsMenu_6
 591              		.section	.rodata.str1.4,"aMS",%progbits,1
 592              		.align	2
 593              	.LC1:
 594 0000 4D6F746F 		.ascii	"Motor Test\000"
 594      72205465 
 594      737400
 595 000b 00       		.space	1
 596              	.LC2:
 597 000c 74726163 		.ascii	"track object\000"
 597      6B206F62 
 597      6A656374 
 597      00
 598 0019 000000   		.space	3
 599              	.LC3:
 600 001c 6C696E65 		.ascii	"line test\000"
 600      20746573 
 600      7400
 601              		.text
 602              	.Letext0:
 603              		.file 2 "c:\\program files (x86)\\cypress\\psoc creator\\4.4\\psoc creator\\import\\gnu\\arm\\5.4.
 604              		.file 3 "c:\\program files (x86)\\cypress\\psoc creator\\4.4\\psoc creator\\import\\gnu\\arm\\5.4.
 605              		.file 4 "menu.h"
 606              		.file 5 "drive.h"
 607              		.file 6 "sensors.h"
 608              		.file 7 "Generated_Source\\PSoC5/core_cm3.h"
 609              		.file 8 "drive_smart.h"
 610              		.file 9 "button_input.h"
 611              		.file 10 "Generated_Source\\PSoC5/CyLib.h"
